:020000022000DC
:107000000000042031930300599303005B930300B5
:107010005D9303005F930300619303000000000091
:107020000000000000000000000000006393030067
:107030006593030000000000000000000000000055
:107040004182050067930300C1A00500198805006F
:1070500067930300817E0500597C0500716406007A
:1070600067930300598705006D8705006793030048
:10707000679303006793030067930300679303001C
:107080007571060059540500679303006793030068
:107090006793030067930300F95A060067930300A0
:1070A00067930300679303008187050095870500B8
:1070B00067930300679303000000000000000000D6
:1070C000679303006793030067930300AD690600AD
:1070D000718405006793030067930300D19D050049
:1070E000499E06006793030089C506000000000062
:1070F0000000000067930300000000007D6D0600A3
:10710000000000000000000000000000000000007F
:10711000000000000000000000000000000000006F
:10712000000000000000000000000000000000005F
:10713000000000000000000000000000000000004F
:10714000000000000000000000000000000000003F
:10715000000000000000000000000000000000002F
:10716000000000000000000000000000000000001F
:10717000000000000000000000000000000000000F
:1071800000000000000000000000000000000000FF
:1071900000000000000000000000000000000000EF
:1071A00000000000000000000000000000000000DF
:1071B00000000000000000000000000000000000CF
:1071C00000000000000000000000000000000000BF
:1071D00000000000000000000000000000000000AF
:1071E000000000000000000000000000000000009F
:1071F000000000000000000000000000000000008F
:1072000010B5054C237833B9044B13B10448AFF3E0
:1072100000800123237010BD60D500200000000015
:107220006805080008B5034B1BB103490348AFF3D9
:10723000008008BD0000000064D50020680508003B
:10724000154B002B08BF134B9D46A3F5803A002138
:107250008B460F461348144A121A0FF0C9FC0F4B05
:10726000002B00D098470E4B002B00D098470020F1
:10727000002104000D000D48002802D00C48AFF397
:1072800000800FF065FC200029000FF0EBF90FF0F3
:107290004BFC00BF000008000000042000000000BC
:1072A0000000000060D500203CC501200000000067
:1072B000000000000022C0E900220172704738B5CA
:1072C0000446006820B1856911F068FF2846F9E797
:1072D000204638BD006820B143688B4201D08069E8
:1072E000F9E77047F8B504460F4616461D46FFF706
:1072F000F1FF20B10123826005704370F8BD1C20AE
:1073000011F050FF012343700023C0E90333C0E9AB
:10731000053323680570C0E9017613B92060606009
:10732000ECE763689861FAE72DE9F8430468164FC3
:1073300005460E464FF000081CB363680BB9A469FC
:10734000FAE72378002BFAD0E368A268F31A9A428E
:1073500002D961780029F2D09B1A636184F8018018
:10736000E66013F061FE63688146984713F05CFEA7
:107370003B68A0EB0900206118442B7A3860002B91
:10738000DDD0BDE8F88300BF7CD50020024B1A7821
:107390000AB901221A707047D0D60020034B044866
:1073A00009221A700121FA2213F09BBA80D500201D
:1073B00011E3002008B5074B50B103221A700648AC
:1073C000FA22012113F08DFA044B00221A7008BD35
:1073D0000522F3E780D5002011E30020D1D600205C
:1073E000054B064800221A70054B08221A7001212D
:1073F000FA2213F076BA00BFD1D6002011E30020A4
:1074000080D5002084B004AB03E907000B4BBDF925
:107410000A201A800A4B9DF90C201A70094A0A4862
:10742000136801331360094B00221A70084B0121C5
:10743000FA22197004B013F054BA00BFB2D500207C
:10744000B4D50020C8D6002011E30020D1D60020FA
:1074500080D500202DE9FF47DFF8B4A2954D964E68
:10746000DFF8B082012700232F7033709AF80930BB
:10747000023BBB42544600F24F81904806F023FF86
:107480009AF80B30002B00F0CA808D4A98F8003033
:1074900011789146002940F0A98083B1894B1B786F
:1074A0006BB905F011FB9AF80930022B0CBF864826
:1074B0008648394605F0A8F9854805F0A7FA04F092
:1074C000D3FD08B3834B1B781BB98348012113F00C
:1074D000E8F8B4F88E0004F0A3FC002800F07B81EB
:1074E000764806F0F3FE0390744806F0F1FE01249E
:1074F0000023CDE90043024603997848234612F061
:10750000CFFF00286DD15EE0754A117809BB754B3D
:107510001B7803F0FF07E3B90123684889F80030BE
:1075200006F0D1FE704B71481F8041F288326368CB
:10753000B3FBF2F36E4A13806E4B1F706E4B40F636
:10754000C4121F7003213B4604B0BDE8F04713F09E
:10755000C8B90023137098F800304BB1594B1B7811
:1075600033B96649664810F0DAF8654805F04EFA16
:10757000637A032B2AD1634B50481B6800221BB24D
:10758000114606F0DDFD534B1B781BB95248012113
:1075900013F087F8B4F88E0004F042FC002800F0E5
:1075A0001A81464806F092FE0390444806F090FE89
:1075B00001240023CDE900430246039947482346AE
:1075C00012F06EFF60B9287034700AE00023009357
:1075D000B7EE000A1A461946384806F0E5FCD2E72D
:1075E0002C70484A136801331360F4E0002B00F05C
:1075F000F280344B1B78002B40F0ED8005F064FAEC
:107600009AF80930022B0CBF2F483048394605F054
:10761000FBF83D4804B0BDE8F04705F0F7B998F82D
:10762000003083B1274B1B786BB905F04DFA9AF8FF
:107630000930022B0CBF24482448394605F0E4F8F1
:10764000324805F0E3F9637A032B29D12D4B1B480F
:107650001B6800221BB2114606F072FD1D4B1B7801
:107660001BB91D48012113F01CF8B4F88E0004F07A
:10767000D7FB002800F0AF80104806F027FE0390EB
:107680000E4806F025FE00210123CDE90031024617
:107690000399124812F004FF0028A2D12870A0E735
:1076A00000230093B7EE000A1A461946034806F075
:1076B0007BFCD3E7D1D60020D8A30020A4D500209E
:1076C000ACD5002000D70020281B0700381B07007E
:1076D000491B0700D0D600206CE3002049E30020BE
:1076E000A2D5002081D5002020D7002011E3002062
:1076F00022D7002050D7002051D70020641B07005C
:10770000B5D50020C8D600207A1B07008E1B0700C5
:1077100004A30020AFD5002098F8003073B1384B97
:1077200093F80080B8F1000F08D105F0CDF9354885
:10773000394605F069F8344B83F80080334806F089
:10774000C2FD334812F0BCFF0746002846D031483E
:1077500012F040FF00283BD00121242013F053FCFD
:107760002D4B1B78C3B12D4805F050F92C4B1B78DD
:107770001BB92C48012112F094FFE77A9FB104F065
:1077800073FC20B9284A00231360284A13601F485D
:1077900006F09CFD80B29EE61B4B1B780BB1244883
:1077A000E2E72448E0E7B4F88E0004F039FB90B13A
:1077B000019701270097204A94F88E101F48022352
:1077C00012F06EFE00287FF40CAF2870377008E7C7
:1077D00001232870337004B0BDE8F0870121232015
:1077E00013F011FC134805F011F93B46124A94F8C6
:1077F0008E10134812F0FFFD01232B70F1E600BF3D
:1078000000D700209A1B0700A2D50020A4D5002095
:107810006DE3002054E3002081D50020AB1B07005E
:10782000D0D600206CE3002034D7002030D70020D1
:10783000BC1B0700CB1B070010A3002049E300205E
:107840006EE30020000000002DE9F04F824B1A7813
:10785000012A8FB0054636D1022203A81A702BF0F8
:107860008FFD7E4B039893F991307D4C4FF461620C
:10787000123802FB030005A92BF0F6FD0A9B03F268
:107880006C739BB22380099B0133DBB2A3709DF81C
:10789000203023719DF81C3063719DF81830A3715E
:1078A0009DF81430E3716F4B1B7863B12088A17889
:1078B00022796379A679E47980B2CDE9006405F094
:1078C000B3FE05F0F7FE0021242013F09CFB0021FD
:1078D000232013F098FB002D01F0D4812B78013B7D
:1078E000072B01F21C82DFE813F008004C015B0259
:1078F000B6027304FF04C907C30905F091FD5A4B92
:107900001B78002B37D0574B1B78002B00F09C8046
:1079100005F0D0FE524A554B118889B219809178F2
:10792000C9B299701179C9B2D9705179C9B21971B6
:107930009179C9B25971D2794D49D2B29A71012265
:10794000DA7100221A720968D9604A490968196116
:1079500049491A755A75098849B2D975474909784C
:1079600049B219765A839A83DA83454A126812B269
:107970001A8406F017F9434B1B78002B01F0828123
:10798000414B1C78002C41F07D81404940480FF06C
:10799000C6FE3F4905A813F0FDF805AA214620467A
:1079A00005F0AEF805A813F0AFF83A4B3A491A685B
:1079B00037480FF07DFE364905A813F0EBF805AA0D
:1079C0002146012005F09CF805A813F09DF83348E6
:1079D00012F0ABFC49F05EFB1DA3D3E9002349F094
:1079E000FDFC0B4602462E4929480FF061FE28494E
:1079F00005A813F0CFF805AA2146022005F080F86B
:107A000005A813F081F8274812F0A0FC2649024689
:107A10001F480FF04DFE1E4905A813F0BBF805AA3C
:107A20002146032005F06CF805A813F06DF81F48F7
:107A300012F09DFC092800F2A280DFE800F0398EE8
:107A400090929496989A9C9E05F058FE62E700BF2B
:107A50000000000080842E41D0D6002004A3002026
:107A6000D4D90020DCD90020B0D50020A4A100206A
:107A700030D7002034D70020B2D50020B4D5002064
:107A8000C4D60020AFD5002000D70020DD1B0700A2
:107A9000B5D50020C8D60020EB1B070079E30020F5
:107AA000FF1B07007AE300206A2807007BE3002021
:107AB000874903A80FF033FE864812F058FC864B26
:107AC000864953F8202086480FF0F2FD844905A826
:107AD00013F060F805AA4021032005F011F805A86D
:107AE00013F012F87F4812F053FC7F49421D7C4886
:107AF0000FF0DEFD7A4905A813F04CF805AA4021E5
:107B0000022004F0FDFF05A812F0FEFF774B784934
:107B10001A88734812B20FF0CBFD714905A813F013
:107B200039F805AA0021042004F0EAFF05A812F0A4
:107B3000EBFF704B70491A7852B269480FF0B8FDEC
:107B4000674905A813F026F805AA4021042004F08F
:107B5000D7FF05A812F0D8FF16E36849A9E76849DE
:107B6000A7E76849A5E76849A3E76849A1E7684925
:107B70009FE768499DE768499BE7684999E7684935
:107B800097E705F04DFC674B00221A70664B1B7897
:107B9000002B35D0654B1B78002B6BD005F08AFD90
:107BA000634B644C1A88644892B222809A78D2B2AD
:107BB000A2701A79D2B2E2705A79D2B222719A794D
:107BC000D2B26271DB795D4ADBB2A3710023E3714B
:107BD00023721268E2605A4A126822612375637543
:107BE000E37523766383A383E383564B1B681BB241
:107BF000238412F003FD40B284F8220005F0D2FF86
:107C0000514B1B78002B01F03D80504B1C78002C11
:107C100041F038804E4932484E4D0FF080FD3049DA
:107C200005A812F0B7FF05AA2146204604F068FF18
:107C300005A812F069FF2A68474929480FF038FD66
:107C4000274905A812F0A6FF05AA2146022004F044
:107C500057FF05A812F058FF2B68013B0F2B35D8B2
:107C6000DFE803F00B16181A1C1E20222426282AEF
:107C70002C2E303205F042FD92E7384918480FF0BB
:107C80004EFD174905A812F085FF05AA00215DE702
:107C90003349F3E73349F1E73349EFE73349EDE798
:107CA0003349EBE73349E9E73349E7E73349E5E7A8
:107CB0003349E3E73349E1E73349DFE73349DDE7B8
:107CC0003349DBE73349D9E73349D7E73349D5E7C8
:107CD000061C07007BE300207CA200203C1C070060
:107CE000B5D500207CE3002083280700B2D5002012
:107CF000D51D0700B4D50020E01D07000A1C0700B1
:107D00000E1C0700121C0700161C07001B1C070096
:107D1000211C0700271C07002D1C0700331C07002F
:107D2000381C0700D1D60020B0D50020DCD90020B7
:107D3000D4D90020A4A1002058E3002030D700208F
:107D400034D70020C4D60020AFD5002000D70020B3
:107D5000421C0700D4D60020511C07005B1C070002
:107D6000691C0700741C0700801C07008C1C07009E
:107D7000961C0700A01C0700AC1C0700C01C0700D5
:107D8000D31C0700E31C0700F01C0700FA1C0700C7
:107D90000A1D0700181D0700241D0700351D0700D8
:107DA00005F03EFBA24B1B78002B00F06B87A14B2C
:107DB0001E78002E40F066879F4C657A022D41D0D8
:107DC000032D46D05DB99D4905A812F0E3FE05AA32
:107DD0002946084604F094FE05A812F095FE4FF4DB
:107DE0007A7362689649B2FBF3F296480FF060FC32
:107DF000944905A812F0CEFE05AA0021012004F046
:107E00007FFE05A812F080FE8F4905A812F0C2FE81
:107E1000002105AA022004F073FE05A812F074FEEA
:107E20008A4988480FF07BFC864905A812F0B2FE0B
:107E3000002105AA032004F063FE05A812F064FEE9
:107E400081491FE7824905A812F0A4FE05AA314620
:107E5000BFE78049F7E705F0E3FA7F4B1B78002B7B
:107E600045D07E4B1B78002B00F0DE8005F022FC15
:107E70007B4B7C4C1A887C4892B222809A78D2B292
:107E8000A2701A79D2B2E2705A79D2B222719A797A
:107E9000D2B26271DB79754ADBB2A3710023E37160
:107EA0001278D2B22272724A1268E260714A126883
:107EB0002261714A118849B22175118849B26175F0
:107EC000128852B2E2756D4A127852B222766383FA
:107ED000A3836B4B1B78E3836A4B1B681BB2238421
:107EE00012F08CFB40B284F8220005F05BFE504B90
:107EF0001B78002B00F0C6864E4B1C78002C40F0FF
:107F0000C186614D614B2978614A4E485D4FDFF86B
:107F1000A481002918BF1A465E490FF0C9FB4949E0
:107F200005A812F037FE05AA2146204604F0E8FD18
:107F300005A812F0E9FD2B7803F0FF06002B40F0B6
:107F4000BB804F4B54491A783E480FF0B1FB3D4976
:107F500005A812F01FFE05AA3146012004F0D0FD4D
:107F600005A812F0D1FD404812F048FB4B490246EB
:107F700034480FF09DFB334905A812F00BFE05AA0B
:107F80003146022004F0BCFD05A812F0BDFD374BC0
:107F900043491A782B480FF08BFB2A4905A812F0A9
:107FA000F9FD05AA4021022004F0AAFD05A812F05F
:107FB000ABFDD8F800203B4922480FF079FB21495E
:107FC00005A812F0E7FD05AA3146032004F098FD4C
:107FD00005A812F099FD3A6833491A480FF068FB7A
:107FE000184905A812F0D6FD05AA4021032004F087
:107FF00087FD05A812F088FD1F4B2C491A881148EF
:1080000012B20FF055FB0F4905A812F0C3FD05AAE7
:108010003146042004F074FD05A812F075FD174BDD
:1080200023491A7852B288E505F068FB20E700BFC3
:10803000AFD5002000D7002004A30020431D070077
:10804000771D0700B5D500202BC70700A01C07002F
:10805000521D0700631D0700B0D50020DCD90020A9
:10806000D4D90020A4A1002058E30020B6D60020D7
:1080700030D7002034D70020B2D50020B4D500205E
:10808000B5D60020C4D60020B7D60020D91B0700E3
:108090001E1F07008B1D07009C1D0700B01D070059
:1080A000B91D0700C21D0700CA1D0700D21D070029
:1080B000DD1D0700C8D60020D8F800206A496B48AB
:1080C0000FF0F6FA694905A812F064FD05AA2146E9
:1080D000012004F015FD05A812F016FD3A68644968
:1080E00062480FF0E5FA614905A812F053FD05AAB0
:1080F0004021012004F004FD05A812F005FD2A78B6
:108100005C495A480FF0D4FA584905A812F042FDCC
:1081100005AA2146022004F0F3FC05A812F0F4FCA5
:108120002B78013B0F2B51D8DFE803F008323436AF
:10813000383A3C3E40424446484A4C4E4E494B48F1
:108140000FF0EDFA494905A812F024FD05AA002117
:10815000032004F0D5FC05A812F0D6FC474812F025
:108160004DFA4749024641480FF0A2FA3F4905A897
:1081700012F010FD05AA0021042004F0C1FC05A89E
:1081800012F0C2FC04F0D6FC04F0D4FC00F07ABD7E
:108190003C49D4E73C49D2E73C49D0E73C49CEE7EB
:1081A0003C49CCE73C49CAE73C49C8E73C49C6E7FB
:1081B0003C49C4E73C49C2E73C49C0E73C49BEE70B
:1081C0003C49BCE73C49BAE73C49B8E73C49B6E71B
:1081D00005F026F93B4B1B78002B00F053853A4BFA
:1081E0001E78002E40F04E85384C657A022D31D035
:1081F000032D36D05DB9364905A812F0CBFC05AA8F
:108200002946084604F07CFC05A812F07DFC4FF4DA
:108210007A7362682F49B2FBF3F214480FF048FA00
:10822000124905A812F0B6FC05AA0021012004F0AD
:1082300067FC05A812F068FC274905A812F0AAFC03
:10824000002105AA022004F05BFC05A812F05CFCEA
:108250002249E6E5224905A812F09CFC05AA314610
:10826000CFE72049F7E700BFC21D0700B5D50020C2
:10827000CA1D0700E71D07005B1C070058E300202C
:10828000FC1D0700691C0700741C0700801C070008
:108290008C1C0700961C0700A01C0700AC1C0700E4
:1082A000C01C0700D31C0700E31C0700F01C0700DC
:1082B000FA1C07000A1D0700181D0700241D0700EF
:1082C000351D0700AFD5002000D7002004A30020F3
:1082D000431D0700771D07002BC70700051E070079
:1082E000521D0700631D0700984F05F099F87B7A2F
:1082F0009749032B974B40F05F811A785E78DD78C1
:108300001C7993F8028093F805A093F907B00B78D5
:1083100006EB0226C5EB4510B6B20A22B6FBF2F216
:1083200007EE902A05EB8005C4EB44108A4AF8EE6C
:10833000E77A04EB800408F138086D006400C2EDB0
:10834000007A4FFA88F82DB224B24FEA2A1A9146E1
:10835000002B41D0814B1B78002B00F0E28005F010
:10836000A9F97F4A7F4B11887F4889B2198091789B
:10837000C9B299701179C9B2D9705179C9B219715C
:108380009179C9B25971D279D2B29A710322DA7154
:108390005FFA8AF21A72754A1268DA60744A1268D1
:1083A0001A610021734A197583F8158083F816B095
:1083B000128852B2DA75704A127836B252B21A7610
:1083C0005D839C83D9831E8412F018F9654B40B2FB
:1083D00083F8220005F0E6FB684B1B78002B00F0C9
:1083E0005184674B1B78002B40F04C8404F06CFBED
:1083F0007B7A022B0CBF63486348012104F004FA26
:108400005D4B62491A785B4B61481B8852B21BB2C4
:108410000FF04EF95E4905A812F0BCFB002108469A
:1084200005AA04F06DFB05A812F06EFB43465A4600
:10843000584957480FF03CF9554905A812F0AAFBD6
:1084400005AA0021012004F05BFB05A812F05CFBEB
:10845000524651494E480FF02BF94D4905A812F0EC
:1084600099FB05AA0021022004F04AFB05A812F09E
:108470004BFB4A4905A812F08DFB05AA32210220C8
:1084800004F03EFB05A812F03FFB454905A812F099
:1084900081FB05AA5021022004F032FB05A812F04E
:1084A00033FB404905A812F075FB05AA0021032003
:1084B00004F026FB05A812F027FBFE7A3A4F002EA7
:1084C00032D02A46394932480FF0F2F8304905A82F
:1084D00012F060FB05AA3221032004F011FB05A86D
:1084E00012F012FB31492A4822460FF0E1F82849E0
:1084F00005A812F04FFB05AA5021032004F000FB51
:1085000005A812F001FBD9F800003C6848F0E4FD32
:10851000009402460B461E4825490FF0C9F8FFF7A4
:10852000B0BB05F0EBF81CE7224919480FF0F7F84B
:10853000174905A812F02EFB05AA3221032004F0EA
:10854000DFFA05A812F0E0FAD1E700BF04A300208B
:10855000B0D5002082D50020CCD60020DCD9002068
:10856000D4D90020A4A1002058E3002030D7002057
:1085700034D70020B2D50020B4D50020AFD50020DC
:1085800000D70020281B0700381B07001B1E070010
:10859000B5D50020321E0700491E0700541E0700F3
:1085A000581E07005C1E0700C8D60020AD1D07003E
:1085B000651E07007A1E0700DD7893F801809E781B
:1085C00093F805A0C5EB451205EB82051A790B78E7
:1085D000C2EB421902EB8909A8F1C808C83E6D0038
:1085E0004FEA49091FFA88F8B6B22DB20FFA89F995
:1085F000002B42D0894B1B78002B00F0FB8005F04C
:1086000059F8874B874C1A88874892B222809A780B
:10861000D2B2A2701A79D2B2E2705A79D2B2227171
:108620009A79D2B26271DB79DBB2A3710223E37172
:108630007E4B84F808A01B68E3607D4B1B682361B8
:108640004FFA88F3237573B263757A4B1B885BB25C
:10865000E375794B1B785BB2237600236583A4F81E
:108660001C90E383754B1B681BB2238411F0C6FF7B
:1086700040B284F8220005F095FA714B1B78002B6C
:1086800000F000836F4B1B78002B40F0FB8204F05E
:108690001BFA7B7A022B0CBF6B486C48012104F05B
:1086A000B3F8654B6A491A78624B6A481B8852B224
:1086B0001BB20EF0FDFF674905A812F06BFA00210E
:1086C000084605AA04F01CFA05A812F01DFA4FFA94
:1086D0008AF261495F480EF0EBFF5E4905A812F08F
:1086E00059FA05AA0021012004F00AFA05A812F09F
:1086F0000BFA5A4905A812F04DFA05AA32210120B9
:1087000004F0FEF905A812F0FFF9554905A812F08A
:1087100041FA05AA5021012004F0F2F905A812F04F
:10872000F3F9504905A812F035FA05AA00210220F4
:1087300004F0E6F905A812F0E7F94B4905A812F094
:1087400029FA05AA0021032004F0DAF905A812F09D
:10875000DBF90FFA88F245493E480EF0A9FF3D4982
:1087600005A812F017FA05AA3221022004F0C8F970
:1087700005A812F0C9F932B23C4936483C4E0EF019
:1087800097FF344905A812F005FA05AA3221032003
:1087900004F0B6F905A812F0B7F9FC7A274F64B3D4
:1087A0002A4632492B480EF083FF2A4905A812F0C9
:1087B000F1F905AA5021022004F0A2F905A812F04F
:1087C000A3F92A4923484A460EF072FF214905A819
:1087D00012F0E0F905AA5021032004F091F905A850
:1087E00012F092F93A68234933681A480EF060FF94
:1087F000FFF747BA04F082FF03E71F4915480EF060
:108800008EFF144905A812F0C5F905AA50210220CF
:1088100004F076F905A812F077F9D7E7DCD9002043
:10882000D4D90020A4A1002058E3002030D7002094
:1088300034D70020B2D50020B4D50020C4D6002003
:10884000AFD5002000D70020281B0700381B0700E9
:108850001B1E0700B5D50020491E070066730700E0
:108860005C1E0700541E0700581E0700AD1D0700C0
:10887000C8D600207D1E07007A1E070004F0D0FD38
:108880009F48042112F037F89E4B1B78002B37D0FD
:108890009D4B1B78002B00F0ED8004F00BFF9B4BF1
:1088A0009B4C1A889B4892B222809A78D2B2A270CE
:1088B0001A79D2B2E2705A79D2B222719A79D2B2CE
:1088C0006271DB79944ADBB2A3710223E371002366
:1088D00023721268E260914A1268226123756375FF
:1088E000E37523766383A383E3838D4B1B681BB2FD
:1088F000238411F083FE40B284F8220005F052F97F
:10890000884B1B78002B00F0BD81874B1B78002B18
:1089100040F0B881854D864C04F0D6F86B7A032B75
:108920000CBF84488448012103F06EFF83498448CA
:108930000EF0F5FE824905A812F02CF90021084638
:1089400005AA04F0DDF805A812F0DEF87D4B1E78CC
:10895000002E00F071817C4FDFF8C4914FF00008C9
:1089600083F800803B7803F0FF06002B40F0858001
:10897000764B77491A7872480EF09AFE704905A82E
:1089800012F008F905AA3146012004F0B9F805A84B
:1089900012F0BAF85F4811F031FE6E49024668489D
:1089A0000EF086FE664905A812F0F4F805AA3146D5
:1089B000022004F0A5F805A812F0A6F8664B674956
:1089C0001A785F480EF074FE5D4905A812F0E2F8CF
:1089D00005AA4021022004F093F805A812F094F8AB
:1089E00022685F4956480EF063FE554905A812F00B
:1089F000D1F805AA3146032004F082F805A812F048
:108A000083F8D9F8002057494D480EF051FE4C49E3
:108A100005A812F0BFF805AA4021032004F070F861
:108A200005A812F071F8504B50491A88444812B208
:108A30000EF03EFE424905A812F0ACF805AA3146F8
:108A4000042004F05DF805A812F05EF8484B49498F
:108A50001A783B4852B20EF02BFE394905A812F0A5
:108A600099F805AA4021042004F04AF805A812F05C
:108A70004BF8A9E004F042FE11E72268384930487B
:108A80000EF016FE2E4905A812F084F805AA4146FC
:108A9000012004F035F805A812F036F8D9F80020C6
:108AA000304927480EF004FE254905A812F072F857
:108AB00005AA4021012004F023F805A812F024F8AB
:108AC0003A782D491E480EF0F3FD1D4905A812F015
:108AD00061F805AA4146022004F012F805A812F038
:108AE00013F83B78013B0F2B00F2A480DFE803F082
:108AF000468486888A8C8E90929496989A9C9EA0A2
:108B000011E30020B0D50020DCD90020D4D900200A
:108B1000A4A1002058E3002030D7002034D7002043
:108B2000C4D60020AFD5002000D7002004A3002029
:108B3000C8D60020911E0700281B0700A21E0700B0
:108B4000B5D50020AED50020B7D60020B5D6002080
:108B50009C1D0700B01D0700B6D60020B91D0700F8
:108B6000C21D0700CA1D0700B2D50020D21D070094
:108B7000B4D50020DD1D0700E71D070071497248CC
:108B80000EF0CDFD704905A812F004F805AA0021E9
:108B9000032003F0B5FF05A811F0B6FF6B4811F0F4
:108BA0002DFD6B49024668480EF082FD664905A816
:108BB00011F0F0FF05AA0021042003F0A1FF05A891
:108BC00011F0A2FF03F0B6FF6B7A032B48D1614B83
:108BD0001868246848F080FA009402460B465A4808
:108BE0005D490EF065FD584905A811F0D3FF05AAAF
:108BF00000210520FEF7ABBF5849C0E75849BEE742
:108C00005849BCE75849BAE75849B8E75849B6E760
:108C10005849B4E75849B2E75849B0E75849AEE770
:108C20005849ACE75849AAE75849A8E75849A6E780
:108C30005849A4E75849A2E7584905A811F0AAFFE6
:108C400005AA3146022003F05BFF05A811F05CFF86
:108C5000534905A811F09EFF05AA3146032003E7FA
:108C6000504B51491A68384823680EF021FDBAE785
:108C700004F0D6FB4D4B5C7A3CB1012C2AD04C4B16
:108C800000221A700FB0BDE8F08F03F01DFF4948B5
:108C9000012103F0B9FD484905A811F07BFF05AAA1
:108CA0002146204603F02CFF05A811F02DFF434973
:108CB00025480EF034FD244905A811F06BFF05AAE4
:108CC0002146032003F01CFF05A811F01DFF03F04F
:108CD00031FFD4E73A4B1B78002BD0D0394B1D78AD
:108CE000002DCCD103F0F0FE3248214603F08CFD7C
:108CF000354905A811F04EFF05AA2946284603F07C
:108D0000FFFE05A811F000FF2C490F480EF007FDEB
:108D10000D4905A811F03EFF05AA2946D1E7284BC9
:108D20001B78002BAED0274B1C78002CAAD103F067
:108D3000CBFE264905A811F02DFF05AA21462046A5
:108D4000FEF705BF5B1C0700B5D5002058E30020E7
:108D5000FC1D0700CCD60020651E0700691C07001B
:108D6000741C0700801C07008C1C0700961C070061
:108D7000A01C0700AC1C0700C01C0700D31C070088
:108D8000E31C0700F01C0700FA1C07000A1D07007F
:108D9000181D0700241D0700351D0700B71E07001A
:108DA000CB1E0700C4D600207D1E070004A30020B0
:108DB000D1D600209A1B0700431D0700DF1E0700C5
:108DC000AFD5002000D70020DD1B0700EB1E0700F9
:108DD00010B5044605F070FA204610BD0F4BB0B137
:108DE00000221A700E4B0F4A18600F4B11685B7A05
:108DF000023B012B01F101010C4B116094BF0722D2
:108E000002221A700A48FA22012111F06ABD1B7869
:108E100013B1064B0822F4E7704700BFD1D60020FB
:108E2000D4D60020C4D6002004A3002080D5002082
:108E300011E30020174B00221A70174B90F90620FF
:108E40001A70164BB0F904201A80154A0378137073
:108E5000144A41781170144A81781170134A012123
:108E600011701BB1124A13680B441360114B124866
:108E70005B7A023B012B114B95BF072204221A702B
:108E80001A7099BF42F210720421FA22012111F0E6
:108E900028BD00BFD1D60020B4D50020B2D5002017
:108EA000B7D60020B5D60020B6D60020AED500201B
:108EB000C4D6002004A3002011E3002080D50020A8
:108EC00038B5164BB0F90A201A80154B90F90C20D2
:108ED0001A70144B42781A7003780446EBB1124BA7
:108EE0005B7A023B012B15D81048042111F003FDD9
:108EF0002378023B012B0DD80D4D227A61680D4875
:108F000006232B700DF066FE08482B46FA2201213D
:108F100011F0E7FC084B00221A7038BDB2D50020D2
:108F2000B4D50020B1D5002004A3002011E3002017
:108F300080D5002082D50020D1D6002030B54FF05A
:108F400080432DED028BD3F83834032B83B027D028
:108F50001448144D11F090FC0A24B0EE408A2846C3
:108F600011F08AFC013C38EE008AF8D1B2EE067AA4
:108F7000C8EE077A9FED0C7ADFED0C6A67EE877A10
:108F80009FED0B7A67EE877A87EEA67AFCEEC77ABA
:108F9000CDED017A9DF8040003B0BDEC028B30BD2D
:108FA0000020F9E70DE3002000007A4400408345EB
:108FB00000007F4308B5064B1B783BB112F02FF839
:108FC000BDE8084001460348FEF7AEB908BD00BF42
:108FD00001D70020B8D600201E4B07B501221E483D
:108FE0001A7011F020FA18B11C48002111F0E5F9AF
:108FF0001B4811F069FB1B491B4811F077FA1B490C
:10900000194811F083FA1A49174811F077FA1949EB
:10901000154811F083FA1849134811F087FA002116
:10902000164811F0C1FA0221154811F02BFB32232A
:109030000122009311460A230B4811F016FA114B36
:10904000D97A01B10121222003B05DF804EB11F0BF
:10905000DABF00BFA1A1002084E300206EE300205E
:109060006DE30020C18E020049E30020DD8D020087
:10907000B5730200358E02008D73020051E30020AB
:109080006BE3002004A3002008B50F4B0F4800211C
:10909000197011F092F90E4811F0C9F90D490B48F9
:1090A00011F0D2F90C49094811F0D6F94FF6FD71CB
:1090B000064811F082F9094BD97A01B10121BDE8C6
:1090C0000840222011F09FBFA1A100206EE30020E4
:1090D00084E3002005740200E173020004A3002071
:1090E0001F4B07B501221F481A7011F09CF918B1E7
:1090F0001D48002111F061F91C4811F0E5FA1C49E6
:109100001C4811F0F3F91C491A4811F0FFF91B49EA
:10911000184811F0F3F91A49164811F0FFF91949E6
:10912000144811F003FA0021174811F03DFA02210A
:10913000164811F0A7FA3223012200930D480A23A2
:10914000114611F092F9124BDB7A33B10121222042
:1091500003B05DF804EB11F056BF03B05DF804FBFB
:10916000A1A1002084E300206EE300206DE3002035
:10917000C18E020049E30020DD8D0200B5730200BC
:10918000358E02008D73020051E300206BE3002056
:1091900004A3002010B50B4C00212046FEF78AF8EE
:1091A0002046094C094A0A490DF0A6FCFF21204639
:1091B00005F076F82046054A0649BDE810400DF056
:1091C0009BBC00BFB8D60020A4D5002090A10020F1
:1091D000BF720200D18D02002DE9F04F012187B04E
:1091E000222011F0F9FE0121232011F0F5FE0121CA
:1091F000242011F0F1FEAF48AF4E11F075FD03F0E1
:10920000CFFA307068B1AD49AD480EF088FAAC487D
:10921000012103F0F9FAAB4803F0F8FBAA4803F088
:10922000F5FB0021222011F0EEFE0223A7480622C2
:109230004FF4E13111F006F84FF08043D3F83834A1
:10924000032B73D14FF4FA601BF0C8FC08230222F1
:1092500003AC9F4900939A489E4D9F4F00230EF008
:1092600027FA9749204611F095FC21469B4811F0BA
:10927000D7FA204611F048FC0121232011F0C3FE4B
:109280000021232011F0BFFE0021242011F0BBFE9D
:1092900002F090FA02F0BAFA02F0A2FA02F0F0F943
:1092A00002F004FA02F018FA02F0C6FA02F056FAD6
:1092B00002F026FD00F03EFA002000F05DF96B7A26
:1092C000023B012B5AD8012002F0D8FD38703B78C0
:1092D00013B1834803F09AFB04F0F6F8814F38701D
:1092E00060B104F0E7F994E803002AF028F802F0EE
:1092F0001FFA3B7813B17C4803F088FB04F058FA5E
:109300007A4F387048B104F06DFB387002F0FAF90A
:109310003B7813B1764803F079FB02F035FA6B7AAB
:10932000032B2FD8DFE803F052AEB7C411F077FE5D
:10933000DFF898A107464FF0000B41F287384FF055
:109340000009504610F063FF00287FF47FAF11F052
:1093500066FEC41B6BEB4B05A04579EB0503FFF6DE
:1093600075AF64201BF03AFC232011F051FEB0FAD7
:1093700080F14909232011F046FEE2E7E87A00284F
:10938000A1D1A1E733780BB35A494D480EF0C7F984
:109390004B49204611F0FEFB00212246084603F00F
:1093A000AFFB204611F0B0FB534945480EF0B7F92A
:1093B0004349204611F0EEFB22460021012003F034
:1093C0009FFB204611F0A0FB03F0B4FB4B4803F0D9
:1093D0001DFB4B4811F0FEF810B94A4803F016FB8C
:1093E000FFF7FAFD4FF47A7347496A683448B2FBD5
:1093F000F3F20EF05DF9324803F008FB434A4448AB
:109400000123002111F063FA6A6822B10023404869
:10941000194611F066FA3F4A3D480023012111F038
:1094200056FA00233C4A3A48022111F050FAAB7A2E
:1094300033B1374800234EF66022022111F051FA71
:10944000364A33480123032111F041FA0023344AFC
:109450002F48042111F03BFA324B1B785BB12848AE
:1094600011F0B8F838B93223012200932E480A23AC
:10947000114610F0FAFF01212C4811F0A4FD07B0AD
:10948000BDE8F08FFFF700FE294803F0BFFA294836
:1094900003F0BCFAA6E7284803F0B8FA184811F020
:1094A00099F810B9174803F0B1FAFFF719FE99E7D8
:1094B0002248F1E78CE30020AFD500209A1B07007B
:1094C000B5D50020F91E0700061F070030E2002076
:1094D0002C27070004A30020ADD50020B8E200200F
:1094E000121F0700DCD900201A1F0700B0D500208A
:1094F000211F07002C1F07003E1F0700431D070008
:1095000054E300204E1F0700771D0700557402002A
:1095100011E300204978020089CB020085C30200D4
:109520009D730200A1A1002049E30020A9E20020D0
:10953000E21B07005C1F0700521D0700631D0700A8
:109540007047000008B5054805F024F8034805F009
:1095500040F8BDE80840014805F05AB8D8D60020C8
:1095600007B531220DF10701024805F05BF803B0A1
:109570005DF804FBD8D6002073B500210446112005
:1095800011F02AFD524811F0AFFB524B002C00F0B5
:10959000848000229A800A22DA804FF481721A8134
:1095A00040F201125A814B4805F0CCF805460028DC
:1095B00040F08B80002C38D02A22302145488DF88D
:1095C0000720012604F0D8FE0822322141488DF8F8
:1095D000072004F0D1FE324633213E488DF8076063
:1095E00004F0CAFE24220DF107013A4805F01AF8EA
:1095F0009DF80720374822F00C0242F0080224218F
:109600008DF8072004F0B8FE6022222131488DF841
:10961000072004F0B1FE2A4625212E4804F0ACFEB6
:109620002C483246212104F0A7FE002520220DF10E
:10963000070128488DF8075004F0F4FF9DF8072033
:10964000244842F0080220218DF8072004F094FEFF
:1096500064201BF0C3FA1E220DF107011D488DF88E
:10966000075004F0DFFF9DF807201A4842F09002EF
:109670001E218DF8072004F07FFE64201BF0AEFA57
:109680008CB1FFF76DFF14490422112010F09EFDEC
:10969000FFF758FF204602B070BD02229C80DC809C
:1096A0001A815C817FE720220DF10701094804F04F
:1096B000B9FF9DF80720074802F0400220218DF8ED
:1096C0000720012404F058FEE4E70024E2E700BF8D
:1096D0008CE30020D8D600204195020002481822D1
:1096E000002104F003BE00BFD8D60020D0B511F091
:1096F00096FC0D4C0D4B0021C3E9000111F08FFCCD
:10970000D4E90032C61A62EB4207C92E77F1000392
:1097100009DB11F084FC064A2060002363601378A3
:109720000133DBB21370D0BDF0D60020F8D6002094
:1097300001D7002008B50221092011F04DFC06498F
:109740000322092010F042FD044905480123642248
:10975000FDF7C8FD012008BDED960200499D0200FD
:10976000B8D600202DE9F04FC74D91B011F057FC4D
:10977000D5E900230024811A64EB030300910193CF
:10978000DDE9002340F6B8300021904271EB03037D
:10979000A346A246A146A0462746264677DB11F0FF
:1097A0003EFCD5E90023811A63EB43030291039346
:1097B000DDE90223B2F5C87F73F1000373DA11F01B
:1097C0002EFCD5E90023811A63EB43030491059332
:1097D000DDE90434B3F5C87F74F1000380F28580BD
:1097E00011F01DFCD5E90023811A63EB43030691B8
:1097F0000793DDE90634B3F5167F74F1000380F2B8
:10980000998011F00CFCD5E90023811A63EB430326
:1098100008910993DDE90834B3F5487F74F100033A
:1098200080F2AE8011F0FBFBD5E90023811A63EBD7
:1098300043030A910B93DDE90A34B3F5966F74F193
:10984000000380F2C08011F0EAFBD5E90023811A01
:1098500063EB43030C910D93DDE90C34B3F5AF6F6B
:1098600074F1000380F2D28011F0D9FBD5E9002316
:10987000811A63EB43030E910F93DDE90E34B3F5C8
:10988000C86F74F1000380F2E280082474E00920BC
:1098900011F0BEFB002882D17C4B1B78002B3FF4DB
:1098A0007EAF022468E0794B1B78012B87D1092019
:1098B00011F0AEFB012882D10023C82C10D0092062
:1098C000009311F0A5FB009B012804BF0133DBB21C
:1098D000012001340093E4B21BF080F9009BECE717
:1098E000C62B7FF66CAF002446E0684B1B78022B3A
:1098F0007FF476AF092011F08BFB01287FF470AF65
:109900000024BBF1C80F10D0092011F081FB012801
:1099100008BF01344FF001000BF1010B08BFE4B2A6
:109920005FFA8BFB1BF05AF9EBE7C62C7FF658AFBA
:10993000012421E0554B1B78032BDCB27FF461AF8F
:109940004FF0000BBAF1C80F12D0092011F060FBE4
:10995000012808BF0BF1010B4FF001000AF1010AC9
:1099600008BF5FFA8BFB5FFA8AFA1BF037F9E9E769
:10997000BBF1C60F7FF645AF204611B0BDE8F08FB2
:10998000424B1B78042BDCB27FF44CAF4FF0000A43
:10999000B9F1C80F12D0092011F03AFB012808BF15
:1099A0000AF1010A4FF0010009F1010908BF5FFA4D
:1099B0008AFA5FFA89F91BF011F9E9E7BAF1C60FE3
:1099C0007FF630AFD8E7314B1B78052BDCB27FF444
:1099D0003AAF4FF00009B8F1C80F12D0092011F0CA
:1099E00017FB012808BF09F101094FF0010008F138
:1099F000010808BF5FFA89F95FFA88F81BF0EEF8F2
:109A0000E9E7B9F1C60F7FF61EAFB5E71F4B1B782C
:109A1000062BDCB27FF428AF4FF00008C82F11D01E
:109A2000092011F0F5FA012808BF08F101084FF0EC
:109A3000010007F1010708BF5FFA88F8FFB21BF0C9
:109A4000CDF8EBE7B8F1C60F7FF60EAF94E70F4BFA
:109A50001B78072BDCB27FF418AF0025C82E0FD07F
:109A6000092011F0D5FA012808BF01354FF0010097
:109A700006F1010608BFEDB2F6B21BF0AFF8EDE754
:109A8000C62D7FF602AF77E7F8D6002001D7002079
:109A900073B58B4D8B4C6A7A637A9A4231D003F05E
:109AA00013F80021884802F0AFFE6B6863606B7AA0
:109AB000864863726B89638102F0A8FF844802F0D4
:109AC000A5FF03F037F801F0DDFE40F6B8301BF0DB
:109AD00085F8637A7F48012B4FF000014FF0320682
:109AE00040F0998010F069FC00227B4800960A2320
:109AF000114610F0BAFC794810F099FC784810F043
:109B0000B9FEEA7AE37A9A4207D06B7A023B012BDC
:109B100094BF0120002002F0B1F96A6863689A429C
:109B200003D16A8963899A4213D002F0CDFF674856
:109B300002F06CFF664802F069FF02F0FBFF6B6801
:109B400063606B89638101F09DFE40F6B8301BF0C5
:109B500045F8644810F0B4FD002869D0624810F060
:109B60003BFD624B1978884205D000395E4818BF2A
:109B7000012110F033FD5E4810F040FD5D4B197877
:109B8000884202D05A4810F03BFD5B4810F048FD77
:109B90005A4B1978884202D0574810F043FD584D6F
:109BA00058482E7810F04EFD86420BD02978554843
:109BB00010F054FD32230122009347480A23114636
:109BC00010F053FC02F080FF637A012B71D06CD946
:109BD000023B012B6FD94FF47A7362684A49B2FB9A
:109BE000F3F24A480DF064FD484802F00FFF626846
:109BF00022B100234648194610F073FEA37A002BC9
:109C00005BD0434800234EF66022022102B0BDE83B
:109C1000704010F066BE10F0D0FB012200960A23BF
:109C200011462D4810F021FC2E4810F04DFD65E73F
:109C3000384D3948296810F07AFB374810F075FB29
:109C40002968884202D0344810F071FB334810F084
:109C50007DFB334B1978884202D0304810F078FBF6
:109C6000304D31482E7810F082FB864203D029789F
:109C70002D4810F07EFB2D4810F08AFB2C4B1978F4
:109C8000884202D0294810F085FB2A4810F093FB47
:109C9000294B1978884202D0264810F09DFB4FF6D8
:109CA000FD710C4810F089FB8CE7244802F0AEFEF1
:109CB00091E72348FAE72348F8E702B070BD00BFF8
:109CC000D0A1002004A300206A1F0700711F070015
:109CD000811F07006EE3002049E3002084E3002099
:109CE000A8E200206DE3002055E3002003D7002008
:109CF00058E3002005D7002060E3002006D70020AD
:109D000004D700206AE30020771D0700B5D50020A6
:109D100011E3002010D7002079E300207AE300202F
:109D200014D700200BD700207BE300207CE3002029
:109D30000CD700207EE3002015D70020431D07002C
:109D4000E21B0700631D07002DE9F04F87B0FFF706
:109D500009FD072800F2CC81DFE810F0BC044A03BB
:109D60000800CD01B00053002D001A00914B0020D7
:109D70001870914B00240025C3E900458F4B1B78D8
:109D800023B107B0BDE8F04F02F0DCBE0120F8E7D8
:109D9000884B00221A70884B00200021C3E9000183
:109DA000874B1C783CB902F08FFE8648214602F0B2
:109DB0002BFD1AF02AFF7F4B00221A707E4B0020E9
:109DC0000021C3E900017E4B1C7874B17E4B1A78E8
:109DD000052A40F08D8110221A707C4BD97A0191AE
:109DE0009B7A00937A4B1B785BE002F06DFE79481A
:109DF000214602F009FD784807B0BDE8F04F10F0A9
:109E000039BD6C4B00221A706B4B00200021C3E956
:109E100000016B4B1B78002B00F06A816A4C2378A1
:109E2000052B00F26581DFE813F006006301630192
:109E3000220030004000694810F042FC0128634BCA
:109E40000AD104222270D97A01919B7A6449009345
:109E500009786448FF2315E005222270D97A019120
:109E60009B7A6149009309786048FF230AE0574BC9
:109E70000322D97A5A7201919B7A009305235C4997
:109E80005C48097802F084FE32E107235A482370C7
:109E900010F0D8FB4D4AD37A0193937A0093C3B262
:109EA0002278564956480978ECE7484B0E22D97A71
:109EB000227001919B7A0093524B94E73D4B002214
:109EC0001A703D4B00200021C3E900013C4B1B7878
:109ED000002B00F0A5803C4C2378062B00F2088173
:109EE000DFE813F007001F03120020002A005700CC
:109EF0006000364903224B7AC87A22700190897A31
:109F000000910233DBB2BAE7304A937A83F001035F
:109F10009372D27A019200930222FF233A493B487E
:109F20000978AFE7294B02225A72DA7A01929B7ABA
:109F3000009304230322A2E70A232F48237010F082
:109F400081FBC0B20C280ED8DFE800F00717171D00
:109F5000171D1D17171717171D002D4B00221A70FC
:109F60002C4B05221A70194A2B4BD17A1B78019180
:109F7000927A00920A33DBB292E7254B00221A70E4
:109F8000244B0722EEE7224B00221A70214B0A22B3
:109F9000E8E70E4B0D22D97A227001919B7A00934B
:109FA0001E4B20E7094BDA7A01929B7A009300233B
:109FB0003AE100BF01D70020F8D600204CA50020D0
:109FC00000D70020921F070002D70020D0A1002058
:109FD00015D700209D1F0700A8E200206DE3002098
:109FE000B8A20020A4A20020E8A20020D0A2002055
:109FF00078A2002064A200206AE30020CCA1002007
:10A00000C8A100200CD70020CCA20020BCA20020B8
:10A010000AD7002008D7002005D700200BD7002042
:10A020009E4810F04DFB012862D19D4D6A7A012AAD
:10A030005ED09C4E3278002A5AD19B4C9B4B2070AC
:10A040001B7804940BB902F07DFD00219848DFF8DD
:10A050006CB210F050FC974810F0F4FA964B53F89D
:10A0600020309648039310F0C9FA4FF0000A0746D3
:10A07000039B33F81A2042B35FFA8AF1584610F076
:10A08000BFFA64201AF0AAFD0020FDF7E3F910F0F2
:10A09000C6FF02463078059298B14FF47A701AF0F4
:10A0A0009DFD10F0BCFF059A42F21073B0EB020860
:10A0B0004FF0000161EB01090024434574EB0903F3
:10A0C000E8DA4FF4FA601AF089FD0AF1010ABAF1F0
:10A0D000100FCDD17948394610F092FA6A6822B152
:10A0E00000237348194610F0FCFB049A00231370F8
:10A0F00007B0BDE8F08F724B00221A70714B00243C
:10A100000025C3E90045704B1B78002B00F041810E
:10A110006E4C2278102AEBD801A353F822F000BF2E
:10A1200065A1020023A5020077A1020087A1020019
:10A1300099A10200F5A1020007A202002DA20200CF
:10A14000F1A002004BA2020071A20200F5A20200DF
:10A1500019A3020039A3020057A30200F1A00200D4
:10A1600073A3020002222270594BD97A01919B7A83
:10A170000093FF23D2E6564AD37A83F00103D372C9
:10A180000193937AC7E6524B01225A72DA7A01920E
:10A190009B7A00930323CDE609234648237010F0F1
:10A1A00051FAC0B20C2814D8DFE800F007070707FF
:10A1B000070D1B07212121211B00464B00221A708D
:10A1C000454B052204E0434B00221A70424B042207
:10A1D0001A703F4BDA7A01929B7A00933F4B1B78BF
:10A1E0005EE63C4B00221A703B4B0622F0E7394BEF
:10A1F0000222E4E7364B0C22D97A227001919B7A35
:10A200000093374BEFE5324B5A6842B142F20F717F
:10A210008A428ABFA2F51C520022103A5A60DA7AAA
:10A2200001929B7A0093FF2306223AE62D4A137887
:10A2300013B1013BDBB200E00C231370244AD17A46
:10A240000191927A009207222BE6244A2149137841
:10A250000978994209D1204B1B7813701C4AD17A96
:10A260000191927A009209221BE6013BDBB2F4E7EE
:10A270001D4A1E491378097899420BBF1C4B03F104
:10A28000FF331B78DBB21370114BDA7A01929B7AA1
:10A290000093124B1B780A2203E600BF6DE30020F7
:10A2A00004A30020D1D6002081D500204CA5002099
:10A2B00011E300206AE30020FCA4002058E3002002
:10A2C00001D70020F8D6002000D7002002D70020B8
:10A2D000D0A1002009D7002007D7002005D70020F3
:10A2E00014D7002004D7002006D700200AD700206A
:10A2F00008D70020A04AA1491368A3F5C333A03BA7
:10A300008B4298BF9E4B13609E4BDA7A01929B7AE8
:10A3100000930B22FF23C4E59B490B78062B1CBF3F
:10A3200003F1FF33DAB2974B0A70D97A01919B7A25
:10A33000009313460C22B4E5944A137813B1013B01
:10A34000DBB200E0092313708E4AD17A0191927A30
:10A3500000920D22A5E58E4A117809B1481EC0B2BF
:10A360001070884AD37A0193937A009303460E22A1
:10A3700097E5884A1378052B02D0013BDBB200E059
:10A38000162313707F4AD17A0191927A009210229B
:10A3900087E5814810F094F9804B01281B781ED185
:10A3A000002B7FF4A5AE7E4B1B780BB902F0CAFBE5
:10A3B00000217C4810F09FFA7B4B012200201A708C
:10A3C000FDF748F8794B5A68002A3FF491AE002314
:10A3D0007448194607B0BDE8F04F10F082BA002B60
:10A3E0007FF486AE6E4B1B78002BE1D10120DDE7B8
:10A3F0006F4B704D704C00221A70704B0021002082
:10A40000C3E900012978002959D1664810F073FA90
:10A410000121644810F06FFA6248022110F06BFAD3
:10A420005F4B1B7813B9012002F08CFB01235F4ABC
:10A430002B7000232370534B51685960517A528915
:10A4400055485A81597210F03BF90146D8B15C4821
:10A4500010F0D4F85B4B18705B4810F0F3F85B4BCE
:10A4600018705B4810F0B8F85A4B18705A4810F042
:10A47000D7F85A4B18700023CDE900332278584999
:10A4800058480978FEE458480FF097FF57480FF0F6
:10A490004CFF394B186056480FF058FF3A4B187074
:10A4A00054480FF064FF394B187053480FF070FF99
:10A4B000374B187051480FF07EFF364BDAE72378A0
:10A4C000102B3FF615AE01A252F823F011A50200A1
:10A4D00023A5020035A5020039A502004BA5020004
:10A4E00063A50200C1A6020067A5020001A6020042
:10A4F0001DA6020031A6020053A6020069A60200B2
:10A5000085A6020095A60200F1A00200B1A60200F5
:10A5100001221C4B2270D97A01919B7A0093FF2370
:10A52000BFE400222270174BD97A01919B7A0093E5
:10A53000FF23A4E70622ECE7124B00225A72DA7AD4
:10A5400001929B7A00930223F4E40E49214BC87ACE
:10A550001B78082222700190897A00910A33DBB2BD
:10A560009FE40B22D5E7194A13780C2B01D0013355
:10A5700060E6002361E600BF10D700207F47A119E5
:10A580008047A119D0A1002014D700200BD70020AC
:10A590000CD7002015D700206DE30020D1D6002075
:10A5A0004CA5002011E30020A2D5002004A3002028
:10A5B00001D7002000D7002002D70020F8D60020C5
:10A5C00058E3002005D700206AE3002004D70020CC
:10A5D00055E3002003D7002060E3002006D70020C9
:10A5E00000A30020ECA200206EE3002079E300200D
:10A5F0007AE300207BE300207CE300207EE3002060
:10A600005C4A1378B3FA83F35B0913705A4AD17A20
:10A610000191927A00920A33082242E4574A58493B
:10A6200013780978994201D1564B15E601331DE69E
:10A63000554A56491378097899420BBF544B013358
:10A640001B78DBB213704C4AD17A0191927A009256
:10A6500021E6504A5049136803F5C333A0338B42B7
:10A6600094BF136011604FE64C4A13780C2B1ABF4D
:10A670000133DBB2062313703F4AD17A0191927AFB
:10A68000009257E6464A1378092B01D0013357E66A
:10A69000002358E6434A1378032B1ABF0133DBB279
:10A6A00000231370344AD17A0191927A00925EE6C7
:10A6B0003D4A1378162B01D001335FE6052360E68F
:10A6C0002D4A536803F51C5310335360D37A01931A
:10A6D000937A6BE4354B00221A70354B354A0021D2
:10A6E0000020C3E90001117800293FF401AD324B8D
:10A6F000197810293FF6FCAC01A050F821F000BFFA
:10A7000045A7020053A7020053A7020053A7020067
:10A7100053A7020053A702006DA7020059A7020029
:10A7200059A7020059A7020059A7020063A7020017
:10A7300063A7020063A7020063A70200F1A0020062
:10A7400063A702000023137007B0BDE8F04FFFF7C6
:10A750009FB900221A70E6E604221A70064BFFF732
:10A7600072BB05221A70044BFFF778BB02221A70E5
:10A77000FAE400BF03D70020D0A1002005D70020B5
:10A7800007D7002009D7002006D7002008D70020CF
:10A790000AD7002010D700200070383914D70020C5
:10A7A0000BD700200CD7002015D7002001D70020A0
:10A7B000F8D6002000D7002002D70020024B01224B
:10A7C0001A700920704700BF17D70020536E012B65
:10A7D0002DE9F0410E4615462DD1304910680CF098
:10A7E00094FF044658BBDFF8D0802D4F98F8003016
:10A7F0002C4D2D492D48002B14BF3B462B4632468D
:10A8000010F04EFB2A49294810F04AFB98F8003016
:10A8100025492848002B14BF3B462B46324610F0F2
:10A820003FFB2349234810F03BFB64201AF0D6F984
:10A830002046BDE8F081002B01DC0224F8E700226D
:10A84000286811460DF0E0F810F0FF0418D11A4BFB
:10A850001A4D1B481C70214610F04DF86A6822B151
:10A8600017482346214610F03CF86B7A012B01D0A3
:10A870000024DDE74FF6FD7112480FF09EFDF7E76B
:10A88000012CDAD10C4B0E481C70002110F033F86B
:10A890000A4B5B7A012BEBD10021EDE73E820700EA
:10A8A000FF1F0700062007000F20070030E20020EE
:10A8B000B862070094E2002016D7002004A300200D
:10A8C00011E300206EE3002070B598B014460A49E9
:10A8D0000EA810F05FF90023CDE91433CDE916334B
:10A8E000636E012B0CD1054920680CF00EFF48B1B6
:10A8F000022400F0EDBC00BFBA6207003E820700F0
:10A90000002BF5D1B649B748B74CB84DB84E10F04A
:10A91000C7FAB849B34810F0C3FAB149B64810F0C5
:10A92000BFFAB449B44810F0BBFA64201AF056F9E3
:10A93000637AB24955F82320AA4810F0B1FAAD491C
:10A94000A84810F0ADFA637AAC4955F82320AA481C
:10A9500010F0A6FAA749A84810F0A2FA64201AF04D
:10A960003DF9A74911A80FF065FF11A90EA810F035
:10A9700024F911A810F0C8F80EA810F061F90E9A89
:10A98000A049984810F08CFA9A49964810F088FA35
:10A990000E9A9C49984810F083FA9649964810F010
:10A9A0007FFA64201AF01AF9974911A80FF022FFD4
:10A9B000119A96498B4810F073FA11A810F0A4F878
:10A9C0008C49884810F06CFA8F4911A80FF012FFDB
:10A9D000119A8E49884810F063FA11A810F094F883
:10A9E0008449854810F05CFA64201AF0F7F84FF4B7
:10A9F0007A7562688649B2FBF5F27A4810F050FA2F
:10AA00007C49784810F04CFA62688149B2FBF5F253
:10AA1000794810F045FA7749774810F041FA6420F8
:10AA20001AF0DCF87B480FF04BFE7B4956F82020EB
:10AA300005466C4810F034FA6E496A4810F030FA56
:10AA400056F8252074496C4810F02AFA69496A487A
:10AA500010F026FA64201AF0C1F8012D40F04E8360
:10AA60006E486F4E6F4D0FF0B5FD6F49002814BF53
:10AA700032462A465B4810F013FA5E49594810F0F6
:10AA80000FFA66480FF0A6FD6749002814BF32464A
:10AA90002A465948654E10F003FA5649564810F0B8
:10AAA000FFF964201AF09AF861480FF0CBFD614974
:10AAB000054602464B4810F0F3F94E49494810F05C
:10AAC000EFF92A465B494C4810F0EAF949494A48EF
:10AAD00010F0E6F964201AF081F856F8252056495E
:10AAE000404810F0DDF943493E4810F0D9F956F8D6
:10AAF00025205149404810F0D3F93E493E4810F016
:10AB0000CFF964201AF06AF84C480FF05CFD002879
:10AB100000F0BE814A49334810F0C2F93549314846
:10AB200010F0BEF94649344810F0BAF931493248BC
:10AB300010F0B6F964201AF051F8082214A941481F
:10AB40000FF020FD9DF8573005939DF85630049383
:10AB50009DF8553003939DF8543002939DF853307F
:10AB600001939DF852309DF85020374900931D48BD
:10AB70009DF8513010F094F91E491A4810F090F9E0
:10AB80009DF8573005939DF8563004939DF8553045
:10AB900003939DF8543002939DF8533001939DF830
:10ABA00052309DF850202849009313489DF85130A9
:10ABB00010F076F90F49104810F072F964201AF07D
:10ABC0000DF8082214A921480FF0B8FC9DF8573061
:10ABD00005939DF8563004939DF8553038E000BF3A
:10ABE0002320070030E2002004A3002070A40020EE
:10ABF000CCA30020B862070094E2002032200700B6
:10AC0000E8E2002040200700ACE2002049500700A5
:10AC10004B2007006DE300205B20070054E3002079
:10AC2000AD5F0700152007006B20070098A30020E8
:10AC30006AE30020762007008120070053E300200C
:10AC40008C2007004EE30020962007004AE30020F6
:10AC500003939DF8543002939DF8533001939DF86F
:10AC600052309DF850207D4900937D489DF8513029
:10AC700010F016F97B497A4810F012F99DF8573018
:10AC800005939DF8563004939DF8553003939DF835
:10AC9000543002939DF8533001939DF852309DF843
:10ACA00050206E49009370489DF8513010F0F8F82C
:10ACB0006C496D4810F0F4F8642019F08FFF1022F1
:10ACC00014A96A480FF043FC9DF85F300D939DF87E
:10ACD0005E300C939DF85D300B939DF85C300A93C9
:10ACE0009DF85B3009939DF85A3008939DF85930D0
:10ACF00007939DF8583006939DF8573005939DF8BB
:10AD0000563004939DF8553003939DF854300293C8
:10AD10009DF8533001939DF852309DF850205449CE
:10AD200000934F489DF8513010F0BAF84D494C4807
:10AD300010F0B6F89DF85F300D939DF85E300C93DF
:10AD40009DF85D300B939DF85C300A939DF85B3065
:10AD500009939DF85A3008939DF8593007939DF850
:10AD6000583006939DF8573005939DF8563004935C
:10AD70009DF8553003939DF8543002939DF853305D
:10AD800001939DF8523000939DF850209DF851306A
:10AD90003749354810F084F832493348354E364D3E
:10ADA00010F07EF8642019F019FF34492C4810F097
:10ADB00077F82C492A4810F073F830492A4810F0E7
:10ADC0006FF82849284810F06BF8642019F006FF46
:10ADD000627A2B49224810F063F82249204810F08B
:10ADE0005FF8627A2649204810F05AF81D491E483B
:10ADF00010F056F8642019F0F1FEA27A21491848A3
:10AE0000002A14BF32462A4610F04AF81549144861
:10AE100010F046F8A27A1B491348002A14BF3246A4
:10AE20002A4610F03DF80F490F48174E10F038F839
:10AE3000642019F0D3FE15481AF0E8F90025B4F89B
:10AE40008E20EBB2934205F1010580F23D8223444E
:10AE50003046197B1AF0DAF9F1E700BFBE2007008F
:10AE600030E20020B862070094E200204BE30020AB
:10AE7000E6200700202007008E1F0700472207005A
:10AE80005722070065220700F3A307007622070078
:10AE90009049914810F004F890498F4810F000F85C
:10AEA0008C498F480FF0FCFF8C498D480FF0F8FF5C
:10AEB000642019F093FE14A910228A480FF050FB69
:10AEC0009DF85F300D939DF85E300C939DF85D30DA
:10AED0000B939DF85C300A939DF85B3009939DF8C5
:10AEE0005A3008939DF8593007939DF858300693CF
:10AEF0009DF8573005939DF8563004939DF85530D2
:10AF000003939DF8543002939DF8533001939DF8BC
:10AF100052309DF85020009373499DF851306E488F
:10AF20000FF0BEFF6D496C480FF0BAFF9DF85F301F
:10AF30000D939DF85E300C939DF85D300B939DF85A
:10AF40005C300A939DF85B3009939DF85A30089362
:10AF50009DF8593007939DF8583006939DF8573067
:10AF600005939DF8563004939DF8553003939DF852
:10AF7000543002939DF8533001939DF852309DF860
:10AF80005020009358499DF8513055480FF088FFE4
:10AF9000524953480FF084FF642019F01FFE14A992
:10AFA000102252480FF0F7FA9DF85F300D939DF88C
:10AFB0005E300C939DF85D300B939DF85C300A93E6
:10AFC0009DF85B3009939DF85A3008939DF85930ED
:10AFD00007939DF8583006939DF8573005939DF8D8
:10AFE000563004939DF8553003939DF854300293E6
:10AFF0009DF8533001939DF852309DF850200093F6
:10B000003B499DF8513034480FF04AFF33493248EC
:10B010000FF046FF9DF85F300D939DF85E300C9366
:10B020009DF85D300B939DF85C300A939DF85B3082
:10B0300009939DF85A3008939DF8593007939DF86D
:10B04000583006939DF8573005939DF85630049379
:10B050009DF8553003939DF8543002939DF853307A
:10B0600001939DF852309DF85020009320499DF89F
:10B0700051301B480FF014FF184919480FF010FF0A
:10B08000642019F0ABFD14A904221A480FF071FADC
:10B090009DF8533001939DF852309DF85020009355
:10B0A00015499DF851300C480FF0FAFE0B490A483B
:10B0B0000FF0F6FE9DF8533001939DF85230009347
:10B0C0009DF850209DF851300B4905480FF0E8FEDF
:10B0D00062E600BF2E21070030E20020B8620700C0
:10B0E00094E200204CE300203721070050E30020C9
:10B0F000802107004DE30020C92107007748002D7B
:10B1000040F09B800FF011F97549024675480FF029
:10B11000C7FE754973480FF0C3FE70480FF005F97C
:10B120006F49024671480FF0BBFE6F496F480FF040
:10B13000B7FE642019F052FD6D480FF007F96D4914
:10B14000024668480FF0ACFE674966480FF0A8FE5B
:10B1500067480FF0FBF86749024664480FF0A0FE0D
:10B16000614962480FF09CFE642019F037FD624887
:10B170000FF0FDF8614902465A480FF091FE5A4916
:10B1800058480FF08DFE5C480FF0F1F85B4902461D
:10B1900056480FF085FE544954480FF081FE642054
:10B1A00019F01CFD56480FF0F3F8564902464D4879
:10B1B0000FF076FE4C494B480FF072FE50480FF0EE
:10B1C000E7F85049024649480FF06AFE46494748A9
:10B1D0000FF066FE642019F001FD4B480FF0E9F80E
:10B1E0004A4902463F480FF05BFE3F493D480FF099
:10B1F00057FE45480FF0DDF8444902463B480FF042
:10B200004FFE394939480FF04BFE642019F0E6FC37
:10B210003F480FF0D0F83F49024632480FF040FE59
:10B22000314930480FF03CFE39480FF0C4F8394935
:10B2300002462E480FF034FEAEE50FF076F82849AE
:10B24000024628480FF02CFE274926480FF028FE1A
:10B2500022480FF06AF82249024624480FF020FEE7
:10B26000214922480FF01CFE642019F0B7FC2A483F
:10B270000FF0D5F8294902461A480FF011FE1A4975
:10B2800018480FF00DFE24480FF0C9F82349024674
:10B2900016480FF005FE144914480FF001FE642013
:10B2A00019F09CFC1E480FF0BCF81E4902460D48E0
:10B2B0000FF0F6FD0C490B480FF0F2FD18480FF0A7
:10B2C000B0F818490246B4E7074819F09FFF002478
:10B2D0000EA80FF019FC204618B070BD79E30020CD
:10B2E000E221070030E20020B862070094E200206B
:10B2F0007AE30020F12107007BE30020F921070019
:10B300007CE30020012207007DE3002009220700E2
:10B310007EE300201E22070082E300202C2207008B
:10B3200083E300203922070073B5556E012D0E46C8
:10B3300025D1144910680CF0E8F90446E0B9082555
:10B34000CDE90005022332460F4910480FF0A8FD51
:10B350000F490E480FF0A4FD02233246CDE9004507
:10B3600009490C480FF09CFD09490A480FF098FD67
:10B37000642019F033FC2546284602B070BD012533
:10B38000FAE700BF3E8207008722070030E2002074
:10B39000B862070094E200202DE9F84F654B1B7856
:10B3A000002B00F0C580644B1B78002B40F0BE8062
:10B3B000556E012D40F0BC80D2F800A05F49504688
:10B3C0000CF0A3F9044600286ED15D4B5D495E4840
:10B3D0001D700FF065FD5B495B48DFF894B10FF01D
:10B3E0005FFD584959480FF05BFD564957480FF02B
:10B3F00057FD642019F0F2FB214655480FF07BFA07
:10B40000294653480FF077FA022151480FF073FA9A
:10B4100001F05AFB21464F4801F0F6F94E4801F081
:10B42000F5FA4E4801F0F2FA01F084FB0FF0F7FD57
:10B430004FF0000A054642F2107600279BF80030D4
:10B440008BB94FF47A7019F0C9FB0FF0E8FDB0EB3F
:10B4500005086AEB4A09464577EB0903EEDA03244F
:10B460002046BDE8F88F02F01BFA364936480FF047
:10B4700017FD344934480FF013FD324933480FF0BB
:10B480000FFD304931480FF00BFD642019F0A6FB89
:10B4900001F01AFB3248002101F0B6F901F04AFB35
:10B4A00030480FF0E7F9DBE72F4950460CF02DF953
:10B4B000044600283CD1224BDFF8B4B01D70014691
:10B4C00023480FF018FA294621480FF014FA0221F8
:10B4D0001F480FF010FA01F0F7FA2146204801F05A
:10B4E00093F9224801F092FA1C4801F08FFA01F01A
:10B4F00021FB0FF094FD4FF0000A054644F620684A
:10B500004FF000099BF800306BB94FF47A7019F0D6
:10B5100065FB0FF084FD461B6AEB4A07B04579EBEB
:10B520000703EFDA9BE702F06FF9B9E7002497E72A
:10B53000022495E7B0D5002017D700203E820700EF
:10B5400000D70020B862070030E2002094E200201B
:10B5500011E30020A1220700A9220700811F070094
:10B560006A1F0700A8E2002039680700B922070017
:10B57000D8A300202DE9FF41536E012B0D46144640
:10B5800025D13A4910680CF0C0F8044620B10224D5
:10B59000204604B0BDE8F08102F08CF8294634481A
:10B5A0000FF04AFC334932480FF034FC32490A8824
:10B5B0008B7808794D798E79C97992B2CDE902619B
:10B5C000CDE900052D492A480FF06AFCE0E7052B7C
:10B5D000DDD1161F02F1100756F8045F28460CF063
:10B5E000A6F82B462844984205D013F8012B303A90
:10B5F000092AF8D9CBE7BE42EED1002211462068D5
:10B600000CF002FA40F2D233A0F2E6729A420546FA
:10B61000BDD80022606811460CF0F6F9431E0B2BD2
:10B620000646B4D80022A06811460CF0EDF9431E7E
:10B630001E2B0746ABD80022E06811460CF0E4F957
:10B6400018288046A3D80022206911460CF0DCF9A6
:10B650003B289CD8C2B200925FFA88F3FAB2F1B2EA
:10B66000A8B201F099FF002492E700BF3E820700D4
:10B6700030E2002099250700D4D90020C922070014
:10B6800007B503230193054B0093054B054A064874
:10B6900019460FF0FAF803B05DF804FBFDB802009C
:10B6A000DC220700E42207000EE3002007B5032395
:10B6B0000193054B0093054B054A064819460FF0C8
:10B6C000E4F803B05DF804FBC9B902003C230700AD
:10B6D000412307000EE3002007B503230193054B28
:10B6E0000093054B054A064819460FF0CEF803B003
:10B6F0005DF804FBC9BA02009F230700A4230700DA
:10B700000EE3002007B503230193054B0093054B7F
:10B71000054A064819460FF0B8F803B05DF804FB77
:10B7200099B30200CB230700D02307000EE30020CB
:10B7300007B503230193054B0093054B054A0648C3
:10B7400019460FF0A2F803B05DF804FB75B50200CE
:10B75000E6230700EA2307000EE3002007B50323D2
:10B760000193054B0093054B054A064819460FF017
:10B770008CF803B05DF804FB91BB0200BF650700C5
:10B78000112407000EE3002007B503230193054BA6
:10B790000093054B054A064819460FF076F803B0AA
:10B7A0005DF804FB35BC02003B2407004024070081
:10B7B0000EE3002007B503230193054B0093054BCF
:10B7C000054A064819460FF060F803B05DF804FB1F
:10B7D000CDA70200A9240700AE2407000EE3002035
:10B7E00007B502230193054B0093054B054A064814
:10B7F00019460FF04AF803B05DF804FBC9A802002F
:10B80000F0240700F72407000EE3002007B5022309
:10B810000193054B0093054B054A064819460FF066
:10B8200034F803B05DF804FB29B302000E250700CD
:10B83000152507000EE3002010B50D4C0D4986B00C
:10B8400003A80FF0A7F903A920460FF009F803A8F1
:10B850000FF05AF902230193074B0093074B084A54
:10B86000194604F126000FF010F806B010BD00BF15
:10B87000E8E200202D250700BDA7020035250700BE
:10B880003E25070070B5194C19491A4EC2B09022D6
:10B89000201D0BF09FF99021201D19F0F9FF0025C4
:10B8A0002060FE22294602A801950BF0A1F9B4F808
:10B8B0008E30E8B2984205F1010508DA23183146C6
:10B8C0001A7B01AB03EB40000BF0F2FEEFE7074AF7
:10B8D0000948942300210EF0F0FF28B90146034ADD
:10B8E000054894230EF0E9FF42B070BDDCA30020B0
:10B8F00008A30020F3A307000FE30020F8B5536E60
:10B90000012B0E4602D002242046F8BD15682749B7
:10B9100028460BF0FAFE044660B128460BF007FFFC
:10B920002A462844904224D012F8013B303B092B90
:10B93000F8D9E8E71E4F1F497B681F4832464FF48D
:10B940007A75B3FBF5F30FF0ABFA1C491A480FF008
:10B95000A7FA7B681749B3FBF5F3324618480FF096
:10B960009FFA164916480FF09BFA642019F036F931
:10B97000CAE70A22002128460CF046F8B0F5E15F3C
:10B98000C1D80B4C4FF47A735843606000210D48C6
:10B990000EF0B1FF626822B100230A4819460EF08A
:10B9A000A0FFFFF76FFF0024AEE700BF3E82070055
:10B9B00004A300206125070030E20020B8620700E0
:10B9C00094E2002011E30020536E012B70B50E4667
:10B9D00002D00224204670BD1568334928460BF07A
:10B9E00094FE044660B128460BF0A1FE2A46284486
:10B9F00090421ED012F8013B303B092BF8D9E8E702
:10BA00002A4D2B496B7A2B4832460FF049FA2A49C6
:10BA100028480FF045FA6B7A2549284832460FF03E
:10BA20003FFA254925480FF03BFA642019F0D6F873
:10BA3000D0E70A22002128460BF0E6FF0328C8D8E9
:10BA40001A4C637A984223D06072FFF71BFF637A27
:10BA5000012B22D01ED9023B012B21D918491548B0
:10BA60000FF01EFA144913480FF01AFA144913483C
:10BA70000FF016FA104911480FF012FA642019F06D
:10BA8000ADF841F2883019F0A9F80E480EF0F2FE38
:10BA900000249FE7FDF7A0FAE0E7FDF7F5FADDE700
:10BAA000FDF71EFBDAE700BF3E82070004A300207B
:10BAB0006825070030E20020B862070094E2002009
:10BAC0006E250700A8E20020F8B5536E012B0D4645
:10BAD00002D002242046F8BD17682549254E384675
:10BAE0000BF013FE044678BBB6F88E30ABB92A468D
:10BAF000214922480FF0D4F9214920480FF0D0F90C
:10BB00002A461D491F480FF0CBF91D491D480FF06B
:10BB1000C7F9642019F062F8DCE729461A481B4F80
:10BB200019F074FB2546B6F88E20EBB2934205F16E
:10BB3000010505DA33443846197B19F067FBF2E753
:10BB40000F4819F063FBC5E738460BF0F0FD06F12E
:10BB50000C0201460546384613F048FE044600280C
:10BB6000B7D16D08A6F88E50FFF78CFEB2E700BF84
:10BB70003E82070004A300208B25070030E200204E
:10BB8000B862070094E2002097250700F3A307009E
:10BB9000536E012B70B50D4602D00224204670BDB5
:10BBA00016681D4930460BF0B0FD0446D0B91B4E57
:10BBB0001B4996F991301B482A460FF071F91A4932
:10BBC00018480FF06DF996F99130154917482A4633
:10BBD0000FF066F9144915480FF062F9642018F067
:10BBE000FDFFDBE70022114630460BF087FE00F137
:10BBF0000B03DBB2192BD0D8084B93F9912040B23C
:10BC000082424FF00004C9D083F89100FFF73AFE5A
:10BC1000074B1C70C2E700BF3E82070004A3002050
:10BC20006825070030E20020B862070094E2002097
:10BC3000D0D60020536E012B2DE9F3410E46154658
:10BC40002ED1274910680BF060FD044660BBDFF879
:10BC5000AC80244F98F800300193234D3B7800933B
:10BC6000EB7A2249224832460FF01AF9214920483E
:10BC70000FF016F998F8003001933B780093EB7AB7
:10BC80001A491D4832460FF00BF91A491A480FF0AD
:10BC900007F9642018F0A2FF204602B0BDE8F08149
:10BCA000002B01DC0224F7E70022286811460BF084
:10BCB000ABFE10F0FF0508D10B4BDC7A002CEBD06B
:10BCC000DD72FFF7DFFD0024E6E7012DEAD1064B28
:10BCD000DC7A002CF7D1DD72FFF7D4FDDCE700BF82
:10BCE0003E820700DCD9002004A300209B2507002A
:10BCF00030E20020B862070094E20020B0D50020B6
:10BD0000F0B5374D3748C3B094232A4600210EF0D2
:10BD1000CAFD0646D0B12B7AAA2B1AD19021281D34
:10BD200019F0B6FD2B68304C834214D047F23052E4
:10BD3000AA23C4E901232D4BE3600423A4F88E3029
:10BD4000082384F89130FFF79DFD0026304643B06C
:10BD5000F0BD0020E6E76B6863606B7AB5F88E2073
:10BD6000032B86BF0023374600276372802A6B8926
:10BD7000638111D900232373A4F88E30374695F9D7
:10BD8000912002F10C03DBB21A2B0CD9082384F8A2
:10BD90009130FFF777FD0AE015491648A4F88E2088
:10BDA0000AF018FFEBE784F89120002FF1D100256D
:10BDB000FE22294602A801950AF01AFF0E4FB4F898
:10BDC0008E30E8B2984205F10105BFDA23183946F2
:10BDD0001A7B01AB03EB40000BF06AFCEFE700BFFE
:10BDE000DCA300200FE3002004A3002001020304D1
:10BDF000E8A3002010A30020F3A3070010B5074B11
:10BE000053F82020002332F813408C42D8B203D8D4
:10BE10000133102BF7D1184610BD00BFFCA4002041
:10BE200013B501900F480EF00DFC019980B2FFF799
:10BE3000E5FF04460C480EF0E1FBA0420FD20B4890
:10BE400000F0E4FD0A490B4822460BF031FC09489A
:10BE500000F0DCFD084B0020187002B010BD01207E
:10BE6000FBE700BF6AE3002058E30020102607002C
:10BE700022260700B5D50020D1D600202DE9F341B8
:10BE80000121754E074622200FF0BDF84FF4FA70DD
:10BE900018F0A4FE3478002C7ED1704970480094CC
:10BEA00040F24C43422207F009FD054620B9002428
:10BEB000204602B0BDE8F08169484FF0020840F228
:10BEC0004C42012186F8008007F012FB654E002FDE
:10BED00057D040F24C4322460121614807F080FBD5
:10BEE00040F24C43424601215D4807F079FB40F2A5
:10BEF0004C43062201215A4807F072FB01221146E9
:10BF000040F24C43564807F06BFB40F24C4303228F
:10BF10000121534807F064FB40F24C430422012105
:10BF20004F4807F05DFB40F24C4305224C4801218D
:10BF300007F056FBF37A40F24C42E3B10521484842
:10BF400007F01DFD464840F24C432246012107F010
:10BF50001DFC434840F24C4107F0D0FA737A023B93
:10BF6000012B02D8F47A002CA2D1002122200FF05C
:10BF70004AF82C469CE74FF4FA71394807F040FD27
:10BF8000E7E740F24C424FF0FF31354807F0D6FA70
:10BF9000FA2018F023FEE1E70025304930480095EB
:10BFA00040F24C43422207F089FC044600283FF44B
:10BFB0007EAF40F24C420121294807F099FA40F245
:10BFC0004C432A460121264807F00AFB40F24C4325
:10BFD00002220121224807F003FB40F24C430622D3
:10BFE00001211F4807F0FCFA0122114640F24C43A0
:10BFF0001B4807F0F5FA40F24C4303220121184890
:10C0000007F0EEFA40F24C4304220121144807F0F5
:10C01000E7FA40F24C4305221148012107F0E0FA0B
:10C02000104BDB7A40F24C4283B105210C4807F0FB
:10C03000A6FC0B4840F24C432A46012107F0A6FB20
:10C0400040F24C41064807F059FA31E74FF4FA71D3
:10C05000034807F0D5FCF3E724D700208CE3002049
:10C0600054D7002004A300202DE9F04FDFF80C8303
:10C07000A94FAA4CAA4DDFF80893AA4E8BB0002313
:10C0800000220021C8E90023C7E900234FF0000A7D
:10C090001C2203A82970C9F8001021700291C6F86B
:10C0A00000A00AF0A5FDA04902A80BF038FB9F4BA9
:10C0B0009F48DB7AA34640F24C41002B66D007F044
:10C0C00068FDC117C8E9000140F24C41984807F0EB
:10C0D00045FDC117C7E9000140F24C41944807F003
:10C0E00073FD40F24C41C9F80000914807F0C7FCCD
:10C0F00007EE900AF8EE677A40F24C418C48C6EDA4
:10C10000007A07F010FD40F24C412070884807F09B
:10C11000CEFC012829D1874902A80BF000FB96ED3F
:10C12000007ADFED857AB4EEE77AF1EE10FA05D504
:10C130007A4B1B78052B01D901232B702B7803F048
:10C14000FF04002B00F0D280D7E900E31A46D8F8AC
:10C150000430D8F800C01A434CEA0E00114650EAE9
:10C16000010378D100242C70AAE0022801D1734980
:10C17000D2E7032801D17249CEE7042801D17149E1
:10C18000CAE705280CBF70496749C5E707F0ACFC52
:10C190000028D3D0012124200EF035FF644840F25E
:10C1A0004C4107F084FC044600283DD15E4902A8BA
:10C1B0000BF0B5FA5E4840F24C4107F0B4FC634B1B
:10C1C0008BF800001A78904242D1614A137801330B
:10C1D0001370022CB2D95E4B1B78012BAED9012310
:10C1E00040F24C4152482B7007F0D3FCC117C8E90C
:10C1F000000140F24C414E4807F0B0FCC117C7E9BE
:10C20000000140F24C414A4807F0DEFC40F24C414C
:10C21000C9F80000464807F032FC07EE900AF8EE35
:10C22000677AC6ED007A89E7012801D14949BEE75E
:10C23000022801D14849BAE7032801D14749B6E7A6
:10C24000042801D13F49B2E70528B3D13E49AEE702
:10C2500088BF1870BDE7354B304D5B7A032B33D167
:10C260003F4B40481B6872461BB2614601F068FFB5
:10C27000D8E9000144F05AFF25A3D3E9002345F093
:10C28000ADF845F079FA384B1860D7E9000144F071
:10C290004DFF1FA3D3E9002345F0A0F845F06CFA49
:10C2A000324B32681860324B1A604FF47A72D9F808
:10C2B000003093FBF2F32F4A13602F4B2A781A7049
:10C2C00020460BB0BDE8F08FD9F8003096ED000A9B
:10C2D00024484FF47A7193FBF1F395F90010009123
:10C2E0001BB27246614601F05FFEC1E71E4BC3F808
:10C2F00000A01E4BC3F800A01D4B4FF07E521A60E9
:10C300001C4B1C601C4B1C702DE700BFAFF3008062
:10C3100000000000D012634148D70020D8D8002088
:10C3200039D7002018D700203026070004A30020AA
:10C3300054D7002037260700000096434626070002
:10C34000522607005E2607006726070050D7002008
:10C3500051D70020702607007A26070081260700A3
:10C36000C8D60020A4D5002030D7002034D7002024
:10C3700028D700202CD7002038D7002040D7002015
:10C380001CD700202DE9F041012186B023200EF0BA
:10C390003AFEFFF769FE6B4F6B4E0446002800F033
:10C3A0009C806A4BD97A11B922200EF02CFE684B82
:10C3B000002264201A7018F011FC664803210EF068
:10C3C0009AFA3B78002B36D0634B1B78002B32D186
:10C3D00000F07AFB614800F019FB614B1868614B73
:10C3E0001D68614BD3F8008044F076FE02460B4690
:10C3F0002846CDE90423CDF8088044F06DFEDDE940
:10C400000423CDE90001594959480BF051F9584826
:10C4100000F0FCFA574B1868574B1D7844F05CFE4F
:10C42000EDB202460B465248544900950BF040F9D4
:10C430004F4800F0EBFA524B1B781BB951480121D1
:10C440000EF02FF95048DFF8588101F03FFF80B21D
:10C45000FFF7E6FC0546E0B14B4801F037FF0490DA
:10C46000494801F035FF01240023CDE9004302468D
:10C470000499464823460EF013F838B988F80000AE
:10C48000434A1368013313602C4604E088F80040E7
:10C49000F6E788F800003B78002B49D0002C47D104
:10C4A0002D4B1B78002B43D100F00EFB304B1C7042
:10C4B000264BDB7A002B30D0364800F0A7FA364BFB
:10C4C0001A7862BB34882A4B2A20114694422ADD0E
:10C4D0001870013203F8011FF8E7304B32881B88CF
:10C4E0009A42D8D3642018F079FB194B19481C7074
:10C4F0002B4B03211C700EF0FEF93D785DB1164BFD
:10C500001C78002CC7D1274919480BF008F91848A6
:10C5100000F07CFAB8E70124BDE72348CDE72349C2
:10C5200013480BF0C5F8124800F070FA00F002FB57
:10C530003388002101332320338006B0BDE8F04169
:10C540000EF061BDAFD5002020D7002004A300204D
:10C55000ACD5002011E3002000D70020882607007A
:10C5600030D7002034D700202CD700209226070097
:10C57000B5D5002028D7002038D70020A2260700F4
:10C58000D0D600206CE30020A4D5002049E3002091
:10C59000C8D60020CC260700D8D8002022D70020FB
:10C5A000D1D60020B4260700E2260700F5260700B2
:10C5B00010B5054C204602F0EDF82046034A044928
:10C5C000BDE810400AF098BA54D7002090A100208E
:10C5D000A1ED02000020704738B590F833300446D2
:10C5E0000D4613B1406B0EF07FFB94F83010606B7A
:10C5F0000EF0BEFB606B802100F02DF8606B0368CD
:10C6000029461B689847606B0121BDE838400EF051
:10C61000BBBB000010B5034B0360044607F0CCFB26
:10C62000204610BDBC28070010B50446406B0EF034
:10C630005BFB606B02490EF06BFB012010BD00BF7D
:10C64000801A060010B50446FFF7E4FF20460CF000
:10C65000A5FD204610BD0368C9B21B6818472DE927
:10C66000F84F90F83330044613B1406B0EF03CFBAA
:10C67000658AC5F180054FF0000A05EBD575FF27E7
:10C680006D10D146D0463E46A38A5FFA8AF1B1EBDF
:10C69000D30F28DA4FF0000C638A5FFA8CF09842CF
:10C6A0001CDA11FB03F30344A2689BB212F803E007
:10C6B000E26812F803B0F3450BD08E4228BF0E4655
:10C6C000884538BF8846874228BF0746814538BF1E
:10C6D000814602F803E00CF1010CDDE70EF013F9DE
:10C6E0000AF1010AD0E7FF2E57D0236821219B6968
:10C6F00020469847236857FA85F19B69C9B22046BE
:10C7000098475FFA85FA23680AEB09019B69C9B269
:10C7100020469847236822219B6920469847236832
:10C7200031469B6920469847236841469B692046CD
:10C7300098470025B04529D3BA46CA4521D845B9FE
:10C7400094F83010606B0EF013FB606B4021FFF724
:10C7500082FFA268606B638A06FB0323026813F8FA
:10C760000A1012680135EDB29047102D04D1606BAC
:10C7700001210EF009FB00250AF1010A5FFA8AFA8D
:10C78000DBE701360EF0BFF8F6B2D3E72DB1606BF0
:10C790000121BDE8F84F0EF0F7BABDE8F88F0000B0
:10C7A00038B51648164C0EF09FFA4FF4FA7018F090
:10C7B00015FA0125204684F8335007F0B4FE2046D0
:10C7C00007F067FD204607F0E2FD204607F04FFD29
:10C7D000C821204607F0A4FD204607F0CBFD4023EA
:10C7E000F1222046642107F066FD0649204607F045
:10C7F0003CFD2046FFF733FF284638BD8CE3002080
:10C800009CD90020DC28070030B52DED028B0446B2
:10C8100097B04F480D464F4907F027FD4C4800217F
:10C8200007F0D4FA00220B231146494800938023D5
:10C8300007F0E4FB4648012107F0C8FA444800210C
:10C8400007F011FD444B1B787BB1444B1B7863B15F
:10C850005DB1434906A80EF09DF906AB00223C48A5
:10C86000114607F09DFE06A81AE03E4BDD7A002D2A
:10C870002FD03D4B3D4918783D4A2346002808BF3C
:10C880000A463C4906A80AF013FF06A903A80EF0C1
:10C8900081F900222E4803AB114607F081FE03A860
:10C8A0000EF032F94FF08043D3F8384414F0FF040F
:10C8B00016D0032C46D00B2200927F23002124485F
:10C8C00007F0BBFA2248FFF7CAFE17B0BDEC028B97
:10C8D00030BD214606A80EF05DF906AB2A46BEE73C
:10C8E00025489FED268A244C0DF0C6FF0A252046D8
:10C8F0000DF0C2FF013D38EE008AF8D1F2EE047A65
:10C90000C8EE277A17EE900A44F0E6FB02460B4683
:10C9100006A81B490AF0CCFE82B206A90C4807F013
:10C9200085FC06A9044603A80EF034F9C4F17F0182
:10C93000074803AB002209B207F032FE03A80EF04D
:10C94000E3F8B8E70F4906A80AF0E9FE2246E4E753
:10C950009CD90020DC2807000CDA0020B0D500208C
:10C960000027070004A3002039D70020A5A3070053
:10C97000DE6607000E2707000DE300200000000020
:10C98000142707001A270700F0B51C481C4F1D4E3E
:10C990001A4D87B0002107F019FA40230C221748DE
:10C9A00000930021802307F029FB1749134807F063
:10C9B0005CFC1248012107F009FA1048002107F039
:10C9C00052FC00243B78A34213DD06EB441103A87C
:10C9D0000EF0E0F804EB840252000C3203AB12B20A
:10C9E0000021284607F0DCFD03A80EF08DF8013485
:10C9F000E8E70248FFF733FE07B0F0BD9CD90020FE
:10CA0000D9D80020DAD80020DC28070070B5274CE0
:10CA1000274D2278052A034638D105F12002294600
:10CA200005F1400052F8046B41F8046B8242F9D1E1
:10CA3000204AA2F1200102F1200052F8046B41F8D3
:10CA4000046B8242F9D11C4AA2F1200102F12000BC
:10CA500052F8046B41F8046B8242F9D1174AA2F1F3
:10CA6000200102F1200052F8046B41F8046B82426D
:10CA7000F9D1134AA2F1200102F1200052F8046B0F
:10CA800041F8046B8242F9D10422227020780D4AC9
:10CA900005EB401020210AF0D7FD2378052B1CBFA1
:10CAA00001332370BDE87040FFF76EBFD9D8002076
:10CAB000DAD800201AD900203AD900205AD900200B
:10CAC0007AD900202A82070007B50B48002107F019
:10CAD0007DF9402300930C2280230748002107F0B2
