:020000022000DC
:1070000000000420C18B0300E98B0300EB8B03001D
:10701000ED8B0300EF8B0300F18B030000000000F9
:10702000000000000000000000000000F38B0300DF
:10703000F58B0300000000000000000000000000CD
:10704000D57A0500F78B030055990500AD80050042
:10705000F78B030015770500ED740500055D06004C
:10706000F78B0300ED7F050001800500F78B03001F
:10707000F78B0300F78B0300F78B0300F78B0300FC
:10708000096A0600ED4C0500F78B0300F78B03003F
:10709000F78B0300F78B03008D530600F78B03007B
:1070A000F78B0300F78B030015800500298005008E
:1070B000F78B0300F78B03000000000000000000C6
:1070C000F78B0300F78B0300F78B03004162060088
:1070D000057D0500F78B0300F78B0300659605001F
:1070E000DD960600F78B03001DBE060000000000C1
:1070F00000000000F78B030000000000116606008E
:10710000000000000000000000000000000000007F
:10711000000000000000000000000000000000006F
:10712000000000000000000000000000000000005F
:10713000000000000000000000000000000000004F
:10714000000000000000000000000000000000003F
:10715000000000000000000000000000000000002F
:10716000000000000000000000000000000000001F
:10717000000000000000000000000000000000000F
:1071800000000000000000000000000000000000FF
:1071900000000000000000000000000000000000EF
:1071A00000000000000000000000000000000000DF
:1071B00000000000000000000000000000000000CF
:1071C00000000000000000000000000000000000BF
:1071D00000000000000000000000000000000000AF
:1071E000000000000000000000000000000000009F
:1071F000000000000000000000000000000000008F
:1072000010B5054C237833B9044B13B10448AFF3E0
:1072100000800123237010BD60D500200000000015
:10722000C8FC070008B5034B1BB103490348AFF383
:10723000008008BD0000000064D50020C8FC0700E5
:10724000154B002B08BF134B9D46A3F5803A002138
:107250008B460F461348144A121A0FF011F90F4BC0
:10726000002B00D098470E4B002B00D098470020F1
:10727000002104000D000D48002802D00C48AFF397
:1072800000800FF0ADF8200029000EF033FE0FF063
:1072900093F800BF00000800000004200000000078
:1072A0000000000060D500203CC501200000000067
:1072B000000000000022C0E900220172704738B5CA
:1072C0000446006820B1856911F0B0FB2846F9E753
:1072D000204638BD006820B143688B4201D08069E8
:1072E000F9E77047F8B504460F4616461D46FFF706
:1072F000F1FF20B10123826005704370F8BD1C20AE
:1073000011F098FB012343700023C0E90333C0E967
:10731000053323680570C0E9017613B92060606009
:10732000ECE763689861FAE72DE9F8430468164FC3
:1073300005460E464FF000081CB363680BB9A469FC
:10734000FAE72378002BFAD0E368A268F31A9A428E
:1073500002D961780029F2D09B1A636184F8018018
:10736000E66013F0A9FA63688146984713F0A4FA1F
:107370003B68A0EB0900206118442B7A3860002B91
:10738000DDD0BDE8F88300BF7CD5002008B5074BF1
:1073900050B103221A700648FA22012112F0E9FEC8
:1073A000044B00221A7008BD0522F3E780D50020A7
:1073B00011E30020D1D60020054B064800221A70A8
:1073C000054B08221A700121FA2212F0D2BE00BF2A
:1073D000D1D6002011E3002080D5002084B004AB7A
:1073E00003E90700094BBDF90A201A80084B9DF9F3
:1073F0000C201A70074B084800221A70074B012115
:10740000FA22197004B012F0B4BE00BFB2D5002049
:10741000B4D50020D1D6002011E3002080D5002073
:10742000134B00221A70134B5B7A023B012B1DD9C0
:10743000114B90F906201A70104BB0F904201A80F5
:107440000F4A037813700F4A417811700E4A817801
:1074500011701BB10D4A1368013313600C4B0D48BA
:1074600004221A700121FA2212F083BE704700BF75
:10747000D1D6002004A30020B4D50020B2D500202E
:10748000B7D60020B5D60020B6D60020C4D600203E
:1074900080D5002011E300202DE9F0438E4D8F4E62
:1074A0008F4CDFF89482012700232F703370637AAA
:1074B000023BBB4285B000F241818A4806F04BFB9B
:1074C000E37A002B00F0C280874A98F800301178E8
:1074D0009146002940F0A6807BB1844B1B7863B9AC
:1074E00004F0C6FF637A022B0CBF814881483946FD
:1074F00004F05EFE804804F05DFF04F089FA00B3FA
:107500007E4B1B781BB97E48012112F012FDB4F8A6
:107510008E0004F057F9002800F06E81714806F0E3
:107520001DFB03906F4806F01BFB01240246CDE9CA
:10753000004403997348234612F0FAFB00286CD1EB
:107540005DE0714A117809BB704B1B7803F0FF07AF
:10755000E3B90123634889F8003006F0FCFA6C4B6C
:107560006C481F8041F288326368B3FBF2F36A4AC9
:1075700013806A4B1F706A4B40F6C4121F700321C0
:107580003B4605B0BDE8F04312F0F3BD0023137095
:1075900098F800304BB1554B1B7833B961496248BC
:1075A0000FF005FD604804F005FF637A032B29D135
:1075B0005E4B4C481B6800221BB2114606F008FACD
:1075C0004E4B1B781BB94E48012112F0B2FCB4F8A7
:1075D0008E0004F0F7F8002800F00E81414806F014
:1075E000BDFA03903F4806F0BBFA01240246CDE9FC
:1075F000004403994348234612F09AFB60B928706F
:1076000034700AE000230093B7EE000A1A461946C8
:10761000344806F011F9D3E72C70444A136801335B
:107620001360E9E0002B00F0E780304B1B78002B63
:1076300040F0E28004F01CFF2D48394604F0B8FD0C
:107640003B4805B0BDE8F04304F0B4BE98F8003004
:107650005BB1264B1B7843B904F00AFF2448394636
:1076600004F0A6FD334804F0A5FE637A032B28D16D
:107670002E4B1C481B6800221BB2114606F0A8F9CD
:107680001E4B1B781BB91E48012112F052FCB4F8A6
:107690008E0004F097F8002800F0AE80114806F044
:1076A0005DFA03900F4806F05BFA01230246CDE92C
:1076B00000330399134812F03BFB0028ADD128702A
:1076C000ABE700230093B7EE000A1A4619460548B7
:1076D00006F0B2F8D4E700BFD1D60020D8A300202E
:1076E00004A30020A4D50020ACD5002000D70020A2
:1076F000B8130700C8130700D9130700D0D600201D
:107700006CE3002049E30020A2D5002081D50020B1
:1077100020D7002011E3002022D7002050D70020DE
:1077200051D70020F4130700B5D50020C8D600209B
:107730000A1407001E140700AED5002098F8003088
:1077400073B1374B93F80080B8F1000F08D104F003
:107750008FFE3448394604F02BFD334B83F800800C
:10776000324806F0F8F9324812F0F2FB002846D011
:10777000304812F077FB00283BD00121242013F081
:107780008AF82D4B1B78C3B12C4804F013FE2C4B08
:107790001B781BB92B48012112F0CBFBE37A9BB17C
:1077A00004F036F920B9284A00231360274A1360F1
:1077B0001E4806F0D3F980B2ABE61B4B1B780BB129
:1077C0002348E2E72348E0E7B4F88E0003F0FAFF2D
:1077D00090B10127CDE900771F4A94F88E101F4819
:1077E000022312F0A5FA00287FF417AF2870377033
:1077F00013E701232870337005B0BDE8F083012141
:10780000232013F048F8134804F0D4FD0123124A52
:1078100094F88E10124812F036FA01232B70FCE611
:1078200000D700202A140700A2D50020A4D50020EC
:107830006DE3002054E3002081D500203B140700B5
:10784000D0D600206CE3002034D7002030D70020B1
:107850004C1407005B14070010A3002049E300202C
:107860006EE30020000000002DE9F04F00218BB0F6
:107870009D4C0546242013F00EF80021232013F020
:107880000AF823788BB1994B1B7873B904F0F0FD9B
:10789000974B5B7A022B40F0AC80964996480FF0EC
:1078A00086FB9548012104F083FC002D00F0FF8049
:1078B0002A78012A40F06A81904B1B78002B31D046
:1078C0008F4B1B78002B00F0998005F073FB8D4ADD
:1078D0008D4B11881980917899701179D9705179EF
:1078E00019719179D27959719A710122DA718749A6
:1078F00000221A720968D9608549096819618549A9
:107900001A755A75098849B2D9758349097849B2F7
:1079100019765A839A83DA83804A126812B21A84DB
:1079200005F088FD2378002B00F0C1806F4B1C7898
:10793000002C40F0BC807A496F480FF038FB6E494C
:1079400007A812F06FFD07AA2146204604F0ACFDFF
:1079500007A812F021FD734B73491A6866480FF0AF
:10796000EFFA654907A812F05DFD07AA214601203C
:1079700004F09AFD07A812F00FFD6C4812F01DF9F3
:1079800048F0D0FF56A3D3E9002349F06FF90B4626
:107990000246674958480FF0D3FA574907A812F032
:1079A00041FD07AA2146022004F07EFD07A812F03F
:1079B000F3FC604812F012F95F4902464E480FF09E
:1079C000BFFA4D4907A812F02DFD07AA2146032052
:1079D00004F06AFD07A812F0DFFC584812F00FF916
:1079E000092879D8DFE800F00D66686A6C6E70725D
:1079F0007476032B0CBF524952494FE705F0FEFA4B
:107A000065E7514905A80FF0D2FA4C4812F0F7F893
:107A10004E4B4F4953F8202037480FF091FA364922
:107A200007A812F0FFFC07AA4021032004F03CFD48
:107A300007A812F0B1FC474812F0F2F84649421D7F
:107A40002D480FF07DFA2C4907A812F0EBFC07AA8D
:107A50004021022004F028FD07A812F09DFC2D4BC8
:107A60003E491A88244812B20FF06AFA224907A840
:107A700012F0D8FC07AA0021042004F015FD07A885
:107A800012F08AFC244B36491A7852B21A480FF089
:107A900057FA194907A812F0C5FC07AA402104208B
:107AA00004F002FD07A812F077FC04F017FD0BB0FC
:107AB000BDE8F08F2B49A5E72B49A3E72B49A1E7A8
:107AC0002B499FE72B499DE72B499BE72B4999E7DA
:107AD0002B4997E72B4995E72B4993E7AFF30080B4
:107AE0000000000080842E41AED5002000D7002089
:107AF00004A30020B8130700B5D50020AFD500209F
:107B0000DCD90020D4D90020A4A1002030D7002047
:107B100034D70020B2D50020B4D50020C4D6002030
:107B20006D140700C8D600207B14070079E30020FD
:107B30008F1407007AE30020F11F07007BE3002089
:107B4000C81307002A140700961407007CA200201F
:107B5000CC1407007CE300200A200700651607000C
:107B6000701607009A1407009E140700A21407005D
:107B7000A6140700AB140700B1140700B7140700E0
:107B8000BD140700C3140700C81407007E4B1B7800
:107B9000022B40F09E807D4B00221A707C4B1B789C
:107BA000002B2FD07B4B1B78002B64D005F002FA02
:107BB000794B7A4D1A882A809A78AA701A79EA70D5
:107BC0005A792A719A79DB796A71AB71744A75486E
:107BD0000023EB712B721268EA60734A12682A6103
:107BE0002B756B75EB752B766B83AB83EB836F4BD0
:107BF0001B681BB22B8412F049F940B285F82200B1
:107C000005F018FC2378002B3FF451AF684B1C782B
:107C1000002C7FF44CAF67496748684D0FF0C7F9F7
:107C2000654907A812F0FEFB07AA2146204604F08A
:107C30003BFC07A812F0B0FB2A6861495E480FF0D0
:107C40007FF95D4907A812F0EDFB07AA2146022043
:107C500004F02AFC07A812F09FFB2B68013B0F2BB6
:107C600035D8DFE803F00B16181A1C1E2022242634
:107C7000282A2C2E303205F0C1F999E751494E4897
:107C80000FF095F94C4907A812F0CCFB07AA002188
:107C900005E74D49F3E74D49F1E74D49EFE74D4918
:107CA000EDE74D49EBE74D49E9E74D49E7E74D4938
:107CB000E5E74D49E3E74D49E1E74D49DFE74D4948
:107CC000DDE74D49DBE74D49D9E74D49D7E74D4958
:107CD000D5E7032A40F0A4802378002B3FF4E7AED9
:107CE000334B1E78002E7FF4E2AE474C657A022DAE
:107CF00041D0032D46D05DB9444907A812F092FB4C
:107D000007AA2946084604F0CFFB07A812F044FB57
:107D10004FF47A7362683E49B2FBF3F226480FF0E3
:107D20000FF9254907A812F07DFB07AA00210120C1
:107D300004F0BAFB07A812F02FFB364907A812F08F
:107D400071FB002107AA022004F0AEFB07A812F085
:107D500023FB224918480FF02AF9174907A812F007
:107D600061FB002107AA032004F09EFB07A812F084
:107D700013FB284987E7284907A812F053FB07AAF5
:107D80003146BFE72549F7E780D50020D1D600204E
:107D9000AFD50020DCD90020D4D90020A4A1002038
:107DA00030D7002058E3002034D70020C4D600206C
:107DB00000D70020D2140700B5D50020D4D600206B
:107DC000E1140700EB140700F9140700041507007D
:107DD000101507001C1507002615070030150700B1
:107DE0003C150700501507006315070073150700C1
:107DF000801507008A1507009A150700A8150700C7
:107E0000B4150700C515070004A30020D31507000B
:107E1000071607008BBE0700E2150700F3150700E1
:107E2000042A40F0A281924B1B78002B3FD0914B4B
:107E30001B78002B00F0D68005F0BCF88E4B8F4DE0
:107E40001A882A809A78AA701A79EA705A792A715F
:107E50009A79DB796A71AB71894A8A480023EB71A0
:107E60001278D2B22A72884A1268EA60874A126887
:107E70002A61874A118849B22975118849B2697502
:107E8000128852B2EA75834A127852B22A766B830C
:107E9000AB83814B1B78EB83804B1B681BB22B841D
:107EA00011F0F4FF40B285F8220005F0C3FA237800
:107EB000002B3FF4FCAD7A4B1C78002C7FF4F7AD1F
:107EC000784D794B2978794A7948744FDFF80882E0
:107ED000002918BF1A4677490FF032F8744907A8ED
:107EE00012F0A0FA07AA2146204604F0DDFA07A8FE
:107EF00012F052FA2B7803F0FF06002B75D1664B77
:107F00006D491A786A480FF01BF8694907A812F002
:107F100089FA07AA3146012004F0C6FA07A812F030
:107F20003BFA584811F0B2FF6449024660480FF02E
:107F300007F85F4907A812F075FA07AA3146022030
:107F400004F0B2FA07A812F027FA4D4B5C491A78F0
:107F500057480EF0F5FF564907A812F063FA07AA32
:107F60004021022004F0A0FA07A812F015FAD8F870
:107F7000002054494E480EF0E3FF4D4907A812F087
:107F800051FA07AA3146032004F08EFA07A812F02E
:107F900003FA3A684C4946480EF0D2FF444907A814
:107FA00012F040FA07AA4021032004F07DFA07A846
:107FB00012F0F2F9364B45491A883D4812B20EF0DC
:107FC000BFFF3B4907A812F02DFA07AA314604204B
:107FD00004F06AFA07A812F0DFF92E4B3C491A7830
:107FE00052B253E505F00AF828E7D8F800203549E1
:107FF0002F480EF0A5FF2E4907A812F013FA07AA82
:108000002146012004F050FA07A812F0C5F93A6899
:108010002D4927480EF094FF254907A812F002FACF
:1080200007AA4021012004F03FFA07A812F0B4F992
:108030002A7828491E480EF083FF1D4907A812F030
:10804000F1F907AA2146022004F02EFA07A812F03F
:10805000A3F92B78013B0F2B00F28580DFE803F0BA
:108060003E6567696B6D6F71737577797B7D7F8115
:10807000AFD50020DCD90020D4D90020A4A1002055
:10808000B6D6002058E3002030D7002034D7002097
:10809000B2D50020B4D50020B5D60020C4D600202B
:1080A00000D70020B7D60020691407008917070001
:1080B000B5D500201B1607002C1607004016070038
:1080C00049160700521607005A16070062160700E5
:1080D0006D16070077160700C8D6002045494648A8
:1080E0000EF065FF444907A812F09CF907AA002189
:1080F000032004F0D9F907A812F04EF93F4811F017
:10810000C5FE3F4902463C480EF01AFF3A4907A80F
:1081100012F088F907AA0021042004F0C5F907A885
:1081200012F03AF904F0DAF9BFE43649D7E73649F4
:10813000D5E73649D3E73649D1E73649CFE736495F
:10814000CDE73649CBE73649C9E73649C7E736496F
:10815000C5E73649C3E73649C1E73649BFE736497F
:10816000BDE73649BBE73649B9E7052A7AD1237816
:10817000002B3FF49CAC334B1E78002E7FF497AC61
:10818000314C657A022D31D0032D31D05DB92F49A4
:1081900007A812F047F90021084607AA04F084F95D
:1081A00007A812F0F9F84FF47A7362682849B2FB15
:1081B000F3F211480EF0C4FE0F4907A812F032F98D
:1081C00007AA0021012004F06FF907A812F0E4F8D3
:1081D000204907A812F026F9002107AA022004F07E
:1081E00063F907A812F0D8F81B49B3E51B49CFE79C
:1081F0001B49CDE7EB140700B5D5002058E300205C
:108200008C160700F9140700041507001015070065
:108210001C15070026150700301507003C15070040
:108220005015070063150700731507008015070038
:108230008A1507009A150700A8150700B41507004E
:10824000C515070000D7002004A30020D3150700A0
:10825000071607008BBE070095160700E2150700FA
:10826000F3150700062B40F0B782A04BA04ADE783A
:108270001D7993F801809F7893F805901278C6EBEA
:10828000461106EB8106C5EB451105EB81059949C1
:108290000391487A76006D00032836B22DB240F083
:1082A0005781197893F807A008EB01281FFA88F87E
:1082B0000A21B8FBF1F107EE901A8F49F8EEE77A40
:1082C00038370AF1380AC1ED007A7FB24FEA29192E
:1082D0004FFA8AFA8B46002A3CD0884B1B78002B39
:1082E00000F0DB8004F066FE854A864B1188198019
:1082F000917899701179D970517919719179D279F0
:1083000059719A710322DA715FFA89F21A727E4A00
:108310007E481268DA607E4A12681A6100217D4A3E
:1083200019755F7583F816A0128852B2DA757A4A09
:1083300012780FFA88F852B21A765E839D83D98339
:10834000A3F8208011F0A2FD6E4B40B283F822000A
:1083500005F070F82378002B3FF4A9AB6F4B1C7825
:10836000002C7FF4A4AB04F083F86D48DFF8DC81C7
:10837000012103F01DFF684B6A491A78654B6A4872
:108380001B8852B21BB20EF0DBFD674907A812F042
:1083900049F807AA2146204604F086F807A811F0FC
:1083A000FBFF3B46524661495F480EF0C9FD5E49FE
:1083B00007A812F037F807AA2146012004F074F844
:1083C00007A811F0E9FF4A46594957480EF0B8FD91
:1083D000554907A812F026F807AA2146022004F002
:1083E00063F807A811F0D8FF524907A812F01AF84D
:1083F00007AA3221022004F057F807A811F0CCFF99
:108400004D4907A812F00EF807AA5021022004F0E7
:108410004BF807A811F0C0FF484907A812F002F86E
:1084200007AA2146032004F03FF807A811F0B4FF83
:10843000039BDF7A002F33D0324641493A480EF091
:108440007FFD394907A811F0EDFF07AA322103206B
:1084500004F02AF807A811F09FFF2A46384932484D
:108460000EF06EFD304907A811F0DCFF07AA50217D
:10847000032004F019F807A811F08EFFDBF80000C4
:10848000D8F8005048F070FA009502460B462D4986
:1084900025480EF055FDFFF7F5BB04F0AFFD23E7CF
:1084A000294921480EF083FD1F4907A811F0BAFFA2
:1084B00007AA3221032003F0F7FF07A811F06CFF91
:1084C000194907A811F0AEFF07AA5021032003F0B5
:1084D000EBFF07A811F060FFDBF80000D8F80040C0
:1084E00048F042FA009402460B46D0E782D50020BD
:1084F000AFD5002004A30020CCD60020DCD900207A
:10850000D4D90020A4A1002030D7002058E30020B7
:1085100034D70020B2D50020B4D5002000D70020E9
:10852000C8130700AB160700B5D50020C216070018
:10853000D9160700E4160700E8160700EC16070036
:108540003D160700F51607000A170700C8D60020D9
:10855000A8F1C808C83F1FFA88F81FFA87FA002A4E
:108560003CD0874B1B78002B00F0F68004F022FDF6
:10857000844B854F1A883A809A78BA701A79FA70C3
:108580005A793A719A79DB797A71BB710223FB715E
:108590007E4B87F808901B68FB607D4B7D481B680D
:1085A0003B614FFA88F33B754FFA8AF37B757A4B40
:1085B0001B885BB2FB75794B1B785BB23B76002363
:1085C0007E83BD83FB83764B1B681BB23B8411F01B
:1085D0005DFC40B287F8220004F02CFF2378002BCA
:1085E0003FF465AA6F4B1C78002C7FF460AA03F05F
:1085F0003FFF6D48012103F0DBFD684B6B491A78A2
:10860000654B6B481B8852B21BB20EF099FC68494F
:1086100007A811F007FF07AA2146204603F044FFF0
:1086200007A811F0B9FE4FFA89F262496048DFF8F5
:1086300070910EF085FC5E4907A811F0F3FE07AAC1
:108640002146012003F030FF07A811F0A5FE5A498A
:1086500007A811F0E7FE07AA3221012003F024FF4A
:1086600007A811F099FE554907A811F0DBFE07AAEB
:108670005021012003F018FF07A811F08DFE50498A
:1086800007A811F0CFFE07AA2146022003F00CFF35
:1086900007A811F081FE4B4907A811F0C3FE07AAF5
:1086A0002146032003F000FF07A811F075FE0FFA22
:1086B00088F245493E48DFF81C810EF041FC3C49F8
:1086C00007A811F0AFFE07AA3221022003F0ECFE4A
:1086D00007A811F061FE0FFA8AF23B4934480EF008
:1086E0002FFC334907A811F09DFE07AA3221032071
:1086F00003F0DAFE07A811F04FFE039BDF7A77B391
:10870000324631492A480EF01BFC294907A811F0CE
:1087100089FE07AA5021022003F0C6FE07A811F027
:108720003BFE294922482A460EF00AFC204907A8A8
:1087300011F078FE07AA5021032003F0B5FE07A828
:1087400011F02AFED9F80020D8F800301F49184847
:108750000EF0F6FBFFF796BA04F050FC08E71C4950
:1087600013480EF024FC124907A811F05BFE07AA7B
:108770005021022003F098FE07A811F00DFED5E766
:10878000DCD90020D4D90020A4A1002030D70020BB
:1087900034D7002058E30020B2D50020B4D5002003
:1087A000C4D6002000D70020B8130700AB1607007E
:1087B000B5D50020D9160700C66A0700EC160700D9
:1087C000E4160700E81607003D1607000D1707001E
:1087D0000A170700C8D60020072B67D15E4B1B780D
:1087E000002B30D05D4B1B78002B58D004F0E2FBFF
:1087F0005B4B5C4D1A882A809A78AA701A79EA70C5
:108800005A792A719A79DB796A71AB710223EB711B
:10881000554A564800232B721268EA60544A12687F
:108820002A612B756B75EB752B766B83AB83EB83B2
:10883000504B1B681BB22B8411F028FB40B285F80B
:10884000220004F0F7FD2378002B3FF430A94A4BB7
:108850001B78002B7FF42BA9484C03F009FE627AA9
:10886000032A0CBF46484748012103F0A1FC4649B2
:1088700046480EF09CFB454907A811F0D3FD0021A6
:10888000084607AA03F010FE07A811F085FD637AD9
:10889000032B3F4B06D13F4A10681C6820E604F0CA
:1088A000ADFBA5E7334A12681B684FE7082B7FF43E
:1088B000FEA8324B5D7A35B1012D29D0364B00220E
:1088C0001A70FFF7F4B803F0D3FD3448012103F028
:1088D0006FFC334907A811F0A5FD002107AA08463F
:1088E00003F0E2FD07A811F057FD2E4927480EF0CE
:1088F0005EFB264907A811F095FD07AA0021032079
:1089000003F0D2FD07A811F047FD03F0E7FDD5E71E
:108910002378002BD2D0184B1C78002CCED103F03A
:10892000A7FD1E48294603F043FC1F4907A811F084
:1089300079FD07AA2146204603F0B6FD07A811F0ED
:108940002BFD184911480EF032FB104907A811F011
:1089500069FD07AA2146D2E7AFD50020DCD9002067
:10896000D4D90020A4A1002030D7002058E3002053
:1089700034D70020C4D6002000D7002004A3002054
:10898000B8130700C813070021170700B5D500204A
:10899000C8D60020CCD60020D1D600202A1407004B
:1089A000D3150700361707006D14070010B50446ED
:1089B00005F0CAF8204610BD0F4BB0B100221A7066
:1089C0000E4B0F4A18600F4B11685B7A023B012B6C
:1089D00001F101010C4B116094BF072202221A70B1
:1089E0000A48FA22012111F0C4BB1B7813B1064BCF
:1089F0000822F4E7704700BFD1D60020D4D600206B
:108A0000C4D6002004A3002080D5002011E300205C
:108A100010B5144BB0F90A201A80134B90F90C20B2
:108A20001A70124B42781A70114B00221A70037898
:108A3000023B012B14D80F4B5B7A023B012B0FD862
:108A40000D4C027A41680D48062323700DF00AFD93
:108A500023460B48BDE81040FA22012111F089BBE2
:108A600010BD00BFB2D50020B4D50020B0D5002085
:108A7000D1D6002004A3002080D5002082D500207C
:108A800011E30020F0B5254D297899B0002942D195
:108A900001231A2208A82B7007910DF0F1FC05A8FC
:108AA0002AF0B8F805981E4C00F5E0400FA96E308A
:108AB0002AF024F9149B1B4903F26C730393129B55
:108AC0000293139B013301930F9B009307A8DDE9E9
:108AD00010320EF035FA149813999DF848209DF83D
:108AE00044309DF840609DF83C70227100F26C703B
:108AF000013180B2C9B22080A1706371A671E771A3
:108B0000094C24783CB10224CDE900672C7004F0B4
:108B10000BFA04F04FFA19B0F0BD00BFD0D6002018
:108B2000D4D9002042170700DCD9002030B54FF01F
:108B300080432DED028BD3F83834032B83B027D03C
:108B40001448144D11F0E0FA0A24B0EE408A284689
:108B500011F0DAFA013C38EE008AF8D1B2EE067A6A
:108B6000C8EE077A9FED0C7ADFED0C6A67EE877A24
:108B70009FED0B7A67EE877A87EEA67AFCEEC77ACE
:108B8000CDED017A9DF8040003B0BDEC028B30BD41
:108B90000020F9E70DE3002000007A4400408345FF
:108BA00000007F4308B5064B1B783BB111F07FFEF8
:108BB000BDE8084001460348FEF7B6BB08BD00BF4C
:108BC00001D70020B8D600201E4B07B501221E4851
:108BD0001A7011F070F818B11C48002111F035F826
:108BE0001B4811F0B9F91B491B4811F0C7F81B4984
:108BF000194811F0D3F81A49174811F0C7F8194964
:108C0000154811F0D3F81849134811F0D7F800218E
:108C1000164811F011F90221154811F07BF93223A1
:108C20000122009311460A230B4811F066F8114BFC
:108C3000D97A01B10121222003B05DF804EB11F0D3
:108C40002ABE00BFA1A1002084E300206EE3002023
:108C50006DE30020118A020049E30020B989020077
:108C60008D73020021740200858A020051E3002006
:108C70006BE3002004A3002008B50F4B0F48002130
:108C8000197010F0E2FF0E4811F019F80D490B4869
:108C900011F022F80C49094811F026F84FF6FD7141
:108CA000064810F0D2FF094BD97A01B10121BDE885
:108CB0000840222011F0EFBDA1A100206EE30020AA
:108CC00084E30020DD730200B973020004A30020D6
:108CD0001F4B07B501221F481A7010F0ECFF18B1A6
:108CE0001D48002110F0B1FF1C4811F035F91C4956
:108CF0001C4811F043F81C491A4811F04FF81B4961
:108D0000184811F043F81A49164811F04FF819495C
:108D1000144811F053F80021174811F08DF8002184
:108D2000164811F0F7F83223012200930D480A2368
:108D3000114610F0E2FF124BDB7A33B10121222001
:108D400003B05DF804EB11F0A6BD03B05DF804FBC1
:108D5000A1A1002084E300206EE300206DE3002049
:108D6000118A020049E30020B98902008D730200D4
:108D700021740200858A020051E300206BE3002089
:108D800004A3002010B50B4C00212046FEF792FAF8
:108D90002046094C094A0A490DF0F6FAFF212046FF
:108DA00004F0C6FE2046054A0649BDE810400DF015
:108DB000EBBA00BFB8D60020A4D5002090A10020B7
:108DC000BF720200AD8902002DE9F04F012187B08A
:108DD000222011F049FD0121232011F045FD012140
:108DE000242011F041FDAA48AA4E11F0C5FB03F062
:108DF000ABF9307068B1A849A8480EF0D8F8A74878
:108E0000012103F0D5F9A64803F0D4FAA54803F0F0
:108E1000D1FA0021222011F03EFD0223A2480622B1
:108E20004FF4E13110F056FE4FF08043D3F8383460
:108E3000032B6FD14FF4FA601BF01AFB07230222B9
:108E400003AC9A4900939548994D9A4F00230EF030
:108E500077F89249204611F0E5FA2146964811F03C
:108E600027F9204611F098FA0121232011F013FD73
:108E70000021232011F00FFD0021242011F00BFD13
:108E800002F0FAF902F0E2F902F05CF902F070F98E
:108E900002F084F902F006FA02F016FC00F036FA4D
:108EA000002000F055F96B7A023B012B59D80120C4
:108EB00002F0B6FC38703B7813B1804803F07AFAC0
:108EC00003F092FF7E4F387060B104F073F894E8BD
:108ED000030029F07EFE02F08DF93B7813B179484A
:108EE00003F068FA04F0D6F8774F387048B104F010
:108EF000C1F9387002F068F93B7813B1734803F098
:108F000059FA02F08DF96B7A032B2ED8DFE803F0C3
:108F100051A7B0BD11F0CBFCDFF88CA107464FF094
:108F2000000B41F287384FF00009504610F0B7FDB2
:108F3000002883D111F0BBFCC41B6BEB4B05A04593
:108F400079EB0503FFF67AAF64201BF091FA23203A
:108F500011F0A6FCB0FA80F14909232011F09BFC26
:108F6000E3E7E87A0028A2D1A2E733780BB35849A7
:108F70004A480EF01CF84949204611F053FA0021E6
:108F80002246084603F090FA204611F005FA5149AE
:108F900042480EF00CF84149204611F043FA2246AF
:108FA0000021012003F080FA204611F0F5F903F0CA
:108FB00095FA494803F0FEF9484810F053FF10B9FC
:108FC000474803F0F7F9FFF7FFFD4FF47A7345497F
:108FD0006A683248B2FBF3F20DF0B2FF2F4803F09B
:108FE000E9F9414A41480123002111F0B8F86A68C3
:108FF00022B100233D48194611F0BBF83C4A3B48DA
:109000000023012111F0ABF800233A4A374802212E
:1090100011F0A5F8AB7A33B1344800234EF6602244
:10902000022111F0A6F80123334A3048032111F040
:1090300096F8324B1B785BB1284810F013FF38B913
:109040003223012200932E480A23114610F055FEC8
:1090500001212C4811F0FFFB07B0BDE8F08FFFF7AE
:109060000BFE294803F0A6F9284803F0A3F9ACE762
:10907000274803F09FF9194810F0F4FE10B918487A
:1090800003F098F9FFF724FE9FE72248F1E700BFBD
:109090008CE30020AED500202A140700B5D50020AF
:1090A000641707007117070030E20020DF1A07007D
:1090B00004A30020ADD50020B8E200207D170700F2
:1090C000DCD9002085170700AFD500208C170700DA
:1090D00097170700A9170700D315070054E30020CE
:1090E000B9170700071607009974020011E3002062
:1090F0006978020031C502002DBD0200A1A1002047
:1091000049E30020A9E2002072140700C7170700F6
:10911000E2150700F31507007047000008B5054881
:1091200004F080FE034804F09CFEBDE808400148BE
:1091300004F0B6BED8D6002007B531220DF10701E4
:10914000024804F0B7FE03B05DF804FBD8D6002057
:1091500073B500210446112011F086FB524811F02E
:109160000BFA524B002C00F0848000229A800A22D5
:10917000DA804FF481721A8140F201125A814B4811
:1091800004F028FF0546002840F08B80002C38D0E2
:109190002A22302145488DF80720012604F034FDAD
:1091A0000822322141488DF8072004F02DFD324677
:1091B00033213E488DF8076004F026FD24220DF18E
:1091C00007013A4804F076FE9DF80720374822F060
:1091D0000C0242F0080224218DF8072004F014FD4F
:1091E0006022222131488DF8072004F00DFD2A4627
:1091F00025212E4804F008FD2C483246212104F098
:1092000003FD002520220DF1070128488DF80750A5
:1092100004F050FE9DF80720244842F00802202167
:109220008DF8072004F0F0FC64201BF021F91E22C9
:109230000DF107011D488DF8075004F03BFE9DF825
:1092400007201A4842F090021E218DF8072004F0F2
:10925000DBFC64201BF00CF98CB1FFF76DFF1449A7
:109260000422112010F0FAFBFFF758FF204602B04D
:1092700070BD02229C80DC801A815C817FE7202205
:109280000DF10701094804F015FE9DF80720074875
:1092900002F0400220218DF80720012404F0B4FCE4
:1092A000E4E70024E2E700BF8CE30020D8D60020EA
:1092B0001991020002481822002104F05FBC00BF8F
:1092C000D8D60020D0B511F0F2FA0D4C0D4B00218C
:1092D000C3E9000111F0EBFAD4E90032C61A62EBDF
:1092E0004207C92E77F1000309DB11F0E0FA064AC4
:1092F00020600023636013780133DBB21370D0BDAC
:10930000F0D60020F8D6002001D7002008B50221B1
:10931000092011F0A9FA06490322092010F09EFB4A
:109320000449054801236422FDF7DCFF012008BD44
:10933000C592020021990200B8D600202DE9F04F15
:10934000C74D91B011F0B3FAD5E900230024811A7A
:1093500064EB030300910193DDE9002340F6B8308C
:109360000021904271EB0303A346A246A146A0460A
:109370002746264677DB11F09AFAD5E90023811AB1
:1093800063EB430302910393DDE90223B2F5C87F47
:1093900073F1000373DA11F08AFAD5E90023811A18
:1093A00063EB430304910593DDE90434B3F5C87F0F
:1093B00074F1000380F2858011F079FAD5E9002379
:1093C000811A63EB430306910793DDE90634B3F595
:1093D000167F74F1000380F2998011F068FAD5E9E4
:1093E0000023811A63EB430308910993DDE90834F4
:1093F000B3F5487F74F1000380F2AE8011F057FAA4
:10940000D5E90023811A63EB43030A910B93DDE94D
:109410000A34B3F5966F74F1000380F2C08011F046
:1094200046FAD5E90023811A63EB43030C910D93AF
:10943000DDE90C34B3F5AF6F74F1000380F2D28034
:1094400011F035FAD5E90023811A63EB43030E913D
:109450000F93DDE90E34B3F5C86F74F1000380F2A9
:10946000E280082474E0092011F01AFA002882D161
:109470007C4B1B78002B3FF47EAF022468E0794BD5
:109480001B78012B87D1092011F00AFA012882D11B
:109490000023C82C10D00920009311F001FA009B82
:1094A000012804BF0133DBB2012001340093E4B290
:1094B0001AF0DEFF009BECE7C62B7FF66CAF0024B2
:1094C00046E0684B1B78022B7FF476AF092011F041
:1094D000E7F901287FF470AF0024BBF1C80F10D06A
:1094E000092011F0DDF9012808BF01344FF0010017
:1094F0000BF1010B08BFE4B25FFA8BFB1AF0B8FF67
:10950000EBE7C62C7FF658AF012421E0554B1B78C2
:10951000032BDCB27FF461AF4FF0000BBAF1C80F40
:1095200012D0092011F0BCF9012808BF0BF1010B82
:109530004FF001000AF1010A08BF5FFA8BFB5FFAE6
:109540008AFA1AF095FFE9E7BBF1C60F7FF645AF3F
:10955000204611B0BDE8F08F424B1B78042BDCB2E3
:109560007FF44CAF4FF0000AB9F1C80F12D00920B8
:1095700011F096F9012808BF0AF1010A4FF0010025
:1095800009F1010908BF5FFA8AFA5FFA89F91AF04E
:109590006FFFE9E7BAF1C60F7FF630AFD8E7314B7E
:1095A0001B78052BDCB27FF43AAF4FF00009B8F11D
:1095B000C80F12D0092011F073F9012808BF09F172
:1095C00001094FF0010008F1010808BF5FFA89F9AD
:1095D0005FFA88F81AF04CFFE9E7B9F1C60F7FF699
:1095E0001EAFB5E71F4B1B78062BDCB27FF428AF0C
:1095F0004FF00008C82F11D0092011F051F90128AF
:1096000008BF08F101084FF0010007F1010708BF8A
:109610005FFA88F8FFB21AF02BFFEBE7B8F1C60F3C
:109620007FF60EAF94E70F4B1B78072BDCB27FF46D
:1096300018AF0025C82E0FD0092011F031F90128EC
:1096400008BF01354FF0010006F1010608BFEDB279
:10965000F6B21AF00DFFEDE7C62D7FF602AF77E701
:10966000F8D6002001D7002073B58B4D8B4C6A7A59
:10967000637A9A4231D002F0FBFE0021884802F062
:1096800097FD6B6863606B7A864863726B89638150
:1096900002F090FE844802F08DFE02F01FFF01F000
:1096A00027FE40F6B8301AF0E3FE637A7F48012BBC
:1096B0004FF000014FF0320640F0998010F0C5FAEB
:1096C00000227B4800960A23114610F016FB7948C9
:1096D00010F0F5FA784810F015FDEA7AE37A9A422C
:1096E00007D06B7A023B012B94BF0120002002F0CF
:1096F00097F86A6863689A4203D16A8963899A42D3
:1097000013D002F0B5FE674802F054FE664802F03E
:1097100051FE02F0E3FE6B6863606B89638101F0C8
:10972000E7FD40F6B8301AF0A3FE644810F010FCD4
:10973000002869D0624810F097FB624B1978884284
:1097400005D000395E4818BF012110F08FFB5E483C
:1097500010F09CFB5D4B1978884202D05A4810F0FB
:1097600097FB5B4810F0A4FB5A4B1978884202D053
:10977000574810F09FFB584D58482E7810F0AAFB20
:1097800086420BD02978554810F0B0FB32230122D5
:10979000009347480A23114610F0AFFA02F068FE22
:1097A000637A012B71D06CD9023B012B6FD94FF436
:1097B0007A7362684A49B2FBF3F24A480DF0C0FB83
:1097C000484802F0F7FD626822B100234648194676
:1097D00010F0CFFCA37A002B5BD0434800234EF659
:1097E0006022022102B0BDE8704010F0C2BC10F04F
:1097F0002CFA012200960A2311462D4810F07DFA1A
:109800002E4810F0A9FB65E7384D3948296810F05B
:10981000D6F9374810F0D1F92968884202D0344887
:1098200010F0CDF9334810F0D9F9334B197888424C
:1098300002D0304810F0D4F9304D31482E7810F075
:10984000DEF9864203D029782D4810F0DAF92D4848
:1098500010F0E6F92C4B1978884202D0294810F014
:10986000E1F92A4810F0EFF9294B1978884202D023
:10987000264810F0F9F94FF6FD710C4810F0E5F9A3
:109880008CE7244802F096FD91E72348FAE7234845
:10989000F8E702B070BD00BFD0A1002004A30020F3
:1098A000D5170700DC170700EC1707006EE3002050
:1098B00049E3002084E30020A8E200206DE30020BB
:1098C00055E3002003D7002058E3002005D70020EF
:1098D00060E3002006D7002004D700206AE30020C0
:1098E00007160700B5D5002011E3002010D700208F
:1098F00079E300207AE3002014D700200BD7002062
:109900007BE300207CE300200CD700207EE30020D6
:1099100015D70020D315070072140700F3150700B0
:109920002DE9F04F87B0FFF709FD072800F2CC8141
:10993000DFE810F0BC044A030800CD01B00053007A
:109940002D001A00914B00201870914B0024002527
:10995000C3E900458F4B1B7823B107B0BDE8F04F3A
:1099600002F0C4BD0120F8E7884B00221A70884B32
:1099700000200021C3E90001874B1C783CB902F0AC
:1099800077FD8648214602F013FC1AF088FD7F4BD4
:1099900000221A707E4B00200021C3E900017E4B9B
:1099A0001C7874B17E4B1A78052A40F08D81102204
:1099B0001A707C4BD97A01919B7A00937A4B1B7871
:1099C0005BE002F055FD7948214602F0F1FB784852
:1099D00007B0BDE8F04F10F095BB6C4B00221A7039
:1099E0006B4B00200021C3E900016B4B1B78002B5F
:1099F00000F06A816A4C2378052B00F26581DFE86C
:109A000013F0060063016301220030004000694842
:109A100010F09EFA0128634B0AD104222270D97AF1
:109A200001919B7A6449009309786448FF2315E00B
:109A300005222270D97A01919B7A614900930978B5
:109A40006048FF230AE0574B0322D97A5A720191EA
:109A50009B7A009305235C495C48097802F06CFD11
:109A600032E107235A48237010F034FA4D4AD37A72
:109A70000193937A0093C3B22278564956480978E5
:109A8000ECE7484B0E22D97A227001919B7A009321
:109A9000524B94E73D4B00221A703D4B00200021B1
:109AA000C3E900013C4B1B78002B00F0A5803C4C27
:109AB0002378062B00F20881DFE813F007001F036C
:109AC000120020002A0057006000364903224B7A1A
:109AD000C87A22700190897A00910233DBB2BAE72A
:109AE000304A937A83F001039372D27A0192009301
:109AF0000222FF233A493B480978AFE7294B02226B
:109B00005A72DA7A01929B7A009304230322A2E725
:109B10000A232F48237010F0DDF9C0B20C280ED8AC
:109B2000DFE800F00717171D171D1D171717171768
:109B30001D002D4B00221A702C4B05221A70194A59
:109B40002B4BD17A1B780191927A00920A33DBB2C7
:109B500092E7254B00221A70244B0722EEE7224B96
:109B600000221A70214B0A22E8E70E4B0D22D97A07
:109B7000227001919B7A00931E4B20E7094BDA7A01
:109B800001929B7A009300233AE100BF01D70020A5
:109B9000F8D600204CA5002000D70020FD170700B4
:109BA00002D70020D0A1002015D7002008180700F8
:109BB000A8E200206DE30020B8A20020A4A20020AB
:109BC000E8A20020D0A2002078A2002064A20020F9
:109BD0006AE30020CCA10020C8A100200CD70020FF
:109BE000CCA20020BCA200200AD7002008D7002069
:109BF00005D700200BD700209E4810F0A9F90128B6
:109C000062D19D4D6A7A012A5ED09C4E3278002A3C
:109C10005AD19B4C9B4B20701B7804940BB902F0DB
:109C200065FC00219848DFF86CB210F0ACFA974858
:109C300010F050F9964B53F820309648039310F0EB
:109C400025F94FF0000A0746039B33F81A2042B368
:109C50005FFA8AF1584610F01BF964201AF008FCEC
:109C60000020FDF719FC10F022FE02463078059224
:109C700098B14FF47A701AF0FBFB10F018FE059AB9
:109C800042F21073B0EB02084FF0000161EB0109E2
:109C90000024434574EB0903E8DA4FF4FA601AF044
:109CA000E7FB0AF1010ABAF1100FCDD17948394624
:109CB00010F0EEF86A6822B100237348194610F0DC
:109CC00058FA049A0023137007B0BDE8F08F724B66
:109CD00000221A70714B00240025C3E90045704B27
:109CE0001B78002B00F041816E4C2278102AEBD8B3
:109CF00001A353F822F000BF3D9D0200FBA002002B
:109D00004F9D02005F9D0200719D0200CD9D0200EB
:109D1000DF9D0200059E0200C99C0200239E0200F6
:109D2000499E0200CD9E0200F19E0200119F02009A
:109D30002F9F0200C99C02004B9F0200022222704A
:109D4000594BD97A01919B7A0093FF23D2E6564A68
:109D5000D37A83F00103D3720193937AC7E6524B0F
:109D600001225A72DA7A01929B7A00930323CDE69C
:109D700009234648237010F0ADF8C0B20C2814D85F
:109D8000DFE800F007070707070D1B072121212146
:109D90001B00464B00221A70454B052204E0434B42
:109DA00000221A70424B04221A703F4BDA7A019259
:109DB0009B7A00933F4B1B785EE63C4B00221A7067
:109DC0003B4B0622F0E7394B0222E4E7364B0C22EC
:109DD000D97A227001919B7A0093374BEFE5324B91
:109DE0005A6842B142F20F718A428ABFA2F51C52F0
:109DF0000022103A5A60DA7A01929B7A0093FF238C
:109E000006223AE62D4A137813B1013BDBB200E09B
:109E10000C231370244AD17A0191927A009207227E
:109E20002BE6244A214913780978994209D1204B1D
:109E30001B7813701C4AD17A0191927A0092092200
:109E40001BE6013BDBB2F4E71D4A1E491378097893
:109E500099420BBF1C4B03F1FF331B78DBB213702D
:109E6000114BDA7A01929B7A0093124B1B780A22EB
:109E700003E600BF6DE3002004A30020D1D600203C
:109E800081D500204CA5002011E300206AE30020CA
:109E9000FCA4002058E3002001D70020F8D60020C1
:109EA00000D7002002D70020D0A1002009D7002031
:109EB00007D7002005D7002014D7002004D70020A2
:109EC00006D700200AD7002008D70020A04AA149C1
:109ED0001368A3F5C333A03B8B4298BF9E4B13601E
:109EE0009E4BDA7A01929B7A00930B22FF23C4E502
:109EF0009B490B78062B1CBF03F1FF33DAB2974B5B
:109F00000A70D97A01919B7A009313460C22B4E52A
:109F1000944A137813B1013BDBB200E009231370BC
:109F20008E4AD17A0191927A00920D22A5E58E4A4D
:109F3000117809B1481EC0B21070884AD37A0193D3
:109F4000937A009303460E2297E5884A1378052BEF
:109F500002D0013BDBB200E0162313707F4AD17AB6
:109F60000191927A0092102287E581480FF0F0FF6C
:109F7000804B01281B781ED1002B7FF4A5AE7E4BB1
:109F80001B780BB902F0B2FA00217C4810F0FBF804
:109F90007B4B012200201A70FDF77EFA794B5A683C
:109FA000002A3FF491AE00237448194607B0BDE87B
:109FB000F04F10F0DEB8002B7FF486AE6E4B1B78AE
:109FC000002BE1D10120DDE76F4B704D704C00227A
:109FD0001A70704B00210020C3E900012978002984
:109FE00059D1664810F0CFF80121644810F0CBF841
:109FF0006248022110F0C7F85F4B1B7813B90120AB
:10A0000002F074FA01235F4A2B7000232370534B34
:10A0100051685960517A528955485A8159720FF0E6
:10A0200097FF0146D8B15C480FF030FF5B4B1870CA
:10A030005B480FF04FFF5B4B18705B480FF014FF4D
:10A040005A4B18705A480FF033FF5A4B18700023C0
:10A05000CDE900332278584958480978FEE4584839
:10A060000FF0F3FD57480FF0A8FD394B1860564824
:10A070000FF0B4FD3A4B187054480FF0C0FD394B47
:10A08000187053480FF0CCFD374B187051480FF043
:10A09000DAFD364BDAE72378102B3FF615AE01A236
:10A0A00052F823F0E9A00200FBA002000DA102007B
:10A0B00011A1020023A102003BA1020099A202000B
:10A0C0003FA10200D9A10200F5A1020009A20200ED
:10A0D0002BA2020041A202005DA202006DA20200BA
:10A0E000C99C020089A2020001221C4B2270D97A6D
:10A0F00001919B7A0093FF23BFE400222270174B4B
:10A10000D97A01919B7A0093FF23A4E70622ECE71A
:10A11000124B00225A72DA7A01929B7A0093022340
:10A12000F4E40E49214BC87A1B7808222270019072
:10A13000897A00910A33DBB29FE40B22D5E7194AF2
:10A1400013780C2B01D0013360E6002361E600BFD9
:10A1500010D700207F47A1198047A119D0A1002066
:10A1600014D700200BD700200CD7002015D70020D3
:10A170006DE30020D1D600204CA5002011E3002083
:10A18000A2D5002004A3002001D7002000D7002082
:10A1900002D70020F8D6002058E3002005D7002081
:10A1A0006AE3002004D7002055E3002003D70020F5
:10A1B00060E3002006D7002000A30020ECA20020CE
:10A1C0006EE3002079E300207AE300207BE30020A7
:10A1D0007CE300207EE300205C4A1378B3FA83F32B
:10A1E0005B0913705A4AD17A0191927A00920A332C
:10A1F000082242E4574A584913780978994201D114
:10A20000564B15E601331DE6554A56491378097831
:10A2100099420BBF544B01331B78DBB213704C4A8D
:10A22000D17A0191927A009221E6504A50491368FE
:10A2300003F5C333A0338B4294BF136011604FE624
:10A240004C4A13780C2B1ABF0133DBB20623137070
:10A250003F4AD17A0191927A009257E6464A1378A2
:10A26000092B01D0013357E6002358E6434A1378FF
:10A27000032B1ABF0133DBB200231370344AD17AA7
:10A280000191927A00925EE63D4A1378162B01D036
:10A2900001335FE6052360E62D4A536803F51C533E
:10A2A00010335360D37A0193937A6BE4354B0022D9
:10A2B0001A70354B354A00210020C3E9000111789E
:10A2C00000293FF401AD324B197810293FF6FCAC60
:10A2D00001A050F821F000BF1DA302002BA3020033
:10A2E0002BA302002BA302002BA302002BA302002E
:10A2F00045A3020031A3020031A3020031A30200F2
:10A3000031A302003BA302003BA302003BA30200D7
:10A310003BA30200C99C02003BA302000023137070
:10A3200007B0BDE8F04FFFF79FB900221A70E6E6CC
:10A3300004221A70064BFFF772BB05221A70044BF9
:10A34000FFF778BB02221A70FAE400BF03D700209F
:10A35000D0A1002005D7002007D7002009D7002072
:10A3600006D7002008D700200AD7002010D70020E9
:10A370000070383914D700200BD700200CD70020EC
:10A3800015D7002001D70020F8D6002000D70020E4
:10A3900002D70020024B01221A700920704700BF2B
:10A3A00016D7002070B598B014460A490EA810F0D0
:10A3B00039F80023CDE91433CDE91633636E012B50
:10A3C0000CD1054920680CF0E8FD48B1022400F0EA
:10A3D000EDBC00BF1A5A07009E790700002BF5D18B
:10A3E000B649B748B74CB84DB84E10F0A1F9B849C6
:10A3F000B34810F09DF9B149B64810F099F9B44945
:10A40000B44810F095F964201AF032F8637AB24932
:10A4100055F82320AA4810F08BF9AD49A84810F050
:10A4200087F9637AAC4955F82320AA4810F080F9DF
:10A43000A749A84810F07CF964201AF019F8A74938
:10A4400011A80FF03FFE11A90EA80FF0FEFF11A8F2
:10A450000FF0A2FF0EA810F03BF80E9AA049984802
:10A4600010F066F99A49964810F062F90E9A9C49E4
:10A47000984810F05DF99649964810F059F9642013
:10A4800019F0F6FF974911A80FF0FCFD119A9649B3
:10A490008B4810F04DF911A80FF07EFF8C498848C9
:10A4A00010F046F98F4911A80FF0ECFD119A8E4972
:10A4B000884810F03DF911A80FF06EFF84498548D7
:10A4C00010F036F9642019F0D3FF4FF47A75626802
:10A4D0008649B2FBF5F27A4810F02AF97C497848AF
:10A4E00010F026F962688149B2FBF5F2794810F064
:10A4F0001FF97749774810F01BF9642019F0B8FF6D
:10A500007B480FF025FD7B4956F8202005466C4816
:10A5100010F00EF96E496A4810F00AF956F8252035
:10A5200074496C4810F004F969496A4810F000F960
:10A53000642019F09DFF012D40F04E836E486F4E50
:10A540006F4D0FF08FFC6F49002814BF32462A462A
:10A550005B4810F0EDF85E49594810F0E9F866489C
:10A560000FF080FC6749002814BF32462A4659483C
:10A57000654E10F0DDF85649564810F0D9F86420C1
:10A5800019F076FF61480FF0A5FC614905460246C7
:10A590004B4810F0CDF84E49494810F0C9F82A460A
:10A5A0005B494C4810F0C4F849494A4810F0C0F8DB
:10A5B000642019F05DFF56F825205649404810F0F8
:10A5C000B7F843493E4810F0B3F856F825205149F2
:10A5D000404810F0ADF83E493E4810F0A9F864201C
:10A5E00019F046FF4C480FF036FC002800F0BE8101
:10A5F0004A49334810F09CF83549314810F098F832
:10A600004649344810F094F83149324810F090F837
:10A61000642019F02DFF082214A941480FF0FAFB1D
:10A620009DF8573005939DF8563004939DF85530AA
:10A6300003939DF8543002939DF8533001939DF895
:10A6400052309DF85020374900931D489DF85130F5
:10A6500010F06EF81E491A4810F06AF89DF857304D
:10A6600005939DF8563004939DF8553003939DF85B
:10A67000543002939DF8533001939DF852309DF869
:10A6800050202849009313489DF8513010F050F89D
:10A690000F49104810F04CF8642019F0E9FE082228
:10A6A00014A921480FF092FB9DF8573005939DF8AF
:10A6B000563004939DF8553038E000BF78180700F5
:10A6C00030E2002004A3002070A40020CCA30020CE
:10A6D000185A070094E2002087180700E8E20020DB
:10A6E00095180700ACE20020A9470700A018070052
:10A6F0006DE30020B018070054E300200D57070059
:10A700006A180700C018070098A300206AE3002019
:10A71000CB180700D618070053E30020E118070004
:10A720004EE30020EB1807004AE3002003939DF856
:10A73000543002939DF8533001939DF852309DF8A8
:10A7400050207D4900937D489DF851300FF0F0FF77
:10A750007B497A480FF0ECFF9DF8573005939DF840
:10A76000563004939DF8553003939DF8543002936E
:10A770009DF8533001939DF852309DF850206E495A
:10A78000009370489DF851300FF0D2FF6C496D482E
:10A790000FF0CEFF642019F06BFE102214A96A4856
:10A7A0000FF01DFB9DF85F300D939DF85E300C930C
:10A7B0009DF85D300B939DF85C300A939DF85B30FB
:10A7C00009939DF85A3008939DF8593007939DF8E6
:10A7D000583006939DF8573005939DF856300493F2
:10A7E0009DF8553003939DF8543002939DF85330F3
:10A7F00001939DF852309DF85020544900934F48E2
:10A800009DF851300FF094FF4D494C480FF090FFE8
:10A810009DF85F300D939DF85E300C939DF85D3090
:10A820000B939DF85C300A939DF85B3009939DF87B
:10A830005A3008939DF8593007939DF85830069385
:10A840009DF8573005939DF8563004939DF8553088
:10A8500003939DF8543002939DF8533001939DF873
:10A86000523000939DF850209DF8513037493548BB
:10A870000FF05EFF32493348354E364D0FF058FF2A
:10A88000642019F0F5FD34492C480FF051FF2C4994
:10A890002A480FF04DFF30492A480FF049FF284958
:10A8A00028480FF045FF642019F0E2FD627A2B4939
:10A8B00022480FF03DFF224920480FF039FF627A0D
:10A8C000264920480FF034FF1D491E480FF030FF85
:10A8D000642019F0CDFDA27A21491848002A14BF3E
:10A8E00032462A460FF024FF154914480FF020FF86
:10A8F000A27A1B491348002A14BF32462A460FF099
:10A9000017FF0F490F48174E0FF012FF642019F080
:10A91000AFFD15481AF0C4F80025B4F88E20EBB24C
:10A92000934205F1010580F23D8223443046197BB4
:10A930001AF0B6F8F1E700BF1319070030E2002063
:10A94000185A070094E200204BE300203B1907004F
:10A9500075180700F91707009C1A0700AC1A0700C2
:10A96000BA1A0700539B0700CB1A07009049914879
:10A970000FF0DEFE90498F480FF0DAFE8C498F48C9
:10A980000FF0D6FE8C498D480FF0D2FE642019F0EE
:10A990006FFD14A910228A480FF02AFA9DF85F3043
:10A9A0000D939DF85E300C939DF85D300B939DF8F0
:10A9B0005C300A939DF85B3009939DF85A300893F8
:10A9C0009DF8593007939DF8583006939DF85730FD
:10A9D00005939DF8563004939DF8553003939DF8E8
:10A9E000543002939DF8533001939DF852309DF8F6
:10A9F0005020009373499DF851306E480FF098FE37
:10AA00006D496C480FF094FE9DF85F300D939DF8F2
:10AA10005E300C939DF85D300B939DF85C300A938B
:10AA20009DF85B3009939DF85A3008939DF8593092
:10AA300007939DF8583006939DF8573005939DF87D
:10AA4000563004939DF8553003939DF8543002938B
:10AA50009DF8533001939DF852309DF8502000939B
:10AA600058499DF8513055480FF062FE52495348FD
:10AA70000FF05EFE642019F0FBFC14A9102252486E
:10AA80000FF0D1F99DF85F300D939DF85E300C9377
:10AA90009DF85D300B939DF85C300A939DF85B3018
:10AAA00009939DF85A3008939DF8593007939DF803
:10AAB000583006939DF8573005939DF8563004930F
:10AAC0009DF8553003939DF8543002939DF8533010
:10AAD00001939DF852309DF8502000933B499DF81A
:10AAE000513034480FF024FE334932480FF020FE35
:10AAF0009DF85F300D939DF85E300C939DF85D30AE
:10AB00000B939DF85C300A939DF85B3009939DF898
:10AB10005A3008939DF8593007939DF858300693A2
:10AB20009DF8573005939DF8563004939DF85530A5
:10AB300003939DF8543002939DF8533001939DF890
:10AB400052309DF85020009320499DF851301B4809
:10AB50000FF0EEFD184919480FF0EAFD642019F0D6
:10AB600087FC14A904221A480FF04BF99DF85330C2
:10AB700001939DF852309DF85020009315499DF89F
:10AB800051300C480FF0D4FD0B490A480FF0D0FDAE
:10AB90009DF8533001939DF8523000939DF850205A
:10ABA0009DF851300B4905480FF0C2FD62E600BF29
:10ABB0008319070030E20020185A070094E20020B1
:10ABC0004CE300208C19070050E30020D519070042
:10ABD0004DE300201E1A07007748002D40F09B80AF
:10ABE0000EF0EBFF7549024675480FF0A1FD75495F
:10ABF00073480FF09DFD70480EF0DFFF6F4902466D
:10AC000071480FF095FD6F496F480FF091FD64207A
:10AC100019F02EFC6D480EF0E1FF6D4902466848C0
:10AC20000FF086FD674966480FF082FD67480EF019
:10AC3000D5FF6749024664480FF07AFD61496248D2
:10AC40000FF076FD642019F013FC62480EF0D7FF78
:10AC5000614902465A480FF06BFD5A4958480FF0B7
:10AC600067FD5C480EF0CBFF5B49024656480FF08B
:10AC70005FFD544954480FF05BFD642019F0F8FB68
:10AC800056480EF0CDFF564902464D480FF050FD94
:10AC90004C494B480FF04CFD50480EF0C1FF504955
:10ACA000024649480FF044FD464947480FF040FD31
:10ACB000642019F0DDFB4B480EF0C3FF4A49024601
:10ACC0003F480FF035FD3F493D480FF031FD454805
:10ACD0000EF0B7FF444902463B480FF029FD3949C1
:10ACE00039480FF025FD642019F0C2FB3F480EF0F3
:10ACF000AAFF3F49024632480FF01AFD3149304859
:10AD00000FF016FD39480EF09EFF394902462E48D5
:10AD10000FF00EFDAEE50EF050FF28490246284820
:10AD20000FF006FD274926480FF002FD22480EF0DD
:10AD300044FF2249024624480FF0FAFC21492248E8
:10AD40000FF0F6FC642019F093FB2A480EF0AFFFD9
:10AD5000294902461A480FF0EBFC1A4918480FF02F
:10AD6000E7FC24480EF0A3FF2349024616480FF0E3
:10AD7000DFFC144914480FF0DBFC642019F078FB69
:10AD80001E480EF096FF1E4902460D480FF0D0FCFB
:10AD90000C490B480FF0CCFC18480EF08AFF1849FC
:10ADA0000246B4E7074819F07BFE00240EA80FF016
:10ADB000F3FA204618B070BD79E30020371A070077
:10ADC00030E20020185A070094E200207AE30020C5
:10ADD000461A07007BE300204E1A07007CE30020A0
:10ADE000561A07007DE300205E1A07007EE300206C
:10ADF000731A070082E30020811A070083E3002012
:10AE00008E1A070073B5556E012D0E4625D11449D3
:10AE100010680CF0C2F80446E0B90725CDE900053A
:10AE2000022332460F4910480FF082FC0F490E48AA
:10AE30000FF07EFC02233246CDE9004509490C485B
:10AE40000FF076FC09490A480FF072FC642019F0F3
:10AE50000FFB2546284602B070BD0125FAE700BF6A
:10AE60009E790700DC1A070030E20020185A07001C
:10AE700094E200202DE9F84F614B1B78002B00F085
:10AE8000BD80604B1B78002B40F0B680556E012DC5
:10AE900040F0B480D2F800A05B4950460CF07DF839
:10AEA0000446002866D1594B59495A481D700FF085
:10AEB0003FFC57495748DFF880B10FF039FC54493F
:10AEC00055480FF035FC524953480FF031FC6420CF
:10AED00019F0CEFA214651480FF055F929464F484E
:10AEE0000FF051F902214D480FF04DF901F0C0FA71
:10AEF00021464B4801F05CF94A4801F05BFA4A48A8
:10AF000001F058FA01F0EAFA0FF0D1FC4FF0000A14
:10AF1000054642F2107600279BF800308BB94FF4BB
:10AF20007A7019F0A5FA0FF0C2FCB0EB05086AEBD5
:10AF30004A09464577EB0903EEDA03242046BDE8CB
:10AF4000F88F02F01FF9324932480FF0F1FB304917
:10AF500030480FF0EDFB2E492F480FF0E9FB2C494C
:10AF60002D480FF0E5FB642019F082FA2F480FF00E
:10AF7000C9F8E3E72E4950460CF00FF804460028C4
:10AF80003CD1224BDFF8B0B01D70014623480FF0D2
:10AF9000FAF8294621480FF0F6F802211F480FF071
:10AFA000F2F801F065FA21461D4801F001F9214847
:10AFB00001F000FA1C4801F0FDF901F08FFA0FF0E2
:10AFC00076FC4FF0000A054644F620684FF0000971
:10AFD0009BF800306BB94FF47A7019F049FA0FF012
:10AFE00066FC461B6AEB4A07B04579EB0703EFDACC
:10AFF000A3E702F07BF8B9E700249FE702249DE76E
:10B00000AFD5002016D700209E79070000D700207A
:10B01000185A070030E2002094E2002011E30020DB
:10B02000D5170700F61A0700EC170700A8E2002062
:10B03000995F0700061B0700D8A300202DE9FF41F8
:10B04000536E012B0D46144624D1394910680BF07C
:10B05000A4FF044620B10224204604B0BDE8F081DC
:10B0600001F0A8FF294633480FF02EFB3249314842
:10B070000FF018FB314A3249D37903939379029345
:10B08000537901931379009393782A4812880FF02B
:10B090004FFBE1E7052BDED1161F02F1100756F832
:10B0A000045F28460BF08BFF2B462844984205D0BE
:10B0B00013F8012B303A092AF8D9CCE7BE42EED179
:10B0C0000022114620680CF0E7F840F2D233A0F2DB
:10B0D000E6729A420546BED80022606811460CF01E
:10B0E000DBF8431E0B2B0646B5D80022A06811469C
:10B0F0000CF0D2F8431E1E2B0746ACD80022E068A5
:10B1000011460CF0C9F818288046A4D800222069FE
:10B1100011460CF0C1F83B289DD8C2B200925FFAEC
:10B1200088F3FAB2F1B2A8B201F0B6FE002493E7B8
:10B130009E79070030E20020751D0700D4D9002059
:10B14000161B070007B503230193054B0093054B1E
:10B15000054A064819460EF0E0FF03B05DF804FB0F
:10B1600069B30200291B0700311B07000EE3002012
:10B1700007B503230193054B0093054B054A064889
:10B1800019460EF0CAFF03B05DF804FB35B40200A7
:10B19000891B07008E1B07000EE3002007B5032361
:10B1A0000193054B0093054B054A064819460EF0DE
:10B1B000B4FF03B05DF804FB35B50200EC1B0700DB
:10B1C000F11B07000EE3002007B503230193054B95
:10B1D0000093054B054A064819460EF09EFF03B042
:10B1E0005DF804FB75AE0200181C07001D1C07006B
:10B1F0000EE3002007B503230193054B0093054B95
:10B20000054A064819460EF088FF03B05DF804FBB6
:10B210003DB00200331C0700371C07000EE300207E
:10B2200007B503230193054B0093054B054A0648D8
:10B2300019460EF072FF03B05DF804FBFDB5020085
:10B240005E1C0700631C07000EE3002007B5022305
:10B250000193054B0093054B054A064819460EF02D
:10B260005CFF03B05DF804FBA5A30200CC1C070043
:10B27000D31C07000EE3002007B502230193054B02
:10B280000093054B054A064819460EF046FF03B0E9
:10B290005DF804FB05AE0200EA1C0700F11C070084
:10B2A0000EE3002010B50D4C0D4986B003A80FF039
:10B2B000B9F803A920460EF01BFF03A80FF06CF8A5
:10B2C00002230193074B0093074B084A194604F1E8
:10B2D00026000EF022FF06B010BD00BFE8E20020FD
:10B2E000091D070095A30200111D07001A1D070084
:10B2F00070B5194C19491A4EC2B09022201D0BF09E
:10B30000B1F89021201D19F00DFF00252060FE22CC
:10B31000294602A801950BF0B3F8B4F88E30E8B2D4
:10B32000984205F1010508DA231831461A7B01AB72
:10B3300003EB40000BF004FEEFE7074A09489423B3
:10B3400000210EF002FF28B90146034A0548942364
:10B350000EF0FBFE42B070BDDCA3002008A300206D
:10B36000539B07000FE30020F8B5536E012B0E46E8
:10B3700002D002242046F8BD1568274928460BF064
:10B380000CFE044660B128460BF019FE2A462844FC
:10B39000904224D012F8013B303B092BF8D9E8E762
:10B3A0001E4F1F497B681F4832464FF47A75B3FB26
:10B3B000F5F30FF0BDF91C491A480FF0B9F97B6895
:10B3C0001749B3FBF5F3324618480FF0B1F91649A7
:10B3D00016480FF0ADF9642019F04AF8CAE70A22BE
:10B3E000002128460BF058FFB0F5E15FC1D80B4CA7
:10B3F0004FF47A735843606000210D480EF0C3FE8D
:10B40000626822B100230A4819460EF0B2FEFFF727
:10B410006FFF0024AEE700BF9E79070004A3002061
:10B420003D1D070030E20020185A070094E200207A
:10B4300011E30020536E012B70B50E4602D002249A
:10B44000204670BD1568334928460BF0A6FD04461A
:10B4500060B128460BF0B3FD2A46284490421ED026
:10B4600012F8013B303B092BF8D9E8E72A4D2B496C
:10B470006B7A2B4832460FF05BF92A4928480FF0C7
:10B4800057F96B7A2549284832460FF051F925497A
:10B4900025480FF04DF9642018F0EAFFD0E70A22A2
:10B4A000002128460BF0F8FE0328C8D81A4C637A0E
:10B4B000984223D06072FFF71BFF637A012B22D0E2
:10B4C0001ED9023B012B21D9184915480FF030F93C
:10B4D000144913480FF02CF9144913480FF028F9B8
:10B4E000104911480FF024F9642018F0C1FF41F20F
:10B4F000883018F0BDFF0E480EF004FE00249FE7D0
:10B50000FDF762FBE0E7FDF7B7FBDDE7FDF7E0FBEA
:10B51000DAE700BF9E79070004A30020441D07005E
:10B5200030E20020185A070094E200204A1D07006C
:10B53000A8E20020F8B5536E012B0D4602D002247C
:10B540002046F8BD17682549254E38460BF025FDE5
:10B55000044678BBB6F88E30ABB92A46214922485A
:10B560000FF0E6F8214920480FF0E2F82A461D497D
:10B570001F480FF0DDF81D491D480FF0D9F8642071
:10B5800018F076FFDCE729461A481B4F19F088FAB5
:10B590002546B6F88E20EBB2934205F1010505DA97
:10B5A00033443846197B19F07BFAF2E70F4819F05B
:10B5B00077FAC5E738460BF002FD06F10C020146AA
:10B5C0000546384613F05CFD04460028B7D16D08E7
:10B5D000A6F88E50FFF78CFEB2E700BF9E790700F9
:10B5E00004A30020671D070030E20020185A07005E
:10B5F00094E20020731D0700539B0700536E012B3C
:10B600002DE9F3410E4615462ED1274910680BF05F
:10B61000C4FC044660BBDFF8AC80244F98F80030CF
:10B620000193234D3B780093EB7A2249224832461E
:10B630000FF07EF8214920480FF07AF898F8003092
:10B6400001933B780093EB7A1A491D4832460FF07C
:10B650006FF81A491A480FF06BF8642018F008FFC9
:10B66000204602B0BDE8F081002B01DC0224F7E7A0
:10B670000022286811460BF00FFE10F0FF0508D1DC
:10B680000B4BDC7A002CEBD0DD72FFF731FE00248F
:10B69000E6E7012DEAD1064BDC7A002CF7D1DD720A
:10B6A000FFF726FEDCE700BF9E790700DCD900200B
:10B6B00004A30020771D070030E20020185A07007D
:10B6C00094E20020AFD50020F0B52E4D2E48C3B037
:10B6D00094232A4600210EF02EFD0646B8B12B7A9F
:10B6E000AA2B17D19021281D19F01CFD2B68274C7F
:10B6F000834211D047F23052AA23C4E90123244BDC
:10B70000E3600423A4F88E30FFF7F2FD00263046F4
:10B7100043B0F0BD0020E9E76B6863606B7AB5F871
:10B720008E20032B86BF0023374600276372802AB2
:10B730006B89638106D900232373A4F88E30FFF749
:10B74000D7FD07E013491448A4F88E200AF08AFEBA
:10B75000002FF4D10025FE22294602A801950AF007
:10B760008FFE0E4FB4F88E30E8B2984205F1010515
:10B77000CDDA231839461A7B01AB03EB40000BF0FE
:10B78000DFFBEFE7DCA300200FE3002004A3002091
:10B7900001020304E8A3002010A30020539B07002C
:10B7A00010B5074B53F82020002332F813408C4289
:10B7B000D8B203D80133102BF7D1184610BD00BF03
:10B7C000FCA4002013B501900F480EF083FB0199F3
:10B7D00080B2FFF7E5FF04460C480EF057FBA0428D
:10B7E0000FD20B4800F0E6FD0A490B4822460BF049
:10B7F000A7FB094800F0DEFD084B0020187002B0DE
:10B8000010BD0120FBE700BF6AE3002058E30020E1
:10B81000EC1D0700FE1D0700B5D50020D1D6002085
:10B820002DE9F3410121754E074622200FF033F830
:10B830004FF4FA7018F01CFE3478002C7ED1704959
:10B840007048009440F24C43422207F07FFC0546CA
:10B8500020B90024204602B0BDE8F08169484FF0CD
:10B86000020840F24C42012186F8008007F088FA75
:10B87000654E002F57D040F24C43224601216148CB
:10B8800007F0F6FA40F24C43424601215D4807F0CA
:10B89000EFFA40F24C43062201215A4807F0E8FA39
:10B8A0000122114640F24C43564807F0E1FA40F2BB
:10B8B0004C4303220121534807F0DAFA40F24C438B
:10B8C000042201214F4807F0D3FA40F24C430522ED
:10B8D0004C48012107F0CCFAF37A40F24C42E3B134
:10B8E0000521484807F093FC464840F24C43224665
:10B8F000012107F093FB434840F24C4107F046FA20
:10B90000737A023B012B02D8F47A002CA2D10021D9
:10B9100022200EF0C0FF2C469CE74FF4FA71394804
:10B9200007F0B6FCE7E740F24C424FF0FF313548F4
:10B9300007F04CFAFA2018F09BFDE1E700253049AA
:10B940003048009540F24C43422207F0FFFB04468A
:10B9500000283FF47EAF40F24C420121294807F015
:10B960000FFA40F24C432A460121264807F080FA9C
:10B9700040F24C4302220121224807F079FA40F2BA
:10B980004C43062201211F4807F072FA012211469A
:10B9900040F24C431B4807F06BFA40F24C43032241
:10B9A0000121184807F064FA40F24C4304220121B7
:10B9B000144807F05DFA40F24C430522114801217A
:10B9C00007F056FA104BDB7A40F24C4283B1052166
:10B9D0000C4807F01CFC0B4840F24C432A4601215E
:10B9E00007F01CFB40F24C41064807F0CFF931E765
:10B9F0004FF4FA71034807F04BFCF3E724D700201B
:10BA00008CE3002054D7002004A300200000000095
:10BA10002DE9F04FDFF80C83A94FAA4CAA4DDFF8AF
:10BA20000893AA4E8BB0002300220021C8E900230E
:10BA3000C7E900234FF0000A1C2203A82970C9F8A7
:10BA4000001021700291C6F800A00AF019FDA0496B
:10BA500002A80BF0ACFA9F4B9F48DB7AA34640F25A
:10BA60004C41002B66D007F0DCFCC117C8E900018F
:10BA700040F24C41984807F0B9FCC117C7E90001F2
:10BA800040F24C41944807F0E7FC40F24C41C9F8C1
:10BA90000000914807F03BFC07EE900AF8EE677A49
:10BAA00040F24C418C48C6ED007A07F084FC40F22D
:10BAB0004C412070884807F042FC012829D1874971
:10BAC00002A80BF074FA96ED007ADFED857AB4EEF9
:10BAD000E77AF1EE10FA05D57A4B1B78052B01D9E0
:10BAE00001232B702B7803F0FF04002B00F0D28091
:10BAF000D7E900E31A46D8F80430D8F800C01A4352
:10BB00004CEA0E00114650EA010378D100242C7053
:10BB1000AAE0022801D17349D2E7032801D1724972
:10BB2000CEE7042801D17149CAE705280CBF704946
:10BB30006749C5E707F020FC0028D3D00121242065
:10BB40000EF0A9FE644840F24C4107F0F8FB0446B1
:10BB500000283DD15E4902A80BF029FA5E4840F268
:10BB60004C4107F028FC634B8BF800001A78904298
:10BB700042D1614A137801331370022CB2D95E4B63
:10BB80001B78012BAED9012340F24C4152482B7057
:10BB900007F047FCC117C8E9000140F24C414E488C
:10BBA00007F024FCC117C7E9000140F24C414A48A4
:10BBB00007F052FC40F24C41C9F80000464807F03B
:10BBC000A6FB07EE900AF8EE677AC6ED007A89E7E1
:10BBD000012801D14949BEE7022801D14849BAE705
:10BBE000032801D14749B6E7042801D13F49B2E70C
:10BBF0000528B3D13E49AEE788BF1870BDE7354B85
:10BC0000304D5B7A032B33D13F4B40481B68724663
:10BC10001BB2614601F0DCFED8E9000144F0CEFE23
:10BC200025A3D3E9002345F021F845F0EDF9384B81
:10BC30001860D7E9000144F0C1FE1FA3D3E9002337
:10BC400045F014F845F0E0F9324B32681860324B99
:10BC50001A604FF47A72D9F8003093FBF2F32F4A4E
:10BC600013602F4B2A781A7020460BB0BDE8F08F76
:10BC7000D9F8003096ED000A24484FF47A7193FB0E
:10BC8000F1F395F9001000911BB27246614601F084
:10BC9000D3FDC1E71E4BC3F800A01E4BC3F800A0A4
:10BCA0001D4B4FF07E521A601C4B1C601C4B1C70CD
:10BCB0002DE700BFAFF3008000000000D012634109
:10BCC00048D70020D8D8002039D7002018D7002026
:10BCD0000C1E070004A3002054D70020131E0700E9
:10BCE00000009643221E07002E1E07003A1E070082
:10BCF000431E070050D7002051D700204C1E0700DC
:10BD0000561E07005D1E0700C8D60020A4D50020DF
:10BD100030D7002034D7002028D700202CD700208F
:10BD200038D7002040D700201CD700202DE9F04153
:10BD3000012186B023200EF0AEFDFFF769FE6B4FA8
:10BD40006B4E0446002800F09B806A4BD97A11B9EB
:10BD500022200EF0A0FD684B002264201A7018F01B
:10BD600087FB664803210EF00EFA3B78002B36D095
:10BD7000634B1B78002B32D100F07AFB614800F056
:10BD800019FB614B1868614B1D68614BD3F800804B
:10BD900044F0EAFD02460B462846CDE90423CDF8DF
:10BDA000088044F0E1FDDDE90423CDE900015949B3
:10BDB00059480BF0C5F8584800F0FCFA574B186882
:10BDC000574B1D7844F0D0FDEDB202460B46524869
:10BDD000544900950BF0B4F84F4800F0EBFA524B81
:10BDE0001B781BB9514801210EF0A3F85048DFF829
:10BDF000588101F0B3FE80B2FFF7E4FC0546D8B1EC
:10BE00004B4801F0ABFE0490494801F0A9FE012423
:10BE10000246CDE900440499464823460DF088FFC8
:10BE200038B988F80000444A1368013313602C467F
:10BE300004E088F80040F6E788F800003B78002B23
:10BE400049D0002C47D12E4B1B78002B43D100F05A
:10BE50000FFB314B1C70274BDB7A002B30D037485F
:10BE600000F0A8FA364B1A7862BB34882A4B2A2095
:10BE7000114694422ADD1870013203F8011FF8E7D9
:10BE8000304B32881B889A42D8D3642018F0F0FADD
:10BE9000194B1A481C702C4B03211C700EF073F9BF
:10BEA0003D785DB1164B1C78002CC7D127491A4844
:10BEB0000BF07DF8184800F07DFAB8E70124BDE7E3
:10BEC0002348CDE7234914480BF03AF8124800F014
:10BED00071FA00F003FB3388002101332320338003
:10BEE00006B0BDE8F0410EF0D6BC00BFAED50020D4
:10BEF00020D7002004A30020ACD5002011E30020AF
:10BF000000D70020641E070030D7002034D700205F
:10BF10002CD700206E1E0700B5D5002028D70020A2
:10BF200038D700207E1E0700D0D600206CE300200A
:10BF3000A4D5002049E30020C8D60020A81E070091
:10BF4000D8D8002022D70020D1D60020901E07008C
:10BF5000BE1E0700D11E070010B5054C204602F09A
:10BF600061F82046034A0449BDE810400AF00CBAC3
:10BF700054D7002090A1002031E602000020704735
:10BF800038B590F8333004460D4613B1406B0EF0CF
:10BF9000F3FA94F83010606B0EF032FB606B802186
:10BFA00000F02DF8606B036829461B689847606BAA
:10BFB0000121BDE838400EF02FBB000010B5034B47
:10BFC0000360044607F040FB204610BD40200700F8
:10BFD00010B50446406B0EF0CFFA606B02490EF0CC
:10BFE000DFFA012010BD00BF801A060010B504461C
:10BFF000FFF7E4FF20460CF019FD204610BD036852
:10C00000C9B21B6818472DE9F84F90F83330044641
:10C0100013B1406B0EF0B0FA658AC5F180054FF0A0
:10C02000000A05EBD575FF276D10D146D0463E4678
:10C03000A38A5FFA8AF1B1EBD30F28DA4FF0000C34
:10C04000638A5FFA8CF098421CDA11FB03F3034415
:10C05000A2689BB212F803E0E26812F803B0F3455D
:10C060000BD08E4228BF0E46884538BF884687428F
:10C0700028BF0746814538BF814602F803E00CF12E
:10C08000010CDDE70EF087F80AF1010AD0E7FF2E78
:10C0900057D0236821219B6920469847236857FA87
:10C0A00085F19B69C9B2204698475FFA85FA2368F3
:10C0B0000AEB09019B69C9B22046984723682221EF
:10C0C0009B6920469847236831469B6920469847DC
:10C0D000236841469B69204698470025B04529D3EF
:10C0E000BA46CA4521D845B994F83010606B0EF0B5
:10C0F00087FA606B4021FFF782FFA268606B638A5A
:10C1000006FB0323026813F80A1012680135EDB22A
:10C110009047102D04D1606B01210EF07DFA0025AF
:10C120000AF1010A5FFA8AFADBE701360EF033F80A
:10C13000F6B2D3E72DB1606B0121BDE8F84F0EF0E8
:10C140006BBABDE8F88F000038B51648164C0EF0F3
:10C1500013FA4FF4FA7018F08BF90125204684F891
:10C16000335007F028FE204607F0DBFC204607F09E
:10C1700056FD204607F0C3FCC821204607F018FDF5
:10C18000204607F03FFD4023F1222046642107F0BE
:10C19000DAFC0649204607F0B0FC2046FFF733FFE3
:10C1A000284638BD8CE300209CD900206020070081
:10C1B00030B52DED028B044697B04F480D464F49E0
:10C1C00007F09BFC4C48002107F048FA00220B23A3
:10C1D000114649480093802307F058FB4648012147
:10C1E00007F03CFA4448002107F085FC444B1B78DB
:10C1F0007BB1444B1B7863B15DB1434906A80EF097
:10C2000011F906AB00223C48114607F011FE06A8C2
:10C210001AE03E4BDD7A002D2FD03D4B3D4918787A
:10C220003D4A2346002808BF0A463C4906A80AF0B2
:10C2300087FE06A903A80EF0F5F800222E4803ABEE
:10C24000114607F0F5FD03A80EF0A6F84FF0804365
:10C25000D3F8384414F0FF0416D0032C46D00B2238
:10C2600000927F230021244807F02FFA2248FFF78D
:10C27000CAFE17B0BDEC028B30BD214606A80EF0F9
:10C28000D1F806AB2A46BEE725489FED268A244C06
:10C290000DF03AFF0A2520460DF036FF013D38EE3D
:10C2A000008AF8D1F2EE047AC8EE277A17EE900AE7
:10C2B00044F05AFB02460B4606A81B490AF040FE12
:10C2C00082B206A90C4807F0F9FB06A9044603A8A8
:10C2D0000EF0A8F8C4F17F01074803AB002209B2B1
:10C2E00007F0A6FD03A80EF057F8B8E70F4906A817
:10C2F0000AF05DFE2246E4E79CD90020602007009A
:10C300000CDA0020AFD50020DC1E070004A30020BB
:10C3100039D70020059B07003E5E0700EA1E070094
:10C320000DE3002000000000F01E0700F61E0700CD
:10C33000F0B51C481C4F1D4E1A4D87B0002107F068
:10C340008DF940230C22174800930021802307F029
:10C350009DFA1749134807F0D0FB1248012107F056
:10C360007DF91048002107F0C6FB00243B78A3426A
:10C3700013DD06EB441103A80EF054F804EB84021D
:10C3800052000C3203AB12B20021284607F050FDD8
:10C3900003A80EF001F80134E8E70248FFF733FE86
:10C3A00007B0F0BD9CD90020D9D80020DAD80020F1
:10C3B0006020070070B5274C274D2278052A0346D8
:10C3C00038D105F12002294605F1400052F8046BEE
:10C3D00041F8046B8242F9D1204AA2F1200102F116
:10C3E000200052F8046B41F8046B8242F9D11C4AD8
:10C3F000A2F1200102F1200052F8046B41F8046B15
:10C400008242F9D1174AA2F1200102F1200052F82C
:10C41000046B41F8046B8242F9D1134AA2F1200166
:10C4200002F1200052F8046B41F8046B8242F9D10A
:10C430000422227020780D4A05EB401020210AF0DA
:10C440004BFD2378052B1CBF01332370BDE87040E2
:10C45000FFF76EBFD9D80020DAD800201AD9002003
:10C460003AD900205AD900207AD900208A790700C9
:10C4700007B50B48002107F0F1F8402300930C2288
:10C4800080230748002107F001FA0548012107F041
:10C49000E5F8044B00221A7003B05DF804FB00BFFE
:10C4A0009CD90020D9D8002030B585B004460D466F
:10C4B00001A811460DF0D8FF04EB840252000C32A3
:10C4C00001AB12B22946044807F0B2FC01A80DF0F6
:10C4D00063FF05B030BD00BF9CD9002008B50248FD
:10C4E000FFF791FD08BD00BF9CD9002070B5044640
:10C4F0000B4D0C487CB107F002FB01232B700A4B5B
:10C500009B7A5BB1BDE87040084800234EF660227C
:10C5100002210DF02EBE07F004FB2C7070BD00BF91
:10C520004CA500209CD9002004A3002011E300208A
:10C530000020FFF7DBBF00002DE9F04F89B0154662
:10C540001C469DF848309DF84CA00291804601930E
:10C55000FFF78EFF012D6BD18C498D4C05A80DF096
:10C5600061FF002105AA0846FFF79EFF05A80DF010
:10C5700013FF627A032A0FD8DFE802F002545658FC
:10C58000844905A80DF04EFF012005AA0021FFF700
:10C590008BFF05A80DF000FF4FF47A7362687E49A7
:10C5A000B2FBF3F27D487E4D7E4C0AF0C9FC7B491C
:10C5B00005A80DF037FF05AA00210220FFF774FF40
:10C5C00005A80DF0E9FEBAF1000F14BF2A46224675
:10C5D000754972480AF0B4FC704905A80DF022FFB5
:10C5E00005AA00210320FFF75FFF05A80DF0D4FE88
:10C5F000019B6E49002B14BF2A46224667480AF069
:10C600009FFC664905A80DF00DFF05AA0021042036
:10C61000FFF74AFF05A80DF0BFFEFFF75FFF09B067
:10C62000BDE8F08F6249ACE76249AAE76249A8E732
:10C63000062D2BD1554905A80DF0F4FE002105AAC1
:10C640000846FFF731FF05A80DF0A6FE5B4905A8D7
:10C650000DF0E8FE05AA00210120FFF725FF05A83F
:10C660000DF09AFE564905A80DF0DCFE05AA002142
:10C670000220FFF719FF05A80DF08EFE444B51492B
:10C680005A684FF47A73B2FBF3F2B7E7072D60D123
:10C690003E4905A80DF0C6FE002105AA0846FFF791
:10C6A00003FF05A80DF078FE474905A80DF0BAFE76
:10C6B00005AA00210120FFF7F7FE05A80DF06CFE8A
:10C6C000424905A80DF0AEFE022005AA0021FFF7A1
:10C6D000EBFE05A80DF060FE002C35D0631E0C2C7F
:10C6E000DBB233D0651CEDB2394E2C4856F823101E
:10C6F0000AF05DFC294905A80DF094FE05AA402129
:10C700000220FFF7D1FE05A80DF046FE56F82420C2
:10C71000304922480AF014FC204905A80DF082FE99
:10C72000402105AA0320FFF7BFFE05A80DF034FE47
:10C7300056F8251019480AF03AFC184905A80DF0DA
:10C7400071FE05AA402162E70C23CBE70B230025ED
:10C75000CAE7082D44D10D4905A80DF063FE00215C
:10C76000084605AAFFF7A0FE05A80DF015FE0A2C45
:10C770000CBF1949194909480AF019FC074905A8CD
:10C780000DF050FE05AA0021012041E7FA1E070026
:10C79000D0A10020D21407000C1F0700B5D500203F
:10C7A00021200700F91707001E1F0700BA1A07000B
:10C7B000031F0700E2150700F31507002A1F0700F3
:10C7C0003E1F0700521F07006B1F0700741F070062
:10C7D00098A300207D1F0700851F0700911F0700F9
:10C7E000092D5CD1A449A54C05A80DF01BFE002124
:10C7F00005AA0846FFF758FE05A80DF0CDFDA04993
:10C8000005A80DF00FFE05AA00210120FFF74CFE40
:10C8100005A80DF0C1FD9B4905A80DF003FE05AA72
:10C8200000210220FFF740FE05A80DF0B5FD964956
:10C8300023780D7895499648AB4208BF0A78097865
:10C840001CBF03F1FF32D2B2994218BF01339149A4
:10C8500018BFDDB20AF074FB8D4905A80DF0E2FDAA
:10C8600005AA40210220FFF71FFE05A80DF094FD48
:10C870002278894986480AF063FB854905A80DF0AE
:10C88000D1FD05AA40210320FFF70EFE05A80DF0FB
:10C8900083FD80492A467E480AF052FB4DE70A2D67
:10C8A00059D175497D4C05A80DF0BCFD002105AAA4
:10C8B0000846FFF7F9FD05A80DF06EFD704905A8C3
:10C8C0000DF0B0FD05AA00210120FFF7EDFD05A840
:10C8D0000DF062FD6B4905A80DF0A4FD05AA00212D
:10C8E0000220FFF7E1FD05A80DF056FD6C49237805
:10C8F0000D786C496648AB4208BF0A7809781CBFBE
:10C9000003F1FF32D2B2994218BF0133664918BF12
:10C91000DDB20AF015FB5E4905A80DF083FD05AAFE
:10C9200040210220FFF7C0FD05A80DF035FD22785B
:10C930005E4957480AF004FB554905A80DF072FD01
:10C9400005AA40210320FFF7AFFD05A80DF024FD47
:10C9500055492A469FE70B2D33D1474905A80DF0CD
:10C9600061FD002105AA0846FFF79EFD05A80DF010
:10C9700013FD4F4905A80DF055FD05AA0021012022
:10C98000FFF792FD05A80DF007FD4A4905A80DF037
:10C9900049FD05AA00210220FFF786FD05A80DF03C
:10C9A000FBFC454B186843F0CDFF31A3D3E90023CE
:10C9B00044F05CF902460B46354840490AF0C0FA9B
:10C9C0001FE60C2D40F080802B4905A80DF02AFDB4
:10C9D000002105AA0846FFF767FD05A80DF0DCFC5D
:10C9E000274905A80DF01EFD05AA00210120FFF72B
:10C9F0005BFD05A80DF0D0FC224905A80DF012FD45
:10CA000005AA00210220FFF74FFD05A80DF0C4FC88
:10CA1000062C03D0651E0C2CEDB226D0661CF6B297
:10CA20002A4627491A480AF08BFA194905A80DF039
:10CA3000F9FC05AA40210220FFF736FD05A80DF0FC
:10CA4000ABFC22461F4912480AF07AFA104905A8A1
:10CA50000DF0E8FC05AA40210320FFF725FD05A8FD
:10CA60000DF09AFC1649324615E70B250626D7E746
:10CA70000000000080842E41FA1E070005D7002028
:10CA80006B1F0700741F070009D7002007D700207D
:10CA9000B5D50020A11F07009C1F070006D7002066
:10CAA0000AD7002008D70020AB1F0700A61F0700E9
:10CAB000B21F0700C01F070010D70020D01F0700BB
:10CAC000F11F0700EC1F07000D2D62D1A44905A836
:10CAD0000DF0A8FC002105AA0846FFF7E5FC05A813
