:020000022000DC
:107000000000042061930300899303008B93030025
:107010008D9303008F930300919303000000000001
:107020000000000000000000000000009393030037
:107030009593030000000000000000000000000025
:107040007182050097930300F1A0050049880500AF
:1070500097930300B17E0500897C0500A1640600BA
:1070600097930300898705009D8705009793030088
:10707000979303009793030097930300979303005C
:10708000A5710600895405009793030097930300A8
:107090009793030097930300295B060097930300DF
:1070A0009793030097930300B1870500C5870500F8
:1070B0009793030097930300000000000000000076
:1070C000979303009793030097930300DD690600ED
:1070D000A18405009793030097930300019E050088
:1070E000799E060097930300B9C5060000000000D2
:1070F000000000009793030000000000AD6D060043
:10710000000000000000000000000000000000007F
:10711000000000000000000000000000000000006F
:10712000000000000000000000000000000000005F
:10713000000000000000000000000000000000004F
:10714000000000000000000000000000000000003F
:10715000000000000000000000000000000000002F
:10716000000000000000000000000000000000001F
:10717000000000000000000000000000000000000F
:1071800000000000000000000000000000000000FF
:1071900000000000000000000000000000000000EF
:1071A00000000000000000000000000000000000DF
:1071B00000000000000000000000000000000000CF
:1071C00000000000000000000000000000000000BF
:1071D00000000000000000000000000000000000AF
:1071E000000000000000000000000000000000009F
:1071F000000000000000000000000000000000008F
:1072000010B5054C237833B9044B13B10448AFF3E0
:1072100000800123237010BD60D500200000000015
:107220009805080008B5034B1BB103490348AFF3A9
:10723000008008BD0000000064D50020980508000B
:10724000154B002B08BF134B9D46A3F5803A002138
:107250008B460F461348144A121A0FF0DDFC0F4BF1
:10726000002B00D098470E4B002B00D098470020F1
:10727000002104000D000D48002802D00C48AFF397
:1072800000800FF079FC200029000FF0FFF90FF0CB
:107290005FFC00BF000008000000042000000000A8
:1072A0000000000060D500203CC501200000000067
:1072B000000000000022C0E900220172704738B5CA
:1072C0000446006820B1856911F080FF2846F9E77F
:1072D000204638BD006820B143688B4201D08069E8
:1072E000F9E77047F8B504460F4616461D46FFF706
:1072F000F1FF20B10123826005704370F8BD1C20AE
:1073000011F068FF012343700023C0E90333C0E993
:10731000053323680570C0E9017613B92060606009
:10732000ECE763689861FAE72DE9F8430468164FC3
:1073300005460E464FF000081CB363680BB9A469FC
:10734000FAE72378002BFAD0E368A268F31A9A428E
:1073500002D961780029F2D09B1A636184F8018018
:10736000E66013F079FE63688146984713F074FE77
:107370003B68A0EB0900206118442B7A3860002B91
:10738000DDD0BDE8F88300BF7CD50020024B1A7821
:107390000AB901221A707047D0D60020034B044866
:1073A00009221A700121FA2213F0B3BA80D5002005
:1073B00011E3002008B5074B50B103221A700648AC
:1073C000FA22012113F0A5FA044B00221A7008BD1D
:1073D0000522F3E780D5002011E30020D1D600205C
:1073E000054B064800221A70054B08221A7001212D
:1073F000FA2213F08EBA00BFD1D6002011E300208C
:1074000080D5002084B004AB03E907000B4BBDF925
:107410000A201A800A4B9DF90C201A70094A0A4862
:10742000136801331360094B00221A70084B0121C5
:10743000FA22197004B013F06CBA00BFB2D5002064
:10744000B4D50020C8D6002011E30020D1D60020FA
:1074500080D500202DE9FF47DFF8C0A2974D984E58
:10746000DFF8BC82012700232F7033709AF80930AF
:10747000023BBB42544600F25581924806F037FF6A
:107480009AF80B30002B00F0CC808F4A98F800302F
:1074900011789146002940F0AB8083B18B4B1B786B
:1074A0006BB905F025FB9AF80930022B0CBF884810
:1074B0008848394605F0BCF9874805F0BBFA04F066
:1074C000E3FD10B3854B1B781BB98548012113F0F0
:1074D00000F9B4F88E0004F0B1FC002800F08281BD
:1074E000784806F007FF0390764806F005FF012470
:1074F0000023CDE900437B4B03991B7802467A4871
:1075000012F0E6FF00286ED15FE0784A117809BBDF
:10751000774B1B7803F0FF07E3B90123694889F82B
:10752000003006F0E4FE734B73481F8041F288324E
:107530006368B3FBF2F3714A1380714B1F70714B98
:1075400040F6C4121F7003213B4604B0BDE8F0476B
:1075500013F0DFB90023137098F800304BB15B4B88
:107560001B7833B96849694810F0EDF8674805F0B1
:1075700061FA637A032B2BD1654B52481B680022BA
:107580001BB2114606F0F0FD544B1B781BB9544852
:10759000012113F09EF8B4F88E0004F04FFC00288F
:1075A00000F02081474806F0A5FE0390454806F00C
:1075B000A3FE01240023CDE900434A4B03991B7825
:1075C0000246494812F084FF60B9287034700AE01E
:1075D00000230093B7EE000A1A461946394806F010
:1075E000F7FCD1E72C704A4A136801331360F9E0C5
:1075F000002B00F0F780354B1B78002B40F0F28019
:1076000005F076FA9AF80930022B0CBF3048314861
:10761000394605F00DF93F4804B0BDE8F04705F0E4
:1076200009BA98F8003083B1284B1B786BB905F084
:107630005FFA9AF80930022B0CBF254825483946D5
:1076400005F0F6F8344805F0F5F9637A032B2BD1F1
:107650002F4B1C481B6800221BB2114606F084FD0C
:107660001E4B1B781BB91E48012113F032F8B4F8E9
:107670008E0004F0E3FB002800F0B480114806F00F
:1076800039FE03900F4806F037FE01230021CDE9B3
:107690000031144B03991B780246134812F018FF6F
:1076A0000028A0D128709EE700230093B7EE000ABF
:1076B0001A461946034806F08BFCD1E7D1D60020C4
:1076C000D8A30020A4D50020ACD5002000D70020EE
:1076D000581B0700681B0700791B0700D0D6002045
:1076E0006CE3002094A1002049E30020A2D50020F3
:1076F00081D5002020D7002011E3002022D70020D0
:1077000050D7002051D70020941B0700B5D500208A
:10771000C8D60020AA1B0700BE1B070004A3002038
:10772000AFD5002098F8003073B1384B93F8008043
:10773000B8F1000F08D105F0DBF93548394605F0FE
:1077400077F8344B83F80080334806F0D0FD334897
:1077500012F0CEFF0746002847D0314812F052FF02
:1077600000283CD00121242013F065FC2D4B1B7810
:10777000C3B12D4805F05EF92C4B1B781BB92C4882
:10778000012112F0A6FFE77A9FB104F07DFC20B939
:10779000284A00231360284A13601F4806F0AAFDF8
:1077A00080B298E61B4B1B780BB12448E2E72448D3
:1077B000E0E7B4F88E0004F041FB98B10197214B4B
:1077C000214A2248012700971B7894F88E1012F066
:1077D0007FFE00287FF407AF2870377003E701238E
:1077E0002870337004B0BDE8F0870121232013F026
:1077F00022FC134805F01EF93B46134A94F88E10FC
:10780000134812F010FE01232B70ECE600D7002085
:10781000CA1B0700A2D50020A4D500206DE30020DC
:1078200054E3002081D50020DB1B0700D0D60020C8
:107830006CE3002034D7002030D70020EC1B070079
:10784000FB1B070094A1002010A3002049E30020A7
:107850006EE30020000000002DE9F04F824B1A7803
:10786000012A8FB0054636D1022203A81A702BF0E8
:107870009FFD7E4B039893F991307D4C4FF46162EC
:10788000123802FB030005A92BF006FE0A9B03F247
:107890006C739BB22380099B0133DBB2A3709DF80C
:1078A000203023719DF81C3063719DF81830A3714E
:1078B0009DF81430E3716F4B1B7863B12088A17879
:1078C00022796379A679E47980B2CDE9006405F084
:1078D000BFFE05F003FF0021242013F0ACFB0021C4
:1078E000232013F0A8FB002D01F0D4812B78013B5D
:1078F000072B01F21C82DFE813F008004C015B0249
:10790000B6027304FF04C907C30905F09DFD5A4B75
:107910001B78002B37D0574B1B78002B00F09C8036
:1079200005F0DCFE524A554B118889B219809178D6
:10793000C9B299701179C9B2D9705179C9B21971A6
:107940009179C9B25971D2794D49D2B29A71012255
:10795000DA7100221A720968D9604A490968196106
:1079600049491A755A75098849B2D975474909783C
:1079700049B219765A839A83DA83454A126812B259
:107980001A8406F023F9434B1B78002B01F0828107
:10799000414B1C78002C41F07D81404940480FF05C
:1079A000D2FE3F4905A813F00DF905AA214620464D
:1079B00005F0BAF805A813F0BFF83A4B3A491A682F
:1079C00037480FF089FE364905A813F0FBF805AAE1
:1079D0002146012005F0A8F805A813F0ADF83348BA
:1079E00012F0BBFC49F06EFB1DA3D3E9002349F064
:1079F0000DFD0B4602462E4929480FF06DFE284921
:107A000005A813F0DFF805AA2146022005F08CF83E
:107A100005A813F091F8274812F0B0FC2649024659
:107A20001F480FF059FE1E4905A813F0CBF805AA10
:107A30002146032005F078F805A813F07DF81F48CB
:107A400012F0ADFC092800F2A280DFE800F0398EC8
:107A500090929496989A9C9E05F064FE62E700BF0F
:107A60000000000080842E41D0D6002004A3002016
:107A7000D4D90020DCD90020B0D50020A4A100205A
:107A800030D7002034D70020B2D50020B4D5002054
:107A9000C4D60020AFD5002000D700200D1C070061
:107AA000B5D50020C8D600201B1C070079E30020B4
:107AB0002F1C07007AE300209A2807007BE30020B0
:107AC000874903A80FF03FFE864812F068FC864BFA
:107AD000864953F8202086480FF0FEFD844905A80A
:107AE00013F070F805AA4021032005F01DF805A841
:107AF00013F022F87F4812F063FC7F49421D7C4856
:107B00000FF0EAFD7A4905A813F05CF805AA4021B8
:107B1000022005F009F805A813F00EF8774B784914
:107B20001A88734812B20FF0D7FD714905A813F0F7
:107B300049F805AA0021042004F0F6FF05A812F078
:107B4000FBFF704B70491A7852B269480FF0C4FDC0
:107B5000674905A813F036F805AA4021042004F06F
:107B6000E3FF05A812F0E8FF16E36849A9E76849B2
:107B7000A7E76849A5E76849A3E76849A1E7684915
:107B80009FE768499DE768499BE7684999E7684925
:107B900097E705F059FC674B00221A70664B1B787B
:107BA000002B35D0654B1B78002B6BD005F096FD74
:107BB000634B644C1A88644892B222809A78D2B29D
:107BC000A2701A79D2B2E2705A79D2B222719A793D
:107BD000D2B26271DB795D4ADBB2A3710023E3713B
:107BE00023721268E2605A4A126822612375637533
:107BF000E37523766383A383E383564B1B681BB231
:107C0000238412F013FD40B284F8220005F0DEFF59
:107C1000514B1B78002B01F03D80504B1C78002C01
:107C200041F038804E4932484E4D0FF08CFD3049BE
:107C300005A812F0C7FF05AA2146204604F074FFEC
:107C400005A812F079FF2A68474929480FF044FD3A
:107C5000274905A812F0B6FF05AA2146022004F024
:107C600063FF05A812F068FF2B68013B0F2B35D886
:107C7000DFE803F00B16181A1C1E20222426282ADF
:107C80002C2E303205F04EFD92E7384918480FF09F
:107C90005AFD174905A812F095FF05AA00215DE7D6
:107CA0003349F3E73349F1E73349EFE73349EDE788
:107CB0003349EBE73349E9E73349E7E73349E5E798
:107CC0003349E3E73349E1E73349DFE73349DDE7A8
:107CD0003349DBE73349D9E73349D7E73349D5E7B8
:107CE000361C07007BE300207CA200206C1C0700F0
:107CF000B5D500207CE30020B3280700B2D50020D2
:107D0000051E0700B4D50020101E07003A1C07000E
:107D10003E1C0700421C0700461C07004B1C0700C6
:107D2000511C0700571C07005D1C0700631C07005F
:107D3000681C0700D1D60020B0D50020DCD9002077
:107D4000D4D90020A4A1002058E3002030D700207F
:107D500034D70020C4D60020AFD5002000D70020A3
:107D6000721C0700D4D60020811C07008B1C070062
:107D7000991C0700A41C0700B01C0700BC1C0700CE
:107D8000C61C0700D01C0700DC1C0700F01C070005
:107D9000031D0700131D0700201D07002A1D0700F3
:107DA0003A1D0700481D0700541D0700651D070008
:107DB00005F04AFBA24B1B78002B00F06B87A14B10
:107DC0001E78002E40F066879F4C657A022D41D0C8
:107DD000032D46D05DB99D4905A812F0F3FE05AA12
:107DE0002946084604F0A0FE05A812F0A5FE4FF4AF
:107DF0007A7362689649B2FBF3F296480FF06CFC16
:107E0000944905A812F0DEFE05AA0021012004F025
:107E10008BFE05A812F090FE8F4905A812F0D2FE45
:107E2000002105AA022004F07FFE05A812F084FEBE
:107E30008A4988480FF087FC864905A812F0C2FEDF
:107E4000002105AA032004F06FFE05A812F074FEBD
:107E500081491FE7824905A812F0B4FE05AA314600
:107E6000BFE78049F7E705F0EFFA7F4B1B78002B5F
:107E700045D07E4B1B78002B00F0DE8005F02EFCF9
:107E80007B4B7C4C1A887C4892B222809A78D2B282
:107E9000A2701A79D2B2E2705A79D2B222719A796A
:107EA000D2B26271DB79754ADBB2A3710023E37150
:107EB0001278D2B22272724A1268E260714A126873
:107EC0002261714A118849B22175118849B26175E0
:107ED000128852B2E2756D4A127852B222766383EA
:107EE000A3836B4B1B78E3836A4B1B681BB2238411
:107EF00012F09CFB40B284F8220005F067FE504B64
:107F00001B78002B00F0C6864E4B1C78002C40F0EE
:107F1000C186614D614B2978614A4E485D4FDFF85B
:107F2000A481002918BF1A465E490FF0D5FB4949C4
:107F300005A812F047FE05AA2146204604F0F4FDEC
:107F400005A812F0F9FD2B7803F0FF06002B40F096
:107F5000BB804F4B54491A783E480FF0BDFB3D495A
:107F600005A812F02FFE05AA3146012004F0DCFD21
:107F700005A812F0E1FD404812F058FB4B490246BB
:107F800034480FF0A9FB334905A812F01BFE05AADF
:107F90003146022004F0C8FD05A812F0CDFD374B94
:107FA00043491A782B480FF097FB2A4905A812F08D
:107FB00009FE05AA4021022004F0B6FD05A812F032
:107FC000BBFDD8F800203B4922480FF085FB214932
:107FD00005A812F0F7FD05AA3146032004F0A4FD20
:107FE00005A812F0A9FD3A6833491A480FF074FB4E
:107FF000184905A812F0E6FD05AA4021032004F067
:1080000093FD05A812F098FD1F4B2C491A881148C2
:1080100012B20FF061FB0F4905A812F0D3FD05AABB
:108020003146042004F080FD05A812F085FD174BB1
:1080300023491A7852B288E505F074FB20E700BFA7
:10804000AFD5002000D7002004A30020731D070037
:10805000A71D0700B5D500205BC70700D01C07008F
:10806000821D0700931D0700B0D50020DCD9002039
:10807000D4D90020A4A1002058E30020B6D60020C7
:1080800030D7002034D70020B2D50020B4D500204E
:10809000B5D60020C4D60020B7D60020091C0700A2
:1080A0004E1F0700BB1D0700CC1D0700E01D070089
:1080B000E91D0700F21D0700FA1D0700021E070058
:1080C0000D1E0700C8D60020D8F800206A496B486A
:1080D0000FF002FB694905A812F074FD05AA2146BC
:1080E000012004F021FD05A812F026FD3A6864493C
:1080F00062480FF0F1FA614905A812F063FD05AA84
:108100004021012004F010FD05A812F015FD2A7889
:108110005C495A480FF0E0FA584905A812F052FDA0
:1081200005AA2146022004F0FFFC05A812F004FD78
:108130002B78013B0F2B51D8DFE803F0083234369F
:10814000383A3C3E40424446484A4C4E4E494B48E1
:108150000FF0F9FA494905A812F034FD05AA0021EB
:10816000032004F0E1FC05A812F0E6FC474812F0F9
:108170005DFA4749024641480FF0AEFA3F4905A86B
:1081800012F020FD05AA0021042004F0CDFC05A872
:1081900012F0D2FC04F0E2FC04F0E0FC00F07ABD46
:1081A0003C49D4E73C49D2E73C49D0E73C49CEE7DB
:1081B0003C49CCE73C49CAE73C49C8E73C49C6E7EB
:1081C0003C49C4E73C49C2E73C49C0E73C49BEE7FB
:1081D0003C49BCE73C49BAE73C49B8E73C49B6E70B
:1081E00005F032F93B4B1B78002B00F053853A4BDE
:1081F0001E78002E40F04E85384C657A022D31D025
:10820000032D36D05DB9364905A812F0DBFC05AA6E
:108210002946084604F088FC05A812F08DFC4FF4AE
:108220007A7362682F49B2FBF3F214480FF054FAE4
:10823000124905A812F0C6FC05AA0021012004F08D
:1082400073FC05A812F078FC274905A812F0BAFCC7
:10825000002105AA022004F067FC05A812F06CFCBE
:108260002249E6E5224905A812F0ACFC05AA3146F0
:10827000CFE72049F7E700BFF21D0700B5D5002082
:10828000FA1D0700171E07008B1C070058E300208B
:108290002C1E0700991C0700A41C0700B01C070037
:1082A000BC1C0700C61C0700D01C0700DC1C070014
:1082B000F01C0700031D0700131D0700201D070009
:1082C0002A1D07003A1D0700481D0700541D07001E
:1082D000651D0700AFD5002000D7002004A30020B3
:1082E000731D0700A71D07005BC70700351E0700A9
:1082F000821D0700931D0700984F05F0A5F87B7AB3
:108300009749032B974B40F05F811A785E78DD78B0
:108310001C7993F8028093F805A093F907B00B78C5
:1083200006EB0226C5EB4510B6B20A22B6FBF2F206
:1083300007EE902A05EB8005C4EB44108A4AF8EE5C
:10834000E77A04EB800408F138086D006400C2EDA0
:10835000007A4FFA88F82DB224B24FEA2A1A9146D1
:10836000002B41D0814B1B78002B00F0E28005F000
:10837000B5F97F4A7F4B11887F4889B2198091787F
:10838000C9B299701179C9B2D9705179C9B219714C
:108390009179C9B25971D279D2B29A710322DA7144
:1083A0005FFA8AF21A72754A1268DA60744A1268C1
:1083B0001A610021734A197583F8158083F816B085
:1083C000128852B2DA75704A127836B252B21A7600
:1083D0005D839C83D9831E8412F028F9654B40B2DB
:1083E00083F8220005F0F2FB684B1B78002B00F0AD
:1083F0005184674B1B78002B40F04C8404F078FBD1
:108400007B7A022B0CBF63486348012104F010FA09
:108410005D4B62491A785B4B61481B8852B21BB2B4
:108420000FF05AF95E4905A812F0CCFB002108466E
:1084300005AA04F079FB05A812F07EFB43465A46D4
:10844000584957480FF048F9554905A812F0BAFBAA
:1084500005AA0021012004F067FB05A812F06CFBBF
:10846000524651494E480FF037F94D4905A812F0D0
:10847000A9FB05AA0021022004F056FB05A812F072
:108480005BFB4A4905A812F09DFB05AA3221022098
:1084900004F04AFB05A812F04FFB454905A812F06D
:1084A00091FB05AA5021022004F03EFB05A812F022
:1084B00043FB404905A812F085FB05AA00210320D3
:1084C00004F032FB05A812F037FBFE7A3A4F002E7B
:1084D00032D02A46394932480FF0FEF8304905A813
:1084E00012F070FB05AA3221032004F01DFB05A841
:1084F00012F022FB31492A4822460FF0EDF82849B4
:1085000005A812F05FFB05AA5021032004F00CFB24
:1085100005A812F011FBD9F800003C6848F0F4FD02
:10852000009402460B461E4825490FF0D5F8FFF788
:10853000B0BB05F0F7F81CE7224919480FF003F922
:10854000174905A812F03EFB05AA3221032004F0CA
:10855000EBFA05A812F0F0FAD1E700BF04A300205F
:10856000B0D5002082D50020CCD60020DCD9002058
:10857000D4D90020A4A1002058E3002030D7002047
:1085800034D70020B2D50020B4D50020AFD50020CC
:1085900000D70020581B0700681B07004B1E070070
:1085A000B5D50020621E0700791E0700841E070053
:1085B000881E07008C1E0700C8D60020DD1D07009E
:1085C000951E0700AA1E0700DD7893F801809E78AB
:1085D00093F805A0C5EB451205EB82051A790B78D7
:1085E000C2EB421902EB8909A8F1C808C83E6D0028
:1085F0004FEA49091FFA88F8B6B22DB20FFA89F985
:10860000002B42D0894B1B78002B00F0FB8005F03B
:1086100065F8874B874C1A88874892B222809A78EF
:10862000D2B2A2701A79D2B2E2705A79D2B2227161
:108630009A79D2B26271DB79DBB2A3710223E37162
:108640007E4B84F808A01B68E3607D4B1B682361A8
:108650004FFA88F3237573B263757A4B1B885BB24C
:10866000E375794B1B785BB2237600236583A4F80E
:108670001C90E383754B1B681BB2238411F0D6FF5B
:1086800040B284F8220005F0A1FA714B1B78002B50
:1086900000F000836F4B1B78002B40F0FB8204F04E
:1086A00027FA7B7A022B0CBF6B486C48012104F03F
:1086B000BFF8654B6A491A78624B6A481B8852B208
:1086C0001BB20FF009F8674905A812F07BFA0021E8
:1086D000084605AA04F028FA05A812F02DFA4FFA68
:1086E0008AF261495F480EF0F7FF5E4905A812F073
:1086F00069FA05AA0021012004F016FA05A812F073
:108700001BFA5A4905A812F05DFA05AA3221012088
:1087100004F00AFA05A812F00FFA554905A812F05C
:1087200051FA05AA5021012004F0FEF905A812F023
:1087300003FA504905A812F045FA05AA00210220C3
:1087400004F0F2F905A812F0F7F94B4905A812F068
:1087500039FA05AA0021032004F0E6F905A812F071
:10876000EBF90FFA88F245493E480EF0B5FF3D4956
:1087700005A812F027FA05AA3221022004F0D4F944
:1087800005A812F0D9F932B23C4936483C4E0EF0F9
:10879000A3FF344905A812F015FA05AA32210320D7
:1087A00004F0C2F905A812F0C7F9FC7A274F64B3A8
:1087B0002A4632492B480EF08FFF2A4905A812F0AD
:1087C00001FA05AA5021022004F0AEF905A812F022
:1087D000B3F92A4923484A460EF07EFF214905A8ED
:1087E00012F0F0F905AA5021032004F09DF905A824
:1087F00012F0A2F93A68234933681A480EF06CFF68
:10880000FFF747BA04F08EFF03E71F4915480EF043
:108810009AFF144905A812F0D5F905AA50210220A3
:1088200004F082F905A812F087F9D7E7DCD9002017
:10883000D4D90020A4A1002058E3002030D7002084
:1088400034D70020B2D50020B4D50020C4D60020F3
:10885000AFD5002000D70020581B0700681B070079
:108860004B1E0700B5D50020791E07009673070040
:108870008C1E0700841E0700881E0700DD1D0700F0
:10888000C8D60020AD1E0700AA1E070004F0DCFDBC
:108890009F48042112F047F89E4B1B78002B37D0DD
:1088A0009D4B1B78002B00F0ED8004F017FF9B4BD5
:1088B0009B4C1A889B4892B222809A78D2B2A270BE
:1088C0001A79D2B2E2705A79D2B222719A79D2B2BE
:1088D0006271DB79944ADBB2A3710223E371002356
:1088E00023721268E260914A1268226123756375EF
:1088F000E37523766383A383E3838D4B1B681BB2ED
:10890000238411F093FE40B284F8220005F05EF952
:10891000884B1B78002B00F0BD81874B1B78002B08
:1089200040F0B881854D864C04F0E2F86B7A032B59
:108930000CBF84488448012103F07AFF83498448AE
:108940000EF001FF824905A812F03CF9002108460B
:1089500005AA04F0E9F805A812F0EEF87D4B1E78A0
:10896000002E00F071817C4FDFF8C4914FF00008B9
:1089700083F800803B7803F0FF06002B40F08580F1
:10898000764B77491A7872480EF0A6FE704905A812
:1089900012F018F905AA3146012004F0C5F805A81F
:1089A00012F0CAF85F4811F041FE6E49024668486D
:1089B0000EF092FE664905A812F004F905AA3146A8
:1089C000022004F0B1F805A812F0B6F8664B67492A
:1089D0001A785F480EF080FE5D4905A812F0F2F8A3
:1089E00005AA4021022004F09FF805A812F0A4F87F
:1089F00022685F4956480EF06FFE554905A812F0EF
:108A0000E1F805AA3146032004F08EF805A812F01B
:108A100093F8D9F8002057494D480EF05DFE4C49B7
:108A200005A812F0CFF805AA4021032004F07CF835
:108A300005A812F081F8504B50491A88444812B2E8
:108A40000EF04AFE424905A812F0BCF805AA3146CC
:108A5000042004F069F805A812F06EF8484B494963
:108A60001A783B4852B20EF037FE394905A812F089
:108A7000A9F805AA4021042004F056F805A812F030
:108A80005BF8A9E004F04EFE11E72268384930484F
:108A90000EF022FE2E4905A812F094F805AA4146D0
:108AA000012004F041F805A812F046F8D9F800209A
:108AB000304927480EF010FE254905A812F082F82B
:108AC00005AA4021012004F02FF805A812F034F87F
:108AD0003A782D491E480EF0FFFD1D4905A812F0F9
:108AE00071F805AA4146022004F01EF805A812F00C
:108AF00023F83B78013B0F2B00F2A480DFE803F062
:108B0000468486888A8C8E90929496989A9C9EA091
:108B100011E30020B0D50020DCD90020D4D90020FA
:108B2000A4A1002058E3002030D7002034D7002033
:108B3000C4D60020AFD5002000D7002004A3002019
:108B4000C8D60020C11E0700581B0700D21E070010
:108B5000B5D50020AED50020B7D60020B5D6002070
:108B6000CC1D0700E01D0700B6D60020E91D070058
:108B7000F21D0700FA1D0700B2D50020021E0700F3
:108B8000B4D500200D1E0700171E0700714972485A
:108B90000EF0D9FD704905A812F014F805AA0021BD
:108BA000032003F0C1FF05A811F0C6FF6B4811F0C8
:108BB0003DFD6B49024668480EF08EFD664905A8EA
:108BC00012F000F805AA0021042003F0ADFF05A86B
:108BD00011F0B2FF03F0C2FF6B7A032B48D1614B57
:108BE0001868246848F090FA009402460B465A48E8
:108BF0005D490EF071FD584905A811F0E3FF05AA83
:108C000000210520FEF7ABBF5849C0E75849BEE731
:108C10005849BCE75849BAE75849B8E75849B6E750
:108C20005849B4E75849B2E75849B0E75849AEE760
:108C30005849ACE75849AAE75849A8E75849A6E770
:108C40005849A4E75849A2E7584905A811F0BAFFC6
:108C500005AA3146022003F067FF05A811F06CFF5A
:108C6000534905A811F0AEFF05AA3146032003E7DA
:108C7000504B51491A68384823680EF02DFDBAE769
:108C800004F0E2FB4D4B5C7A3CB1012C2AD04C4BFA
:108C900000221A700FB0BDE8F08F03F029FF494899
:108CA000012103F0C5FD484905A811F08BFF05AA75
:108CB0002146204603F038FF05A811F03DFF434947
:108CC00025480EF040FD244905A811F07BFF05AAB8
:108CD0002146032003F028FF05A811F02DFF03F023
:108CE0003DFFD4E73A4B1B78002BD0D0394B1D7891
:108CF000002DCCD103F0FCFE3248214603F098FD54
:108D0000354905A811F05EFF05AA2946284603F05B
:108D10000BFF05A811F010FF2C490F480EF013FDB2
:108D20000D4905A811F04EFF05AA2946D1E7284BA9
:108D30001B78002BAED0274B1C78002CAAD103F057
:108D4000D7FE264905A811F03DFF05AA2146204679
:108D5000FEF705BF8B1C0700B5D5002058E30020A7
:108D60002C1E0700CCD60020951E0700991C07007A
:108D7000A41C0700B01C0700BC1C0700C61C070091
:108D8000D01C0700DC1C0700F01C0700031D0700B7
:108D9000131D0700201D07002A1D07003A1D0700AC
:108DA000481D0700541D0700651D0700E71E07004A
:108DB000FB1E0700C4D60020AD1E070004A3002040
:108DC000D1D60020CA1B0700731D07000F1F070024
:108DD000AFD5002000D700200D1C07001B1F070087
:108DE00010B5044605F07CFA204610BD0F4BB0B11B
:108DF00000221A700E4B0F4A18600F4B11685B7AF5
:108E0000023B012B01F101010C4B116094BF0722C1
:108E100002221A700A48FA22012111F07ABD1B7849
:108E200013B1064B0822F4E7704700BFD1D60020EB
:108E3000D4D60020C4D6002004A3002080D5002072
:108E400011E30020174B00221A70174B90F90620EF
:108E50001A70164BB0F904201A80154A0378137063
:108E6000144A41781170144A81781170134A012113
:108E700011701BB1124A13680B441360114B124856
:108E80005B7A023B012B114B95BF072204221A701B
:108E90001A7099BF42F210720421FA22012111F0D6
:108EA00038BD00BFD1D60020B4D50020B2D50020F7
:108EB000B7D60020B5D60020B6D60020AED500200B
:108EC000C4D6002004A3002011E3002080D5002098
:108ED00038B5164BB0F90A201A80154B90F90C20C2
:108EE0001A70144B42781A7003780446EBB1124B97
:108EF0005B7A023B012B15D81048042111F013FDB9
:108F00002378023B012B0DD80D4D227A61680D4864
:108F100006232B700DF072FE08482B46FA22012121
:108F200011F0F7FC084B00221A7038BDB2D50020B2
:108F3000B4D50020B1D5002004A3002011E3002007
:108F400080D5002082D50020D1D6002030B54FF04A
:108F500080432DED028BD3F83834032B83B027D018
:108F60001448144D11F0A0FC0A24B0EE408A2846A3
:108F700011F09AFC013C38EE008AF8D1B2EE067A84
:108F8000C8EE077A9FED0C7ADFED0C6A67EE877A00
:108F90009FED0B7A67EE877A87EEA67AFCEEC77AAA
:108FA000CDED017A9DF8040003B0BDEC028B30BD1D
:108FB0000020F9E70DE3002000007A4400408345DB
:108FC00000007F4308B5064B1B783BB112F03FF819
:108FD000BDE8084001460348FEF7A6B908BD00BF3A
:108FE00001D70020B8D600201F4B07B501221F482B
:108FF0001A7011F030FA18B11D48002111F0F5F97E
:109000001C4811F079FB1C491C4811F087FA1C49D7
:109010001A4811F093FA1B49184811F087FA1A49B7
:10902000164811F093FA1949144811F097FA0021E3
:10903000174811F0D1FA0221164811F03BFB3223F8
:109040000122009311460A230C4811F026FA124B14
:10905000D97A01B10121222011F0EDFF0F4B02223C
:109060001A7003B05DF804FBA2A1002084E3002085
:109070006EE300206DE30020D18E020049E3002062
:10908000ED8D0200B5730200458E02008D73020063
:1090900051E300206BE3002004A3002094A10020F2
:1090A00008B50F4B0F480021197011F09EF90E48BA
:1090B00011F0D5F90D490B4811F0DEF90C490948BA
:1090C00011F0E2F94FF6FD71064811F08EF9094BE7
:1090D000D97A01B10121BDE80840222011F0ABBFCF
:1090E000A2A100206EE3002084E3002005740200AA
:1090F000E173020004A300201F4B07B501221F48A3
:109100001A7011F0A8F918B11D48002111F06DF97D
:109110001C4811F0F1FA1C491C4811F0FFF91C49D8
:109120001A4811F00BFA1B49184811F0FFF91A49B7
:10913000164811F00BFA1949144811F00FFA0021E2
:10914000174811F049FA0221164811F0B3FA3223F8
:10915000012200930D480A23114611F09EF9124B8B
:10916000DB7A1BB10121222011F065FF0F4B012298
:109170001A7003B05DF804FBA2A1002084E3002074
:109180006EE300206DE30020D18E020049E3002051
:10919000ED8D0200B5730200458E02008D73020052
:1091A00051E300206BE3002004A3002094A10020E1
:1091B00010B50B4C00212046FEF77CF82046094CE8
:1091C000094A0A490DF0ACFCFF21204605F07CF865
:1091D0002046054A0649BDE810400DF0A1BC00BF7D
:1091E000B8D60020A4D5002090A10020BF720200B4
:1091F000E18D02002DE9F04F012187B0222011F00E
:1092000003FF0121232011F0FFFE0121242011F092
:10921000FBFEAF48AF4E11F07FFD03F0D5FA307082
:1092200068B1AD49AD480EF08EFAAC48012103F0AB
:10923000FFFAAB4803F0FEFBAA4803F0FBFB00215A
:10924000222011F0F8FE0223A74806224FF4E13154
:1092500011F010F84FF08043D3F83834032B73D15A
:109260004FF4FA601BF0D2FC0823022203AC9F49A2
:1092700000939A489E4D9F4F00230EF02DFA974978
:10928000204611F09FFC21469B4811F0E1FA204650
:1092900011F052FC0121232011F0CDFE00212320EA
:1092A00011F0C9FE0021242011F0C5FE02F090FA51
:1092B00002F0BAFA02F0A2FA02F0F0F902F004FAAF
:1092C00002F018FA02F0C6FA02F056FA02F026FD91
:1092D00000F03EFA002000F05DF96B7A023B012BB2
:1092E0005AD8012002F0D8FD38703B7813B183487A
:1092F00003F0A0FB04F0FCF8814F387060B104F07B
:10930000EDF994E803002AF032F802F01FFA3B78F6
:1093100013B17C4803F08EFB04F05EFA7A4F38708C
:1093200048B104F073FB387002F0FAF93B7813B1DE
:10933000764803F07FFB02F035FA6B7A032B2FD8C7
:10934000DFE803F052AEB7C411F081FEDFF898A158
:1093500007464FF0000B41F287384FF000095046A6
:1093600010F06DFF00287FF47FAF11F070FEC41B7A
:109370006BEB4B05A04579EB0503FFF675AF642059
:109380001BF044FC232011F05BFEB0FA80F1490988
:10939000232011F050FEE2E7E87A0028A1D1A1E7EE
:1093A00033780BB35A494D480EF0CDF94B4920465E
:1093B00011F008FC00212246084603F0B5FB2046C8
:1093C00011F0BAFB534945480EF0BDF94349204618
:1093D00011F0F8FB22460021012003F0A5FB2046F6
:1093E00011F0AAFB03F0BAFB4B4803F023FB4B48F8
:1093F00011F008F910B94A4803F01CFBFFF7F4FD1F
:109400004FF47A7347496A683448B2FBF3F20EF0BE
:1094100063F9324803F00EFB434A4448012300211C
:1094200011F06DFA6A6822B100234048194611F024
:1094300070FA3F4A3D480023012111F060FA0023F1
:109440003C4A3A48022111F05AFAAB7A33B1374814
:1094500000234EF66022022111F05BFA364A3348AF
:109460000123032111F04BFA0023344A2F48042131
:1094700011F045FA324B1B785BB1284811F0C2F865
:1094800038B93223012200932E480A23114611F0E5
:1094900004F801212C4811F0AEFD07B0BDE8F08FB3
:1094A000FFF7FEFD294803F0C5FA294803F0C2FA88
:1094B000A6E7284803F0BEFA184811F0A3F810B93F
:1094C000174803F0B7FAFFF717FE99E72248F1E7CC
:1094D0008CE30020AFD50020CA1B0700B5D50020C3
:1094E000291F0700361F070030E200205C27070015
:1094F00004A30020ADD50020B8E20020421F0700E1
:10950000DCD900204A1F0700B0D50020511F0700FA
:109510005C1F07006E1F0700731D070054E3002047
:109520007E1F0700A71D07005574020011E30020ED
:1095300059780200B1CB0200A5C302009D7302005E
:10954000A2A1002049E30020A9E20020121C07008C
:109550008C1F0700821D0700931D07007047000045
:1095600008B5054805F02AF8034805F046F8BDE8B7
:109570000840014805F060B8D8D6002007B5312270
:109580000DF10701024805F061F803B05DF804FB36
:10959000D8D6002073B500210446112011F034FD07
:1095A000524811F0B9FB524B002C00F0848000228D
:1095B0009A800A22DA804FF481721A8140F20112F5
:1095C0005A814B4805F0D2F80546002840F08B80C0
:1095D000002C38D02A22302145488DF8072001265A
:1095E00004F0DEFE0822322141488DF8072004F005
:1095F000D7FE324633213E488DF8076004F0D0FE96
:1096000024220DF107013A4805F020F89DF80720C3
:10961000374822F00C0242F0080224218DF807207E
:1096200004F0BEFE6022222131488DF8072004F0AC
:10963000B7FE2A4625212E4804F0B2FE2C483246B9
:10964000212104F0ADFE002520220DF1070128485C
:109650008DF8075004F0FAFF9DF80720244842F0E7
:10966000080220218DF8072004F09AFE64201BF0E8
:10967000CDFA1E220DF107011D488DF8075004F0A8
:10968000E5FF9DF807201A4842F090021E218DF850
:10969000072004F085FE64201BF0B8FA8CB1FFF7B8
:1096A0006DFF14490422112010F0A8FDFFF758FFA8
:1096B000204602B070BD02229C80DC801A815C8151
:1096C0007FE720220DF10701094804F0BFFF9DF854
:1096D0000720074802F0400220218DF807200124CE
:1096E00004F05EFEE4E70024E2E700BF8CE3002024
:1096F000D8D600205D95020002481822002104F00F
:1097000009BE00BFD8D60020D0B511F0A0FC0D4C8A
:109710000D4B0021C3E9000111F099FCD4E900329E
:10972000C61A62EB4207C92E77F1000309DB11F07C
:109730008EFC064A20600023636013780133DBB29D
:109740001370D0BDF0D60020F8D6002001D700203D
:1097500008B50221092011F057FC0649032209200F
:1097600010F04CFD0449054801236422FDF7BAFDC1
:10977000012008BD09970200659D0200B8D60020AF
:109780002DE9F04FC74D91B011F061FCD5E90023F0
:109790000024811A64EB030300910193DDE90023A7
:1097A00040F6B8300021904271EB0303A346A24675
:1097B000A146A0462746264677DB11F048FCD5E9AE
:1097C0000023811A63EB430302910393DDE9022333
:1097D000B2F5C87F73F1000373DA11F038FCD5E9F4
:1097E0000023811A63EB430304910593DDE90434FC
:1097F000B3F5C87F74F1000380F2858011F027FC77
:10980000D5E90023811A63EB430306910793DDE951
:109810000634B3F5167F74F1000380F2998011F0DD
:1098200016FCD5E90023811A63EB430308910993E1
:10983000DDE90834B3F5487F74F1000380F2AE80AF
:1098400011F005FCD5E90023811A63EB43030A916B
:109850000B93DDE90A34B3F5966F74F1000380F2DF
:10986000C08011F0F4FBD5E90023811A63EB4303B8
:109870000C910D93DDE90C34B3F5AF6F74F1000377
:1098800080F2D28011F0E3FBD5E90023811A63EB6B
:1098900043030E910F93DDE90E34B3F5C86F74F1F5
:1098A000000380F2E280082474E0092011F0C8FB74
:1098B000002882D17C4B1B78002B3FF47EAF022422
:1098C00068E0794B1B78012B87D1092011F0B8FB98
:1098D000012882D10023C82C10D00920009311F058
:1098E000AFFB009B012804BF0133DBB20120013430
:1098F0000093E4B21BF08AF9009BECE7C62B7FF6DD
:109900006CAF002446E0684B1B78022B7FF476AFE7
:10991000092011F095FB01287FF470AF0024BBF102
:10992000C80F10D0092011F08BFB012808BF0134AB
:109930004FF001000BF1010B08BFE4B25FFA8BFBA3
:109940001BF064F9EBE7C62C7FF658AF012421E049
:10995000554B1B78032BDCB27FF461AF4FF0000B4B
:10996000BAF1C80F12D0092011F06AFB012808BF14
:109970000BF1010B4FF001000AF1010A08BF5FFA79
:109980008BFB5FFA8AFA1BF041F9E9E7BBF1C60FDE
:109990007FF645AF204611B0BDE8F08F424B1B78F3
:1099A000042BDCB27FF44CAF4FF0000AB9F1C80FC2
:1099B00012D0092011F044FB012808BF0AF1010A66
:1099C0004FF0010009F1010908BF5FFA8AFA5FFA56
:1099D00089F91BF01BF9E9E7BAF1C60F7FF630AF42
:1099E000D8E7314B1B78052BDCB27FF43AAF4FF050
:1099F0000009B8F1C80F12D0092011F021FB01288D
:109A000008BF09F101094FF0010008F1010808BF82
:109A10005FFA89F95FFA88F81BF0F8F8E9E7B9F11D
:109A2000C60F7FF61EAFB5E71F4B1B78062BDCB2C7
:109A30007FF428AF4FF00008C82F11D0092011F093
:109A4000FFFA012808BF08F101084FF0010007F1F3
:109A5000010708BF5FFA88F8FFB21BF0D7F8EBE701
:109A6000B8F1C60F7FF60EAF94E70F4B1B78072BAC
:109A7000DCB27FF418AF0025C82E0FD0092011F0FA
:109A8000DFFA012808BF01354FF0010006F1010699
:109A900008BFEDB2F6B21BF0B9F8EDE7C62D7FF6C0
:109AA00002AF77E7F8D6002001D7002073B58A4DC2
:109AB0008A4C6A7A637A9A4230D003F019F800210E
:109AC000874802F0B5FE6B6863606B7A8548637205
:109AD0006B89638102F0AEFF834802F0ABFF03F0B5
:109AE0003DF801F0DDFE40F6B8301BF08FF8637AE8
:109AF0007E48012B4FF000014FF0320678D110F074
:109B000074FC00227A4800960A23114610F0C5FC26
:109B1000784810F0A4FC784810F0C4FEEA7AE37AA2
:109B20009A4207D06B7A023B012B94BF01200020A0
:109B300002F0B2F96A6863689A4203D16A8963895C
:109B40009A4213D002F0D4FF664802F073FF6648D1
:109B500002F070FF03F002F86B6863606B89638149
:109B600001F09EFE40F6B8301BF050F8634810F04C
:109B7000BFFD002849D0624810F046FD614B1978BE
:109B8000884205D000395E4818BF012110F03EFD23
:109B90005D4810F04BFD5D4B1978884202D05A4861
:109BA00010F046FD5A4810F053FD5A4B1978884280
:109BB00002D0574810F04EFD574D58482E7810F0FF
:109BC00059FD86420BD02978544810F05FFD3223AE
:109BD0000122009346480A23114610F05EFC02F071
:109BE00087FF637A032B50D8DFE803F04C6E707266
:109BF00010F0FBFB012200960A2311463C4810F0AE
:109C00004CFC3E4810F078FD85E7454D45482968F5
:109C100010F0A5FB434810F0A0FB2968884202D051
:109C2000404810F09CFB404810F0A8FB3F4B1978CF
:109C3000884202D03C4810F0A3FB3D4D3D482E78B1
:109C400010F0ADFB864203D029783A4810F0A9FB0A
:109C5000394810F0B5FB394B1978884202D03648A4
:109C600010F0B0FB364810F0BEFB364B1978884236
:109C700002D0334810F0C8FB4FF6FD711B4810F0BE
:109C8000B4FBACE7304802F0D5FE4FF47A7362685B
:109C90002E49B2FBF3F22E480DF01EFD2C4802F0C7
:109CA000C9FE626822B100232A48194610F031FE2D
:109CB000A37A7BB1274800234EF66022022102B02E
:109CC000BDE8704010F025BE2348DCE72348DAE702
:109CD0002348D8E702B070BDD0A1002004A3002023
:109CE0009A1F0700A11F0700B11F07006EE30020A5
:109CF00049E3002084E30020A8E200206DE3002077
:109D000055E3002003D7002058E3002005D70020AA
:109D100060E3002006D7002004D700206AE300207B
:109D200010D7002079E300207AE3002014D7002028
:109D30000BD700207BE300207CE300200CD7002021
:109D40007EE3002015D70020731D0700A71D070024
:109D5000B5D5002011E30020121C0700821D07006A
:109D6000931D07002DE9F04F87B0FFF709FD072885
:109D700000F2CC81DFE810F0BC044A030800CD01FA
:109D8000B00053002D001A00914B00201870914B29
:109D900000240025C3E900458F4B1B7823B107B091
:109DA000BDE8F04F02F0E2BE0120F8E7884B002248
:109DB0001A70884B00200021C3E90001874B1C78F2
:109DC0003CB902F095FE8648214602F031FD1AF0BA
:109DD00034FF7F4B00221A707E4B00200021C3E924
:109DE00000017E4B1C7874B17E4B1A78052A40F036
:109DF0008D8110221A707C4BD97A01919B7A009345
:109E00007A4B1B785BE002F073FE7948214602F042
:109E10000FFD784807B0BDE8F04F10F043BD6C4B24
:109E200000221A706B4B00200021C3E900016B4B2C
:109E30001B78002B00F06A816A4C2378052B00F216
:109E40006581DFE813F00600630163012200300042
:109E50004000694810F04CFC0128634B0AD10422F1
:109E60002270D97A01919B7A6449009309786448F9
:109E7000FF2315E005222270D97A01919B7A61496E
:109E8000009309786048FF230AE0574B0322D97AF0
:109E90005A7201919B7A009305235C495C480978CA
:109EA00002F08AFE32E107235A48237010F0E2FBE9
:109EB0004D4AD37A0193937A0093C3B222785649DC
:109EC00056480978ECE7484B0E22D97A2270019166
:109ED0009B7A0093524B94E73D4B00221A703D4B06
:109EE00000200021C3E900013C4B1B78002B00F04F
:109EF000A5803C4C2378062B00F20881DFE813F0A4
:109F000007001F03120020002A0057006000364996
:109F100003224B7AC87A22700190897A0091023329
:109F2000DBB2BAE7304A937A83F001039372D27AB4
:109F3000019200930222FF233A493B480978AFE798
:109F4000294B02225A72DA7A01929B7A00930423F7
:109F50000322A2E70A232F48237010F08BFBC0B224
:109F60000C280ED8DFE800F00717171D171D1D1766
:109F7000171717171D002D4B00221A702C4B0522A6
:109F80001A70194A2B4BD17A1B780191927A009260
:109F90000A33DBB292E7254B00221A70244B0722CA
:109FA000EEE7224B00221A70214B0A22E8E70E4B03
:109FB0000D22D97A227001919B7A00931E4B20E7E3
:109FC000094BDA7A01929B7A009300233AE100BFB1
:109FD00001D70020F8D600204CA5002000D7002093
:109FE000C21F070002D70020D0A1002015D70020F3
:109FF000CD1F0700A8E200206DE30020B8A20020DA
:10A00000A4A20020E8A20020D0A2002078A2002074
:10A0100064A200206AE30020CCA10020C8A1002097
:10A020000CD70020CCA20020BCA200200AD7002020
:10A0300008D7002005D700200BD700209E4810F03D
:10A0400057FB012862D19D4D6A7A012A5ED09C4E51
:10A050003278002A5AD19B4C9B4B20701B78049479
:10A060000BB902F083FD00219848DFF86CB210F0C4
:10A070005AFC974810F0FEFA964B53F82030964859
:10A08000039310F0D3FA4FF0000A0746039B33F80E
:10A090001A2042B35FFA8AF1584610F0C9FA6420D8
:10A0A0001AF0B4FD0020FDF7D5F910F0D0FF0246FC
:10A0B0003078059298B14FF47A701AF0A7FD10F03D
:10A0C000C6FF059A42F21073B0EB02084FF0000190
:10A0D00061EB01090024434574EB0903E8DA4FF40E
:10A0E000FA601AF093FD0AF1010ABAF1100FCDD10E
:10A0F0007948394610F09CFA6A6822B10023734807
:10A10000194610F006FC049A0023137007B0BDE84E
:10A11000F08F724B00221A70714B00240025C3E9A6
:10A120000045704B1B78002B00F041816E4C22786B
:10A13000102AEBD801A353F822F000BF81A102003E
:10A140003FA5020093A10200A3A10200B5A1020055
:10A1500011A2020023A2020049A202000DA10200E6
:10A1600067A202008DA2020011A3020035A3020023
:10A1700055A3020073A302000DA102008FA30200E9
:10A1800002222270594BD97A01919B7A0093FF23C6
:10A19000D2E6564AD37A83F00103D3720193937ABD
:10A1A000C7E6524B01225A72DA7A01929B7A0093E7
:10A1B0000323CDE609234648237010F05BFAC0B2B2
:10A1C0000C2814D8DFE800F007070707070D1B0766
:10A1D000212121211B00464B00221A70454B0522EC
:10A1E00004E0434B00221A70424B04221A703F4B8A
:10A1F000DA7A01929B7A00933F4B1B785EE63C4BE8
:10A2000000221A703B4B0622F0E7394B0222E4E7AA
:10A21000364B0C22D97A227001919B7A0093374BEE
:10A22000EFE5324B5A6842B142F20F718A428ABF5F
:10A23000A2F51C520022103A5A60DA7A01929B7AF7
:10A240000093FF2306223AE62D4A137813B1013B0F
:10A25000DBB200E00C231370244AD17A0191927A88
:10A26000009207222BE6244A214913780978994263
:10A2700009D1204B1B7813701C4AD17A0191927A34
:10A28000009209221BE6013BDBB2F4E71D4A1E499E
:10A290001378097899420BBF1C4B03F1FF331B78ED
:10A2A000DBB21370114BDA7A01929B7A0093124B56
:10A2B0001B780A2203E600BF6DE3002004A3002000
:10A2C000D1D6002081D500204CA5002011E300202C
:10A2D0006AE30020FCA4002058E3002001D70020FE
:10A2E000F8D6002000D7002002D70020D0A10020FF
:10A2F00009D7002007D7002005D7002014D7002059
:10A3000004D7002006D700200AD7002008D7002055
:10A31000A04AA1491368A3F5C333A03B8B4298BF61
:10A320009E4B13609E4BDA7A01929B7A00930B222C
:10A33000FF23C4E59B490B78062B1CBF03F1FF33B9
:10A34000DAB2974B0A70D97A01919B7A009313463F
:10A350000C22B4E5944A137813B1013BDBB200E060
:10A36000092313708E4AD17A0191927A00920D22BC
:10A37000A5E58E4A117809B1481EC0B21070884A0E
:10A38000D37A0193937A009303460E2297E5884A85
:10A390001378052B02D0013BDBB200E016231370CB
:10A3A0007F4AD17A0191927A0092102287E5814802
:10A3B00010F09EF9804B01281B781ED1002B7FF4F2
:10A3C000A5AE7E4B1B780BB902F0D0FB00217C4878
:10A3D00010F0A9FA7B4B012200201A70FDF73AF821
:10A3E000794B5A68002A3FF491AE0023744819460D
:10A3F00007B0BDE8F04F10F08CBA002B7FF486AEAA
:10A400006E4B1B78002BE1D10120DDE76F4B704DC7
:10A41000704C00221A70704B00210020C3E900012B
:10A420002978002959D1664810F07DFA0121644845
:10A4300010F079FA6248022110F075FA5F4B1B7830
:10A4400013B9012002F092FB01235F4A2B70002315
:10A450002370534B51685960517A528955485A813B
:10A46000597210F045F90146D8B15C4810F0DEF899
:10A470005B4B18705B4810F0FDF85B4B18705B4845
:10A4800010F0C2F85A4B18705A4810F0E1F85A4BC5
:10A4900018700023CDE900332278584958480978CC
:10A4A000FEE458480FF0A1FF57480FF056FF394B14
:10A4B000186056480FF062FF3A4B187054480FF07E
:10A4C0006EFF394B187053480FF07AFF374B1870F6
:10A4D00051480FF088FF364BDAE72378102B3FF610
:10A4E00015AE01A252F823F02DA502003FA50200EF
:10A4F00051A5020055A5020067A502007FA5020034
:10A50000DDA6020083A502001DA6020039A60200F6
:10A510004DA602006FA6020085A60200A1A60200B9
:10A52000B1A602000DA10200CDA6020001221C4B23
:10A530002270D97A01919B7A0093FF23BFE4002215
:10A540002270174BD97A01919B7A0093FF23A4E7DD
:10A550000622ECE7124B00225A72DA7A01929B7AB9
:10A5600000930223F4E40E49214BC87A1B78082299
:10A5700022700190897A00910A33DBB29FE40B22AA
:10A58000D5E7194A13780C2B01D0013360E600237C
:10A5900061E600BF10D700207F47A1198047A119AD
:10A5A000D0A1002014D700200BD700200CD700200A
:10A5B00015D700206DE30020D1D600204CA5002047
:10A5C00011E30020A2D5002004A3002001D7002021
:10A5D00000D7002002D70020F8D6002058E3002042
:10A5E00005D700206AE3002004D7002055E30020AF
:10A5F00003D7002060E3002006D7002000A300203E
:10A60000ECA200206EE3002079E300207AE3002032
:10A610007BE300207CE300207EE300205C4A13788B
:10A62000B3FA83F35B0913705A4AD17A0191927A93
:10A6300000920A33082242E4574A584913780978AD
:10A64000994201D1564B15E601331DE6554A56494C
:10A650001378097899420BBF544B01331B78DBB256
:10A6600013704C4AD17A0191927A009221E6504AB5
:10A670005049136803F5C333A0338B4294BF136072
:10A6800011604FE64C4A13780C2B1ABF0133DBB232
:10A69000062313703F4AD17A0191927A009257E6CD
:10A6A000464A1378092B01D0013357E6002358E6B8
:10A6B000434A1378032B1ABF0133DBB20023137014
:10A6C000344AD17A0191927A00925EE63D4A13783B
:10A6D000162B01D001335FE6052360E62D4A53684F
:10A6E00003F51C5310335360D37A0193937A6BE4D0
:10A6F000354B00221A70354B354A00210020C3E942
:10A700000001117800293FF401AD324B197810296E
:10A710003FF6FCAC01A050F821F000BF61A7020099
:10A720006FA702006FA702006FA702006FA70200C9
:10A730006FA7020089A7020075A7020075A7020093
:10A7400075A7020075A702007FA702007FA702007D
:10A750007FA702007FA702000DA102007FA70200D1
:10A760000023137007B0BDE8F04FFFF79FB9002238
:10A770001A70E6E604221A70064BFFF772BB052238
:10A780001A70044BFFF778BB02221A70FAE400BF7C
:10A7900003D70020D0A1002005D7002007D7002034
:10A7A00009D7002006D7002008D700200AD70020AC
:10A7B00010D700200070383914D700200BD70020A4
:10A7C0000CD7002015D7002001D70020F8D6002094
:10A7D00000D7002002D70020024B01221A70092066
:10A7E000704700BF17D70020536E012B2DE9F041B1
:10A7F0000E4615462DD1304910680CF09AFF0446DC
:10A8000058BBDFF8D0802D4F98F800302C4D2D49E3
:10A810002D48002B14BF3B462B46324610F058FB08
:10A820002A49294810F054FB98F800302549284857
:10A83000002B14BF3B462B46324610F049FB234900
:10A84000234810F045FB64201AF0E0F92046BDE8EB
:10A85000F081002B01DC0224F8E700222868114671
:10A860000DF0E6F810F0FF0418D11A4B1A4D1B48F2
:10A870001C70214610F057F86A6822B11748234629
:10A88000214610F046F86B7A012B01D00024DDE759
:10A890004FF6FD7112480FF0A8FDF7E7012CDAD151
:10A8A0000C4B0E481C70002110F03DF80A4B5B7AEF
:10A8B000012BEBD10021EDE76E8207002F2007006E
:10A8C000362007003F20070030E20020E862070042
:10A8D00094E2002016D7002004A3002011E30020FA
:10A8E0006EE3002070B598B014460A490EA810F027
:10A8F00069F90023CDE91433CDE91633636E012BDA
:10A900000CD1054920680CF014FF48B1022400F076
:10A91000EDBC00BFEA6207006E820700002BF5D194
:10A92000B649B748B74CB84DB84E10F0D1FAB8494F
:10A93000B34810F0CDFAB149B64810F0C9FAB4499D
:10A94000B44810F0C5FA64201AF060F9637AB2498D
:10A9500055F82320AA4810F0BBFAAD49A84810F0DA
:10A96000B7FA637AAC4955F82320AA4810F0B0FA38
:10A97000A749A84810F0ACFA64201AF047F9A74993
:10A9800011A80FF06FFF11A90EA810F02EF911A851
:10A9900010F0D2F80EA810F06BF90E9AA049984862
:10A9A00010F096FA9A49964810F092FA0E9A9C493D
:10A9B000984810F08DFA9649964810F089FA64206C
:10A9C0001AF024F9974911A80FF02CFF119A964913
:10A9D0008B4810F07DFA11A810F0AEF88C49884829
:10A9E00010F076FA8F4911A80FF01CFF119A8E49CA
:10A9F000884810F06DFA11A810F09EF88449854837
:10AA000010F066FA64201AF001F94FF47A75626862
:10AA10008649B2FBF5F27A4810F05AFA7C49784838
:10AA200010F056FA62688149B2FBF5F2794810F0ED
:10AA30004FFA7749774810F04BFA64201AF0E6F89D
:10AA40007B480FF055FE7B4956F8202005466C48A0
:10AA500010F03EFA6E496A4810F03AFA56F825208E
:10AA600074496C4810F034FA69496A4810F030FAB9
:10AA700064201AF0CBF8012D40F04E836E486F4EE3
:10AA80006F4D0FF0BFFD6F49002814BF32462A46B4
:10AA90005B4810F01DFA5E49594810F019FA6648F3
:10AAA0000FF0B0FD6749002814BF32462A465948C6
:10AAB000654E10F00DFA5649564810F009FA642018
:10AAC0001AF0A4F861480FF0D5FD61490546024629
:10AAD0004B4810F0FDF94E49494810F0F9F92A4663
:10AAE0005B494C4810F0F4F949494A4810F0F0F934
:10AAF00064201AF08BF856F825205649404810F08B
:10AB0000E7F943493E4810F0E3F956F8252051494A
:10AB1000404810F0DDF93E493E4810F0D9F9642074
:10AB20001AF074F84C480FF066FD002800F0BE8162
:10AB30004A49334810F0CCF93549314810F0C8F98A
:10AB40004649344810F0C4F93149324810F0C0F990
:10AB500064201AF05BF8082214A941480FF02AFD7E
:10AB60009DF8573005939DF8563004939DF8553065
:10AB700003939DF8543002939DF8533001939DF850
:10AB800052309DF85020374900931D489DF85130B0
:10AB900010F09EF91E491A4810F09AF99DF85730A6
:10ABA00005939DF8563004939DF8553003939DF816
:10ABB000543002939DF8533001939DF852309DF824
:10ABC00050202849009313489DF8513010F080F927
:10ABD0000F49104810F07CF964201AF017F8082289
:10ABE00014A921480FF0C2FC9DF8573005939DF839
:10ABF000563004939DF8553038E000BF53200700CD
:10AC000030E2002004A3002070A40020CCA3002088
:10AC1000E862070094E2002062200700E8E20020DA
:10AC200070200700ACE20020795007007B2007006D
:10AC30006DE300208B20070054E30020DD5F070058
:10AC4000452007009B20070098A300206AE300200E
:10AC5000A6200700B120070053E30020BC20070016
:10AC60004EE30020C62007004AE3002003939DF82E
:10AC7000543002939DF8533001939DF852309DF863
:10AC800050207D4900937D489DF8513010F020F907
:10AC90007B497A4810F01CF99DF8573005939DF8D0
:10ACA000563004939DF8553003939DF85430029329
:10ACB0009DF8533001939DF852309DF850206E4915
:10ACC000009370489DF8513010F002F96C496D48BE
:10ACD00010F0FEF8642019F099FF102214A96A48B8
:10ACE0000FF04DFC9DF85F300D939DF85E300C9396
:10ACF0009DF85D300B939DF85C300A939DF85B30B6
:10AD000009939DF85A3008939DF8593007939DF8A0
:10AD1000583006939DF8573005939DF856300493AC
:10AD20009DF8553003939DF8543002939DF85330AD
:10AD300001939DF852309DF85020544900934F489C
:10AD40009DF8513010F0C4F84D494C4810F0C0F84F
:10AD50009DF85F300D939DF85E300C939DF85D304B
:10AD60000B939DF85C300A939DF85B3009939DF836
:10AD70005A3008939DF8593007939DF85830069340
:10AD80009DF8573005939DF8563004939DF8553043
:10AD900003939DF8543002939DF8533001939DF82E
:10ADA000523000939DF850209DF851303749354876
:10ADB00010F08EF832493348354E364D10F088F891
:10ADC000642019F023FF34492C4810F081F82C49F5
:10ADD0002A4810F07DF830492A4810F079F82849BF
:10ADE000284810F075F8642019F010FF627A2B499A
:10ADF000224810F06DF82249204810F069F8627A74
:10AE00002649204810F064F81D491E4810F060F8EB
:10AE1000642019F0FBFEA27A21491848002A14BFC9
:10AE200032462A4610F054F81549144810F050F8EC
:10AE3000A27A1B491348002A14BF32462A4610F052
:10AE400047F80F490F48174E10F042F8642019F0E8
:10AE5000DDFE15481AF0F2F90025B4F88E20EBB2A9
:10AE6000934205F1010580F23D8223443046197B6F
:10AE70001AF0E4F9F1E700BFEE20070030E200200D
:10AE8000E862070094E200204BE30020162107004F
:10AE900050200700BE1F0700772207008722070007
:10AEA0009522070023A40700A62207009049914895
:10AEB00010F00EF890498F4810F00AF88C498F482E
:10AEC00010F006F88C498D4810F002F8642019F053
:10AED0009DFE14A910228A480FF05AFB9DF85F309E
:10AEE0000D939DF85E300C939DF85D300B939DF8AB
:10AEF0005C300A939DF85B3009939DF85A300893B3
:10AF00009DF8593007939DF8583006939DF85730B7
:10AF100005939DF8563004939DF8553003939DF8A2
:10AF2000543002939DF8533001939DF852309DF8B0
:10AF30005020009373499DF851306E480FF0C8FFC0
:10AF40006D496C480FF0C4FF9DF85F300D939DF87C
:10AF50005E300C939DF85D300B939DF85C300A9346
:10AF60009DF85B3009939DF85A3008939DF859304D
:10AF700007939DF8583006939DF8573005939DF838
:10AF8000563004939DF8553003939DF85430029346
:10AF90009DF8533001939DF852309DF85020009356
:10AFA00058499DF8513055480FF092FF5249534887
:10AFB0000FF08EFF642019F029FE14A910225248C8
:10AFC0000FF001FB9DF85F300D939DF85E300C9300
:10AFD0009DF85D300B939DF85C300A939DF85B30D3
:10AFE00009939DF85A3008939DF8593007939DF8BE
:10AFF000583006939DF8573005939DF856300493CA
:10B000009DF8553003939DF8543002939DF85330CA
:10B0100001939DF852309DF8502000933B499DF8D4
:10B02000513034480FF054FF334932480FF050FF8D
:10B030009DF85F300D939DF85E300C939DF85D3068
:10B040000B939DF85C300A939DF85B3009939DF853
:10B050005A3008939DF8593007939DF8583006935D
:10B060009DF8573005939DF8563004939DF8553060
:10B0700003939DF8543002939DF8533001939DF84B
:10B0800052309DF85020009320499DF851301B48C4
:10B090000FF01EFF184919480FF01AFF642019F02D
:10B0A000B5FD14A904221A480FF07BFA9DF853301D
:10B0B00001939DF852309DF85020009315499DF85A
:10B0C00051300C480FF004FF0B490A480FF000FF05
:10B0D0009DF8533001939DF8523000939DF8502015
:10B0E0009DF851300B4905480FF0F2FE62E600BFB3
:10B0F0005E21070030E20020E862070094E20020B1
:10B100004CE300206721070050E30020B021070036
:10B110004DE30020F92107007748002D40F09B8087
:10B120000FF01BF97549024675480FF0D1FE7549BD
:10B1300073480FF0CDFE70480FF00FF96F490246CB
:10B1400071480FF0C5FE6F496F480FF0C1FE6420D3
:10B1500019F05CFD6D480FF011F96D490246684821
:10B160000FF0B6FE674966480FF0B2FE67480FF071
:10B1700005F96749024664480FF0AAFE6149624832
:10B180000FF0A6FE642019F041FD62480FF007F9A8
:10B19000614902465A480FF09BFE5A4958480FF041
:10B1A00097FE5C480FF0FBF85B49024656480FF0EB
:10B1B0008FFE544954480FF08BFE642019F026FD91
:10B1C00056480FF0FDF8564902464D480FF080FEF4
:10B1D0004C494B480FF07CFE50480FF0F1F85049B5
:10B1E000024649480FF074FE464947480FF070FE8A
:10B1F000642019F00BFD4B480FF0F3F84A49024662
:10B200003F480FF065FE3F493D480FF061FE45485D
:10B210000FF0E7F8444902463B480FF059FE394920
:10B2200039480FF055FE642019F0F0FC3F480FF04C
:10B23000DAF83F49024632480FF04AFE31493048B9
:10B240000FF046FE39480FF0CEF8394902462E4835
:10B250000FF03EFEAEE50FF080F828490246284880
:10B260000FF036FE274926480FF032FE22480FF035
:10B2700074F82249024624480FF02AFE2149224848
:10B280000FF026FE642019F0C1FC2A480FF0DFF809
:10B29000294902461A480FF01BFE1A4918480FF0B8
:10B2A00017FE24480FF0D3F82349024616480FF042
:10B2B0000FFE144914480FF00BFE642019F0A6FC91
:10B2C0001E480FF0C6F81E4902460D480FF000FE5A
:10B2D0000C490B480FF0FCFD18480FF0BAF818495C
:10B2E0000246B4E7074819F0A9FF00240EA80FF0A2
:10B2F00023FC204618B070BD79E30020122207001D
:10B3000030E20020E862070094E200207AE30020A7
:10B31000212207007BE30020292207007CE3002094
:10B32000312207007DE30020392207007EE3002060
:10B330004E22070082E300205C22070083E3002006
:10B340006922070073B5556E012D0E4625D11449AB
:10B3500010680CF0EEF90446E0B90825CDE90005C7
:10B36000022332460F4910480FF0B2FD0F490E4834
:10B370000FF0AEFD02233246CDE9004509490C48E5
:10B380000FF0A6FD09490A480FF0A2FD642019F04C
:10B390003DFC2546284602B070BD0125FAE700BFF6
:10B3A0006E820700B722070030E20020E862070043
:10B3B00094E200202DE9F84F654B1B78002B00F03C
:10B3C000C580644B1B78002B40F0BE80556E012D6C
:10B3D00040F0BC80D2F800A05F4950460CF0A9F9BB
:10B3E000044600286ED15D4B5D495E481D700FF02C
:10B3F0006FFD5B495B48DFF894B10FF069FD584978
:10B4000059480FF065FD564957480FF061FD64201B
:10B4100019F0FCFB214655480FF085FA29465348A0
:10B420000FF081FA022151480FF07DFA01F060FB24
:10B4300021464F4801F0FCF94E4801F0FBFA4E4816
:10B4400001F0F8FA01F08AFB0FF001FE4FF0000A5C
:10B45000054642F2107600279BF800308BB94FF476
:10B460007A7019F0D3FB0FF0F2FDB0EB05086AEB30
:10B470004A09464577EB0903EEDA03242046BDE886
:10B48000F88F02F021FA364936480FF021FD344991
:10B4900034480FF01DFD324933480FF019FD304993
:10B4A00031480FF015FD642019F0B0FB01F020FBCE
:10B4B0003248002101F0BCF901F050FB30480FF098
:10B4C000F1F9DBE72F4950460CF033F90446002828
:10B4D0003CD1224BDFF8B4B01D70014623480FF079
:10B4E00022FA294621480FF01EFA02211F480FF0C8
:10B4F0001AFA01F0FDFA2146204801F099F9224894
:10B5000001F098FA1C4801F095FA01F027FB0FF0C2
:10B510009EFD4FF0000A054644F620684FF00009F2
:10B520009BF800306BB94FF47A7019F06FFB0FF095
:10B530008EFD461B6AEB4A07B04579EB0703EFDA4D
:10B540009BE702F075F9B9E7002497E7022495E735
:10B55000B0D5002017D700206E82070000D700204A
:10B56000E862070030E2002094E2002011E30020AE
:10B57000D1220700D9220700B11F07009A1F070038
:10B58000A8E2002069680700E9220700D8A300208C
:10B590002DE9FF41536E012B0D46144625D13A4942
:10B5A00010680CF0C6F8044620B10224204604B00E
:10B5B000BDE8F08102F092F8294634480FF054FCBF
:10B5C000334932480FF03EFC32490A888B780879BB
:10B5D0004D798E79C97992B2CDE90261CDE9000544
:10B5E0002D492A480FF074FCE0E7052BDDD1161F2A
:10B5F00002F1100756F8045F28460CF0ACF82B4611
:10B600002844984205D013F8012B303A092AF8D97A
:10B61000CBE7BE42EED10022114620680CF008FABA
:10B6200040F2D233A0F2E6729A420546BDD800221B
:10B63000606811460CF0FCF9431E0B2B0646B4D88B
:10B640000022A06811460CF0F3F9431E1E2B07469A
:10B65000ABD80022E06811460CF0EAF918288046C1
:10B66000A3D80022206911460CF0E2F93B289CD8AF
:10B67000C2B200925FFA88F3FAB2F1B2A8B201F056
:10B680009FFF002492E700BF6E82070030E2002097
:10B69000C9250700D4D90020F922070007B50323E4
:10B6A0000193054B0093054B054A064819460FF0D8
:10B6B00004F903B05DF804FB19B902000C2307007C
:10B6C000142307000EE3002007B503230193054B65
:10B6D0000093054B054A064819460FF0EEF803B0F3
:10B6E0005DF804FBE5B902006C2307007123070035
:10B6F0000EE3002007B503230193054B0093054B90
:10B70000054A064819460FF0D8F803B05DF804FB67
:10B71000E5BA0200CF230700D42307000EE3002080
:10B7200007B503230193054B0093054B054A0648D3
:10B7300019460FF0C2F803B05DF804FBB5B3020080
:10B74000FB230700002407000EE3002007B50323B6
:10B750000193054B0093054B054A064819460FF027
:10B76000ACF803B05DF804FB91B5020016240700A5
:10B770001A2407000EE3002007B503230193054BAD
:10B780000093054B054A064819460FF096F803B09A
:10B790005DF804FBADBB0200EF6507004124070024
:10B7A0000EE3002007B503230193054B0093054BDF
:10B7B000054A064819460FF080F803B05DF804FB0F
:10B7C00051BC02006B240700702407000EE3002028
:10B7D00007B503230193054B0093054B054A064823
:10B7E00019460FF06AF803B05DF804FBE9A7020000
:10B7F000D9240700DE2407000EE3002007B502234A
:10B800000193054B0093054B054A064819460FF076
:10B8100054F803B05DF804FBE5A8020020250700FA
:10B82000272507000EE3002007B502230193054BEF
:10B830000093054B054A064819460FF03EF803B041
:10B840005DF804FB45B302003E25070045250700CF
:10B850000EE3002010B50D4C0D4986B003A80FF083
:10B86000B1F903A920460FF013F803A80FF064F90B
:10B8700002230193074B0093074B084A194604F132
:10B8800026000FF01AF806B010BD00BFE8E2002055
:10B890005D250700D9A70200652507006E25070072
:10B8A00070B5194C19491A4EC2B09022201D0BF0E8
:10B8B000A5F99021201D1AF003F800252060FE2232
:10B8C000294602A801950BF0A7F9B4F88E30E8B22A
:10B8D000984205F1010508DA231831461A7B01ABBD
:10B8E00003EB40000BF0F8FEEFE7074A094894230A
:10B8F00000210EF0FAFF28B90146034A05489423B7
:10B900000EF0F3FF42B070BDDCA3002008A30020BE
:10B9100023A407000FE30020F8B5536E012B0E4659
:10B9200002D002242046F8BD1568274928460BF0AE
:10B9300000FF044660B128460BF00DFF2A4628445C
:10B94000904224D012F8013B303B092BF8D9E8E7AC
:10B950001E4F1F497B681F4832464FF47A75B3FB70
:10B96000F5F30FF0B5FA1C491A480FF0B1FA7B68ED
:10B970001749B3FBF5F3324618480FF0A9FA1649F8
:10B9800016480FF0A5FA642019F040F9CAE70A2218
:10B99000002128460CF04CF8B0F5E15FC1D80B4C03
:10B9A0004FF47A735843606000210D480EF0BBFFDE
:10B9B000626822B100230A4819460EF0AAFFFFF779
:10B9C0006FFF0024AEE700BF6E82070004A30020D3
:10B9D0009125070030E20020E862070094E2002091
:10B9E00011E30020536E012B70B50E4602D00224E5
:10B9F000204670BD1568334928460BF09AFE044670
:10BA000060B128460BF0A7FE2A46284490421ED07B
:10BA100012F8013B303B092BF8D9E8E72A4D2B49B6
:10BA20006B7A2B4832460FF053FA2A4928480FF018
:10BA30004FFA6B7A2549284832460FF049FA2549D2
:10BA400025480FF045FA642019F0E0F8D0E70A2203
:10BA5000002128460BF0ECFF0328C8D81A4C637A63
:10BA6000984223D06072FFF71BFF637A012B22D02C
:10BA70001ED9023B012B21D9184915480FF028FA8D
:10BA8000144913480FF024FA144913480FF020FA10
:10BA9000104911480FF01CFA642019F0B7F841F270
:10BAA000883019F0B3F80E480EF0FCFE00249FE732
:10BAB000FDF79AFAE0E7FDF7F3FADDE7FDF71CFB87
:10BAC000DAE700BF6E82070004A300209825070074
:10BAD00030E20020E862070094E200209E25070083
:10BAE000A8E20020F8B5536E012B0D4602D00224C7
:10BAF0002046F8BD17682549254E38460BF019FE3B
:10BB0000044678BBB6F88E30ABB92A4621492248A4
:10BB10000FF0DEF9214920480FF0DAF92A461D49D5
:10BB20001F480FF0D5F91D491D480FF0D1F96420C9
:10BB300019F06CF8DCE729461A481B4F19F07EFB18
:10BB40002546B6F88E20EBB2934205F1010505DAE1
:10BB500033443846197B19F071FBF2E70F4819F0AE
:10BB60006DFBC5E738460BF0F6FD06F10C02014609
:10BB70000546384613F052FE04460028B7D16D083A
:10BB8000A6F88E50FFF78CFEB2E700BF6E8207006A
:10BB900004A30020BB25070030E20020E862070074
:10BBA00094E20020C725070023A40700536E012B51
:10BBB00070B50D4602D00224204670BD16681D499E
:10BBC00030460BF0B6FD0446D0B91B4E1B4996F922
:10BBD00091301B482A460FF07BF91A4918480FF09C
:10BBE00077F996F99130154917482A460FF070F900
:10BBF000144915480FF06CF9642019F007F8DBE7D9
:10BC00000022114630460BF08DFE00F10B03DBB233
:10BC1000192BD0D8084B93F9912040B282424FF0B3
:10BC20000004C9D083F89100FFF73AFE074B1C705F
:10BC3000C2E700BF6E82070004A30020982507001A
:10BC400030E20020E862070094E20020D0D6002015
:10BC5000536E012B2DE9F3410E4615462ED127498F
:10BC600010680BF066FD044660BBDFF8AC80244F23
:10BC700098F800300193234D3B780093EB7A2249EA
:10BC8000224832460FF024F9214920480FF020F9CC
:10BC900098F8003001933B780093EB7A1A491D48DD
:10BCA00032460FF015F91A491A480FF011F96420BD
:10BCB00018F0ACFF204602B0BDE8F081002B01DC9B
:10BCC0000224F7E70022286811460BF0B1FE10F0BD
:10BCD000FF0508D10B4BDC7A002CEBD0DD72FFF7AF
:10BCE000DFFD0024E6E7012DEAD1064BDC7A002CCB
:10BCF000F7D1DD72FFF7D4FDDCE700BF6E820700ED
:10BD0000DCD9002004A30020CB25070030E200206E
:10BD1000E862070094E20020B0D50020F0B5374D6E
:10BD20003748C3B094232A4600210EF0D4FD0646BE
:10BD3000D0B12B7AAA2B1AD19021281D19F0C0FD61
:10BD40002B68304C834214D047F23052AA23C4E906
:10BD500001232D4BE3600423A4F88E30082384F8DC
:10BD60009130FFF79DFD0026304643B0F0BD002026
:10BD7000E6E76B6863606B7AB5F88E20032B86BFAD
:10BD80000023374600276372802A6B89638111D9AB
:10BD900000232373A4F88E30374695F9912002F1E1
:10BDA0000C03DBB21A2B0CD9082384F89130FFF76F
:10BDB00077FD0AE015491648A4F88E200AF01EFF08
:10BDC000EBE784F89120002FF1D10025FE222946CF
:10BDD00002A801950AF020FF0E4FB4F88E30E8B2A9
:10BDE000984205F10105BFDA231839461A7B01ABE9
:10BDF00003EB40000BF070FCEFE700BFDCA300207A
:10BE00000FE3002004A3002001020304E8A30020A4
:10BE100010A3002023A4070010B5074B53F82020DF
:10BE2000002332F813408C42D8B203D80133102BD0
:10BE3000F7D1184610BD00BFFCA4002013B5019037
:10BE40000F480EF017FC019980B2FFF7E5FF04469A
:10BE50000C480EF0EBFBA0420FD20B4800F0EAFDBD
:10BE60000A490B4822460BF037FC094800F0E2FD76
:10BE7000084B0020187002B010BD0120FBE700BF86
:10BE80006AE3002058E300204026070052260700FE
:10BE9000B5D50020D1D600202DE9F3410121754E02
:10BEA000074622200FF0C7F84FF4FA7018F0AEFEE4
:10BEB0003478002C7ED170497048009440F24C4395
:10BEC000422207F00FFD054620B90024204602B0AB
:10BED000BDE8F08169484FF0020840F24C42012170
:10BEE00086F8008007F018FB654E002F57D040F20F
:10BEF0004C4322460121614807F086FB40F24C4347
:10BF0000424601215D4807F07FFB40F24C43062288
:10BF100001215A4807F078FB0122114640F24C43B8
:10BF2000564807F071FB40F24C430322012153486D
:10BF300007F06AFB40F24C43042201214F4807F00E
:10BF400063FB40F24C4305224C48012107F05CFBA7
:10BF5000F37A40F24C42E3B10521484807F023FD53
:10BF6000464840F24C432246012107F023FC434857
:10BF700040F24C4107F0D6FA737A023B012B02D80B
:10BF8000F47A002CA2D1002122200FF054F82C4684
:10BF90009CE74FF4FA71394807F046FDE7E740F2B5
:10BFA0004C424FF0FF31354807F0DCFAFA2018F028
:10BFB0002DFEE1E7002530493048009540F24C4322
:10BFC000422207F08FFC044600283FF47EAF40F287
:10BFD0004C420121294807F09FFA40F24C432A467F
:10BFE0000121264807F010FB40F24C4302220121B8
:10BFF000224807F009FB40F24C43062201211F486A
:10C0000007F002FB0122114640F24C431B4807F0A7
:10C01000FBFA40F24C4303220121184807F0F4FADE
:10C0200040F24C4304220121144807F0EDFA40F29B
:10C030004C4305221148012107F0E6FA104BDB7A48
:10C0400040F24C4283B105210C4807F0ACFC0B4890
:10C0500040F24C432A46012107F0ACFB40F24C4130
:10C06000064807F05FFA31E74FF4FA71034807F02A
:10C07000DBFCF3E724D700208CE3002054D700201A
:10C0800004A30020000000002DE9F04FDFF80C832E
:10C09000A94FAA4CAA4DDFF80893AA4E8BB00023F3
:10C0A00000220021C8E90023C7E900234FF0000A5D
:10C0B0001C2203A82970C9F8001021700291C6F84B
:10C0C00000A00AF0A9FDA04902A80BF03CFB9F4B81
:10C0D0009F48DB7AA34640F24C41002B66D007F024
:10C0E0006CFDC117C8E9000140F24C41984807F0C7
:10C0F00049FDC117C7E9000140F24C41944807F0DF
:10C1000077FD40F24C41C9F80000914807F0CBFCA4
:10C1100007EE900AF8EE677A40F24C418C48C6ED83
:10C12000007A07F014FD40F24C412070884807F077
:10C13000D2FC012829D1874902A80BF004FB96ED17
:10C14000007ADFED857AB4EEE77AF1EE10FA05D5E4
:10C150007A4B1B78052B01D901232B702B7803F028
:10C16000FF04002B00F0D280D7E900E31A46D8F88C
:10C170000430D8F800C01A434CEA0E00114650EAC9
:10C18000010378D100242C70AAE0022801D1734960
:10C19000D2E7032801D17249CEE7042801D17149C1
:10C1A000CAE705280CBF70496749C5E707F0B0FC2E
:10C1B0000028D3D0012124200EF03DFF644840F236
:10C1C0004C4107F088FC044600283DD15E4902A896
:10C1D0000BF0B9FA5E4840F24C4107F0B8FC634BF3
:10C1E0008BF800001A78904242D1614A13780133EB
:10C1F0001370022CB2D95E4B1B78012BAED90123F0
:10C2000040F24C4152482B7007F0D7FCC117C8E9E7
:10C21000000140F24C414E4807F0B4FCC117C7E999
:10C22000000140F24C414A4807F0E2FC40F24C4128
:10C23000C9F80000464807F036FC07EE900AF8EE11
:10C24000677AC6ED007A89E7012801D14949BEE73E
:10C25000022801D14849BAE7032801D14749B6E786
:10C26000042801D13F49B2E70528B3D13E49AEE7E2
:10C2700088BF1870BDE7354B304D5B7A032B33D147
:10C280003F4B40481B6872461BB2614601F06CFF91
:10C29000D8E9000144F062FF25A3D3E9002345F06B
:10C2A000B5F845F081FA384B1860D7E9000144F041
:10C2B00055FF1FA3D3E9002345F0A8F845F074FA11
:10C2C000324B32681860324B1A604FF47A72D9F8E8
:10C2D000003093FBF2F32F4A13602F4B2A781A7029
:10C2E00020460BB0BDE8F08FD9F8003096ED000A7B
:10C2F00024484FF47A7193FBF1F395F90010009103
:10C300001BB27246614601F063FEC1E71E4BC3F8E3
:10C3100000A01E4BC3F800A01D4B4FF07E521A60C8
:10C320001C4B1C601C4B1C702DE700BFAFF3008042
:10C3300000000000D012634148D70020D8D8002068
:10C3400039D7002018D700206026070004A300205A
:10C3500054D7002067260700000096437626070082
:10C36000822607008E2607009726070050D7002058
:10C3700051D70020A0260700AA260700B1260700F3
:10C38000C8D60020A4D5002030D7002034D7002004
:10C3900028D700202CD7002038D7002040D70020F5
:10C3A0001CD700202DE9F041012186B023200EF09A
:10C3B00042FEFFF769FE6C4F6C4E0446002800F009
:10C3C0009D806B4BD97A11B922200EF034FE694B57
:10C3D000002264201A7018F019FC674803210EF03F
:10C3E000A2FA3B78002B36D0644B1B78002B32D15D
:10C3F00000F07EFB624800F01DFB624B1868624B48
:10C400001D68624BD3F8008044F07EFE02460B4666
:10C410002846CDE90423CDF8088044F075FEDDE917
:10C420000423CDE900015A495A480BF055F95948FF
:10C4300000F000FB584B1868584B1D7844F064FE20
:10C44000EDB202460B465348554900950BF044F9AE
:10C45000504800F0EFFA534B1B781BB952480121AA
:10C460000EF037F95148DFF8608101F043FF80B2E8
:10C47000FFF7E4FC0546E8B14C4801F03BFF0490AF
:10C480004A4801F039FF01240023CDE90043484B1D
:10C4900004991B78024647480EF01AF838B988F814
:10C4A0000000454A1368013313602C4604E088F805
:10C4B0000040F6E788F800003B78002B49D0002CBC
:10C4C00047D12E4B1B78002B43D100F011FB314B91
:10C4D0001C70274BDB7A002B30D0384800F0AAFACA
:10C4E000374B1A7862BB34882A4B2A201146944273
:10C4F0002ADD1870013203F8011FF8E7314B32884A
:10C500001B889A42D8D3642018F080FB194B1A4834
:10C510001C702D4B03211C700EF005FA3D785DB1A7
:10C52000164B1C78002CC7D128491A480BF00BF980
:10C53000184800F07FFAB8E70124BDE72448CDE7AA
:10C54000244914480BF0C8F8124800F073FA00F0C0
:10C5500005FB3388002101332320338006B0BDE87A
:10C56000F0410EF068BD00BFAFD5002020D70020FD
:10C5700004A30020ACD5002011E3002000D7002048
:10C58000B826070030D7002034D700202CD7002051
:10C59000C2260700B5D5002028D7002038D70020B4
:10C5A000D2260700D0D600206CE30020A4D50020BE
:10C5B00094A1002049E30020C8D60020FC260700F3
:10C5C000D8D8002022D70020D1D60020E4260700AA
:10C5D000122707002527070010B5054C204602F05A
:10C5E000EDF82046034A0449BDE810400AF098BA25
:10C5F00054D7002090A10020C9ED02000020704710
:10C6000038B590F8333004460D4613B1406B0EF048
:10C6100083FB94F83010606B0EF0C2FB606B8021DE
:10C6200000F02DF8606B036829461B689847606B23
:10C630000121BDE838400EF0BFBB000010B5034B30
:10C640000360044607F0CCFB204610BDEC28070031
:10C6500010B50446406B0EF05FFB606B02490EF0B4
:10C660006FFB012010BD00BF801A060010B5044604
:10C67000FFF7E4FF20460CF0A9FD204610BD03683B
:10C68000C9B21B6818472DE9F84F90F833300446BB
:10C6900013B1406B0EF040FB658AC5F180054FF089
:10C6A000000A05EBD575FF276D10D146D0463E46F2
:10C6B000A38A5FFA8AF1B1EBD30F28DA4FF0000CAE
:10C6C000638A5FFA8CF098421CDA11FB03F303448F
:10C6D000A2689BB212F803E0E26812F803B0F345D7
:10C6E0000BD08E4228BF0E46884538BF8846874209
:10C6F00028BF0746814538BF814602F803E00CF1A8
:10C70000010CDDE70EF017F90AF1010AD0E7FF2E60
:10C7100057D0236821219B6920469847236857FA00
:10C7200085F19B69C9B2204698475FFA85FA23686C
:10C730000AEB09019B69C9B2204698472368222168
:10C740009B6920469847236831469B692046984755
:10C75000236841469B69204698470025B04529D368
:10C76000BA46CA4521D845B994F83010606B0EF02E
:10C7700017FB606B4021FFF782FFA268606B638A42
:10C7800006FB0323026813F80A1012680135EDB2A4
:10C790009047102D04D1606B01210EF00DFB002598
:10C7A0000AF1010A5FFA8AFADBE701360EF0C3F8F4
:10C7B000F6B2D3E72DB1606B0121BDE8F84F0EF062
:10C7C000FBBABDE8F88F000038B51648164C0EF0DD
:10C7D000A3FA4FF4FA7018F019FA0125204684F8EC
:10C7E000335007F0B4FE204607F067FD204607F0FF
:10C7F000E2FD204607F04FFDC821204607F0A4FDCA
:10C80000204607F0CBFD4023F1222046642107F0AB
:10C8100066FD0649204607F03CFD2046FFF733FF42
:10C82000284638BD8CE300209CD900200C29070045
:10C8300030B52DED028B044697B04F480D464F4959
:10C8400007F027FD4C48002107F0D4FA00220B2303
:10C85000114649480093802307F0E4FB4648012134
:10C8600007F0C8FA4448002107F011FD444B1B783B
:10C870007BB1444B1B7863B15DB1434906A80EF010
:10C88000A1F906AB00223C48114607F09DFE06A820
:10C890001AE03E4BDD7A002D2FD03D4B3D491878F4
:10C8A0003D4A2346002808BF0A463C4906A80AF02C
:10C8B00013FF06A903A80EF085F900222E4803AB4A
:10C8C000114607F081FE03A80EF036F94FF08043C1
:10C8D000D3F8384414F0FF0416D0032C46D00B22B2
:10C8E00000927F230021244807F0BBFA2248FFF77B
:10C8F000CAFE17B0BDEC028B30BD214606A80EF073
:10C9000061F906AB2A46BEE725489FED268A244CEE
:10C910000DF0CAFF0A2520460DF0C6FF013D38EE96
:10C92000008AF8D1F2EE047AC8EE277A17EE900A60
:10C9300044F0EAFB02460B4606A81B490AF0CCFE6F
:10C9400082B206A90C4807F085FC06A9044603A894
:10C950000EF038F9C4F17F01074803AB002209B299
:10C9600007F032FE03A80EF0E7F8B8E70F4906A873
:10C970000AF0E9FE2246E4E79CD900200C290700D2
:10C980000CDA0020B0D500203027070004A30020D7
:10C9900039D70020D5A307000E6707003E27070000
:10C9A0000DE3002000000000442707004A2707008D
:10C9B000F0B51C481C4F1D4E1A4D87B0002107F0E2
:10C9C00019FA40230C22174800930021802307F016
:10C9D00029FB1749134807F05CFC1248012107F0B6
:10C9E00009FA1048002107F052FC00243B78A342CA
:10C9F00013DD06EB441103A80EF0E4F804EB840207
:10CA000052000C3203AB12B20021284607F0DCFDC5
:10CA100003A80EF091F80134E8E70248FFF733FE6F
:10CA200007B0F0BD9CD90020D9D80020DAD800206A
:10CA30000C29070070B5274C274D2278052A03469C
:10CA400038D105F12002294605F1400052F8046B67
:10CA500041F8046B8242F9D1204AA2F1200102F18F
:10CA6000200052F8046B41F8046B8242F9D11C4A51
:10CA7000A2F1200102F1200052F8046B41F8046B8E
:10CA80008242F9D1174AA2F1200102F1200052F8A6
:10CA9000046B41F8046B8242F9D1134AA2F12001E0
:10CAA00002F1200052F8046B41F8046B8242F9D184
:10CAB0000422227020780D4A05EB401020210AF054
:10CAC000D7FD2378052B1CBF01332370BDE87040D0
:10CAD000FFF76EBFD9D80020DAD800201AD900207D
