:020000022000DC
:1070000000000420B18F0300D98F0300DB8F030041
:10701000DD8F0300DF8F0300E18F0300000000001D
:10702000000000000000000000000000E38F0300EB
:10703000E58F0300000000000000000000000000D9
:10704000C57E0500E78F0300459D05009D84050072
:10705000E78F0300057B0500DD780500F56006007D
:10706000E78F0300DD830500F1830500E78F030050
:10707000E78F0300E78F0300E78F0300E78F03002C
:10708000F96D0600DD500500E78F0300E78F030070
:10709000E78F0300E78F03007D570600E78F0300AB
:1070A000E78F0300E78F03000584050019840500BE
:1070B000E78F0300E78F03000000000000000000DE
:1070C000E78F0300E78F0300E78F030031660600B8
:1070D000F5800500E78F0300E78F0300559A050050
:1070E000CD9A0600E78F03000DC2060000000000E5
:1070F00000000000E78F030000000000016A0600A6
:10710000000000000000000000000000000000007F
:10711000000000000000000000000000000000006F
:10712000000000000000000000000000000000005F
:10713000000000000000000000000000000000004F
:10714000000000000000000000000000000000003F
:10715000000000000000000000000000000000002F
:10716000000000000000000000000000000000001F
:10717000000000000000000000000000000000000F
:1071800000000000000000000000000000000000FF
:1071900000000000000000000000000000000000EF
:1071A00000000000000000000000000000000000DF
:1071B00000000000000000000000000000000000CF
:1071C00000000000000000000000000000000000BF
:1071D00000000000000000000000000000000000AF
:1071E000000000000000000000000000000000009F
:1071F000000000000000000000000000000000008F
:1072000010B5054C237833B9044B13B10448AFF3E0
:1072100000800123237010BD60D500200000000015
:10722000E800080008B5034B1BB103490348AFF35E
:10723000008008BD0000000064D50020E8000800C0
:10724000154B002B08BF134B9D46A3F5803A002138
:107250008B460F461348144A121A0FF009FB0F4BC6
:10726000002B00D098470E4B002B00D098470020F1
:10727000002104000D000D48002802D00C48AFF397
:1072800000800FF0A5FA200029000FF02BF80FF076
:107290008BFA00BF0000080000000420000000007E
:1072A0000000000060D500203CC501200000000067
:1072B000000000000022C0E900220172704738B5CA
:1072C0000446006820B1856911F0A8FD2846F9E759
:1072D000204638BD006820B143688B4201D08069E8
:1072E000F9E77047F8B504460F4616461D46FFF706
:1072F000F1FF20B10123826005704370F8BD1C20AE
:1073000011F090FD012343700023C0E90333C0E96D
:10731000053323680570C0E9017613B92060606009
:10732000ECE763689861FAE72DE9F8430468164FC3
:1073300005460E464FF000081CB363680BB9A469FC
:10734000FAE72378002BFAD0E368A268F31A9A428E
:1073500002D961780029F2D09B1A636184F8018018
:10736000E66013F0A1FC63688146984713F09CFC2B
:107370003B68A0EB0900206118442B7A3860002B91
:10738000DDD0BDE8F88300BF7CD50020034B044866
:1073900009221A700121FA2213F0E3B880D50020E7
:1073A00011E3002008B5074B50B103221A700648BC
:1073B000FA22012113F0D5F8044B00221A7008BDFF
:1073C0000522F3E780D5002011E30020D1D600206C
:1073D000054B064800221A70054B08221A7001213D
:1073E000FA2213F0BEB800BFD1D6002011E300206E
:1073F00080D5002084B004AB03E90700094BBDF938
:107400000A201A80084B9DF90C201A70074B084877
:1074100000221A70074B0121FA22197004B013F0F0
:10742000A0B800BFB2D50020B4D50020D1D600202E
:1074300011E3002080D500202DE9FF47DFF8B4A23A
:10744000954D964EDFF8B082012700232F703370E0
:107450009AF80930023BBB42544600F24F819048F3
:1074600006F071FD9AF80B30002B00F0CA808D4AAF
:1074700098F8003011789146002940F0A98083B136
:10748000894B1B786BB905F0BFF99AF80930022BCC
:107490000CBF86488648394605F056F8854805F001
:1074A00055F904F081FC08B3834B1B781BB9834862
:1074B000012112F036FFB4F88E0004F04FFB0028D3
:1074C00000F07A81764806F041FD0390744806F09A
:1074D0003FFD01240023CDE900430246039978488B
:1074E000234612F01DFE00286DD15EE0754A11782A
:1074F00009BB754B1B7803F0FF07E3B9012368480C
:1075000089F8003006F01FFD704B71481F8041F272
:1075100088326368B3FBF2F36E4A13806E4B1F70C0
:107520006E4B40F6C4121F7003213B4604B0BDE809
:10753000F04713F016B80023137098F800304BB1E1
:10754000594B1B7833B9664966480FF028FF6548E8
:1075500005F0FCF8637A032B2AD1634B50481B6873
:1075600000221BB2114606F02BFC534B1B781BB9B3
:107570005248012112F0D5FEB4F88E0004F0EEFA64
:10758000002800F01981464806F0E0FC03904448CA
:1075900006F0DEFC01240023CDE9004302460399F6
:1075A0004748234612F0BCFD60B9287034700AE0E9
:1075B00000230093B7EE000A1A461946384806F031
:1075C00033FBD2E72C70484A136801331360F3E0B1
:1075D000002B00F0F180344B1B78002B40F0EC8046
:1075E00005F012F99AF80930022B0CBF2F483048E9
:1075F000394604F0A9FF3D4804B0BDE8F04705F066
:10760000A5B898F8003083B1274B1B786BB905F00B
:10761000FBF89AF80930022B0CBF2448244839465D
:1076200004F092FF324805F091F8637A032B29D1D8
:107630002D4B1B481B6800221BB2114606F0C0FBF5
:107640001D4B1B781BB91D48012112F06AFEB4F8CE
:107650008E0004F083FA002800F0AE80104806F097
:1076600075FC03900E4806F073FC00210123CDE960
:10767000003102460399124812F052FD0028A2D1AF
:107680002870A0E700230093B7EE000A1A461946B7
:10769000034806F0C9FAD3E7D1D60020D8A30020CA
:1076A000A4D50020ACD5002000D70020A8170700E3
:1076B000B8170700C9170700D0D600206CE30020D8
:1076C00049E30020A2D5002081D5002020D700204A
:1076D00011E3002022D7002050D7002051D70020EE
:1076E000E4170700B5D50020C8D60020FA17070018
:1076F0000E18070004A30020AFD5002098F8003032
:1077000073B1374B93F80080B8F1000F08D105F042
:107710007BF83448394604F017FF334B83F8008078
:10772000324806F010FC324812F00AFE002846D01B
:10773000304812F08FFD00283BD00121242013F0A7
:10774000A2FA2D4B1B78C3B12C4804F0FFFF2C4B41
:107750001B781BB92B48012112F0E3FDE77A9FB19A
:1077600004F022FB20B9284A00231360274A136043
:107770001E4806F0EBFB80B29FE61B4B1B780BB15B
:107780002348E2E72348E0E7B4F88E0004F0E6F986
:1077900090B10197012700971F4A94F88E101F4857
:1077A000022312F0BDFC00287FF40DAF2870377063
:1077B00009E701232870337004B0BDE8F087012188
:1077C000232013F060FA134804F0C0FF0123124A8B
:1077D00094F88E10124812F04EFC01232B70F2E642
:1077E00000D700201A180700A2D50020A4D5002039
:1077F0006DE3002054E3002081D500202B18070002
:10780000D0D600206CE3002034D7002030D70020F1
:107810003C1807004B18070010A3002049E3002084
:107820006EE30020000000002DE9F04F002189B038
:107830000446242013F027FA0021232013F023FA12
:10784000002C00F03B842378013B072B00F23684A8
:10785000DFE813F0080064010002AC025704DA0408
:1078600098078C0905F064FC874B1B78002B31D0FE
:10787000864B1B78002B00F0958005F093FD844A21
:10788000844B11881980917899701179D970517948
:1078900019719179D27959719A710122DA717E49FF
:1078A00000221A720968D9607C49096819617C490B
:1078B0001A755A75098849B2D9757A49097849B251
:1078C00019765A839A83DA83774A126812B21A8435
:1078D00005F0A8FF754B1B78002B00F0EF83744B6D
:1078E0001C78002C40F0EA83724973480FF057FD72
:1078F000714905A812F08EFF05AA2146204604F022
:107900009FFF05A812F040FF6C4B6D491A686A484A
:107910000FF00EFD684905A812F07CFF05AA21466C
:10792000012004F08DFF05A812F02EFF654812F02B
:107930003CFB49F0EFF952A3D3E9002349F08EFB59
:107940000B46024660495C480FF0F2FC5A4905A814
:1079500012F060FF05AA2146022004F071FF05A87D
:1079600012F012FF594812F031FB594902465248B1
:107970000FF0DEFC504905A812F04CFF05AA214685
:10798000032004F05DFF05A812F0FEFE514812F03E
:107990002EFB092870D8DFE800F0085D5F616365A1
:1079A00067696B6D05F022FD69E74B4903A80FF08D
:1079B000F6FC484812F01BFB484B494953F820207D
:1079C0003D480FF0B5FC3C4905A812F023FF05AA7D
:1079D0004021032004F034FF05A812F0D5FE4148F1
:1079E00012F016FB4049421D33480FF0A1FC32490A
:1079F00005A812F00FFF05AA4021022004F020FF85
:107A000005A812F0C1FE264B38491A882A4812B23E
:107A10000FF08EFC284905A812F0FCFE05AA0021F3
:107A2000042004F00DFF05A812F0AEFE1D4B3049F6
:107A30001A7852B220480FF07BFC1F4905A812F0BB
:107A4000E9FE05AA4021042004F0FAFE05A812F080
:107A50009BFE31E32749A9E72749A7E72749A5E77F
:107A60002749A3E72749A1E727499FE727499DE73A
:107A700027499BE7274999E7274997E7AFF3008014
:107A80000000000080842E41B0D50020DCD9002009
:107A9000D4D90020A4A1002030D7002034D7002062
:107AA000B2D50020B4D50020C4D60020AFD5002028
:107AB00000D700205D180700B5D50020C8D60020EB
:107AC0006B18070079E300207F1807007AE3002095
:107AD0001A2407007BE30020861807007CA2002000
:107AE000BC1807007CE3002033240700551A070068
:107AF000601A07008A1807008E18070092180700FE
:107B0000961807009B180700A1180700A718070080
:107B1000AD180700B3180700B818070005F008FBF8
:107B20007C4B00221A707C4B1B78002B2FD07B4B98
:107B30001B78002B65D005F035FC794B794C1A8801
:107B400022809A78A2701A79E2705A7922719A7911
:107B5000DB796271A371744A74480023E371237264
:107B60001268E260724A1268226123756375E375D8
:107B700023766383A383E3836E4B1B681BB223844A
:107B800012F07CFB40B284F8220005F04BFE6A4BF9
:107B90001B78002B00F09282684B1C78002C40F080
:107BA0008D8267496748684D0FF0F9FB654905A864
:107BB00012F030FE05AA2146204604F041FE05A839
:107BC00012F0E2FD2A6861495E480FF0B1FB5D49A1
:107BD00005A812F01FFE05AA2146022004F030FE7F
:107BE00005A812F0D1FD2B68013B0F2B30D8DFE840
:107BF00003F00B11131517191B1D1F21232527290E
:107C00002B2D05F0F3FB98E751494E480FF0C7FBC9
:107C10004C4970E04F49F8E74F49F6E74F49F4E720
:107C20004F49F2E74F49F0E74F49EEE74F49ECE79C
:107C30004F49EAE74F49E8E74F49E6E74F49E4E7AC
:107C40004F49E2E74F49E0E74F49DEE74F49DCE7BC
:107C50004F49DAE705F06CFA374B1B78002B00F040
:107C60002D82364B1E78002E40F02882494C657AD2
:107C7000022D46D0032D4BD05DB9474905A812F01F
:107C8000C9FD05AA2946084604F0DAFD05A812F048
:107C90007BFD4FF47A7362684049B2FBF3F22948E6
:107CA0000FF046FB274905A812F0B4FD05AA0021F4
:107CB000012004F0C5FD05A812F066FD384905A8AD
:107CC00012F0A8FD002105AA022004F0B9FD05A8C4
:107CD00012F05AFD24491B480FF061FB194905A811
:107CE00012F098FD002105AA032004F0A9FD05A8C3
:107CF00012F04AFD2A4905A812F08CFD05AA0021C0
:107D0000A1E6284905A812F085FD05AA3146BAE783
:107D10002549F7E7D1D60020B0D50020DCD90020D6
:107D2000D4D90020A4A1002030D7002058E300209F
:107D300034D70020C4D60020AFD5002000D70020C3
:107D4000C2180700B5D50020D4D60020D1180700EE
:107D5000DB180700E9180700F418070000190700EE
:107D60000C19070016190700201907002C19070025
:107D7000401907005319070063190700701907001D
:107D80007A1907008A19070098190700A419070033
:107D9000B519070004A30020C3190700F71907004D
:107DA000ABC20700D2190700E319070005F0C0F9BC
:107DB000924B1B78002B3FD0914B1B78002B00F08F
:107DC000D78005F0EFFA8F4B8F4C1A8822809A7873
:107DD000A2701A79E2705A7922719A79DB7962710C
:107DE000A3718A4A8A480023E3711278D2B22272C0
:107DF000884A1268E260884A12682261874A1188BC
:107E000049B22175118849B26175128852B2E27582
:107E1000834A127852B222766383A383814B1B7804
:107E2000E383814B1B681BB2238412F027FA40B214
:107E300084F8220005F0F6FC7C4B1B78002B00F048
:107E40003D817B4B1C78002C40F03881794D7A4B7A
:107E500029787A4A7A48744FDFF80C82002918BFD3
:107E60001A4678490FF064FA754905A812F0D2FC59
:107E700005AA2146204604F0E3FC05A812F084FC84
:107E80002B7803F0FF06002B75D1664B6E491A78EC
:107E90006B480FF04DFA6A4905A812F0BBFC05AA21
:107EA0003146012004F0CCFC05A812F06DFC5848C6
:107EB00012F0E4F96549024661480FF039FA604969
:107EC00005A812F0A7FC05AA3146022004F0B8FC70
:107ED00005A812F059FC4D4B5D491A7858480FF02F
:107EE00027FA574905A812F095FC05AA402102205F
:107EF00004F0A6FC05A812F047FCD8F8002055496C
:107F00004F480FF015FA4E4905A812F083FC05AA58
:107F10003146032004F094FC05A812F035FC3A68C1
:107F20004D4947480FF004FA454905A812F072FC84
:107F300005AA4021032004F083FC05A812F024FCCC
:107F4000364B46491A883E4812B20FF0F1F93C49C7
:107F500005A812F05FFC05AA3146042004F070FC6D
:107F600005A812F011FC2E4B3D491A7852B261E57A
:107F700005F03CFA27E7D8F80020364930480FF0E2
:107F8000D7F92F4905A812F045FC05AA2146012082
:107F900004F056FC05A812F0F7FB3A682E49284871
:107FA0000FF0C6F9264905A812F034FC05AA4021B5
:107FB000012004F045FC05A812F0E6FB2A782949C7
:107FC0001F480FF0B5F91E4905A812F023FC05AAB9
:107FD0002146022004F034FC05A812F0D5FB2B78D2
:107FE000013B0F2B00F28B80DFE803F0406B6D6FDD
:107FF00071737577797B7D7F81838587B0D500200C
:10800000DCD90020D4D90020A4A10020B6D60020BD
:1080100058E3002030D7002034D70020B2D500200C
:10802000B4D50020B5D60020C4D60020AFD500209E
:1080300000D70020B7D6002059180700B21B070050
:10804000B5D500200B1A07001C1A0700301A0700CC
:10805000391A0700421A07004A1A0700521A070085
:108060005D1A0700671A0700C8D6002049494A4828
:108070000FF095F9484905A812F0CCFB05AA00219C
:10808000032004F0DDFB05A812F07EFB434812F04C
:10809000F5F84349024640480FF04AF93E4905A821
:1080A00012F0B8FB05AA0021042004F0C9FB05A8C2
:1080B00012F06AFB04F0DEFB04F0DCFB09B0BDE863
:1080C000F08F3849D3E73849D1E73849CFE7384905
:1080D000CDE73849CBE73849C9E73849C7E73849D8
:1080E000C5E73849C3E73849C1E73849BFE73849E8
:1080F000BDE73849BBE73849B9E73849B7E73849F8
:10810000B5E705F015F8374B1B78002BD6D0364B6A
:108110001E78002ED2D1354C657A022D31D0032D38
:1081200036D05DB9324905A812F074FB05AA29467C
:10813000084604F085FB05A812F026FB4FF47A737D
:1081400062682C49B2FBF3F213480FF0F1F81249C0
:1081500005A812F05FFB05AA0021012004F070FBC6
:1081600005A812F011FB244905A812F053FB0021C9
:1081700005AA022004F064FB05A812F005FB1F49C4
:10818000A9E51F4905A812F045FB05AA3146CFE72E
:108190001C49F7E7DB180700B5D5002058E300209D
:1081A0007C1A0700E9180700F418070000190700F7
:1081B0000C19070016190700201907002C190700D1
:1081C00040190700531907006319070070190700C9
:1081D0007A1907008A19070098190700A4190700DF
:1081E000B5190700AFD5002000D7002004A3002058
:1081F000C3190700F7190700ABC20700851A07006B
:10820000D2190700E3190700954F04F091FF7B7A1C
:108210009449032B944B40F059811A785E78DD78AD
:108220001C7993F8028093F805A093F907B00B78B6
:1082300006EB0226C5EB4510B6B20A22B6FBF2F2F7
:1082400007EE902A05EB8005C4EB4410874AF8EE50
:10825000E77A04EB800408F138086D006400C2ED91
:10826000007A4FFA88F82DB224B24FEA2A1A9146C2
:10827000002B3BD07E4B1B78002B00F0DC8005F000
:1082800091F87C4A7C4B118819809178997011790A
:10829000D970517919719179D27959719A710322F2
:1082A000DA715FFA8AF21A72744A75481268DA60F3
:1082B000744A12681A610021734A197583F815808F
:1082C00083F816B0128852B2DA75704A127836B254
:1082D00052B21A765D839C83D9831E8411F0CEFF3F
:1082E000654B40B283F8220005F09CFA684B1B787E
:1082F000002B3FF4E3AE674B1B78002B7FF4DEAE20
:1083000004F082FA7B7A022B0CBF63486348012198
:1083100004F01AF95D4B62491A785B4B61481B887F
:1083200052B21BB20FF004F85E4905A812F072FABF
:108330000021084605AA04F083FA05A812F024FAE1
:1083400043465A46584957480EF0F2FF554905A88A
:1083500012F060FA05AA0021012004F071FA05A8C4
:1083600012F012FA524651494E480EF0E1FF4D49C3
:1083700005A812F04FFA05AA0021022004F060FAC5
:1083800005A812F001FA4A4905A812F043FA05AA15
:108390003221022004F054FA05A812F0F5F94549FB
:1083A00005A812F037FA05AA5021022004F048FA75
:1083B00005A812F0E9F9404905A812F02BFA05AA20
:1083C0000021032004F03CFA05A812F0DDF9FE7A42
:1083D0003A4F002E32D02A46394932480EF0A8FFD3
:1083E000304905A812F016FA05AA3221032004F03C
:1083F00027FA05A812F0C8F931492A4822460EF09A
:1084000097FF284905A812F005FA05AA5021032074
:1084100004F016FA05A812F0B7F9D9F800003C6884
:1084200048F09AFC009402460B461E4825490EF07F
:108430007FFFFFF7EDBB04F0D9FF22E7224919487F
:108440000EF0ADFF174905A812F0E4F905AA322194
:10845000032004F0F5F905A812F096F9D1E700BF62
:1084600004A30020B0D5002082D50020CCD6002067
:10847000DCD90020D4D90020A4A1002030D70020CE
:1084800058E3002034D70020B2D50020B4D5002016
:10849000AFD5002000D70020A8170700B8170700A5
:1084A0009B1A0700B5D50020B21A0700C91A0700A9
:1084B000D41A0700D81A0700DC1A0700C8D6002013
:1084C0002D1A0700E51A0700FA1A0700DD7893F85D
:1084D00001809E7893F805A0C5EB451205EB820557
:1084E0001A790B78C2EB421902EB8909A8F1C80886
:1084F000C83E6D004FEA49091FFA88F8B6B22DB29E
:108500000FFA89F9002B3CD0864B1B78002B00F02A
:10851000F58004F047FF844B844C1A8822809A78B7
:10852000A2701A79E2705A7922719A79DB796271B4
:10853000A3710223E3717E4B84F808A01B68E360FB
:108540007C4B7D481B6823614FFA88F3237573B217
:1085500063757A4B1B885BB2E375794B1B785BB212
:10856000237600236583A4F81C90E383754B1B6876
:108570001BB2238411F082FE40B284F8220005F081
:1085800051F9714B1B78002B3FF498AD6F4B1B7862
:10859000002B7FF493AD04F037F97B7A022B0CBFEC
:1085A0006B486C48012103F0CFFF654B6A491A788C
:1085B000624B6A481B8852B21BB20EF0B9FE674983
:1085C00005A812F027F90021084605AA04F038F999
:1085D00005A812F0D9F84FFA8AF261495F480EF007
:1085E000A7FE5E4905A812F015F905AA0021012091
:1085F00004F026F905A812F0C7F85A4905A812F0A8
:1086000009F905AA3221012004F01AF905A812F08F
:10861000BBF8554905A812F0FDF805AA5021012024
:1086200004F00EF905A812F0AFF8504905A812F0B1
:10863000F1F805AA0021022004F002F905A812F0C1
:10864000A3F84B4905A812F0E5F805AA002103207C
:1086500004F0F6F805A812F097F80FFA88F24549E9
:108660003E480EF065FE3D4905A812F0D3F805AA74
:108670003221022004F0E4F805A812F085F832B2A5
:108680003C4936483C4E0EF053FE344905A812F0E2
:10869000C1F805AA3221032004F0D2F805A812F08F
:1086A00073F8FC7A274F64B32A4632492B480EF000
:1086B0003FFE2A4905A812F0ADF805AA5021022074
:1086C00004F0BEF805A812F05FF82A4923484A468C
:1086D0000EF02EFE214905A812F09CF805AA5021A3
:1086E000032004F0ADF805A812F04EF83A682349CB
:1086F00033681A480EF01CFEFFF78ABA04F076FEC3
:1087000009E71F4915480EF04AFE144905A812F062
:1087100081F805AA5021022004F092F805A812F071
:1087200033F8D7E7DCD90020D4D90020A4A1002059
:1087300030D7002034D7002058E30020B2D50020E5
:10874000B4D50020C4D60020AFD5002000D700202B
:10875000A8170700B81707009B1A0700B5D5002017
:10876000C91A0700E66E0700DC1A0700D41A0700D2
:10877000D81A07002D1A0700C8D60020FD1A0700D6
:10878000FA1A070004F0D4FC9C48042111F0F3FE0F
:108790009B4B1B78002B31D09A4B1B78002B00F0A1
:1087A000E78004F0FFFD984B984C1A8822809A7855
:1087B000A2701A79E2705A7922719A79DB79627122
:1087C000A3710223E371924A924800232372126834
:1087D000E260914A1268226123756375E37523761E
:1087E0006383A383E3838D4B1B681BB2238411F047
:1087F00045FD40B284F8220005F014F8884B1B7840
:10880000002B3FF45BAC874B1B78002B7FF456ACFE
:10881000854D864C03F0F8FF6B7A032B0CBF844820
:108820008448012103F090FE834984480EF0B7FD8F
:10883000824905A811F0EEFF0021084605AA03F0C1
:10884000FFFF05A811F0A0FF7D4B1E78002E00F061
:1088500071817C4FDFF8C4914FF0000883F80080ED
:108860003B7803F0FF06002B40F08580764B77497C
:108870001A7872480EF05CFD704905A811F0CAFF25
:1088800005AA3146012003F0DBFF05A811F07CFFAB
:10889000604811F0F3FC6E49024668480EF048FD4E
:1088A000664905A811F0B6FF05AA3146022003F07B
:1088B000C7FF05A811F068FF664B67491A785F4843
:1088C0000EF036FD5D4905A811F0A4FF05AA402170
:1088D000022003F0B5FF05A811F056FF22685F499A
:1088E00056480EF025FD554905A811F093FF05AA3D
:1088F0003146032003F0A4FF05A811F045FFD9F885
:10890000002057494D480EF013FD4C4905A811F0C1
:1089100081FF05AA4021032003F092FF05A811F072
:1089200033FF504B50491A88444812B20EF000FDF4
:10893000424905A811F06EFF05AA3146042003F054
:108940007FFF05A811F020FF484B49491A783B48A2
:1089500052B20EF0EDFC394905A811F05BFF05AAF3
:108960004021042003F06CFF05A811F00DFFA9E0E1
:1089700004F03CFD17E72268384930480EF0D8FC77
:108980002E4905A811F046FF05AA4146012003F033
:1089900057FF05A811F0F8FED9F800203049274804
:1089A0000EF0C6FC254905A811F034FF05AA4021A8
:1089B000012003F045FF05A811F0E6FE3A782D49A5
:1089C0001E480EF0B5FC1D4905A811F023FF05AAAD
:1089D0004146022003F034FF05A811F0D5FE3B7894
:1089E000013B0F2B00F2A480DFE803F04684868869
:1089F0008A8C8E90929496989A9C9EA011E3002067
:108A0000B0D50020DCD90020D4D90020A4A10020BA
:108A100030D7002058E3002034D70020C4D60020EF
:108A2000AFD5002000D7002004A30020C8D6002026
:108A3000111B0700A8170700221B0700B5D500204F
:108A4000AED50020B7D60020B5D600201C1A0700EE
:108A5000301A0700B6D60020391A0700421A07005C
:108A60004A1A0700B2D50020521A0700B4D50020D8
:108A70005D1A0700671A0700674968480EF08FFC07
:108A8000664905A811F0C6FE05AA0021032003F0DF
:108A9000D7FE05A811F078FE614811F0EFFB61499F
:108AA00002465E480EF044FC5C4905A811F0B2FE97
:108AB00005AA0021042003F0C3FE05A811F064FEFE
:108AC00003F0D8FE6B7A032B48D1574B1868246803
:108AD00048F042F9009402460B46504853490EF0C4
:108AE00027FC4E4905A811F095FE05AA0021052096
:108AF000FEF7AABF4E49C0E74E49BEE74E49BCE764
:108B00004E49BAE74E49B8E74E49B6E74E49B4E791
:108B10004E49B2E74E49B0E74E49AEE74E49ACE7A1
:108B20004E49AAE74E49A8E74E49A6E74E49A4E7B1
:108B30004E49A2E74E4905A811F06CFE05AA314640
:108B4000022003F07DFE05A811F01EFE494905A88C
:108B500011F060FE05AA3146032003E7464B474962
:108B60001A682E4823680EF0E3FBBAE704F0E0FA37
:108B7000434B5C7A34B1012C29D0424B00221A704D
:108B8000FFF79CBA03F040FE3F48012103F0DCFCF4
:108B90003E4905A811F03EFE05AA2146204603F0F5
:108BA0004FFE05A811F0F0FD39491C480EF0F7FB07
:108BB0001A4905A811F02EFE05AA2146032003F04C
:108BC0003FFE05A811F0E0FD03F054FED5E7314B60
:108BD0001B78002BD1D0304B1D78002DCDD103F068
:108BE00013FE2948214603F0AFFC2C4905A811F0DB
:108BF00011FE05AA2946284603F022FE05A811F019
:108C0000C3FD234905480EF0CAFB044905A811F02D
:108C100001FE05AA2946D1E7DB180700B5D50020DB
:108C200058E300207C1A0700CCD60020E51A070084
:108C3000E9180700F4180700001907000C190700CD
:108C400016190700201907002C1907004019070002
:108C50005319070063190700701907007A190700F4
:108C60008A19070098190700A4190700B519070009
:108C7000371B07004B1B0700C4D60020FD1A070056
:108C800004A30020D1D600201A180700C31907003A
:108C90005F1B0700AFD5002000D700205D1807003C
:108CA00010B5044605F048F9204610BD0F4BB0B191
:108CB00000221A700E4B0F4A18600F4B11685B7A36
:108CC000023B012B01F101010C4B116094BF072203
:108CD00002221A700A48FA22012111F042BC1B78C4
:108CE00013B1064B0822F4E7704700BFD1D600202D
:108CF000D4D60020C4D6002004A3002080D50020B4
:108D000011E30020174B00221A70174B90F9062030
:108D10001A70164BB0F904201A80154A03781370A4
:108D2000144A41781170144A81781170134A012154
:108D300011701BB1124A13680B441360114B124897
:108D40005B7A023B012B114B95BF072204221A705C
:108D50001A7099BF42F210720421FA22012111F017
:108D600000BC00BFD1D60020B4D50020B2D5002071
:108D7000B7D60020B5D60020B6D60020AED500204C
:108D8000C4D6002004A3002011E3002080D50020D9
:108D900038B5164BB0F90A201A80154B90F90C2003
:108DA0001A70144B42781A7003780446EBB1124BD8
:108DB0005B7A023B012B15D81048042111F0DBFB34
:108DC0002378023B012B0DD80D4D227A61680D48A6
:108DD00006232B700DF03EFD08482B46FA22012198
:108DE00011F0BFFB084B00221A7038BDB2D500202D
:108DF000B4D50020B1D5002004A3002011E3002049
:108E000080D5002082D50020D1D60020F0B5254D98
:108E1000297899B0002942D101231A2208A82B7081
:108E200007910DF025FD05A82AF0ECF805981E4CD9
:108E300000F5E0400FA96E302AF058F9149B1B4949
:108E400003F26C730393129B0293139B0133019300
:108E50000F9B009307A8DDE910320EF069FA149811
:108E600013999DF848209DF844309DF840609DF886
:108E70003C70227100F26C70013180B2C9B2208066
:108E8000A1706371A671E771094C24783CB102248A
:108E9000CDE900672C7004F03FFA04F083FA19B0B2
:108EA000F0BD00BFD0D60020D4D900206B1B070036
:108EB000DCD9002030B54FF080432DED028BD3F884
:108EC0003834032B83B027D01448144D11F014FB11
:108ED0000A24B0EE408A284611F00EFB013C38EE21
:108EE000008AF8D1B2EE067AC8EE077A9FED0C7AC6
:108EF000DFED0C6A67EE877A9FED0B7A67EE877A73
:108F000087EEA67AFCEEC77ACDED017A9DF80400D3
:108F100003B0BDEC028B30BD0020F9E70DE300206B
:108F200000007A440040834500007F4308B5064BAB
:108F30001B783BB111F0B3FEBDE808400146034881
:108F4000FEF7F2B908BD00BF01D70020B8D6002057
:108F50001E4B07B501221E481A7011F0A4F818B173
:108F60001C48002111F069F81B4811F0EDF91B496C
:108F70001B4811F0FBF81B49194811F007F91A4971
:108F8000174811F0FBF81949154811F007F918496D
:108F9000134811F00BF90021164811F045F9022190
:108FA000154811F0AFF932230122009311460A232C
:108FB0000B4811F09AF8114BD97A01B10121222006
:108FC00003B05DF804EB11F05EBE00BFA1A100206C
:108FD00084E300206EE300206DE30020918D020009
:108FE00049E30020AD8C0200A5730200058D02004C
:108FF0000D8E020051E300206BE3002004A300204B
:1090000008B50F4B0F480021197011F016F80E48E3
:1090100011F04DF80D490B4811F056F80C4909486C
:1090200011F05AF84FF6FD71064811F006F8094B99
:10903000D97A01B10121BDE80840222011F023BEF8
:10904000A1A100206EE3002084E30020F57302005C
:10905000D173020004A300201F4B07B501221F4853
:109060001A7011F020F818B11D48002110F0E5FF2A
:109070001C4811F069F91C491C4811F077F81C498B
:109080001A4811F083F81B49184811F077F81A496B
:10909000164811F083F81949144811F087F8002197
:1090A000174811F0C1F80221164811F02BF93223AC
:1090B000012200930D480A23114611F016F8124BB5
:1090C000DB7A33B10121222003B05DF804EB11F00B
:1090D000DABD03B05DF804FBA1A1002084E3002009
:1090E0006EE300206DE30020918D020049E3002033
:1090F000AD8C0200A5730200058D02000D8E0200EA
:1091000051E300206BE3002004A3002010B50B4CBA
:1091100000212046FEF7CEF82046094C094A0A49AC
:109120000DF02AFBFF21204604F0FAFE2046054AF6
:109130000649BDE810400DF01FBB00BFB8D60020A7
:10914000A4D5002090A10020BF720200A18C0200D3
:109150002DE9F04F012187B0222011F07DFD012182
:10916000232011F079FD0121242011F075FDAD4877
:10917000AD4E11F0F9FB03F0B3F9307068B1AB49B3
:10918000AB480EF00CF9AA48012103F0DDF9A9481B
:1091900003F0DCFAA84803F0D9FA0021222011F0EC
:1091A00072FD0223A54806224FF4E13110F08AFE39
:1091B0004FF08043D3F83834032B6FD14FF4FA606B
:1091C0001BF04EFB0723022203AC9D4900939848F5
:1091D0009C4D9D4F00230EF0ABF89549204611F0B1
:1091E00019FB2146994811F05BF9204611F0CCFAA1
:1091F0000121232011F047FD0021232011F043FD20
:109200000021242011F03FFD02F002FA02F0EAF9F9
:1092100002F064F902F078F902F08CF902F00EFA2B
:1092200002F01EFC00F03EFA002000F05DF96B7ABF
:10923000023B012B59D8012002F0BEFC38703B786C
:1092400013B1834803F082FA03F0C6FF814F3870F0
:1092500060B104F0A7F894E8030029F0B2FE02F030
:1092600095F93B7813B17C4803F070FA04F00AF9E1
:109270007A4F387048B104F0F5F9387002F070F99F
:109280003B7813B1764803F061FA02F095F96B7AF6
:10929000032B2ED8DFE803F051ADB6C311F0FFFC6D
:1092A000DFF898A107464FF0000B41F287384FF0E6
:1092B0000009504610F0EBFD002883D111F0EFFCBF
:1092C000C41B6BEB4B05A04579EB0503FFF67AAFAA
:1092D00064201BF0C5FA232011F0DAFCB0FA80F10B
:1092E0004909232011F0CFFCE3E7E87A0028A2D156
:1092F000A2E733780BB35B494D480EF050F84C4968
:10930000204611F087FA00212246084603F098FA19
:10931000204611F039FA544945480EF040F84449C6
:10932000204611F077FA22460021012003F088FA46
:10933000204611F029FA03F09DFA4C4803F006FA92
:109340004B4810F087FF10B94A4803F0FFF9FFF7C8
:10935000FFFD4FF47A7348496A683548B2FBF3F26F
:109360000DF0E6FF324803F0F1F9444A4448012386
:10937000002111F0ECF86A6822B100234048194638
:1093800011F0EFF83F4A3E480023012111F0DFF8C9
:1093900000233D4A3A48022111F0D9F8AB7A33B1A3
:1093A000374800234EF66022022111F0DAF8374ADE
:1093B00033480123032111F0CAF80023344A30480E
:1093C000042111F0C4F8334B1B785BB1284810F02E
:1093D00041FF38B93223012200932F480A23114656
:1093E00010F083FE01212D4811F02DFC07B0BDE8DF
:1093F000F08FFFF705FE2A4803F0A8F9294803F08B
:10940000A5F9A6E7284803F0A1F9194810F022FFB2
:1094100010B9184803F09AF9FFF71EFE99E72348A0
:10942000F1E700BF8CE30020AFD500201A18070039
:10943000B5D500208D1B07009A1B070030E20020E5
:10944000081F070004A30020ADD50020B8E20020CB
:10945000A61B0700DCD90020AE1B0700B0D50020FA
:10946000B51B0700C01B0700D21B0700C31907006C
:1094700054E30020E21B0700F719070039740200CB
:1094800011E3002029780200C9C80200C5C002000B
:109490008D730200A1A1002049E30020A9E2002071
:1094A00062180700F01B0700D2190700E319070034
:1094B0007047000008B5054804F0ACFE034804F00E
:1094C000C8FEBDE80840014804F0E2BED8D600203E
:1094D00007B531220DF10701024804F0E3FE03B0A5
:1094E0005DF804FBD8D6002073B500210446112096
:1094F00011F0B2FB524811F037FA524B002C00F039
:10950000848000229A800A22DA804FF481721A81C4
:1095100040F201125A814B4804F054FF05460028DE
:1095200040F08B80002C38D02A22302145488DF81D
:109530000720012604F060FD0822322141488DF801
:10954000072004F059FD324633213E488DF807606C
:1095500004F052FD24220DF107013A4804F0A2FE66
:109560009DF80720374822F00C0242F0080224211F
:109570008DF8072004F040FD6022222131488DF84B
:10958000072004F039FD2A4625212E4804F034FD39
:109590002C483246212104F02FFD002520220DF118
:1095A000070128488DF8075004F07CFE9DF807203D
:1095B000244842F0080220218DF8072004F01CFD09
:1095C00064201BF04DF91E220DF107011D488DF896
:1095D000075004F067FE9DF807201A4842F09002F9
:1095E0001E218DF8072004F007FD64201BF038F9D8
:1095F0008CB1FFF76DFF14490422112010F026FCF6
:10960000FFF758FF204602B070BD02229C80DC802C
:109610001A815C817FE720220DF10701094804F0DF
:1096200041FE9DF80720074802F0400220218DF8F6
:109630000720012404F0E0FCE4E70024E2E700BF97
:109640008CE30020D8D60020B194020002481822F2
:10965000002104F08BBC00BFD8D60020D0B511F09B
:109660001EFB0D4C0D4B0021C3E9000111F017FB4F
:10967000D4E90032C61A62EB4207C92E77F1000323
:1096800009DB11F00CFB064A2060002363601378AD
:109690000133DBB21370D0BDF0D60020F8D6002025
:1096A00001D7002008B50221092011F0D5FA06499A
:1096B0000322092010F0CAFB044905480123642253
:1096C000FDF710FE012008BD5D960200B99C020066
:1096D000B8D600202DE9F04FC74D91B011F0DFFA58
:1096E000D5E900230024811A64EB03030091019360
:1096F000DDE9002340F6B8300021904271EB03030E
:10970000A346A246A146A0462746264677DB11F08F
:10971000C6FAD5E90023811A63EB43030291039350
:10972000DDE90223B2F5C87F73F1000373DA11F0AB
:10973000B6FAD5E90023811A63EB4303049105933C
:10974000DDE90434B3F5C87F74F1000380F285804D
:1097500011F0A5FAD5E90023811A63EB43030691C2
:109760000793DDE90634B3F5167F74F1000380F248
:10977000998011F094FAD5E90023811A63EB430331
:1097800008910993DDE90834B3F5487F74F10003CB
:1097900080F2AE8011F083FAD5E90023811A63EBE1
:1097A00043030A910B93DDE90A34B3F5966F74F124
:1097B000000380F2C08011F072FAD5E90023811A0B
:1097C00063EB43030C910D93DDE90C34B3F5AF6FFC
:1097D00074F1000380F2D28011F061FAD5E9002320
:1097E000811A63EB43030E910F93DDE90E34B3F559
:1097F000C86F74F1000380F2E280082474E009204D
:1098000011F046FA002882D17C4B1B78002B3FF4E4
:109810007EAF022468E0794B1B78012B87D10920A9
:1098200011F036FA012882D10023C82C10D009206B
:10983000009311F02DFA009B012804BF0133DBB225
:10984000012001340093E4B21BF00AF8009BECE71E
:10985000C62B7FF66CAF002446E0684B1B78022BCA
:109860007FF476AF092011F013FA01287FF470AF6E
:109870000024BBF1C80F10D0092011F009FA01280B
:1098800008BF01344FF001000BF1010B08BFE4B237
:109890005FFA8BFB1AF0E4FFEBE7C62C7FF658AFBC
:1098A000012421E0554B1B78032BDCB27FF461AF20
:1098B0004FF0000BBAF1C80F12D0092011F0E8F9EF
:1098C000012808BF0BF1010B4FF001000AF1010A5A
:1098D00008BF5FFA8BFB5FFA8AFA1AF0C1FFE9E76B
:1098E000BBF1C60F7FF645AF204611B0BDE8F08F43
:1098F000424B1B78042BDCB27FF44CAF4FF0000AD4
:10990000B9F1C80F12D0092011F0C2F9012808BF1F
:109910000AF1010A4FF0010009F1010908BF5FFADD
:109920008AFA5FFA89F91AF09BFFE9E7BAF1C60FE4
:109930007FF630AFD8E7314B1B78052BDCB27FF4D4
:109940003AAF4FF00009B8F1C80F12D0092011F05A
:109950009FF9012808BF09F101094FF0010008F142
:10996000010808BF5FFA89F95FFA88F81AF078FFF2
:10997000E9E7B9F1C60F7FF61EAFB5E71F4B1B78BD
:10998000062BDCB27FF428AF4FF00008C82F11D0AF
:10999000092011F07DF9012808BF08F101084FF0F6
:1099A000010007F1010708BF5FFA88F8FFB21AF05B
:1099B00057FFEBE7B8F1C60F7FF60EAF94E70F4BFA
:1099C0001B78072BDCB27FF418AF0025C82E0FD010
:1099D000092011F05DF9012808BF01354FF00100A1
:1099E00006F1010608BFEDB2F6B21AF039FFEDE755
:1099F000C62D7FF602AF77E7F8D6002001D700200A
:109A000073B58B4D8B4C6A7A637A9A4231D002F0EF
:109A1000FBFE0021884802F097FD6B6863606B7A5B
:109A2000864863726B89638102F090FE844802F07D
:109A30008DFE02F01FFF01F027FE40F6B8301AF04D
:109A40000FFF637A7F48012B4FF000014FF0320681
:109A500040F0998010F0F1FA00227B4800960A232A
:109A6000114610F042FB794810F021FB784810F0C5
:109A700041FDEA7AE37A9A4207D06B7A023B012BE6
:109A800094BF0120002002F097F86A6863689A4248
:109A900003D16A8963899A4213D002F0B5FE674800
:109AA00002F054FE664802F051FE02F0E3FE6B68DD
:109AB00063606B89638101F0E7FD40F6B8301AF00E
:109AC000CFFE644810F03CFC002869D0624810F0DA
:109AD000C3FB624B1978884205D000395E4818BF35
:109AE000012110F0BBFB5E4810F0C8FB5D4B1978FC
:109AF000884202D05A4810F0C3FB5B4810F0D0FBFC
:109B00005A4B1978884202D0574810F0CBFB584D79
:109B100058482E7810F0D6FB86420BD0297855484D
:109B200010F0DCFB32230122009347480A23114640
:109B300010F0DBFA02F068FE637A012B71D06CD969
:109B4000023B012B6FD94FF47A7362684A49B2FB2A
:109B5000F3F24A480DF0ECFB484802F0F7FD62686A
:109B600022B100234648194610F0FBFCA37A002BD3
:109B70005BD0434800234EF66022022102B0BDE8CC
:109B8000704010F0EEBC10F058FA012200960A2343
:109B900011462D4810F0A9FA2E4810F0D5FB65E7C4
:109BA000384D3948296810F002FA374810F0FDF9AD
:109BB0002968884202D0344810F0F9F9334810F08F
:109BC00005FA334B1978884202D0304810F000FA79
:109BD000304D31482E7810F00AFA864203D02978A9
:109BE0002D4810F006FA2D4810F012FA2C4B197877
:109BF000884202D0294810F00DFA2A4810F01BFACA
:109C0000294B1978884202D0264810F025FA4FF6E1
:109C1000FD710C4810F011FA8CE7244802F096FD13
:109C200091E72348FAE72348F8E702B070BD00BF88
:109C3000D0A1002004A30020FE1B0700051C070084
:109C4000151C07006EE3002049E3002084E3002098
:109C5000A8E200206DE3002055E3002003D7002098
:109C600058E3002005D7002060E3002006D700203D
:109C700004D700206AE30020F7190700B5D50020BB
:109C800011E3002010D7002079E300207AE30020C0
:109C900014D700200BD700207BE300207CE30020BA
:109CA0000CD700207EE3002015D70020C319070041
:109CB00062180700E31907002DE9F04F87B0FFF79E
:109CC00009FD072800F2CC81DFE810F0BC044A034C
:109CD0000800CD01B00053002D001A00914B002068
:109CE0001870914B00240025C3E900458F4B1B7869
:109CF00023B107B0BDE8F04F02F0C4BD0120F8E782
:109D0000884B00221A70884B00200021C3E9000113
:109D1000874B1C783CB902F077FD8648214602F05B
:109D200013FC1AF0B4FD7F4B00221A707E4B00200A
:109D30000021C3E900017E4B1C7874B17E4B1A7878
:109D4000052A40F08D8110221A707C4BD97A01913E
:109D50009B7A00937A4B1B785BE002F055FD7948C3
:109D6000214602F0F1FB784807B0BDE8F04F10F053
:109D7000C1BB6C4B00221A706B4B00200021C3E961
:109D800000016B4B1B78002B00F06A816A4C237832
:109D9000052B00F26581DFE813F006006301630123
:109DA000220030004000694810F0CAFA0128634BD5
:109DB0000AD104222270D97A01919B7A64490093D6
:109DC00009786448FF2315E005222270D97A0191B1
:109DD0009B7A6149009309786048FF230AE0574B5A
:109DE0000322D97A5A7201919B7A009305235C4928
:109DF0005C48097802F06CFD32E107235A48237071
:109E000010F060FA4D4AD37A0193937A0093C3B26B
:109E10002278564956480978ECE7484B0E22D97A01
:109E2000227001919B7A0093524B94E73D4B0022A4
:109E30001A703D4B00200021C3E900013C4B1B7808
:109E4000002B00F0A5803C4C2378062B00F2088103
:109E5000DFE813F007001F03120020002A0057005C
:109E60006000364903224B7AC87A22700190897AC1
:109E700000910233DBB2BAE7304A937A83F00103F0
:109E80009372D27A019200930222FF233A493B480F
:109E90000978AFE7294B02225A72DA7A01929B7A4B
:109EA000009304230322A2E70A232F48237010F013
:109EB00009FAC0B20C280ED8DFE800F00717171D0A
:109EC000171D1D17171717171D002D4B00221A708D
:109ED0002C4B05221A70194A2B4BD17A1B78019111
:109EE000927A00920A33DBB292E7254B00221A7075
:109EF000244B0722EEE7224B00221A70214B0A2244
:109F0000E8E70E4B0D22D97A227001919B7A0093DB
:109F10001E4B20E7094BDA7A01929B7A00930023CB
:109F20003AE100BF01D70020F8D600204CA5002060
:109F300000D70020261C070002D70020D0A1002057
:109F400015D70020311C0700A8E200206DE3002097
:109F5000B8A20020A4A20020E8A20020D0A20020E5
:109F600078A2002064A200206AE30020CCA1002097
:109F7000C8A100200CD70020CCA20020BCA2002049
:109F80000AD7002008D7002005D700200BD70020D3
:109F90009E4810F0D5F9012862D19D4D6A7A012AB8
:109FA0005ED09C4E3278002A5AD19B4C9B4B20703D
:109FB0001B7804940BB902F065FC00219848DFF887
:109FC0006CB210F0D8FA974810F07CF9964B53F821
:109FD00020309648039310F051F94FF0000A0746DD
:109FE000039B33F81A2042B35FFA8AF1584610F007
:109FF00047F964201AF034FC0020FDF71DFA10F038
:10A000004EFE02463078059298B14FF47A701AF0FD
:10A0100027FC10F044FE059A42F21073B0EB0208E0
:10A020004FF0000161EB01090024434574EB090383
:10A03000E8DA4FF4FA601AF013FC0AF1010ABAF1F7
:10A04000100FCDD17948394610F01AF96A6822B15B
:10A0500000237348194610F084FA049A0023137001
:10A0600007B0BDE8F08F724B00221A70714B0024CC
:10A070000025C3E90045704B1B78002B00F041819F
:10A080006E4C2278102AEBD801A353F822F000BFBF
:10A09000D5A0020093A40200E7A00200F7A00200EE
:10A0A00009A1020065A1020077A102009DA10200A2
:10A0B00061A00200BBA10200E1A1020065A20200B2
:10A0C00089A20200A9A20200C7A2020061A00200A8
:10A0D000E3A2020002222270594BD97A01919B7AA5
:10A0E0000093FF23D2E6564AD37A83F00103D3725A
:10A0F0000193937AC7E6524B01225A72DA7A01929F
:10A100009B7A00930323CDE609234648237010F081
:10A11000D9F8C0B20C2814D8DFE800F00707070709
:10A12000070D1B07212121211B00464B00221A701D
:10A13000454B052204E0434B00221A70424B042297
:10A140001A703F4BDA7A01929B7A00933F4B1B784F
:10A150005EE63C4B00221A703B4B0622F0E7394B7F
:10A160000222E4E7364B0C22D97A227001919B7AC5
:10A170000093374BEFE5324B5A6842B142F20F7110
:10A180008A428ABFA2F51C520022103A5A60DA7A3B
:10A1900001929B7A0093FF2306223AE62D4A137818
:10A1A00013B1013BDBB200E00C231370244AD17AD7
:10A1B0000191927A009207222BE6244A21491378D2
:10A1C0000978994209D1204B1B7813701C4AD17A27
:10A1D0000191927A009209221BE6013BDBB2F4E77F
:10A1E0001D4A1E491378097899420BBF1C4B03F195
:10A1F000FF331B78DBB21370114BDA7A01929B7A32
:10A200000093124B1B780A2203E600BF6DE3002087
:10A2100004A30020D1D6002081D500204CA5002029
:10A2200011E300206AE30020FCA4002058E3002092
:10A2300001D70020F8D6002000D7002002D7002048
:10A24000D0A1002009D7002007D7002005D7002083
:10A2500014D7002004D7002006D700200AD70020FA
:10A2600008D70020A04AA1491368A3F5C333A03B37
:10A270008B4298BF9E4B13609E4BDA7A01929B7A79
:10A2800000930B22FF23C4E59B490B78062B1CBFD0
:10A2900003F1FF33DAB2974B0A70D97A01919B7AB6
:10A2A000009313460C22B4E5944A137813B1013B92
:10A2B000DBB200E0092313708E4AD17A0191927AC1
:10A2C00000920D22A5E58E4A117809B1481EC0B250
:10A2D0001070884AD37A0193937A009303460E2232
:10A2E00097E5884A1378052B02D0013BDBB200E0EA
:10A2F000162313707F4AD17A0191927A009210222C
:10A3000087E5814810F01CF8804B01281B781ED18E
:10A31000002B7FF4A5AE7E4B1B780BB902F0B2FA8E
:10A3200000217C4810F027F97B4B012200201A7095
:10A33000FDF782F8794B5A68002A3FF491AE00236A
:10A340007448194607B0BDE8F04F10F00AB9002B69
:10A350007FF486AE6E4B1B78002BE1D10120DDE748
:10A360006F4B704D704C00221A70704B0021002012
:10A37000C3E900012978002959D1664810F0FBF89B
:10A380000121644810F0F7F86248022110F0F3F858
:10A390005F4B1B7813B9012002F074FA01235F4A66
:10A3A0002B7000232370534B51685960517A5289A6
:10A3B00055485A8159720FF0C3FF0146D8B15C4825
:10A3C0000FF05CFF5B4B18705B480FF07BFF5B4B43
:10A3D00018705B480FF040FF5A4B18705A480FF046
:10A3E0005FFF5A4B18700023CDE90033227858499B
:10A3F00058480978FEE458480FF01FFE57480FF000
:10A40000D4FD394B186056480FF0E0FD3A4B1870F8
:10A4100054480FF0ECFD394B187053480FF0F8FD1D
:10A42000374B187051480FF006FE364BDAE72378A9
:10A43000102B3FF615AE01A252F823F081A40200C2
:10A4400093A40200A5A40200A9A40200BBA40200D8
:10A45000D3A4020031A60200D7A4020071A5020015
:10A460008DA50200A1A50200C3A50200D9A5020086
:10A47000F5A5020005A6020061A0020021A60200C7
:10A4800001221C4B2270D97A01919B7A0093FF2301
:10A49000BFE400222270174BD97A01919B7A009376
:10A4A000FF23A4E70622ECE7124B00225A72DA7A65
:10A4B00001929B7A00930223F4E40E49214BC87A5F
:10A4C0001B78082222700190897A00910A33DBB24E
:10A4D0009FE40B22D5E7194A13780C2B01D00133E6
:10A4E00060E6002361E600BF10D700207F47A11976
:10A4F0008047A119D0A1002014D700200BD700203D
:10A500000CD7002015D700206DE30020D1D6002005
:10A510004CA5002011E30020A2D5002004A30020B8
:10A5200001D7002000D7002002D70020F8D6002055
:10A5300058E3002005D700206AE3002004D700205C
:10A5400055E3002003D7002060E3002006D7002059
:10A5500000A30020ECA200206EE3002079E300209D
:10A560007AE300207BE300207CE300207EE30020F0
:10A570005C4A1378B3FA83F35B0913705A4AD17AB1
:10A580000191927A00920A33082242E4574A5849CC
:10A5900013780978994201D1564B15E601331DE62F
:10A5A000554A56491378097899420BBF544B0133E9
:10A5B0001B78DBB213704C4AD17A0191927A0092E7
:10A5C00021E6504A5049136803F5C333A0338B4248
:10A5D00094BF136011604FE64C4A13780C2B1ABFDE
:10A5E0000133DBB2062313703F4AD17A0191927A8C
:10A5F000009257E6464A1378092B01D0013357E6FB
:10A60000002358E6434A1378032B1ABF0133DBB209
:10A6100000231370344AD17A0191927A00925EE657
:10A620003D4A1378162B01D001335FE6052360E61F
:10A630002D4A536803F51C5310335360D37A0193AA
:10A64000937A6BE4354B00221A70354B354A002162
:10A650000020C3E90001117800293FF401AD324B1D
:10A66000197810293FF6FCAC01A050F821F000BF8A
:10A67000B5A60200C3A60200C3A60200C3A602003C
:10A68000C3A60200C3A60200DDA60200C9A60200FE
:10A69000C9A60200C9A60200C9A60200D3A60200EC
:10A6A000D3A60200D3A60200D3A6020061A0020036
:10A6B000D3A602000023137007B0BDE8F04FFFF7E8
:10A6C0009FB900221A70E6E604221A70064BFFF7C3
:10A6D00072BB05221A70044BFFF778BB02221A7076
:10A6E000FAE400BF03D70020D0A1002005D7002046
:10A6F00007D7002009D7002006D7002008D7002060
:10A700000AD7002010D700200070383914D7002055
:10A710000BD700200CD7002015D7002001D7002030
:10A72000F8D6002000D7002002D70020024B0122DB
:10A730001A700920704700BF16D7002070B598B076
:10A7400014460A490EA810F065F80023CDE9143329
:10A75000CDE91633636E012B0CD1054920680CF04E
:10A7600014FE48B1022400F0EDBC00BF3A5E0700C1
:10A77000BE7D0700002BF5D1B649B748B74CB84DA0
:10A78000B84E10F0CDF9B849B34810F0C9F9B14945
:10A79000B64810F0C5F9B449B44810F0C1F96420C6
:10A7A0001AF05EF8637AB24955F82320AA4810F0EF
:10A7B000B7F9AD49A84810F0B3F9637AAC4955F838
:10A7C0002320AA4810F0ACF9A749A84810F0A8F92E
:10A7D00064201AF045F8A74911A80FF06BFE11A9E3
:10A7E0000EA810F02AF811A80FF0CEFF0EA810F056
:10A7F00067F80E9AA049984810F092F99A4996483D
:10A8000010F08EF90E9A9C49984810F089F99649F3
:10A81000964810F085F964201AF022F8974911A89B
:10A820000FF028FE119A96498B4810F079F911A87B
:10A830000FF0AAFF8C49884810F072F98F4911A8CF
:10A840000FF018FE119A8E49884810F069F911A886
:10A850000FF09AFF8449854810F062F9642019F0DE
:10A86000FFFF4FF47A7562688649B2FBF5F27A48C9
:10A8700010F056F97C49784810F052F96268814925
:10A88000B2FBF5F2794810F04BF97749774810F0B0
:10A8900047F9642019F0E4FF7B480FF051FD7B4934
:10A8A00056F8202005466C4810F03AF96E496A487F
:10A8B00010F036F956F8252074496C4810F030F93C
:10A8C00069496A4810F02CF9642019F0C9FF012D7C
:10A8D00040F04E836E486F4E6F4D0FF0BBFC6F49DA
:10A8E000002814BF32462A465B4810F019F95E4929
:10A8F000594810F015F966480FF0ACFC674900287C
:10A9000014BF32462A465948654E10F009F9564997
:10A91000564810F005F9642019F0A2FF61480FF0C5
:10A92000D1FC6149054602464B4810F0F9F84E4902
:10A93000494810F0F5F82A465B494C4810F0F0F809
:10A9400049494A4810F0ECF8642019F089FF56F89C
:10A9500025205649404810F0E3F843493E4810F09E
:10A96000DFF856F825205149404810F0D9F83E4903
:10A970003E4810F0D5F8642019F072FF4C480FF0F3
:10A9800062FC002800F0BE814A49334810F0C8F844
:10A990003549314810F0C4F84649344810F0C0F841
:10A9A0003149324810F0BCF8642019F059FF0822F0
:10A9B00014A941480FF026FC9DF8573005939DF8E7
:10A9C000563004939DF8553003939DF8543002930C
:10A9D0009DF8533001939DF852309DF8502037492F
:10A9E00000931D489DF8513010F09AF81E491A48FE
:10A9F00010F096F89DF8573005939DF85630049363
:10AA00009DF8553003939DF8543002939DF85330D0
:10AA100001939DF852309DF8502028490093134827
:10AA20009DF8513010F07CF80F49104810F078F87C
:10AA3000642019F015FF082214A921480FF0BEFB6D
:10AA40009DF8573005939DF8563004939DF8553086
:10AA500038E000BFA11C070030E2002004A3002062
:10AA600070A40020CCA30020385E070094E20020F0
:10AA7000B01C0700E8E20020BE1C0700ACE200208A
:10AA8000D54B0700C91C07006DE30020D91C070047
:10AA900054E300202D5B0700931C0700E91C07000E
:10AAA00098A300206AE30020F41C0700FF1C0700A5
:10AAB00053E300200A1D07004EE30020141D070089
:10AAC0004AE3002003939DF8543002939DF85330DD
:10AAD00001939DF852309DF850207D4900937D48A8
:10AAE0009DF8513010F01CF87B497A4810F018F8A6
:10AAF0009DF8573005939DF8563004939DF85530D6
:10AB000003939DF8543002939DF8533001939DF8C0
:10AB100052309DF850206E49009370489DF8513096
:10AB20000FF0FEFF6C496D480FF0FAFF642019F03A
:10AB300097FE102214A96A480FF049FB9DF85F3078
:10AB40000D939DF85E300C939DF85D300B939DF84E
:10AB50005C300A939DF85B3009939DF85A30089356
:10AB60009DF8593007939DF8583006939DF857305B
:10AB700005939DF8563004939DF8553003939DF846
:10AB8000543002939DF8533001939DF852309DF854
:10AB90005020544900934F489DF851300FF0C0FFAA
:10ABA0004D494C480FF0BCFF9DF85F300D939DF868
:10ABB0005E300C939DF85D300B939DF85C300A93EA
:10ABC0009DF85B3009939DF85A3008939DF85930F1
:10ABD00007939DF8583006939DF8573005939DF8DC
:10ABE000563004939DF8553003939DF854300293EA
:10ABF0009DF8533001939DF8523000939DF85020FA
:10AC00009DF85130374935480FF08AFF32493348B3
:10AC1000354E364D0FF084FF642019F021FE344983
:10AC20002C480FF07DFF2C492A480FF079FF30495E
:10AC30002A480FF075FF284928480FF071FF64205B
:10AC400019F00EFE627A2B4922480FF069FF224963
:10AC500020480FF065FF627A264920480FF060FF18
:10AC60001D491E480FF05CFF642019F0F9FDA27A1F
:10AC700021491848002A14BF32462A460FF050FFD7
:10AC8000154914480FF04CFFA27A1B491348002ABB
:10AC900014BF32462A460FF043FF0F490F48174EA4
:10ACA0000FF03EFF642019F0DBFD15481AF0F0F8B4
:10ACB0000025B4F88E20EBB2934205F1010580F235
:10ACC0003D8223443046197B1AF0E2F8F1E700BFD9
:10ACD0003C1D070030E20020385E070094E20020AF
:10ACE0004BE30020641D07009E1C0700221C070088
:10ACF000C51E0700D51E0700E31E0700739F07004F
:10AD0000F41E0700904991480FF00AFF90498F48C0
:10AD10000FF006FF8C498F480FF002FF8C498D48D9
:10AD20000FF0FEFE642019F09BFD14A910228A4842
:10AD30000FF056FA9DF85F300D939DF85E300C933E
:10AD40009DF85D300B939DF85C300A939DF85B3065
:10AD500009939DF85A3008939DF8593007939DF850
:10AD6000583006939DF8573005939DF8563004935C
:10AD70009DF8553003939DF8543002939DF853305D
:10AD800001939DF852309DF85020009373499DF82F
:10AD900051306E480FF0C4FE6D496C480FF0C0FE94
:10ADA0009DF85F300D939DF85E300C939DF85D30FB
:10ADB0000B939DF85C300A939DF85B3009939DF8E6
:10ADC0005A3008939DF8593007939DF858300693F0
:10ADD0009DF8573005939DF8563004939DF85530F3
:10ADE00003939DF8543002939DF8533001939DF8DE
:10ADF00052309DF85020009358499DF851305548E5
:10AE00000FF08EFE524953480FF08AFE642019F06D
:10AE100027FD14A9102252480FF0FDF99DF85F306C
:10AE20000D939DF85E300C939DF85D300B939DF86B
:10AE30005C300A939DF85B3009939DF85A30089373
:10AE40009DF8593007939DF8583006939DF8573078
:10AE500005939DF8563004939DF8553003939DF863
:10AE6000543002939DF8533001939DF852309DF871
:10AE7000502000933B499DF8513034480FF050FE6C
:10AE8000334932480FF04CFE9DF85F300D939DF82A
:10AE90005E300C939DF85D300B939DF85C300A9307
:10AEA0009DF85B3009939DF85A3008939DF859300E
:10AEB00007939DF8583006939DF8573005939DF8F9
:10AEC000563004939DF8553003939DF85430029307
:10AED0009DF8533001939DF852309DF85020009317
:10AEE00020499DF851301B480FF01AFE18491948A7
:10AEF0000FF016FE642019F0B3FC14A904221A48BE
:10AF00000FF077F99DF8533001939DF852309DF87A
:10AF10005020009315499DF851300C480FF000FE69
:10AF20000B490A480FF0FCFD9DF8533001939DF842
:10AF3000523000939DF850209DF851300B49054840
:10AF40000FF0EEFD62E600BFAC1D070030E200200E
:10AF5000385E070094E200204CE30020B51D070096
:10AF600050E30020FE1D07004DE30020471E0700B0
:10AF70007748002D40F09B800FF017F87549024686
:10AF800075480FF0CDFD754973480FF0C9FD704845
:10AF90000FF00BF86F49024671480FF0C1FD6F4981
:10AFA0006F480FF0BDFD642019F05AFC6D480FF09A
:10AFB0000DF86D49024668480FF0B2FD67496648D2
:10AFC0000FF0AEFD67480FF001F86749024664488C
:10AFD0000FF0A6FD614962480FF0A2FD642019F050
:10AFE0003FFC62480FF003F8614902465A480FF0EF
:10AFF00097FD5A4958480FF093FD5C480EF0F7FF53
:10B000005B49024656480FF08BFD544954480FF0F7
:10B0100087FD642019F024FC56480EF0F9FF5649CC
:10B0200002464D480FF07CFD4C494B480FF078FD2F
:10B0300050480EF0EDFF5049024649480FF070FDB0
:10B04000464947480FF06CFD642019F009FC4B4855
:10B050000EF0EFFF4A4902463F480FF061FD3F49BD
:10B060003D480FF05DFD45480EF0E3FF44490246C0
:10B070003B480FF055FD394939480FF051FD642028
:10B0800019F0EEFB3F480EF0D6FF3F49024632482A
:10B090000FF046FD314930480FF042FD39480EF0BF
:10B0A000CAFF394902462E480FF03AFDAEE50EF0D0
:10B0B0007CFF2849024628480FF032FD27492648E0
:10B0C0000FF02EFD22480EF070FF22490246244860
:10B0D0000FF026FD214922480FF022FD642019F0CF
:10B0E000BFFB2A480EF0DBFF294902461A480FF041
:10B0F00017FD1A4918480FF013FD24480EF0CFFF32
:10B100002349024616480FF00BFD144914480FF06E
:10B1100007FD642019F0A4FB1E480EF0C2FF1E4973
:10B1200002460D480FF0FCFC0C490B480FF0F8FCF0
:10B1300018480EF0B6FF18490246B4E7074819F060
:10B14000A7FE00240EA80FF01FFB204618B070BD0C
:10B1500079E30020601E070030E20020385E07001F
:10B1600094E200207AE300206F1E07007BE30020BA
:10B17000771E07007CE300207F1E07007DE3002090
:10B18000871E07007EE300209C1E070082E300204C
:10B19000AA1E070083E30020B71E070073B5556E93
:10B1A000012D0E4625D1144910680CF0EEF8044626
:10B1B000E0B90725CDE90005022332460F491048C2
:10B1C0000FF0AEFC0F490E480FF0AAFC02233246E6
:10B1D000CDE9004509490C480FF0A2FC09490A488D
:10B1E0000FF09EFC642019F03BFB2546284602B078
:10B1F00070BD0125FAE700BFBE7D0700051F0700EF
:10B2000030E20020385E070094E200202DE9F84F7C
:10B21000614B1B78002B00F0BD80604B1B78002B2E
:10B2200040F0B680556E012D40F0B480D2F800A0F9
:10B230005B4950460CF0A9F80446002866D1594BEA
:10B2400059495A481D700FF06BFC57495748DFF8B1
:10B2500080B10FF065FC544955480FF061FC52492C
:10B2600053480FF05DFC642019F0FAFA214651486A
:10B270000FF081F929464F480FF07DF902214D4822
:10B280000FF079F901F0C0FA21464B4801F05CF962
:10B290004A4801F05BFA4A4801F058FA01F0EAFA2C
:10B2A0000FF0FDFC4FF0000A054642F21076002731
:10B2B0009BF800308BB94FF47A7019F0D1FA0FF087
:10B2C000EEFCB0EB05086AEB4A09464577EB09034B
:10B2D000EEDA03242046BDE8F88F02F04BF932493C
:10B2E00032480FF01DFC304930480FF019FC2E4950
:10B2F0002F480FF015FC2C492D480FF011FC64204D
:10B3000019F0AEFA2F480FF0F5F8E3E72E49504652
:10B310000CF03BF8044600283CD1224BDFF8B0B0DB
:10B320001D70014623480FF026F9294621480FF0E9
:10B3300022F902211F480FF01EF901F065FA21469B
:10B340001D4801F001F9214801F000FA1C4801F004
:10B35000FDF901F08FFA0FF0A2FC4FF0000A05464C
:10B3600044F620684FF000099BF800306BB94FF4A9
:10B370007A7019F075FA0FF092FC461B6AEB4A07D7
:10B38000B04579EB0703EFDAA3E702F0A7F8B9E7D6
:10B3900000249FE702249DE7B0D5002016D70020A7
:10B3A000BE7D070000D70020385E070030E2002095
:10B3B00094E2002011E30020FE1B07001F1F07007E
:10B3C000151C0700A8E20020B96307002F1F070023
:10B3D000D8A300202DE9FF41536E012B0D461446E2
:10B3E00024D1394910680BF0D0FF044620B1022463
:10B3F000204604B0BDE8F08101F0D4FF294633486F
:10B400000FF05AFB324931480FF044FB314A3249C0
:10B41000D37903939379029353790193137900932A
:10B4200093782A4812880FF07BFBE1E7052BDED1E9
:10B43000161F02F1100756F8045F28460BF0B7FFFD
:10B440002B462844984205D013F8012B303A092A9C
:10B45000F8D9CCE7BE42EED10022114620680CF0AC
:10B4600013F940F2D233A0F2E6729A420546BED8F2
:10B470000022606811460CF007F9431E0B2B0646AC
:10B48000B5D80022A06811460CF0FEF8431E1E2B12
:10B490000746ACD80022E06811460CF0F5F81828F1
:10B4A0008046A4D80022206911460CF0EDF83B2814
:10B4B0009DD8C2B200925FFA88F3FAB2F1B2A8B294
:10B4C00001F0E2FE002493E7BE7D070030E2002099
:10B4D0009E210700D4D900203F1F070007B5032392
:10B4E0000193054B0093054B054A064819460FF09A
:10B4F0000CF803B05DF804FB01B70200521F07000F
:10B500005A1F07000EE3002007B503230193054BE4
:10B510000093054B054A064819460EF0F6FF03B0A6
:10B520005DF804FBCDB70200B21F0700B71F07008C
:10B530000EE3002007B503230193054B0093054B51
:10B54000054A064819460EF0E0FF03B05DF804FB1B
:10B55000CDB80200152007001A2007000EE30020D6
:10B5600007B503230193054B0093054B054A064895
:10B5700019460EF0CAFF03B05DF804FB0DB20200DD
:10B5800041200700462007000EE3002007B50323F3
:10B590000193054B0093054B054A064819460EF0EA
:10B5A000B4FF03B05DF804FBD5B302005C200700D4
:10B5B000602007000EE3002007B503230193054B2D
:10B5C0000093054B054A064819460EF09EFF03B04E
:10B5D0005DF804FB95B90200872007008C20070066
:10B5E0000EE3002007B502230193054B0093054BA2
:10B5F000054A064819460EF088FF03B05DF804FBC3
:10B600003DA70200F5200700FC2007000EE3002004
:10B6100007B502230193054B0093054B054A0648E5
:10B6200019460EF072FF03B05DF804FB9DB10200F5
:10B63000132107001A2107000EE3002010B50D4C5E
:10B640000D4986B003A80FF0E5F803A920460EF0D7
:10B6500047FF03A80FF098F802230193074B0093CC
:10B66000074B084A194604F126000EF04EFF06B0BB
:10B6700010BD00BFE8E20020322107002DA7020024
:10B680003A2107004321070070B5194C19491A4E99
:10B69000C2B09022201D0BF0DDF89021201D19F082
:10B6A00039FF00252060FE22294602A801950BF0F3
:10B6B000DFF8B4F88E30E8B2984205F1010508DAF7
:10B6C000231831461A7B01AB03EB40000BF030FE30
:10B6D000EFE7074A0948942300210EF02EFF28B90E
:10B6E0000146034A054894230EF027FF42B070BD7F
:10B6F000DCA3002008A30020739F07000FE30020B5
:10B70000F8B5536E012B0E4602D002242046F8BD38
:10B710001568274928460BF038FE044660B12846D4
:10B720000BF045FE2A462844904224D012F8013BF3
:10B73000303B092BF8D9E8E71E4F1F497B681F48AB
:10B7400032464FF47A75B3FBF5F30FF0E9F91C4973
:10B750001A480FF0E5F97B681749B3FBF5F3324659
:10B7600018480FF0DDF9164916480FF0D9F9642092
:10B7700019F076F8CAE70A22002128460BF084FF68
:10B78000B0F5E15FC1D80B4C4FF47A735843606059
:10B7900000210D480EF0EFFE626822B100230A4836
:10B7A00019460EF0DEFEFFF76FFF0024AEE700BF84
:10B7B000BE7D070004A300206621070030E20020C0
:10B7C000385E070094E2002011E30020536E012B45
:10B7D00070B50E4602D00224204670BD156833496C
:10B7E00028460BF0D2FD044660B128460BF0DFFD81
:10B7F0002A46284490421ED012F8013B303B092BC8
:10B80000F8D9E8E72A4D2B496B7A2B4832460FF0DE
:10B8100087F92A4928480FF083F96B7A2549284887
:10B8200032460FF07DF9254925480FF079F964205B
:10B8300019F016F8D0E70A22002128460BF024FF61
:10B840000328C8D81A4C637A984223D06072FFF755
:10B850001BFF637A012B22D01ED9023B012B21D979
:10B86000184915480FF05CF9144913480FF058F9BE
:10B87000144913480FF054F9104911480FF050F9CA
:10B88000642018F0EDFF41F2883018F0E9FF0E480F
:10B890000EF030FE00249FE7FDF75AFBE0E7FDF7CE
:10B8A000AFFBDDE7FDF7D8FBDAE700BFBE7D0700A1
:10B8B00004A300206D21070030E20020385E07005D
:10B8C00094E2002073210700A8E20020F8B5536E2F
:10B8D000012B0D4602D002242046F8BD17682549E9
:10B8E000254E38460BF051FD044678BBB6F88E3035
:10B8F000ABB92A46214922480FF012F921492048C4
:10B900000FF00EF92A461D491F480FF009F91D498D
:10B910001D480FF005F9642018F0A2FFDCE7294666
:10B920001A481B4F19F0B4FA2546B6F88E20EBB230
:10B93000934205F1010505DA33443846197B19F0C5
:10B94000A7FAF2E70F4819F0A3FAC5E738460BF05B
:10B950002EFD06F10C0201460546384613F088FD1F
:10B9600004460028B7D16D08A6F88E50FFF78CFE6C
:10B97000B2E700BFBE7D070004A3002090210700AE
:10B9800030E20020385E070094E200209C2107008E
:10B99000739F0700536E012B2DE9F3410E461546A8
:10B9A0002ED1274910680BF0F0FC044660BBDFF88D
:10B9B000AC80244F98F800300193234D3B780093DE
:10B9C000EB7A2249224832460FF0AAF82149204852
:10B9D0000FF0A6F898F8003001933B780093EB7ACB
:10B9E0001A491D4832460FF09BF81A491A480FF0C1
:10B9F00097F8642018F034FF204602B0BDE8F081CB
:10BA0000002B01DC0224F7E70022286811460BF026
:10BA10003BFE10F0FF0508D10B4BDC7A002CEBD07D
:10BA2000DD72FFF731FE0024E6E7012DEAD1064B77
:10BA3000DC7A002CF7D1DD72FFF726FEDCE700BFD1
:10BA4000BE7D0700DCD9002004A30020A021070050
:10BA500030E20020385E070094E20020B0D50020DC
:10BA6000F0B52E4D2E48C3B094232A4600210EF087
:10BA70005AFD0646B8B12B7AAA2B17D19021281D62
:10BA800019F048FD2B68274C834211D047F2305201
:10BA9000AA23C4E90123244BE3600423A4F88E30D5
:10BAA000FFF7F2FD0026304643B0F0BD0020E9E785
:10BAB0006B6863606B7AB5F88E20032B86BF00231A
:10BAC000374600276372802A6B89638106D9002379
:10BAD0002373A4F88E30FFF7D7FD07E0134914480D
:10BAE000A4F88E200AF0B6FE002FF4D10025FE2225
:10BAF000294602A801950AF0BBFE0E4FB4F88E301D
:10BB0000E8B2984205F10105CDDA231839461A7BCF
:10BB100001AB03EB40000BF00BFCEFE7DCA30020D4
:10BB20000FE3002004A3002001020304E8A3002087
:10BB300010A30020739F070010B5074B53F8202077
:10BB4000002332F813408C42D8B203D80133102BB3
:10BB5000F7D1184610BD00BFFCA4002013B501901A
:10BB60000F480EF0AFFB019980B2FFF7E5FF0446E6
:10BB70000C480EF083FBA0420FD20B4800F0E6FD0C
:10BB80000A490B4822460BF0D3FB094800F0DEFDC2
:10BB9000084B0020187002B010BD0120FBE700BF69
:10BBA0006AE3002058E3002015220700272207003F
:10BBB000B5D50020D1D600202DE9F3410121754EE5
:10BBC000074622200FF05FF84FF4FA7018F048FE95
:10BBD0003478002C7ED170497048009440F24C4378
:10BBE000422207F0ABFC054620B90024204602B0F3
:10BBF000BDE8F08169484FF0020840F24C42012153
:10BC000086F8008007F0B4FA654E002F57D040F256
:10BC10004C4322460121614807F022FB40F24C438D
:10BC2000424601215D4807F01BFB40F24C430622CF
:10BC300001215A4807F014FB0122114640F24C43FF
:10BC4000564807F00DFB40F24C43032201215348B4
:10BC500007F006FB40F24C43042201214F4807F055
:10BC6000FFFA40F24C4305224C48012107F0F8FA54
:10BC7000F37A40F24C42E3B10521484807F0BFFC9B
:10BC8000464840F24C432246012107F0BFFB43489F
:10BC900040F24C4107F072FA737A023B012B02D852
:10BCA000F47A002CA2D1002122200EF0ECFF2C46C9
:10BCB0009CE74FF4FA71394807F0E2FCE7E740F2FD
:10BCC0004C424FF0FF31354807F078FAFA2018F06F
:10BCD000C7FDE1E7002530493048009540F24C436C
:10BCE000422207F02BFC044600283FF47EAF40F2CE
:10BCF0004C420121294807F03BFA40F24C432A46C6
:10BD00000121264807F0ACFA40F24C4302220121FF
:10BD1000224807F0A5FA40F24C43062201211F48B1
:10BD200007F09EFA0122114640F24C431B4807F0EF
:10BD300097FA40F24C4303220121184807F090FA89
:10BD400040F24C4304220121144807F089FA40F2E2
:10BD50004C4305221148012107F082FA104BDB7A8F
:10BD600040F24C4283B105210C4807F048FC0B48D7
:10BD700040F24C432A46012107F048FB40F24C4177
:10BD8000064807F0FBF931E74FF4FA71034807F072
:10BD900077FCF3E724D700208CE3002054D7002061
:10BDA00004A30020000000002DE9F04FDFF80C8311
:10BDB000A94FAA4CAA4DDFF80893AA4E8BB00023D6
:10BDC00000220021C8E90023C7E900234FF0000A40
:10BDD0001C2203A82970C9F8001021700291C6F82E
:10BDE00000A00AF045FDA04902A80BF0D8FA9F4B2D
:10BDF0009F48DB7AA34640F24C41002B66D007F007
:10BE000008FDC117C8E9000140F24C41984807F00D
:10BE1000E5FCC117C7E9000140F24C41944807F026
:10BE200013FD40F24C41C9F80000914807F067FC4F
:10BE300007EE900AF8EE677A40F24C418C48C6ED66
:10BE4000007A07F0B0FC40F24C412070884807F0BF
:10BE50006EFC012829D1874902A80BF0A0FA96EDC3
:10BE6000007ADFED857AB4EEE77AF1EE10FA05D5C7
:10BE70007A4B1B78052B01D901232B702B7803F00B
:10BE8000FF04002B00F0D280D7E900E31A46D8F86F
:10BE90000430D8F800C01A434CEA0E00114650EAAC
:10BEA000010378D100242C70AAE0022801D1734943
:10BEB000D2E7032801D17249CEE7042801D17149A4
:10BEC000CAE705280CBF70496749C5E707F04CFC75
:10BED0000028D3D0012124200EF0D5FE644840F282
:10BEE0004C4107F024FC044600283DD15E4902A8DD
:10BEF0000BF055FA5E4840F24C4107F054FC634B9E
:10BF00008BF800001A78904242D1614A13780133CD
:10BF10001370022CB2D95E4B1B78012BAED90123D2
:10BF200040F24C4152482B7007F073FCC117C8E92E
:10BF3000000140F24C414E4807F050FCC117C7E9E0
:10BF4000000140F24C414A4807F07EFC40F24C416F
:10BF5000C9F80000464807F0D2FB07EE900AF8EE59
:10BF6000677AC6ED007A89E7012801D14949BEE721
:10BF7000022801D14849BAE7032801D14749B6E769
:10BF8000042801D13F49B2E70528B3D13E49AEE7C5
:10BF900088BF1870BDE7354B304D5B7A032B33D12A
:10BFA0003F4B40481B6872461BB2614601F008FFD8
:10BFB000D8E9000144F0FAFE25A3D3E9002345F0B7
:10BFC0004DF845F019FA384B1860D7E9000144F0F4
:10BFD000EDFE1FA3D3E9002345F040F845F00CFA2D
:10BFE000324B32681860324B1A604FF47A72D9F8CB
:10BFF000003093FBF2F32F4A13602F4B2A781A700C
:10C0000020460BB0BDE8F08FD9F8003096ED000A5D
:10C0100024484FF47A7193FBF1F395F900100091E5
:10C020001BB27246614601F0FFFDC1E71E4BC3F82B
:10C0300000A01E4BC3F800A01D4B4FF07E521A60AB
:10C040001C4B1C601C4B1C702DE700BFAFF3008025
:10C0500000000000D012634148D70020D8D800204B
:10C0600039D7002018D700203522070004A300206C
:10C0700054D700203C220700000096434B220700C3
:10C0800057220700632207006C22070050D70020C8
:10C0900051D70020752207007F2207008622070063
:10C0A000C8D60020A4D5002030D7002034D70020E7
:10C0B00028D700202CD7002038D7002040D70020D8
:10C0C0001CD700202DE9F041012186B023200EF07D
:10C0D000DAFDFFF769FE6B4F6B4E0446002800F057
:10C0E0009C806A4BD97A11B922200EF0CCFD684BA6
:10C0F000002264201A7018F0B3FB664803210EF08A
:10C100003AFA3B78002B36D0634B1B78002B32D1A8
:10C1100000F07AFB614800F019FB614B1868614B35
:10C120001D68614BD3F8008044F016FE02460B46B2
:10C130002846CDE90423CDF8088044F00DFEDDE962
:10C140000423CDE90001594959480BF0F1F858484A
:10C1500000F0FCFA574B1868574B1D7844F0FCFD73
:10C16000EDB202460B465248544900950BF0E0F8F8
:10C170004F4800F0EBFA524B1B781BB95148012194
:10C180000EF0CFF85048DFF8588101F0DFFE80B2A2
:10C19000FFF7E4FC0546E0B14B4801F0D7FE049000
:10C1A000494801F0D5FE01240023CDE900430246B1
:10C1B0000499464823460DF0B3FF38B988F80000CB
:10C1C000434A1368013313602C4604E088F80040AA
:10C1D000F6E788F800003B78002B49D0002C47D1C7
:10C1E0002D4B1B78002B43D100F00EFB304B1C7005
:10C1F000264BDB7A002B30D0364800F0A7FA364BBE
:10C200001A7862BB34882A4B2A20114694422ADDD0
:10C210001870013203F8011FF8E7304B32881B8891
:10C220009A42D8D3642018F01BFB194B19481C7094
:10C230002B4B03211C700EF09EF93D785DB1164B1F
:10C240001C78002CC7D1274919480BF0A8F81848CA
:10C2500000F07CFAB8E70124BDE72348CDE7234985
:10C2600013480BF065F8124800F070FA00F002FB7A
:10C270003388002101332320338006B0BDE8F0412C
:10C280000EF001BDAFD5002020D7002004A3002070
:10C29000ACD5002011E3002000D700208D2207003C
:10C2A00030D7002034D700202CD700209722070059
:10C2B000B5D5002028D7002038D70020A7220700B6
:10C2C000D0D600206CE30020A4D5002049E3002054
:10C2D000C8D60020D1220700D8D8002022D70020BD
:10C2E000D1D60020B9220700E7220700FA22070072
:10C2F00010B5054C204602F08DF82046034A04494B
:10C30000BDE810400AF038BA54D7002090A10020B0
:10C3100021EA02000020704738B590F83330044617
:10C320000D4613B1406B0EF01FFB94F83010606B9C
:10C330000EF05EFB606B802100F02DF8606B0368EF
:10C3400029461B689847606B0121BDE838400EF014
:10C350005BBB000010B5034B0360044607F06CFBA9
:10C36000204610BD6C24070010B50446406B0EF04B
:10C37000FBFA606B02490EF00BFB012010BD00BF01
:10C38000801A060010B50446FFF7E4FF20460CF0C3
:10C3900045FD204610BD0368C9B21B6818472DE94A
:10C3A000F84F90F83330044613B1406B0EF0DCFACE
:10C3B000658AC5F180054FF0000A05EBD575FF27AA
:10C3C0006D10D146D0463E46A38A5FFA8AF1B1EBA2
:10C3D000D30F28DA4FF0000C638A5FFA8CF0984292
:10C3E0001CDA11FB03F30344A2689BB212F803E0CA
:10C3F000E26812F803B0F3450BD08E4228BF0E4618
:10C40000884538BF8846874228BF0746814538BFE0
:10C41000814602F803E00CF1010CDDE70EF0B3F801
:10C420000AF1010AD0E7FF2E57D0236821219B692A
:10C4300020469847236857FA85F19B69C9B2204680
:10C4400098475FFA85FA23680AEB09019B69C9B22C
:10C4500020469847236822219B69204698472368F5
:10C4600031469B6920469847236841469B69204690
:10C4700098470025B04529D3BA46CA4521D845B9C1
:10C4800094F83010606B0EF0B3FA606B4021FFF748
:10C4900082FFA268606B638A06FB0323026813F8BD
:10C4A0000A1012680135EDB29047102D04D1606B6F
:10C4B00001210EF0A9FA00250AF1010A5FFA8AFAB1
:10C4C000DBE701360EF05FF8F6B2D3E72DB1606B13
:10C4D0000121BDE8F84F0EF097BABDE8F88F0000D3
:10C4E00038B51648164C0EF03FFA4FF4FA7018F0B3
:10C4F000B7F90125204684F8335007F054FE204652
:10C5000007F007FD204607F082FD204607F0EFFC0C
:10C51000C821204607F044FD204607F06BFD40236C
:10C52000F1222046642107F006FD0649204607F067
:10C53000DCFC2046FFF733FF284638BD8CE30020A3
:10C540009CD900208C24070030B52DED028B0446C9
:10C5500097B04F480D464F4907F0C7FC4C480021A3
:10C5600007F074FA00220B231146494800938023F8
:10C5700007F084FB4648012107F068FA444800218F
:10C5800007F0B1FC444B1B787BB1444B1B7863B183
:10C590005DB1434906A80EF03DF906AB00223C48C8
:10C5A000114607F03DFE06A81AE03E4BDD7A002D4D
:10C5B0002FD03D4B3D4918783D4A2346002808BFFF
:10C5C0000A463C4906A80AF0B3FE06A903A80EF0E5
:10C5D00021F900222E4803AB114607F021FE03A8E3
:10C5E0000EF0D2F84FF08043D3F8384414F0FF0433
:10C5F00016D0032C46D00B2200927F230021244822
:10C6000007F05BFA2248FFF7CAFE17B0BDEC028BB9
:10C6100030BD214606A80EF0FDF806AB2A46BEE75F
:10C6200025489FED268A244C0DF066FF0A252046FA
:10C630000DF062FF013D38EE008AF8D1F2EE047A87
:10C64000C8EE277A17EE900A44F086FB02460B46A6
:10C6500006A81B490AF06CFE82B206A90C4807F036
:10C6600025FC06A9044603A80EF0D4F8C4F17F0106
:10C67000074803AB002209B207F0D2FD03A80EF071
:10C6800083F8B8E70F4906A80AF089FE2246E4E7D6
:10C690009CD900208C2407000CDA0020B0D50020A3
:10C6A0000523070004A3002039D70020259F070099
:10C6B0005E620700132307000DE300200000000066
:10C6C000192307001F230700F0B51C481C4F1D4EFF
:10C6D0001A4D87B0002107F0B9F940230C22174802
:10C6E00000930021802307F0C9FA1749134807F087
:10C6F000FCFB1248012107F0A9F91048002107F0BE
:10C70000F2FB00243B78A34213DD06EB441103A89F
:10C710000EF080F804EB840252000C3203AB12B22C
:10C720000021284607F07CFD03A80EF02DF8013407
:10C73000E8E70248FFF733FE07B0F0BD9CD90020C0
:10C74000D9D80020DAD800208C24070070B5274CF7
:10C75000274D2278052A034638D105F120022946C3
:10C7600005F1400052F8046B41F8046B8242F9D1A4
:10C77000204AA2F1200102F1200052F8046B41F896
:10C78000046B8242F9D11C4AA2F1200102F120007F
:10C7900052F8046B41F8046B8242F9D1174AA2F1B6
:10C7A000200102F1200052F8046B41F8046B824230
:10C7B000F9D1134AA2F1200102F1200052F8046BD2
:10C7C00041F8046B8242F9D10422227020780D4A8C
:10C7D00005EB401020210AF077FD2378052B1CBFC4
:10C7E00001332370BDE87040FFF76EBFD9D8002039
:10C7F000DAD800201AD900203AD900205AD90020CE
:10C800007AD90020AA7D070007B50B48002107F060
:10C810001DF9402300930C2280230748002107F0D4
:10C820002DFA0548012107F011F9044B00221A7076
:10C8300003B05DF804FB00BF9CD90020D9D80020CC
:10C8400030B585B004460D4601A811460EF004F837
:10C8500004EB840252000C3201AB12B229460448A8
:10C8600007F0DEFC01A80DF08FFF05B030BD00BF62
:10C870009CD9002008B50248FFF791FD08BD00BF14
:10C880009CD9002070B504460B4D0C487CB107F0D4
:10C890002EFB01232B700A4B9B7A5BB1BDE87040E5
:10C8A000084800234EF6602202210DF05ABE07F020
:10C8B00030FB2C7070BD00BF4CA500209CD900201F
:10C8C00004A3002011E300200020FFF7DBBF0000DD
:10C8D0002DE9F04F89B015461C469DF848309DF86B
:10C8E0004CA0029180460193FFF78EFF012D6BD182
:10C8F0008C498D4C05A80DF08DFF002105AA084636
:10C90000FFF79EFF05A80DF03FFF627A032A0FD8BC
:10C91000DFE802F002545658844905A80DF07AFF6A
:10C92000012005AA0021FFF78BFF05A80DF02CFFC1
:10C930004FF47A7362687E49B2FBF3F27D487E4D14
:10C940007E4C0AF0F5FC7B4905A80DF063FF05AAB3
:10C9500000210220FFF774FF05A80DF015FFBAF1C2
:10C96000000F14BF2A462246754972480AF0E0FCBF
:10C97000704905A80DF04EFF05AA00210320FFF71E
:10C980005FFF05A80DF000FF019B6E49002B14BF4F
:10C990002A46224667480AF0CBFC664905A80DF0F6
:10C9A00039FF05AA00210420FFF74AFF05A80DF072
:10C9B000EBFEFFF75FFF09B0BDE8F08F6249ACE71F
:10C9C0006249AAE76249A8E7062D2BD1554905A877
:10C9D0000DF020FF002105AA0846FFF731FF05A84A
:10C9E0000DF0D2FE5B4905A80DF014FF05AA002149
:10C9F0000120FFF725FF05A80DF0C6FE564905A842
:10CA00000DF008FF05AA00210220FFF719FF05A875
:10CA10000DF0BAFE444B51495A684FF47A73B2FB99
:10CA2000F3F2B7E7072D60D13E4905A80DF0F2FEFD
:10CA3000002105AA0846FFF703FF05A80DF0A4FE94
:10CA4000474905A80DF0E6FE05AA00210120FFF7E1
:10CA5000F7FE05A80DF098FE424905A80DF0DAFE94
:10CA6000022005AA0021FFF7EBFE05A80DF08CFEC1
:10CA7000002C35D0631E0C2CDBB233D0651CEDB21C
:10CA8000394E2C4856F823100AF089FC294905A88C
:10CA90000DF0C0FE05AA40210220FFF7D1FE05A837
:10CAA0000DF072FE56F82420304922480AF040FC6E
:10CAB000204905A80DF0AEFE402105AA0320FFF78E
:10CAC000BFFE05A80DF060FE56F8251019480AF0C3
:10CAD00066FC184905A80DF09DFE05AA402162E7F5
