:020000022000DC
:1070000000000420F18F0300199003001B9003007F
:107010001D9003001F90030021900300000000005A
:1070200000000000000000000000000023900300AA
:107030002590030000000000000000000000000098
:10704000057F050027900300859D0500DD84050070
:1070500027900300457B05001D790500356106007A
:10706000279003001D84050031840500279003004C
:107070002790030027900300279003002790030028
:10708000396E06001D51050027900300279003006C
:107090002790030027900300BD57060027900300A8
:1070A00027900300279003004584050059840500BC
:1070B000279003002790030000000000000000005C
:1070C00027900300279003002790030071660600B5
:1070D000358105002790030027900300959A05004D
:1070E0000D9B0600279003004DC206000000000023
:1070F000000000002790030000000000416A060025
:10710000000000000000000000000000000000007F
:10711000000000000000000000000000000000006F
:10712000000000000000000000000000000000005F
:10713000000000000000000000000000000000004F
:10714000000000000000000000000000000000003F
:10715000000000000000000000000000000000002F
:10716000000000000000000000000000000000001F
:10717000000000000000000000000000000000000F
:1071800000000000000000000000000000000000FF
:1071900000000000000000000000000000000000EF
:1071A00000000000000000000000000000000000DF
:1071B00000000000000000000000000000000000CF
:1071C00000000000000000000000000000000000BF
:1071D00000000000000000000000000000000000AF
:1071E000000000000000000000000000000000009F
:1071F000000000000000000000000000000000008F
:1072000010B5054C237833B9044B13B10448AFF3E0
:1072100000800123237010BD60D500200000000015
:107220003801080008B5034B1BB103490348AFF30D
:10723000008008BD0000000064D50020380108006F
:10724000154B002B08BF134B9D46A3F5803A002138
:107250008B460F461348144A121A0FF029FB0F4BA6
:10726000002B00D098470E4B002B00D098470020F1
:10727000002104000D000D48002802D00C48AFF397
:1072800000800FF0C5FA200029000FF04BF80FF036
:10729000ABFA00BF0000080000000420000000005E
:1072A0000000000060D500203CC501200000000067
:1072B000000000000022C0E900220172704738B5CA
:1072C0000446006820B1856911F0C8FD2846F9E739
:1072D000204638BD006820B143688B4201D08069E8
:1072E000F9E77047F8B504460F4616461D46FFF706
:1072F000F1FF20B10123826005704370F8BD1C20AE
:1073000011F0B0FD012343700023C0E90333C0E94D
:10731000053323680570C0E9017613B92060606009
:10732000ECE763689861FAE72DE9F8430468164FC3
:1073300005460E464FF000081CB363680BB9A469FC
:10734000FAE72378002BFAD0E368A268F31A9A428E
:1073500002D961780029F2D09B1A636184F8018018
:10736000E66013F0C1FC63688146984713F0BCFCEB
:107370003B68A0EB0900206118442B7A3860002B91
:10738000DDD0BDE8F88300BF7CD50020034B044866
:1073900009221A700121FA2213F003B980D50020C6
:1073A00011E3002008B5074B50B103221A700648BC
:1073B000FA22012113F0F5F8044B00221A7008BDDF
:1073C0000522F3E780D5002011E30020D1D600206C
:1073D000054B064800221A70054B08221A7001213D
:1073E000FA2213F0DEB800BFD1D6002011E300204E
:1073F00080D5002084B004AB03E90700094BBDF938
:107400000A201A80084B9DF90C201A70074B084877
:1074100000221A70074B0121FA22197004B013F0F0
:10742000C0B800BFB2D50020B4D50020D1D600200E
:1074300011E3002080D500202DE9FF47DFF8D4A21A
:107440009B4D9C4EDFF8D082012700232F703370B4
:107450009AF80930023BBB42544600F25F819648DD
:1074600006F091FD9AF80B30002B00F0D280934A81
:1074700098F8003011789146002940F0B18083B12E
:107480008F4B1B786BB905F0DFF99AF80930022BA6
:107490000CBF8C488C48394605F076F88B4805F0CF
:1074A00075F904F099FC28B3894B1B781BB98948FE
:1074B000012112F056FFB4F88E0004F067FB00289B
:1074C00000F08E818449854813F036FB7A4806F037
:1074D0005DFD0390784806F05BFD01240023CDE9B3
:1074E0000043024603997E48234612F039FE0028E5
:1074F00071D162E07B4A117809BB7B4B1B7803F0AA
:10750000FF07E3B901236C4889F8003006F03BFD22
:10751000764B77481F8041F288326368B3FBF2F301
:10752000744A1380744B1F70744B40F6C4121F7062
:1075300003213B4604B0BDE8F04713F032B8002306
:10754000137098F800304BB15D4B1B7833B96C4920
:107550006C480FF044FF6B4805F018F9637A032B71
:107560002ED1694B54481B6800221BB2114606F00D
:1075700047FC574B1B781BB95648012112F0F1FE0E
:10758000B4F88E0004F002FB002800F02981524973
:10759000524813F0D1FA484806F0F8FC03904648E8
:1075A00006F0F6FC01240023CDE9004302460399CE
:1075B0004B48234612F0D4FD60B9287034700AE0BD
:1075C00000230093B7EE000A1A4619463A4806F01F
:1075D0004BFBCEE72C704C4A136801331360FFE07D
:1075E000002B00F0FD80364B1B78002B40F0F8801C
:1075F00005F02AF99AF80930022B0CBF31483248BD
:10760000394604F0C1FF414804B0BDE8F04705F039
:10761000BDB898F8003083B1294B1B786BB905F0E1
:1076200013F99AF80930022B0CBF26482648394630
:1076300004F0AAFF364805F0A9F8637A032B2DD190
:10764000314B1D481B6800221BB2114606F0D8FBC7
:107650001F4B1B781BB91F48012112F082FEB4F8A2
:107660008E0004F093FA002800F0BA801A491B48F3
:1076700013F062FA104806F089FC03900E4806F0F9
:1076800087FC00210123CDE900310246039914480B
:1076900012F066FD00289ED128709CE7002300931D
:1076A000B7EE000A1A461946034806F0DDFACFE79E
:1076B000D1D60020D8A30020A4D50020ACD500202E
:1076C00000D70020E8170700F8170700091807007F
:1076D000D0D600206CE300202418070030E2002000
:1076E00049E30020A2D5002081D5002020D700202A
:1076F00011E3002022D7002050D7002051D70020CE
:1077000032180700B5D50020C8D600204818070059
:107710005C18070004A30020AFD5002098F80030C3
:1077200073B1394B93F80080B8F1000F08D105F020
:107730008BF83648394604F027FF354B83F8008034
:10774000344806F020FC344812F01AFE00284AD0D3
:10775000324812F09FFD00283FD00121242013F071
:10776000B2FA2F4B1B78C3B12E4805F00FF82E4B01
:107770001B781BB92D48012112F0F3FDE77A9FB168
:1077800004F02AFB20B92A4A00231360294A136017
:10779000204806F0FBFB80B28FE61D4B1B780BB137
:1077A0002548E2E72548E0E7B4F88E0004F0EEF95A
:1077B000B0B12349234813F0BFF90197012700977F
:1077C000214A94F88E102148022312F0C9FC0028A7
:1077D0007FF401AF28703770FDE601232870337005
:1077E00004B0BDE8F0870121232013F06CFA1348A0
:1077F00004F0CCFF0123144A94F88E10144812F0C0
:107800005AFC01232B70E6E600D700206818070019
:10781000A2D50020A4D500206DE3002054E3002071
:1078200081D5002079180700D0D600206CE3002015
:1078300034D7002030D700208A1807009918070095
:107840002418070030E2002010A3002049E30020A4
:107850006EE30020000000002DE9F04F002189B008
:107860000446242013F02FFA0021232013F02BFAD2
:10787000002C00F03B842378013B072B00F2368478
:10788000DFE813F0080064010002AC025704DA04D8
:1078900098078C0905F06CFC874B1B78002B31D0C6
:1078A000864B1B78002B00F0958005F09BFD844AE9
:1078B000844B11881980917899701179D970517918
:1078C00019719179D27959719A710122DA717E49CF
:1078D00000221A720968D9607C49096819617C49DB
:1078E0001A755A75098849B2D9757A49097849B221
:1078F00019765A839A83DA83774A126812B21A8405
:1079000005F0B0FF754B1B78002B00F0EF83744B34
:107910001C78002C40F0EA83724973480FF05FFD39
:10792000714905A812F096FF05AA2146204604F0E9
:10793000A7FF05A812F048FF6C4B6D491A686A480A
:107940000FF016FD684905A812F084FF05AA21462C
:10795000012004F095FF05A812F036FF654812F0EB
:1079600044FB49F0F7F952A3D3E9002349F096FB11
:107970000B46024660495C480FF0FAFC5A4905A8DC
:1079800012F068FF05AA2146022004F079FF05A83D
:1079900012F01AFF594812F039FB59490246524871
:1079A0000FF0E6FC504905A812F054FF05AA214645
:1079B000032004F065FF05A812F006FF514812F0FD
:1079C00036FB092870D8DFE800F0085D5F61636569
:1079D00067696B6D05F02AFD69E74B4903A80FF055
:1079E000FEFC484812F023FB484B494953F820203D
:1079F0003D480FF0BDFC3C4905A812F02BFF05AA3D
:107A00004021032004F03CFF05A812F0DDFE4148B0
:107A100012F01EFB4049421D33480FF0A9FC3249C9
:107A200005A812F017FF05AA4021022004F028FF44
:107A300005A812F0C9FE264B38491A882A4812B206
:107A40000FF096FC284905A812F004FF05AA0021B2
:107A5000042004F015FF05A812F0B6FE1D4B3049B6
:107A60001A7852B220480FF083FC1F4905A812F083
:107A7000F1FE05AA4021042004F002FF05A812F03F
:107A8000A3FE31E32749A9E72749A7E72749A5E747
:107A90002749A3E72749A1E727499FE727499DE70A
:107AA00027499BE7274999E7274997E7AFF30080E4
:107AB0000000000080842E41B0D50020DCD90020D9
:107AC000D4D90020A4A1002030D7002034D7002032
:107AD000B2D50020B4D50020C4D60020AFD50020F8
:107AE00000D70020AB180700B5D50020C8D600206D
:107AF000B918070079E30020CD1807007AE30020C9
:107B0000682407007BE30020D41807007CA2002033
:107B10000A1907007CE3002081240700A31A07004C
:107B2000AE1A0700D8180700DC180700E018070095
:107B3000E4180700E9180700EF180700F518070018
:107B4000FB180700011907000619070005F010FBD4
:107B50007C4B00221A707C4B1B78002B2FD07B4B68
:107B60001B78002B65D005F03DFC794B794C1A88C9
:107B700022809A78A2701A79E2705A7922719A79E1
:107B8000DB796271A371744A74480023E371237234
:107B90001268E260724A1268226123756375E375A8
:107BA00023766383A383E3836E4B1B681BB223841A
:107BB00012F084FB40B284F8220005F053FE6A4BB9
:107BC0001B78002B00F09282684B1C78002C40F050
:107BD0008D8267496748684D0FF001FC654905A82B
:107BE00012F038FE05AA2146204604F049FE05A8F9
:107BF00012F0EAFD2A6861495E480FF0B9FB5D4961
:107C000005A812F027FE05AA2146022004F038FE3E
:107C100005A812F0D9FD2B68013B0F2B30D8DFE807
:107C200003F00B11131517191B1D1F2123252729DD
:107C30002B2D05F0FBFB98E751494E480FF0CFFB89
:107C40004C4970E04F49F8E74F49F6E74F49F4E7F0
:107C50004F49F2E74F49F0E74F49EEE74F49ECE76C
:107C60004F49EAE74F49E8E74F49E6E74F49E4E77C
:107C70004F49E2E74F49E0E74F49DEE74F49DCE78C
:107C80004F49DAE705F074FA374B1B78002B00F008
:107C90002D82364B1E78002E40F02882494C657AA2
:107CA000022D46D0032D4BD05DB9474905A812F0EF
:107CB000D1FD05AA2946084604F0E2FD05A812F008
:107CC00083FD4FF47A7362684049B2FBF3F22948AE
:107CD0000FF04EFB274905A812F0BCFD05AA0021B4
:107CE000012004F0CDFD05A812F06EFD384905A86D
:107CF00012F0B0FD002105AA022004F0C1FD05A884
:107D000012F062FD24491B480FF069FB194905A8D0
:107D100012F0A0FD002105AA032004F0B1FD05A882
:107D200012F052FD2A4905A812F094FD05AA00217F
:107D3000A1E6284905A812F08DFD05AA3146BAE74B
:107D40002549F7E7D1D60020B0D50020DCD90020A6
:107D5000D4D90020A4A1002030D7002058E300206F
:107D600034D70020C4D60020AFD5002000D7002093
:107D700010190700B5D50020D4D600201F19070020
:107D80002919070037190700421907004E19070083
:107D90005A190700641907006E1907007A190700BD
:107DA0008E190700A1190700B1190700BE190700B5
:107DB000C8190700D8190700E6190700F2190700CB
:107DC000031A070004A30020111A0700451A070030
:107DD000FBC20700201A0700311A070005F0C8F996
:107DE000924B1B78002B3FD0914B1B78002B00F05F
:107DF000D78005F0F7FA8F4B8F4C1A8822809A783B
:107E0000A2701A79E2705A7922719A79DB796271DB
:107E1000A3718A4A8A480023E3711278D2B222728F
:107E2000884A1268E260884A12682261874A11888B
:107E300049B22175118849B26175128852B2E27552
:107E4000834A127852B222766383A383814B1B78D4
:107E5000E383814B1B681BB2238412F02FFA40B2DC
:107E600084F8220005F0FEFC7C4B1B78002B00F010
:107E70003D817B4B1C78002C40F03881794D7A4B4A
:107E800029787A4A7A48744FDFF80C82002918BFA3
:107E90001A4678490FF06CFA754905A812F0DAFC19
:107EA00005AA2146204604F0EBFC05A812F08CFC44
:107EB0002B7803F0FF06002B75D1664B6E491A78BC
:107EC0006B480FF055FA6A4905A812F0C3FC05AAE1
:107ED0003146012004F0D4FC05A812F075FC584886
:107EE00012F0ECF96549024661480FF041FA604929
:107EF00005A812F0AFFC05AA3146022004F0C0FC30
:107F000005A812F061FC4D4B5D491A7858480FF0F6
:107F10002FFA574905A812F09DFC05AA402102201E
:107F200004F0AEFC05A812F04FFCD8F8002055492B
:107F30004F480FF01DFA4E4905A812F08BFC05AA18
:107F40003146032004F09CFC05A812F03DFC3A6881
:107F50004D4947480FF00CFA454905A812F07AFC44
:107F600005AA4021032004F08BFC05A812F02CFC8C
:107F7000364B46491A883E4812B20FF0F9F93C498F
:107F800005A812F067FC05AA3146042004F078FC2D
:107F900005A812F019FC2E4B3D491A7852B261E542
:107FA00005F044FA27E7D8F80020364930480FF0AA
:107FB000DFF92F4905A812F04DFC05AA2146012042
:107FC00004F05EFC05A812F0FFFB3A682E49284831
:107FD0000FF0CEF9264905A812F03CFC05AA402175
:107FE000012004F04DFC05A812F0EEFB2A78294987
:107FF0001F480FF0BDF91E4905A812F02BFC05AA79
:108000002146022004F03CFC05A812F0DDFB2B7891
:10801000013B0F2B00F28B80DFE803F0406B6D6FAC
:1080200071737577797B7D7F81838587B0D50020DB
:10803000DCD90020D4D90020A4A10020B6D600208D
:1080400058E3002030D7002034D70020B2D50020DC
:10805000B4D50020B5D60020C4D60020AFD500206E
:1080600000D70020B7D60020A7180700001C070083
:10807000B5D50020591A07006A1A07007E1A0700B2
:10808000871A0700901A0700981A0700A01A07001D
:10809000AB1A0700B51A0700C8D6002049494A485C
:1080A0000FF09DF9484905A812F0D4FB05AA00215C
:1080B000032004F0E5FB05A812F086FB434812F00C
:1080C000FDF84349024640480FF052F93E4905A8E1
:1080D00012F0C0FB05AA0021042004F0D1FB05A882
:1080E00012F072FB04F0E6FB04F0E4FB09B0BDE81B
:1080F000F08F3849D3E73849D1E73849CFE73849D5
:10810000CDE73849CBE73849C9E73849C7E73849A7
:10811000C5E73849C3E73849C1E73849BFE73849B7
:10812000BDE73849BBE73849B9E73849B7E73849C7
:10813000B5E705F01DF8374B1B78002BD6D0364B32
:108140001E78002ED2D1354C657A022D31D0032D08
:1081500036D05DB9324905A812F07CFB05AA294644
:10816000084604F08DFB05A812F02EFB4FF47A733D
:1081700062682C49B2FBF3F213480FF0F9F8124988
:1081800005A812F067FB05AA0021012004F078FB86
:1081900005A812F019FB244905A812F05BFB002189
:1081A00005AA022004F06CFB05A812F00DFB1F4984
:1081B000A9E51F4905A812F04DFB05AA3146CFE7F6
:1081C0001C49F7E729190700B5D5002058E300201E
:1081D000CA1A070037190700421907004E1907008D
:1081E0005A190700641907006E1907007A19070069
:1081F0008E190700A1190700B1190700BE19070061
:10820000C8190700D8190700E6190700F219070076
:10821000031A0700AFD5002000D7002004A30020D8
:10822000111A0700451A0700FBC20700D31A0700FE
:10823000201A0700311A0700954F04F099FF7B7A46
:108240009449032B944B40F059811A785E78DD787D
:108250001C7993F8028093F805A093F907B00B7886
:1082600006EB0226C5EB4510B6B20A22B6FBF2F2C7
:1082700007EE902A05EB8005C4EB4410874AF8EE20
:10828000E77A04EB800408F138086D006400C2ED61
:10829000007A4FFA88F82DB224B24FEA2A1A914692
:1082A000002B3BD07E4B1B78002B00F0DC8005F0D0
:1082B00099F87C4A7C4B11881980917899701179D2
:1082C000D970517919719179D27959719A710322C2
:1082D000DA715FFA8AF21A72744A75481268DA60C3
:1082E000744A12681A610021734A197583F815805F
:1082F00083F816B0128852B2DA75704A127836B224
:1083000052B21A765D839C83D9831E8411F0D6FF06
:10831000654B40B283F8220005F0A4FA684B1B7845
:10832000002B3FF4E3AE674B1B78002B7FF4DEAEEF
:1083300004F08AFA7B7A022B0CBF63486348012160
:1083400004F022F95D4B62491A785B4B61481B8847
:1083500052B21BB20FF00CF85E4905A812F07AFA7F
:108360000021084605AA04F08BFA05A812F02CFAA1
:1083700043465A46584957480EF0FAFF554905A852
:1083800012F068FA05AA0021012004F079FA05A884
:1083900012F01AFA524651494E480EF0E9FF4D4983
:1083A00005A812F057FA05AA0021022004F068FA85
:1083B00005A812F009FA4A4905A812F04BFA05AAD5
:1083C0003221022004F05CFA05A812F0FDF94549BB
:1083D00005A812F03FFA05AA5021022004F050FA35
:1083E00005A812F0F1F9404905A812F033FA05AAE0
:1083F0000021032004F044FA05A812F0E5F9FE7A02
:108400003A4F002E32D02A46394932480EF0B0FF9A
:10841000304905A812F01EFA05AA3221032004F003
:108420002FFA05A812F0D0F931492A4822460EF059
:108430009FFF284905A812F00DFA05AA5021032034
:1084400004F01EFA05A812F0BFF9D9F800003C6844
:1084500048F0A2FC009402460B461E4825490EF047
:1084600087FFFFF7EDBB04F0E1FF22E7224919483F
:108470000EF0B5FF174905A812F0ECF905AA322154
:10848000032004F0FDF905A812F09EF9D1E700BF22
:1084900004A30020B0D5002082D50020CCD6002037
:1084A000DCD90020D4D90020A4A1002030D700209E
:1084B00058E3002034D70020B2D50020B4D50020E6
:1084C000AFD5002000D70020E8170700F8170700F5
:1084D000E91A0700B5D50020001B0700171B07008D
:1084E000221B0700261B07002A1B0700C8D60020F6
:1084F0007B1A0700331B0700481B0700DD7893F841
:1085000001809E7893F805A0C5EB451205EB820526
:108510001A790B78C2EB421902EB8909A8F1C80855
:10852000C83E6D004FEA49091FFA88F8B6B22DB26D
:108530000FFA89F9002B3CD0864B1B78002B00F0FA
:10854000F58004F04FFF844B844C1A8822809A787F
:10855000A2701A79E2705A7922719A79DB79627184
:10856000A3710223E3717E4B84F808A01B68E360CB
:108570007C4B7D481B6823614FFA88F3237573B2E7
:1085800063757A4B1B885BB2E375794B1B785BB2E2
:10859000237600236583A4F81C90E383754B1B6846
:1085A0001BB2238411F08AFE40B284F8220005F049
:1085B00059F9714B1B78002B3FF498AD6F4B1B782A
:1085C000002B7FF493AD04F03FF97B7A022B0CBFB4
:1085D0006B486C48012103F0D7FF654B6A491A7854
:1085E000624B6A481B8852B21BB20EF0C1FE67494B
:1085F00005A812F02FF90021084605AA04F040F959
:1086000005A812F0E1F84FFA8AF261495F480EF0CE
:10861000AFFE5E4905A812F01DF905AA0021012050
:1086200004F02EF905A812F0CFF85A4905A812F067
:1086300011F905AA3221012004F022F905A812F04F
:10864000C3F8554905A812F005F905AA50210120E3
:1086500004F016F905A812F0B7F8504905A812F071
:10866000F9F805AA0021022004F00AF905A812F081
:10867000ABF84B4905A812F0EDF805AA002103203C
:1086800004F0FEF805A812F09FF80FFA88F24549A9
:108690003E480EF06DFE3D4905A812F0DBF805AA34
:1086A0003221022004F0ECF805A812F08DF832B265
:1086B0003C4936483C4E0EF05BFE344905A812F0AA
:1086C000C9F805AA3221032004F0DAF805A812F04F
:1086D0007BF8FC7A274F64B32A4632492B480EF0C8
:1086E00047FE2A4905A812F0B5F805AA5021022034
:1086F00004F0C6F805A812F067F82A4923484A464C
:108700000EF036FE214905A812F0A4F805AA502162
:10871000032004F0B5F805A812F056F83A6823498A
:1087200033681A480EF024FEFFF78ABA04F07EFE82
:1087300009E71F4915480EF052FE144905A812F02A
:1087400089F805AA5021022004F09AF805A812F031
:108750003BF8D7E7DCD90020D4D90020A4A1002021
:1087600030D7002034D7002058E30020B2D50020B5
:10877000B4D50020C4D60020AFD5002000D70020FB
:10878000E8170700F8170700E91A0700B5D5002019
:10879000171B0700366F07002A1B0700221B070064
:1087A000261B07007B1A0700C8D600204B1B0700BA
:1087B000481B070004F0DCFC9C48042111F0FBFE80
:1087C0009B4B1B78002B31D09A4B1B78002B00F071
:1087D000E78004F007FE984B984C1A8822809A781C
:1087E000A2701A79E2705A7922719A79DB796271F2
:1087F000A3710223E371924A924800232372126804
:10880000E260914A1268226123756375E3752376ED
:108810006383A383E3838D4B1B681BB2238411F016
:108820004DFD40B284F8220005F01CF8884B1B78FF
:10883000002B3FF45BAC874B1B78002B7FF456ACCE
:10884000854D864C04F000F86B7A032B0CBF8448EE
:108850008448012103F098FE834984480EF0BFFD4F
:10886000824905A811F0F6FF0021084605AA04F088
:1088700007F805A811F0A8FF7D4B1E78002E00F028
:1088800071817C4FDFF8C4914FF0000883F80080BD
:108890003B7803F0FF06002B40F08580764B77494C
:1088A0001A7872480EF064FD704905A811F0D2FFE5
:1088B00005AA3146012003F0E3FF05A811F084FF6B
:1088C000604811F0FBFC6E49024668480EF050FD0E
:1088D000664905A811F0BEFF05AA3146022003F043
:1088E000CFFF05A811F070FF664B67491A785F4803
:1088F0000EF03EFD5D4905A811F0ACFF05AA402130
:10890000022003F0BDFF05A811F05EFF22685F4959
:1089100056480EF02DFD554905A811F09BFF05AAFC
:108920003146032003F0ACFF05A811F04DFFD9F844
:10893000002057494D480EF01BFD4C4905A811F089
:1089400089FF05AA4021032003F09AFF05A811F032
:108950003BFF504B50491A88444812B20EF008FDB4
:10896000424905A811F076FF05AA3146042003F01C
:1089700087FF05A811F028FF484B49491A783B4862
:1089800052B20EF0F5FC394905A811F063FF05AAB3
:108990004021042003F074FF05A811F015FFA9E0A1
:1089A00004F044FD17E72268384930480EF0E0FC37
:1089B0002E4905A811F04EFF05AA4146012003F0FB
:1089C0005FFF05A811F000FFD9F8002030492748C3
:1089D0000EF0CEFC254905A811F03CFF05AA402168
:1089E000012003F04DFF05A811F0EEFE3A782D4965
:1089F0001E480EF0BDFC1D4905A811F02BFF05AA6D
:108A00004146022003F03CFF05A811F0DDFE3B7853
:108A1000013B0F2B00F2A480DFE803F04684868838
:108A20008A8C8E90929496989A9C9EA011E3002036
:108A3000B0D50020DCD90020D4D90020A4A100208A
:108A400030D7002058E3002034D70020C4D60020BF
:108A5000AFD5002000D7002004A30020C8D60020F6
:108A60005F1B0700E8170700701B0700B5D5002043
:108A7000AED50020B7D60020B5D600206A1A070070
:108A80007E1A0700B6D60020871A0700901A070042
:108A9000981A0700B2D50020A01A0700B4D500200C
:108AA000AB1A0700B51A0700674968480EF097FC33
:108AB000664905A811F0CEFE05AA0021032003F0A7
:108AC000DFFE05A811F080FE614811F0F7FB614957
:108AD00002465E480EF04CFC5C4905A811F0BAFE57
:108AE00005AA0021042003F0CBFE05A811F06CFEBE
:108AF00003F0E0FE6B7A032B48D1574B18682468CB
:108B000048F04AF9009402460B46504853490EF08B
:108B10002FFC4E4905A811F09DFE05AA0021052055
:108B2000FEF7AABF4E49C0E74E49BEE74E49BCE733
:108B30004E49BAE74E49B8E74E49B6E74E49B4E761
:108B40004E49B2E74E49B0E74E49AEE74E49ACE771
:108B50004E49AAE74E49A8E74E49A6E74E49A4E781
:108B60004E49A2E74E4905A811F074FE05AA314608
:108B7000022003F085FE05A811F026FE494905A84C
:108B800011F068FE05AA3146032003E7464B47492A
:108B90001A682E4823680EF0EBFBBAE704F0E8FAF7
:108BA000434B5C7A34B1012C29D0424B00221A701D
:108BB000FFF79CBA03F048FE3F48012103F0E4FCB4
:108BC0003E4905A811F046FE05AA2146204603F0BD
:108BD00057FE05A811F0F8FD39491C480EF0FFFBBF
:108BE0001A4905A811F036FE05AA2146032003F014
:108BF00047FE05A811F0E8FD03F05CFED5E7314B18
:108C00001B78002BD1D0304B1D78002DCDD103F037
:108C10001BFE2948214603F0B7FC2C4905A811F09A
:108C200019FE05AA2946284603F02AFE05A811F0D8
:108C3000CBFD234905480EF0D2FB044905A811F0ED
:108C400009FE05AA2946D1E729190700B5D5002054
:108C500058E30020CA1A0700CCD60020331B0700B7
:108C600037190700421907004E1907005A19070063
:108C7000641907006E1907007A1907008E1907009A
:108C8000A1190700B1190700BE190700C81907008C
:108C9000D8190700E6190700F2190700031A0700A0
:108CA000851B0700991B0700C4D600204B1B07003B
:108CB00004A30020D1D6002068180700111A07006D
:108CC000AD1B0700AFD5002000D70020AB18070070
:108CD00010B5044605F050F9204610BD0F4BB0B159
:108CE00000221A700E4B0F4A18600F4B11685B7A06
:108CF000023B012B01F101010C4B116094BF0722D3
:108D000002221A700A48FA22012111F04ABC1B788B
:108D100013B1064B0822F4E7704700BFD1D60020FC
:108D2000D4D60020C4D6002004A3002080D5002083
:108D300011E30020174B00221A70174B90F9062000
:108D40001A70164BB0F904201A80154A0378137074
:108D5000144A41781170144A81781170134A012124
:108D600011701BB1124A13680B441360114B124867
:108D70005B7A023B012B114B95BF072204221A702C
:108D80001A7099BF42F210720421FA22012111F0E7
:108D900008BC00BFD1D60020B4D50020B2D5002039
:108DA000B7D60020B5D60020B6D60020AED500201C
:108DB000C4D6002004A3002011E3002080D50020A9
:108DC00038B5164BB0F90A201A80154B90F90C20D3
:108DD0001A70144B42781A7003780446EBB1124BA8
:108DE0005B7A023B012B15D81048042111F0E3FBFC
:108DF0002378023B012B0DD80D4D227A61680D4876
:108E000006232B700DF046FD08482B46FA2201215F
:108E100011F0C7FB084B00221A7038BDB2D50020F4
:108E2000B4D50020B1D5002004A3002011E3002018
:108E300080D5002082D50020D1D60020F0B5254D68
:108E4000297899B0002942D101231A2208A82B7051
:108E500007910DF02DFD05A82AF0F4F805981E4C99
:108E600000F5E0400FA96E302AF060F9149B1B4911
:108E700003F26C730393129B0293139B01330193D0
:108E80000F9B009307A8DDE910320EF071FA1498D9
:108E900013999DF848209DF844309DF840609DF856
:108EA0003C70227100F26C70013180B2C9B2208036
:108EB000A1706371A671E771094C24783CB102245A
:108EC000CDE900672C7004F047FA04F08BFA19B072
:108ED000F0BD00BFD0D60020D4D90020B91B0700B8
:108EE000DCD9002030B54FF080432DED028BD3F854
:108EF0003834032B83B027D01448144D11F01CFBD9
:108F00000A24B0EE408A284611F016FB013C38EEE8
:108F1000008AF8D1B2EE067AC8EE077A9FED0C7A95
:108F2000DFED0C6A67EE877A9FED0B7A67EE877A42
:108F300087EEA67AFCEEC77ACDED017A9DF80400A3
:108F400003B0BDEC028B30BD0020F9E70DE300203B
:108F500000007A440040834500007F4308B5064B7B
:108F60001B783BB111F0BBFEBDE808400146034849
:108F7000FEF7DAB908BD00BF01D70020B8D600203F
:108F80001E4B07B501221E481A7011F0ACF818B13B
:108F90001C48002111F071F81B4811F0F5F91B492C
:108FA0001B4811F003F91B49194811F00FF91A4930
:108FB000174811F003F91949154811F00FF918492C
:108FC000134811F013F90021164811F04DF9022150
:108FD000154811F0B7F932230122009311460A23F4
:108FE0000B4811F0A2F8114BD97A01B101212220CE
:108FF00003B05DF804EB11F066BE00BFA1A1002034
:1090000084E300206EE300206DE30020C18D0200A8
:1090100049E30020DD8C0200A5730200358D0200BB
:109020003D8E020051E300206BE3002004A30020EA
:1090300008B50F4B0F480021197011F01EF80E48AB
:1090400011F055F80D490B4811F05EF80C4909482C
:1090500011F062F84FF6FD71064811F00EF8094B59
:10906000D97A01B10121BDE80840222011F02BBEC0
:10907000A1A100206EE3002084E30020F57302002C
:10908000D173020004A300201F4B07B501221F4823
:109090001A7011F028F818B11D48002110F0EDFFEA
:1090A0001C4811F071F91C491C4811F07FF81C494B
:1090B0001A4811F08BF81B49184811F07FF81A492B
:1090C000164811F08BF81949144811F08FF8002157
:1090D000174811F0C9F80221164811F033F932236C
:1090E000012200930D480A23114611F01EF8124B7D
:1090F000DB7A33B10121222003B05DF804EB11F0DB
:10910000E2BD03B05DF804FBA1A1002084E30020D0
:109110006EE300206DE30020C18D020049E30020D2
:10912000DD8C0200A5730200358D02003D8E020029
:1091300051E300206BE3002004A3002010B50B4C8A
:1091400000212046FEF7B6F82046094C094A0A4994
:109150000DF032FBFF21204604F002FF2046054AB5
:109160000649BDE810400DF027BB00BFB8D600206F
:10917000A4D5002090A10020BF720200D18C020073
:109180002DE9F04F012187B0222011F085FD01214A
:10919000232011F081FD0121242011F07DFDAD4837
:1091A000AD4E11F001FC03F0BBF9307068B1AB4972
:1091B000AB480EF014F9AA48012103F0E5F9A948DB
:1091C00003F0E4FAA84803F0E1FA0021222011F0AC
:1091D0007AFD0223A54806224FF4E13110F092FEF9
:1091E0004FF08043D3F83834032B6FD14FF4FA603B
:1091F0001BF056FB0723022203AC9D4900939848BD
:109200009C4D9D4F00230EF0B3F89549204611F078
:1092100021FB2146994811F063F9204611F0D4FA58
:109220000121232011F04FFD0021232011F04BFDDF
:109230000021242011F047FD02F002FA02F0EAF9C1
:1092400002F064F902F078F902F08CF902F00EFAFB
:1092500002F01EFC00F03EFA002000F05DF96B7A8F
:10926000023B012B59D8012002F0BEFC38703B783C
:1092700013B1834803F08AFA03F0CEFF814F3870B0
:1092800060B104F0AFF894E8030029F0BAFE02F0F0
:1092900095F93B7813B17C4803F078FA04F012F9A1
:1092A0007A4F387048B104F0FDF9387002F070F967
:1092B0003B7813B1764803F069FA02F095F96B7ABE
:1092C000032B2ED8DFE803F051ADB6C311F007FD34
:1092D000DFF898A107464FF0000B41F287384FF0B6
:1092E0000009504610F0F3FD002883D111F0F7FC7F
:1092F000C41B6BEB4B05A04579EB0503FFF67AAF7A
:1093000064201BF0CDFA232011F0E2FCB0FA80F1CA
:109310004909232011F0D7FCE3E7E87A0028A2D11D
:10932000A2E733780BB35B494D480EF058F84C492F
:10933000204611F08FFA00212246084603F0A0FAD9
:10934000204611F041FA544945480EF048F8444986
:10935000204611F07FFA22460021012003F090FA06
:10936000204611F031FA03F0A5FA4C4803F00EFA4A
:109370004B4810F08FFF10B94A4803F007FAFFF787
:10938000FFFD4FF47A7348496A683548B2FBF3F23F
:109390000DF0EEFF324803F0F9F9444A4448012346
:1093A000002111F0F4F86A6822B100234048194600
:1093B00011F0F7F83F4A3E480023012111F0E7F889
:1093C00000233D4A3A48022111F0E1F8AB7A33B16B
:1093D000374800234EF66022022111F0E2F8374AA6
:1093E00033480123032111F0D2F80023344A3048D6
:1093F000042111F0CCF8334B1B785BB1284810F0F6
:1094000049FF38B93223012200932F480A2311461D
:1094100010F08BFE01212D4811F035FC07B0BDE89E
:10942000F08FFFF705FE2A4803F0B0F9294803F052
:10943000ADF9A6E7284803F0A9F9194810F02AFF6A
:1094400010B9184803F0A2F9FFF71EFE99E7234868
:10945000F1E700BF8CE30020AFD5002068180700BB
:10946000B5D50020DB1B0700E81B070030E2002019
:10947000561F070004A30020ADD50020B8E200204D
:10948000F41B0700DCD90020FC1B0700B0D500202E
:10949000031C07000E1C0700201C0700111A070000
:1094A00054E30020301C0700451A070039740200FD
:1094B00011E300205978020009C90200F5C002003A
:1094C0008D730200A1A1002049E30020A9E2002041
:1094D000B01807003E1C0700201A0700311A0700C9
:1094E0007047000008B5054804F0B4FE034804F0D6
:1094F000D0FEBDE80840014804F0EABED8D60020FE
:1095000007B531220DF10701024804F0EBFE03B06C
:109510005DF804FBD8D6002073B500210446112065
:1095200011F0BAFB524811F03FFA524B002C00F0F8
:10953000848000229A800A22DA804FF481721A8194
:1095400040F201125A814B4804F05CFF05460028A6
:1095500040F08B80002C38D02A22302145488DF8ED
:109560000720012604F068FD0822322141488DF8C9
:10957000072004F061FD324633213E488DF8076034
:1095800004F05AFD24220DF107013A4804F0AAFE26
:109590009DF80720374822F00C0242F008022421EF
:1095A0008DF8072004F048FD6022222131488DF813
:1095B000072004F041FD2A4625212E4804F03CFDF9
:1095C0002C483246212104F037FD002520220DF1E0
:1095D000070128488DF8075004F084FE9DF8072005
:1095E000244842F0080220218DF8072004F024FDD1
:1095F00064201BF055F91E220DF107011D488DF85E
:10960000075004F06FFE9DF807201A4842F09002C0
:109610001E218DF8072004F00FFD64201BF040F997
:109620008CB1FFF76DFF14490422112010F02EFCBD
:10963000FFF758FF204602B070BD02229C80DC80FC
:109640001A815C817FE720220DF10701094804F0AF
:1096500049FE9DF80720074802F0400220218DF8BE
:109660000720012404F0E8FCE4E70024E2E700BF5F
:109670008CE30020D8D60020E19402000248182292
:10968000002104F093BC00BFD8D60020D0B511F063
:1096900026FB0D4C0D4B0021C3E9000111F01FFB0F
:1096A000D4E90032C61A62EB4207C92E77F10003F3
:1096B00009DB11F014FB064A206000236360137875
:1096C0000133DBB21370D0BDF0D60020F8D60020F5
:1096D00001D7002008B50221092011F0DDFA064962
:1096E0000322092010F0D2FB04490548012364221B
:1096F000FDF7F8FD012008BD8D960200E99C0200EF
:10970000B8D600202DE9F04FC74D91B011F0E7FA1F
:10971000D5E900230024811A64EB0303009101932F
:10972000DDE9002340F6B8300021904271EB0303DD
:10973000A346A246A146A0462746264677DB11F05F
:10974000CEFAD5E90023811A63EB43030291039318
:10975000DDE90223B2F5C87F73F1000373DA11F07B
:10976000BEFAD5E90023811A63EB43030491059304
:10977000DDE90434B3F5C87F74F1000380F285801D
:1097800011F0ADFAD5E90023811A63EB430306918A
:109790000793DDE90634B3F5167F74F1000380F218
:1097A000998011F09CFAD5E90023811A63EB4303F9
:1097B00008910993DDE90834B3F5487F74F100039B
:1097C00080F2AE8011F08BFAD5E90023811A63EBA9
:1097D00043030A910B93DDE90A34B3F5966F74F1F4
:1097E000000380F2C08011F07AFAD5E90023811AD3
:1097F00063EB43030C910D93DDE90C34B3F5AF6FCC
:1098000074F1000380F2D28011F069FAD5E90023E7
:10981000811A63EB43030E910F93DDE90E34B3F528
:10982000C86F74F1000380F2E280082474E009201C
:1098300011F04EFA002882D17C4B1B78002B3FF4AC
:109840007EAF022468E0794B1B78012B87D1092079
:1098500011F03EFA012882D10023C82C10D0092033
:10986000009311F035FA009B012804BF0133DBB2ED
:10987000012001340093E4B21BF012F8009BECE7E6
:10988000C62B7FF66CAF002446E0684B1B78022B9A
:109890007FF476AF092011F01BFA01287FF470AF36
:1098A0000024BBF1C80F10D0092011F011FA0128D3
:1098B00008BF01344FF001000BF1010B08BFE4B207
:1098C0005FFA8BFB1AF0ECFFEBE7C62C7FF658AF84
:1098D000012421E0554B1B78032BDCB27FF461AFF0
:1098E0004FF0000BBAF1C80F12D0092011F0F0F9B7
:1098F000012808BF0BF1010B4FF001000AF1010A2A
:1099000008BF5FFA8BFB5FFA8AFA1AF0C9FFE9E732
:10991000BBF1C60F7FF645AF204611B0BDE8F08F12
:10992000424B1B78042BDCB27FF44CAF4FF0000AA3
:10993000B9F1C80F12D0092011F0CAF9012808BFE7
:109940000AF1010A4FF0010009F1010908BF5FFAAD
:109950008AFA5FFA89F91AF0A3FFE9E7BAF1C60FAC
:109960007FF630AFD8E7314B1B78052BDCB27FF4A4
:109970003AAF4FF00009B8F1C80F12D0092011F02A
:10998000A7F9012808BF09F101094FF0010008F10A
:10999000010808BF5FFA89F95FFA88F81AF080FFBA
:1099A000E9E7B9F1C60F7FF61EAFB5E71F4B1B788D
:1099B000062BDCB27FF428AF4FF00008C82F11D07F
:1099C000092011F085F9012808BF08F101084FF0BE
:1099D000010007F1010708BF5FFA88F8FFB21AF02B
:1099E0005FFFEBE7B8F1C60F7FF60EAF94E70F4BC2
:1099F0001B78072BDCB27FF418AF0025C82E0FD0E0
:109A0000092011F065F9012808BF01354FF0010068
:109A100006F1010608BFEDB2F6B21AF041FFEDE71C
:109A2000C62D7FF602AF77E7F8D6002001D70020D9
:109A300073B58B4D8B4C6A7A637A9A4231D002F0BF
:109A400003FF0021884802F09FFD6B6863606B7A1A
:109A5000864863726B89638102F098FE844802F045
:109A600095FE02F027FF01F027FE40F6B8301AF00D
:109A700017FF637A7F48012B4FF000014FF0320649
:109A800040F0998010F0F9FA00227B4800960A23F2
:109A9000114610F04AFB794810F029FB784810F085
:109AA00049FDEA7AE37A9A4207D06B7A023B012BAE
:109AB00094BF0120002002F097F86A6863689A4218
:109AC00003D16A8963899A4213D002F0BDFE6748C8
:109AD00002F05CFE664802F059FE02F0EBFE6B6895
:109AE00063606B89638101F0E7FD40F6B8301AF0DE
:109AF000D7FE644810F044FC002869D0624810F09A
:109B0000CBFB624B1978884205D000395E4818BFFC
:109B1000012110F0C3FB5E4810F0D0FB5D4B1978BB
:109B2000884202D05A4810F0CBFB5B4810F0D8FBBB
:109B30005A4B1978884202D0574810F0D3FB584D41
:109B400058482E7810F0DEFB86420BD02978554815
:109B500010F0E4FB32230122009347480A23114608
:109B600010F0E3FA02F070FE637A012B71D06CD929
:109B7000023B012B6FD94FF47A7362684A49B2FBFA
:109B8000F3F24A480DF0F4FB484802F0FFFD62682A
:109B900022B100234648194610F003FDA37A002B9A
:109BA0005BD0434800234EF66022022102B0BDE89C
:109BB000704010F0F6BC10F060FA012200960A2303
:109BC00011462D4810F0B1FA2E4810F0DDFB65E784
:109BD000384D3948296810F00AFA374810F005FA6C
:109BE0002968884202D0344810F001FA334810F056
:109BF0000DFA334B1978884202D0304810F008FA39
:109C0000304D31482E7810F012FA864203D0297870
:109C10002D4810F00EFA2D4810F01AFA2C4B197836
:109C2000884202D0294810F015FA2A4810F023FA89
:109C3000294B1978884202D0264810F02DFA4FF6A9
:109C4000FD710C4810F019FA8CE7244802F09EFDD3
:109C500091E72348FAE72348F8E702B070BD00BF58
:109C6000D0A1002004A300204C1C0700531C0700B7
:109C7000631C07006EE3002049E3002084E300201A
:109C8000A8E200206DE3002055E3002003D7002068
:109C900058E3002005D7002060E3002006D700200D
:109CA00004D700206AE30020451A0700B5D500203C
:109CB00011E3002010D7002079E300207AE3002090
:109CC00014D700200BD700207BE300207CE300208A
:109CD0000CD700207EE3002015D70020111A0700C2
:109CE000B0180700311A07002DE9F04F87B0FFF7D1
:109CF00009FD072800F2CC81DFE810F0BC044A031C
:109D00000800CD01B00053002D001A00914B002037
:109D10001870914B00240025C3E900458F4B1B7838
:109D200023B107B0BDE8F04F02F0CCBD0120F8E749
:109D3000884B00221A70884B00200021C3E90001E3
:109D4000874B1C783CB902F07FFD8648214602F023
:109D50001BFC1AF0BCFD7F4B00221A707E4B0020CA
:109D60000021C3E900017E4B1C7874B17E4B1A7848
:109D7000052A40F08D8110221A707C4BD97A01910E
:109D80009B7A00937A4B1B785BE002F05DFD79488B
:109D9000214602F0F9FB784807B0BDE8F04F10F01B
:109DA000C9BB6C4B00221A706B4B00200021C3E929
:109DB00000016B4B1B78002B00F06A816A4C237802
:109DC000052B00F26581DFE813F0060063016301F3
:109DD000220030004000694810F0D2FA0128634B9D
:109DE0000AD104222270D97A01919B7A64490093A6
:109DF00009786448FF2315E005222270D97A019181
:109E00009B7A6149009309786048FF230AE0574B29
:109E10000322D97A5A7201919B7A009305235C49F7
:109E20005C48097802F074FD32E107235A48237038
:109E300010F068FA4D4AD37A0193937A0093C3B233
:109E40002278564956480978ECE7484B0E22D97AD1
:109E5000227001919B7A0093524B94E73D4B002274
:109E60001A703D4B00200021C3E900013C4B1B78D8
:109E7000002B00F0A5803C4C2378062B00F20881D3
:109E8000DFE813F007001F03120020002A0057002C
:109E90006000364903224B7AC87A22700190897A91
:109EA00000910233DBB2BAE7304A937A83F00103C0
:109EB0009372D27A019200930222FF233A493B48DF
:109EC0000978AFE7294B02225A72DA7A01929B7A1B
:109ED000009304230322A2E70A232F48237010F0E3
:109EE00011FAC0B20C280ED8DFE800F00717171DD2
:109EF000171D1D17171717171D002D4B00221A705D
:109F00002C4B05221A70194A2B4BD17A1B780191E0
:109F1000927A00920A33DBB292E7254B00221A7044
:109F2000244B0722EEE7224B00221A70214B0A2213
:109F3000E8E70E4B0D22D97A227001919B7A0093AB
:109F40001E4B20E7094BDA7A01929B7A009300239B
:109F50003AE100BF01D70020F8D600204CA5002030
:109F600000D70020741C070002D70020D0A10020D9
:109F700015D700207F1C0700A8E200206DE3002019
:109F8000B8A20020A4A20020E8A20020D0A20020B5
:109F900078A2002064A200206AE30020CCA1002067
:109FA000C8A100200CD70020CCA20020BCA2002019
:109FB0000AD7002008D7002005D700200BD70020A3
:109FC0009E4810F0DDF9012862D19D4D6A7A012A80
:109FD0005ED09C4E3278002A5AD19B4C9B4B20700D
:109FE0001B7804940BB902F06DFC00219848DFF84F
:109FF0006CB210F0E0FA974810F084F9964B53F8E1
:10A0000020309648039310F059F94FF0000A0746A4
:10A01000039B33F81A2042B35FFA8AF1584610F0D6
:10A020004FF964201AF03CFC0020FDF705FA10F00F
:10A0300056FE02463078059298B14FF47A701AF0C5
:10A040002FFC10F04CFE059A42F21073B0EB0208A0
:10A050004FF0000161EB01090024434574EB090353
:10A06000E8DA4FF4FA601AF01BFC0AF1010ABAF1BF
:10A07000100FCDD17948394610F022F96A6822B123
:10A0800000237348194610F08CFA049A00231370C9
:10A0900007B0BDE8F08F724B00221A70714B00249C
:10A0A0000025C3E90045704B1B78002B00F041816F
:10A0B0006E4C2278102AEBD801A353F822F000BF8F
:10A0C00005A10200C3A4020017A1020027A10200FB
:10A0D00039A1020095A10200A7A10200CDA10200B2
:10A0E00091A00200EBA1020011A2020095A20200C1
:10A0F000B9A20200D9A20200F7A2020091A00200B8
:10A1000013A3020002222270594BD97A01919B7A43
:10A110000093FF23D2E6564AD37A83F00103D37229
:10A120000193937AC7E6524B01225A72DA7A01926E
:10A130009B7A00930323CDE609234648237010F051
:10A14000E1F8C0B20C2814D8DFE800F007070707D1
:10A15000070D1B07212121211B00464B00221A70ED
:10A16000454B052204E0434B00221A70424B042267
:10A170001A703F4BDA7A01929B7A00933F4B1B781F
:10A180005EE63C4B00221A703B4B0622F0E7394B4F
:10A190000222E4E7364B0C22D97A227001919B7A95
:10A1A0000093374BEFE5324B5A6842B142F20F71E0
:10A1B0008A428ABFA2F51C520022103A5A60DA7A0B
:10A1C00001929B7A0093FF2306223AE62D4A1378E8
:10A1D00013B1013BDBB200E00C231370244AD17AA7
:10A1E0000191927A009207222BE6244A21491378A2
:10A1F0000978994209D1204B1B7813701C4AD17AF7
:10A200000191927A009209221BE6013BDBB2F4E74E
:10A210001D4A1E491378097899420BBF1C4B03F164
:10A22000FF331B78DBB21370114BDA7A01929B7A01
:10A230000093124B1B780A2203E600BF6DE3002057
:10A2400004A30020D1D6002081D500204CA50020F9
:10A2500011E300206AE30020FCA4002058E3002062
:10A2600001D70020F8D6002000D7002002D7002018
:10A27000D0A1002009D7002007D7002005D7002053
:10A2800014D7002004D7002006D700200AD70020CA
:10A2900008D70020A04AA1491368A3F5C333A03B07
:10A2A0008B4298BF9E4B13609E4BDA7A01929B7A49
:10A2B00000930B22FF23C4E59B490B78062B1CBFA0
:10A2C00003F1FF33DAB2974B0A70D97A01919B7A86
:10A2D000009313460C22B4E5944A137813B1013B62
:10A2E000DBB200E0092313708E4AD17A0191927A91
:10A2F00000920D22A5E58E4A117809B1481EC0B220
:10A300001070884AD37A0193937A009303460E2201
:10A3100097E5884A1378052B02D0013BDBB200E0B9
:10A32000162313707F4AD17A0191927A00921022FB
:10A3300087E5814810F024F8804B01281B781ED156
:10A34000002B7FF4A5AE7E4B1B780BB902F0BAFA56
:10A3500000217C4810F02FF97B4B012200201A705D
:10A36000FDF76AF8794B5A68002A3FF491AE002352
:10A370007448194607B0BDE8F04F10F012B9002B31
:10A380007FF486AE6E4B1B78002BE1D10120DDE718
:10A390006F4B704D704C00221A70704B00210020E2
:10A3A000C3E900012978002959D1664810F003F962
:10A3B0000121644810F0FFF86248022110F0FBF818
:10A3C0005F4B1B7813B9012002F07CFA01235F4A2E
:10A3D0002B7000232370534B51685960517A528976
:10A3E00055485A8159720FF0CBFF0146D8B15C48ED
:10A3F0000FF064FF5B4B18705B480FF083FF5B4B03
:10A4000018705B480FF048FF5A4B18705A480FF00D
:10A4100067FF5A4B18700023CDE900332278584962
:10A4200058480978FEE458480FF027FE57480FF0C7
:10A43000DCFD394B186056480FF0E8FD3A4B1870B8
:10A4400054480FF0F4FD394B187053480FF000FEDC
:10A45000374B187051480FF00EFE364BDAE7237871
:10A46000102B3FF615AE01A252F823F0B1A4020062
:10A47000C3A40200D5A40200D9A40200EBA40200E8
:10A4800003A5020061A6020007A50200A1A5020023
:10A49000BDA50200D1A50200F3A5020009A6020095
:10A4A00025A6020035A6020091A0020051A60200D6
:10A4B00001221C4B2270D97A01919B7A0093FF23D1
:10A4C000BFE400222270174BD97A01919B7A009346
:10A4D000FF23A4E70622ECE7124B00225A72DA7A35
:10A4E00001929B7A00930223F4E40E49214BC87A2F
:10A4F0001B78082222700190897A00910A33DBB21E
:10A500009FE40B22D5E7194A13780C2B01D00133B5
:10A5100060E6002361E600BF10D700207F47A11945
:10A520008047A119D0A1002014D700200BD700200C
:10A530000CD7002015D700206DE30020D1D60020D5
:10A540004CA5002011E30020A2D5002004A3002088
:10A5500001D7002000D7002002D70020F8D6002025
:10A5600058E3002005D700206AE3002004D700202C
:10A5700055E3002003D7002060E3002006D7002029
:10A5800000A30020ECA200206EE3002079E300206D
:10A590007AE300207BE300207CE300207EE30020C0
:10A5A0005C4A1378B3FA83F35B0913705A4AD17A81
:10A5B0000191927A00920A33082242E4574A58499C
:10A5C00013780978994201D1564B15E601331DE6FF
:10A5D000554A56491378097899420BBF544B0133B9
:10A5E0001B78DBB213704C4AD17A0191927A0092B7
:10A5F00021E6504A5049136803F5C333A0338B4218
:10A6000094BF136011604FE64C4A13780C2B1ABFAD
:10A610000133DBB2062313703F4AD17A0191927A5B
:10A62000009257E6464A1378092B01D0013357E6CA
:10A63000002358E6434A1378032B1ABF0133DBB2D9
:10A6400000231370344AD17A0191927A00925EE627
:10A650003D4A1378162B01D001335FE6052360E6EF
:10A660002D4A536803F51C5310335360D37A01937A
:10A67000937A6BE4354B00221A70354B354A002132
:10A680000020C3E90001117800293FF401AD324BED
:10A69000197810293FF6FCAC01A050F821F000BF5A
:10A6A000E5A60200F3A60200F3A60200F3A602004C
:10A6B000F3A60200F3A602000DA70200F9A602000D
:10A6C000F9A60200F9A60200F9A6020003A70200FB
:10A6D00003A7020003A7020003A7020091A0020043
:10A6E00003A702000023137007B0BDE8F04FFFF787
:10A6F0009FB900221A70E6E604221A70064BFFF793
:10A7000072BB05221A70044BFFF778BB02221A7045
:10A71000FAE400BF03D70020D0A1002005D7002015
:10A7200007D7002009D7002006D7002008D700202F
:10A730000AD7002010D700200070383914D7002025
:10A740000BD700200CD7002015D7002001D7002000
:10A75000F8D6002000D7002002D70020024B0122AB
:10A760001A700920704700BF16D7002070B598B046
:10A7700014460A490EA810F06DF80023CDE91433F1
:10A78000CDE91633636E012B0CD1054920680CF01E
:10A790001CFE48B1022400F0EDBC00BF8A5E070039
:10A7A0000E7E0700002BF5D1B649B748B74CB84D1F
:10A7B000B84E10F0D5F9B849B34810F0D1F9B14905
:10A7C000B64810F0CDF9B449B44810F0C9F9642086
:10A7D0001AF066F8637AB24955F82320AA4810F0B7
:10A7E000BFF9AD49A84810F0BBF9637AAC4955F8F8
:10A7F0002320AA4810F0B4F9A749A84810F0B0F9EE
:10A8000064201AF04DF8A74911A80FF073FE11A9A2
:10A810000EA810F032F811A80FF0D6FF0EA810F015
:10A820006FF80E9AA049984810F09AF99A499648FC
:10A8300010F096F90E9A9C49984810F091F99649B3
:10A84000964810F08DF964201AF02AF8974911A85B
:10A850000FF030FE119A96498B4810F081F911A83B
:10A860000FF0B2FF8C49884810F07AF98F4911A88F
:10A870000FF020FE119A8E49884810F071F911A846
:10A880000FF0A2FF8449854810F06AF964201AF09D
:10A8900007F84FF47A7562688649B2FBF5F27A4898
:10A8A00010F05EF97C49784810F05AF962688149E5
:10A8B000B2FBF5F2794810F053F97749774810F078
:10A8C0004FF9642019F0ECFF7B480FF059FD7B49EC
:10A8D00056F8202005466C4810F042F96E496A4847
:10A8E00010F03EF956F8252074496C4810F038F9FC
:10A8F00069496A4810F034F9642019F0D1FF012D3C
:10A9000040F04E836E486F4E6F4D0FF0C3FC6F49A1
:10A91000002814BF32462A465B4810F021F95E49F0
:10A92000594810F01DF966480FF0B4FC674900283B
:10A9300014BF32462A465948654E10F011F956495F
:10A94000564810F00DF9642019F0AAFF61480FF085
:10A95000D9FC6149054602464B4810F001F94E49C1
:10A96000494810F0FDF82A465B494C4810F0F8F8C9
:10A9700049494A4810F0F4F8642019F091FF56F85C
:10A9800025205649404810F0EBF843493E4810F066
:10A99000E7F856F825205149404810F0E1F83E49C3
:10A9A0003E4810F0DDF8642019F07AFF4C480FF0B3
:10A9B0006AFC002800F0BE814A49334810F0D0F804
:10A9C0003549314810F0CCF84649344810F0C8F801
:10A9D0003149324810F0C4F8642019F061FF0822B0
:10A9E00014A941480FF02EFC9DF8573005939DF8AF
:10A9F000563004939DF8553003939DF854300293DC
:10AA00009DF8533001939DF852309DF850203749FE
:10AA100000931D489DF8513010F0A2F81E491A48C5
:10AA200010F09EF89DF8573005939DF8563004932A
:10AA30009DF8553003939DF8543002939DF85330A0
:10AA400001939DF852309DF85020284900931348F7
:10AA50009DF8513010F084F80F49104810F080F83C
:10AA6000642019F01DFF082214A921480FF0C6FB2D
:10AA70009DF8573005939DF8563004939DF8553056
:10AA800038E000BFEF1C070030E2002004A30020E4
:10AA900070A40020CCA30020885E070094E2002070
:10AAA000FE1C0700E8E200200C1D0700ACE20020BD
:10AAB000214C0700171D07006DE30020271D07002C
:10AAC00054E300207D5B0700E11C0700371D0700F1
:10AAD00098A300206AE30020421D07004D1D0700D7
:10AAE00053E30020581D07004EE30020621D0700BD
:10AAF0004AE3002003939DF8543002939DF85330AD
:10AB000001939DF852309DF850207D4900937D4877
:10AB10009DF8513010F024F87B497A4810F020F865
:10AB20009DF8573005939DF8563004939DF85530A5
:10AB300003939DF8543002939DF8533001939DF890
:10AB400052309DF850206E49009370489DF8513066
:10AB500010F006F86C496D4810F002F8642019F006
:10AB60009FFE102214A96A480FF051FB9DF85F3038
:10AB70000D939DF85E300C939DF85D300B939DF81E
:10AB80005C300A939DF85B3009939DF85A30089326
:10AB90009DF8593007939DF8583006939DF857302B
:10ABA00005939DF8563004939DF8553003939DF816
:10ABB000543002939DF8533001939DF852309DF824
:10ABC0005020544900934F489DF851300FF0C8FF72
:10ABD0004D494C480FF0C4FF9DF85F300D939DF830
:10ABE0005E300C939DF85D300B939DF85C300A93BA
:10ABF0009DF85B3009939DF85A3008939DF85930C1
:10AC000007939DF8583006939DF8573005939DF8AB
:10AC1000563004939DF8553003939DF854300293B9
:10AC20009DF8533001939DF8523000939DF85020C9
:10AC30009DF85130374935480FF092FF324933487B
:10AC4000354E364D0FF08CFF642019F029FE344943
:10AC50002C480FF085FF2C492A480FF081FF30491E
:10AC60002A480FF07DFF284928480FF079FF64201B
:10AC700019F016FE627A2B4922480FF071FF224923
:10AC800020480FF06DFF627A264920480FF068FFD8
:10AC90001D491E480FF064FF642019F001FEA27ADE
:10ACA00021491848002A14BF32462A460FF058FF9F
:10ACB000154914480FF054FFA27A1B491348002A83
:10ACC00014BF32462A460FF04BFF0F490F48174E6C
:10ACD0000FF046FF642019F0E3FD15481AF0F8F86C
:10ACE0000025B4F88E20EBB2934205F1010580F205
:10ACF0003D8223443046197B1AF0EAF8F1E700BFA1
:10AD00008A1D070030E20020885E070094E20020E0
:10AD10004BE30020B21D0700EC1C0700701C07006D
:10AD2000131F0700231F0700311F0700C39F0700E1
:10AD3000421F0700904991480FF012FF90498F4839
:10AD40000FF00EFF8C498F480FF00AFF8C498D4899
:10AD50000FF006FF642019F0A3FD14A910228A4801
:10AD60000FF05EFA9DF85F300D939DF85E300C9306
:10AD70009DF85D300B939DF85C300A939DF85B3035
:10AD800009939DF85A3008939DF8593007939DF820
:10AD9000583006939DF8573005939DF8563004932C
:10ADA0009DF8553003939DF8543002939DF853302D
:10ADB00001939DF852309DF85020009373499DF8FF
:10ADC00051306E480FF0CCFE6D496C480FF0C8FE54
:10ADD0009DF85F300D939DF85E300C939DF85D30CB
:10ADE0000B939DF85C300A939DF85B3009939DF8B6
:10ADF0005A3008939DF8593007939DF858300693C0
:10AE00009DF8573005939DF8563004939DF85530C2
:10AE100003939DF8543002939DF8533001939DF8AD
:10AE200052309DF85020009358499DF851305548B4
:10AE30000FF096FE524953480FF092FE642019F02D
:10AE40002FFD14A9102252480FF005FA9DF85F302B
:10AE50000D939DF85E300C939DF85D300B939DF83B
:10AE60005C300A939DF85B3009939DF85A30089343
:10AE70009DF8593007939DF8583006939DF8573048
:10AE800005939DF8563004939DF8553003939DF833
:10AE9000543002939DF8533001939DF852309DF841
:10AEA000502000933B499DF8513034480FF058FE34
:10AEB000334932480FF054FE9DF85F300D939DF8F2
:10AEC0005E300C939DF85D300B939DF85C300A93D7
:10AED0009DF85B3009939DF85A3008939DF85930DE
:10AEE00007939DF8583006939DF8573005939DF8C9
:10AEF000563004939DF8553003939DF854300293D7
:10AF00009DF8533001939DF852309DF850200093E6
:10AF100020499DF851301B480FF022FE184919486E
:10AF20000FF01EFE642019F0BBFC14A904221A487D
:10AF30000FF07FF99DF8533001939DF852309DF842
:10AF40005020009315499DF851300C480FF008FE31
:10AF50000B490A480FF004FE9DF8533001939DF809
:10AF6000523000939DF850209DF851300B49054810
:10AF70000FF0F6FD62E600BFFA1D070030E2002088
:10AF8000885E070094E200204CE30020031E0700C7
:10AF900050E300204C1E07004DE30020951E0700E3
:10AFA0007748002D40F09B800FF01FF8754902464E
:10AFB00075480FF0D5FD754973480FF0D1FD704805
:10AFC0000FF013F86F49024671480FF0C9FD6F4941
:10AFD0006F480FF0C5FD642019F062FC6D480FF05A
:10AFE00015F86D49024668480FF0BAFD6749664892
:10AFF0000FF0B6FD67480FF009F86749024664484C
:10B000000FF0AEFD614962480FF0AAFD642019F00F
:10B0100047FC62480FF00BF8614902465A480FF0AE
:10B020009FFD5A4958480FF09BFD5C480EF0FFFF0A
:10B030005B49024656480FF093FD544954480FF0BF
:10B040008FFD642019F02CFC56480FF001F856498A
:10B0500002464D480FF084FD4C494B480FF080FDEF
:10B0600050480EF0F5FF5049024649480FF078FD70
:10B07000464947480FF074FD642019F011FC4B4815
:10B080000EF0F7FF4A4902463F480FF069FD3F497D
:10B090003D480FF065FD45480EF0EBFF4449024680
:10B0A0003B480FF05DFD394939480FF059FD6420E8
:10B0B00019F0F6FB3F480EF0DEFF3F4902463248EA
:10B0C0000FF04EFD314930480FF04AFD39480EF07F
:10B0D000D2FF394902462E480FF042FDAEE50EF090
:10B0E00084FF2849024628480FF03AFD27492648A0
:10B0F0000FF036FD22480EF078FF22490246244820
:10B100000FF02EFD214922480FF02AFD642019F08E
:10B11000C7FB2A480EF0E3FF294902461A480FF000
:10B120001FFD1A4918480FF01BFD24480EF0D7FFE9
:10B130002349024616480FF013FD144914480FF036
:10B140000FFD642019F0ACFB1E480EF0CAFF1E492B
:10B1500002460D480FF004FD0C490B480FF000FDAE
:10B1600018480EF0BEFF18490246B4E7074819F028
:10B17000AFFE00240EA80FF027FB204618B070BDCC
:10B1800079E30020AE1E070030E20020885E070051
:10B1900094E200207AE30020BD1E07007BE300203C
:10B1A000C51E07007CE30020CD1E07007DE30020C4
:10B1B000D51E07007EE30020EA1E070082E3002080
:10B1C000F81E070083E30020051F070073B5556EC6
:10B1D000012D0E4625D1144910680CF0F6F80446EE
:10B1E000E0B90725CDE90005022332460F49104892
:10B1F0000FF0B6FC0F490E480FF0B2FC02233246A6
:10B20000CDE9004509490C480FF0AAFC09490A4854
:10B210000FF0A6FC642019F043FB2546284602B037
:10B2200070BD0125FAE700BF0E7E0700531F07001F
:10B2300030E20020885E070094E200202DE9F84FFC
:10B24000614B1B78002B00F0BD80604B1B78002BFE
:10B2500040F0B680556E012D40F0B480D2F800A0C9
:10B260005B4950460CF0B1F80446002866D1594BB2
:10B2700059495A481D700FF073FC57495748DFF879
:10B2800080B10FF06DFC544955480FF069FC5249EC
:10B2900053480FF065FC642019F002FB2146514829
:10B2A0000FF089F929464F480FF085F902214D48E2
:10B2B0000FF081F901F0C8FA21464B4801F064F91A
:10B2C0004A4801F063FA4A4801F060FA01F0F2FAE4
:10B2D0000FF005FD4FF0000A054642F210760027F8
:10B2E0009BF800308BB94FF47A7019F0D9FA0FF04F
:10B2F000F6FCB0EB05086AEB4A09464577EB090313
:10B30000EEDA03242046BDE8F88F02F053F9324903
:10B3100032480FF025FC304930480FF021FC2E490F
:10B320002F480FF01DFC2C492D480FF019FC64200C
:10B3300019F0B6FA2F480FF0FDF8E3E72E49504612
:10B340000CF043F8044600283CD1224BDFF8B0B0A3
:10B350001D70014623480FF02EF9294621480FF0B1
:10B360002AF902211F480FF026F901F06DFA214653
:10B370001D4801F009F9214801F008FA1C4801F0C4
:10B3800005FA01F097FA0FF0AAFC4FF0000A054603
:10B3900044F620684FF000099BF800306BB94FF479
:10B3A0007A7019F07DFA0FF09AFC461B6AEB4A0797
:10B3B000B04579EB0703EFDAA3E702F0AFF8B9E79E
:10B3C00000249FE702249DE7B0D5002016D7002077
:10B3D0000E7E070000D70020885E070030E20020C4
:10B3E00094E2002011E300204C1C07006D1F0700B1
:10B3F000631C0700A8E20020096407007D1F070006
:10B40000D8A300202DE9FF41536E012B0D461446B1
:10B4100024D1394910680BF0D8FF044620B102242A
:10B42000204604B0BDE8F08101F0DCFF2946334836
:10B430000FF062FB324931480FF04CFB314A324980
:10B44000D3790393937902935379019313790093FA
:10B4500093782A4812880FF083FBE1E7052BDED1B1
:10B46000161F02F1100756F8045F28460BF0BFFFC5
:10B470002B462844984205D013F8012B303A092A6C
:10B48000F8D9CCE7BE42EED10022114620680CF07C
:10B490001BF940F2D233A0F2E6729A420546BED8BA
:10B4A0000022606811460CF00FF9431E0B2B064674
:10B4B000B5D80022A06811460CF006F9431E1E2BD9
:10B4C0000746ACD80022E06811460CF0FDF81828B9
:10B4D0008046A4D80022206911460CF0F5F83B28DC
:10B4E0009DD8C2B200925FFA88F3FAB2F1B2A8B264
:10B4F00001F0EAFE002493E70E7E070030E2002010
:10B50000EC210700D4D900208D1F070007B50323C5
:10B510000193054B0093054B054A064819460FF069
:10B5200014F803B05DF804FB31B70200A01F070058
:10B53000A81F07000EE3002007B503230193054B66
:10B540000093054B054A064819460EF0FEFF03B06E
:10B550005DF804FBFDB7020000200700052007008E
:10B560000EE3002007B503230193054B0093054B21
:10B57000054A064819460EF0E8FF03B05DF804FBE3
:10B58000FDB8020063200700682007000EE30020DA
:10B5900007B503230193054B0093054B054A064865
:10B5A00019460EF0D2FF03B05DF804FB3DB2020075
:10B5B0008F200700942007000EE3002007B5032327
:10B5C0000193054B0093054B054A064819460EF0BA
:10B5D000BCFF03B05DF804FB05B40200AA2007001D
:10B5E000AE2007000EE3002007B503230193054BAF
:10B5F0000093054B054A064819460EF0A6FF03B016
:10B600005DF804FBC5B90200D5200700DA20070069
:10B610000EE3002007B502230193054B0093054B71
:10B62000054A064819460EF090FF03B05DF804FB8A
:10B630006DA70200432107004A2107000EE3002006
:10B6400007B502230193054B0093054B054A0648B5
:10B6500019460EF07AFF03B05DF804FBCDB102008D
:10B6600061210700682107000EE3002010B50D4C92
:10B670000D4986B003A80FF0EDF803A920460EF09F
:10B680004FFF03A80FF0A0F802230193074B00938C
:10B69000074B084A194604F126000EF056FF06B083
:10B6A00010BD00BFE8E20020802107005DA7020076
:10B6B000882107009121070070B5194C19491A4ECD
:10B6C000C2B09022201D0BF0E5F89021201D19F04A
:10B6D00041FF00252060FE22294602A801950BF0BB
:10B6E000E7F8B4F88E30E8B2984205F1010508DABF
:10B6F000231831461A7B01AB03EB40000BF038FEF8
:10B70000EFE7074A0948942300210EF036FF28B9D5
:10B710000146034A054894230EF02FFF42B070BD46
:10B72000DCA3002008A30020C39F07000FE3002034
:10B73000F8B5536E012B0E4602D002242046F8BD08
:10B740001568274928460BF040FE044660B128469C
:10B750000BF04DFE2A462844904224D012F8013BBB
:10B76000303B092BF8D9E8E71E4F1F497B681F487B
:10B7700032464FF47A75B3FBF5F30FF0F1F91C493B
:10B780001A480FF0EDF97B681749B3FBF5F3324621
:10B7900018480FF0E5F9164916480FF0E1F9642052
:10B7A00019F07EF8CAE70A22002128460BF08CFF28
:10B7B000B0F5E15FC1D80B4C4FF47A735843606029
:10B7C00000210D480EF0F7FE626822B100230A48FE
:10B7D00019460EF0E6FEFFF76FFF0024AEE700BF4C
:10B7E0000E7E070004A30020B421070030E20020F1
:10B7F000885E070094E2002011E30020536E012BC5
:10B8000070B50E4602D00224204670BD156833493B
:10B8100028460BF0DAFD044660B128460BF0E7FD40
:10B820002A46284490421ED012F8013B303B092B97
:10B83000F8D9E8E72A4D2B496B7A2B4832460FF0AE
:10B840008FF92A4928480FF08BF96B7A2549284847
:10B8500032460FF085F9254925480FF081F964201B
:10B8600019F01EF8D0E70A22002128460BF02CFF21
:10B870000328C8D81A4C637A984223D06072FFF725
:10B880001BFF637A012B22D01ED9023B012B21D949
:10B89000184915480FF064F9144913480FF060F97E
:10B8A000144913480FF05CF9104911480FF058F98A
:10B8B000642018F0F5FF41F2883018F0F1FF0E48CF
:10B8C0000EF038FE00249FE7FDF75AFBE0E7FDF796
:10B8D000AFFBDDE7FDF7D8FBDAE700BF0E7E070020
:10B8E00004A30020BB21070030E20020885E07008F
:10B8F00094E20020C1210700A8E20020F8B5536EB1
:10B90000012B0D4602D002242046F8BD17682549B8
:10B91000254E38460BF059FD044678BBB6F88E30FC
:10B92000ABB92A46214922480FF01AF9214920488B
:10B930000FF016F92A461D491F480FF011F91D494D
:10B940001D480FF00DF9642018F0AAFFDCE7294626
:10B950001A481B4F19F0BCFA2546B6F88E20EBB2F8
:10B96000934205F1010505DA33443846197B19F095
:10B97000AFFAF2E70F4819F0ABFAC5E738460BF01B
:10B9800036FD06F10C0201460546384613F090FDDF
:10B9900004460028B7D16D08A6F88E50FFF78CFE3C
:10B9A000B2E700BF0E7E070004A30020DE210700DF
:10B9B00030E20020885E070094E20020EA210700C0
:10B9C000C39F0700536E012B2DE9F3410E46154628
:10B9D0002ED1274910680BF0F8FC044660BBDFF855
:10B9E000AC80244F98F800300193234D3B780093AE
:10B9F000EB7A2249224832460FF0B2F8214920481A
:10BA00000FF0AEF898F8003001933B780093EB7A92
:10BA10001A491D4832460FF0A3F81A491A480FF088
:10BA20009FF8642018F03CFF204602B0BDE8F0818A
:10BA3000002B01DC0224F7E70022286811460BF0F6
:10BA400043FE10F0FF0508D10B4BDC7A002CEBD045
:10BA5000DD72FFF731FE0024E6E7012DEAD1064B47
:10BA6000DC7A002CF7D1DD72FFF726FEDCE700BFA1
:10BA70000E7E0700DCD9002004A30020EE21070081
:10BA800030E20020885E070094E20020B0D500205C
:10BA9000F0B52E4D2E48C3B094232A4600210EF057
:10BAA00062FD0646B8B12B7AAA2B17D19021281D2A
:10BAB00019F050FD2B68274C834211D047F23052C9
:10BAC000AA23C4E90123244BE3600423A4F88E30A5
:10BAD000FFF7F2FD0026304643B0F0BD0020E9E755
:10BAE0006B6863606B7AB5F88E20032B86BF0023EA
:10BAF000374600276372802A6B89638106D9002349
:10BB00002373A4F88E30FFF7D7FD07E013491448DC
:10BB1000A4F88E200AF0BEFE002FF4D10025FE22EC
:10BB2000294602A801950AF0C3FE0E4FB4F88E30E4
:10BB3000E8B2984205F10105CDDA231839461A7B9F
:10BB400001AB03EB40000BF013FCEFE7DCA300209C
:10BB50000FE3002004A3002001020304E8A3002057
:10BB600010A30020C39F070010B5074B53F82020F7
:10BB7000002332F813408C42D8B203D80133102B83
:10BB8000F7D1184610BD00BFFCA4002013B50190EA
:10BB90000F480EF0B7FB019980B2FFF7E5FF0446AE
:10BBA0000C480EF08BFBA0420FD20B4800F0EEFDCC
:10BBB0000A490B4822460BF0DBFB094800F0E6FD82
:10BBC000084B0020187002B010BD0120FBE700BF39
:10BBD0006AE3002058E30020632207007522070073
:10BBE000B5D50020D1D600202DE9F3410121754EB5
:10BBF000074622200FF067F84FF4FA7018F050FE55
:10BC00003478002C7ED170497048009440F24C4347
:10BC1000422207F0B3FC054620B90024204602B0BA
:10BC2000BDE8F08169484FF0020840F24C42012122
:10BC300086F8008007F0BCFA654E002F57D040F21E
:10BC40004C4322460121614807F02AFB40F24C4355
:10BC5000424601215D4807F023FB40F24C43062297
:10BC600001215A4807F01CFB0122114640F24C43C7
:10BC7000564807F015FB40F24C430322012153487C
:10BC800007F00EFB40F24C43042201214F4807F01D
:10BC900007FB40F24C4305224C48012107F000FB12
:10BCA000F37A40F24C42E3B10521484807F0C7FC63
:10BCB000464840F24C432246012107F0C7FB434867
:10BCC00040F24C4107F07AFA737A023B012B02D81A
:10BCD000F47A002CA2D1002122200EF0F4FF2C4691
:10BCE0009CE74FF4FA71394807F0EAFCE7E740F2C5
:10BCF0004C424FF0FF31354807F080FAFA2018F037
:10BD0000CFFDE1E7002530493048009540F24C4333
:10BD1000422207F033FC044600283FF47EAF40F295
:10BD20004C420121294807F043FA40F24C432A468D
:10BD30000121264807F0B4FA40F24C4302220121C7
:10BD4000224807F0ADFA40F24C43062201211F4879
:10BD500007F0A6FA0122114640F24C431B4807F0B7
:10BD60009FFA40F24C4303220121184807F098FA49
:10BD700040F24C4304220121144807F091FA40F2AA
:10BD80004C4305221148012107F08AFA104BDB7A57
:10BD900040F24C4283B105210C4807F050FC0B489F
:10BDA00040F24C432A46012107F050FB40F24C413F
:10BDB000064807F003FA31E74FF4FA71034807F039
:10BDC0007FFCF3E724D700208CE3002054D7002029
:10BDD00004A30020000000002DE9F04FDFF80C83E1
:10BDE000A94FAA4CAA4DDFF80893AA4E8BB00023A6
:10BDF00000220021C8E90023C7E900234FF0000A10
:10BE00001C2203A82970C9F8001021700291C6F8FD
:10BE100000A00AF04DFDA04902A80BF0E0FA9F4BEC
:10BE20009F48DB7AA34640F24C41002B66D007F0D6
:10BE300010FDC117C8E9000140F24C41984807F0D5
:10BE4000EDFCC117C7E9000140F24C41944807F0EE
:10BE50001BFD40F24C41C9F80000914807F06FFC0F
:10BE600007EE900AF8EE677A40F24C418C48C6ED36
:10BE7000007A07F0B8FC40F24C412070884807F087
:10BE800076FC012829D1874902A80BF0A8FA96ED83
:10BE9000007ADFED857AB4EEE77AF1EE10FA05D597
:10BEA0007A4B1B78052B01D901232B702B7803F0DB
:10BEB000FF04002B00F0D280D7E900E31A46D8F83F
:10BEC0000430D8F800C01A434CEA0E00114650EA7C
:10BED000010378D100242C70AAE0022801D1734913
:10BEE000D2E7032801D17249CEE7042801D1714974
:10BEF000CAE705280CBF70496749C5E707F054FC3D
:10BF00000028D3D0012124200EF0DDFE644840F249
:10BF10004C4107F02CFC044600283DD15E4902A8A4
:10BF20000BF05DFA5E4840F24C4107F05CFC634B5D
:10BF30008BF800001A78904242D1614A137801339D
:10BF40001370022CB2D95E4B1B78012BAED90123A2
:10BF500040F24C4152482B7007F07BFCC117C8E9F6
:10BF6000000140F24C414E4807F058FCC117C7E9A8
:10BF7000000140F24C414A4807F086FC40F24C4137
:10BF8000C9F80000464807F0DAFB07EE900AF8EE21
:10BF9000677AC6ED007A89E7012801D14949BEE7F1
:10BFA000022801D14849BAE7032801D14749B6E739
:10BFB000042801D13F49B2E70528B3D13E49AEE795
:10BFC00088BF1870BDE7354B304D5B7A032B33D1FA
:10BFD0003F4B40481B6872461BB2614601F010FFA0
:10BFE000D8E9000144F002FF25A3D3E9002345F07E
:10BFF00055F845F021FA384B1860D7E9000144F0B4
:10C00000F5FE1FA3D3E9002345F048F845F014FAE4
:10C01000324B32681860324B1A604FF47A72D9F89A
:10C02000003093FBF2F32F4A13602F4B2A781A70DB
:10C0300020460BB0BDE8F08FD9F8003096ED000A2D
:10C0400024484FF47A7193FBF1F395F900100091B5
:10C050001BB27246614601F007FEC1E71E4BC3F8F2
:10C0600000A01E4BC3F800A01D4B4FF07E521A607B
:10C070001C4B1C601C4B1C702DE700BFAFF30080F5
:10C0800000000000D012634148D70020D8D800201B
:10C0900039D7002018D700208322070004A30020EE
:10C0A00054D700208A2207000000964399220700F7
:10C0B000A5220700B1220700BA22070050D70020AE
:10C0C00051D70020C3220700CD220700D422070049
:10C0D000C8D60020A4D5002030D7002034D70020B7
:10C0E00028D700202CD7002038D7002040D70020A8
:10C0F0001CD700202DE9F041012186B023200EF04D
:10C10000E2FDFFF769FE6D4F6D4E0446002800F01A
:10C11000A0806C4BD97A11B922200EF0D4FD6A4B65
:10C12000002264201A7018F0BBFB684803210EF04F
:10C1300042FA3B78002B36D0654B1B78002B32D16E
:10C1400000F082FB634800F021FB634B1868634BEF
:10C150001D68634BD3F8008044F01EFE02460B4678
:10C160002846CDE90423CDF8088044F015FEDDE92A
:10C170000423CDE900015B495B480BF0F9F85A480C
:10C1800000F004FB594B1868594B1D7844F004FE2D
:10C19000EDB202460B465448564900950BF0E8F8BC
:10C1A000514800F0F3FA544B1B781BB95348012156
:10C1B0000EF0D7F85248DFF8688101F0E7FE80B250
:10C1C000FFF7E4FC054600B34E494F480EF0B4FCBF
:10C1D0004B4801F0DBFE0490494801F0D9FE0124F0
:10C1E0000023CDE9004302460499484823460DF058
:10C1F000B7FF38B988F80000454A13680133136067
:10C200002C4604E088F80040F6E788F800003B7808
:10C21000002B49D0002C47D12D4B1B78002B43D14C
:10C2200000F012FB304B1C70264BDB7A002B30D019
:10C23000384800F0ABFA384B1A7862BB34882A4B86
:10C240002A20114694422ADD1870013203F8011F9A
:10C25000F8E7324B32881B889A42D8D3642018F012
:10C260001FFB194B19481C702D4B03211C700EF03D
:10C27000A2F93D785DB1164B1C78002CC7D1294935
:10C2800019480BF0ACF8184800F080FAB8E7012420
:10C29000BDE72548CDE7254913480BF069F812485A
:10C2A00000F074FA00F006FB3388002101332320EC
:10C2B000338006B0BDE8F0410EF005BDAFD50020DB
:10C2C00020D7002004A30020ACD5002011E30020DB
:10C2D00000D70020DB22070030D7002034D7002011
:10C2E0002CD70020E5220700B5D5002028D7002054
:10C2F00038D70020F5220700D0D600206CE30020BC
:10C30000A4D500202418070030E2002049E30020D3
:10C31000C8D600201F230700D8D8002022D700202D
:10C32000D1D6002007230700352307004823070044
:10C3300010B5054C204602F08DF82046034A04490A
:10C34000BDE810400AF038BA54D7002090A1002070
:10C3500061EA02000020704738B590F83330044697
:10C360000D4613B1406B0EF01FFB94F83010606B5C
:10C370000EF05EFB606B802100F02DF8606B0368AF
:10C3800029461B689847606B0121BDE838400EF0D4
:10C390005BBB000010B5034B0360044607F06CFB69
:10C3A000204610BDB824070010B50446406B0EF0BF
:10C3B000FBFA606B02490EF00BFB012010BD00BFC1
:10C3C000801A060010B50446FFF7E4FF20460CF083
:10C3D00045FD204610BD0368C9B21B6818472DE90A
:10C3E000F84F90F83330044613B1406B0EF0DCFA8E
:10C3F000658AC5F180054FF0000A05EBD575FF276A
:10C400006D10D146D0463E46A38A5FFA8AF1B1EB61
:10C41000D30F28DA4FF0000C638A5FFA8CF0984251
:10C420001CDA11FB03F30344A2689BB212F803E089
:10C43000E26812F803B0F3450BD08E4228BF0E46D7
:10C44000884538BF8846874228BF0746814538BFA0
:10C45000814602F803E00CF1010CDDE70EF0B3F8C1
:10C460000AF1010AD0E7FF2E57D0236821219B69EA
:10C4700020469847236857FA85F19B69C9B2204640
:10C4800098475FFA85FA23680AEB09019B69C9B2EC
:10C4900020469847236822219B69204698472368B5
:10C4A00031469B6920469847236841469B69204650
:10C4B00098470025B04529D3BA46CA4521D845B981
:10C4C00094F83010606B0EF0B3FA606B4021FFF708
:10C4D00082FFA268606B638A06FB0323026813F87D
:10C4E0000A1012680135EDB29047102D04D1606B2F
:10C4F00001210EF0A9FA00250AF1010A5FFA8AFA71
:10C50000DBE701360EF05FF8F6B2D3E72DB1606BD2
:10C510000121BDE8F84F0EF097BABDE8F88F000092
:10C5200038B51648164C0EF03FFA4FF4FA7018F072
:10C53000B7F90125204684F8335007F054FE204611
:10C5400007F007FD204607F082FD204607F0EFFCCC
:10C55000C821204607F044FD204607F06BFD40232C
:10C56000F1222046642107F006FD0649204607F027
:10C57000DCFC2046FFF733FF284638BD8CE3002063
:10C580009CD90020D824070030B52DED028B04463D
:10C5900097B04F480D464F4907F0C7FC4C48002163
:10C5A00007F074FA00220B231146494800938023B8
:10C5B00007F084FB4648012107F068FA444800214F
:10C5C00007F0B1FC444B1B787BB1444B1B7863B143
:10C5D0005DB1434906A80EF03DF906AB00223C4888
:10C5E000114607F03DFE06A81AE03E4BDD7A002D0D
:10C5F0002FD03D4B3D4918783D4A2346002808BFBF
:10C600000A463C4906A80AF0B3FE06A903A80EF0A4
:10C6100021F900222E4803AB114607F021FE03A8A2
:10C620000EF0D2F84FF08043D3F8384414F0FF04F2
:10C6300016D0032C46D00B2200927F2300212448E1
:10C6400007F05BFA2248FFF7CAFE17B0BDEC028B79
:10C6500030BD214606A80EF0FDF806AB2A46BEE71F
:10C6600025489FED268A244C0DF066FF0A252046BA
:10C670000DF062FF013D38EE008AF8D1F2EE047A47
:10C68000C8EE277A17EE900A44F086FB02460B4666
:10C6900006A81B490AF06CFE82B206A90C4807F0F6
:10C6A00025FC06A9044603A80EF0D4F8C4F17F01C6
:10C6B000074803AB002209B207F0D2FD03A80EF031
:10C6C00083F8B8E70F4906A80AF089FE2246E4E796
:10C6D0009CD90020D82407000CDA0020B0D5002017
:10C6E0005323070004A3002039D70020759F0700BB
:10C6F000AE620700612307000DE300200000000088
:10C70000672307006D230700F0B51C481C4F1D4E22
:10C710001A4D87B0002107F0B9F940230C221748C1
:10C7200000930021802307F0C9FA1749134807F046
:10C73000FCFB1248012107F0A9F91048002107F07D
:10C74000F2FB00243B78A34213DD06EB441103A85F
:10C750000EF080F804EB840252000C3203AB12B2EC
:10C760000021284607F07CFD03A80EF02DF80134C7
:10C77000E8E70248FFF733FE07B0F0BD9CD9002080
:10C78000D9D80020DAD80020D824070070B5274C6B
:10C79000274D2278052A034638D105F12002294683
:10C7A00005F1400052F8046B41F8046B8242F9D164
:10C7B000204AA2F1200102F1200052F8046B41F856
:10C7C000046B8242F9D11C4AA2F1200102F120003F
:10C7D00052F8046B41F8046B8242F9D1174AA2F176
:10C7E000200102F1200052F8046B41F8046B8242F0
:10C7F000F9D1134AA2F1200102F1200052F8046B92
:10C8000041F8046B8242F9D10422227020780D4A4B
:10C8100005EB401020210AF077FD2378052B1CBF83
:10C8200001332370BDE87040FFF76EBFD9D80020F8
:10C83000DAD800201AD900203AD900205AD900208D
:10C840007AD90020FA7D070007B50B48002107F0D0
:10C850001DF9402300930C2280230748002107F094
:10C860002DFA0548012107F011F9044B00221A7036
:10C8700003B05DF804FB00BF9CD90020D9D800208C
:10C8800030B585B004460D4601A811460EF004F8F7
:10C8900004EB840252000C3201AB12B22946044868
:10C8A00007F0DEFC01A80DF08FFF05B030BD00BF22
:10C8B0009CD9002008B50248FFF791FD08BD00BFD4
:10C8C0009CD9002070B504460B4D0C487CB107F094
:10C8D0002EFB01232B700A4B9B7A5BB1BDE87040A5
:10C8E000084800234EF6602202210DF05ABE07F0E0
:10C8F00030FB2C7070BD00BF4CA500209CD90020DF
:10C9000004A3002011E300200020FFF7DBBF00009C
:10C910002DE9F04F89B015461C469DF848309DF82A
:10C920004CA0029180460193FFF78EFF012D6BD141
:10C930008C498D4C05A80DF08DFF002105AA0846F5
:10C94000FFF79EFF05A80DF03FFF627A032A0FD87C
:10C95000DFE802F002545658844905A80DF07AFF2A
:10C96000012005AA0021FFF78BFF05A80DF02CFF81
:10C970004FF47A7362687E49B2FBF3F27D487E4DD4
:10C980007E4C0AF0F5FC7B4905A80DF063FF05AA73
:10C9900000210220FFF774FF05A80DF015FFBAF182
:10C9A000000F14BF2A462246754972480AF0E0FC7F
:10C9B000704905A80DF04EFF05AA00210320FFF7DE
:10C9C0005FFF05A80DF000FF019B6E49002B14BF0F
:10C9D0002A46224667480AF0CBFC664905A80DF0B6
:10C9E00039FF05AA00210420FFF74AFF05A80DF032
:10C9F000EBFEFFF75FFF09B0BDE8F08F6249ACE7DF
:10CA00006249AAE76249A8E7062D2BD1554905A836
:10CA10000DF020FF002105AA0846FFF731FF05A809
:10CA20000DF0D2FE5B4905A80DF014FF05AA002108
:10CA30000120FFF725FF05A80DF0C6FE564905A801
:10CA40000DF008FF05AA00210220FFF719FF05A835
:10CA50000DF0BAFE444B51495A684FF47A73B2FB59
:10CA6000F3F2B7E7072D60D13E4905A80DF0F2FEBD
:10CA7000002105AA0846FFF703FF05A80DF0A4FE54
:10CA8000474905A80DF0E6FE05AA00210120FFF7A1
:10CA9000F7FE05A80DF098FE424905A80DF0DAFE54
:10CAA000022005AA0021FFF7EBFE05A80DF08CFE81
:10CAB000002C35D0631E0C2CDBB233D0651CEDB2DC
:10CAC000394E2C4856F823100AF089FC294905A84C
:10CAD0000DF0C0FE05AA40210220FFF7D1FE05A8F7
