:020000022000DC
:1070000000000420C1960300E9960300EB960300FC
:10701000ED960300EF960300F196030000000000D8
:10702000000000000000000000000000F3960300D4
:10703000F5960300000000000000000000000000C2
:10704000D1850500F796030051A40500A98B050022
:10705000F796030011820500E97F0500016806002C
:10706000F7960300E98A0500FD8A0500F7960300FC
:10707000F7960300F7960300F7960300F7960300D0
:1070800005750600E9570500F7960300F79603001B
:10709000F7960300F7960300895E0600F796030053
:1070A000F7960300F7960300118B0500258B05006A
:1070B000F7960300F79603000000000000000000B0
:1070C000F7960300F7960300F79603003D6D060060
:1070D00001880500F7960300F796030061A10500FB
:1070E000D9A10600F796030019C9060000000000A8
:1070F00000000000F7960300000000000D7106007C
:10710000000000000000000000000000000000007F
:10711000000000000000000000000000000000006F
:10712000000000000000000000000000000000005F
:10713000000000000000000000000000000000004F
:10714000000000000000000000000000000000003F
:10715000000000000000000000000000000000002F
:10716000000000000000000000000000000000001F
:10717000000000000000000000000000000000000F
:1071800000000000000000000000000000000000FF
:1071900000000000000000000000000000000000EF
:1071A00000000000000000000000000000000000DF
:1071B00000000000000000000000000000000000CF
:1071C00000000000000000000000000000000000BF
:1071D00000000000000000000000000000000000AF
:1071E000000000000000000000000000000000009F
:1071F000000000000000000000000000000000008F
:1072000010B5054C237833B9044B13B10448AFF3E0
:1072100000800123237010BD60D500200000000015
:107220008809080008B5034B1BB103490348AFF3B5
:10723000008008BD0000000064D500208809080017
:10724000154B002B08BF134B9D46A3F5803A002138
:107250008B460F461348144A121A0FF08DFE0F4B3F
:10726000002B00D098470E4B002B00D098470020F1
:10727000002104000D000D48002802D00C48AFF397
:1072800000800FF029FE200029000FF0AFFB0FF067
:107290000FFE00BF000008000000042000000000F6
:1072A0000000000060D500203CC501200000000067
:1072B000000000000022C0E900220172704738B5CA
:1072C0000446006820B1856912F030F92846F9E7D4
:1072D000204638BD006820B143688B4201D08069E8
:1072E000F9E77047F8B504460F4616461D46FFF706
:1072F000F1FF20B10123826005704370F8BD1C20AE
:1073000012F018F9012343700023C0E90333C0E9E8
:10731000053323680570C0E9017613B92060606009
:10732000ECE763689861FAE72DE9F8430468164FC3
:1073300005460E464FF000081CB363680BB9A469FC
:10734000FAE72378002BFAD0E368A268F31A9A428E
:1073500002D961780029F2D09B1A636184F8018018
:10736000E66014F029F863688146984714F024F821
:107370003B68A0EB0900206118442B7A3860002B91
:10738000DDD0BDE8F88300BF7CD50020024B1A7821
:107390000AB901221A707047D8D60020034B04485E
:1073A00007221A700121FA2213F063BC80D5002055
:1073B00011E3002008B5074B50B103221A700648AC
:1073C000FA22012113F055FC044B00221A7008BD6B
:1073D0000522F3E780D5002011E30020D9D6002054
:1073E000054B064800221A70054B08221A7001212D
:1073F000FA2213F03EBC00BFD9D6002011E30020D2
:1074000080D500202DE9FF47DFF8C0A2974D984EA8
:10741000DFF8BC82012700232F7033709AF80930FF
:10742000023BBB42544600F25581924807F00FF9E7
:107430009AF80B30002B00F0CC808F4A98F800307F
:1074400011789146002940F0AB8083B18B4B1B78BB
:107450006BB905F0F9FC9AF80930022B0CBF88488B
:107460008848394605F090FB874805F08FFC04F00A
:10747000B7FF10B3854B1B781BB98548012113F06A
:10748000D8FAB4F88E0004F085FE002800F08C8154
:10749000784807F0DFF80390764807F0DDF801241C
:1074A0000023CDE900437B4B03991B7802467A48C1
:1074B00013F0BEF900286ED15FE0784A117809BB5D
:1074C000774B1B7803F0FF07E3B90123694889F87C
:1074D000003007F0BCF8734B73481F8041F28832CC
:1074E0006368B3FBF2F3714A1380714B1F70714BE9
:1074F00040F6C4121F7003213B4604B0BDE8F047BC
:1075000013F0B7BB0023137098F800304BB15B4BFE
:107510001B7833B96849694810F0C5FA674805F027
:1075200035FC637A032B2BD1654B52481B68002234
:107530001BB2114606F0C8FF544B1B781BB95448C8
:10754000012113F076FAB4F88E0004F023FE00282F
:1075500000F02A81474807F07DF80390454807F07E
:107560007BF801240023CDE900434A4B03991B78A3
:107570000246494813F05CF960B9287034700AE09B
:1075800000230093B7EE000A1A461946394806F060
:10759000CFFED1E72C704A4A13680133136003E130
:1075A000002B00F00181354B1B78002B40F0FC8054
:1075B00005F04AFC9AF80930022B0CBF30483148DC
:1075C000394605F0E1FA3F4804B0BDE8F04705F060
:1075D000DDBB98F8003083B1284B1B786BB905F000
:1075E00033FC9AF80930022B0CBF25482548394650
:1075F00005F0CAFA344805F0C9FB637A032B2BD196
:107600002F4B1C481B6800221BB2114606F05CFF82
:107610001E4B1B781BB91E48012113F00AFAB4F85F
:107620008E0004F0B7FD002800F0BE80114807F07E
:1076300011F803900F4807F00FF801230021CDE95E
:107640000031144B03991B780246134813F0F0F8ED
:107650000028A0D128709EE700230093B7EE000A0F
:107660001A461946034806F063FED1E7D9D6002032
:10767000E0A30020A4D50020ACD5002008D700202E
:10768000B81E0700C81E0700D91E0700D8D6002064
:107690006CE3002094A1002049E30020A2D5002043
:1076A00081D5002028D7002011E300202AD7002010
:1076B00058D7002059D70020F41E0700B5D5002068
:1076C000C8D600200A1F07001E1F070008A30020BD
:1076D000AFD5002098F8003073B13D4B93F800808F
:1076E000B8F1000F08D105F0AFFB3A48394605F074
:1076F0004BFA394B83F80080384806F0A8FF384829
:1077000013F0A6F90746002851D0364813F02AF99D
:10771000002846D00121242013F03DFE324B1B7877
:1077200013B3324805F032FB314B1B781BB931489B
:10773000012113F07EF9E77AEFB104F051FE70B940
:107740009FED2D0A2D4B83ED000A2D4B024683ED54
:10775000000A014600900346204806F0E9FD1F4854
:1077600006F078FF80B28EE61B4B1B780BB12548E4
:10777000D8E72548D6E7B4F88E0004F00BFD98B1A1
:107780000197224B224A2348012700971B7894F83F
:107790008E1013F04DF800287FF4FDAE287037707E
:1077A000F9E601232870337004B0BDE8F0870121A9
:1077B000232013F0F0FD144805F0E8FA3B46144A84
:1077C00094F88E10144812F0DEFF01232B70E2E6CD
:1077D00008D700202A1F0700A2D50020A4D500202A
:1077E0006DE3002054E3002081D500203B1F0700FB
:1077F000D8D600206CE30020000000003CD7002019
:1078000038D700204C1F07005B1F070094A1002001
:1078100014A3002049E300206EE3002000000000D4
:107820002DE9F04F844B1A78012A8FB0054636D1E6
:10783000022203A81A702BF06BFF804B039893F978
:1078400091307F4C4FF46162123802FB030005A9AE
:107850002BF0D2FF0A9B03F26C739BB22380099B2F
:107860000133DBB2A3709DF8203023719DF81C30EA
:1078700063719DF81830A3719DF81430E371714B5A
:107880001B7863B12088A17822796379A679E4799D
:1078900080B2CDE9006406F08BF806F0CFF8002145
:1078A000242013F078FD0021232013F074FD002D17
:1078B00001F022822B78013B092B01F22A83DFE8B9
:1078C00013F00A0050015F02BA0277040305CD07E6
:1078D000C709280B750A05F067FF5B4B1B78002B67
:1078E00037D0584B1B78002B00F09C8006F0A6F890
:1078F000534A564B118889B219809178C9B2997050
:107900001179C9B2D9705179C9B219719179C9B2D5
:107910005971D2794E49D2B29A710122DA7100229C
:107920001A720968D9604B49096819614A491A7580
:107930005A75098849B2D9754849097849B2197602
:107940005A839A83DA83464A126812B21A8406F07E
:10795000EDFA444B1B78002B01F0CE81424B1C7892
:10796000002C41F0C9814149414810F09CF8404940
:1079700005A813F0D7FA05AA2146204605F080FA9B
:1079800005A813F089FA3B4B3B491A68384810F0B8
:1079900053F8374905A813F0C5FA05AA2146012076
:1079A00005F06EFA05A813F077FA344812F085FE58
:1079B00049F038FD1EA3D3E9002349F0D7FE0B465A
:1079C00002462F492A4810F037F8294905A813F034
:1079D000A9FA05AA2146022005F052FA05A813F0DB
:1079E0005BFA284812F07AFE27490246204810F038
:1079F00023F81F4905A813F095FA05AA214603208C
:107A000005F03EFA05A813F047FA204812F077FE79
:107A1000092800F2A480DFE800F03B909294969849
:107A20009A9C9EA006F02EF862E700BFAFF300809C
:107A30000000000080842E41D8D6002008A300203A
:107A4000DCD90020E4D90020B0D50020A4A100207A
:107A500038D700203CD70020B2D50020B4D5002074
:107A6000C4D60020AFD5002008D700206D1F070026
:107A7000B5D50020C8D600207B1F070079E3002081
:107A80008F1F07007AE30020972C07007BE300207C
:107A9000874903A810F007F8864812F030FE864B9D
:107AA000864953F8202086480FF0C6FF844905A870
:107AB00013F038FA05AA4021032005F0E1F905A8E2
:107AC00013F0EAF97F4812F02BFE7F49421D7C48F3
:107AD0000FF0B2FF7A4905A813F024FA05AA402155
:107AE000022005F0CDF905A813F0D6F9774B7849B7
:107AF0001A88734812B20FF09FFF714905A813F05E
:107B000011FA05AA0021042005F0BAF905A813F01E
:107B1000C3F9704B70491A7852B269480FF08CFF64
:107B2000674905A813F0FEF905AA4021042005F0D5
:107B3000A7F905A813F0B0F916E36849A9E7684961
:107B4000A7E76849A5E76849A3E76849A1E7684945
:107B50009FE768499DE768499BE7684999E7684955
:107B600097E705F021FE674B00221A70664B1B78E1
:107B7000002B35D0654B1B78002B6BD005F05EFFDA
:107B8000634B644C1A88644892B222809A78D2B2CD
:107B9000A2701A79D2B2E2705A79D2B222719A796D
:107BA000D2B26271DB795D4ADBB2A3710023E3716B
:107BB00023721268E2605A4A126822612375637563
:107BC000E37523766383A383E383564B1B681BB261
:107BD000238412F0DBFE40B284F8220006F0A6F9FE
:107BE000514B1B78002B01F08780504B1C78002CE8
:107BF00041F082804E4932484E4D0FF054FF3049DB
:107C000005A813F08FF905AA2146204605F038F99A
:107C100005A813F041F92A68474929480FF00CFFDD
:107C2000274905A813F07EF905AA2146022005F090
:107C300027F905A813F030F92B68013B0F2B35D835
:107C4000DFE803F00B16181A1C1E20222426282A0F
:107C50002C2E303205F016FF92E7384918480FF005
:107C600022FF174905A813F05DF905AA00215DE779
:107C70003349F3E73349F1E73349EFE73349EDE7B8
:107C80003349EBE73349E9E73349E7E73349E5E7C8
:107C90003349E3E73349E1E73349DFE73349DDE7D8
:107CA0003349DBE73349D9E73349D7E73349D5E7E8
:107CB000961F07007BE3002080A20020CC1F070056
:107CC000B5D500207CE30020B02C0700B2D5002001
:107CD00065210700B4D50020702107009A1F070016
:107CE0009E1F0700A21F0700A61F0700AB1F07006B
:107CF000B11F0700B71F0700BD1F0700C31F070004
:107D0000C81F0700D9D60020B0D50020E4D9002034
:107D1000DCD90020A4A1002058E3002038D700209F
:107D20003CD70020C4D60020AFD5002008D70020C3
:107D3000D21F0700DCD60020E11F0700EB1F070061
:107D4000F91F070004200700102007001C2007006F
:107D500026200700302007003C20070050200700A5
:107D60006320070073200700802007008A20070097
:107D70009A200700A8200700B4200700C5200700AC
:107D800005F012FDA24B1B78002B00F0B587A14B2C
:107D90001E78002E40F0B0879F4C657A022D41D0AE
:107DA000032D46D05DB99D4905A813F0BBF805AA7F
:107DB0002946084605F064F805A813F06DF84FF45D
:107DC0007A7362689649B2FBF3F296480FF034FE7C
:107DD000944905A813F0A6F805AA0021012005F092
:107DE0004FF805A813F058F88F4905A813F09AF832
:107DF000002105AA022005F043F805A813F04CF86D
:107E00008A4988480FF04FFE864905A813F08AF882
:107E1000002105AA032005F033F805A813F03CF86B
:107E200081491FE7824905A813F07CF805AA31466D
:107E3000BFE78049F7E705F0B7FC7F4B1B78002BC5
:107E400045D07E4B1B78002B00F0DE8005F0F6FD60
:107E50007B4B7C4C1A887C4892B222809A78D2B2B2
:107E6000A2701A79D2B2E2705A79D2B222719A799A
:107E7000D2B26271DB79754ADBB2A3710023E37180
:107E80001278D2B22272724A1268E260714A1268A3
:107E90002261714A118849B22175118849B2617510
:107EA000128852B2E2756D4A127852B2227663831A
:107EB000A3836B4B1B78E3836A4B1B681BB2238441
:107EC00012F064FD40B284F8220006F02FF8504B07
:107ED0001B78002B00F010874E4B1C78002C40F0D4
:107EE0000B87614D614B2978614A4E485D4FDFF841
:107EF000A481002918BF1A465E490FF09DFD49492B
:107F000005A813F00FF805AA2146204604F0B8FF93
:107F100005A812F0C1FF2B7803F0FF06002B40F0FC
:107F2000BB804F4B54491A783E480FF085FD3D49C0
:107F300005A812F0F7FF05AA3146012004F0A0FFC2
:107F400005A812F0A9FF404812F020FD4B49024657
:107F500034480FF071FD334905A812F0E3FF05AA7C
:107F60003146022004F08CFF05A812F095FF374B34
:107F700043491A782B480FF05FFD2A4905A812F0F3
:107F8000D1FF05AA4021022004F07AFF05A812F0D3
:107F900083FFD8F800203B4922480FF04DFD2149CE
:107FA00005A812F0BFFF05AA3146032004F068FFC0
:107FB00005A812F071FF3A6833491A480FF03CFDEA
:107FC000184905A812F0AEFF05AA4021032004F0CD
:107FD00057FF05A812F060FF1F4B2C491A88114863
:107FE00012B20FF029FD0F4905A812F09BFF05AA58
:107FF0003146042004F044FF05A812F04DFF174B52
:1080000023491A7852B288E505F03CFD20E700BF0D
:10801000AFD5002008D7002008A30020D3200700F8
:1080200007210700B5D500204BCB07003020070003
:10803000E2200700F3200700B0D50020E4D900209B
:10804000DCD90020A4A1002058E30020B6D60020EF
:1080500038D700203CD70020B2D50020B4D500206E
:10806000B5D60020C4D60020B7D60020691F07006F
:10807000D82207001B2107002C2107004021070000
:1080800049210700522107005A21070062210700F9
:108090006D210700C8D60020D8F800206A496B4837
:1080A0000FF0CAFC694905A812F03CFF05AA214659
:1080B000012004F0E5FE05A812F0EEFE3A686449DE
:1080C00062480FF0B9FC614905A812F02BFF05AA20
:1080D0004021012004F0D4FE05A812F0DDFE2A782C
:1080E0005C495A480FF0A8FC584905A812F01AFF3D
:1080F00005AA2146022004F0C3FE05A812F0CCFE1A
:108100002B78013B0F2B51D8DFE803F008323436CF
:10811000383A3C3E40424446484A4C4E4E494B4811
:108120000FF0C1FC494905A812F0FCFE05AA002188
:10813000032004F0A5FE05A812F0AEFE474812F099
:1081400025FC4749024641480FF076FC3F4905A807
:1081500012F0E8FE05AA0021042004F091FE05A813
:1081600012F09AFE04F0A6FE04F0A4FE00F0C4BDD6
:108170003C49D4E73C49D2E73C49D0E73C49CEE70B
:108180003C49CCE73C49CAE73C49C8E73C49C6E71B
:108190003C49C4E73C49C2E73C49C0E73C49BEE72B
:1081A0003C49BCE73C49BAE73C49B8E73C49B6E73B
:1081B00005F0FAFA3B4B1B78002B00F09D853A4BFB
:1081C0001E78002E40F09885384C657A022D31D00B
:1081D000032D36D05DB9364905A812F0A3FE05AAD5
:1081E0002946084604F04CFE05A812F055FE4FF44F
:1081F0007A7362682F49B2FBF3F214480FF01CFC4B
:10820000124905A812F08EFE05AA0021012004F0F3
:1082100037FE05A812F040FE274905A812F082FE9D
:10822000002105AA022004F02BFE05A812F034FE5E
:108230002249E6E5224905A812F074FE05AA314656
:10824000CFE72049F7E700BF52210700B5D500204E
:108250005A21070077210700EB1F070058E3002091
:108260008C210700F91F07000420070010200700D9
:108270001C20070026200700302007003C200700B4
:1082800050200700632007007320070080200700AC
:108290008A2007009A200700A8200700B4200700C2
:1082A000C5200700AFD5002008D7002008A3002074
:1082B000D3200700072107004BCB070095210700BB
:1082C000E2200700F3200700984F05F06DFA7B7A53
:1082D0009749032B974B40F05F811A785E78DD78E1
:1082E0001C7993F8028093F805A093F907B00B78F6
:1082F00006EB0226C5EB4510B6B20A22B6FBF2F237
:1083000007EE902A05EB8005C4EB44108A4AF8EE8C
:10831000E77A04EB800408F138086D006400C2EDD0
:10832000007A4FFA88F82DB224B24FEA2A1A914601
:10833000002B41D0814B1B78002B00F0E28005F030
:108340007DFB7F4A7F4B11887F4889B219809178E5
:10835000C9B299701179C9B2D9705179C9B219717C
:108360009179C9B25971D279D2B29A710322DA7174
:108370005FFA8AF21A72754A1268DA60744A1268F1
:108380001A610021734A197583F8158083F816B0B5
:10839000128852B2DA75704A127836B252B21A7630
:1083A0005D839C83D9831E8412F0F0FA654B40B242
:1083B00083F8220005F0BAFD684B1B78002B00F013
:1083C0009B84674B1B78002B40F0968404F03CFDA7
:1083D0007B7A022B0CBF63486348012104F0D4FB75
:1083E0005D4B62491A785B4B61481B8852B21BB2E5
:1083F0000FF022FB5E4905A812F094FD002108460B
:1084000005AA04F03DFD05A812F046FD43465A4674
:10841000584957480FF010FB554905A812F082FD46
:1084200005AA0021012004F02BFD05A812F034FD5F
:10843000524651494E480FF0FFFA4D4905A812F037
:1084400071FD05AA0021022004F01AFD05A812F012
:1084500023FD4A4905A812F065FD05AA3221022034
:1084600004F00EFD05A812F017FD454905A812F00D
:1084700059FD05AA5021022004F002FD05A812F0C2
:108480000BFD404905A812F04DFD05AA002103206F
:1084900004F0F6FC05A812F0FFFCFE7A3A4F002E1D
:1084A00032D02A46394932480FF0C6FA304905A879
:1084B00012F038FD05AA3221032004F0E1FC05A8E2
:1084C00012F0EAFC31492A4822460FF0B5FA284951
:1084D00005A812F027FD05AA5021032004F0D0FCC6
:1084E00005A812F0D9FCD9F800003C6848F0BCFFA0
:1084F000009402460B461E4825490FF09DFAFFF7EF
:10850000B0BB05F0BFFA1CE7224919480FF0CBFABF
:10851000174905A812F006FD05AA3221032004F030
:10852000AFFC05A812F0B8FCD1E700BF08A30020FB
:10853000B0D5002082D50020CCD60020E4D9002080
:10854000DCD90020A4A1002058E3002038D7002067
:108550003CD70020B2D50020B4D50020AFD50020F4
:1085600008D70020B81E0700C81E0700AB2107006F
:10857000B5D50020C2210700D9210700E42107005A
:10858000E8210700EC210700C8D600203D210700A4
:10859000F52107000A220700DD7893F801809E7814
:1085A00093F805A0C5EB451205EB82051A790B7807
:1085B000C2EB421902EB8909A8F1C808C83E6D0058
:1085C0004FEA49091FFA88F8B6B22DB20FFA89F9B5
:1085D000002B42D0894B1B78002B00F0FB8005F06C
:1085E0002DFA874B874C1A88874892B222809A7856
:1085F000D2B2A2701A79D2B2E2705A79D2B2227192
:108600009A79D2B26271DB79DBB2A3710223E37192
:108610007E4B84F808A01B68E3607D4B1B682361D8
:108620004FFA88F3237573B263757A4B1B885BB27C
:10863000E375794B1B785BB2237600236583A4F83E
:108640001C90E383754B1B681BB2238412F09EF9C8
:1086500040B284F8220005F069FC714B1B78002BB6
:1086600000F04A836F4B1B78002B40F0458304F0E9
:10867000EBFB7B7A022B0CBF6B486C48012104F0AA
:1086800083FA654B6A491A78624B6A481B8852B272
:108690001BB20FF0D1F9674905A812F043FC002185
:1086A000084605AA04F0ECFB05A812F0F5FB4FFA0A
:1086B0008AF261495F480FF0BFF95E4905A812F0E0
:1086C00031FC05AA0021012004F0DAFB05A812F014
:1086D000E3FB5A4905A812F025FC05AA3221012026
:1086E00004F0CEFB05A812F0D7FB554905A812F0FF
:1086F00019FC05AA5021012004F0C2FB05A812F0C4
:10870000CBFB504905A812F00DFC05AA0021022060
:1087100004F0B6FB05A812F0BFFB4B4905A812F008
:1087200001FC05AA0021032004F0AAFB05A812F011
:10873000B3FB0FFA88F245493E480FF07DF93D49F9
:1087400005A812F0EFFB05AA3221022004F098FBE5
:1087500005A812F0A1FB32B23C4936483C4E0FF05E
:108760006BF9344905A812F0DDFB05AA322103207C
:1087700004F086FB05A812F08FFBFC7A274F64B348
:108780002A4632492B480FF057F92A4905A812F01A
:10879000C9FB05AA5021022004F072FB05A812F0C3
:1087A0007BFB2A4923484A460FF046F9214905A890
:1087B00012F0B8FB05AA5021032004F061FB05A8C4
:1087C00012F06AFB3A68234933681A480FF034F90B
:1087D000FFF747BA05F056F903E71F4915480FF0B0
:1087E00062F9144905A812F09DFB05AA5021022048
:1087F00004F046FB05A812F04FFBD7E7E4D90020B0
:10880000DCD90020A4A1002058E3002038D70020A4
:108810003CD70020B2D50020B4D50020C4D600201B
:10882000AFD5002008D70020B81E0700C81E0700DB
:10883000AB210700B5D50020D921070086770700B6
:10884000EC210700E4210700E82107003D21070093
:10885000C8D600200D2207000A22070004F0A4FF5A
:108860009F48042112F00FFA9E4B1B78002B37D043
:108870009D4B1B78002B00F0ED8005F0DFF89B4B43
:108880009B4C1A889B4892B222809A78D2B2A270EE
:108890001A79D2B2E2705A79D2B222719A79D2B2EE
:1088A0006271DB79944ADBB2A3710223E371002386
:1088B00023721268E260914A12682261237563751F
:1088C000E37523766383A383E3838D4B1B681BB21D
:1088D000238412F05BF840B284F8220005F026FBF6
:1088E000884B1B78002B00F00782874B1B78002BEE
:1088F00040F00282854D864C04F0A6FA6B7A032B79
:108900000CBF84488448012104F03EF9834984481F
:108910000FF0C9F8824905A812F004FB00210846AF
:1089200005AA04F0ADFA05A812F0B6FA7D4B1E7840
:10893000002E00F071817C4FDFF8C4914FF00008E9
:1089400083F800803B7803F0FF06002B40F0858021
:10895000764B77491A7872480FF06EF8704905A87F
:1089600012F0E0FA05AA3146012004F089FA05A8C0
:1089700012F092FA5F4812F009F86E490246684810
:108980000FF05AF8664905A812F0CCFA05AA31464C
:10899000022004F075FA05A812F07EFA664B6749CA
:1089A0001A785F480FF048F85D4905A812F0BAFA46
:1089B00005AA4021022004F063FA05A812F06CFA1F
:1089C00022685F4956480FF037F8554905A812F05C
:1089D000A9FA05AA3146032004F052FA05A812F0BC
:1089E0005BFAD9F8002057494D480FF025F84C495B
:1089F00005A812F097FA05AA4021032004F040FAD6
:108A000005A812F049FA504B50491A88444812B24E
:108A10000FF012F8424905A812F084FA05AA31466F
:108A2000042004F02DFA05A812F036FA484B494903
:108A30001A783B4852B20EF0FFFF394905A812F0F0
:108A400071FA05AA4021042004F01AFA05A812F0D0
:108A500023FAA9E005F016F811E7226838493048F2
:108A60000EF0EAFF2E4905A812F05CFA05AA41466D
:108A7000012004F005FA05A812F00EFAD9F800203A
:108A8000304927480EF0D8FF254905A812F04AFAC8
:108A900005AA4021012004F0F3F905A812F0FCF921
:108AA0003A782D491E480EF0C7FF1D4905A812F05F
:108AB00039FA05AA4146022004F0E2F905A812F0AD
:108AC000EBF93B78013B0F2B00F2A480DFE803F0C9
:108AD000468486888A8C8E90929496989A9C9EA0C2
:108AE00011E30020B0D50020E4D90020DCD900201B
:108AF000A4A1002058E3002038D700203CD7002054
:108B0000C4D60020AFD5002008D7002008A300203D
:108B1000C8D6002021220700B81E07003222070015
:108B2000B5D50020AED50020B7D60020B5D60020A0
:108B30002C21070040210700B6D60020492107005C
:108B4000522107005A210700B2D5002062210700F8
:108B5000B4D500206D2107007721070070497148C6
:108B60000EF0A1FF6F4905A812F0DCF905AA00215B
:108B7000032004F085F905A812F08EF96A4811F077
:108B800005FF6A49024667480EF056FF654905A889
:108B900012F0C8F905AA0021042004F071F905A813
:108BA00012F07AF904F086F96B7A032B48D1604B06
:108BB0001868246848F058FC009402460B4659484F
:108BC0005C490EF039FF574905A812F0ABF905AA28
:108BD00000210520FEF7ABBF5749C0E75749BEE764
:108BE0005749BCE75749BAE75749B8E75749B6E785
:108BF0005749B4E75749B2E75749B0E75749AEE795
:108C00005749ACE75749AAE75749A8E75749A6E7A4
:108C10005749A4E75749A2E7574905A812F082F936
:108C200005AA3146022004F02BF905A812F034F908
:108C3000524905A812F076F905AA3146032003E748
:108C40004F4B50491A68374823680EF0F5FEBAE7D3
:108C500004F0AAFD4C4B5C7A012C20D0042C4ED0A1
:108C6000002C46D104F0F0F80121484803F08CFFB5
:108C7000474905A812F056F905AA2146204604F0F6
:108C8000FFF805A812F008F9424926480EF00BFF3C
:108C9000244905A812F046F905AA214621E03E4BD9
:108CA0001B7833B33D4B1D781DBB04F0CDF837481E
:108CB000214603F069FF3A4905A812F033F905AAE5
:108CC0002946284604F0DCF805A812F0E5F83149F9
:108CD00014480EF0E8FE134905A812F023F905AA7E
:108CE0002946032004F0CCF805A812F0D5F804F0CA
:108CF000E1F82C4B00221A700FB0BDE8F08F264B24
:108D00001B78002BF5D0254B1C78002CF1D104F0FA
:108D10009BF801211D4803F037FF2349A9E700BF55
:108D2000EB1F0700B5D5002058E300208C21070079
:108D3000CCD60020F5210700F91F0700042007000A
:108D4000102007001C200700262007003020070005
:108D50003C20070050200700632007007320070015
:108D6000802007008A2007009A200700A82007001B
:108D7000B4200700C5200700472207005B22070038
:108D8000C4D600200D22070008A300202A1F0700D8
:108D9000D32007006F220700AFD5002008D700209E
:108DA0006D1F0700D9D600207B22070004F0FCFCD1
:108DB000654B1B78002B3CD0644BD3F89430002BD0
:108DC00037D0634B1B78002B00F0A08004F036FEF8
:108DD000604A614B118889B219809178C9B2997043
:108DE0001179C9B2D9705179C9B219719179C9B2E1
:108DF0005971D2795949D2B29A710122DA7100229D
:108E00001A720968D96056490968196155491A7575
:108E10005A75098849B2D9755349097849B2197602
:108E20005A839A83DA83514A126812B21A8405F07F
:108E30007DF84F4B1B78002B3FF45EAF4D4B1C78F9
:108E4000002C7FF459AF4C494C480EF02CFE4B4996
:108E500005A812F067F805AA2146204604F010F88C
:108E600005A812F019F8464B46491A6843480EF017
:108E7000E3FD424905A812F055F805AA2146012054
:108E800003F0FEFF05A812F007F83F493B480EF03B
:108E90000AFE3A4905A812F045F805AA2146022023
:108EA00003F0EEFF05A811F0F7FF384B38491A68B8
:108EB00032480EF0C1FD314905A812F033F805AA79
:108EC0004021022003F0DCFF05A811F0E5FF314945
:108ED0002A480EF0E8FD294905A812F023F805AA52
:108EE0002146032003F0CCFF05A811F0D5FF2A4B43
:108EF00027491A6821480EF09FFD204905A812F065
:108F000011F805AA40210320FEF7EBBD04F0BAFDDD
:108F10005EE7174B1B78002B3FF4EEAE154B1C7829
:108F2000002C7FF4E9AE03F08FFF2A781B49134829
:108F30000EF082FD114905A811F0F4FF05AA2146A3
:108F40002046FEF7F4BD00BFB0D5002008A30020E6
:108F5000E4D90020DCD90020A4A1002038D70020CB
:108F60003CD70020B2D50020B4D50020C4D60020C4
:108F7000AFD5002008D700207B220700B5D5002000
:108F8000C8D600207B1F07008B220700D0D6002008
:108F9000952207009B220700D4D60020A2220700BA
:108FA00010B5C4B001AC84E807001D4BB4F906202D
:108FB0001A801C4B94F908201A701B4A136801335D
:108FC00013601A4B0021FC2205A8197004910DF0C2
:108FD000D3FF2279216804A80DF0C0FF049A531C26
:108FE00016D1059BA3B112490A60124A1360124AB6
:108FF000D2F894200AB193420FD1104B0A221A7072
:109000000121FA220E4844B0BDE8104011F031BEF3
:109010000A4B01211970FA22F4E744B010BD00BFD9
:10902000B2D50020B4D50020C8D60020D9D6002063
:10903000D0D60020D4D6002008A3002080D5002060
:1090400011E3002010B5044605F0FAFA204610BDE1
:109050000F4BB0B100221A700E4B0F4A18600F4B25
:1090600011685B7A023B012B01F101010C4B11608D
:1090700094BF072202221A700A48FA22012111F035
:10908000F8BD1B7813B1064B0822F4E7704700BF08
:10909000D9D60020DCD60020C4D6002008A30020AA
:1090A00080D5002011E30020174B00221A70174BC7
:1090B00090F906201A70164BB0F904201A80154A50
:1090C00003781370144A41781170144A8178117032
:1090D000134A012111701BB1124A13680B4413602B
:1090E000114B12485B7A023B012B114B95BF0722B3
:1090F00004221A701A7099BF42F210720421FA22E7
:10910000012111F0B6BD00BFD9D60020B4D5002092
:10911000B2D50020B7D60020B5D60020B6D60020A4
:10912000AED50020C4D6002008A3002011E3002003
:1091300080D5002038B5164BB0F90A201A80154B9F
:1091400090F90C201A70144B42781A700378044678
:10915000EBB1124B5B7A023B012B15D8104804216E
:1091600011F091FD2378023B012B0DD80D4D227A91
:1091700061680D4806232B700DF0F0FE08482B4661
:10918000FA22012111F075FD084B00221A7038BD3A
:10919000B2D50020B4D50020B1D5002008A300200E
:1091A00011E3002080D5002082D50020D9D60020F0
:1091B00030B54FF080432DED028BD3F83834032BBC
:1091C00083B027D01448144D11F01EFD0A24B0EED0
:1091D000408A284611F018FD013C38EE008AF8D18B
:1091E000B2EE067AC8EE077A9FED0C7ADFED0C6AD4
:1091F00067EE877A9FED0B7A67EE877A87EEA67A1D
:10920000FCEEC77ACDED017A9DF8040003B0BDEC09
:10921000028B30BD0020F9E70DE3002000007A4406
:109220000040834500007F4308B5064B1B783BB1E7
:1092300012F0BDF8BDE8084001460348FEF774B8D7
:1092400008BD00BF09D70020B8D6002008B51A4BCA
:109250001A4801221A7011F0AEFA18B1184800210C
:1092600011F073FA174811F0F7FB1749174811F07E
:1092700005FB1749154811F011FB1649134811F069
:1092800005FB1549114811F011FB14490F4811F065
:1092900015FB0021124811F04FFB0221114811F07B
:1092A000B9FB114BD97A01B10121222012F073F8D8
:1092B0000E4B02221A7008BDA2A1002084E30020F8
:1092C0006EE300206DE300203591020049E30020A9
:1092D00051900200B5730200A99002008D73020044
:1092E00051E300206BE3002008A3002094A100209C
:1092F00008B50F4B0F480021197011F026FA0E48DF
:1093000011F05DFA0D490B4811F066FA0C49094855
:1093100011F06AFA4FF6FD71064811F016FA094B82
:10932000D97A01B10121BDE80840222012F033B8FA
:10933000A2A100206EE3002084E30020A18F0200A0
:10934000E173020008A3002008B51A4B1A48012255
:109350001A7011F030FA18B11848002111F0F5F91F
:10936000174811F079FB1749174811F087FA174988
:10937000154811F093FA1649134811F087FA154968
:10938000114811F093FA14490F4811F097FA00218F
:10939000124811F0D1FA1248022111F03BFB114B97
:1093A000DB7A1BB10121222011F0F5FF0E4B0122C7
:1093B0001A7008BDA2A1002084E300206EE3002003
:1093C0006DE300203591020049E300205190020036
:1093D000B5730200A99002008D73020051E30020D2
:1093E0006BE3002008A3002094A1002010B50B4CD3
:1093F00000212046FDF75EFF2046094C094A0A4934
:109400000DF03EFDFF21204605F00EF92046054AED
:109410000649BDE810400DF033BD00BFB8D60020AE
:10942000A4D5002090A10020BF7202004590020048
:109430002DE9F04F012187B0222011F095FF012185
:10944000232011F091FF0121242011F08DFFAB4862
:10945000AB4E11F011FE03F063FB307068B1A94907
:10946000A9480EF020FBA848012103F08DFBA74876
:1094700003F08CFCA64803F089FC0021222011F0A7
:109480008AFF0223A34806224FF4E13111F0A2F82B
:109490004FF08043D3F83834032B76D14FF4FA6081
:1094A0001BF064FD0B23022203AC9B4900939648FA
:1094B0009A4D9B4F00230EF0BFFA9349204611F0BE
:1094C00031FD2146974811F073FB204611F0E4FC72
:1094D0000121232011F05FFF0021232011F05BFF09
:1094E0000021242011F057FF02F094FA02F0D4FA80
:1094F00002F0BCFA02F0F4F902F008FA02F01CFAE9
:1095000002F0E0FA02F05AFA02F09AFA02F0AEFD26
:1095100000F032FA002000F051F96B7A023B012B87
:109520005BD8012002F064FE38703B7813B17E48AE
:1095300003F02CFC04F08CF97C4F387060B104F01F
:109540007DFA94E803002AF0C2F802F021FA3B7891
:1095500013B1774803F01AFC04F0EEFA754F387037
:1095600048B104F003FC387002F0FCF93B7813B109
:10957000714803F00BFC02F037FA6B7A042B30D8F9
:10958000DFE803F053A0ADBAA90011F010FFDFF837
:1095900084A107464FF0000B41F287384FF00009D5
:1095A000504610F0FCFF00287FF47CAF11F0FFFE66
:1095B000C41B6BEB4B05A04579EB0503FFF672AFBF
:1095C00064201BF0D3FC232011F0EAFEB0FA80F1F6
:1095D0004909232011F0DFFEE2E7E87A0028A0D154
:1095E000A0E733780BB3554947480EF05CFA46497B
:1095F000204611F097FC00212246084603F040FC6B
:10960000204611F049FC4E493F480EF04CFA3E49C5
:10961000204611F087FC22460021012003F030FC97
:10962000204611F039FC03F045FC464803F0AEFB40
:10963000454811F097F910B9444803F0A7FBFFF72C
:1096400005FE4FF47A7342496A682F48B2FBF3F281
:109650000EF0F2F92C4803F099FB3E4A3E480123F4
:10966000002111F0FCFA6A6822B100233A48194639
:1096700011F0FFFA394A38480023012111F0EFFABE
:109680000023374A3448022111F0E9FAAB7A33B1AA
:10969000314800234EF66022022111F0EAFA314AE5
:1096A0002D480123032111F0DAFA2F4A2A4800231A
:1096B000042111F0D4FA01212C4811F04CFE07B01E
:1096C000BDE8F08FFFF714FE294803F05FFB29483F
:1096D00003F05CFBB5E7FFF70BFE2748F5E72748EB
:1096E00003F054FB184811F03DF910B9174803F086
:1096F0004DFBFFF729FEA4E72148F1E78CE30020AA
:10970000AFD500202A1F0700B5D50020B3220700DF
:10971000C022070030E20020482B070008A30020E9
:10972000ADD50020B8E20020CC220700E4D900200B
:10973000D4220700B0D50020DB220700E622070074
:10974000F8220700D320070054E300200823070075
:10975000072107000574020011E3002021780200B0
:1097600009CF0200FDC602009D730200A9E200209D
:10977000721F0700162307007B220700E220070064
:10978000F32007007047000008B5054805F0C6F84B
:10979000034805F0E2F8BDE80840014805F0FCB8D0
:1097A000E0D6002007B531220DF10701024805F08F
:1097B000FDF803B05DF804FBE0D6002073B500218E
:1097C0000446112011F0D0FD524811F055FC524BC7
:1097D000002C00F0848000229A800A22DA804FF464
:1097E00081721A8140F201125A814B4805F06EF9DC
:1097F0000546002840F08B80002C38D02A223021EA
:1098000045488DF80720012604F07AFF082232210E
:1098100041488DF8072004F073FF324633213E485B
:109820008DF8076004F06CFF24220DF107013A481F
:1098300005F0BCF89DF80720374822F00C0242F0F2
:10984000080224218DF8072004F05AFF602222210B
:1098500031488DF8072004F053FF2A4625212E4871
:1098600004F04EFF2C483246212104F049FF002528
:1098700020220DF1070128488DF8075005F096F8D1
:109880009DF80720244842F0080220218DF8072087
:1098900004F036FF64201BF069FB1E220DF1070166
:1098A0001D488DF8075005F081F89DF807201A48EB
:1098B00042F090021E218DF8072004F021FF642061
:1098C0001BF054FB8CB1FFF76DFF144904221120EB
:1098D00010F044FEFFF758FF204602B070BD022290
:1098E0009C80DC801A815C817FE720220DF10701DA
:1098F000094805F05BF89DF80720074802F0400290
:1099000020218DF80720012404F0FAFEE4E700246A
:10991000E2E700BF8CE30020E0D60020859702003C
:1099200002481822002104F0A5BE00BFE0D60020A6
:10993000D0B511F03CFD0D4C0D4B0021C3E90001E9
:1099400011F035FDD4E90032C61A62EB4207C92E88
:1099500077F1000309DB11F02AFD064A206000239D
:10996000636013780133DBB21370D0BDF8D60020EA
:1099700000D7002009D7002008B50221092011F0E6
:10998000F3FC06490322092010F0E8FD04490548CC
:1099900001236422FDF7A6FC012008BD31990200D5
:1099A0009D9F0200B8D600202DE9F04FC74D91B021
:1099B00011F0FDFCD5E900230024811A64EB0303B8
:1099C00000910193DDE9002340F6B8300021904278
:1099D00071EB0303A346A246A146A04627462646AE
:1099E00077DB11F0E4FCD5E90023811A63EB430334
:1099F00002910393DDE90223B2F5C87F73F10003FE
:109A000073DA11F0D4FCD5E90023811A63EB430328
:109A100004910593DDE90434B3F5C87F74F10003C4
:109A200080F2858011F0C3FCD5E90023811A63EB35
:109A3000430306910793DDE90634B3F5167F74F10D
:109A4000000380F2998011F0B2FCD5E90023811A5D
:109A500063EB430308910993DDE90834B3F5487FCC
:109A600074F1000380F2AE8011F0A1FCD5E900236F
:109A7000811A63EB43030A910B93DDE90A34B3F5D2
:109A8000966F74F1000380F2C08011F090FCD5E96C
:109A90000023811A63EB43030C910D93DDE90C3431
:109AA000B3F5AF6F74F1000380F2D28011F07FFC48
:109AB000D5E90023811A63EB43030E910F93DDE98F
:109AC0000E34B3F5C86F74F1000380F2E28008240D
:109AD00074E0092011F064FC002882D17C4B1B78D3
:109AE000002B3FF47EAF022468E0794B1B78012BFA
:109AF00087D1092011F054FC012882D10023C82C01
:109B000010D00920009311F04BFC009B012804BFEA
:109B10000133DBB2012001340093E4B21BF026FADA
:109B2000009BECE7C62B7FF66CAF002446E0684B49
:109B30001B78022B7FF476AF092011F031FC01284D
:109B40007FF470AF0024BBF1C80F10D0092011F0D2
:109B500027FC012808BF01344FF001000BF1010B75
:109B600008BFE4B25FFA8BFB1BF000FAEBE7C62CF0
:109B70007FF658AF012421E0554B1B78032BDCB254
:109B80007FF461AF4FF0000BBAF1C80F12D009207B
:109B900011F006FC012808BF0BF1010B4FF001008A
:109BA0000AF1010A08BF5FFA8BFB5FFA8AFA1BF021
:109BB000DDF9E9E7BBF1C60F7FF645AF204611B0EE
:109BC000BDE8F08F424B1B78042BDCB27FF44CAF26
:109BD0004FF0000AB9F1C80F12D0092011F0E0FBD4
:109BE000012808BF0AF1010A4FF0010009F101093B
:109BF00008BF5FFA8AFA5FFA89F91BF0B7F9E9E75B
:109C0000BAF1C60F7FF630AFD8E7314B1B78052B82
:109C1000DCB27FF43AAF4FF00009B8F1C80F12D0B0
:109C2000092011F0BDFB012808BF09F101094FF01F
:109C3000010008F1010808BF5FFA89F95FFA88F8A6
:109C40001BF094F9E9E7B9F1C60F7FF61EAFB5E74F
:109C50001F4B1B78062BDCB27FF428AF4FF00008B7
:109C6000C82F11D0092011F09BFB012808BF08F173
:109C700001084FF0010007F1010708BF5FFA88F8FB
:109C8000FFB21BF073F9EBE7B8F1C60F7FF60EAF2A
:109C900094E70F4B1B78072BDCB27FF418AF00253D
:109CA000C82E0FD0092011F07BFB012808BF013519
:109CB0004FF0010006F1010608BFEDB2F6B21BF04D
:109CC00055F9EDE7C62D7FF602AF77E700D7002004
:109CD00009D7002073B58D4D8D4C6A7A637A9A420C
:109CE00031D003F0B1F800218A4802F04DFF6B68D3
:109CF00063606B7A884863726B89638103F046F80E
:109D0000864803F043F803F0D5F801F001FF40F670
:109D1000B8301BF02BF9637A8148012B4FF000011A
:109D200001D0042B7AD110F010FD322300220093D1
:109D30007C480A23114610F060FD7B4810F03FFD7F
:109D40007A4810F05FFFEA7AE37A9A4207D06B7A9A
:109D5000023B012B94BF0120002002F049FA6A68FF
:109D600063689A4203D16A8963899A4213D003F0E7
:109D70006BF8694803F00AF8684803F007F803F045
:109D800099F86B6863606B89638101F0C1FE40F6EE
:109D9000B8301BF0EBF8664810F05AFE00284BD0A4
:109DA000644810F0E1FD644B1978884205D0003911
:109DB000604818BF012110F0D9FD604810F0E6FDA1
:109DC0005F4B1978884202D05C4810F0E1FD5D4895
:109DD00010F0EEFD5C4B1978884202D0594810F023
:109DE000E9FD5A4D5A482E7810F0F4FD86420BD00A
:109DF0002978574810F0FAFD322301220093494890
:109E00000A23114610F0F9FC03F01EF8637A042BC4
:109E100052D8DFE803F04E707476720010F095FCB3
:109E200001223223009311460A233E4810F0E5FC3C
:109E30003F4810F011FE83E7464D4748296810F06F
:109E40003EFC454810F039FC2968884202D042485F
:109E500010F035FC414810F041FC414B1978884224
:109E600002D03E4810F03CFC3E4D3F482E7810F0AA
:109E700046FC864203D029783B4810F042FC3B4820
:109E800010F04EFC3A4B1978884202D0374810F057
:109E900049FC384810F057FC374B1978884202D0FB
:109EA000344810F061FC4FF6FD711D4810F04DFC78
:109EB000AAE7324802F06AFF4FF47A7362683049C9
:109EC000B2FBF3F22F480DF0B7FD2E4802F05EFF13
:109ED000626822B100232C48194610F0CAFEA37A0A
:109EE0008BB1294800234EF66022022102B0BDE862
:109EF000704010F0BEBE2548DCE72548DAE725486B
:109F0000D8E72548D6E702B070BD00BFD0A1002039
:109F100008A30020242307002B2307003B2307006E
:109F20006EE3002049E3002084E30020A8E2002043
:109F30006DE3002055E300200BD7002058E30020FC
:109F40000DD7002060E300200ED700200CD70020A2
:109F50006AE3002018D7002079E300207AE300208C
:109F60001CD7002013D700207BE300207CE30020D7
:109F700014D700207EE300201DD70020D320070047
:109F800007210700B5D5002011E30020721F07004C
:109F90007B220700E2200700F32007002DE9F04FA5
:109FA00087B0FFF701FD072800F2CE81DFE810F04F
:109FB000BE044C030800CF01B00053002D001A006E
:109FC000914B00201870914B00240025C3E90045F7
:109FD0008F4B1B7823B107B0BDE8F04F02F072BF82
:109FE0000120F8E7884B00221A70884B00200021DE
:109FF000C3E90001874B1C783CB902F025FF864875
:10A00000214602F0C1FD1AF0C8FF7F4B00221A70F2
:10A010007E4B00200021C3E900017E4B1C7874B107
:10A020007E4B1A78052A40F08F8110221A707C4BE3
:10A03000D97A01919B7A00937A4B1B785BE002F00E
:10A0400003FF7948214602F09FFD784807B0BDE83C
:10A05000F04F10F0D7BD6C4B00221A706B4B0020F4
:10A060000021C3E900016B4B1B78002B00F06C81D1
:10A070006A4C2378052B00F26781DFE813F00600B5
:10A0800065016501220030004000694810F0E0FCE5
:10A090000128634B0AD104222270D97A01919B7A5C
:10A0A0006449009309786448FF2315E00522227073
:10A0B000D97A01919B7A6149009309786048FF231E
:10A0C0000AE0574B0322D97A5A7201919B7A009386
:10A0D00005235C495C48097802F01AFF34E1072344
:10A0E0005A48237010F076FC4D4AD37A0193937A44
:10A0F0000093C3B22278564956480978ECE7484B9A
:10A100000E22D97A227001919B7A0093524B94E7E8
:10A110003D4B00221A703D4B00200021C3E9000195
:10A120003C4B1B78002B00F0A5803C4C2378062B81
:10A1300000F20A81DFE813F007002103120020007B
:10A140002A0057006000364903224B7AC87A2270F1
:10A150000190897A00910233DBB2BAE7304A937AF0
:10A1600083F001039372D27A019200930222FF23BB
:10A170003A493B480978AFE7294B02225A72DA7A0A
:10A1800001929B7A009304230322A2E70A232F481B
:10A19000237010F01FFCC0B20C280ED8DFE800F0CE
:10A1A0000717171D171D1D17171717171D002D4B04
:10A1B00000221A702C4B05221A70194A2B4BD17AA7
:10A1C0001B780191927A00920A33DBB292E7254B19
:10A1D00000221A70244B0722EEE7224B00221A704D
:10A1E000214B0A22E8E70E4B0D22D97A2270019109
:10A1F0009B7A00931E4B20E7094BDA7A01929B7AF7
:10A20000009300233CE100BF09D7002000D70020C5
:10A2100058A5002008D700204C2307000AD70020AB
:10A22000D0A100201DD7002057230700A8E200205E
:10A230006DE30020BCA20020A8A20020ECA2002018
:10A24000D4A200207CA2002068A200206AE30020A3
:10A25000CCA10020C8A1002014D70020D0A200204B
:10A26000C0A2002012D7002010D700200DD7002058
:10A2700013D700209F4810F0EBFB012864D19E4DBE
:10A280006A7A012A60D0042A5ED09C4E3278002A75
:10A290005AD19B4C9B4B20701B7804940BB902F055
:10A2A00011FE00219848DFF86CB210F0ECFC9748E2
:10A2B00010F090FB964B53F820309648039310F023
:10A2C00065FB4FF0000A0746039B33F81A2042B3A0
:10A2D0005FFA8AF1584610F05BFB64201AF046FEE4
:10A2E0000020FDF78FF811F062F8024630780592F1
:10A2F00098B14FF47A701AF039FE11F058F8059AB7
:10A3000042F21073B0EB02084FF0000161EB01095B
:10A310000024434574EB0903E8DA4FF4FA601AF0BD
:10A3200025FE0AF1010ABAF1100FCDD1794839465C
:10A3300010F02EFB6A6822B100237348194610F012
:10A3400098FC049A0023137007B0BDE8F08F724B9D
:10A3500000221A70714B00240025C3E90045704BA0
:10A360001B78002B00F041816E4C2278102AEBD82C
:10A3700001A353F822F000BFBDA302007BA7020097
:10A38000CFA30200DFA30200F1A302004DA402004C
:10A390005FA4020085A4020049A30200A3A4020056
:10A3A000C9A402004DA5020071A5020091A50200FA
:10A3B000AFA5020049A30200CBA502000222227031
:10A3C000594BD97A01919B7A0093FF23D0E6564AE4
:10A3D000D37A83F00103D3720193937AC5E6524B8B
:10A3E00001225A72DA7A01929B7A00930323CBE618
:10A3F00009234648237010F0EDFAC0B20C2814D897
:10A40000DFE800F007070707070D1B0721212121BF
:10A410001B00464B00221A70454B052204E0434BBB
:10A4200000221A70424B04221A703F4BDA7A0192D2
:10A430009B7A00933F4B1B785CE63C4B00221A70E2
:10A440003B4B0622F0E7394B0222E4E7364B0C2265
:10A45000D97A227001919B7A0093374BEDE5324B0C
:10A460005A6842B142F20F718A428ABFA2F51C5269
:10A470000022103A5A60DA7A01929B7A0093FF2305
:10A48000062238E62D4A137813B1013BDBB200E017
:10A490000C231370244AD17A0191927A00920722F8
:10A4A00029E6244A214913780978994209D1204B99
:10A4B0001B7813701C4AD17A0191927A009209227A
:10A4C00019E6013BDBB2F4E71D4A1E49137809780F
:10A4D00099420BBF1C4B03F1FF331B78DBB21370A7
:10A4E000114BDA7A01929B7A0093124B1B780A2265
:10A4F00001E600BF6DE3002008A30020D9D60020AC
:10A5000081D5002058A5002011E300206AE3002037
:10A5100008A5002058E3002009D7002000D700201C
:10A5200008D700200AD70020D0A1002011D7002092
:10A530000FD700200DD700201CD700200CD70020FB
:10A540000ED7002012D7002010D70020A04AA14922
:10A550001368A3F5C333A03B8B4298BF9E4B136097
:10A560009E4BDA7A01929B7A00930B22FF23C2E57D
:10A570009B490B78062B1CBF03F1FF33DAB2974BD4
:10A580000A70D97A01919B7A009313460C22B2E5A6
:10A59000944A137813B1013BDBB200E00923137036
:10A5A0008E4AD17A0191927A00920D22A3E58E4AC9
:10A5B000117809B1481EC0B21070884AD37A01934D
:10A5C000937A009303460E2295E5884A1378052B6B
:10A5D00002D0013BDBB200E0162313707F4AD17A30
:10A5E0000191927A0092102285E5814810F030FAAC
:10A5F000804B01281B781ED1002B7FF4A5AE7E4B2B
:10A600001B780BB902F05EFC00217C4810F03BFB8C
:10A610007B4B012200201A70FCF7F4FE794B5A683C
:10A62000002A3FF491AE00237448194607B0BDE8F4
:10A63000F04F10F01EBB002B7FF486AE6E4B1B78E4
:10A64000002BE1D10120DDE76F4B704D704C0022F3
:10A650001A70704B00210020C3E9000129780029FD
:10A6600059D1664810F00FFB0121644810F00BFB34
:10A670006248022110F007FB5F4B1B7813B90120E1
:10A6800002F020FC01235F4A2B7000232370534B00
:10A6900051685960517A528955485A81597210F05F
:10A6A000D7F90146D8B15C4810F070F95B4B1870CF
:10A6B0005B4810F08FF95B4B18705B4810F054F951
:10A6C0005A4B18705A4810F073F95A4B18700023FF
:10A6D000CDE900332278584958480978FCE45848B5
:10A6E00010F033F857480FF0E8FF394B1860564820
:10A6F0000FF0F4FF3A4B1870544810F000F8394B43
:10A700001870534810F00CF8374B1870514810F07F
:10A710001AF8364BDAE72378102B3FF615AE01A274
:10A7200052F823F069A702007BA702008DA7020060
:10A7300091A70200A3A70200BBA7020019A902006B
:10A74000BFA7020059A8020075A8020089A802004C
:10A75000ABA80200C1A80200DDA80200EDA802001B
:10A7600049A3020009A9020001221C4B2270D97AD8
:10A7700001919B7A0093FF23BDE400222270174BC6
:10A78000D97A01919B7A0093FF23A4E70622ECE794
:10A79000124B00225A72DA7A01929B7A00930223BA
:10A7A000F2E40E49214BC87A1B78082222700190EE
:10A7B000897A00910A33DBB29DE40B22D5E7194A6E
:10A7C00013780C2B01D0013360E6002361E600BF53
:10A7D00018D700207F47A1198047A119D0A10020D8
:10A7E0001CD7002013D7002014D700201DD700202D
:10A7F0006DE30020D9D6002058A5002011E30020E9
:10A80000A2D5002008A3002009D7002008D70020E7
:10A810000AD7002000D7002058E300200DD70020E1
:10A820006AE300200CD7002055E300200BD700205E
:10A8300060E300200ED7002004A30020F0A2002037
:10A840006EE3002079E300207AE300207BE3002020
:10A850007CE300207EE300205C4A1378B3FA83F3A4
:10A860005B0913705A4AD17A0191927A00920A33A5
:10A87000082240E4574A584913780978994201D18F
:10A88000564B15E601331DE6554A564913780978AB
:10A8900099420BBF544B01331B78DBB213704C4A07
:10A8A000D17A0191927A009221E6504A5049136878
:10A8B00003F5C333A0338B4294BF136011604FE69E
:10A8C0004C4A13780C2B1ABF0133DBB206231370EA
:10A8D0003F4AD17A0191927A009257E6464A13781C
:10A8E000092B01D0013357E6002358E6434A137879
:10A8F000032B1ABF0133DBB200231370344AD17A21
:10A900000191927A00925EE63D4A1378162B01D0AF
:10A9100001335FE6052360E62D4A536803F51C53B7
:10A9200010335360D37A0193937A69E4354B002254
:10A930001A70354B354A00210020C3E90001117817
:10A9400000293FF401AD324B197810293FF6FCACD9
:10A9500001A050F821F000BF9DA90200ABA90200A0
:10A96000ABA90200ABA90200ABA90200ABA902008F
:10A97000C5A90200B1A90200B1A90200B1A9020053
:10A98000B1A90200BBA90200BBA90200BBA9020039
:10A99000BBA9020049A30200BBA902000023137057
:10A9A00007B0BDE8F04FFFF795B900221A70E6E650
:10A9B00004221A70064BFFF770BB05221A70044B75
:10A9C000FFF776BB02221A70FAE400BF0BD7002013
:10A9D000D0A100200DD700200FD7002011D70020D4
:10A9E0000ED7002010D7002012D7002018D7002043
:10A9F000007038391CD7002013D7002014D700204E
:10AA00001DD7002009D7002000D7002008D700203C
:10AA10000AD70020024B01221A700920704700BF9C
:10AA20001FD70020536E012B2DE9F0410E4615462D
:10AA30002DD1324910680DF02CF8044658BBDFF8D0
:10AA4000D8802F4F98F800302E4D2F492F48002BDB
:10AA500014BF3B462B46324610F0EAFB2C492B48EC
:10AA600010F0E6FB98F8003027492A48002B14BF65
:10AA70003B462B46324610F0DBFB2549254810F0BB
:10AA8000D7FB64201AF072FA2046BDE8F081002B53
:10AA900001DC0224F8E70022286811460DF078F95D
:10AAA00010F0FF041AD11C4B1C4D1D481C70214690
:10AAB00010F0E9F86A6822B119482346214610F0DF
:10AAC000D8F86B7A012B03D0042B01D00024DBE7EC
:10AAD0004FF6FD7113480FF038FEF7E7012CD8D17F
:10AAE0000D4B0F481C70002110F0CDF80B4B5B7A1A
:10AAF000012B01D0042BE9D10021EBE75E86070092
:10AB0000B9230700C0230700C923070030E2002053
:10AB1000D866070094E200201ED7002008A300207A
:10AB200011E300206EE3002070B598B014460A4986
:10AB30000EA810F0F7F90023CDE91433CDE9163350
:10AB4000636E012B0CD1054920680CF0A2FF48B1BF
:10AB5000022400F0EDBC00BFDA6607005E86070045
:10AB6000002BF5D1B649B748B74CB84DB84E10F0E8
:10AB70005FFBB849B34810F05BFBB149B64810F031
:10AB800057FBB449B44810F053FB64201AF0EEF9B7
:10AB9000637AB24955F82320AA4810F049FBAD4921
:10ABA000A84810F045FB637AAC4955F82320AA4821
:10ABB00010F03EFBA749A84810F03AFB64201AF0B9
:10ABC000D5F9A74911A80FF0FDFF11A90EA810F0A3
:10ABD000BCF911A810F060F90EA810F0F9F90E9A5E
:10ABE000A049984810F024FB9A49964810F020FBA1
:10ABF0000E9A9C49984810F01BFB9649964810F015
:10AC000017FB64201AF0B2F9974911A80FF0BAFFA8
:10AC1000119A96498B4810F00BFB11A810F03CF9E3
:10AC20008C49884810F004FB8F4911A80FF0AAFF47
:10AC3000119A8E49884810F0FBFA11A810F02CF9EF
:10AC40008449854810F0F4FA64201AF08FF94FF423
:10AC50007A7562688649B2FBF5F27A4810F0E8FA34
:10AC60007C49784810F0E4FA62688149B2FBF5F259
:10AC7000794810F0DDFA7749774810F0D9FA642066
:10AC80001AF074F97B480FF0E3FE7B4956F8202058
:10AC900005466C4810F0CCFA6E496A4810F0C8FAC4
:10ACA00056F8252074496C4810F0C2FA69496A4880
:10ACB00010F0BEFA64201AF059F9012D40F04E83CD
:10ACC0006E486F4E6F4D0FF04DFE6F49002814BF58
:10ACD00032462A465B4810F0ABFA5E49594810F0FC
:10ACE000A7FA66480FF03EFE6749002814BF3246B7
:10ACF0002A465948654E10F09BFA5649564810F0BE
:10AD000097FA64201AF032F961480FF063FE614946
:10AD1000054602464B4810F08BFA4E49494810F060
:10AD200087FA2A465B494C4810F082FA49494A485A
:10AD300010F07EFA64201AF019F956F825205649C9
:10AD4000404810F075FA43493E4810F071FA56F841
:10AD500025205149404810F06BFA3E493E4810F01A
:10AD600067FA64201AF002F94C480FF0F4FD00284D
:10AD700000F0BE814A49334810F05AFA354931484B
:10AD800010F056FA4649344810F052FA3149324828
:10AD900010F04EFA64201AF0E9F8082214A941488C
:10ADA0000FF0B8FD9DF8573005939DF85630049389
:10ADB0009DF8553003939DF8543002939DF853301D
:10ADC00001939DF852309DF85020374900931D485B
:10ADD0009DF8513010F02CFA1E491A4810F028FA4C
:10ADE0009DF8573005939DF8563004939DF85530E3
:10ADF00003939DF8543002939DF8533001939DF8CE
:10AE000052309DF850202849009313489DF8513046
:10AE100010F00EFA0F49104810F00AFA64201AF0E8
:10AE2000A5F8082214A921480FF050FD9DF85730CD
:10AE300005939DF8563004939DF8553038E000BFD7
:10AE4000DD23070030E2002008A300207CA40020BE
:10AE5000D4A30020D866070094E20020EC2307006A
:10AE6000E8E20020FA230700ACE200207554070056
:10AE7000052407006DE300201524070054E300209B
:10AE8000CD630700CF23070025240700A0A30020DF
:10AE90006AE30020302407003B24070053E300202E
:10AEA000462407004EE30020502407004AE3002018
:10AEB00003939DF8543002939DF8533001939DF80D
:10AEC00052309DF850207D4900937D489DF85130C7
:10AED00010F0AEF97B497A4810F0AAF99DF8573086
:10AEE00005939DF8563004939DF8553003939DF8D3
:10AEF000543002939DF8533001939DF852309DF8E1
:10AF000050206E49009370489DF8513010F090F930
:10AF10006C496D4810F08CF964201AF027F8102263
:10AF200014A96A480FF0DBFC9DF85F300D939DF883
:10AF30005E300C939DF85D300B939DF85C300A9366
:10AF40009DF85B3009939DF85A3008939DF859306D
:10AF500007939DF8583006939DF8573005939DF858
:10AF6000563004939DF8553003939DF85430029366
:10AF70009DF8533001939DF852309DF8502054496C
:10AF800000934F489DF8513010F052F94D494C480C
:10AF900010F04EF99DF85F300D939DF85E300C93E4
:10AFA0009DF85D300B939DF85C300A939DF85B3003
:10AFB00009939DF85A3008939DF8593007939DF8EE
:10AFC000583006939DF8573005939DF856300493FA
:10AFD0009DF8553003939DF8543002939DF85330FB
:10AFE00001939DF8523000939DF850209DF8513008
:10AFF0003749354810F01CF932493348354E364D43
:10B0000010F016F9642019F0B1FF34492C4810F003
:10B010000FF92C492A4810F00BF930492A4810F052
:10B0200007F92849284810F003F9642019F09EFF19
:10B03000627A2B49224810F0FBF82249204810F090
:10B04000F7F8627A2649204810F0F2F81D491E48A8
:10B0500010F0EEF8642019F089FFA27A214918480F
:10B06000002A14BF32462A4610F0E2F81549144867
:10B0700010F0DEF8A27A1B491348002A14BF3246AA
:10B080002A4610F0D5F80F490F48174E10F0D0F8A7
:10B09000642019F06BFF15481AF080FA0025B4F807
:10B0A0008E20EBB2934205F1010580F23D822344EC
:10B0B0003046197B1AF072FAF1E700BF78240700D6
:10B0C00030E20020D866070094E200204BE3002025
:10B0D000A0240700DA230700482307000126070001
:10B0E000112607001F26070013A8070030260700B7
:10B0F0009049914810F09CF890498F4810F098F8CA
:10B100008C498F4810F094F88C498D4810F090F8D5
:10B11000642019F02BFF14A910228A480FF0E8FBD5
:10B120009DF85F300D939DF85E300C939DF85D3077
:10B130000B939DF85C300A939DF85B3009939DF862
:10B140005A3008939DF8593007939DF8583006936C
:10B150009DF8573005939DF8563004939DF855306F
:10B1600003939DF8543002939DF8533001939DF85A
:10B1700052309DF85020009373499DF851306E482D
:10B1800010F056F86D496C4810F052F89DF85F3099
:10B190000D939DF85E300C939DF85D300B939DF8F8
:10B1A0005C300A939DF85B3009939DF85A30089300
:10B1B0009DF8593007939DF8583006939DF8573005
:10B1C00005939DF8563004939DF8553003939DF8F0
:10B1D000543002939DF8533001939DF852309DF8FE
:10B1E0005020009358499DF85130554810F020F8F0
:10B1F0005249534810F01CF8642019F0B7FE14A906
:10B20000102252480FF08FFB9DF85F300D939DF890
:10B210005E300C939DF85D300B939DF85C300A9383
:10B220009DF85B3009939DF85A3008939DF859308A
:10B2300007939DF8583006939DF8573005939DF875
:10B24000563004939DF8553003939DF85430029383
:10B250009DF8533001939DF852309DF85020009393
:10B260003B499DF8513034480FF0E2FF33493248F2
:10B270000FF0DEFF9DF85F300D939DF85E300C936C
:10B280009DF85D300B939DF85C300A939DF85B3020
:10B2900009939DF85A3008939DF8593007939DF80B
:10B2A000583006939DF8573005939DF85630049317
:10B2B0009DF8553003939DF8543002939DF8533018
:10B2C00001939DF852309DF85020009320499DF83D
:10B2D00051301B480FF0ACFF184919480FF0A8FF78
:10B2E000642019F043FE14A904221A480FF009FB48
:10B2F0009DF8533001939DF852309DF850200093F3
:10B3000015499DF851300C480FF092FF0B490A483F
:10B310000FF08EFF9DF8533001939DF8523000934B
:10B320009DF850209DF851300B4905480FF080FFE3
:10B3300062E600BFE824070030E20020D86607007C
:10B3400094E200204CE30020F124070050E30020A9
:10B350003A2507004DE30020832507007748002D9C
:10B3600040F09B800FF0A9F97549024675480FF02F
:10B370005FFF754973480FF05BFF70480FF09DF950
:10B380006F49024671480FF053FF6F496F480FF045
:10B390004FFF642019F0EAFD6D480FF09FF96D49E9
:10B3A000024668480FF044FF674966480FF040FFC7
:10B3B00067480FF093F96749024664480FF038FF79
:10B3C000614962480FF034FF642019F0CFFD6248F4
:10B3D0000FF095F9614902465A480FF029FF5A4982
:10B3E00058480FF025FF5C480FF089F95B49024689
:10B3F00056480FF01DFF544954480FF019FF6420C0
:10B4000019F0B4FD56480FF08BF9564902464D48E5
:10B410000FF00EFF4C494B480FF00AFF50480FF059
:10B420007FF95049024649480FF002FF4649474814
:10B430000FF0FEFE642019F099FD4B480FF081F9E2
:10B440004A4902463F480FF0F3FE3F493D480FF09E
:10B45000EFFE45480FF075F9444902463B480FF0AE
:10B46000E7FE394939480FF0E3FE642019F07EFD0C
:10B470003F480FF068F93F49024632480FF0D8FEC6
:10B48000314930480FF0D4FE39480FF05CF93949A2
:10B4900002462E480FF0CCFEAEE50FF00EF928491B
:10B4A000024628480FF0C4FE274926480FF0C0FE88
:10B4B00022480FF002F92249024624480FF0B8FE54
:10B4C000214922480FF0B4FE642019F04FFD2A48AC
:10B4D0000FF06DF9294902461A480FF0A9FE1A49E2
:10B4E00018480FF0A5FE24480FF061F923490246E1
:10B4F00016480FF09DFE144914480FF099FE642081
:10B5000019F034FD1E480FF054F91E4902460D484B
:10B510000FF08EFE0C490B480FF08AFE18480FF012
:10B5200048F918490246B4E707481AF037F80024EA
:10B530000EA80FF0B1FC204618B070BD79E30020D2
:10B540009C25070030E20020D866070094E2002026
:10B550007AE30020AB2507007BE30020B32507003A
:10B560007CE30020BB2507007DE30020C325070006
:10B570007EE30020D825070082E30020E6250700AF
:10B5800083E30020F325070073B5556E012D0E46A9
:10B5900025D1144910680CF07CFA0446E0B90B255B
:10B5A000CDE90005022332460F4910480FF040FE56
:10B5B0000F490E480FF03CFE02233246CDE900450C
:10B5C00009490C480FF034FE09490A480FF030FED3
:10B5D000642019F0CBFC2546284602B070BD012539
:10B5E000FAE700BF5E8607004126070030E2002030
:10B5F000D866070094E200202DE9F84F654B1B78D0
:10B60000002B00F0C580644B1B78002B40F0BE80FF
:10B61000556E012D40F0BC80D2F800A05F49504625
:10B620000CF037FA044600286ED15D4B5D495E4848
:10B630001D700FF0FDFD5B495B48DFF894B10FF022
:10B64000F7FD584959480FF0F3FD564957480FF098
:10B65000EFFD642019F08AFC214655480FF013FBDA
:10B66000294653480FF00FFB022151480FF00BFB06
:10B6700001F0EAFB21464F4801F086FA4E4801F0FE
:10B6800085FB4E4801F082FB01F014FC0FF08FFEA9
:10B690004FF0000A054642F2107600279BF8003072
:10B6A0008BB94FF47A7019F061FC0FF080FEB0EBAB
:10B6B00005086AEB4A09464577EB0903EEDA0324ED
:10B6C0002046BDE8F88F02F0AFFA364936480FF051
:10B6D000AFFD344934480FF0ABFD324933480FF029
:10B6E000A7FD304931480FF0A3FD642019F03EFC5E
:10B6F00001F0AAFB3248002101F046FA01F0DAFB22
:10B7000030480FF07FFADBE72F4950460CF0C1F9C3
:10B71000044600283CD1224BDFF8B4B01D7001462E
:10B7200023480FF0B0FA294621480FF0ACFA022165
:10B730001F480FF0A8FA01F087FB2146204801F0CE
:10B7400023FA224801F022FB1C4801F01FFB01F004
:10B75000B1FB0FF02CFE4FF0000A054644F62068BE
:10B760004FF000099BF800306BB94FF47A7019F074
:10B77000FDFB0FF01CFE461B6AEB4A07B04579EB58
:10B780000703EFDA9BE702F003FAB9E7002497E733
:10B79000022495E7B0D500201FD700205E86070061
:10B7A00008D70020D866070030E2002094E200208D
:10B7B00011E300205B260700632607003B230700F8
:10B7C00024230700A8E20020596C07007326070015
:10B7D000E0A300202DE9FF41536E012B0D461446D6
:10B7E00025D13A4910680CF054F9044620B10224DE
:10B7F000204604B0BDE8F08102F020F92946344823
:10B800000FF0E2FC334932480FF0CCFC32490A8891
:10B810008B7808794D798E79C97992B2CDE9026138
:10B82000CDE900052D492A480FF002FDE0E7052B80
:10B83000DDD1161F02F1100756F8045F28460CF000
:10B840003AF92B462844984205D013F8012B303A98
:10B85000092AF8D9CBE7BE42EED100221146206872
:10B860000CF096FA40F2D233A0F2E6729A42054604
:10B87000BDD80022606811460CF08AFA431E0B2BDB
:10B880000646B4D80022A06811460CF081FA431E87
:10B890001E2B0746ABD80022E06811460CF078FA60
:10B8A00018288046A3D80022206911460CF070FAAF
:10B8B0003B289CD8C2B200925FFA88F3FAB2F1B288
:10B8C000A8B202F02DF8002492E700BF5E860700C0
:10B8D00030E200207B290700DCD900208326070006
:10B8E00007B503230193054B0093054B054A064812
:10B8F00019460FF092F903B05DF804FB89BB020012
:10B90000962607009E2607000EE3002007B50323B6
:10B910000193054B0093054B054A064819460FF065
:10B920007CF903B05DF804FB55BC0200F626070065
:10B93000FB2607000EE3002007B503230193054B08
:10B940000093054B054A064819460FF066F903B007
:10B950005DF804FB55BD0200592707005E2707006C
:10B960000EE3002007B503230193054B0093054B1D
:10B97000054A064819460FF050F903B05DF804FB7C
:10B98000F9B50200852707008A2707000EE300208B
:10B9900007B503230193054B0093054B054A064861
:10B9A00019460FF03AF903B05DF804FBD5B7020071
:10B9B000A0270700A42707000EE3002007B50323F4
:10B9C0000193054B0093054B054A064819460FF0B5
:10B9D00024F903B05DF804FB1DBE0200DF69070017
:10B9E000CB2707000EE3002007B503230193054B87
:10B9F0000093054B054A064819460FF00EF903B0AF
:10BA00005DF804FBC1BE0200F5270700FA27070016
:10BA10000EE3002007B503230193054B0093054B6C
:10BA2000054A064819460FF0F8F803B05DF804FB24
:10BA300025AA020063280700682807000EE30020FB
:10BA400007B503230193054B0093054B054A0648B0
:10BA500019460FF0E2F803B05DF804FB8DBF020059
:10BA6000AA280700AF2807000EE3002007B502232D
:10BA70000193054B0093054B054A064819460FF004
:10BA8000CCF803B05DF804FB29AB0200D228070014
:10BA9000D92807000EE3002007B502230193054BC8
:10BAA0000093054B054A064819460FF0B6F803B057
:10BAB0005DF804FB89B50200F0280700F7280700AD
:10BAC0000EE3002010B50D4C0D4986B003A80FF011
:10BAD00029FA03A920460FF08BF803A80FF0DCF930
:10BAE00002230193074B0093074B084A194604F1C0
:10BAF00026000FF092F806B010BD00BFE8E200206B
:10BB00000F29070015AA020017290700202907009E
:10BB100070B5194C19491A4EC2B09422201D0BF071
:10BB20001DFA9421201D1AF07BF800252060FE22CA
:10BB3000294602A801950BF01FFAB4F88E30E8B23E
:10BB4000984205F1010508DA231831461A7B01AB4A
:10BB500003EB40000BF070FFEFE7074A094898231A
:10BB600000210FF072F828B90146034A05489823CE
:10BB70000FF06BF842B070BDE4A300200CA30020CE
:10BB800013A807000FE30020F8B5536E012B0E46F3
:10BB900002D002242046F8BD1568274928460BF03C
:10BBA00078FF044660B128460BF085FF2A462844FA
:10BBB000904224D012F8013B303B092BF8D9E8E73A
:10BBC0001E4F1F497B681F4832464FF47A75B3FBFE
:10BBD000F5F30FF02DFB1C491A480FF029FB7B6889
:10BBE0001749B3FBF5F3324618480FF021FB16490D
:10BBF00016480FF01DFB642019F0B8F9CAE70A22B5
:10BC0000002128460CF0C4F8B0F5E15FC1D80B4C18
:10BC10004FF47A735843606000210D480FF033F8F9
:10BC2000626822B100230A4819460FF022F8FFF794
:10BC30006FFF0024AEE700BF5E86070008A3002068
:10BC40004329070030E20020D866070094E2002074
:10BC500011E30020536E012B70B50E4602D0022472
:10BC6000204670BD1568334928460BF012FF044684
:10BC700060B128460BF01FFF2A46284490421ED090
:10BC800012F8013B303B092BF8D9E8E72A4D2B4944
:10BC90006B7A2B4832460FF0CBFA2A4928480FF02E
:10BCA000C7FA6B7A2549284832460FF0C1FA254970
:10BCB00025480FF0BDFA642019F058F9D0E70A22A0
:10BCC000002128460CF064F80428C8D81A4C637A7E
:10BCD000984226D06072FFF71BFF637A042B06D8C8
:10BCE000DFE803F0032124242100FDF7AFFA174910
:10BCF00013480FF09DFA134911480FF099FA1349B0
:10BD000011480FF095FA0F490F480FF091FA64208F
:10BD100019F02CF941F2883019F028F90C480EF08E
:10BD200071FF00249CE7FDF7E3FAE0E7FDF70CFB69
:10BD3000DDE700BF5E86070008A300204A29070050
:10BD400030E20020D866070094E200205029070066
:10BD5000A8E20020F8B5536E012B0D4602D0022454
:10BD60002046F8BD17682549254E38460BF091FE50
:10BD7000044678BBB6F88E30ABB92A462149224832
:10BD80000FF056FA214920480FF052FA2A461D4971
:10BD90001F480FF04DFA1D491D480FF049FA642065
:10BDA00019F0E4F8DCE729461A481B4F19F0F6FBB6
:10BDB0002546B6F88E20EBB2934205F1010505DA6F
:10BDC00033443846197B19F0E9FBF2E70F4819F0C4
:10BDD000E5FBC5E738460BF06EFE06F10C020146A6
:10BDE0000546384613F0CAFE04460028B7D16D0850
:10BDF000A6F88E50FFF78CFEB2E700BF5E86070004
:10BE000008A300206D29070030E20020D866070053
:10BE100094E200207929070013A80700536E012B34
:10BE200070B50D4602D00224204670BD16681D492B
:10BE300030460BF02EFE0446D0B91B4E1B4996F936
:10BE400091301B482A460FF0F3F91A4918480FF0B1
:10BE5000EFF996F99130154917482A460FF0E8F99D
:10BE6000144915480FF0E4F9642019F07FF8DBE776
:10BE70000022114630460BF005FF00F10B03DBB248
:10BE8000192BD0D8084B93F9912040B282424FF041
:10BE90000004C9D083F89100FFF73AFE074B1C70ED
:10BEA000C2E700BF5E86070008A300204A290700FA
:10BEB00030E20020D866070094E20020D8D60020A7
:10BEC000536E012B2DE9F3410E4615462ED127491D
:10BED00010680BF0DEFD044660BBDFF8AC80244F39
:10BEE00098F800300193234D3B780093EB7A224978
:10BEF000224832460FF09CF9214920480FF098F96A
:10BF000098F8003001933B780093EB7A1A491D486A
:10BF100032460FF08DF91A491A480FF089F964205A
:10BF200019F024F8204602B0BDE8F081002B01DCB6
:10BF30000224F7E70022286811460BF029FF10F0D1
:10BF4000FF0508D10B4BDC7A002CEBD0DD72FFF73C
:10BF5000DFFD0024E6E7012DEAD1064BDC7A002C58
:10BF6000F7D1DD72FFF7D4FDDCE700BF5E86070086
:10BF7000E4D9002008A300207D29070030E200203A
:10BF8000D866070094E20020B0D50020536E012B44
:10BF900070B50E46154621D12A4910680BF079FD7F
:10BFA0000446D8B9284D2949D5F894302848324656
:10BFB0000FF03EF9274926480FF03AF9D5F89430AA
:10BFC0002249254832460FF033F9224922480FF022
:10BFD0002FF9642018F0CAFF204670BD30460BF0E0
:10BFE0006AFD1E4902461A480FF022F930460BF04E
:10BFF00062FD072824D92A68194915480FF018F955
:10C000001022002128680BF03DFE16490246104818
:10C010000FF00EF91022002128680BF0B9FE12492A
:10C02000024604460A480FF003F9074BD3F8942060
:10C03000A24203D0C3F89440FFF76AFD0024CBE787
:10C040000224C9E75E86070008A3002089290700AB
:10C0500030E20020D866070094E200209129070012
:10C060009B290700A6290700B5290700F0B5394D1F
:10C070003948C3B098232A4600210EF0DCFD06465D
:10C08000E0B12B7AAA2B1CD19421281D19F0C8FDF0
:10C090002B68324C834216D0AA2347F23052C4E9AF
:10C0A00001232F4BE3600423A4F88E3000260823DD
:10C0B00084F89130C4F89460FFF72AFD304643B00D
:10C0C000F0BD0020E4E76B6863606B7AB5F88E2002
:10C0D000042B86BF0023374600276372802A6B89B2
:10C0E00063812FD900232373A4F88E30374695F946
:10C0F000913003F10C02D2B21B2A28BF082384F826
:10C10000913028BF3746D5F89430C4F894300FB139
:10C11000FFF7FEFC0025FE22294602A801950AF041
:10C120002BFF104FB4F88E30E8B2984205F10105AC
:10C13000C4DA231839461A7B01AB03EB40000BF03D
:10C140007BFCEFE708490948A4F88E200AF006FFB7
:10C15000CDE700BFE4A300200FE3002008A30020E8
:10C160000102030413A80700F0A3002014A3002079
:10C1700010B5074B53F82020002332F813408C42AF
:10C18000D8B203D80133102BF7D1184610BD00BF29
:10C1900008A5002013B501900F480EF01BFC019973
:10C1A00080B2FFF7E5FF04460C480EF0EFFBA0421B
:10C1B0000FD20B4800F0EAFD0A490B4822460BF06B
:10C1C0003BFC094800F0E2FD084B0020187002B06B
:10C1D00010BD0120FBE700BF6AE3002058E3002008
:10C1E0002C2A07003E2A0700B5D50020D9D600200A
:10C1F0002DE9F3410121754E074622200FF0CBF8BF
:10C200004FF4FA7018F0B2FE3478002C7ED17049E9
:10C210007048009440F24C43422207F013FD05465B
:10C2200020B90024204602B0BDE8F08169484FF0F3
:10C23000020840F24C42012186F8008007F01CFB06
:10C24000654E002F57D040F24C43224601216148F1
:10C2500007F08AFB40F24C43424601215D4807F05B
:10C2600083FB40F24C43062201215A4807F07CFB35
:10C270000122114640F24C43564807F075FB40F24C
:10C280004C4303220121534807F06EFB40F24C431C
:10C29000042201214F4807F067FB40F24C4305227E
:10C2A0004C48012107F060FBF37A40F24C42E3B1C5
:10C2B0000521484807F027FD464840F24C432246F6
:10C2C000012107F027FC434840F24C4107F0DAFA1D
:10C2D000737A023B012B02D8F47A002CA2D1002100
:10C2E00022200FF058F82C469CE74FF4FA71394899
:10C2F00007F04AFDE7E740F24C424FF0FF31354886
:10C3000007F0E0FAFA2018F031FEE1E700253049A5
:10C310003048009540F24C43422207F093FC04461B
:10C3200000283FF47EAF40F24C420121294807F03B
:10C33000A3FA40F24C432A460121264807F014FB99
:10C3400040F24C4302220121224807F00DFB40F24B
:10C350004C43062201211F4807F006FB012211462B
:10C3600040F24C431B4807F0FFFA40F24C430322D3
:10C370000121184807F0F8FA40F24C430422012149
:10C38000144807F0F1FA40F24C430522114801210C
:10C3900007F0EAFA104BDB7A40F24C4283B10521F8
:10C3A0000C4807F0B0FC0B4840F24C432A460121F0
:10C3B00007F0B0FB40F24C41064807F063FA31E762
:10C3C0004FF4FA71034807F0DFFCF3E72CD70020A5
:10C3D0008CE300205CD7002008A3002000000000B0
:10C3E0002DE9F04FDFF80C83A94FAA4CAA4DDFF8D6
:10C3F0000893AA4E8BB0002300220021C8E9002335
:10C40000C7E900234FF0000A1C2203A82970C9F8CD
:10C41000001021700291C6F800A00AF0ADFDA049FD
:10C4200002A80BF040FB9F4B9F48DB7AA34640F2EB
:10C430004C41002B66D007F070FDC117C8E9000120
:10C4400040F24C41984807F04DFDC117C7E9000183
:10C4500040F24C41944807F07BFD40F24C41C9F852
:10C460000000914807F0CFFC07EE900AF8EE677ADB
:10C4700040F24C418C48C6ED007A07F018FD40F2BE
:10C480004C412070884807F0D6FC012829D1874903
:10C4900002A80BF008FB96ED007ADFED857AB4EE8A
:10C4A000E77AF1EE10FA05D57A4B1B78052B01D906
:10C4B00001232B702B7803F0FF04002B00F0D280B7
:10C4C000D7E900E31A46D8F80430D8F800C01A4378
:10C4D0004CEA0E00114650EA010378D100242C707A
:10C4E000AAE0022801D17349D2E7032801D1724999
:10C4F000CEE7042801D17149CAE705280CBF70496D
:10C500006749C5E707F0B4FC0028D3D001212420F7
:10C510000EF041FF644840F24C4107F08CFC0446A9
:10C5200000283DD15E4902A80BF0BDFA5E4840F2FA
:10C530004C4107F0BCFC634B8BF800001A7890422A
:10C5400042D1614A137801331370022CB2D95E4B89
:10C550001B78012BAED9012340F24C4152482B707D
:10C5600007F0DBFCC117C8E9000140F24C414E481E
:10C5700007F0B8FCC117C7E9000140F24C414A4836
:10C5800007F0E6FC40F24C41C9F80000464807F0CD
:10C590003AFC07EE900AF8EE677AC6ED007A89E772
:10C5A000012801D14949BEE7022801D14849BAE72B
:10C5B000032801D14749B6E7042801D13F49B2E732
:10C5C0000528B3D13E49AEE788BF1870BDE7354BAB
:10C5D000304D5B7A032B33D13F4B40481B6872468A
:10C5E0001BB2614601F070FFD8E9000144F066FF1C
:10C5F00025A3D3E9002345F0B9F845F085FA384B77
:10C600001860D7E9000144F059FF1FA3D3E90023C4
:10C6100045F0ACF845F078FA324B32681860324B8E
:10C620001A604FF47A72D9F8003093FBF2F32F4A74
:10C6300013602F4B2A781A7020460BB0BDE8F08F9C
:10C64000D9F8003096ED000A24484FF47A7193FB34
:10C65000F1F395F9001000911BB27246614601F0AA
:10C6600067FEC1E71E4BC3F800A01E4BC3F800A035
:10C670001D4B4FF07E521A601C4B1C601C4B1C70F3
:10C680002DE700BFAFF3008000000000D01263412F
:10C6900050D70020E0D8002041D7002020D700202C
:10C6A0004C2A070008A300205CD70020532A07006B
:10C6B00000009643622A07006E2A07007A2A0700C4
:10C6C000832A070058D7002059D700208C2A07005A
:10C6D000962A07009D2A0700C8D60020A4D500206E
:10C6E00038D700203CD7002030D7002034D7002096
:10C6F00040D7002048D7002024D700202DE9F04162
:10C70000012186B023200EF046FEFFF769FE6C4F34
:10C710006C4E0446002800F09D806B4BD97A11B90D
:10C7200022200EF038FE694B002264201A7018F0A7
:10C730001DFC674803210EF0A6FA3B78002B36D08B
:10C74000644B1B78002B32D100F07EFB624800F076
:10C750001DFB624B1868624B1D68624BD3F800806A
:10C7600044F082FE02460B462846CDE90423CDF86C
:10C77000088044F079FEDDE90423CDE900015A493F
:10C780005A480BF059F9594800F000FB584B18680B
:10C79000584B1D7844F068FEEDB202460B465348F4
:10C7A000554900950BF048F9504800F0EFFA534B0B
:10C7B0001B781BB9524801210EF03BF95148DFF8B4
:10C7C000608101F047FF80B2FFF7E4FC0546E8B165
:10C7D0004C4801F03FFF04904A4801F03DFF01241E
:10C7E0000023CDE90043484B04991B780246474893
:10C7F0000EF01EF838B988F80000454A1368013376
:10C8000013602C4604E088F80040F6E788F8000042
:10C810003B78002B49D0002C47D12E4B1B78002BA6
:10C8200043D100F011FB314B1C70274BDB7A002BFE
:10C8300030D0384800F0AAFA374B1A7862BB3488F7
:10C840002A4B2A20114694422ADD1870013203F83F
:10C85000011FF8E7314B32881B889A42D8D36420F5
:10C8600018F084FB194B1A481C702D4B03211C70C7
:10C870000EF009FA3D785DB1164B1C78002CC7D13B
:10C8800028491A480BF00FF9184800F07FFAB8E76A
:10C890000124BDE72448CDE7244914480BF0CCF827
:10C8A000124800F073FA00F005FB338800210133D1
:10C8B0002320338006B0BDE8F0410EF06CBD00BF10
:10C8C000AFD5002028D7002008A30020ACD5002039
:10C8D00011E3002008D70020A42A070038D7002041
:10C8E0003CD7002034D70020AE2A0700B5D5002061
:10C8F00030D7002040D70020BE2A0700D8D600201D
:10C900006CE30020A4D5002094A1002049E300207E
:10C91000C8D60020E82A0700E0D800202AD7002047
:10C92000D9D60020D02A0700FE2A0700112B0700C5
:10C9300010B5054C204602F0F1F82046034A0449A0
:10C94000BDE810400AF09CBA5CD7002090A10020FE
:10C9500029F102000020704738B590F833300446C2
:10C960000D4613B1406B0EF087FB94F83010606BEE
:10C970000EF0C6FB606B802100F02DF8606B036841
:10C9800029461B689847606B0121BDE838400EF0CE
:10C99000C3BB000010B5034B0360044607F0D0FB97
:10C9A000204610BDE82C070010B50446406B0EF081
:10C9B00063FB606B02490EF073FB012010BD00BFEA
:10C9C000801A060010B50446FFF7E4FF20460CF07D
:10C9D000ADFD204610BD0368C9B21B6818472DE99C
:10C9E000F84F90F83330044613B1406B0EF044FB1F
:10C9F000658AC5F180054FF0000A05EBD575FF2764
:10CA00006D10D146D0463E46A38A5FFA8AF1B1EB5B
:10CA1000D30F28DA4FF0000C638A5FFA8CF098424B
:10CA20001CDA11FB03F30344A2689BB212F803E083
:10CA3000E26812F803B0F3450BD08E4228BF0E46D1
:10CA4000884538BF8846874228BF0746814538BF9A
:10CA5000814602F803E00CF1010CDDE70EF01BF952
:10CA60000AF1010AD0E7FF2E57D0236821219B69E4
:10CA700020469847236857FA85F19B69C9B220463A
:10CA800098475FFA85FA23680AEB09019B69C9B2E6
:10CA900020469847236822219B69204698472368AF
:10CAA00031469B6920469847236841469B6920464A
:10CAB00098470025B04529D3BA46CA4521D845B97B
:10CAC00094F83010606B0EF01BFB606B4021FFF799
:10CAD00082FFA268606B638A06FB0323026813F877
