:020000022000DC
:107000000000042001900300299003002B9003004E
:107010002D9003002F90030031900300000000002A
:10702000000000000000000000000000339003009A
:107030003590030000000000000000000000000088
:10704000157F050037900300959D0500ED84050030
:1070500037900300557B05002D790500456106003A
:10706000379003002D84050041840500379003000C
:1070700037900300379003003790030037900300E8
:10708000496E06002D51050037900300379003002C
:107090003790030037900300CD5706003790030068
:1070A000379003003790030055840500698405007C
:1070B000379003003790030000000000000000003C
:1070C0003790030037900300379003008166060075
:1070D000458105003790030037900300A59A05000D
:1070E0001D9B0600379003005DC2060000000000F3
:1070F000000000003790030000000000516A060005
:10710000000000000000000000000000000000007F
:10711000000000000000000000000000000000006F
:10712000000000000000000000000000000000005F
:10713000000000000000000000000000000000004F
:10714000000000000000000000000000000000003F
:10715000000000000000000000000000000000002F
:10716000000000000000000000000000000000001F
:10717000000000000000000000000000000000000F
:1071800000000000000000000000000000000000FF
:1071900000000000000000000000000000000000EF
:1071A00000000000000000000000000000000000DF
:1071B00000000000000000000000000000000000CF
:1071C00000000000000000000000000000000000BF
:1071D00000000000000000000000000000000000AF
:1071E000000000000000000000000000000000009F
:1071F000000000000000000000000000000000008F
:1072000010B5054C237833B9044B13B10448AFF3E0
:1072100000800123237010BD80D5002000000000F5
:107220004801080008B5034B1BB103490348AFF3FD
:10723000008008BD0000000084D50020480108003F
:10724000154B002B08BF134B9D46A3F5803A002138
:107250008B460F461348144A121A0FF031FB0F4B9E
:10726000002B00D098470E4B002B00D098470020F1
:10727000002104000D000D48002802D00C48AFF397
:1072800000800FF0CDFA200029000FF053F80FF026
:10729000B3FA00BF00000800000004200000000056
:1072A0000000000080D500205CC501200000000027
:1072B000000000000022C0E900220172704738B5CA
:1072C0000446006820B1856911F0D0FD2846F9E731
:1072D000204638BD006820B143688B4201D08069E8
:1072E000F9E77047F8B504460F4616461D46FFF706
:1072F000F1FF20B10123826005704370F8BD1C20AE
:1073000011F0B8FD012343700023C0E90333C0E945
:10731000053323680570C0E9017613B92060606009
:10732000ECE763689861FAE72DE9F8430468164FC3
:1073300005460E464FF000081CB363680BB9A469FC
:10734000FAE72378002BFAD0E368A268F31A9A428E
:1073500002D961780029F2D09B1A636184F8018018
:10736000E66013F0C9FC63688146984713F0C4FCDB
:107370003B68A0EB0900206118442B7A3860002B91
:10738000DDD0BDE8F88300BF9CD50020034B044846
:1073900009221A700121FA2213F00BB9A0D500209E
:1073A00031E3002008B5074B50B103221A7006489C
:1073B000FA22012113F0FDF8044B00221A7008BDD7
:1073C0000522F3E7A0D5002031E30020F1D600200C
:1073D000054B064800221A70054B08221A7001213D
:1073E000FA2213F0E6B800BFF1D6002031E3002006
:1073F000A0D5002084B004AB03E90700094BBDF918
:107400000A201A80084B9DF90C201A70074B084877
:1074100000221A70074B0121FA22197004B013F0F0
:10742000C8B800BFD2D50020D4D50020F1D60020A6
:1074300031E30020A0D500202DE9FF47DFF8B4A2FA
:10744000954D964EDFF8B082012700232F703370E0
:107450009AF80930023BBB42544600F24F819048F3
:1074600006F099FD9AF80B30002B00F0CA808D4A87
:1074700098F8003011789146002940F0A98083B136
:10748000894B1B786BB905F0BFF99AF80930022BCC
:107490000CBF86488648394605F056F8854805F001
:1074A00055F904F081FC08B3834B1B781BB9834862
:1074B000012112F05EFFB4F88E0004F051FB0028A9
:1074C00000F07A81764806F069FD0390744806F072
:1074D00067FD01240023CDE9004302460399784863
:1074E000234612F045FE00286DD15EE0754A117802
:1074F00009BB754B1B7803F0FF07E3B9012368480C
:1075000089F8003006F047FD704B71481F8041F24A
:1075100088326368B3FBF2F36E4A13806E4B1F70C0
:107520006E4B40F6C4121F7003213B4604B0BDE809
:10753000F04713F03EB80023137098F800304BB1B9
:10754000594B1B7833B9664966480FF050FF6548C0
:1075500005F0FCF8637A032B2AD1634B50481B6873
:1075600000221BB2114606F053FC534B1B781BB98B
:107570005248012112F0FDFEB4F88E0004F0F0FA3A
:10758000002800F01981464806F008FD03904448A1
:1075900006F006FD01240023CDE9004302460399CD
:1075A0004748234612F0E4FD60B9287034700AE0C1
:1075B00000230093B7EE000A1A461946384806F031
:1075C0005BFBD2E72C70484A136801331360F3E089
:1075D000002B00F0F180344B1B78002B40F0EC8046
:1075E00005F012F99AF80930022B0CBF2F483048E9
:1075F000394604F0A9FF3D4804B0BDE8F04705F066
:10760000A5B898F8003083B1274B1B786BB905F00B
:10761000FBF89AF80930022B0CBF2448244839465D
:1076200004F092FF324805F091F8637A032B29D1D8
:107630002D4B1B481B6800221BB2114606F0E8FBCD
:107640001D4B1B781BB91D48012112F092FEB4F8A6
:107650008E0004F085FA002800F0AE80104806F095
:107660009DFC03900E4806F09BFC00210123CDE910
:10767000003102460399124812F07AFD0028A2D187
:107680002870A0E700230093B7EE000A1A461946B7
:10769000034806F0F1FAD3E7F1D60020ECA300206E
:1076A000C4D50020CCD5002020D70020F817070033
:1076B0000818070019180700F0D600208CE30020F6
:1076C00069E30020C2D50020A1D5002040D70020CA
:1076D00031E3002042D7002070D7002071D700206E
:1076E00034180700D5D50020E8D600204A18070036
:1076F0005E18070018A30020CFD5002098F80030AE
:1077000073B1374B93F80080B8F1000F08D105F042
:107710007BF83448394604F017FF334B83F8008078
:10772000324806F038FC324812F032FE002846D0CB
:10773000304812F0B7FD00283BD00121242013F07F
:10774000CAFA2D4B1B78C3B12C4804F0FFFF2C4B19
:107750001B781BB92B48012112F00BFEE77A9FB171
:1077600004F022FB20B9284A00231360274A136043
:107770001E4806F013FC80B29FE61B4B1B780BB132
:107780002348E2E72348E0E7B4F88E0004F0E8F984
:1077900090B10197012700971F4A94F88E101F4857
:1077A000022312F0E5FC00287FF40DAF287037703B
:1077B00009E701232870337004B0BDE8F087012188
:1077C000232013F088FA134804F0C0FF0123124A63
:1077D00094F88E10124812F076FC01232B70F2E61A
:1077E00020D700206A180700C2D50020C4D5002089
:1077F0008DE3002074E30020A1D500207B18070052
:10780000F0D600208CE3002054D7002050D7002071
:107810008C1807009B18070024A3002069E30020B0
:107820008EE30020000000002DE9F04F002189B018
:107830000446242013F04FFA0021232013F04BFAC2
:10784000002C00F03B842378013B072B00F23684A8
:10785000DFE813F0080064010002AC025704DA0408
:1078600098078C0905F064FC874B1B78002B31D0FE
:10787000864B1B78002B00F0958005F093FD844A21
:10788000844B11881980917899701179D970517948
:1078900019719179D27959719A710122DA717E49FF
:1078A00000221A720968D9607C49096819617C490B
:1078B0001A755A75098849B2D9757A49097849B251
:1078C00019765A839A83DA83774A126812B21A8435
:1078D00005F0D2FF754B1B78002B00F0EF83744B43
:1078E0001C78002C40F0EA83724973480FF07FFD4A
:1078F000714905A812F0B6FF05AA2146204604F0FA
:107900009FFF05A812F068FF6C4B6D491A686A4822
:107910000FF036FD684905A812F0A4FF05AA21461C
:10792000012004F08DFF05A812F056FF654812F003
:1079300064FB49F017FA52A3D3E9002349F0B6FBE0
:107940000B46024660495C480FF01AFD5A4905A8EB
:1079500012F088FF05AA2146022004F071FF05A855
:1079600012F03AFF594812F059FB59490246524861
:107970000FF006FD504905A812F074FF05AA214634
:10798000032004F05DFF05A812F026FF514812F015
:1079900056FB092870D8DFE800F0085D5F61636579
:1079A00067696B6D05F022FD69E74B4903A80FF08D
:1079B0001EFD484812F043FB484B494953F820202C
:1079C0003D480FF0DDFC3C4905A812F04BFF05AA2D
:1079D0004021032004F034FF05A812F0FDFE4148C9
:1079E00012F03EFB4049421D33480FF0C9FC3249BA
:1079F00005A812F037FF05AA4021022004F020FF5D
:107A000005A812F0E9FE264B38491A882A4812B216
:107A10000FF0B6FC284905A812F024FF05AA0021A2
:107A2000042004F00DFF05A812F0D6FE1D4B3049CE
:107A30001A7852B220480FF0A3FC1F4905A812F093
:107A400011FF05AA4021042004F0FAFE05A812F057
:107A5000C3FE31E32749A9E72749A7E72749A5E757
:107A60002749A3E72749A1E727499FE727499DE73A
:107A700027499BE7274999E7274997E7AFF3008014
:107A80000000000080842E41D0D50020FCD90020C9
:107A9000F4D90020B8A1002050D7002054D70020EE
:107AA000D2D50020D4D50020E4D60020CFD50020A8
:107AB00020D70020AD180700D5D50020E8D600203B
:107AC000BB18070099E30020CF1807009AE30020B5
:107AD000722407009BE30020D618070090A2002024
:107AE0000C1907009CE300208B240700A51A07004F
:107AF000B01A0700DA180700DE180700E2180700BE
:107B0000E6180700EB180700F1180700F718070040
:107B1000FD180700031907000819070005F008FB06
:107B20007C4B00221A707C4B1B78002B2FD07B4B98
:107B30001B78002B65D005F035FC794B794C1A8801
:107B400022809A78A2701A79E2705A7922719A7911
:107B5000DB796271A371744A74480023E371237264
:107B60001268E260724A1268226123756375E375D8
:107B700023766383A383E3836E4B1B681BB223844A
:107B800012F0A4FB40B284F8220005F075FE6A4BA7
:107B90001B78002B00F09282684B1C78002C40F080
:107BA0008D8267496748684D0FF021FC654905A83B
:107BB00012F058FE05AA2146204604F041FE05A811
:107BC00012F00AFE2A6861495E480FF0D9FB5D4950
:107BD00005A812F047FE05AA2146022004F030FE57
:107BE00005A812F0F9FD2B68013B0F2B30D8DFE818
:107BF00003F00B11131517191B1D1F21232527290E
:107C00002B2D05F0F3FB98E751494E480FF0EFFBA1
:107C10004C4970E04F49F8E74F49F6E74F49F4E720
:107C20004F49F2E74F49F0E74F49EEE74F49ECE79C
:107C30004F49EAE74F49E8E74F49E6E74F49E4E7AC
:107C40004F49E2E74F49E0E74F49DEE74F49DCE7BC
:107C50004F49DAE705F06CFA374B1B78002B00F040
:107C60002D82364B1E78002E40F02882494C657AD2
:107C7000022D46D0032D4BD05DB9474905A812F01F
:107C8000F1FD05AA2946084604F0DAFD05A812F020
:107C9000A3FD4FF47A7362684049B2FBF3F22948BE
:107CA0000FF06EFB274905A812F0DCFD05AA0021A4
:107CB000012004F0C5FD05A812F08EFD384905A885
:107CC00012F0D0FD002105AA022004F0B9FD05A89C
:107CD00012F082FD24491B480FF089FB194905A8C1
:107CE00012F0C0FD002105AA032004F0A9FD05A89B
:107CF00012F072FD2A4905A812F0B4FD05AA002170
:107D0000A1E6284905A812F0ADFD05AA3146BAE75B
:107D10002549F7E7F1D60020D0D50020FCD9002076
:107D2000F4D90020B8A1002050D7002078E300202B
:107D300054D70020E4D60020CFD5002020D7002043
:107D400012190700D5D50020F4D60020211907000C
:107D50002B190700391907004419070050190700AB
:107D60005C19070066190700701907007C190700E5
:107D700090190700A3190700B3190700C0190700DD
:107D8000CA190700DA190700E8190700F4190700F3
:107D9000051A070018A30020131A0700471A070046
:107DA0000BC30700221A0700331A070005F0C0F9B9
:107DB000924B1B78002B3FD0914B1B78002B00F08F
:107DC000D78005F0EFFA8F4B8F4C1A8822809A7873
:107DD000A2701A79E2705A7922719A79DB7962710C
:107DE000A3718A4A8A480023E3711278D2B22272C0
:107DF000884A1268E260884A12682261874A1188BC
:107E000049B22175118849B26175128852B2E27582
:107E1000834A127852B222766383A383814B1B7804
:107E2000E383814B1B681BB2238412F04FFA40B2EC
:107E300084F8220005F020FD7C4B1B78002B00F01D
:107E40003D817B4B1C78002C40F03881794D7A4B7A
:107E500029787A4A7A48744FDFF80C82002918BFD3
:107E60001A4678490FF08CFA754905A812F0FAFC09
:107E700005AA2146204604F0E3FC05A812F0ACFC5C
:107E80002B7803F0FF06002B75D1664B6E491A78EC
:107E90006B480FF075FA6A4905A812F0E3FC05AAD1
:107EA0003146012004F0CCFC05A812F095FC58489E
:107EB00012F00CFA6549024661480FF061FA604918
:107EC00005A812F0CFFC05AA3146022004F0B8FC48
:107ED00005A812F081FC4D4B5D491A7858480FF007
:107EE0004FFA574905A812F0BDFC05AA402102200F
:107EF00004F0A6FC05A812F06FFCD8F80020554944
:107F00004F480FF03DFA4E4905A812F0ABFC05AA08
:107F10003146032004F094FC05A812F05DFC3A6899
:107F20004D4947480FF02CFA454905A812F09AFC34
:107F300005AA4021032004F083FC05A812F04CFCA4
:107F4000364B46491A883E4812B20FF019FA3C499E
:107F500005A812F087FC05AA3146042004F070FC45
:107F600005A812F039FC2E4B3D491A7852B261E552
:107F700005F03CFA27E7D8F80020364930480FF0E2
:107F8000FFF92F4905A812F06DFC05AA2146012032
:107F900004F056FC05A812F01FFC3A682E49284848
:107FA0000FF0EEF9264905A812F05CFC05AA402165
:107FB000012004F045FC05A812F00EFC2A7829499E
:107FC0001F480FF0DDF91E4905A812F04BFC05AA69
:107FD0002146022004F034FC05A812F0FDFB2B78AA
:107FE000013B0F2B00F28B80DFE803F0406B6D6FDD
:107FF00071737577797B7D7F81838587D0D50020EC
:10800000FCD90020F4D90020B8A10020D6D6002049
:1080100078E3002050D7002054D70020D2D500208C
:10802000D4D50020D5D60020E4D60020CFD500201E
:1080300020D70020D7D60020A9180700021C07006F
:10804000D5D500205B1A07006C1A0700801A0700BC
:10805000891A0700921A07009A1A0700A21A070045
:10806000AD1A0700B71A0700E8D6002049494A4868
:108070000FF0BDF9484905A812F0F4FB05AA00214C
:10808000032004F0DDFB05A812F0A6FB434812F024
:108090001DF94349024640480FF072F93E4905A8D0
:1080A00012F0E0FB05AA0021042004F0C9FB05A89A
:1080B00012F092FB04F0DEFB04F0DCFB09B0BDE83B
:1080C000F08F3849D3E73849D1E73849CFE7384905
:1080D000CDE73849CBE73849C9E73849C7E73849D8
:1080E000C5E73849C3E73849C1E73849BFE73849E8
:1080F000BDE73849BBE73849B9E73849B7E73849F8
:10810000B5E705F015F8374B1B78002BD6D0364B6A
:108110001E78002ED2D1354C657A022D31D0032D38
:1081200036D05DB9324905A812F09CFB05AA294654
:10813000084604F085FB05A812F04EFB4FF47A7355
:1081400062682C49B2FBF3F213480FF019F9124997
:1081500005A812F087FB05AA0021012004F070FB9E
:1081600005A812F039FB244905A812F07BFB002179
:1081700005AA022004F064FB05A812F02DFB1F499C
:10818000A9E51F4905A812F06DFB05AA3146CFE706
:108190001C49F7E72B190700D5D5002078E300200C
:1081A000CC1A0700391907004419070050190700B5
:1081B0005C19070066190700701907007C19070091
:1081C00090190700A3190700B3190700C019070089
:1081D000CA190700DA190700E8190700F41907009F
:1081E000051A0700CFD5002020D7002018A30020B3
:1081F000131A0700471A07000BC30700D51A070018
:10820000221A0700331A0700954F04F091FF7B7A7A
:108210009449032B944B40F059811A785E78DD78AD
:108220001C7993F8028093F805A093F907B00B78B6
:1082300006EB0226C5EB4510B6B20A22B6FBF2F2F7
:1082400007EE902A05EB8005C4EB4410874AF8EE50
:10825000E77A04EB800408F138086D006400C2ED91
:10826000007A4FFA88F82DB224B24FEA2A1A9146C2
:10827000002B3BD07E4B1B78002B00F0DC8005F000
:1082800091F87C4A7C4B118819809178997011790A
:10829000D970517919719179D27959719A710322F2
:1082A000DA715FFA8AF21A72744A75481268DA60F3
:1082B000744A12681A610021734A197583F815808F
:1082C00083F816B0128852B2DA75704A127836B254
:1082D00052B21A765D839C83D9831E8411F0F6FF17
:1082E000654B40B283F8220005F0C6FA684B1B7854
:1082F000002B3FF4E3AE674B1B78002B7FF4DEAE20
:1083000004F082FA7B7A022B0CBF63486348012198
:1083100004F01AF95D4B62491A785B4B61481B887F
:1083200052B21BB20FF02CF85E4905A812F09AFA6F
:108330000021084605AA04F083FA05A812F04CFAB9
:1083400043465A46584957480FF01AF8554905A868
:1083500012F088FA05AA0021012004F071FA05A89C
:1083600012F03AFA524651494E480FF009F84D4979
:1083700005A812F077FA05AA0021022004F060FA9D
:1083800005A812F029FA4A4905A812F06BFA05AAC5
:108390003221022004F054FA05A812F01DFA4549D2
:1083A00005A812F05FFA05AA5021022004F048FA4D
:1083B00005A812F011FA404905A812F053FA05AACF
:1083C0000021032004F03CFA05A812F005FAFE7A19
:1083D0003A4F002E32D02A46394932480EF0D0FFAB
:1083E000304905A812F03EFA05AA3221032004F014
:1083F00027FA05A812F0F0F931492A4822460EF072
:10840000BFFF284905A812F02DFA05AA5021032024
:1084100004F016FA05A812F0DFF9D9F800003C685C
:1084200048F0C2FC009402460B461E4825490EF057
:10843000A7FFFFF7EDBB04F0D9FF22E72249194857
:108440000EF0D5FF174905A812F00CFA05AA322143
:10845000032004F0F5F905A812F0BEF9D1E700BF3A
:1084600018A30020D0D50020A2D50020ECD60020F3
:10847000FCD90020F4D90020B8A1002050D700205A
:1084800078E3002054D70020D2D50020D4D5002096
:10849000CFD5002020D70020F817070008180700C4
:1084A000EB1A0700D5D50020021B0700191B070097
:1084B000241B0700281B07002C1B0700E8D6002000
:1084C0007D1A0700351B07004A1B0700DD7893F86B
:1084D00001809E7893F805A0C5EB451205EB820557
:1084E0001A790B78C2EB421902EB8909A8F1C80886
:1084F000C83E6D004FEA49091FFA88F8B6B22DB29E
:108500000FFA89F9002B3CD0864B1B78002B00F02A
:10851000F58004F047FF844B844C1A8822809A78B7
:10852000A2701A79E2705A7922719A79DB796271B4
:10853000A3710223E3717E4B84F808A01B68E360FB
:108540007C4B7D481B6823614FFA88F3237573B217
:1085500063757A4B1B885BB2E375794B1B785BB212
:10856000237600236583A4F81C90E383754B1B6876
:108570001BB2238411F0AAFE40B284F8220005F059
:108580007BF9714B1B78002B3FF498AD6F4B1B7838
:10859000002B7FF493AD04F037F97B7A022B0CBFEC
:1085A0006B486C48012103F0CFFF654B6A491A788C
:1085B000624B6A481B8852B21BB20EF0E1FE67495B
:1085C00005A812F04FF90021084605AA04F038F971
:1085D00005A812F001F94FFA8AF261495F480EF0DE
:1085E000CFFE5E4905A812F03DF905AA0021012041
:1085F00004F026F905A812F0EFF85A4905A812F080
:1086000031F905AA3221012004F01AF905A812F067
:10861000E3F8554905A812F025F905AA50210120D3
:1086200004F00EF905A812F0D7F8504905A812F089
:1086300019F905AA0021022004F002F905A812F098
:10864000CBF84B4905A812F00DF905AA002103202B
:1086500004F0F6F805A812F0BFF80FFA88F24549C1
:108660003E480EF08DFE3D4905A812F0FBF805AA24
:108670003221022004F0E4F805A812F0ADF832B27D
:108680003C4936483C4E0EF07BFE344905A812F0BA
:10869000E9F805AA3221032004F0D2F805A812F067
:1086A0009BF8FC7A274F64B32A4632492B480EF0D8
:1086B00067FE2A4905A812F0D5F805AA5021022024
:1086C00004F0BEF805A812F087F82A4923484A4664
:1086D0000EF056FE214905A812F0C4F805AA502153
:1086E000032004F0ADF805A812F076F83A682349A3
:1086F00033681A480EF044FEFFF78ABA04F076FE9B
:1087000009E71F4915480EF072FE144905A812F03A
:10871000A9F805AA5021022004F092F805A812F049
:108720005BF8D7E7FCD90020F4D90020B8A10020DD
:1087300050D7002054D7002078E30020D2D5002065
:10874000D4D50020E4D60020CFD5002020D70020AB
:10875000F817070008180700EB1A0700D5D5002006
:10876000191B0700466F07002C1B0700241B07007E
:10877000281B07007D1A0700E8D600204D1B0700C4
:108780004A1B070004F0D4FC9C48042111F01BFF95
:108790009B4B1B78002B31D09A4B1B78002B00F0A1
:1087A000E78004F0FFFD984B984C1A8822809A7855
:1087B000A2701A79E2705A7922719A79DB79627122
:1087C000A3710223E371924A924800232372126834
:1087D000E260914A1268226123756375E37523761E
:1087E0006383A383E3838D4B1B681BB2238411F047
:1087F0006DFD40B284F8220005F03EF8884B1B78EE
:10880000002B3FF45BAC874B1B78002B7FF456ACFE
:10881000854D864C03F0F8FF6B7A032B0CBF844820
:108820008448012103F090FE834984480EF0DFFD67
:10883000824905A812F016F80021084605AA03F09F
:10884000FFFF05A811F0C8FF7D4B1E78002E00F039
:1088500071817C4FDFF8C4914FF0000883F80080ED
:108860003B7803F0FF06002B40F08580764B77497C
:108870001A7872480EF084FD704905A811F0F2FFD5
:1088800005AA3146012003F0DBFF05A811F0A4FF83
:10889000604811F01BFD6E49024668480EF070FDFD
:1088A000664905A811F0DEFF05AA3146022003F053
:1088B000C7FF05A811F090FF664B67491A785F481B
:1088C0000EF05EFD5D4905A811F0CCFF05AA402120
:1088D000022003F0B5FF05A811F07EFF22685F4972
:1088E00056480EF04DFD554905A811F0BBFF05AAED
:1088F0003146032003F0A4FF05A811F06DFFD9F85D
:10890000002057494D480EF03BFD4C4905A811F099
:10891000A9FF05AA4021032003F092FF05A811F04A
:108920005BFF504B50491A88444812B20EF028FDA4
:10893000424905A811F096FF05AA3146042003F02C
:108940007FFF05A811F048FF484B49491A783B487A
:1089500052B20EF015FD394905A811F083FF05AAA2
:108960004021042003F06CFF05A811F035FFA9E0B9
:1089700004F03CFD17E72268384930480EF000FD4E
:108980002E4905A811F06EFF05AA4146012003F00B
:1089900057FF05A811F020FFD9F8002030492748DB
:1089A0000EF0EEFC254905A811F05CFF05AA402158
:1089B000012003F045FF05A811F00EFF3A782D497C
:1089C0001E480EF0DDFC1D4905A811F04BFF05AA5D
:1089D0004146022003F034FF05A811F0FDFE3B786C
:1089E000013B0F2B00F2A480DFE803F04684868869
:1089F0008A8C8E90929496989A9C9EA031E3002047
:108A0000D0D50020FCD90020F4D90020B8A1002046
:108A100050D7002078E3002054D70020E4D600206F
:108A2000CFD5002020D7002018A30020E8D60020B2
:108A3000611B0700F8170700721B0700D5D500203F
:108A4000CED50020D7D60020D5D600206C1A07003E
:108A5000801A0700D6D60020891A0700921A07004C
:108A60009A1A0700D2D50020A21A0700D4D50020F8
:108A7000AD1A0700B71A0700674968480EF0B7FC3F
:108A8000664905A811F0EEFE05AA0021032003F0B7
:108A9000D7FE05A811F0A0FE614811F017FC61494E
:108AA00002465E480EF06CFC5C4905A811F0DAFE47
:108AB00005AA0021042003F0C3FE05A811F08CFED6
:108AC00003F0D8FE6B7A032B48D1574B1868246803
:108AD00048F06AF9009402460B46504853490EF09C
:108AE0004FFC4E4905A811F0BDFE05AA0021052046
:108AF000FEF7AABF4E49C0E74E49BEE74E49BCE764
:108B00004E49BAE74E49B8E74E49B6E74E49B4E791
:108B10004E49B2E74E49B0E74E49AEE74E49ACE7A1
:108B20004E49AAE74E49A8E74E49A6E74E49A4E7B1
:108B30004E49A2E74E4905A811F094FE05AA314618
:108B4000022003F07DFE05A811F046FE494905A864
:108B500011F088FE05AA3146032003E7464B47493A
:108B60001A682E4823680EF00BFCBAE704F0E0FA0E
:108B7000434B5C7A34B1012C29D0424B00221A704D
:108B8000FFF79CBA03F040FE3F48012103F0DCFCF4
:108B90003E4905A811F066FE05AA2146204603F0CD
:108BA0004FFE05A811F018FE39491C480EF01FFCB5
:108BB0001A4905A811F056FE05AA2146032003F024
:108BC0003FFE05A811F008FE03F054FED5E7314B37
:108BD0001B78002BD1D0304B1D78002DCDD103F068
:108BE00013FE2948214603F0AFFC2C4905A811F0DB
:108BF00039FE05AA2946284603F022FE05A811F0F1
:108C0000EBFD234905480EF0F2FB044905A811F0DD
:108C100029FE05AA2946D1E72B190700D5D5002042
:108C200078E30020CC1A0700ECD60020351B0700A3
:108C30003919070044190700501907005C1907008B
:108C400066190700701907007C19070090190700C2
:108C5000A3190700B3190700C0190700CA190700B4
:108C6000DA190700E8190700F4190700051A0700C8
:108C7000871B07009B1B0700E4D600204D1B070045
:108C800018A30020F1D600206A180700131A070065
:108C9000AF1B0700CFD5002020D70020AD1807005C
:108CA00010B5044605F070F9204610BD0F4BB0B169
:108CB00000221A700E4B0F4A18600F4B11685B7A36
:108CC000023B012B01F101010C4B116094BF072203
:108CD00002221A700A48FA22012111F06ABC1B789C
:108CE00013B1064B0822F4E7704700BFF1D600200D
:108CF000F4D60020E4D6002018A30020A0D5002040
:108D000031E30020174B00221A70174B90F9062010
:108D10001A70164BB0F904201A80154A03781370A4
:108D2000144A41781170144A81781170134A012154
:108D300011701BB1124A13680B441360114B124897
:108D40005B7A023B012B114B95BF072204221A705C
:108D50001A7099BF42F210720421FA22012111F017
:108D600028BC00BFF1D60020D4D50020D2D50020E9
:108D7000D7D60020D5D60020D6D60020CED50020CC
:108D8000E4D6002018A3002031E30020A0D5002065
:108D900038B5164BB0F90A201A80154B90F90C2003
:108DA0001A70144B42781A7003780446EBB1124BD8
:108DB0005B7A023B012B15D81048042111F003FC0B
:108DC0002378023B012B0DD80D4D227A61680D48A6
:108DD00006232B700DF066FD08482B46FA22012170
:108DE00011F0E7FB084B00221A7038BDD2D50020E5
:108DF000D4D50020D1D5002018A3002031E30020D5
:108E0000A0D50020A2D50020F1D60020F0B5254D38
:108E1000297899B0002942D101231A2208A82B7081
:108E200007910DF04DFD05A82AF014F905981E4C88
:108E300000F5E0400FA96E302AF080F9149B1B4921
:108E400003F26C730393129B0293139B0133019300
:108E50000F9B009307A8DDE910320EF091FA1498E9
:108E600013999DF848209DF844309DF840609DF886
:108E70003C70227100F26C70013180B2C9B2208066
:108E8000A1706371A671E771094C24783CB102248A
:108E9000CDE900672C7004F03FFA04F083FA19B0B2
:108EA000F0BD00BFF0D60020F4D90020BB1B0700A6
:108EB000FCD9002030B54FF080432DED028BD3F864
:108EC0003834032B83B027D01448144D11F03CFBE9
:108ED0000A24B0EE408A284611F036FB013C38EEF9
:108EE000008AF8D1B2EE067AC8EE077A9FED0C7AC6
:108EF000DFED0C6A67EE877A9FED0B7A67EE877A73
:108F000087EEA67AFCEEC77ACDED017A9DF80400D3
:108F100003B0BDEC028B30BD0020F9E72DE300204B
:108F200000007A440040834500007F4308B5064BAB
:108F30001B783BB111F0DBFEBDE808400146034859
:108F4000FEF7F2B908BD00BF21D70020D8D6002017
:108F50001E4B07B501221E481A7011F0CCF818B14B
:108F60001C48002111F091F81B4811F015FA1B491B
:108F70001B4811F023F91B49194811F02FF91A4920
:108F8000174811F023F91949154811F02FF918491C
:108F9000134811F033F90021164811F06DF9022140
:108FA000154811F0D7F932230122009311460A2304
:108FB0000B4811F0C2F8114BD97A01B101212220DE
:108FC00003B05DF804EB11F086BE00BFB4A1002031
:108FD000A4E300208EE300208DE30020918D0200A9
:108FE00069E30020AD8C0200A5730200058D02002C
:108FF0000D8E020071E300208BE3002018A30020F7
:1090000008B50F4B0F480021197011F03EF80E48BB
:1090100011F075F80D490B4811F07EF80C4909481C
:1090200011F082F84FF6FD71064811F02EF8094B49
:10903000D97A01B10121BDE80840222011F04BBED0
:10904000B4A100208EE30020A4E30020F573020009
:10905000D173020018A300201F4B07B501221F483F
:109060001A7011F048F818B11D48002111F00DF8E0
:109070001C4811F091F91C491C4811F09FF81C493B
:109080001A4811F0ABF81B49184811F09FF81A491B
:10909000164811F0ABF81949144811F0AFF8002147
:1090A000174811F0E9F80221164811F053F932235C
:1090B000012200930D480A23114611F03EF8124B8D
:1090C000DB7A33B10121222003B05DF804EB11F00B
:1090D00002BE03B05DF804FBB4A10020A4E30020AD
:1090E0008EE300208DE30020918D020069E30020D3
:1090F000AD8C0200A5730200058D02000D8E0200EA
:1091000071E300208BE3002018A3002010B50B4C66
:1091100000212046FEF7CEF82046094C094A0A49AC
:109120000DF052FBFF21204604F022FF2046054AA5
:109130000649BDE810400DF047BB00BFD8D600205F
:10914000C4D5002090A10020BF720200A18C0200B3
:109150002DE9F04F012187B0222011F0A5FD01215A
:10916000232011F0A1FD0121242011F09DFDAD4827
:10917000AD4E11F021FC03F0B3F9307068B1AB498A
:10918000AB480EF034F9AA48012103F0DDF9A948F3
:1091900003F0DCFAA84803F0D9FA0021222011F0EC
:1091A0009AFD0223A54806224FF4E13110F0B2FEE9
:1091B0004FF08043D3F83834032B6FD14FF4FA606B
:1091C0001BF076FB0723022203AC9D4900939848CD
:1091D0009C4D9D4F00230EF0D3F89549204611F089
:1091E00041FB2146994811F083F9204611F0F4FA29
:1091F0000121232011F06FFD0021232011F06BFDD0
:109200000021242011F067FD02F004FA02F0ECF9CD
:1092100002F066F902F07AF902F08EF902F010FA23
:1092200002F020FC00F03EFA002000F05DF96B7ABD
:10923000023B012B59D8012002F0C0FC38703B786A
:1092400013B1834803F082FA03F0C6FF814F3870F0
:1092500060B104F0A7F894E8030029F0DAFE02F008
:1092600097F93B7813B17C4803F070FA04F00AF9DF
:109270007A4F387048B104F01FFA387002F072F972
:109280003B7813B1764803F061FA02F097F96B7AF4
:10929000032B2ED8DFE803F051ADB6C311F027FD44
:1092A000DFF898A107464FF0000B41F287384FF0E6
:1092B0000009504610F013FE002883D111F017FD6D
:1092C000C41B6BEB4B05A04579EB0503FFF67AAFAA
:1092D00064201BF0EDFA232011F002FDB0FA80F1BA
:1092E0004909232011F0F7FCE3E7E87A0028A2D12E
:1092F000A2E733780BB35B494D480EF078F84C4940
:10930000204611F0AFFA00212246084603F098FAF1
:10931000204611F061FA544945480EF068F8444976
:10932000204611F09FFA22460021012003F088FA1E
:10933000204611F051FA03F09DFA4C4803F006FA6A
:109340004B4810F0AFFF10B94A4803F0FFF9FFF7A0
:10935000FFFD4FF47A7348496A683548B2FBF3F26F
:109360000EF00EF8324803F0F1F9444A4448012364
:10937000002111F014F96A6822B10023404819460F
:1093800011F017F93F4A3E480023012111F007F977
:1093900000233D4A3A48022111F001F9AB7A33B17A
:1093A000374800234EF66022022111F002F9374AB5
:1093B00033480123032111F0F2F80023344A3048E6
:1093C000042111F0ECF8334B1B785BB1284810F006
:1093D00069FF38B93223012200932F480A2311462E
:1093E00010F0ABFE01212D4811F055FC07B0BDE88F
:1093F000F08FFFF705FE2A4803F0A8F9294803F08B
:10940000A5F9A6E7284803F0A1F9194810F04AFF8A
:1094100010B9184803F09AF9FFF71EFE99E72348A0
:10942000F1E700BFACE30020CFD500206A180700A9
:10943000D5D50020DD1B0700EA1B070050E2002005
:10944000581F070018A30020CDD50020D8E2002027
:10945000F61B0700FCD90020FE1B0700D0D500201A
:10946000051C0700101C0700221C0700131A070028
:1094700074E30020321C0700471A07003974020009
:1094800031E3002029780200C9C80200C5C00200EB
:109490008D730200B4A1002069E30020C9E200201E
:1094A000B2180700401C0700221A0700331A0700F1
:1094B0007047000008B5054804F0D4FE034804F0E6
:1094C000F0FEBDE80840014804F00ABFF8D60020CD
:1094D00007B531220DF10701024804F00BFF03B07C
:1094E0005DF804FBF8D6002073B500210446112076
:1094F00011F0DAFB524811F05FFA524B002C00F0E9
:10950000848000229A800A22DA804FF481721A81C4
:1095100040F201125A814B4804F07CFF05460028B6
:1095200040F08B80002C38D02A22302145488DF81D
:109530000720012604F088FD0822322141488DF8D9
:10954000072004F081FD324633213E488DF8076044
:1095500004F07AFD24220DF107013A4804F0CAFE16
:109560009DF80720374822F00C0242F0080224211F
:109570008DF8072004F068FD6022222131488DF823
:10958000072004F061FD2A4625212E4804F05CFDE9
:109590002C483246212104F057FD002520220DF1F0
:1095A000070128488DF8075004F0A4FE9DF8072015
:1095B000244842F0080220218DF8072004F044FDE1
:1095C00064201BF075F91E220DF107011D488DF86E
:1095D000075004F08FFE9DF807201A4842F09002D1
:1095E0001E218DF8072004F02FFD64201BF060F988
:1095F0008CB1FFF76DFF14490422112010F04EFCCE
:10960000FFF758FF204602B070BD02229C80DC802C
:109610001A815C817FE720220DF10701094804F0DF
:1096200069FE9DF80720074802F0400220218DF8CE
:109630000720012404F008FDE4E70024E2E700BF6E
:10964000ACE30020F8D60020B194020002481822B2
:10965000002104F0B3BC00BFF8D60020D0B511F053
:1096600046FB0D4C0D4B0021C3E9000111F03FFBFF
:10967000D4E90032C61A62EB4207C92E77F1000323
:1096800009DB11F034FB064A206000236360137885
:109690000133DBB21370D0BD10D7002018D70020E3
:1096A00021D7002008B50221092011F0FDFA064952
:1096B0000322092010F0F2FB04490548012364222B
:1096C000FDF710FE012008BD5D960200B99C020066
:1096D000D8D600202DE9F04FC74D91B011F007FB0F
:1096E000D5E900230024811A64EB03030091019360
:1096F000DDE9002340F6B8300021904271EB03030E
:10970000A346A246A146A0462746264677DB11F08F
:10971000EEFAD5E90023811A63EB43030291039328
:10972000DDE90223B2F5C87F73F1000373DA11F0AB
:10973000DEFAD5E90023811A63EB43030491059314
:10974000DDE90434B3F5C87F74F1000380F285804D
:1097500011F0CDFAD5E90023811A63EB430306919A
:109760000793DDE90634B3F5167F74F1000380F248
:10977000998011F0BCFAD5E90023811A63EB430309
:1097800008910993DDE90834B3F5487F74F10003CB
:1097900080F2AE8011F0ABFAD5E90023811A63EBB9
:1097A00043030A910B93DDE90A34B3F5966F74F124
:1097B000000380F2C08011F09AFAD5E90023811AE3
:1097C00063EB43030C910D93DDE90C34B3F5AF6FFC
:1097D00074F1000380F2D28011F089FAD5E90023F8
:1097E000811A63EB43030E910F93DDE90E34B3F559
:1097F000C86F74F1000380F2E280082474E009204D
:1098000011F06EFA002882D17C4B1B78002B3FF4BC
:109810007EAF022468E0794B1B78012B87D10920A9
:1098200011F05EFA012882D10023C82C10D0092043
:10983000009311F055FA009B012804BF0133DBB2FD
:10984000012001340093E4B21BF032F8009BECE7F6
:10985000C62B7FF66CAF002446E0684B1B78022BCA
:109860007FF476AF092011F03BFA01287FF470AF46
:109870000024BBF1C80F10D0092011F031FA0128E3
:1098800008BF01344FF001000BF1010B08BFE4B237
:109890005FFA8BFB1BF00CF8EBE7C62C7FF658AF9A
:1098A000012421E0554B1B78032BDCB27FF461AF20
:1098B0004FF0000BBAF1C80F12D0092011F010FAC6
:1098C000012808BF0BF1010B4FF001000AF1010A5A
:1098D00008BF5FFA8BFB5FFA8AFA1AF0E9FFE9E743
:1098E000BBF1C60F7FF645AF204611B0BDE8F08F43
:1098F000424B1B78042BDCB27FF44CAF4FF0000AD4
:10990000B9F1C80F12D0092011F0EAF9012808BFF7
:109910000AF1010A4FF0010009F1010908BF5FFADD
:109920008AFA5FFA89F91AF0C3FFE9E7BAF1C60FBC
:109930007FF630AFD8E7314B1B78052BDCB27FF4D4
:109940003AAF4FF00009B8F1C80F12D0092011F05A
:10995000C7F9012808BF09F101094FF0010008F11A
:10996000010808BF5FFA89F95FFA88F81AF0A0FFCA
:10997000E9E7B9F1C60F7FF61EAFB5E71F4B1B78BD
:10998000062BDCB27FF428AF4FF00008C82F11D0AF
:10999000092011F0A5F9012808BF08F101084FF0CE
:1099A000010007F1010708BF5FFA88F8FFB21AF05B
:1099B0007FFFEBE7B8F1C60F7FF60EAF94E70F4BD2
:1099C0001B78072BDCB27FF418AF0025C82E0FD010
:1099D000092011F085F9012808BF01354FF0010079
:1099E00006F1010608BFEDB2F6B21AF061FFEDE72D
:1099F000C62D7FF602AF77E718D7002021D70020C9
:109A000073B58B4D8B4C6A7A637A9A4231D002F0EF
:109A1000FBFE0021884802F097FD6B6863606B7A5B
:109A2000864863726B89638102F090FE844802F07D
:109A30008DFE02F01FFF01F029FE40F6B8301AF04B
:109A400037FF637A7F48012B4FF000014FF0320659
:109A500040F0998010F019FB00227B4800960A2301
:109A6000114610F06AFB794810F049FB784810F075
:109A700069FDEA7AE37A9A4207D06B7A023B012BBE
:109A800094BF0120002002F099F86A6863689A4246
:109A900003D16A8963899A4213D002F0B5FE674800
:109AA00002F054FE664802F051FE02F0E3FE6B68DD
:109AB00063606B89638101F0E9FD40F6B8301AF00C
:109AC000F7FE644810F064FC002869D0624810F08A
:109AD000EBFB624B1978884205D000395E4818BF0D
:109AE000012110F0E3FB5E4810F0F0FB5D4B1978AC
:109AF000884202D05A4810F0EBFB5B4810F0F8FBAC
:109B00005A4B1978884202D0574810F0F3FB584D51
:109B100058482E7810F0FEFB86420BD02978554825
:109B200010F004FC32230122009347480A23114617
:109B300010F003FB02F068FE637A012B71D06CD940
:109B4000023B012B6FD94FF47A7362684A49B2FB2A
:109B5000F3F24A480DF014FC484802F0F7FD626841
:109B600022B100234648194610F023FDA37A002BAA
:109B70005BD0434800234EF66022022102B0BDE8CC
:109B8000704010F016BD10F080FA012200960A23F2
:109B900011462D4810F0D1FA2E4810F0FDFB65E774
:109BA000384D3948296810F02AFA374810F025FA5C
:109BB0002968884202D0344810F021FA334810F066
:109BC0002DFA334B1978884202D0304810F028FA29
:109BD000304D31482E7810F032FA864203D0297881
:109BE0002D4810F02EFA2D4810F03AFA2C4B197827
:109BF000884202D0294810F035FA2A4810F043FA7A
:109C0000294B1978884202D0264810F04DFA4FF6B9
:109C1000FD710C4810F039FA8CE7244802F096FDEB
:109C200091E72348FAE72348F8E702B070BD00BF88
:109C3000E4A1002018A300204E1C0700551C0700BB
:109C4000651C07008EE3002069E30020A4E30020E8
:109C5000C8E200208DE3002075E3002023D7002018
:109C600078E3002025D7002080E3002026D70020BD
:109C700024D700208AE30020471A0700D5D500200A
:109C800031E3002030D7002099E300209AE3002040
:109C900034D700202BD700209BE300209CE300203A
:109CA0002CD700209EE3002035D70020131A070090
:109CB000B2180700331A07002DE9F04F87B0FFF7FD
:109CC00009FD072800F2CC81DFE810F0BC044A034C
:109CD0000800CD01B00053002D001A00914B002068
:109CE0001870914B00240025C3E900458F4B1B7869
:109CF00023B107B0BDE8F04F02F0C4BD0120F8E782
:109D0000884B00221A70884B00200021C3E9000113
:109D1000874B1C783CB902F077FD8648214602F05B
:109D200013FC1AF0DCFD7F4B00221A707E4B0020E2
:109D30000021C3E900017E4B1C7874B17E4B1A7878
:109D4000052A40F08D8110221A707C4BD97A01913E
:109D50009B7A00937A4B1B785BE002F055FD7948C3
:109D6000214602F0F1FB784807B0BDE8F04F10F053
:109D7000E9BB6C4B00221A706B4B00200021C3E939
:109D800000016B4B1B78002B00F06A816A4C237832
:109D9000052B00F26581DFE813F006006301630123
:109DA000220030004000694810F0F2FA0128634BAD
:109DB0000AD104222270D97A01919B7A64490093D6
:109DC00009786448FF2315E005222270D97A0191B1
:109DD0009B7A6149009309786048FF230AE0574B5A
:109DE0000322D97A5A7201919B7A009305235C4928
:109DF0005C48097802F06CFD32E107235A48237071
:109E000010F088FA4D4AD37A0193937A0093C3B243
:109E10002278564956480978ECE7484B0E22D97A01
:109E2000227001919B7A0093524B94E73D4B0022A4
:109E30001A703D4B00200021C3E900013C4B1B7808
:109E4000002B00F0A5803C4C2378062B00F2088103
:109E5000DFE813F007001F03120020002A0057005C
:109E60006000364903224B7AC87A22700190897AC1
:109E700000910233DBB2BAE7304A937A83F00103F0
:109E80009372D27A019200930222FF233A493B480F
:109E90000978AFE7294B02225A72DA7A01929B7A4B
:109EA000009304230322A2E70A232F48237010F013
:109EB00031FAC0B20C280ED8DFE800F00717171DE2
:109EC000171D1D17171717171D002D4B00221A708D
:109ED0002C4B05221A70194A2B4BD17A1B78019111
:109EE000927A00920A33DBB292E7254B00221A7075
:109EF000244B0722EEE7224B00221A70214B0A2244
:109F0000E8E70E4B0D22D97A227001919B7A0093DB
:109F10001E4B20E7094BDA7A01929B7A00930023CB
:109F20003AE100BF21D7002018D7002060A500200B
:109F300020D70020761C070022D70020E4A10020B3
:109F400035D70020811C0700C8E200208DE30020E7
:109F5000CCA20020B8A20020FCA20020E4A2002095
:109F60008CA2002078A200208AE30020E0A100203B
:109F7000DCA100202CD70020E0A20020D0A20020ED
:109F80002AD7002028D7002025D700202BD7002053
:109F90009E4810F0FDF9012862D19D4D6A7A012A90
:109FA0005ED09C4E3278002A5AD19B4C9B4B20703D
:109FB0001B7804940BB902F065FC00219848DFF887
:109FC0006CB210F000FB974810F0A4F9964B53F8D0
:109FD00020309648039310F079F94FF0000A0746B5
:109FE000039B33F81A2042B35FFA8AF1584610F007
:109FF0006FF964201AF05CFC0020FDF71DFA10F0E8
:10A0000076FE02463078059298B14FF47A701AF0D5
:10A010004FFC10F06CFE059A42F21073B0EB020890
:10A020004FF0000161EB01090024434574EB090383
:10A03000E8DA4FF4FA601AF03BFC0AF1010ABAF1CF
:10A04000100FCDD17948394610F042F96A6822B133
:10A0500000237348194610F0ACFA049A00231370D9
:10A0600007B0BDE8F08F724B00221A70714B0024CC
:10A070000025C3E90045704B1B78002B00F041819F
:10A080006E4C2278102AEBD801A353F822F000BFBF
:10A09000D5A0020093A40200E7A00200F7A00200EE
:10A0A00009A1020065A1020077A102009DA10200A2
:10A0B00061A00200BBA10200E1A1020065A20200B2
:10A0C00089A20200A9A20200C7A2020061A00200A8
:10A0D000E3A2020002222270594BD97A01919B7AA5
:10A0E0000093FF23D2E6564AD37A83F00103D3725A
:10A0F0000193937AC7E6524B01225A72DA7A01929F
:10A100009B7A00930323CDE609234648237010F081
:10A1100001F9C0B20C2814D8DFE800F007070707E0
:10A12000070D1B07212121211B00464B00221A701D
:10A13000454B052204E0434B00221A70424B042297
:10A140001A703F4BDA7A01929B7A00933F4B1B784F
:10A150005EE63C4B00221A703B4B0622F0E7394B7F
:10A160000222E4E7364B0C22D97A227001919B7AC5
:10A170000093374BEFE5324B5A6842B142F20F7110
:10A180008A428ABFA2F51C520022103A5A60DA7A3B
:10A1900001929B7A0093FF2306223AE62D4A137818
:10A1A00013B1013BDBB200E00C231370244AD17AD7
:10A1B0000191927A009207222BE6244A21491378D2
:10A1C0000978994209D1204B1B7813701C4AD17A27
:10A1D0000191927A009209221BE6013BDBB2F4E77F
:10A1E0001D4A1E491378097899420BBF1C4B03F195
:10A1F000FF331B78DBB21370114BDA7A01929B7A32
:10A200000093124B1B780A2203E600BF8DE3002067
:10A2100018A30020F1D60020A1D5002060A50020C1
:10A2200031E300208AE3002010A5002078E300201D
:10A2300021D7002018D7002020D7002022D70020C7
:10A24000E4A1002029D7002027D7002025D700200F
:10A2500034D7002024D7002026D700202AD700207A
:10A2600028D70020A04AA1491368A3F5C333A03B17
:10A270008B4298BF9E4B13609E4BDA7A01929B7A79
:10A2800000930B22FF23C4E59B490B78062B1CBFD0
:10A2900003F1FF33DAB2974B0A70D97A01919B7AB6
:10A2A000009313460C22B4E5944A137813B1013B92
:10A2B000DBB200E0092313708E4AD17A0191927AC1
:10A2C00000920D22A5E58E4A117809B1481EC0B250
:10A2D0001070884AD37A0193937A009303460E2232
:10A2E00097E5884A1378052B02D0013BDBB200E0EA
:10A2F000162313707F4AD17A0191927A009210222C
:10A3000087E5814810F044F8804B01281B781ED166
:10A31000002B7FF4A5AE7E4B1B780BB902F0B2FA8E
:10A3200000217C4810F04FF97B4B012200201A706D
:10A33000FDF782F8794B5A68002A3FF491AE00236A
:10A340007448194607B0BDE8F04F10F032B9002B41
:10A350007FF486AE6E4B1B78002BE1D10120DDE748
:10A360006F4B704D704C00221A70704B0021002012
:10A37000C3E900012978002959D1664810F023F972
:10A380000121644810F01FF96248022110F01BF906
:10A390005F4B1B7813B9012002F074FA01235F4A66
:10A3A0002B7000232370534B51685960517A5289A6
:10A3B00055485A8159720FF0EBFF0146D8B15C48FD
:10A3C0000FF084FF5B4B18705B480FF0A3FF5B4BF3
:10A3D00018705B480FF068FF5A4B18705A480FF01E
:10A3E00087FF5A4B18700023CDE900332278584973
:10A3F00058480978FEE458480FF047FE57480FF0D8
:10A40000FCFD394B186056480FF008FE3A4B1870A7
:10A4100054480FF014FE394B187053480FF020FECB
:10A42000374B187051480FF02EFE364BDAE7237881
:10A43000102B3FF615AE01A252F823F081A40200C2
:10A4400093A40200A5A40200A9A40200BBA40200D8
:10A45000D3A4020031A60200D7A4020071A5020015
:10A460008DA50200A1A50200C3A50200D9A5020086
:10A47000F5A5020005A6020061A0020021A60200C7
:10A4800001221C4B2270D97A01919B7A0093FF2301
:10A49000BFE400222270174BD97A01919B7A009376
:10A4A000FF23A4E70622ECE7124B00225A72DA7A65
:10A4B00001929B7A00930223F4E40E49214BC87A5F
:10A4C0001B78082222700190897A00910A33DBB24E
:10A4D0009FE40B22D5E7194A13780C2B01D00133E6
:10A4E00060E6002361E600BF30D700207F47A11956
:10A4F0008047A119E4A1002034D700202BD70020E9
:10A500002CD7002035D700208DE30020F1D6002085
:10A5100060A5002031E30020C2D5002018A3002050
:10A5200021D7002020D7002022D7002018D70020D4
:10A5300078E3002025D700208AE3002024D70020DC
:10A5400075E3002023D7002080E3002026D70020D9
:10A5500014A3002000A300208EE3002099E3002034
:10A560009AE300209BE300209CE300209EE3002070
:10A570005C4A1378B3FA83F35B0913705A4AD17AB1
:10A580000191927A00920A33082242E4574A5849CC
:10A5900013780978994201D1564B15E601331DE62F
:10A5A000554A56491378097899420BBF544B0133E9
:10A5B0001B78DBB213704C4AD17A0191927A0092E7
:10A5C00021E6504A5049136803F5C333A0338B4248
:10A5D00094BF136011604FE64C4A13780C2B1ABFDE
:10A5E0000133DBB2062313703F4AD17A0191927A8C
:10A5F000009257E6464A1378092B01D0013357E6FB
:10A60000002358E6434A1378032B1ABF0133DBB209
:10A6100000231370344AD17A0191927A00925EE657
:10A620003D4A1378162B01D001335FE6052360E61F
:10A630002D4A536803F51C5310335360D37A0193AA
:10A64000937A6BE4354B00221A70354B354A002162
:10A650000020C3E90001117800293FF401AD324B1D
:10A66000197810293FF6FCAC01A050F821F000BF8A
:10A67000B5A60200C3A60200C3A60200C3A602003C
:10A68000C3A60200C3A60200DDA60200C9A60200FE
:10A69000C9A60200C9A60200C9A60200D3A60200EC
:10A6A000D3A60200D3A60200D3A6020061A0020036
:10A6B000D3A602000023137007B0BDE8F04FFFF7E8
:10A6C0009FB900221A70E6E604221A70064BFFF7C3
:10A6D00072BB05221A70044BFFF778BB02221A7076
:10A6E000FAE400BF23D70020E4A1002025D70020F2
:10A6F00027D7002029D7002026D7002028D70020E0
:10A700002AD7002030D700200070383934D70020F5
:10A710002BD700202CD7002035D7002021D70020B0
:10A7200018D7002020D7002022D70020024B01227A
:10A730001A700920704700BF36D7002070B598B056
:10A7400014460A490EA810F08DF80023CDE9143301
:10A75000CDE91633636E012B0CD1054920680CF04E
:10A760003CFE48B1022400F0EDBC00BF9A5E070039
:10A770001E7E0700002BF5D1B649B748B74CB84D3F
:10A78000B84E10F0F5F9B849B34810F0F1F9B149F5
:10A79000B64810F0EDF9B449B44810F0E9F9642076
:10A7A0001AF086F8637AB24955F82320AA4810F0C7
:10A7B000DFF9AD49A84810F0DBF9637AAC4955F8E8
:10A7C0002320AA4810F0D4F9A749A84810F0D0F9DE
:10A7D00064201AF06DF8A74911A80FF093FE11A993
:10A7E0000EA810F052F811A80FF0F6FF0EA810F006
:10A7F0008FF80E9AA049984810F0BAF99A499648ED
:10A8000010F0B6F90E9A9C49984810F0B1F99649A3
:10A81000964810F0ADF964201AF04AF8974911A84B
:10A820000FF050FE119A96498B4810F0A1F911A82B
:10A830000FF0D2FF8C49884810F09AF98F4911A87F
:10A840000FF040FE119A8E49884810F091F911A836
:10A850000FF0C2FF8449854810F08AF964201AF08D
:10A8600027F84FF47A7562688649B2FBF5F27A48A8
:10A8700010F07EF97C49784810F07AF962688149D5
:10A88000B2FBF5F2794810F073F97749774810F088
:10A890006FF964201AF00CF87B480FF079FD7B49C2
:10A8A00056F8202005466C4810F062F96E496A4857
:10A8B00010F05EF956F8252074496C4810F058F9EC
:10A8C00069496A4810F054F9642019F0F1FF012D2C
:10A8D00040F04E836E486F4E6F4D0FF0E3FC6F49B2
:10A8E000002814BF32462A465B4810F041F95E4901
:10A8F000594810F03DF966480FF0D4FC674900282C
:10A9000014BF32462A465948654E10F031F956496F
:10A91000564810F02DF9642019F0CAFF61480FF075
:10A92000F9FC6149054602464B4810F021F94E49B1
:10A93000494810F01DF92A465B494C4810F018F9B7
:10A9400049494A4810F014F9642019F0B1FF56F84B
:10A9500025205649404810F00BF943493E4810F075
:10A9600007F956F825205149404810F001F93E49B1
:10A970003E4810F0FDF8642019F09AFF4C480FF0A3
:10A980008AFC002800F0BE814A49334810F0F0F8F4
:10A990003549314810F0ECF84649344810F0E8F8F1
:10A9A0003149324810F0E4F8642019F081FF0822A0
:10A9B00014A941480FF04EFC9DF8573005939DF8BF
:10A9C000563004939DF8553003939DF8543002930C
:10A9D0009DF8533001939DF852309DF8502037492F
:10A9E00000931D489DF8513010F0C2F81E491A48D6
:10A9F00010F0BEF89DF8573005939DF8563004933B
:10AA00009DF8553003939DF8543002939DF85330D0
:10AA100001939DF852309DF8502028490093134827
:10AA20009DF8513010F0A4F80F49104810F0A0F82C
:10AA3000642019F03DFF082214A921480FF0E6FB1D
:10AA40009DF8573005939DF8563004939DF8553086
:10AA500038E000BFF11C070050E2002018A30020DE
:10AA600084A40020E0A30020985E0700B4E2002048
:10AA7000001D070008E300200E1D0700CCE20020A7
:10AA80002D4C0700191D07008DE30020291D07002C
:10AA900074E300208D5B0700E31C0700391D0700ED
:10AAA000ACA300208AE30020441D07004F1D0700CF
:10AAB00073E300205A1D07006EE30020641D0700A9
:10AAC0006AE3002003939DF8543002939DF85330BD
:10AAD00001939DF852309DF850207D4900937D48A8
:10AAE0009DF8513010F044F87B497A4810F040F856
:10AAF0009DF8573005939DF8563004939DF85530D6
:10AB000003939DF8543002939DF8533001939DF8C0
:10AB100052309DF850206E49009370489DF8513096
:10AB200010F026F86C496D4810F022F8642019F0F6
:10AB3000BFFE102214A96A480FF071FB9DF85F3028
:10AB40000D939DF85E300C939DF85D300B939DF84E
:10AB50005C300A939DF85B3009939DF85A30089356
:10AB60009DF8593007939DF8583006939DF857305B
:10AB700005939DF8563004939DF8553003939DF846
:10AB8000543002939DF8533001939DF852309DF854
:10AB90005020544900934F489DF851300FF0E8FF82
:10ABA0004D494C480FF0E4FF9DF85F300D939DF840
:10ABB0005E300C939DF85D300B939DF85C300A93EA
:10ABC0009DF85B3009939DF85A3008939DF85930F1
:10ABD00007939DF8583006939DF8573005939DF8DC
:10ABE000563004939DF8553003939DF854300293EA
:10ABF0009DF8533001939DF8523000939DF85020FA
:10AC00009DF85130374935480FF0B2FF324933488B
:10AC1000354E364D0FF0ACFF642019F049FE344933
:10AC20002C480FF0A5FF2C492A480FF0A1FF30490E
:10AC30002A480FF09DFF284928480FF099FF64200B
:10AC400019F036FE627A2B4922480FF091FF224913
:10AC500020480FF08DFF627A264920480FF088FFC8
:10AC60001D491E480FF084FF642019F021FEA27ACE
:10AC700021491848002A14BF32462A460FF078FFAF
:10AC8000154914480FF074FFA27A1B491348002A93
:10AC900014BF32462A460FF06BFF0F490F48174E7C
:10ACA0000FF066FF642019F003FE15481AF018F93A
:10ACB0000025B4F88E20EBB2934205F1010580F235
:10ACC0003D8223443046197B1AF00AF9F1E700BFB0
:10ACD0008C1D070050E20020985E0700B4E20020BF
:10ACE0006BE30020B41D0700EE1C0700721C070078
:10ACF000151F0700251F0700331F0700D39F0700FC
:10AD0000441F0700904991480FF032FF90498F4847
:10AD10000FF02EFF8C498F480FF02AFF8C498D4889
:10AD20000FF026FF642019F0C3FD14A910228A48F1
:10AD30000FF07EFA9DF85F300D939DF85E300C9316
:10AD40009DF85D300B939DF85C300A939DF85B3065
:10AD500009939DF85A3008939DF8593007939DF850
:10AD6000583006939DF8573005939DF8563004935C
:10AD70009DF8553003939DF8543002939DF853305D
:10AD800001939DF852309DF85020009373499DF82F
:10AD900051306E480FF0ECFE6D496C480FF0E8FE44
:10ADA0009DF85F300D939DF85E300C939DF85D30FB
:10ADB0000B939DF85C300A939DF85B3009939DF8E6
:10ADC0005A3008939DF8593007939DF858300693F0
:10ADD0009DF8573005939DF8563004939DF85530F3
:10ADE00003939DF8543002939DF8533001939DF8DE
:10ADF00052309DF85020009358499DF851305548E5
:10AE00000FF0B6FE524953480FF0B2FE642019F01D
:10AE10004FFD14A9102252480FF025FA9DF85F301B
:10AE20000D939DF85E300C939DF85D300B939DF86B
:10AE30005C300A939DF85B3009939DF85A30089373
:10AE40009DF8593007939DF8583006939DF8573078
:10AE500005939DF8563004939DF8553003939DF863
:10AE6000543002939DF8533001939DF852309DF871
:10AE7000502000933B499DF8513034480FF078FE44
:10AE8000334932480FF074FE9DF85F300D939DF802
:10AE90005E300C939DF85D300B939DF85C300A9307
:10AEA0009DF85B3009939DF85A3008939DF859300E
:10AEB00007939DF8583006939DF8573005939DF8F9
:10AEC000563004939DF8553003939DF85430029307
:10AED0009DF8533001939DF852309DF85020009317
:10AEE00020499DF851301B480FF042FE184919487F
:10AEF0000FF03EFE642019F0DBFC14A904221A486E
:10AF00000FF09FF99DF8533001939DF852309DF852
:10AF10005020009315499DF851300C480FF028FE41
:10AF20000B490A480FF024FE9DF8533001939DF819
:10AF3000523000939DF850209DF851300B49054840
:10AF40000FF016FE62E600BFFC1D070050E2002075
:10AF5000985E0700B4E200206CE30020051E0700A5
:10AF600070E300204E1E07006DE30020971E0700CF
:10AF70007748002D40F09B800FF03FF8754902465E
:10AF800075480FF0F5FD754973480FF0F1FD7048F5
:10AF90000FF033F86F49024671480FF0E9FD6F4931
:10AFA0006F480FF0E5FD642019F082FC6D480FF04A
:10AFB00035F86D49024668480FF0DAFD6749664882
:10AFC0000FF0D6FD67480FF029F86749024664483C
:10AFD0000FF0CEFD614962480FF0CAFD642019F000
:10AFE00067FC62480FF02BF8614902465A480FF09F
:10AFF000BFFD5A4958480FF0BBFD5C480FF01FF8E1
:10B000005B49024656480FF0B3FD544954480FF0CF
:10B01000AFFD642019F04CFC56480FF021F856495A
:10B0200002464D480FF0A4FD4C494B480FF0A0FDDF
:10B0300050480FF015F85049024649480FF098FD66
:10B04000464947480FF094FD642019F031FC4B4805
:10B050000FF017F84A4902463F480FF089FD3F4973
:10B060003D480FF085FD45480FF00BF84449024676
:10B070003B480FF07DFD394939480FF079FD6420D8
:10B0800019F016FC3F480EF0FEFF3F4902463248D9
:10B090000FF06EFD314930480FF06AFD39480EF06F
:10B0A000F2FF394902462E480FF062FDAEE50EF080
:10B0B000A4FF2849024628480FF05AFD2749264890
:10B0C0000FF056FD22480EF098FF22490246244810
:10B0D0000FF04EFD214922480FF04AFD642019F07F
:10B0E000E7FB2A480FF003F8294902461A480FF0F7
:10B0F0003FFD1A4918480FF03BFD24480EF0F7FFBA
:10B100002349024616480FF033FD144914480FF046
:10B110002FFD642019F0CCFB1E480EF0EAFF1E49FB
:10B1200002460D480FF024FD0C490B480FF020FD9E
:10B1300018480EF0DEFF18490246B4E7074819F038
:10B14000CFFE00240EA80FF047FB204618B070BDBC
:10B1500099E30020B01E070050E20020985E07002F
:10B16000B4E200209AE30020BF1E07009BE300200A
:10B17000C71E07009CE30020CF1E07009DE30020B0
:10B18000D71E07009EE30020EC1E0700A2E300206C
:10B19000FA1E0700A3E30020071F070073B5556ED2
:10B1A000012D0E4625D1144910680CF016F90446FD
:10B1B000E0B90725CDE90005022332460F491048C2
:10B1C0000FF0D6FC0F490E480FF0D2FC0223324696
:10B1D000CDE9004509490C480FF0CAFC09490A4865
:10B1E0000FF0C6FC642019F063FB2546284602B028
:10B1F00070BD0125FAE700BF1E7E0700551F07003E
:10B2000050E20020985E0700B4E200202DE9F84FDC
:10B21000614B1B78002B00F0BD80604B1B78002B2E
:10B2200040F0B680556E012D40F0B480D2F800A0F9
:10B230005B4950460CF0D1F80446002866D1594BC2
:10B2400059495A481D700FF093FC57495748DFF889
:10B2500084B10FF08DFC544955480FF089FC5249D8
:10B2600053480FF085FC642019F022FB2146514819
:10B270000FF0A9F929464F480FF0A5F902214D48D2
:10B280000FF0A1F901F0C0FA21464B4801F05CF93A
:10B290004A4801F05BFA4A4801F058FA01F0EAFA2C
:10B2A0000FF025FD4FF0000A054642F21076002708
:10B2B0009BF800308BB94FF47A7019F0F9FA0FF05F
:10B2C00016FDB0EB05086AEB4A09464577EB090322
:10B2D000EEDA03242046BDE8F88F02F04BF932493C
:10B2E00032480FF045FC304930480FF041FC2E4900
:10B2F0002F480FF03DFC2C492D480FF039FC6420FD
:10B3000019F0D6FA2F480FF01DF9E3E72E49504601
:10B310000CF063F8044600283CD1224BDFF8B4B0AF
:10B320001D70014623480FF04EF9294621480FF0C1
:10B330004AF902211F480FF046F901F065FA21464B
:10B34000224801F001F9224801F000FA1C4801F0FE
:10B35000FDF901F08FFA0FF0CAFC4FF0000A054624
:10B3600044F620684FF000099BF800306BB94FF4A9
:10B370007A7019F09DFA0FF0BAFC461B6AEB4A0787
:10B38000B04579EB0703EFDAA3E702F0A7F8B9E7D6
:10B3900000249FE702249DE7D0D5002036D7002067
:10B3A0001E7E070020D70020985E070050E2002094
:10B3B000B4E2002031E300206F1F0700771F070071
:10B3C000651C0700C8E20020196407004E1C070036
:10B3D000871F0700ECA300202DE9FF41536E012BCE
:10B3E0000D46144624D1394910680BF0F6FF044687
:10B3F00020B10224204604B0BDE8F08101F0D2FF64
:10B40000294633480FF080FB324931480FF06AFB80
:10B41000314A3249D3790393937902935379019353
:10B420001379009393782A4812880FF0A1FBE1E783
:10B43000052BDED1161F02F1100756F8045F2846CF
:10B440000BF0DDFF2B462844984205D013F8012B62
:10B45000303A092AF8D9CCE7BE42EED10022114693
:10B4600020680CF039F940F2D233A0F2E6729A4229
:10B470000546BED80022606811460CF02DF9431E27
:10B480000B2B0646B5D80022A06811460CF024F913
:10B49000431E1E2B0746ACD80022E06811460CF074
:10B4A0001BF918288046A4D80022206911460CF008
:10B4B00013F93B289DD8C2B200925FFA88F3FAB222
:10B4C000F1B2A8B201F0E0FE002493E71E7E07006F
:10B4D00050E20020F6210700F4D90020971F070052
:10B4E00007B503230193054B0093054B054A064816
:10B4F00019460FF032F803B05DF804FB05B70200FF
:10B50000AA1F0700B21F07002EE3002007B5032380
:10B510000193054B0093054B054A064819460FF069
:10B520001CF803B05DF804FBD1B702000A20070045
:10B530000F2007002EE3002007B503230193054BDE
:10B540000093054B054A064819460FF006F803B06C
:10B550005DF804FBD1B802006D20070072200700DF
:10B560002EE3002007B503230193054B0093054B01
:10B57000054A064819460EF0F0FF03B05DF804FBDB
:10B580000DB20200992007009E2007002EE3002044
:10B5900007B503230193054B0093054B054A064865
:10B5A00019460EF0DAFF03B05DF804FBD9B30200D0
:10B5B000B4200700B82007002EE3002007B50323BE
:10B5C0000193054B0093054B054A064819460EF0BA
:10B5D000C4FF03B05DF804FB99B90200DF20070047
:10B5E000E42007002EE3002007B502230193054B5A
:10B5F0000093054B054A064819460EF0AEFF03B00E
:10B600005DF804FB3DA702004D210700542107000F
:10B610002EE3002007B502230193054B0093054B51
:10B62000054A064819460EF098FF03B05DF804FB82
:10B630009DB102006B210700722107002EE300205C
:10B6400010B50D4C0D4986B003A80FF00BF903A9F6
:10B6500020460EF06DFF03A80FF0BEF80223019301
:10B66000074B0093074B084A194604F126000EF0D9
:10B6700074FF06B010BD00BF08E300208A21070058
:10B680002DA70200922107009B21070070B5194CDD
:10B6900019491A4EC2B09022201D0BF003F99021D7
:10B6A000201D19F05FFF00252060FE22294602A818
:10B6B00001950BF005F9B4F88E30E8B2984205F127
:10B6C000010508DA231831461A7B01AB03EB400071
:10B6D0000BF056FEEFE7074A0948942300210EF0CD
:10B6E00054FF28B90146034A054894230EF04DFF44
:10B6F00042B070BDF0A300201CA30020D39F070020
:10B700002FE30020F8B5536E012B0E4602D0022421
:10B710002046F8BD1568274928460BF05EFE044612
:10B7200060B128460BF06BFE2A462844904224D094
:10B7300012F8013B303B092BF8D9E8E71E4F1F49AF
:10B740007B681F4832464FF47A75B3FBF5F30FF070
:10B750000FFA1C491A480FF00BFA7B681749B3FB24
:10B76000F5F3324618480FF003FA164916480FF061
:10B77000FFF9642019F09CF8CAE70A220021284644
:10B780000BF0AAFFB0F5E15FC1D80B4C4FF47A7310
:10B790005843606000210D480EF015FF626822B129
:10B7A00000230A4819460EF004FFFFF76FFF00243C
:10B7B000AEE700BF1E7E070018A30020BE210700D1
:10B7C00050E20020985E0700B4E2002031E3002040
:10B7D000536E012B70B50E4602D00224204670BD78
:10B7E0001568334928460BF0F8FD044660B1284639
:10B7F0000BF005FE2A46284490421ED012F8013B69
:10B80000303B092BF8D9E8E72A4D2B496B7A2B48B6
:10B8100032460FF0ADF92A4928480FF0A9F96B7AA2
:10B820002549284832460FF0A3F9254925480FF04D
:10B830009FF9642019F03CF8D0E70A22002128463D
:10B840000BF04AFF0328C8D81A4C637A984223D0D9
:10B850006072FFF71BFF637A012B22D01ED9023BD7
:10B86000012B21D9184915480FF082F914491348C2
:10B870000FF07EF9144913480FF07AF91049114876
:10B880000FF076F9642019F013F841F2883019F0BE
:10B890000FF80E480EF056FE00249FE7FDF758FB08
:10B8A000E0E7FDF7ADFBDDE7FDF7D6FBDAE700BF2C
:10B8B0001E7E070018A30020C521070050E20020CB
:10B8C000985E0700B4E20020CB210700C8E2002008
:10B8D000F8B5536E012B0D4602D002242046F8BD68
:10B8E00017682549254E38460BF077FD044678BB8E
:10B8F000B6F88E30ABB92A46214922480FF038F904
:10B90000214920480FF034F92A461D491F480FF0FD
:10B910002FF91D491D480FF02BF9642018F0C8FFBE
:10B92000DCE729461A481B4F19F0DAFA2546B6F823
:10B930008E20EBB2934205F1010505DA3344384617
:10B94000197B19F0CDFAF2E70F4819F0C9FAC5E7EB
:10B9500038460BF054FD06F10C0201460546384608
:10B9600013F0AEFD04460028B7D16D08A6F88E503E
:10B97000FFF78CFEB2E700BF1E7E070018A3002071
:10B98000E821070050E20020985E0700B4E20020A2
:10B99000F4210700D39F0700536E012B2DE9F341DB
:10B9A0000E4615462ED1274910680BF016FD0446A9
:10B9B00060BBDFF8AC80244F98F800300193234D32
:10B9C0003B780093EB7A2249224832460FF0D0F8B8
:10B9D000214920480FF0CCF898F8003001933B78CB
:10B9E0000093EB7A1A491D4832460FF0C1F81A4904
:10B9F0001A480FF0BDF8642018F05AFF204602B034
:10BA0000BDE8F081002B01DC0224F7E70022286862
:10BA100011460BF061FE10F0FF0508D10B4BDC7AEC
:10BA2000002CEBD0DD72FFF731FE0024E6E7012D9C
:10BA3000EAD1064BDC7A002CF7D1DD72FFF726FE47
:10BA4000DCE700BF1E7E0700FCD9002018A3002001
:10BA5000F821070050E20020985E0700B4E20020C1
:10BA6000D0D50020F0B52E4D2E48C3B094232A46E1
:10BA700000210EF080FD0646B8B12B7AAA2B17D113
:10BA80009021281D19F06EFD2B68274C834211D0A0
:10BA900047F23052AA23C4E90123244BE360042374
:10BAA000A4F88E30FFF7F2FD0026304643B0F0BD1B
:10BAB0000020E9E76B6863606B7AB5F88E20032B92
:10BAC00086BF0023374600276372802A6B89638113
:10BAD00006D900232373A4F88E30FFF7D7FD07E0C3
:10BAE00013491448A4F88E200AF0DCFE002FF4D18C
:10BAF0000025FE22294602A801950AF0E1FE0E4F1C
:10BB0000B4F88E30E8B2984205F10105CDDA231879
:10BB100039461A7B01AB03EB40000BF031FCEFE739
:10BB2000F0A300202FE3002018A30020010203044B
:10BB3000FCA3002024A30020D39F070010B5074BCF
:10BB400053F82020002332F813408C42D8B203D897
:10BB50000133102BF7D1184610BD00BF10A50020EF
:10BB600013B501900F480EF0D5FB019980B2FFF795
:10BB7000E5FF04460C480EF0A9FBA0420FD20B488B
:10BB800000F0E4FD0A490B4822460BF0F9FB094896
:10BB900000F0DCFD084B0020187002B010BD012041
:10BBA000FBE700BF8AE3002078E300206D22070056
:10BBB0007F220700D5D50020F1D600202DE9F341E2
:10BBC0000121754E074622200FF085F84FF4FA70D8
:10BBD00018F06EFE3478002C7ED1704970480094C5
:10BBE00040F24C43422207F0D1FC054620B9002424
:10BBF000204602B0BDE8F08169484FF0020840F2EB
:10BC00004C42012186F8008007F0DAFA654E002FD9
:10BC100057D040F24C4322460121614807F048FBCF
:10BC200040F24C43424601215D4807F041FB40F29F
:10BC30004C43062201215A4807F03AFB01221146E3
:10BC400040F24C43564807F033FB40F24C4303228A
:10BC50000121534807F02CFB40F24C430422012100
:10BC60004F4807F025FB40F24C4305224C48012188
:10BC700007F01EFBF37A40F24C42E3B1052148483D
:10BC800007F0E5FC464840F24C432246012107F00C
:10BC9000E5FB434840F24C4107F098FA737A023BC7
:10BCA000012B02D8F47A002CA2D1002122200FF01F
:10BCB00012F82C469CE74FF4FA71394807F008FD5A
:10BCC000E7E740F24C424FF0FF31354807F09EFA6B
:10BCD000FA2018F0EDFDE1E70025304930480095E5
:10BCE00040F24C43422207F051FC044600283FF446
:10BCF0007EAF40F24C420121294807F061FA40F240
:10BD00004C432A460121264807F0D2FA40F24C4320
:10BD100002220121224807F0CBFA40F24C430622CE
:10BD200001211F4807F0C4FA0122114640F24C439A
:10BD30001B4807F0BDFA40F24C430322012118488A
:10BD400007F0B6FA40F24C4304220121144807F0F0
:10BD5000AFFA40F24C4305221148012107F0A8FA3E
:10BD6000104BDB7A40F24C4283B105210C4807F0BE
:10BD70006EFC0B4840F24C432A46012107F06EFB53
:10BD800040F24C41064807F021FA31E74FF4FA71CE
:10BD9000034807F09DFCF3E744D70020ACE3002004
:10BDA00074D7002018A300202DE9F04FDFF80C8392
:10BDB000A94FAA4CAA4DDFF80893AA4E8BB00023D6
:10BDC00000220021C8E90023C7E900234FF0000A40
:10BDD0001C2203A82970C9F8001021700291C6F82E
:10BDE00000A00AF06DFDA04902A80BF000FB9F4BDC
:10BDF0009F48DB7AA34640F24C41002B66D007F007
:10BE000030FDC117C8E9000140F24C41984807F0E5
:10BE10000DFDC117C7E9000140F24C41944807F0FD
:10BE20003BFD40F24C41C9F80000914807F08FFCFF
:10BE300007EE900AF8EE677A40F24C418C48C6ED66
:10BE4000007A07F0D8FC40F24C412070884807F097
:10BE500096FC012829D1874902A80BF0C8FA96ED73
:10BE6000007ADFED857AB4EEE77AF1EE10FA05D5C7
:10BE70007A4B1B78052B01D901232B702B7803F00B
:10BE8000FF04002B00F0D280D7E900E31A46D8F86F
:10BE90000430D8F800C01A434CEA0E00114650EAAC
:10BEA000010378D100242C70AAE0022801D1734943
:10BEB000D2E7032801D17249CEE7042801D17149A4
:10BEC000CAE705280CBF70496749C5E707F074FC4D
:10BED0000028D3D0012124200EF0FDFE644840F25A
:10BEE0004C4107F04CFC044600283DD15E4902A8B5
:10BEF0000BF07DFA5E4840F24C4107F07CFC634B4E
:10BF00008BF800001A78904242D1614A13780133CD
:10BF10001370022CB2D95E4B1B78012BAED90123D2
:10BF200040F24C4152482B7007F09BFCC117C8E906
:10BF3000000140F24C414E4807F078FCC117C7E9B8
:10BF4000000140F24C414A4807F0A6FC40F24C4147
:10BF5000C9F80000464807F0FAFB07EE900AF8EE31
:10BF6000677AC6ED007A89E7012801D14949BEE721
:10BF7000022801D14849BAE7032801D14749B6E769
:10BF8000042801D13F49B2E70528B3D13E49AEE7C5
:10BF900088BF1870BDE7354B304D5B7A032B33D12A
:10BFA0003F4B40481B6872461BB2614601F030FFB0
:10BFB000D8E9000144F022FF25A3D3E9002345F08E
:10BFC00075F845F041FA384B1860D7E9000144F0A4
:10BFD00015FF1FA3D3E9002345F068F845F034FAB4
:10BFE000324B32681860324B1A604FF47A72D9F8CB
:10BFF000003093FBF2F32F4A13602F4B2A781A700C
:10C0000020460BB0BDE8F08FD9F8003096ED000A5D
:10C0100024484FF47A7193FBF1F395F900100091E5
:10C020001BB27246614601F027FEC1E71E4BC3F802
:10C0300000A01E4BC3F800A01D4B4FF07E521A60AB
:10C040001C4B1C601C4B1C702DE700BFAFF3008025
:10C0500000000000D012634168D70020F8D800200B
:10C0600059D7002038D700208D22070018A30020C0
:10C0700074D700209422070000009643A3220700F3
:10C08000AF220700BB220700C422070070D70020A0
:10C0900071D70020CD220700D7220700DE2207003B
:10C0A000E8D60020C4D5002050D7002054D7002067
:10C0B00048D700204CD7002058D7002060D7002058
:10C0C0003CD700202DE9F041012186B023200EF05D
:10C0D00002FEFFF769FE6B4F6B4E0446002800F02E
:10C0E0009C806A4BD97A11B922200EF0F4FD684B7E
:10C0F000002264201A7018F0DBFB664803210EF062
:10C1000062FA3B78002B36D0634B1B78002B32D180
:10C1100000F07AFB614800F019FB614B1868614B35
:10C120001D68614BD3F8008044F03EFE02460B468A
:10C130002846CDE90423CDF8088044F035FEDDE93A
:10C140000423CDE90001594959480BF019F9584821
:10C1500000F0FCFA574B1868574B1D7844F024FE4A
:10C16000EDB202460B465248544900950BF008F9CF
:10C170004F4800F0EBFA524B1B781BB95148012194
:10C180000EF0F7F85048DFF8588101F007FF80B251
:10C19000FFF7E6FC0546E0B14B4801F0FFFE0490D6
:10C1A000494801F0FDFE01240023CDE90043024689
:10C1B0000499464823460DF0DBFF38B988F80000A3
:10C1C000434A1368013313602C4604E088F80040AA
:10C1D000F6E788F800003B78002B49D0002C47D1C7
:10C1E0002D4B1B78002B43D100F00EFB304B1C7005
:10C1F000264BDB7A002B30D0364800F0A7FA364BBE
:10C200001A7862BB34882A4B2A20114694422ADDD0
:10C210001870013203F8011FF8E7304B32881B8891
:10C220009A42D8D3642018F043FB194B19481C706C
:10C230002B4B03211C700EF0C6F93D785DB1164BF7
:10C240001C78002CC7D1274919480BF0D0F81848A2
:10C2500000F07CFAB8E70124BDE72348CDE7234985
:10C2600013480BF08DF8124800F070FA00F002FB52
:10C270003388002101332320338006B0BDE8F0412C
:10C280000EF029BDCFD5002040D7002018A30020F4
:10C29000CCD5002031E3002020D70020E522070084
:10C2A00050D7002054D700204CD70020EF220700A1
:10C2B000D5D5002048D7002058D70020FF220700FE
:10C2C000F0D600208CE30020C4D5002069E30020D4
:10C2D000E8D6002029230700F8D8002042D7002004
:10C2E000F1D60020112307003F2307005223070047
:10C2F00010B5054C204602F0B5F82046034A044923
:10C30000BDE810400AF060BA74D7002090A1002068
:10C3100071EA02000020704738B590F833300446C7
:10C320000D4613B1406B0EF047FB94F83010606B74
:10C330000EF086FB606B802100F02DF8606B0368C7
:10C3400029461B689847606B0121BDE838400EF014
:10C3500083BB000010B5034B0360044607F094FB59
:10C36000204610BDC424070010B50446406B0EF0F3
:10C3700023FB606B02490EF033FB012010BD00BFB0
:10C38000801A060010B50446FFF7E4FF20460CF0C3
:10C390006DFD204610BD0368C9B21B6818472DE922
:10C3A000F84F90F83330044613B1406B0EF004FBA5
:10C3B000658AC5F180054FF0000A05EBD575FF27AA
:10C3C0006D10D146D0463E46A38A5FFA8AF1B1EBA2
:10C3D000D30F28DA4FF0000C638A5FFA8CF0984292
:10C3E0001CDA11FB03F30344A2689BB212F803E0CA
:10C3F000E26812F803B0F3450BD08E4228BF0E4618
:10C40000884538BF8846874228BF0746814538BFE0
:10C41000814602F803E00CF1010CDDE70EF0DBF8D9
:10C420000AF1010AD0E7FF2E57D0236821219B692A
:10C4300020469847236857FA85F19B69C9B2204680
:10C4400098475FFA85FA23680AEB09019B69C9B22C
:10C4500020469847236822219B69204698472368F5
:10C4600031469B6920469847236841469B69204690
:10C4700098470025B04529D3BA46CA4521D845B9C1
:10C4800094F83010606B0EF0DBFA606B4021FFF720
:10C4900082FFA268606B638A06FB0323026813F8BD
:10C4A0000A1012680135EDB29047102D04D1606B6F
:10C4B00001210EF0D1FA00250AF1010A5FFA8AFA89
:10C4C000DBE701360EF087F8F6B2D3E72DB1606BEB
:10C4D0000121BDE8F84F0EF0BFBABDE8F88F0000AB
:10C4E00038B51648164C0EF067FA4FF4FA7018F08B
:10C4F000DFF90125204684F8335007F07CFE204602
:10C5000007F02FFD204607F0AAFD204607F017FD93
:10C51000C821204607F06CFD204607F093FD40231C
:10C52000F1222046642107F02EFD0649204607F03F
:10C5300004FD2046FFF733FF284638BDACE300205A
:10C54000BCD90020E424070030B52DED028B044651
:10C5500097B04F480D464F4907F0EFFC4C4800217B
:10C5600007F09CFA00220B231146494800938023D0
:10C5700007F0ACFB4648012107F090FA444800213F
:10C5800007F0D9FC444B1B787BB1444B1B7863B15B
:10C590005DB1434906A80EF065F906AB00223C48A0
:10C5A000114607F065FE06A81AE03E4BDD7A002D25
:10C5B0002FD03D4B3D4918783D4A2346002808BFFF
:10C5C0000A463C4906A80AF0DBFE06A903A80EF0BD
:10C5D00049F900222E4803AB114607F049FE03A893
:10C5E0000EF0FAF84FF08043D3F8384414F0FF040B
:10C5F00016D0032C46D00B2200927F230021244822
:10C6000007F083FA2248FFF7CAFE17B0BDEC028B91
:10C6100030BD214606A80EF025F906AB2A46BEE736
:10C6200025489FED268A244C0DF08EFF0A252046D2
:10C630000DF08AFF013D38EE008AF8D1F2EE047A5F
:10C64000C8EE277A17EE900A44F0AEFB02460B467E
:10C6500006A81B490AF094FE82B206A90C4807F00E
:10C660004DFC06A9044603A80EF0FCF8C4F17F01B6
:10C67000074803AB002209B207F0FAFD03A80EF049
:10C68000ABF8B8E70F4906A80AF0B1FE2246E4E786
:10C69000BCD90020E42407002CDA0020D0D50020EB
:10C6A0005D23070018A3002059D70020859F0700AD
:10C6B000BE6207006B2307002DE30020000000008E
:10C6C0007123070077230700F0B51C481C4F1D4E4F
:10C6D0001A4D87B0002107F0E1F940230C221748DA
:10C6E00000930021802307F0F1FA1749134807F05F
:10C6F00024FC1248012107F0D1F91048002107F06D
:10C700001AFC00243B78A34213DD06EB441103A876
:10C710000EF0A8F804EB840252000C3203AB12B204
:10C720000021284607F0A4FD03A80EF055F80134B7
:10C73000E8E70248FFF733FE07B0F0BDBCD90020A0
:10C74000F9D80020FAD80020E424070070B5274C5F
:10C75000274D2278052A034638D105F120022946C3
:10C7600005F1400052F8046B41F8046B8242F9D1A4
:10C77000204AA2F1200102F1200052F8046B41F896
:10C78000046B8242F9D11C4AA2F1200102F120007F
:10C7900052F8046B41F8046B8242F9D1174AA2F1B6
:10C7A000200102F1200052F8046B41F8046B824230
:10C7B000F9D1134AA2F1200102F1200052F8046BD2
:10C7C00041F8046B8242F9D10422227020780D4A8C
:10C7D00005EB401020210AF09FFD2378052B1CBF9C
:10C7E00001332370BDE87040FFF76EBFF9D8002019
:10C7F000FAD800203AD900205AD900207AD900204E
:10C800009AD900200A7E070007B50B48002107F0DF
:10C8100045F9402300930C2280230748002107F0AC
:10C8200055FA0548012107F039F9044B00221A7026
:10C8300003B05DF804FB00BFBCD90020F9D800208C
:10C8400030B585B004460D4601A811460EF02CF80F
:10C8500004EB840252000C3201AB12B229460448A8
:10C8600007F006FD01A80DF0B7FF05B030BD00BF11
:10C87000BCD9002008B50248FFF791FD08BD00BFF4
:10C88000BCD9002070B504460B4D0C487CB107F0B4
:10C8900056FB01232B700A4B9B7A5BB1BDE87040BD
:10C8A000084800234EF6602202210DF082BE07F0F8
:10C8B00058FB2C7070BD00BF60A50020BCD90020C3
:10C8C00018A3002031E300200020FFF7DBBF0000A9
:10C8D0002DE9F04F89B015461C469DF848309DF86B
:10C8E0004CA0029180460193FFF78EFF012D6BD182
:10C8F0008C498D4C05A80DF0B5FF002105AA08460E
:10C90000FFF79EFF05A80DF067FF627A032A0FD894
:10C91000DFE802F002545658844905A80DF0A2FF42
:10C92000012005AA0021FFF78BFF05A80DF054FF99
:10C930004FF47A7362687E49B2FBF3F27D487E4D14
:10C940007E4C0AF01DFD7B4905A80DF08BFF05AA62
:10C9500000210220FFF774FF05A80DF03DFFBAF19A
:10C96000000F14BF2A462246754972480AF008FD96
:10C97000704905A80DF076FF05AA00210320FFF7F6
:10C980005FFF05A80DF028FF019B6E49002B14BF27
:10C990002A46224667480AF0F3FC664905A80DF0CE
:10C9A00061FF05AA00210420FFF74AFF05A80DF04A
:10C9B00013FFFFF75FFF09B0BDE8F08F6249ACE7F6
:10C9C0006249AAE76249A8E7062D2BD1554905A877
:10C9D0000DF048FF002105AA0846FFF731FF05A822
:10C9E0000DF0FAFE5B4905A80DF03CFF05AA0021F9
:10C9F0000120FFF725FF05A80DF0EEFE564905A81A
:10CA00000DF030FF05AA00210220FFF719FF05A84D
:10CA10000DF0E2FE444B51495A684FF47A73B2FB71
:10CA2000F3F2B7E7072D60D13E4905A80DF01AFFD4
:10CA3000002105AA0846FFF703FF05A80DF0CCFE6C
:10CA4000474905A80DF00EFF05AA00210120FFF7B8
:10CA5000F7FE05A80DF0C0FE424905A80DF002FF43
:10CA6000022005AA0021FFF7EBFE05A80DF0B4FE99
:10CA7000002C35D0631E0C2CDBB233D0651CEDB21C
:10CA8000394E2C4856F823100AF0B1FC294905A864
:10CA90000DF0E8FE05AA40210220FFF7D1FE05A80F
:10CAA0000DF09AFE56F82420304922480AF068FC1E
:10CAB000204905A80DF0D6FE402105AA0320FFF766
:10CAC000BFFE05A80DF088FE56F8251019480AF09B
:10CAD0008EFC184905A80DF0C5FE05AA402162E7A5
