:020000022000DC
:107000000000042021930300499303004B930300E5
:107010004D9303004F9303005193030000000000C1
:107020000000000000000000000000005393030077
:107030005593030000000000000000000000000065
:107040003182050057930300B1A0050009880500AF
:1070500057930300717E0500497C050061640600BA
:1070600057930300498705005D8705005793030088
:10707000579303005793030057930300579303005C
:1070800065710600495405005793030057930300A8
:107090005793030057930300E95A060057930300E0
:1070A00057930300579303007187050085870500F8
:1070B00057930300579303000000000000000000F6
:1070C0005793030057930300579303009D690600ED
:1070D000618405005793030057930300C19D050089
:1070E000399E06005793030079C506000000000092
:1070F0000000000057930300000000006D6D0600C3
:10710000000000000000000000000000000000007F
:10711000000000000000000000000000000000006F
:10712000000000000000000000000000000000005F
:10713000000000000000000000000000000000004F
:10714000000000000000000000000000000000003F
:10715000000000000000000000000000000000002F
:10716000000000000000000000000000000000001F
:10717000000000000000000000000000000000000F
:1071800000000000000000000000000000000000FF
:1071900000000000000000000000000000000000EF
:1071A00000000000000000000000000000000000DF
:1071B00000000000000000000000000000000000CF
:1071C00000000000000000000000000000000000BF
:1071D00000000000000000000000000000000000AF
:1071E000000000000000000000000000000000009F
:1071F000000000000000000000000000000000008F
:1072000010B5054C237833B9044B13B10448AFF3E0
:1072100000800123237010BD60D500200000000015
:107220005805080008B5034B1BB103490348AFF3E9
:10723000008008BD0000000064D50020580508004B
:10724000154B002B08BF134B9D46A3F5803A002138
:107250008B460F461348144A121A0FF0C1FC0F4B0D
:10726000002B00D098470E4B002B00D098470020F1
:10727000002104000D000D48002802D00C48AFF397
:1072800000800FF05DFC200029000FF0E3F90FF003
:1072900043FC00BF000008000000042000000000C4
:1072A0000000000060D500203CC501200000000067
:1072B000000000000022C0E900220172704738B5CA
:1072C0000446006820B1856911F060FF2846F9E79F
:1072D000204638BD006820B143688B4201D08069E8
:1072E000F9E77047F8B504460F4616461D46FFF706
:1072F000F1FF20B10123826005704370F8BD1C20AE
:1073000011F048FF012343700023C0E90333C0E9B3
:10731000053323680570C0E9017613B92060606009
:10732000ECE763689861FAE72DE9F8430468164FC3
:1073300005460E464FF000081CB363680BB9A469FC
:10734000FAE72378002BFAD0E368A268F31A9A428E
:1073500002D961780029F2D09B1A636184F8018018
:10736000E66013F059FE63688146984713F054FEB7
:107370003B68A0EB0900206118442B7A3860002B91
:10738000DDD0BDE8F88300BF7CD50020024B1A7821
:107390000AB901221A707047D0D60020034B044866
:1073A00009221A700121FA2213F093BA80D5002025
:1073B00011E3002008B5074B50B103221A700648AC
:1073C000FA22012113F085FA044B00221A7008BD3D
:1073D0000522F3E780D5002011E30020D1D600205C
:1073E000054B064800221A70054B08221A7001212D
:1073F000FA2213F06EBA00BFD1D6002011E30020AC
:1074000080D5002084B004AB03E907000B4BBDF925
:107410000A201A800A4B9DF90C201A70094A0A4862
:10742000136801331360094B00221A70084B0121C5
:10743000FA22197004B013F04CBA00BFB2D5002084
:10744000B4D50020C8D6002011E30020D1D60020FA
:1074500080D500202DE9FF47DFF8C0A2974D984E58
:10746000DFF8BC82012700232F7033709AF80930AF
:10747000023BBB42544600F25581924806F01BFF86
:107480009AF80B30002B00F0CC808F4A98F800302F
:1074900011789146002940F0AB8083B18B4B1B786B
:1074A0006BB905F009FB9AF80930022B0CBF88482C
:1074B0008848394605F0A0F9874805F09FFA04F09E
:1074C000C7FD10B3854B1B781BB98548012113F00C
:1074D000E0F8B4F88E0004F097FC002800F08C81EE
:1074E000784806F0EBFE0390764806F0E9FE0124AA
:1074F0000023CDE900437B4B03991B7802467A4871
:1075000012F0C6FF00286ED15FE0784A117809BBFF
:10751000774B1B7803F0FF07E3B90123694889F82B
:10752000003006F0C8FE734B73481F8041F288326A
:107530006368B3FBF2F3714A1380714B1F70714B98
:1075400040F6C4121F7003213B4604B0BDE8F0476B
:1075500013F0BFB90023137098F800304BB15B4BA8
:107560001B7833B96849694810F0D1F8674805F0CD
:1075700045FA637A032B2BD1654B52481B680022D6
:107580001BB2114606F0D4FD544B1B781BB954486E
:10759000012113F07EF8B4F88E0004F035FC0028C9
:1075A00000F02A81474806F089FE0390454806F01E
:1075B00087FE01240023CDE900434A4B03991B7841
:1075C0000246494812F064FF60B9287034700AE03E
:1075D00000230093B7EE000A1A461946394806F010
:1075E000DBFCD1E72C704A4A13680133136003E1D6
:1075F000002B00F00181354B1B78002B40F0FC8004
:1076000005F05AFA9AF80930022B0CBF304831487D
:10761000394605F0F1F83F4804B0BDE8F04705F001
:10762000EDB998F8003083B1284B1B786BB905F0A1
:1076300043FA9AF80930022B0CBF254825483946F1
:1076400005F0DAF8344805F0D9F9637A032B2BD129
:107650002F4B1C481B6800221BB2114606F068FD28
:107660001E4B1B781BB91E48012113F012F8B4F809
:107670008E0004F0C9FB002800F0BE80114806F01F
:107680001DFE03900F4806F01BFE01230021CDE9EB
:107690000031144B03991B780246134812F0F8FE90
:1076A0000028A0D128709EE700230093B7EE000ABF
:1076B0001A461946034806F06FFCD1E7D1D60020E0
:1076C000D8A30020A4D50020ACD5002000D70020EE
:1076D000181B0700281B0700391B0700D0D6002005
:1076E0006CE3002094A1002049E30020A2D50020F3
:1076F00081D5002020D7002011E3002022D70020D0
:1077000050D7002051D70020541B0700B5D50020CA
:10771000C8D600206A1B07007E1B070004A30020B8
:10772000AFD5002098F8003073B13D4B93F800803E
:10773000B8F1000F08D105F0BFF93A48394605F015
:107740005BF8394B83F80080384806F0B4FD3848C0
:1077500012F0AEFF0746002851D0364812F032FF33
:10776000002846D00121242013F045FC324B1B7821
:1077700013B3324805F042F9314B1B781BB931483D
:10778000012112F086FFE77AEFB104F061FC70B9D5
:107790009FED2D0A2D4B83ED000A2D4B024683ED04
:1077A000000A014600900346204806F0F5FB1F48FA
:1077B00006F084FD80B28EE61B4B1B780BB125488A
:1077C000D8E72548D6E7B4F88E0004F01DFB98B141
:1077D0000197224B224A2348012700971B7894F8EF
:1077E0008E1012F055FE00287FF4FDAE2870377021
:1077F000F9E601232870337004B0BDE8F087012159
:10780000232013F0F8FB144805F0F8F83B46144A1F
:1078100094F88E10144812F0E6FD01232B70E2E676
:1078200000D700208A1B0700A2D50020A4D5002085
:107830006DE3002054E3002081D500209B1B07004E
:10784000D0D600206CE300200000000034D70020D8
:1078500030D70020AC1B0700BB1B070094A1002001
:1078600010A3002049E300206EE300200000000088
:107870002DE9F04F824B1A78012A8FB0054636D198
:10788000022203A81A702BF073FD7E4B039893F924
:1078900091307D4C4FF46162123802FB030005A960
:1078A0002BF0DAFD0A9B03F26C739BB22380099BD9
:1078B0000133DBB2A3709DF8203023719DF81C309A
:1078C00063719DF81830A3719DF81430E3716F4B0C
:1078D0001B7863B12088A17822796379A679E4794D
:1078E00080B2CDE9006405F097FE05F0DBFE0021D3
:1078F000242013F080FB0021232013F07CFB002DBB
:1079000001F0D4812B78013B072B01F21C82DFE8C8
:1079100013F008004C015B02B6027304FF04C907B0
:10792000C30905F075FD5A4B1B78002B37D0574B18
:107930001B78002B00F09C8005F0B4FE524A554B9A
:10794000118889B219809178C9B299701179C9B238
:10795000D9705179C9B219719179C9B25971D27975
:107960004D49D2B29A710122DA7100221A72096865
:10797000D9604A490968196149491A755A750988CF
:1079800049B2D9754749097849B219765A839A8319
:10799000DA83454A126812B21A8406F0FBF8434BA8
:1079A0001B78002B01F08281414B1C78002C41F0A8
:1079B0007D81404940480FF0AAFE3F4905A813F0D9
:1079C000E1F805AA2146204605F092F805A813F033
:1079D00093F83A4B3A491A6837480FF061FE364936
:1079E00005A813F0CFF805AA2146012005F080F87C
:1079F00005A813F081F8334812F08FFC49F042FBE0
:107A00001DA3D3E9002349F0E1FC0B4602462E49B1
:107A100029480FF045FE284905A813F0B3F805AA38
:107A20002146022005F064F805A813F065F8274800
:107A300012F084FC264902461F480FF031FE1E4911
:107A400005A813F09FF805AA2146032005F050F879
:107A500005A813F051F81F4812F081FC092800F224
:107A6000A280DFE800F0398E90929496989A9C9EBE
:107A700005F03CFE62E700BF0000000080842E415C
:107A8000D0D6002004A30020D4D90020DCD90020C7
:107A9000B0D50020A4A1002030D7002034D700208A
:107AA000B2D50020B4D50020C4D60020AFD5002028
:107AB00000D70020CD1B0700B5D50020C8D6002078
:107AC000DB1B070079E30020EF1B07007AE30020AF
:107AD0005A2807007BE30020874903A80FF017FE10
:107AE000864812F03CFC864B864953F82020864895
:107AF0000FF0D6FD844905A813F044F805AA4021EB
:107B0000032004F0F5FF05A812F0F6FF7F4812F0FD
:107B100037FC7F49421D7C480FF0C2FD7A4905A819
:107B200013F030F805AA4021022004F0E1FF05A877
:107B300012F0E2FF774B78491A88734812B20FF0BF
:107B4000AFFD714905A813F01DF805AA0021042016
:107B500004F0CEFF05A812F0CFFF704B70491A78E1
:107B600052B269480FF09CFD674905A813F00AF866
:107B700005AA4021042004F0BBFF05A812F0BCFFB9
:107B800016E36849A9E76849A7E76849A5E768498E
:107B9000A3E76849A1E768499FE768499DE7684905
:107BA0009BE7684999E7684997E705F031FC674B1F
:107BB00000221A70664B1B78002B35D0654B1B7862
:107BC000002B6BD005F06EFD634B644C1A88644843
:107BD00092B222809A78D2B2A2701A79D2B2E270AE
:107BE0005A79D2B222719A79D2B26271DB795D4A46
:107BF000DBB2A3710023E37123721268E2605A4A78
:107C00001268226123756375E37523766383A3830A
:107C1000E383564B1B681BB2238412F0E7FC40B28F
:107C200084F8220005F0B6FF514B1B78002B01F0C1
:107C30003D80504B1C78002C41F038804E49324832
:107C40004E4D0FF064FD304905A812F09BFF05AAC8
:107C50002146204604F04CFF05A812F04DFF2A688B
:107C6000474929480FF01CFD274905A812F08AFF53
:107C700005AA2146022004F03BFF05A812F03CFFB4
:107C80002B68013B0F2B35D8DFE803F00B16181AD1
:107C90001C1E20222426282A2C2E303205F026FDF8
:107CA00092E7384918480FF032FD174905A812F03D
:107CB00069FF05AA00215DE73349F3E73349F1E79E
:107CC0003349EFE73349EDE73349EBE73349E9E778
:107CD0003349E7E73349E5E73349E3E73349E1E788
:107CE0003349DFE73349DDE73349DBE73349D9E798
:107CF0003349D7E73349D5E7F61B07007BE300207C
:107D00007CA200202C1C0700B5D500207CE30020BD
:107D100073280700B2D50020C51D0700B4D5002088
:107D2000D01D0700FA1B0700FE1B0700021C0700FE
:107D3000061C07000B1C0700111C0700171C07007E
:107D40001D1C0700231C0700281C0700D1D600209B
:107D5000B0D50020DCD90020D4D90020A4A1002077
:107D600058E3002030D7002034D70020C4D60020AC
:107D7000AFD5002000D70020321C0700D4D6002049
:107D8000411C07004B1C0700591C0700641C07001E
:107D9000701C07007C1C0700861C0700901C070055
:107DA0009C1C0700B01C0700C31C0700D31C070065
:107DB000E01C0700EA1C0700FA1C0700081D07006A
:107DC000141D0700251D070005F022FBA24B1B78A0
:107DD000002B00F06B87A14B1E78002E40F06687C9
:107DE0009F4C657A022D41D0032D46D05DB99D4947
:107DF00005A812F0C7FE05AA2946084604F078FE39
:107E000005A812F079FE4FF47A7362689649B2FBC6
:107E1000F3F296480FF044FC944905A812F0B2FE24
:107E200005AA0021012004F063FE05A812F064FEFB
:107E30008F4905A812F0A6FE002105AA022004F031
:107E400057FE05A812F058FE8A4988480FF05FFCDB
:107E5000864905A812F096FE002105AA032004F029
:107E600047FE05A812F048FE81491FE7824905A890
:107E700012F088FE05AA3146BFE78049F7E705F012
:107E8000C7FA7F4B1B78002B45D07E4B1B78002B0D
:107E900000F0DE8005F006FC7B4B7C4C1A887C48A9
:107EA00092B222809A78D2B2A2701A79D2B2E270DB
:107EB0005A79D2B222719A79D2B26271DB79754A5B
:107EC000DBB2A3710023E3711278D2B22272724A3C
:107ED0001268E260714A12682261714A118849B2DF
:107EE0002175118849B26175128852B2E2756D4AE6
:107EF000127852B222766383A3836B4B1B78E383A1
:107F00006A4B1B681BB2238412F070FB40B284F8EA
:107F1000220005F03FFE504B1B78002B00F0C68678
:107F20004E4B1C78002C40F0C186614D614B297886
:107F3000614A4E485D4FDFF8A481002918BF1A46F8
:107F40005E490FF0ADFB494905A812F01BFE05AADA
:107F50002146204604F0CCFD05A812F0CDFD2B787B
:107F600003F0FF06002B40F0BB804F4B54491A78BA
:107F70003E480FF095FB3D4905A812F003FE05AA07
:107F80003146012004F0B4FD05A812F0B5FD4048CB
:107F900012F02CFB4B49024634480FF081FB334969
:107FA00005A812F0EFFD05AA3146022004F0A0FD5D
:107FB00005A812F0A1FD374B43491A782B480FF062
:107FC0006FFB2A4905A812F0DDFD05AA4021022019
:107FD00004F08EFD05A812F08FFDD8F800203B4973
:107FE00022480FF05DFB214905A812F0CBFD05AA40
:107FF0003146032004F07CFD05A812F07DFD3A68AF
:1080000033491A480FF04CFB184905A812F0BAFD85
:1080100005AA4021032004F06BFD05A812F06CFDB9
:108020001F4B2C491A88114812B20FF039FB0F4927
:1080300005A812F0A7FD05AA3146042004F058FD5A
:1080400005A812F059FD174B23491A7852B288E55A
:1080500005F04CFB20E700BFAFD5002000D7002083
:1080600004A30020331D0700671D0700B5D50020BD
:108070001BC70700901C0700421D0700531D070087
:10808000B0D50020DCD90020D4D90020A4A1002044
:1080900058E30020B6D6002030D7002034D7002087
:1080A000B2D50020B4D50020B5D60020C4D600201B
:1080B000B7D60020C91B07000E1F07007B1D070055
:1080C0008C1D0700A01D0700A91D0700B21D070099
:1080D000BA1D0700C21D0700CD1D0700C8D600202D
:1080E000D8F800206A496B480FF0DAFA694905A808
:1080F00012F048FD05AA2146012004F0F9FC05A86C
:1081000012F0FAFC3A68644962480FF0C9FA614912
:1081100005A812F037FD05AA4021012004F0E8FC73
:1081200005A812F0E9FC2A785C495A480FF0B8FA21
:10813000584905A812F026FD05AA2146022004F0A0
:10814000D7FC05A812F0D8FC2B78013B0F2B51D897
:10815000DFE803F008323436383A3C3E40424446C9
:10816000484A4C4E4E494B480FF0D1FA494905A8B0
:1081700012F008FD05AA0021032004F0B9FC05A8AF
:1081800012F0BAFC474812F031FA4749024641481A
:108190000FF086FA3F4905A812F0F4FC05AA002169
:1081A000042004F0A5FC05A812F0A6FC04F0BAFC1B
:1081B00004F0B8FC00F07ABD3C49D4E73C49D2E772
:1081C0003C49D0E73C49CEE73C49CCE73C49CAE7CB
:1081D0003C49C8E73C49C6E73C49C4E73C49C2E7DB
:1081E0003C49C0E73C49BEE73C49BCE73C49BAE7EB
:1081F0003C49B8E73C49B6E705F00AF93B4B1B7828
:10820000002B00F053853A4B1E78002E40F04E852F
:10821000384C657A022D31D0032D36D05DB9364900
:1082200005A812F0AFFC05AA2946084604F060FC38
:1082300005A812F061FC4FF47A7362682F49B2FB13
:10824000F3F214480FF02CFA124905A812F09AFC28
:1082500005AA0021012004F04BFC05A812F04CFCFB
:10826000274905A812F08EFC002105AA022004F07F
:108270003FFC05A812F040FC2249E6E5224905A88A
:1082800012F080FC05AA3146CFE72049F7E700BF8E
:10829000B21D0700B5D50020BA1D0700D71D070085
:1082A0004B1C070058E30020EC1D0700591C070079
:1082B000641C0700701C07007C1C0700861C07005C
:1082C000901C07009C1C0700B01C0700C31C070083
:1082D000D31C0700E01C0700EA1C0700FA1C07007B
:1082E000081D0700141D0700251D0700AFD500203D
:1082F00000D7002004A30020331D0700671D0700DE
:108300001BC70700F51D0700421D0700531D07008E
:10831000984F05F07DF87B7A9749032B974B40F0F7
:108320005F811A785E78DD781C7993F8028093F883
:1083300005A093F907B00B7806EB0226C5EB4510B4
:10834000B6B20A22B6FBF2F207EE902A05EB8005E0
:10835000C4EB44108A4AF8EEE77A04EB800408F193
:1083600038086D006400C2ED007A4FFA88F82DB22B
:1083700024B24FEA2A1A9146002B41D0814B1B7838
:10838000002B00F0E28005F08DF97F4A7F4B1188C9
:108390007F4889B219809178C9B299701179C9B2B0
:1083A000D9705179C9B219719179C9B25971D2791B
:1083B000D2B29A710322DA715FFA8AF21A72754A9E
:1083C0001268DA60744A12681A610021734A1975DA
:1083D00083F8158083F816B0128852B2DA75704AA5
:1083E000127836B252B21A765D839C83D9831E848A
:1083F00012F0FCF8654B40B283F8220005F0CAFB8E
:10840000684B1B78002B00F05184674B1B78002BC6
:1084100040F04C8404F050FB7B7A022B0CBF634885
:108420006348012104F0E8F95D4B62491A785B4B1F
:1084300061481B8852B21BB20FF032F95E4905A8A1
:1084400012F0A0FB0021084605AA04F051FB05A884
:1084500012F052FB43465A46584957480FF020F94C
:10846000554905A812F08EFB05AA0021012004F051
:108470003FFB05A812F040FB524651494E480FF011
:108480000FF94D4905A812F07DFB05AA0021022035
:1084900004F02EFB05A812F02FFB4A4905A812F0A4
:1084A00071FB05AA3221022004F022FB05A812F07C
:1084B00023FB454905A812F065FB05AA50210220BF
:1084C00004F016FB05A812F017FB404905A812F0AE
:1084D00059FB05AA0021032004F00AFB05A812F0AD
:1084E0000BFBFE7A3A4F002E32D02A4639493248E9
:1084F0000FF0D6F8304905A812F044FB05AA322146
:10850000032004F0F5FA05A812F0F6FA31492A48DA
:1085100022460FF0C5F8284905A812F033FB05AA3A
:108520005021032004F0E4FA05A812F0E5FAD9F886
:1085300000003C6848F0C8FD009402460B461E4807
:1085400025490FF0ADF8FFF7B0BB05F0CFF81CE7F9
:10855000224919480FF0DBF8174905A812F012FB61
:1085600005AA3221032004F0C3FA05A812F0C4FAC8
:10857000D1E700BF04A30020B0D5002082D50020A1
:10858000CCD60020DCD90020D4D90020A4A1002022
:1085900058E3002030D7002034D70020B2D5002087
:1085A000B4D50020AFD5002000D70020181B07004D
:1085B000281B07000B1E0700B5D50020221E070050
:1085C000391E0700441E0700481E07004C1E070006
:1085D000C8D600209D1D0700551E07006A1E070013
:1085E000DD7893F801809E7893F805A0C5EB4512DD
:1085F00005EB82051A790B78C2EB421902EB890967
:10860000A8F1C808C83E6D004FEA49091FFA88F86A
:10861000B6B22DB20FFA89F9002B42D0894B1B78E4
:10862000002B00F0FB8005F03DF8874B874C1A8843
:10863000874892B222809A78D2B2A2701A79D2B2C6
:10864000E2705A79D2B222719A79D2B26271DB7930
:10865000DBB2A3710223E3717E4B84F808A01B6890
:10866000E3607D4B1B6823614FFA88F3237573B277
:1086700063757A4B1B885BB2E375794B1B785BB2F1
:10868000237600236583A4F81C90E383754B1B6855
:108690001BB2238411F0AAFF40B284F8220005F037
:1086A00079FA714B1B78002B00F000836F4B1B781D
:1086B000002B40F0FB8204F0FFF97B7A022B0CBF09
:1086C0006B486C48012104F097F8654B6A491A78A9
:1086D000624B6A481B8852B21BB20EF0E1FF674939
:1086E00005A812F04FFA0021084605AA04F000FA86
:1086F00005A812F001FA4FFA8AF261495F480EF0BC
:10870000CFFF5E4905A812F03DFA05AA002101201D
:1087100004F0EEF905A812F0EFF95A4905A812F095
:1087200031FA05AA3221012004F0E2F905A812F07D
:10873000E3F9554905A812F025FA05AA50210120B0
:1087400004F0D6F905A812F0D7F9504905A812F09F
:1087500019FA05AA0021022004F0CAF905A812F0AE
:10876000CBF94B4905A812F00DFA05AA0021032008
:1087700004F0BEF905A812F0BFF90FFA88F24549D6
:108780003E480EF08DFF3D4905A812F0FBF905AA01
:108790003221022004F0ACF905A812F0ADF932B292
:1087A0003C4936483C4E0EF07BFF344905A812F098
:1087B000E9F905AA3221032004F09AF905A812F07C
:1087C0009BF9FC7A274F64B32A4632492B480EF0B6
:1087D00067FF2A4905A812F0D5F905AA5021022001
:1087E00004F086F905A812F087F92A4923484A4679
:1087F0000EF056FF214905A812F0C4F905AA502130
:10880000032004F075F905A812F076F93A682349B7
:1088100033681A480EF044FFFFF747BA04F066FFCA
:1088200003E71F4915480EF072FF144905A812F01E
:10883000A9F905AA5021022004F05AF905A812F05E
:108840005BF9D7E7DCD90020D4D90020A4A100200F
:1088500058E3002030D7002034D70020B2D50020C4
:10886000B4D50020C4D60020AFD5002000D700200A
:10887000181B0700281B07000B1E0700B5D500209A
:10888000391E0700567307004C1E0700441E0700E0
:10889000481E07009D1D0700C8D600206D1E07005A
:1088A0006A1E070004F0B4FD9F48042112F01BF873
:1088B0009E4B1B78002B37D09D4B1B78002B00F074
:1088C000ED8004F0EFFE9B4B9B4C1A889B4892B2C4
:1088D00022809A78D2B2A2701A79D2B2E2705A7912
:1088E000D2B222719A79D2B26271DB79944ADBB248
:1088F000A3710223E371002323721268E260914A9C
:108900001268226123756375E37523766383A383FD
:10891000E3838D4B1B681BB2238411F067FE40B2CA
:1089200084F8220005F036F9884B1B78002B00F004
:10893000BD81874B1B78002B40F0B881854D864C5C
:1089400004F0BAF86B7A032B0CBF844884480121E9
:1089500003F052FF834984480EF0D9FE824905A8EE
:1089600012F010F90021084605AA04F0C1F805A884
:1089700012F0C2F87D4B1E78002E00F071817C4F02
:10898000DFF8C4914FF0000883F800803B7803F0D3
:10899000FF06002B40F08580764B77491A787248A5
:1089A0000EF07EFE704905A812F0ECF805AA3146DB
:1089B000012004F09DF805A812F09EF85F4811F020
:1089C00015FE6E49024668480EF06AFE664905A823
:1089D00012F0D8F805AA3146022004F089F805A85B
:1089E00012F08AF8664B67491A785F480EF058FE15
:1089F0005D4905A812F0C6F805AA4021022004F03E
:108A000077F805A812F078F822685F4956480EF00A
:108A100047FE554905A812F0B5F805AA31460320CE
:108A200004F066F805A812F067F8D9F80020574955
:108A30004D480EF035FE4C4905A812F0A3F805AAE2
:108A40004021032004F054F805A812F055F8504BCB
:108A500050491A88444812B20EF022FE424905A835
:108A600012F090F805AA3146042004F041F805A858
:108A700012F042F8484B49491A783B4852B20EF07E
:108A80000FFE394905A812F07DF805AA40210420FF
:108A900004F02EF805A812F02FF8A9E004F026FE45
:108AA00011E72268384930480EF0FAFD2E4905A832
:108AB00012F068F805AA4146012004F019F805A84B
:108AC00012F01AF8D9F80020304927480EF0E8FDD6
:108AD000254905A812F056F805AA4021012004F006
:108AE00007F805A812F008F83A782D491E480EF04C
:108AF000D7FD1D4905A812F045F805AA41460220F8
:108B000003F0F6FF05A811F0F7FF3B78013B0F2BB0
:108B100000F2A480DFE803F0468486888A8C8E9079
:108B2000929496989A9C9EA011E30020B0D50020C4
:108B3000DCD90020D4D90020A4A1002058E30020D3
:108B400030D7002034D70020C4D60020AFD5002075
:108B500000D7002004A30020C8D60020811E0700F3
:108B6000181B0700921E0700B5D50020AED50020C7
:108B7000B7D60020B5D600208C1D0700A01D070029
:108B8000B6D60020A91D0700B21D0700BA1D0700B8
:108B9000B2D50020C21D0700B4D50020CD1D0700AE
:108BA000D71D0700714972480EF0B1FD704905A844
:108BB00011F0E8FF05AA0021032003F099FF05A8A2
:108BC00011F09AFF6B4811F011FD6B49024668489D
:108BD0000EF066FD664905A811F0D4FF05AA002134
:108BE000042003F085FF05A811F086FF03F09AFF2B
:108BF0006B7A032B48D1614B1868246848F064FAFB
:108C0000009402460B465A485D490EF049FD58490A
:108C100005A811F0B7FF05AA00210520FEF7ABBF9C
:108C20005849C0E75849BEE75849BCE75849BAE730
:108C30005849B8E75849B6E75849B4E75849B2E740
:108C40005849B0E75849AEE75849ACE75849AAE750
:108C50005849A8E75849A6E75849A4E75849A2E760
:108C6000584905A811F08EFF05AA3146022003F0ED
:108C70003FFF05A811F040FF534905A811F082FFFE
:108C800005AA3146032003E7504B51491A6838487A
:108C900023680EF005FDBAE704F0BAFB4D4B5C7A91
:108CA0003CB1012C2AD04C4B00221A700FB0BDE809
:108CB000F08F03F001FF4948012103F09DFD484971
:108CC00005A811F05FFF05AA2146204603F010FF1A
:108CD00005A811F011FF434925480EF018FD24495D
:108CE00005A811F04FFF05AA2146032003F000FF5D
:108CF00005A811F001FF03F015FFD4E73A4B1B78EC
:108D0000002BD0D0394B1D78002DCCD103F0D4FEF0
:108D10003248214603F070FD354905A811F032FFB5
:108D200005AA2946284603F0E3FE05A811F0E4FE53
:108D30002C490F480EF0EBFC0D4905A811F022FF5D
:108D400005AA2946D1E7284B1B78002BAED0274B2C
:108D50001C78002CAAD103F0AFFE264905A811F01B
:108D600011FF05AA21462046FEF705BF4B1C070050
:108D7000B5D5002058E30020EC1D0700CCD600201C
:108D8000551E0700591C0700641C0700701C0700D3
:108D90007C1C0700861C0700901C07009C1C070019
:108DA000B01C0700C31C0700D31C0700E01C070011
:108DB000EA1C0700FA1C0700081D0700141D070025
:108DC000251D0700A71E0700BB1E0700C4D60020F4
:108DD0006D1E070004A30020D1D600208A1B0700C7
:108DE000331D0700CF1E0700AFD5002000D700209D
:108DF000CD1B0700DB1E070010B5044605F054FA32
:108E0000204610BD0F4BB0B100221A700E4B0F4A16
:108E100018600F4B11685B7A023B012B01F10101D5
:108E20000C4B116094BF072202221A700A48FA22E2
:108E3000012111F04EBD1B7813B1064B0822F4E757
:108E4000704700BFD1D60020D4D60020C4D6002061
:108E500004A3002080D5002011E30020174B00223E
:108E60001A70174B90F906201A70164BB0F90420AF
:108E70001A80154A03781370144A41781170144A05
:108E800081781170134A012111701BB1124A1368C5
:108E90000B441360114B12485B7A023B012B114BC0
:108EA00095BF072204221A701A7099BF42F21072FD
:108EB0000421FA22012111F00CBD00BFD1D60020FF
:108EC000B4D50020B2D50020B7D60020B5D60020FA
:108ED000B6D60020AED50020C4D6002004A30020C2
:108EE00011E3002080D5002038B5164BB0F90A20D8
:108EF0001A80154B90F90C201A70144B42781A7096
:108F000003780446EBB1124B5B7A023B012B15D878
:108F10001048042111F0E7FC2378023B012B0DD807
:108F20000D4D227A61680D4806232B700DF04AFE24
:108F300008482B46FA22012111F0CBFC084B0022F5
:108F40001A7038BDB2D50020B4D50020B1D50020AC
:108F500004A3002011E3002080D5002082D500204A
:108F6000D1D6002030B54FF080432DED028BD3F8E1
:108F70003834032B83B027D01448144D11F074FCFF
:108F80000A24B0EE408A284611F06EFC013C38EE0F
:108F9000008AF8D1B2EE067AC8EE077A9FED0C7A15
:108FA000DFED0C6A67EE877A9FED0B7A67EE877AC2
:108FB00087EEA67AFCEEC77ACDED017A9DF8040023
:108FC00003B0BDEC028B30BD0020F9E70DE30020BB
:108FD00000007A440040834500007F4308B5064BFB
:108FE0001B783BB112F013F8BDE808400146034876
:108FF000FEF79AB908BD00BF01D70020B8D60020FF
:1090000008B51A4B1A4801221A7011F004FA18B167
:109010001848002111F0C9F9174811F04DFB174904
:10902000174811F05BFA1749154811F067FA16490D
:10903000134811F05BFA1549114811F067FA144909
:109040000F4811F06BFA0021124811F0A5FA022125
:10905000114811F00FFB114BD97A01B101212220E7
:1090600011F0C9FF0E4B02221A7008BDA2A1002008
:1090700084E300206EE300206DE30020E98E02000F
:1090800049E30020058E0200B57302005D8E0200E8
:109090008D73020051E300206BE3002004A3002045
:1090A00094A1002008B50F4B0F480021197011F052
:1090B0007CF90E4811F0B3F90D490B4811F0BCF9D9
:1090C0000C49094811F0C0F94FF6FD71064811F03E
:1090D0006CF9094BD97A01B10121BDE80840222081
:1090E00011F089BFA2A100206EE3002084E30020DC
:1090F00005740200E173020004A3002008B51A4BB6
:109100001A4801221A7011F086F918B11848002186
:1091100011F04BF9174811F0CFFA1749174811F021
:10912000DDF91749154811F0E9F91649134811F00E
:10913000DDF91549114811F0E9F914490F4811F00A
:10914000EDF90021124811F027FA1248022111F01E
:1091500091FA114BDB7A1BB10121222011F04BFF58
:109160000E4B01221A7008BDA2A1002084E300204A
:109170006EE300206DE30020E98E020049E3002049
:10918000058E0200B57302005D8E02008D73020031
:1091900051E300206BE3002004A3002094A10020F1
:1091A00010B50B4C00212046FEF784F82046094CF0
:1091B000094A0A490DF098FCFF21204605F068F89D
:1091C0002046054A0649BDE810400DF08DBC00BFA1
:1091D000B8D60020A4D5002090A10020BF720200C4
:1091E000F98D02002DE9F04F012187B0222011F006
:1091F000EBFE0121232011F0E7FE0121242011F0D4
:10920000E3FEA848A84E11F067FD03F0C1FA3070E4
:1092100068B1A649A6480EF07AFAA548012103F0E4
:10922000EBFAA44803F0EAFBA34803F0E7FB0021B4
:10923000222011F0E0FE0223A04806224FF4E13183
:1092400010F0F8FF4FF08043D3F83834032B73D17C
:109250004FF4FA601BF0BAFC0A23022203AC9849CF
:1092600000939348974D984F00230EF019FA9049B8
:10927000204611F087FC2146944811F0C9FA204697
:1092800011F03AFC0121232011F0B5FE002123202A
:1092900011F0B1FE0021242011F0ADFE02F07EFAA3
:1092A00002F0A8FA02F090FA02F0DEF902F0F2F908
:1092B00002F006FA02F0B4FA02F044FA02F014FDE9
:1092C00000F02CFA002000F04BF96B7A023B012BE6
:1092D0005AD8012002F0C6FD38703B7813B17C48A3
:1092E00003F08CFB04F0E8F87A4F387060B104F0BA
:1092F000D9F994E803002AF01AF802F00DFA3B7845
:1093000013B1754803F07AFB04F04AFA734F3870D2
:1093100048B104F05FFB387002F0E8F93B7813B114
:109320006F4803F06BFB02F023FA6B7A032B2FD804
:10933000DFE803F0529FA8B511F069FEDFF87CA1C9
:1093400007464FF0000B41F287384FF000095046B6
:1093500010F055FF00287FF47FAF11F058FEC41BBA
:109360006BEB4B05A04579EB0503FFF675AF642069
:109370001BF02CFC232011F043FEB0FA80F14909C8
:10938000232011F038FEE2E7E87A0028A1D1A1E716
:1093900033780BB3534946480EF0B9F94449204697
:1093A00011F0F0FB00212246084603F0A1FB204605
:1093B00011F0A2FB4C493E480EF0A9F93C49204669
:1093C00011F0E0FB22460021012003F091FB204632
:1093D00011F092FB03F0A6FB444803F00FFB444856
:1093E00011F0F0F810B9434803F008FBFFF708FE4E
:1093F0004FF47A7340496A682D48B2FBF3F20EF0DD
:109400004FF92B4803F0FAFA3C4A3D48012300216A
:1094100011F055FA6A6822B100233948194611F053
:1094200058FA384A36480023012111F048FA00233F
:10943000354A3348022111F042FAAB7A33B1304851
:1094400000234EF66022022111F043FA2F4A2C48E5
:109450000123032111F033FA2D4A29480023042166
:1094600011F02DFA01212B4811F0A5FD07B0BDE840
:10947000F08FFFF717FE284803F0C0FA274803F0E3
:10948000BDFAB5E7264803F0B9FA194811F09AF881
:1094900010B9184803F0B2FAFFF730FEA8E72148E8
:1094A000F1E700BF8CE30020AFD500208A1B070046
:1094B000B5D50020E91E0700F61E070030E20020A7
:1094C0001C27070004A30020ADD50020B8E200202F
:1094D000021F0700DCD900200A1F0700B0D50020BA
:1094E000111F07001C1F07002E1F0700331D070058
:1094F00054E300203E1F0700671D0700557402005B
:1095000011E300207178020079CB02006DC30200E4
:109510009D730200A9E20020D21B07004C1F070028
:10952000421D0700531D07007047000008B505489D
:1095300005F028F8034805F044F8BDE80840014864
:1095400005F05EB8D8D6002007B531220DF107012D
:10955000024805F05FF803B05DF804FBD8D60020A0
:1095600073B500210446112011F02EFD524811F070
:10957000B3FB524B002C00F0848000229A800A2218
:10958000DA804FF481721A8140F201125A814B48FD
:1095900005F0D0F80546002840F08B80002C38D02C
:1095A0002A22302145488DF80720012604F0DCFEF0
:1095B0000822322141488DF8072004F0D5FE3246BA
:1095C00033213E488DF8076004F0CEFE24220DF1D1
:1095D00007013A4805F01EF89DF80720374822F0A9
:1095E0000C0242F0080224218DF8072004F0BCFE92
:1095F0006022222131488DF8072004F0B5FE2A466A
:1096000025212E4804F0B0FE2C483246212104F0DA
:10961000ABFE002520220DF1070128488DF80750E8
:1096200004F0F8FF9DF80720244842F008022021AA
:109630008DF8072004F098FE64201BF0C7FA1E2264
:109640000DF107011D488DF8075004F0E3FF9DF868
:1096500007201A4842F090021E218DF8072004F0DE
:1096600083FE64201BF0B2FA8CB1FFF76DFF144942
:109670000422112010F0A2FDFFF758FF204602B08F
:1096800070BD02229C80DC801A815C817FE72022F1
:109690000DF10701094804F0BDFF9DF807200748B8
:1096A00002F0400220218DF80720012404F05CFE26
:1096B000E4E70024E2E700BF8CE30020D8D60020D6
:1096C0002995020002481822002104F007BE00BFBD
:1096D000D8D60020D0B511F09AFC0D4C0D4B0021CE
:1096E000C3E9000111F093FCD4E90032C61A62EB21
:1096F0004207C92E77F1000309DB11F088FC064A06
:1097000020600023636013780133DBB21370D0BD97
:10971000F0D60020F8D6002001D7002008B502219D
:10972000092011F051FC06490322092010F046FDE2
:109730000449054801236422FDF7D4FD012008BD3A
:10974000D5960200319D0200B8D600202DE9F04FD9
:10975000C74D91B011F05BFCD5E900230024811ABC
:1097600064EB030300910193DDE9002340F6B83078
:109770000021904271EB0303A346A246A146A046F6
:109780002746264677DB11F042FCD5E90023811AF3
:1097900063EB430302910393DDE90223B2F5C87F33
:1097A00073F1000373DA11F032FCD5E90023811A5A
:1097B00063EB430304910593DDE90434B3F5C87FFB
:1097C00074F1000380F2858011F021FCD5E90023BB
:1097D000811A63EB430306910793DDE90634B3F581
:1097E000167F74F1000380F2998011F010FCD5E926
:1097F0000023811A63EB430308910993DDE90834E0
:10980000B3F5487F74F1000380F2AE8011F0FFFBE6
:10981000D5E90023811A63EB43030A910B93DDE939
:109820000A34B3F5966F74F1000380F2C08011F032
:10983000EEFBD5E90023811A63EB43030C910D93F2
:10984000DDE90C34B3F5AF6F74F1000380F2D28020
:1098500011F0DDFBD5E90023811A63EB43030E9180
:109860000F93DDE90E34B3F5C86F74F1000380F295
:10987000E280082474E0092011F0C2FB002882D1A4
:109880007C4B1B78002B3FF47EAF022468E0794BC1
:109890001B78012B87D1092011F0B2FB012882D15E
:1098A0000023C82C10D00920009311F0A9FB009BC5
:1098B000012804BF0133DBB2012001340093E4B27C
:1098C0001BF084F9009BECE7C62B7FF66CAF0024FD
:1098D00046E0684B1B78022B7FF476AF092011F02D
:1098E0008FFB01287FF470AF0024BBF1C80F10D0AC
:1098F000092011F085FB012808BF01344FF0010059
:109900000BF1010B08BFE4B25FFA8BFB1BF05EF9B1
:10991000EBE7C62C7FF658AF012421E0554B1B78AE
:10992000032BDCB27FF461AF4FF0000BBAF1C80F2C
:1099300012D0092011F064FB012808BF0BF1010BC4
:109940004FF001000AF1010A08BF5FFA8BFB5FFAD2
:109950008AFA1BF03BF9E9E7BBF1C60F7FF645AF8A
:10996000204611B0BDE8F08F424B1B78042BDCB2CF
:109970007FF44CAF4FF0000AB9F1C80F12D00920A4
:1099800011F03EFB012808BF0AF1010A4FF0010067
:1099900009F1010908BF5FFA8AFA5FFA89F91BF039
:1099A00015F9E9E7BAF1C60F7FF630AFD8E7314BCA
:1099B0001B78052BDCB27FF43AAF4FF00009B8F109
:1099C000C80F12D0092011F01BFB012808BF09F1B4
:1099D00001094FF0010008F1010808BF5FFA89F999
:1099E0005FFA88F81BF0F2F8E9E7B9F1C60F7FF6E5
:1099F0001EAFB5E71F4B1B78062BDCB27FF428AFF8
:109A00004FF00008C82F11D0092011F0F9FA0128F1
:109A100008BF08F101084FF0010007F1010708BF76
:109A20005FFA88F8FFB21BF0D1F8EBE7B8F1C60F88
:109A30007FF60EAF94E70F4B1B78072BDCB27FF459
:109A400018AF0025C82E0FD0092011F0D9FA01282F
:109A500008BF01354FF0010006F1010608BFEDB265
:109A6000F6B21BF0B3F8EDE7C62D7FF602AF77E74D
:109A7000F8D6002001D7002073B58A4D8A4C6A7A47
:109A8000637A9A4230D003F017F80021874802F039
:109A9000B3FE6B6863606B7A854863726B89638120
:109AA00002F0ACFF834802F0A9FF03F03BF801F09D
:109AB000DDFE40F6B8301BF089F8637A7E48012B52
:109AC0004FF000014FF0320678D110F06EFC00220A
:109AD0007A4800960A23114610F0BFFC784810F02F
:109AE0009EFC784810F0BEFEEA7AE37A9A4207D0EC
:109AF0006B7A023B012B94BF0120002002F0B2F9E7
:109B00006A6863689A4203D16A8963899A4213D06A
:109B100002F0D2FF664802F071FF664802F06EFF65
:109B200003F000F86B6863606B89638101F09EFE4F
:109B300040F6B8301BF04AF8634810F0B9FD002831
:109B400049D0624810F040FD614B1978884205D039
:109B500000395E4818BF012110F038FD5D4810F053
:109B600045FD5D4B1978884202D05A4810F040FDFF
:109B70005A4810F04DFD5A4B1978884202D0574888
:109B800010F048FD574D58482E7810F053FD86428E
:109B90000BD02978544810F059FD3223012200934C
:109BA00046480A23114610F058FC02F085FF637AFC
:109BB000032B50D8DFE803F04C6E707210F0F5FB09
:109BC000012200960A2311463C4810F046FC3E480C
:109BD00010F072FD85E7454D4548296810F09FFB60
:109BE000434810F09AFB2968884202D0404810F0A0
:109BF00096FB404810F0A2FB3F4B1978884202D0F8
:109C00003C4810F09DFB3D4D3D482E7810F0A7FBE1
:109C1000864203D029783A4810F0A3FB394810F067
:109C2000AFFB394B1978884202D0364810F0AAFBB6
:109C3000364810F0B8FB364B1978884202D03348CA
:109C400010F0C2FB4FF6FD711B4810F0AEFBACE705
:109C5000304802F0D3FE4FF47A7362682E49B2FBAB
:109C6000F3F22E480DF01CFD2C4802F0C7FE62688E
:109C700022B100232A48194610F02BFEA37A7BB1AB
:109C8000274800234EF66022022102B0BDE8704052
:109C900010F01FBE2348DCE72348DAE72348D8E763
:109CA00002B070BDD0A1002004A300205A1F0700FD
:109CB000611F0700711F07006EE3002049E30020C9
:109CC00084E30020A8E200206DE3002055E300209B
:109CD00003D7002058E3002005D7002060E30020D0
:109CE00006D7002004D700206AE3002010D7002008
:109CF00079E300207AE3002014D700200BD700205E
:109D00007BE300207CE300200CD700207EE30020D2
:109D100015D70020331D0700671D0700B5D50020AB
:109D200011E30020D21B0700421D0700531D07004E
:109D30002DE9F04F87B0FFF709FD072800F2CC812D
:109D4000DFE810F0BC044A030800CD01B000530066
:109D50002D001A00914B00201870914B0024002513
:109D6000C3E900458F4B1B7823B107B0BDE8F04F26
:109D700002F0E0BE0120F8E7884B00221A70884B01
:109D800000200021C3E90001874B1C783CB902F098
:109D900093FE8648214602F02FFD1AF02EFF7F4BDE
:109DA00000221A707E4B00200021C3E900017E4B87
:109DB0001C7874B17E4B1A78052A40F08D811022F0
:109DC0001A707C4BD97A01919B7A00937A4B1B785D
:109DD0005BE002F071FE7948214602F00DFD784803
:109DE00007B0BDE8F04F10F03DBD6C4B00221A707B
:109DF0006B4B00200021C3E900016B4B1B78002B4B
:109E000000F06A816A4C2378052B00F26581DFE857
:109E100013F006006301630122003000400069482E
:109E200010F046FC0128634B0AD104222270D97A33
:109E300001919B7A6449009309786448FF2315E0F7
:109E400005222270D97A01919B7A614900930978A1
:109E50006048FF230AE0574B0322D97A5A720191D6
:109E60009B7A009305235C495C48097802F088FEE0
:109E700032E107235A48237010F0DCFB4D4AD37AB5
:109E80000193937A0093C3B22278564956480978D1
:109E9000ECE7484B0E22D97A227001919B7A00930D
:109EA000524B94E73D4B00221A703D4B002000219D
:109EB000C3E900013C4B1B78002B00F0A5803C4C13
:109EC0002378062B00F20881DFE813F007001F0358
:109ED000120020002A0057006000364903224B7A06
:109EE000C87A22700190897A00910233DBB2BAE716
:109EF000304A937A83F001039372D27A01920093ED
:109F00000222FF233A493B480978AFE7294B022256
:109F10005A72DA7A01929B7A009304230322A2E711
:109F20000A232F48237010F085FBC0B20C280ED8EE
:109F3000DFE800F00717171D171D1D171717171754
:109F40001D002D4B00221A702C4B05221A70194A45
:109F50002B4BD17A1B780191927A00920A33DBB2B3
:109F600092E7254B00221A70244B0722EEE7224B82
:109F700000221A70214B0A22E8E70E4B0D22D97AF3
:109F8000227001919B7A00931E4B20E7094BDA7AED
:109F900001929B7A009300233AE100BF01D7002091
:109FA000F8D600204CA5002000D70020821F070013
:109FB00002D70020D0A1002015D700208D1F070058
:109FC000A8E200206DE30020B8A20020A4A2002097
:109FD000E8A20020D0A2002078A2002064A20020E5
:109FE0006AE30020CCA10020C8A100200CD70020EB
:109FF000CCA20020BCA200200AD7002008D7002055
:10A0000005D700200BD700209E4810F051FB0128F7
:10A0100062D19D4D6A7A012A5ED09C4E3278002A28
:10A020005AD19B4C9B4B20701B7804940BB902F0C7
:10A0300081FD00219848DFF86CB210F054FC97487D
:10A0400010F0F8FA964B53F820309648039310F02E
:10A05000CDFA4FF0000A0746039B33F81A2042B3AB
:10A060005FFA8AF1584610F0C3FA64201AF0AEFD88
:10A070000020FDF7EFF910F0CAFF02463078059294
:10A0800098B14FF47A701AF0A1FD10F0C0FF059A54
:10A0900042F21073B0EB02084FF0000161EB0109CE
:10A0A0000024434574EB0903E8DA4FF4FA601AF030
:10A0B0008DFD0AF1010ABAF1100FCDD17948394668
:10A0C00010F096FA6A6822B100237348194610F01E
:10A0D00000FC049A0023137007B0BDE8F08F724BA8
:10A0E00000221A70714B00240025C3E90045704B13
:10A0F0001B78002B00F041816E4C2278102AEBD89F
:10A1000001A353F822F000BF4DA102000BA50200ED
:10A110005FA102006FA1020081A10200DDA1020087
:10A12000EFA1020015A20200D9A0020033A2020092
:10A1300059A20200DDA2020001A3020021A3020035
:10A140003FA30200D9A002005BA3020002222270FA
:10A15000594BD97A01919B7A0093FF23D2E6564A54
:10A16000D37A83F00103D3720193937AC7E6524BFB
:10A1700001225A72DA7A01929B7A00930323CDE688
:10A1800009234648237010F055FAC0B20C2814D8A1
:10A19000DFE800F007070707070D1B072121212132
:10A1A0001B00464B00221A70454B052204E0434B2E
:10A1B00000221A70424B04221A703F4BDA7A019245
:10A1C0009B7A00933F4B1B785EE63C4B00221A7053
:10A1D0003B4B0622F0E7394B0222E4E7364B0C22D8
:10A1E000D97A227001919B7A0093374BEFE5324B7D
:10A1F0005A6842B142F20F718A428ABFA2F51C52DC
:10A200000022103A5A60DA7A01929B7A0093FF2377
:10A2100006223AE62D4A137813B1013BDBB200E087
:10A220000C231370244AD17A0191927A009207226A
:10A230002BE6244A214913780978994209D1204B09
:10A240001B7813701C4AD17A0191927A00920922EC
:10A250001BE6013BDBB2F4E71D4A1E49137809787F
:10A2600099420BBF1C4B03F1FF331B78DBB2137019
:10A27000114BDA7A01929B7A0093124B1B780A22D7
:10A2800003E600BF6DE3002004A30020D1D6002028
:10A2900081D500204CA5002011E300206AE30020B6
:10A2A000FCA4002058E3002001D70020F8D60020AD
:10A2B00000D7002002D70020D0A1002009D700201D
:10A2C00007D7002005D7002014D7002004D700208E
:10A2D00006D700200AD7002008D70020A04AA149AD
:10A2E0001368A3F5C333A03B8B4298BF9E4B13600A
:10A2F0009E4BDA7A01929B7A00930B22FF23C4E5EE
:10A300009B490B78062B1CBF03F1FF33DAB2974B46
:10A310000A70D97A01919B7A009313460C22B4E516
:10A32000944A137813B1013BDBB200E009231370A8
:10A330008E4AD17A0191927A00920D22A5E58E4A39
:10A34000117809B1481EC0B21070884AD37A0193BF
:10A35000937A009303460E2297E5884A1378052BDB
:10A3600002D0013BDBB200E0162313707F4AD17AA2
:10A370000191927A0092102287E5814810F098F9B5
:10A38000804B01281B781ED1002B7FF4A5AE7E4B9D
:10A390001B780BB902F0CEFB00217C4810F0A3FA29
:10A3A0007B4B012200201A70FDF754F8794B5A6854
:10A3B000002A3FF491AE00237448194607B0BDE867
:10A3C000F04F10F086BA002B7FF486AE6E4B1B78F0
:10A3D000002BE1D10120DDE76F4B704D704C002266
:10A3E0001A70704B00210020C3E900012978002970
:10A3F00059D1664810F077FA0121644810F073FAD9
:10A400006248022110F06FFA5F4B1B7813B90120EC
:10A4100002F090FB01235F4A2B7000232370534B03
:10A4200051685960517A528955485A81597210F0D1
:10A430003FF90146D8B15C4810F0D8F85B4B187072
:10A440005B4810F0F7F85B4B18705B4810F0BCF8F5
:10A450005A4B18705A4810F0DBF85A4B187000230A
:10A46000CDE900332278584958480978FEE4584825
:10A470000FF09BFF57480FF050FF394B18605648BC
:10A480000FF05CFF3A4B187054480FF068FF394BDF
:10A49000187053480FF074FF374B187051480FF085
:10A4A00082FF364BDAE72378102B3FF615AE01A278
:10A4B00052F823F0F9A402000BA502001DA502002A
:10A4C00021A5020033A502004BA50200A9A60200A7
:10A4D0004FA50200E9A5020005A6020019A6020088
:10A4E0003BA6020051A602006DA602007DA6020056
:10A4F000D9A0020099A6020001221C4B2270D97A31
:10A5000001919B7A0093FF23BFE400222270174B36
:10A51000D97A01919B7A0093FF23A4E70622ECE706
:10A52000124B00225A72DA7A01929B7A009302232C
:10A53000F4E40E49214BC87A1B780822227001905E
:10A54000897A00910A33DBB29FE40B22D5E7194ADE
:10A5500013780C2B01D0013360E6002361E600BFC5
:10A5600010D700207F47A1198047A119D0A1002052
:10A5700014D700200BD700200CD7002015D70020BF
:10A580006DE30020D1D600204CA5002011E300206F
:10A59000A2D5002004A3002001D7002000D700206E
:10A5A00002D70020F8D6002058E3002005D700206D
:10A5B0006AE3002004D7002055E3002003D70020E1
:10A5C00060E3002006D7002000A30020ECA20020BA
:10A5D0006EE3002079E300207AE300207BE3002093
:10A5E0007CE300207EE300205C4A1378B3FA83F317
:10A5F0005B0913705A4AD17A0191927A00920A3318
:10A60000082242E4574A584913780978994201D1FF
:10A61000564B15E601331DE6554A5649137809781D
:10A6200099420BBF544B01331B78DBB213704C4A79
:10A63000D17A0191927A009221E6504A50491368EA
:10A6400003F5C333A0338B4294BF136011604FE610
:10A650004C4A13780C2B1ABF0133DBB2062313705C
:10A660003F4AD17A0191927A009257E6464A13788E
:10A67000092B01D0013357E6002358E6434A1378EB
:10A68000032B1ABF0133DBB200231370344AD17A93
:10A690000191927A00925EE63D4A1378162B01D022
:10A6A00001335FE6052360E62D4A536803F51C532A
:10A6B00010335360D37A0193937A6BE4354B0022C5
:10A6C0001A70354B354A00210020C3E9000111788A
:10A6D00000293FF401AD324B197810293FF6FCAC4C
:10A6E00001A050F821F000BF2DA702003BA70200F7
:10A6F0003BA702003BA702003BA702003BA70200CA
:10A7000055A7020041A7020041A7020041A702008D
:10A7100041A702004BA702004BA702004BA7020073
:10A720004BA70200D9A002004BA702000023137020
:10A7300007B0BDE8F04FFFF79FB900221A70E6E6B8
:10A7400004221A70064BFFF772BB05221A70044BE5
:10A75000FFF778BB02221A70FAE400BF03D700208B
:10A76000D0A1002005D7002007D7002009D700205E
:10A7700006D7002008D700200AD7002010D70020D5
:10A780000070383914D700200BD700200CD70020D8
:10A7900015D7002001D70020F8D6002000D70020D0
:10A7A00002D70020024B01221A700920704700BF17
:10A7B00017D70020536E012B2DE9F0410E461546A8
:10A7C0002DD1304910680CF098FF044658BBDFF8D3
:10A7D000D0802D4F98F800302C4D2D492D48002B5E
:10A7E00014BF3B462B46324610F052FB2A492948FB
:10A7F00010F04EFB98F8003025492848002B14BF74
:10A800003B462B46324610F043FB2349234810F0C9
:10A810003FFB64201AF0DAF92046BDE8F081002BF6
:10A8200001DC0224F8E70022286811460DF0E4F864
:10A8300010F0FF0418D11A4B1A4D1B481C7021460A
:10A8400010F051F86A6822B117482346214610F0EB
:10A8500040F86B7A012B01D00024DDE74FF6FD7143
:10A8600012480FF0A2FDF7E7012CDAD10C4B0E488D
:10A870001C70002110F037F80A4B5B7A012BEBD1EA
:10A880000021EDE72E820700EF1F0700F61F0700EB
:10A89000FF1F070030E20020A862070094E20020BA
:10A8A00016D7002004A3002011E300206EE300204F
:10A8B00070B598B014460A490EA810F063F9002349
:10A8C000CDE91433CDE91633636E012B0CD1054964
:10A8D00020680CF012FF48B1022400F0EDBC00BF6C
:10A8E000AA6207002E820700002BF5D1B649B748AF
:10A8F000B74CB84DB84E10F0CBFAB849B34810F089
:10A90000C7FAB149B64810F0C3FAB449B44810F0D8
:10A91000BFFA64201AF05AF9637AB24955F8232035
:10A92000AA4810F0B5FAAD49A84810F0B1FA637A18
:10A93000AC4955F82320AA4810F0AAFAA749A8481C
:10A9400010F0A6FA64201AF041F9A74911A80FF0F7
:10A9500069FF11A90EA810F028F911A810F0CCF881
:10A960000EA810F065F90E9AA049984810F090FAD8
:10A970009A49964810F08CFA0E9A9C49984810F023
:10A9800087FA9649964810F083FA64201AF01EF967
:10A99000974911A80FF026FF119A96498B4810F09D
:10A9A00077FA11A810F0A8F88C49884810F070FACE
:10A9B0008F4911A80FF016FF119A8E49884810F0A0
:10A9C00067FA11A810F098F88449854810F060FAE9
:10A9D00064201AF0FBF84FF47A7562688649B2FB7E
:10A9E000F5F27A4810F054FA7C49784810F050FAA1
:10A9F00062688149B2FBF5F2794810F049FA77496B
:10AA0000774810F045FA64201AF0E0F87B480FF020
:10AA10004FFE7B4956F8202005466C4810F038FA66
:10AA20006E496A4810F034FA56F8252074496C488B
:10AA300010F02EFA69496A4810F02AFA64201AF0D8
:10AA4000C5F8012D40F04E836E486F4E6F4D0FF0EC
:10AA5000B9FD6F49002814BF32462A465B4810F002
:10AA600017FA5E49594810F013FA66480FF0AAFD2C
:10AA70006749002814BF32462A465948654E10F0EF
:10AA800007FA5649564810F003FA64201AF09EF867
:10AA900061480FF0CFFD6149054602464B4810F072
:10AAA000F7F94E49494810F0F3F92A465B494C48FA
:10AAB00010F0EEF949494A4810F0EAF964201AF01A
:10AAC00085F856F825205649404810F0E1F94349E9
:10AAD0003E4810F0DDF956F825205149404810F065
:10AAE000D7F93E493E4810F0D3F964201AF06EF8C9
:10AAF0004C480FF060FD002800F0BE814A49334801
:10AB000010F0C6F93549314810F0C2F946493448C9
:10AB100010F0BEF93149324810F0BAF964201AF049
:10AB200055F8082214A941480FF024FD9DF857302C
:10AB300005939DF8563004939DF8553003939DF886
:10AB4000543002939DF8533001939DF852309DF894
:10AB50005020374900931D489DF8513010F098F966
:10AB60001E491A4810F094F99DF8573005939DF846
:10AB7000563004939DF8553003939DF8543002935A
:10AB80009DF8533001939DF852309DF8502028498C
:10AB9000009313489DF8513010F07AF90F4910488E
:10ABA00010F076F964201AF011F8082214A921484F
:10ABB0000FF0BCFC9DF8573005939DF85630049378
:10ABC0009DF8553038E000BF1320070030E2002028
:10ABD00004A3002070A40020CCA30020A8620700DA
:10ABE00094E2002022200700E8E200203020070045
:10ABF000ACE20020395007003B2007006DE3002045
:10AC00004B20070054E300209D5F0700052007004C
:10AC10005B20070098A300206AE30020662007005D
:10AC20007120070053E300207C2007004EE3002042
:10AC3000862007004AE3002003939DF854300293D6
:10AC40009DF8533001939DF852309DF850207D4976
:10AC500000937D489DF8513010F01AF97B497A48ED
:10AC600010F016F99DF8573005939DF8563004936F
:10AC70009DF8553003939DF8543002939DF853305E
:10AC800001939DF852309DF850206E490093704812
:10AC90009DF8513010F0FCF86C496D4810F0F8F850
:10ACA000642019F093FF102214A96A480FF047FCA2
:10ACB0009DF85F300D939DF85E300C939DF85D30EC
:10ACC0000B939DF85C300A939DF85B3009939DF8D7
:10ACD0005A3008939DF8593007939DF858300693E1
:10ACE0009DF8573005939DF8563004939DF85530E4
:10ACF00003939DF8543002939DF8533001939DF8CF
:10AD000052309DF85020544900934F489DF85130DF
:10AD100010F0BEF84D494C4810F0BAF89DF85F307D
:10AD20000D939DF85E300C939DF85D300B939DF86C
:10AD30005C300A939DF85B3009939DF85A30089374
:10AD40009DF8593007939DF8583006939DF8573079
:10AD500005939DF8563004939DF8553003939DF864
:10AD6000543002939DF8533001939DF85230009374
:10AD70009DF850209DF851303749354810F088F83B
:10AD800032493348354E364D10F082F8642019F0C0
:10AD90001DFF34492C4810F07BF82C492A4810F04C
:10ADA00077F830492A4810F073F82849284810F0FD
:10ADB0006FF8642019F00AFF627A2B49224810F0DC
:10ADC00067F82249204810F063F8627A2649204843
:10ADD00010F05EF81D491E4810F05AF8642019F072
:10ADE000F5FEA27A21491848002A14BF32462A46A5
:10ADF00010F04EF81549144810F04AF8A27A1B4991
:10AE00001348002A14BF32462A4610F041F80F4971
:10AE10000F48174E10F03CF8642019F0D7FE154883
:10AE20001AF0ECF90025B4F88E20EBB2934205F14C
:10AE3000010580F23D8223443046197B1AF0DEF989
:10AE4000F1E700BFAE20070030E20020A862070053
:10AE500094E200204BE30020D620070010200700DA
:10AE60007E1F0700372207004722070055220700F0
:10AE7000E3A30700662207009049914810F008F804
:10AE800090498F4810F004F88C498F4810F000F872
:10AE90008C498D480FF0FCFF642019F097FE14A92F
:10AEA00010228A480FF054FB9DF85F300D939DF8F7
:10AEB0005E300C939DF85D300B939DF85C300A93E7
:10AEC0009DF85B3009939DF85A3008939DF85930EE
:10AED00007939DF8583006939DF8573005939DF8D9
:10AEE000563004939DF8553003939DF854300293E7
:10AEF0009DF8533001939DF852309DF850200093F7
:10AF000073499DF851306E480FF0C2FF6D496C488F
:10AF10000FF0BEFF9DF85F300D939DF85E300C93EF
:10AF20009DF85D300B939DF85C300A939DF85B3083
:10AF300009939DF85A3008939DF8593007939DF86E
:10AF4000583006939DF8573005939DF8563004937A
:10AF50009DF8553003939DF8543002939DF853307B
:10AF600001939DF852309DF85020009358499DF868
:10AF7000513055480FF08CFF524953480FF088FF6D
:10AF8000642019F023FE14A9102252480FF0FBFA96
:10AF90009DF85F300D939DF85E300C939DF85D3009
:10AFA0000B939DF85C300A939DF85B3009939DF8F4
:10AFB0005A3008939DF8593007939DF858300693FE
:10AFC0009DF8573005939DF8563004939DF8553001
:10AFD00003939DF8543002939DF8533001939DF8EC
:10AFE00052309DF8502000933B499DF85130344831
:10AFF0000FF04EFF334932480FF04AFF9DF85F30A3
:10B000000D939DF85E300C939DF85D300B939DF889
:10B010005C300A939DF85B3009939DF85A30089391
:10B020009DF8593007939DF8583006939DF8573096
:10B0300005939DF8563004939DF8553003939DF881
:10B04000543002939DF8533001939DF852309DF88F
:10B050005020009320499DF851301B480FF018FFF5
:10B06000184919480FF014FF642019F0AFFD14A916
:10B0700004221A480FF075FA9DF8533001939DF899
:10B0800052309DF85020009315499DF851300C48DE
:10B090000FF0FEFE0B490A480FF0FAFE9DF8533000
:10B0A00001939DF8523000939DF850209DF8513047
:10B0B0000B4905480FF0ECFE62E600BF1E210700B9
:10B0C00030E20020A862070094E200204CE3002058
:10B0D0002721070050E30020702107004DE30020E6
:10B0E000B92107007748002D40F09B800FF015F93B
:10B0F0007549024675480FF0CBFE754973480FF04D
:10B10000C7FE70480FF009F96F49024671480FF009
:10B11000BFFE6F496F480FF0BBFE642019F056FD6B
:10B120006D480FF00BF96D49024668480FF0B0FE0C
:10B13000674966480FF0ACFE67480FF0FFF86749B3
:10B14000024664480FF0A4FE614962480FF0A0FE79
:10B15000642019F03BFD62480FF001F96149024695
:10B160005A480FF095FE5A4958480FF091FE5C4836
:10B170000FF0F5F85B49024656480FF089FE544936
:10B1800054480FF085FE642019F020FD56480FF05A
:10B19000F7F8564902464D480FF07AFE4C494B48A5
:10B1A0000FF076FE50480FF0EBF850490246494840
:10B1B0000FF06EFE464947480FF06AFE642019F012
:10B1C00005FD4B480FF0EDF84A4902463F480FF0A5
:10B1D0005FFE3F493D480FF05BFE45480FF0E1F848
:10B1E000444902463B480FF053FE394939480FF0B5
:10B1F0004FFE642019F0EAFC3F480FF0D4F83F49B5
:10B20000024632480FF044FE314930480FF040FE0C
:10B2100039480FF0C8F8394902462E480FF038FE79
:10B22000AEE50FF07AF82849024628480FF030FEC4
:10B23000274926480FF02CFE22480FF06EF82249CD
:10B24000024624480FF024FE214922480FF020FE38
:10B25000642019F0BBFC2A480FF0D9F829490246AE
:10B260001A480FF015FE1A4918480FF011FE24482D
:10B270000FF0CDF82349024616480FF009FE144995
:10B2800014480FF005FE642019F0A0FC1E480FF0D2
:10B29000C0F81E4902460D480FF0FAFD0C490B4854
:10B2A0000FF0F6FD18480FF0B4F818490246B4E75D
:10B2B000074819F0A3FF00240EA80FF01DFC20463C
:10B2C00018B070BD79E30020D221070030E20020E1
:10B2D000A862070094E200207AE30020E121070041
:10B2E0007BE30020E92107007CE30020F121070037
:10B2F0007DE30020F92107007EE300200E220700F5
:10B3000082E300201C22070083E30020292207009B
:10B3100073B5556E012D0E4625D1144910680CF0F9
:10B32000ECF90446E0B90A25CDE9000502233246CE
:10B330000F4910480FF0ACFD0F490E480FF0A8FD63
:10B3400002233246CDE9004509490C480FF0A0FD23
:10B3500009490A480FF09CFD642019F037FC254686
:10B36000284602B070BD0125FAE700BF2E82070013
:10B370007722070030E20020A862070094E2002054
:10B380002DE9F84F654B1B78002B00F0C580644B0E
:10B390001B78002B40F0BE80556E012D40F0BC8024
:10B3A000D2F800A05F4950460CF0A7F904460028E7
:10B3B0006ED15D4B5D495E481D700FF069FD5B49C4
:10B3C0005B48DFF894B10FF063FD584959480FF01E
:10B3D0005FFD564957480FF05BFD642019F0F6FBFE
:10B3E000214655480FF07FFA294653480FF07BFA63
:10B3F000022151480FF077FA01F05EFB21464F48D9
:10B4000001F0FAF94E4801F0F9FA4E4801F0F6FA67
:10B4100001F088FB0FF0FBFD4FF0000A054642F2F9
:10B42000107600279BF800308BB94FF47A7019F032
:10B43000CDFB0FF0ECFDB0EB05086AEB4A09464581
:10B4400077EB0903EEDA03242046BDE8F88F02F01B
:10B450001FFA364936480FF01BFD344934480FF0C7
:10B4600017FD324933480FF013FD304931480FF0D2
:10B470000FFD642019F0AAFB01F01EFB32480021E9
:10B4800001F0BAF901F04EFB30480FF0EBF9DBE7C1
:10B490002F4950460CF031F9044600283CD1224B8C
:10B4A000DFF8B4B01D70014623480FF01CFA29469E
:10B4B00021480FF018FA02211F480FF014FA01F08A
:10B4C000FBFA2146204801F097F9224801F096FA4C
:10B4D0001C4801F093FA01F025FB0FF098FD4FF0A6
:10B4E000000A054644F620684FF000099BF800303A
:10B4F0006BB94FF47A7019F069FB0FF088FD461BA9
:10B500006AEB4A07B04579EB0703EFDA9BE702F0F5
:10B5100073F9B9E7002497E7022495E7B0D5002036
:10B5200017D700202E82070000D70020A86207004E
:10B5300030E2002094E2002011E300209122070075
:10B5400099220700711F07005A1F0700A8E2002078
:10B5500029680700A9220700D8A300202DE9FF4190
:10B56000536E012B0D46144625D13A4910680CF054
:10B57000C4F8044620B10224204604B0BDE8F0819E
:10B5800002F090F8294634480FF04EFC3349324817
:10B590000FF038FC32490A888B7808794D798E791A
:10B5A000C97992B2CDE90261CDE900052D492A4859
:10B5B0000FF06EFCE0E7052BDDD1161F02F110073E
:10B5C00056F8045F28460CF0AAF82B462844984207
:10B5D00005D013F8012B303A092AF8D9CBE7BE423F
:10B5E000EED10022114620680CF006FA40F2D23368
:10B5F000A0F2E6729A420546BDD800226068114664
:10B600000CF0FAF9431E0B2B0646B4D80022A068B2
:10B6100011460CF0F1F9431E1E2B0746ABD8002251
:10B62000E06811460CF0E8F918288046A3D80022FB
:10B63000206911460CF0E0F93B289CD8C2B2009278
:10B640005FFA88F3FAB2F1B2A8B201F09DFF0024CC
:10B6500092E700BF2E82070030E200208925070014
:10B66000D4D90020B922070007B503230193054B65
:10B670000093054B054A064819460FF0FEF803B043
:10B680005DF804FBE5B80200CC220700D4220700D5
:10B690000EE3002007B503230193054B0093054BF0
:10B6A000054A064819460FF0E8F803B05DF804FBB8
:10B6B000B1B902002C230700312307000EE300205C
:10B6C00007B503230193054B0093054B054A064834
:10B6D00019460FF0D2F803B05DF804FBB1BA0200CE
:10B6E0008F230700942307000EE3002007B50323F0
:10B6F0000193054B0093054B054A064819460FF088
:10B70000BCF803B05DF804FB81B30200BB23070063
:10B71000C02307000EE3002007B503230193054B68
:10B720000093054B054A064819460FF0A6F803B0EA
:10B730005DF804FB5DB50200D6230700DA2307009D
:10B740000EE3002007B503230193054B0093054B3F
:10B75000054A064819460FF090F803B05DF804FB5F
:10B7600079BB0200AF650700012407000EE300204B
:10B7700007B503230193054B0093054B054A064883
:10B7800019460FF07AF803B05DF804FB1DBC020007
:10B790002B240700302407000EE3002007B5032305
:10B7A0000193054B0093054B054A064819460FF0D7
:10B7B00064F803B05DF804FBB5A702009924070004
:10B7C0009E2407000EE3002007B502230193054BDA
:10B7D0000093054B054A064819460FF04EF803B092
:10B7E0005DF804FBB1A80200E0240700E72407008D
:10B7F0000EE3002007B502230193054B0093054B90
:10B80000054A064819460FF038F803B05DF804FB06
:10B8100011B30200FE240700052507000EE30020F7
:10B8200010B50D4C0D4986B003A80FF0ABF903A974
:10B8300020460FF00DF803A80FF05EF902230193E4
:10B84000074B0093074B084A194604F126000FF0F6
:10B8500014F806B010BD00BFE8E200201D25070067
:10B86000A5A70200252507002E25070070B5194C55
:10B8700019491A4EC2B09022201D0BF0A3F9902155
:10B88000201D19F0FDFF00252060FE22294602A898
:10B8900001950BF0A5F9B4F88E30E8B2984205F1A5
:10B8A000010508DA231831461A7B01AB03EB40008F
:10B8B0000BF0F6FEEFE7074A0948942300210EF04B
:10B8C000F4FF28B90146034A054894230EF0EDFF22
:10B8D00042B070BDDCA3002008A30020E3A3070052
:10B8E0000FE30020F8B5536E012B0E4602D0022460
:10B8F0002046F8BD1568274928460BF0FEFE044691
:10B9000060B128460BF00BFF2A462844904224D011
:10B9100012F8013B303B092BF8D9E8E71E4F1F49CD
:10B920007B681F4832464FF47A75B3FBF5F30FF08E
:10B93000AFFA1C491A480FF0ABFA7B681749B3FB02
:10B94000F5F3324618480FF0A3FA164916480FF0DF
:10B950009FFA642019F03AF9CAE70A220021284622
:10B960000CF04AF8B0F5E15FC1D80B4C4FF47A7394
:10B970005843606000210D480EF0B5FF626822B1A7
:10B9800000230A4819460EF0A4FFFFF76FFF0024BA
:10B99000AEE700BF2E82070004A300205125070058
:10B9A00030E20020A862070094E2002011E30020AA
:10B9B000536E012B70B50E4602D00224204670BD96
:10B9C0001568334928460BF098FE044660B12846B6
:10B9D0000BF0A5FE2A46284490421ED012F8013BE7
:10B9E000303B092BF8D9E8E72A4D2B496B7A2B48D5
:10B9F00032460FF04DFA2A4928480FF049FA6B7A7F
:10BA00002549284832460FF043FA254925480FF0CA
:10BA10003FFA642019F0DAF8D0E70A22002128461C
:10BA20000BF0EAFF0328C8D81A4C637A984223D057
:10BA30006072FFF71BFF637A012B22D01ED9023BF5
:10BA4000012B21D9184915480FF022FA144913483F
:10BA50000FF01EFA144913480FF01AFA1049114852
:10BA60000FF016FA642019F0B1F841F2883019F09D
:10BA7000ADF80E480EF0F6FE00249FE7FDF7C0FA81
:10BA8000E0E7FDF70FFBDDE7FDF738FBDAE700BF86
:10BA90002E82070004A300205825070030E2002072
:10BAA000A862070094E200205E250700A8E20020BB
:10BAB000F8B5536E012B0D4602D002242046F8BD86
:10BAC00017682549254E38460BF017FE044678BB0B
:10BAD000B6F88E30ABB92A46214922480FF0D8F982
:10BAE000214920480FF0D4F92A461D491F480FF07C
:10BAF000CFF91D491D480FF0CBF9642019F066F805
:10BB0000DCE729461A481B4F19F078FB2546B6F8A2
:10BB10008E20EBB2934205F1010505DA3344384635
:10BB2000197B19F06BFBF2E70F4819F067FBC5E7CB
:10BB300038460BF0F4FD06F10C0201460546384686
:10BB400013F04CFE04460028B7D16D08A6F88E50BD
:10BB5000FFF78CFEB2E700BF2E82070004A300208F
:10BB60007B25070030E20020A862070094E2002055
:10BB700087250700E3A30700536E012B70B50D4620
:10BB800002D00224204670BD16681D4930460BF0D5
:10BB9000B4FD0446D0B91B4E1B4996F991301B48A1
:10BBA0002A460FF075F91A4918480FF071F996F9FD
:10BBB0009130154917482A460FF06AF9144915487B
:10BBC0000FF066F9642019F001F8DBE70022114656
:10BBD00030460BF08BFE00F10B03DBB2192BD0D8F3
:10BBE000084B93F9912040B282424FF00004C9D033
:10BBF00083F89100FFF73AFE074B1C70C2E700BFC5
:10BC00002E82070004A300205825070030E2002000
:10BC1000A862070094E20020D0D60020536E012BCA
:10BC20002DE9F3410E4615462ED1274910680BF039
:10BC300064FD044660BBDFF8AC80244F98F8003008
:10BC40000193234D3B780093EB7A224922483246F8
:10BC50000FF01EF9214920480FF01AF998F800302A
:10BC600001933B780093EB7A1A491D4832460FF056
:10BC70000FF91A491A480FF00BF9642018F0A6FFC3
:10BC8000204602B0BDE8F081002B01DC0224F7E77A
:10BC90000022286811460BF0AFFE10F0FF0508D116
:10BCA0000B4BDC7A002CEBD0DD72FFF7DFFD0024BC
:10BCB000E6E7012DEAD1064BDC7A002CF7D1DD72E4
:10BCC000FFF7D4FDDCE700BF2E820700DCD900209F
:10BCD00004A300208B25070030E20020A8620700A3
:10BCE00094E20020B0D50020F0B5374D3748C3B0FE
:10BCF00094232A4600210EF0CEFD0646D0B12B7AC1
:10BD0000AA2B1AD19021281D19F0BAFD2B68304CAE
:10BD1000834214D047F23052AA23C4E901232D4BA9
:10BD2000E3600423A4F88E30082384F89130FFF7F1
:10BD30009DFD0026304643B0F0BD0020E6E76B686D
:10BD400063606B7AB5F88E20032B86BF00233746DD
:10BD500000276372802A6B89638111D900232373C2
:10BD6000A4F88E30374695F9912002F10C03DBB22E
:10BD70001A2B0CD9082384F89130FFF777FD0AE0DD
:10BD800015491648A4F88E200AF01CFFEBE784F84A
:10BD90009120002FF1D10025FE22294602A801950D
:10BDA0000AF01EFF0E4FB4F88E30E8B2984205F14B
:10BDB0000105BFDA231839461A7B01AB03EB4000BB
:10BDC0000BF06EFCEFE700BFDCA300200FE30020C8
:10BDD00004A3002001020304E8A3002010A3002014
:10BDE000E3A3070010B5074B53F82020002332F8D7
:10BDF00013408C42D8B203D80133102BF7D1184628
:10BE000010BD00BFFCA4002013B501900F480EF038
:10BE100011FC019980B2FFF7E5FF04460C480EF0D3
:10BE2000E5FBA0420FD20B4800F0E8FD0A490B48A1
:10BE300022460BF035FC094800F0E0FD084B0020DD
:10BE4000187002B010BD0120FBE700BF6AE30020BC
:10BE500058E300200026070012260700B5D5002071
:10BE6000D1D600202DE9F3410121754E074622204D
:10BE70000FF0C1F84FF4FA7018F0A8FE3478002CD7
:10BE80007ED170497048009440F24C43422207F042
:10BE90000DFD054620B90024204602B0BDE8F08122
:10BEA00069484FF0020840F24C42012186F80080B8
:10BEB00007F016FB654E002F57D040F24C43224648
:10BEC0000121614807F084FB40F24C4342460121C6
:10BED0005D4807F07DFB40F24C43062201215A48A1
:10BEE00007F076FB0122114640F24C43564807F01A
:10BEF0006FFB40F24C4303220121534807F068FBDB
:10BF000040F24C43042201214F4807F061FB40F20C
:10BF10004C4305224C48012107F05AFBF37A40F2CA
:10BF20004C42E3B10521484807F021FD464840F264
:10BF30004C432246012107F021FC434840F24C418A
:10BF400007F0D4FA737A023B012B02D8F47A002C62
:10BF5000A2D1002122200FF04EF82C469CE74FF48E
:10BF6000FA71394807F044FDE7E740F24C424FF0E0
:10BF7000FF31354807F0DAFAFA2018F027FEE1E73A
:10BF8000002530493048009540F24C43422207F0EA
:10BF90008DFC044600283FF47EAF40F24C42012164
:10BFA000294807F09DFA40F24C432A4601212648D1
:10BFB00007F00EFB40F24C4302220121224807F019
:10BFC00007FB40F24C43062201211F4807F000FB0B
:10BFD0000122114640F24C431B4807F0F9FA40F2A7
:10BFE0004C4303220121184807F0F2FA40F24C4377
:10BFF00004220121144807F0EBFA40F24C430522D9
:10C000001148012107F0E4FA104BDB7A40F24C4270
:10C0100083B105210C4807F0AAFC0B4840F24C43C1
:10C020002A46012107F0AAFB40F24C41064807F0DE
:10C030005DFA31E74FF4FA71034807F0D9FCF3E7F2
:10C0400024D700208CE3002054D7002004A3002034
:10C050002DE9F04FDFF80C83A94FAA4CAA4DDFF869
:10C060000893AA4E8BB0002300220021C8E90023C8
:10C07000C7E900234FF0000A1C2203A82970C9F861
:10C08000001021700291C6F800A00AF0A9FDA04995
:10C0900002A80BF03CFB9F4B9F48DB7AA34640F283
:10C0A0004C41002B66D007F06CFDC117C8E90001B8
:10C0B00040F24C41984807F049FDC117C7E900011B
:10C0C00040F24C41944807F077FD40F24C41C9F8EA
:10C0D0000000914807F0CBFC07EE900AF8EE677A73
:10C0E00040F24C418C48C6ED007A07F014FD40F256
:10C0F0004C412070884807F0D2FC012829D187499B
:10C1000002A80BF004FB96ED007ADFED857AB4EE21
:10C11000E77AF1EE10FA05D57A4B1B78052B01D999
:10C1200001232B702B7803F0FF04002B00F0D2804A
:10C13000D7E900E31A46D8F80430D8F800C01A430B
:10C140004CEA0E00114650EA010378D100242C700D
:10C15000AAE0022801D17349D2E7032801D172492C
:10C16000CEE7042801D17149CAE705280CBF704900
:10C170006749C5E707F0B0FC0028D3D0012124208F
:10C180000EF039FF644840F24C4107F088FC044649
:10C1900000283DD15E4902A80BF0B9FA5E4840F292
:10C1A0004C4107F0B8FC634B8BF800001A789042C2
:10C1B00042D1614A137801331370022CB2D95E4B1D
:10C1C0001B78012BAED9012340F24C4152482B7011
:10C1D00007F0D7FCC117C8E9000140F24C414E48B6
:10C1E00007F0B4FCC117C7E9000140F24C414A48CE
:10C1F00007F0E2FC40F24C41C9F80000464807F065
:10C2000036FC07EE900AF8EE677AC6ED007A89E709
:10C21000012801D14949BEE7022801D14849BAE7BE
:10C22000032801D14749B6E7042801D13F49B2E7C5
:10C230000528B3D13E49AEE788BF1870BDE7354B3E
:10C24000304D5B7A032B33D13F4B40481B6872461D
:10C250001BB2614601F06CFFD8E9000144F05EFFBB
:10C2600025A3D3E9002345F0B1F845F07DFA384B1A
:10C270001860D7E9000144F051FF1FA3D3E9002360
:10C2800045F0A4F845F070FA324B32681860324B32
:10C290001A604FF47A72D9F8003093FBF2F32F4A08
:10C2A00013602F4B2A781A7020460BB0BDE8F08F30
:10C2B000D9F8003096ED000A24484FF47A7193FBC8
:10C2C000F1F395F9001000911BB27246614601F03E
:10C2D00063FEC1E71E4BC3F800A01E4BC3F800A0CD
:10C2E0001D4B4FF07E521A601C4B1C601C4B1C7087
:10C2F0002DE700BFAFF3008000000000D0126341C3
:10C3000048D70020D8D8002039D7002018D70020DF
:10C310002026070004A3002054D70020272607006A
:10C320000000964336260700422607004E260700E7
:10C330005726070050D7002051D70020602607005D
:10C340006A26070071260700C8D60020A4D5002061
:10C3500030D7002034D7002028D700202CD7002049
:10C3600038D7002040D700201CD700202DE9F0410D
:10C37000012186B023200EF03EFEFFF769FE6C4FD0
:10C380006C4E0446002800F09D806B4BD97A11B9A1
:10C3900022200EF030FE694B002264201A7018F043
:10C3A00015FC674803210EF09EFA3B78002B36D02F
:10C3B000644B1B78002B32D100F07EFB624800F00A
:10C3C0001DFB624B1868624B1D68624BD3F80080FE
:10C3D00044F07AFE02460B462846CDE90423CDF808
:10C3E000088044F071FEDDE90423CDE900015A49DB
:10C3F0005A480BF055F9594800F000FB584B1868A3
:10C40000584B1D7844F060FEEDB202460B4653488F
:10C41000554900950BF044F9504800F0EFFA534BA2
:10C420001B781BB9524801210EF033F95148DFF84F
:10C43000608101F043FF80B2FFF7E6FC0546E8B1FA
:10C440004C4801F03BFF04904A4801F039FF0124B9
:10C450000023CDE90043484B04991B780246474826
:10C460000EF016F838B988F80000454A1368013311
:10C4700013602C4604E088F80040F6E788F80000D6
:10C480003B78002B49D0002C47D12E4B1B78002B3A
:10C4900043D100F011FB314B1C70274BDB7A002B92
:10C4A00030D0384800F0AAFA374B1A7862BB34888B
:10C4B0002A4B2A20114694422ADD1870013203F8D3
:10C4C000011FF8E7314B32881B889A42D8D3642089
:10C4D00018F07CFB194B1A481C702D4B03211C7063
:10C4E0000EF001FA3D785DB1164B1C78002CC7D1D7
:10C4F00028491A480BF00BF9184800F07FFAB8E702
:10C500000124BDE72448CDE7244914480BF0C8F8BE
:10C51000124800F073FA00F005FB33880021013364
:10C520002320338006B0BDE8F0410EF064BD00BFAB
:10C53000AFD5002020D7002004A30020ACD50020D8
:10C5400011E3002000D700207826070030D7002014
:10C5500034D700202CD7002082260700B5D5002034
:10C5600028D7002038D7002092260700D0D60020F8
:10C570006CE30020A4D5002094A1002049E3002012
:10C58000C8D60020BC260700D8D8002022D700201B
:10C59000D1D60020A4260700D2260700E5260700F2
:10C5A00010B5054C204602F0EDF82046034A044938
:10C5B000BDE810400AF098BA54D7002090A100209E
:10C5C00091ED02000020704738B590F833300446F2
:10C5D0000D4613B1406B0EF07FFB94F83010606B8A
:10C5E0000EF0BEFB606B802100F02DF8606B0368DD
:10C5F00029461B689847606B0121BDE838400EF062
:10C60000BBBB000010B5034B0360044607F0CCFB36
:10C61000204610BDAC28070010B50446406B0EF054
:10C620005BFB606B02490EF06BFB012010BD00BF8D
:10C63000801A060010B50446FFF7E4FF20460CF010
:10C64000A5FD204610BD0368C9B21B6818472DE937
:10C65000F84F90F83330044613B1406B0EF03CFBBA
:10C66000658AC5F180054FF0000A05EBD575FF27F7
:10C670006D10D146D0463E46A38A5FFA8AF1B1EBEF
:10C68000D30F28DA4FF0000C638A5FFA8CF09842DF
:10C690001CDA11FB03F30344A2689BB212F803E017
:10C6A000E26812F803B0F3450BD08E4228BF0E4665
:10C6B000884538BF8846874228BF0746814538BF2E
:10C6C000814602F803E00CF1010CDDE70EF013F9EE
:10C6D0000AF1010AD0E7FF2E57D0236821219B6978
:10C6E00020469847236857FA85F19B69C9B22046CE
:10C6F00098475FFA85FA23680AEB09019B69C9B27A
:10C7000020469847236822219B6920469847236842
:10C7100031469B6920469847236841469B692046DD
:10C7200098470025B04529D3BA46CA4521D845B90E
:10C7300094F83010606B0EF013FB606B4021FFF734
:10C7400082FFA268606B638A06FB0323026813F80A
:10C750000A1012680135EDB29047102D04D1606BBC
:10C7600001210EF009FB00250AF1010A5FFA8AFA9D
:10C77000DBE701360EF0BFF8F6B2D3E72DB1606B00
:10C780000121BDE8F84F0EF0F7BABDE8F88F0000C0
:10C7900038B51648164C0EF09FFA4FF4FA7018F0A0
:10C7A00015FA0125204684F8335007F0B4FE2046E0
:10C7B00007F067FD204607F0E2FD204607F04FFD39
:10C7C000C821204607F0A4FD204607F0CBFD4023FA
:10C7D000F1222046642107F066FD0649204607F055
:10C7E0003CFD2046FFF733FF284638BD8CE3002090
:10C7F0009CD90020CC28070030B52DED028B0446D3
:10C8000097B04F480D464F4907F027FD4C4800218F
:10C8100007F0D4FA00220B231146494800938023E5
:10C8200007F0E4FB4648012107F0C8FA444800211C
:10C8300007F011FD444B1B787BB1444B1B7863B16F
:10C840005DB1434906A80EF09DF906AB00223C48B5
:10C85000114607F09DFE06A81AE03E4BDD7A002D3A
:10C860002FD03D4B3D4918783D4A2346002808BF4C
:10C870000A463C4906A80AF013FF06A903A80EF0D1
:10C8800081F900222E4803AB114607F081FE03A870
:10C890000EF032F94FF08043D3F8384414F0FF041F
:10C8A00016D0032C46D00B2200927F23002124486F
:10C8B00007F0BBFA2248FFF7CAFE17B0BDEC028BA7
:10C8C00030BD214606A80EF05DF906AB2A46BEE74C
:10C8D00025489FED268A244C0DF0C6FF0A252046E8
:10C8E0000DF0C2FF013D38EE008AF8D1F2EE047A75
:10C8F000C8EE277A17EE900A44F0E6FB02460B4694
:10C9000006A81B490AF0CCFE82B206A90C4807F023
:10C9100085FC06A9044603A80EF034F9C4F17F0192
:10C92000074803AB002209B207F032FE03A80EF05D
:10C93000E3F8B8E70F4906A80AF0E9FE2246E4E763
:10C940009CD90020CC2807000CDA0020B0D50020AC
:10C95000F026070004A3002039D7002095A3070084
:10C96000CE660700FE2607000DE300200000000051
:10C97000042707000A270700F0B51C481C4F1D4E6E
:10C980001A4D87B0002107F019FA40230C221748EE
:10C9900000930021802307F029FB1749134807F073
:10C9A0005CFC1248012107F009FA1048002107F049
:10C9B00052FC00243B78A34213DD06EB441103A88C
:10C9C0000EF0E0F804EB840252000C3203AB12B21A
:10C9D0000021284607F0DCFD03A80EF08DF8013495
:10C9E000E8E70248FFF733FE07B0F0BD9CD900200E
:10C9F000D9D80020DAD80020CC28070070B5274C01
:10CA0000274D2278052A034638D105F12002294610
:10CA100005F1400052F8046B41F8046B8242F9D1F1
:10CA2000204AA2F1200102F1200052F8046B41F8E3
:10CA3000046B8242F9D11C4AA2F1200102F12000CC
:10CA400052F8046B41F8046B8242F9D1174AA2F103
:10CA5000200102F1200052F8046B41F8046B82427D
:10CA6000F9D1134AA2F1200102F1200052F8046B1F
:10CA700041F8046B8242F9D10422227020780D4AD9
:10CA800005EB401020210AF0D7FD2378052B1CBFB1
:10CA900001332370BDE87040FFF76EBFD9D8002086
:10CAA000DAD800201AD900203AD900205AD900201B
:10CAB0007AD900201A82070007B50B48002107F039
:10CAC0007DF9402300930C2280230748002107F0C2
:10CAD0008DFA0548012107F071F9044B00221A7004
