:020000022000DC
:107000000000042071930300999303009B930300F5
:107010009D9303009F930300A193030000000000D1
:10702000000000000000000000000000A393030027
:10703000A593030000000000000000000000000015
:1070400081820500A793030001A10500598805006E
:10705000A7930300C17E0500997C0500B16406007A
:10706000A793030099870500AD870500A793030048
:10707000A7930300A7930300A7930300A79303001C
:10708000B571060099540500A7930300A793030068
:10709000A7930300A7930300395B0600A79303009F
:1070A000A7930300A7930300C1870500D5870500B8
:1070B000A7930300A7930300000000000000000056
:1070C000A7930300A7930300A7930300ED690600AD
:1070D000B1840500A7930300A7930300119E050048
:1070E000899E0600A7930300C9C5060000000000A2
:1070F00000000000A793030000000000BD6D060023
:10710000000000000000000000000000000000007F
:10711000000000000000000000000000000000006F
:10712000000000000000000000000000000000005F
:10713000000000000000000000000000000000004F
:10714000000000000000000000000000000000003F
:10715000000000000000000000000000000000002F
:10716000000000000000000000000000000000001F
:10717000000000000000000000000000000000000F
:1071800000000000000000000000000000000000FF
:1071900000000000000000000000000000000000EF
:1071A00000000000000000000000000000000000DF
:1071B00000000000000000000000000000000000CF
:1071C00000000000000000000000000000000000BF
:1071D00000000000000000000000000000000000AF
:1071E000000000000000000000000000000000009F
:1071F000000000000000000000000000000000008F
:1072000010B5054C237833B9044B13B10448AFF3E0
:1072100000800123237010BD60D500200000000015
:10722000A805080008B5034B1BB103490348AFF399
:10723000008008BD0000000064D50020A8050800FB
:10724000154B002B08BF134B9D46A3F5803A002138
:107250008B460F461348144A121A0FF0E9FC0F4BE5
:10726000002B00D098470E4B002B00D098470020F1
:10727000002104000D000D48002802D00C48AFF397
:1072800000800FF085FC200029000FF00BFA0FF0B2
:107290006BFC00BF0000080000000420000000009C
:1072A0000000000060D500203CC501200000000067
:1072B000000000000022C0E900220172704738B5CA
:1072C0000446006820B1856911F088FF2846F9E777
:1072D000204638BD006820B143688B4201D08069E8
:1072E000F9E77047F8B504460F4616461D46FFF706
:1072F000F1FF20B10123826005704370F8BD1C20AE
:1073000011F070FF012343700023C0E90333C0E98B
:10731000053323680570C0E9017613B92060606009
:10732000ECE763689861FAE72DE9F8430468164FC3
:1073300005460E464FF000081CB363680BB9A469FC
:10734000FAE72378002BFAD0E368A268F31A9A428E
:1073500002D961780029F2D09B1A636184F8018018
:10736000E66013F081FE63688146984713F07CFE67
:107370003B68A0EB0900206118442B7A3860002B91
:10738000DDD0BDE8F88300BF7CD50020024B1A7821
:107390000AB901221A707047D0D60020034B044866
:1073A00009221A700121FA2213F0BBBA80D50020FD
:1073B00011E3002008B5074B50B103221A700648AC
:1073C000FA22012113F0ADFA044B00221A7008BD15
:1073D0000522F3E780D5002011E30020D1D600205C
:1073E000054B064800221A70054B08221A7001212D
:1073F000FA2213F096BA00BFD1D6002011E3002084
:1074000080D5002084B004AB03E907000B4BBDF925
:107410000A201A800A4B9DF90C201A70094A0A4862
:10742000136801331360094B00221A70084B0121C5
:10743000FA22197004B013F074BA00BFB2D500205C
:10744000B4D50020C8D6002011E30020D1D60020FA
:1074500080D500202DE9FF47DFF8C0A2974D984E58
:10746000DFF8BC82012700232F7033709AF80930AF
:10747000023BBB42544600F25581924806F043FF5E
:107480009AF80B30002B00F0CC808F4A98F800302F
:1074900011789146002940F0AB8083B18B4B1B786B
:1074A0006BB905F031FB9AF80930022B0CBF884804
:1074B0008848394605F0C8F9874805F0C7FA04F04E
:1074C000EFFD10B3854B1B781BB98548012113F0E4
:1074D00008F9B4F88E0004F0BDFC002800F08C819F
:1074E000784806F013FF0390764806F011FF012458
:1074F0000023CDE900437B4B03991B7802467A4871
:1075000012F0EEFF00286ED15FE0784A117809BBD7
:10751000774B1B7803F0FF07E3B90123694889F82B
:10752000003006F0F0FE734B73481F8041F2883242
:107530006368B3FBF2F3714A1380714B1F70714B98
:1075400040F6C4121F7003213B4604B0BDE8F0476B
:1075500013F0E7B90023137098F800304BB15B4B80
:107560001B7833B96849694810F0F9F8674805F0A5
:107570006DFA637A032B2BD1654B52481B680022AE
:107580001BB2114606F0FCFD544B1B781BB9544846
:10759000012113F0A6F8B4F88E0004F05BFC00287B
:1075A00000F02A81474806F0B1FE0390454806F0F6
:1075B000AFFE01240023CDE900434A4B03991B7819
:1075C0000246494812F08CFF60B9287034700AE016
:1075D00000230093B7EE000A1A461946394806F010
:1075E00003FDD1E72C704A4A13680133136003E1AD
:1075F000002B00F00181354B1B78002B40F0FC8004
:1076000005F082FA9AF80930022B0CBF3048314855
:10761000394605F019F93F4804B0BDE8F04705F0D8
:1076200015BA98F8003083B1284B1B786BB905F078
:107630006BFA9AF80930022B0CBF254825483946C9
:1076400005F002F9344805F001FA637A032B2BD1D7
:107650002F4B1C481B6800221BB2114606F090FD00
:107660001E4B1B781BB91E48012113F03AF8B4F8E1
:107670008E0004F0EFFB002800F0BE80114806F0F9
:1076800045FE03900F4806F043FE01230021CDE99B
:107690000031144B03991B780246134812F020FF67
:1076A0000028A0D128709EE700230093B7EE000ABF
:1076B0001A461946034806F097FCD1E7D1D60020B8
:1076C000D8A30020A4D50020ACD5002000D70020EE
:1076D000681B0700781B0700891B0700D0D6002015
:1076E0006CE3002094A1002049E30020A2D50020F3
:1076F00081D5002020D7002011E3002022D70020D0
:1077000050D7002051D70020A41B0700B5D500207A
:10771000C8D60020BA1B0700CE1B070004A3002018
:10772000AFD5002098F8003073B13D4B93F800803E
:10773000B8F1000F08D105F0E7F93A48394605F0ED
:1077400083F8394B83F80080384806F0DCFD384870
:1077500012F0D6FF0746002851D0364812F05AFFE3
:10776000002846D00121242013F06DFC324B1B78F9
:1077700013B3324805F06AF9314B1B781BB9314815
:10778000012112F0AEFFE77AEFB104F089FC70B985
:107790009FED2D0A2D4B83ED000A2D4B024683ED04
:1077A000000A014600900346204806F01DFC1F48D1
:1077B00006F0ACFD80B28EE61B4B1B780BB1254862
:1077C000D8E72548D6E7B4F88E0004F043FB98B11B
:1077D0000197224B224A2348012700971B7894F8EF
:1077E0008E1012F07DFE00287FF4FDAE28703770F9
:1077F000F9E601232870337004B0BDE8F087012159
:10780000232013F020FC144805F020F93B46144ACD
:1078100094F88E10144812F00EFE01232B70E2E64D
:1078200000D70020DA1B0700A2D50020A4D5002035
:107830006DE3002054E3002081D50020EB1B0700FE
:10784000D0D600206CE300200000000034D70020D8
:1078500030D70020FC1B07000B1C070094A1002060
:1078600010A3002049E300206EE300200000000088
:107870002DE9F04F824B1A78012A8FB0054636D198
:10788000022203A81A702BF09BFD7E4B039893F9FC
:1078900091307D4C4FF46162123802FB030005A960
:1078A0002BF002FE0A9B03F26C739BB22380099BB0
:1078B0000133DBB2A3709DF8203023719DF81C309A
:1078C00063719DF81830A3719DF81430E3716F4B0C
:1078D0001B7863B12088A17822796379A679E4794D
:1078E00080B2CDE9006405F0BFFE05F003FF002182
:1078F000242013F0A8FB0021232013F0A4FB002D6B
:1079000001F0D4812B78013B072B01F21C82DFE8C8
:1079100013F008004C015B02B6027304FF04C907B0
:10792000C30905F09DFD5A4B1B78002B37D0574BF0
:107930001B78002B00F09C8005F0DCFE524A554B72
:10794000118889B219809178C9B299701179C9B238
:10795000D9705179C9B219719179C9B25971D27975
:107960004D49D2B29A710122DA7100221A72096865
:10797000D9604A490968196149491A755A750988CF
:1079800049B2D9754749097849B219765A839A8319
:10799000DA83454A126812B21A8406F023F9434B7F
:1079A0001B78002B01F08281414B1C78002C41F0A8
:1079B0007D81404940480FF0D2FE3F4905A813F0B1
:1079C00009F905AA2146204605F0BAF805A813F0E2
:1079D000BBF83A4B3A491A6837480FF089FE3649E6
:1079E00005A813F0F7F805AA2146012005F0A8F82C
:1079F00005A813F0A9F8334812F0B7FC49F06AFB68
:107A00001DA3D3E9002349F009FD0B4602462E4988
:107A100029480FF06DFE284905A813F0DBF805AAE8
:107A20002146022005F08CF805A813F08DF82748B0
:107A300012F0ACFC264902461F480FF059FE1E49C1
:107A400005A813F0C7F805AA2146032005F078F829
:107A500005A813F079F81F4812F0A9FC092800F2D4
:107A6000A280DFE800F0398E90929496989A9C9EBE
:107A700005F064FE62E700BF0000000080842E4134
:107A8000D0D6002004A30020D4D90020DCD90020C7
:107A9000B0D50020A4A1002030D7002034D700208A
:107AA000B2D50020B4D50020C4D60020AFD5002028
:107AB00000D700201D1C0700B5D50020C8D6002027
:107AC0002B1C070079E300203F1C07007AE300200D
:107AD000AA2807007BE30020874903A80FF03FFE98
:107AE000864812F064FC864B864953F8202086486D
:107AF0000FF0FEFD844905A813F06CF805AA40219B
:107B0000032005F01DF805A813F01EF87F4812F0B9
:107B10005FFC7F49421D7C480FF0EAFD7A4905A8C9
:107B200013F058F805AA4021022005F009F805A82D
:107B300013F00AF8774B78491A88734812B20FF09D
:107B4000D7FD714905A813F045F805AA00210420C6
:107B500004F0F6FF05A812F0F7FF704B70491A7891
:107B600052B269480FF0C4FD674905A813F032F816
:107B700005AA4021042004F0E3FF05A812F0E4FF69
:107B800016E36849A9E76849A7E76849A5E768498E
:107B9000A3E76849A1E768499FE768499DE7684905
:107BA0009BE7684999E7684997E705F059FC674BF7
:107BB00000221A70664B1B78002B35D0654B1B7862
:107BC000002B6BD005F096FD634B644C1A8864481B
:107BD00092B222809A78D2B2A2701A79D2B2E270AE
:107BE0005A79D2B222719A79D2B26271DB795D4A46
:107BF000DBB2A3710023E37123721268E2605A4A78
:107C00001268226123756375E37523766383A3830A
:107C1000E383564B1B681BB2238412F00FFD40B266
:107C200084F8220005F0DEFF514B1B78002B01F099
:107C30003D80504B1C78002C41F038804E49324832
:107C40004E4D0FF08CFD304905A812F0C3FF05AA78
:107C50002146204604F074FF05A812F075FF2A683B
:107C6000474929480FF044FD274905A812F0B2FF03
:107C700005AA2146022004F063FF05A812F064FF64
:107C80002B68013B0F2B35D8DFE803F00B16181AD1
:107C90001C1E20222426282A2C2E303205F04EFDD0
:107CA00092E7384918480FF05AFD174905A812F015
:107CB00091FF05AA00215DE73349F3E73349F1E776
:107CC0003349EFE73349EDE73349EBE73349E9E778
:107CD0003349E7E73349E5E73349E3E73349E1E788
:107CE0003349DFE73349DDE73349DBE73349D9E798
:107CF0003349D7E73349D5E7461C07007BE300202B
:107D00007CA200207C1C0700B5D500207CE300206D
:107D1000C3280700B2D50020151E0700B4D50020E7
:107D2000201E07004A1C07004E1C0700521C0700BB
:107D3000561C07005B1C0700611C0700671C07003E
:107D40006D1C0700731C0700781C0700D1D60020AB
:107D5000B0D50020DCD90020D4D90020A4A1002077
:107D600058E3002030D7002034D70020C4D60020AC
:107D7000AFD5002000D70020821C0700D4D60020F9
:107D8000911C07009B1C0700A91C0700B41C0700DE
:107D9000C01C0700CC1C0700D61C0700E01C070015
:107DA000EC1C0700001D0700131D0700231D070022
:107DB000301D07003A1D07004A1D0700581D070027
:107DC000641D0700751D070005F04AFBA24B1B78D8
:107DD000002B00F06B87A14B1E78002E40F06687C9
:107DE0009F4C657A022D41D0032D46D05DB99D4947
:107DF00005A812F0EFFE05AA2946084604F0A0FEE9
:107E000005A812F0A1FE4FF47A7362689649B2FB9E
:107E1000F3F296480FF06CFC944905A812F0DAFED4
:107E200005AA0021012004F08BFE05A812F08CFEAB
:107E30008F4905A812F0CEFE002105AA022004F009
:107E40007FFE05A812F080FE8A4988480FF087FC63
:107E5000864905A812F0BEFE002105AA032004F001
:107E60006FFE05A812F070FE81491FE7824905A840
:107E700012F0B0FE05AA3146BFE78049F7E705F0EA
:107E8000EFFA7F4B1B78002B45D07E4B1B78002BE5
:107E900000F0DE8005F02EFC7B4B7C4C1A887C4881
:107EA00092B222809A78D2B2A2701A79D2B2E270DB
:107EB0005A79D2B222719A79D2B26271DB79754A5B
:107EC000DBB2A3710023E3711278D2B22272724A3C
:107ED0001268E260714A12682261714A118849B2DF
:107EE0002175118849B26175128852B2E2756D4AE6
:107EF000127852B222766383A3836B4B1B78E383A1
:107F00006A4B1B681BB2238412F098FB40B284F8C2
:107F1000220005F067FE504B1B78002B00F0C68650
:107F20004E4B1C78002C40F0C186614D614B297886
:107F3000614A4E485D4FDFF8A481002918BF1A46F8
:107F40005E490FF0D5FB494905A812F043FE05AA8A
:107F50002146204604F0F4FD05A812F0F5FD2B782B
:107F600003F0FF06002B40F0BB804F4B54491A78BA
:107F70003E480FF0BDFB3D4905A812F02BFE05AAB7
:107F80003146012004F0DCFD05A812F0DDFD40487B
:107F900012F054FB4B49024634480FF0A9FB334919
:107FA00005A812F017FE05AA3146022004F0C8FD0C
:107FB00005A812F0C9FD374B43491A782B480FF03A
:107FC00097FB2A4905A812F005FE05AA40210220C8
:107FD00004F0B6FD05A812F0B7FDD8F800203B4923
:107FE00022480FF085FB214905A812F0F3FD05AAF0
:107FF0003146032004F0A4FD05A812F0A5FD3A685F
:1080000033491A480FF074FB184905A812F0E2FD35
:1080100005AA4021032004F093FD05A812F094FD69
:108020001F4B2C491A88114812B20FF061FB0F49FF
:1080300005A812F0CFFD05AA3146042004F080FD0A
:1080400005A812F081FD174B23491A7852B288E532
:1080500005F074FB20E700BFAFD5002000D700205B
:1080600004A30020831D0700B71D0700B5D500201D
:108070006BC70700E01C0700921D0700A31D070047
:10808000B0D50020DCD90020D4D90020A4A1002044
:1080900058E30020B6D6002030D7002034D7002087
:1080A000B2D50020B4D50020B5D60020C4D600201B
:1080B000B7D60020191C07005E1F0700CB1D070064
:1080C000DC1D0700F01D0700F91D0700021E070058
:1080D0000A1E0700121E07001D1E0700C8D600203A
:1080E000D8F800206A496B480FF002FB694905A8DF
:1080F00012F070FD05AA2146012004F021FD05A81B
:1081000012F022FD3A68644962480FF0F1FA6149C1
:1081100005A812F05FFD05AA4021012004F010FD22
:1081200005A812F011FD2A785C495A480FF0E0FAD0
:10813000584905A812F04EFD05AA2146022004F078
:10814000FFFC05A812F000FD2B78013B0F2B51D846
:10815000DFE803F008323436383A3C3E40424446C9
:10816000484A4C4E4E494B480FF0F9FA494905A888
:1081700012F030FD05AA0021032004F0E1FC05A85F
:1081800012F0E2FC474812F059FA474902464148CA
:108190000FF0AEFA3F4905A812F01CFD05AA002118
:1081A000042004F0CDFC05A812F0CEFC04F0E2FCA3
:1081B00004F0E0FC00F07ABD3C49D4E73C49D2E74A
:1081C0003C49D0E73C49CEE73C49CCE73C49CAE7CB
:1081D0003C49C8E73C49C6E73C49C4E73C49C2E7DB
:1081E0003C49C0E73C49BEE73C49BCE73C49BAE7EB
:1081F0003C49B8E73C49B6E705F032F93B4B1B7800
:10820000002B00F053853A4B1E78002E40F04E852F
:10821000384C657A022D31D0032D36D05DB9364900
:1082200005A812F0D7FC05AA2946084604F088FCE8
:1082300005A812F089FC4FF47A7362682F49B2FBEB
:10824000F3F214480FF054FA124905A812F0C2FCD8
:1082500005AA0021012004F073FC05A812F074FCAB
:10826000274905A812F0B6FC002105AA022004F057
:1082700067FC05A812F068FC2249E6E5224905A83A
:1082800012F0A8FC05AA3146CFE72049F7E700BF66
:10829000021E0700B5D500200A1E0700271E070092
:1082A0009B1C070058E300203C1E0700A91C070088
:1082B000B41C0700C01C0700CC1C0700D61C07001C
:1082C000E01C0700EC1C0700001D0700131D070041
:1082D000231D0700301D07003A1D07004A1D070037
:1082E000581D0700641D0700751D0700AFD500204D
:1082F00000D7002004A30020831D0700B71D07003E
:108300006BC70700451E0700921D0700A31D07004D
:10831000984F05F0A5F87B7A9749032B974B40F0CF
:108320005F811A785E78DD781C7993F8028093F883
:1083300005A093F907B00B7806EB0226C5EB4510B4
:10834000B6B20A22B6FBF2F207EE902A05EB8005E0
:10835000C4EB44108A4AF8EEE77A04EB800408F193
:1083600038086D006400C2ED007A4FFA88F82DB22B
:1083700024B24FEA2A1A9146002B41D0814B1B7838
:10838000002B00F0E28005F0B5F97F4A7F4B1188A1
:108390007F4889B219809178C9B299701179C9B2B0
:1083A000D9705179C9B219719179C9B25971D2791B
:1083B000D2B29A710322DA715FFA8AF21A72754A9E
:1083C0001268DA60744A12681A610021734A1975DA
:1083D00083F8158083F816B0128852B2DA75704AA5
:1083E000127836B252B21A765D839C83D9831E848A
:1083F00012F024F9654B40B283F8220005F0F2FB3D
:10840000684B1B78002B00F05184674B1B78002BC6
:1084100040F04C8404F078FB7B7A022B0CBF63485D
:108420006348012104F010FA5D4B62491A785B4BF6
:1084300061481B8852B21BB20FF05AF95E4905A879
:1084400012F0C8FB0021084605AA04F079FB05A834
:1084500012F07AFB43465A46584957480FF048F9FC
:10846000554905A812F0B6FB05AA0021012004F029
:1084700067FB05A812F068FB524651494E480FF0C1
:1084800037F94D4905A812F0A5FB05AA00210220E5
:1084900004F056FB05A812F057FB4A4905A812F054
:1084A00099FB05AA3221022004F04AFB05A812F02C
:1084B0004BFB454905A812F08DFB05AA502102206F
:1084C00004F03EFB05A812F03FFB404905A812F05E
:1084D00081FB05AA0021032004F032FB05A812F05D
:1084E00033FBFE7A3A4F002E32D02A4639493248C1
:1084F0000FF0FEF8304905A812F06CFB05AA3221F6
:10850000032004F01DFB05A812F01EFB31492A4888
:1085100022460FF0EDF8284905A812F05BFB05AAEA
:108520005021032004F00CFB05A812F00DFBD9F834
:1085300000003C6848F0F0FD009402460B461E48DF
:1085400025490FF0D5F8FFF7B0BB05F0F7F81CE7A9
:10855000224919480FF003F9174905A812F03AFB10
:1085600005AA3221032004F0EBFA05A812F0ECFA78
:10857000D1E700BF04A30020B0D5002082D50020A1
:10858000CCD60020DCD90020D4D90020A4A1002022
:1085900058E3002030D7002034D70020B2D5002087
:1085A000B4D50020AFD5002000D70020681B0700FD
:1085B000781B07005B1E0700B5D50020721E070060
:1085C000891E0700941E0700981E07009C1E0700C6
:1085D000C8D60020ED1D0700A51E0700BA1E070023
:1085E000DD7893F801809E7893F805A0C5EB4512DD
:1085F00005EB82051A790B78C2EB421902EB890967
:10860000A8F1C808C83E6D004FEA49091FFA88F86A
:10861000B6B22DB20FFA89F9002B42D0894B1B78E4
:10862000002B00F0FB8005F065F8874B874C1A881B
:10863000874892B222809A78D2B2A2701A79D2B2C6
:10864000E2705A79D2B222719A79D2B26271DB7930
:10865000DBB2A3710223E3717E4B84F808A01B6890
:10866000E3607D4B1B6823614FFA88F3237573B277
:1086700063757A4B1B885BB2E375794B1B785BB2F1
:10868000237600236583A4F81C90E383754B1B6855
:108690001BB2238411F0D2FF40B284F8220005F00F
:1086A000A1FA714B1B78002B00F000836F4B1B78F5
:1086B000002B40F0FB8204F027FA7B7A022B0CBFE0
:1086C0006B486C48012104F0BFF8654B6A491A7881
:1086D000624B6A481B8852B21BB20FF009F8674917
:1086E00005A812F077FA0021084605AA04F028FA36
:1086F00005A812F029FA4FFA8AF261495F480EF094
:10870000F7FF5E4905A812F065FA05AA00210120CD
:1087100004F016FA05A812F017FA5A4905A812F043
:1087200059FA05AA3221012004F00AFA05A812F02C
:108730000BFA554905A812F04DFA05AA502101205F
:1087400004F0FEF905A812F0FFF9504905A812F04F
:1087500041FA05AA0021022004F0F2F905A812F05E
:10876000F3F94B4905A812F035FA05AA00210320B8
:1087700004F0E6F905A812F0E7F90FFA88F2454986
:108780003E480EF0B5FF3D4905A812F023FA05AAB0
:108790003221022004F0D4F905A812F0D5F932B242
:1087A0003C4936483C4E0EF0A3FF344905A812F070
:1087B00011FA05AA3221032004F0C2F905A812F02B
:1087C000C3F9FC7A274F64B32A4632492B480EF08E
:1087D0008FFF2A4905A812F0FDF905AA50210220B1
:1087E00004F0AEF905A812F0AFF92A4923484A4629
:1087F0000EF07EFF214905A812F0ECF905AA5021E0
:10880000032004F09DF905A812F09EF93A68234967
:1088100033681A480EF06CFFFFF747BA04F08EFF7A
:1088200003E71F4915480EF09AFF144905A812F0F6
:10883000D1F905AA5021022004F082F905A812F00E
:1088400083F9D7E7DCD90020D4D90020A4A10020E7
:1088500058E3002030D7002034D70020B2D50020C4
:10886000B4D50020C4D60020AFD5002000D700200A
:10887000681B0700781B07005B1E0700B5D50020AA
:10888000891E0700A67307009C1E0700941E0700A0
:10889000981E0700ED1D0700C8D60020BD1E07006A
:1088A000BA1E070004F0DCFD9F48042112F043F8D3
:1088B0009E4B1B78002B37D09D4B1B78002B00F074
:1088C000ED8004F017FF9B4B9B4C1A889B4892B29B
:1088D00022809A78D2B2A2701A79D2B2E2705A7912
:1088E000D2B222719A79D2B26271DB79944ADBB248
:1088F000A3710223E371002323721268E260914A9C
:108900001268226123756375E37523766383A383FD
:10891000E3838D4B1B681BB2238411F08FFE40B2A2
:1089200084F8220005F05EF9884B1B78002B00F0DC
:10893000BD81874B1B78002B40F0B881854D864C5C
:1089400004F0E2F86B7A032B0CBF844884480121C1
:1089500003F07AFF834984480EF001FF824905A89D
:1089600012F038F90021084605AA04F0E9F805A834
:1089700012F0EAF87D4B1E78002E00F071817C4FDA
:10898000DFF8C4914FF0000883F800803B7803F0D3
:10899000FF06002B40F08580764B77491A787248A5
:1089A0000EF0A6FE704905A812F014F905AA31468A
:1089B000012004F0C5F805A812F0C6F85F4811F0D0
:1089C0003DFE6E49024668480EF092FE664905A8D3
:1089D00012F000F905AA3146022004F0B1F805A80A
:1089E00012F0B2F8664B67491A785F480EF080FEC5
:1089F0005D4905A812F0EEF805AA4021022004F016
:108A00009FF805A812F0A0F822685F4956480EF0BA
:108A10006FFE554905A812F0DDF805AA314603207E
:108A200004F08EF805A812F08FF8D9F80020574905
:108A30004D480EF05DFE4C4905A812F0CBF805AA92
:108A40004021032004F07CF805A812F07DF8504B7B
:108A500050491A88444812B20EF04AFE424905A80D
:108A600012F0B8F805AA3146042004F069F805A808
:108A700012F06AF8484B49491A783B4852B20EF056
:108A800037FE394905A812F0A5F805AA40210420AF
:108A900004F056F805A812F057F8A9E004F04EFECD
:108AA00011E72268384930480EF022FE2E4905A809
:108AB00012F090F805AA4146012004F041F805A8FB
:108AC00012F042F8D9F80020304927480EF010FE85
:108AD000254905A812F07EF805AA4021012004F0DE
:108AE0002FF805A812F030F83A782D491E480EF0FC
:108AF000FFFD1D4905A812F06DF805AA41460220A8
:108B000004F01EF805A812F01FF83B78013B0F2B6C
:108B100000F2A480DFE803F0468486888A8C8E9079
:108B2000929496989A9C9EA011E30020B0D50020C4
:108B3000DCD90020D4D90020A4A1002058E30020D3
:108B400030D7002034D70020C4D60020AFD5002075
:108B500000D7002004A30020C8D60020D11E0700A3
:108B6000681B0700E21E0700B5D50020AED5002027
:108B7000B7D60020B5D60020DC1D0700F01D070089
:108B8000B6D60020F91D0700021E07000A1E0700C6
:108B9000B2D50020121E0700B4D500201D1E07000C
:108BA000271E0700714972480EF0D9FD704905A8CB
:108BB00012F010F805AA0021032003F0C1FF05A858
:108BC00011F0C2FF6B4811F039FD6B49024668484D
:108BD0000EF08EFD664905A811F0FCFF05AA0021E4
:108BE000042003F0ADFF05A811F0AEFF03F0C2FFB3
:108BF0006B7A032B48D1614B1868246848F08CFAD3
:108C0000009402460B465A485D490EF071FD5849E2
:108C100005A811F0DFFF05AA00210520FEF7ABBF74
:108C20005849C0E75849BEE75849BCE75849BAE730
:108C30005849B8E75849B6E75849B4E75849B2E740
:108C40005849B0E75849AEE75849ACE75849AAE750
:108C50005849A8E75849A6E75849A4E75849A2E760
:108C6000584905A811F0B6FF05AA3146022003F0C5
:108C700067FF05A811F068FF534905A811F0AAFF86
:108C800005AA3146032003E7504B51491A6838487A
:108C900023680EF02DFDBAE704F0E2FB4D4B5C7A41
:108CA0003CB1012C2AD04C4B00221A700FB0BDE809
:108CB000F08F03F029FF4948012103F0C5FD484921
:108CC00005A811F087FF05AA2146204603F038FFCA
:108CD00005A811F039FF434925480EF040FD24490D
:108CE00005A811F077FF05AA2146032003F028FF0D
:108CF00005A811F029FF03F03DFFD4E73A4B1B789C
:108D0000002BD0D0394B1D78002DCCD103F0FCFEC8
:108D10003248214603F098FD354905A811F05AFF65
:108D200005AA2946284603F00BFF05A811F00CFF01
:108D30002C490F480EF013FD0D4905A811F04AFF0C
:108D400005AA2946D1E7284B1B78002BAED0274B2C
:108D50001C78002CAAD103F0D7FE264905A811F0F3
:108D600039FF05AA21462046FEF705BF9B1C0700D8
:108D7000B5D5002058E300203C1E0700CCD60020CB
:108D8000A51E0700A91C0700B41C0700C01C070093
:108D9000CC1C0700D61C0700E01C0700EC1C0700D9
:108DA000001D0700131D0700231D0700301D0700CD
:108DB0003A1D07004A1D0700581D0700641D0700E3
:108DC000751D0700F71E07000B1F0700C4D6002003
:108DD000BD1E070004A30020D1D60020DA1B070027
:108DE000831D07001F1F0700AFD5002000D70020FC
:108DF0001D1C07002B1F070010B5044605F07CFA68
:108E0000204610BD0F4BB0B100221A700E4B0F4A16
:108E100018600F4B11685B7A023B012B01F10101D5
:108E20000C4B116094BF072202221A700A48FA22E2
:108E3000012111F076BD1B7813B1064B0822F4E72F
:108E4000704700BFD1D60020D4D60020C4D6002061
:108E500004A3002080D5002011E30020174B00223E
:108E60001A70174B90F906201A70164BB0F90420AF
:108E70001A80154A03781370144A41781170144A05
:108E800081781170134A012111701BB1124A1368C5
:108E90000B441360114B12485B7A023B012B114BC0
:108EA00095BF072204221A701A7099BF42F21072FD
:108EB0000421FA22012111F034BD00BFD1D60020D7
:108EC000B4D50020B2D50020B7D60020B5D60020FA
:108ED000B6D60020AED50020C4D6002004A30020C2
:108EE00011E3002080D5002038B5164BB0F90A20D8
:108EF0001A80154B90F90C201A70144B42781A7096
:108F000003780446EBB1124B5B7A023B012B15D878
:108F10001048042111F00FFD2378023B012B0DD8DE
:108F20000D4D227A61680D4806232B700DF072FEFC
:108F300008482B46FA22012111F0F3FC084B0022CD
:108F40001A7038BDB2D50020B4D50020B1D50020AC
:108F500004A3002011E3002080D5002082D500204A
:108F6000D1D6002030B54FF080432DED028BD3F8E1
:108F70003834032B83B027D01448144D11F09CFCD7
:108F80000A24B0EE408A284611F096FC013C38EEE7
:108F9000008AF8D1B2EE067AC8EE077A9FED0C7A15
:108FA000DFED0C6A67EE877A9FED0B7A67EE877AC2
:108FB00087EEA67AFCEEC77ACDED017A9DF8040023
:108FC00003B0BDEC028B30BD0020F9E70DE30020BB
:108FD00000007A440040834500007F4308B5064BFB
:108FE0001B783BB112F03BF8BDE80840014603484E
:108FF000FEF79AB908BD00BF01D70020B8D60020FF
:109000001F4B07B501221F481A7011F02CFA18B136
:109010001D48002111F0F1F91C4811F075FB1C49A5
:109020001C4811F083FA1C491A4811F08FFA1B49A9
:10903000184811F083FA1A49164811F08FFA1949A5
:10904000144811F093FA0021174811F0CDFA0221CB
:10905000164811F037FB32230122009311460A23F0
:109060000C4811F022FA124BD97A01B101212220C9
:1090700011F0E9FF0F4B02221A7003B05DF804FBF8
:10908000A2A1002084E300206EE300206DE3002015
:10909000E98E020049E30020058E0200B57302004C
:1090A0005D8E02008D73020051E300206BE300200F
:1090B00004A3002094A1002008B50F4B0F48002105
:1090C000197011F09AF90E4811F0D1F90D490B48B9
:1090D00011F0DAF90C49094811F0DEF94FF6FD718B
:1090E000064811F08AF9094BD97A01B10121BDE88E
:1090F0000840222011F0A7BFA2A100206EE30020AB
:1091000084E3002005740200E173020004A3002040
:109110001F4B07B501221F481A7011F0A4F918B1AE
:109120001D48002111F069F91C4811F0EDFA1C49A5
:109130001C4811F0FBF91C491A4811F007FA1B49A9
:10914000184811F0FBF91A49164811F007FA1949A5
:10915000144811F00BFA0021174811F045FA0221CA
:10916000164811F0AFFA3223012200930D480A236A
:10917000114611F09AF9124BDB7A1BB10121222022
:1091800011F061FF0F4B01221A7003B05DF804FB70
:10919000A2A1002084E300206EE300206DE3002004
:1091A000E98E020049E30020058E0200B57302003B
:1091B0005D8E02008D73020051E300206BE30020FE
:1091C00004A3002094A1002010B50B4C00212046E0
:1091D000FEF770F82046094C094A0A490DF0ACFC2C
:1091E000FF21204605F07CF82046054A0649BDE8E7
:1091F00010400DF0A1BC00BFB8D60020A4D50020BF
:1092000090A10020BF720200F98D02002DE9F04FFD
:10921000012187B0222011F0FFFE0121232011F04F
:10922000FBFE0121242011F0F7FEAF48AF4E11F0F4
:109230007BFD03F0D5FA307068B1AD49AD480EF052
:109240008EFAAC48012103F0FFFAAB4803F0FEFBB5
:10925000AA4803F0FBFB0021222011F0F4FE0223B8
:10926000A74806224FF4E13111F00CF84FF080438B
:10927000D3F83834032B73D14FF4FA601BF0CEFCD3
:109280000923022203AC9F4900939A489E4D9F4FA9
:1092900000230EF02DFA9749204611F09BFC214641
:1092A0009B4811F0DDFA204611F04EFC01212320ED
:1092B00011F0C9FE0021232011F0C5FE0021242059
:1092C00011F0C1FE02F090FA02F0BAFA02F0A2FA2E
:1092D00002F0F0F902F004FA02F018FA02F0C6FA0D
:1092E00002F056FA02F026FD00F03EFA002000F0EF
:1092F0005DF96B7A023B012B5AD8012002F0D8FDB0
:1093000038703B7813B1834803F0A0FB04F0FCF8FD
:10931000814F387060B104F0EDF994E803002AF051
:109320002EF802F01FFA3B7813B17C4803F08EFB55
:1093300004F05EFA7A4F387048B104F073FB38706D
:1093400002F0FAF93B7813B1764803F07FFB02F0A4
:1093500035FA6B7A032B2FD8DFE803F052AEB7C48F
:1093600011F07DFEDFF898A107464FF0000B41F2A7
:1093700087384FF00009504610F069FF00287FF44D
:109380007FAF11F06CFEC41B6BEB4B05A04579EB76
:109390000503FFF675AF64201BF040FC232011F09D
:1093A00057FEB0FA80F14909232011F04CFEE2E7A4
:1093B000E87A0028A1D1A1E733780BB35A494D4888
:1093C0000EF0CDF94B49204611F004FC0021224655
:1093D000084603F0B5FB204611F0B6FB534945485B
:1093E0000EF0BDF94349204611F0F4FB224600215E
:1093F000012003F0A5FB204611F0A6FB03F0BAFB09
:109400004B4803F023FB4B4811F004F910B94A48CC
:1094100003F01CFBFFF7F4FD4FF47A7347496A68C9
:109420003448B2FBF3F20EF063F9324803F00EFB5E
:10943000434A44480123002111F069FA6A6822B1C5
:1094400000234048194611F06CFA3F4A3D4800237A
:10945000012111F05CFA00233C4A3A48022111F044
:1094600056FAAB7A33B1374800234EF66022022118
:1094700011F057FA364A33480123032111F047FA15
:109480000023344A2F48042111F041FA324B1B7853
:109490005BB1284811F0BEF838B93223012200939D
:1094A0002E480A23114611F000F801212C4811F032
:1094B000AAFD07B0BDE8F08FFFF7FEFD294803F0D5
:1094C000C5FA294803F0C2FAA6E7284803F0BEFA15
:1094D000184811F09FF810B9174803F0B7FAFFF7D2
:1094E00017FE99E72248F1E78CE30020AFD5002072
:1094F000DA1B0700B5D50020391F0700461F0700FB
:1095000030E200206C27070004A30020ADD5002026
:10951000B8E20020521F0700DCD900205A1F0700C4
:10952000B0D50020611F07006C1F07007E1F0700D9
:10953000831D070054E300208E1F0700B71D07009E
:109540005574020011E3002071780200C9CB0200BB
:10955000BDC302009D730200A2A1002049E30020C8
:10956000A9E20020221C07009C1F0700921D070093
:10957000A31D07007047000008B5054805F02AF84C
:10958000034805F046F8BDE80840014805F060B81A
:10959000D8D6002007B531220DF10701024805F0A9
:1095A00061F803B05DF804FBD8D6002073B5002144
:1095B0000446112011F030FD524811F0B5FB524B1A
:1095C000002C00F0848000229A800A22DA804FF476
:1095D00081721A8140F201125A814B4805F0D2F88B
:1095E0000546002840F08B80002C38D02A223021FC
:1095F00045488DF80720012604F0DEFE08223221BE
:1096000041488DF8072004F0D7FE324633213E480A
:109610008DF8076004F0D0FE24220DF107013A48CE
:1096200005F020F89DF80720374822F00C0242F0A0
:10963000080224218DF8072004F0BEFE60222221BA
:1096400031488DF8072004F0B7FE2A4625212E4820
:1096500004F0B2FE2C483246212104F0ADFE002574
:1096600020220DF1070128488DF8075004F0FAFF79
:109670009DF80720244842F0080220218DF8072099
:1096800004F09AFE64201BF0C9FA1E220DF10701B6
:109690001D488DF8075004F0E5FF9DF807201A4893
:1096A00042F090021E218DF8072004F085FE642010
:1096B0001BF0B4FA8CB1FFF76DFF1449042211209E
:1096C00010F0A4FDFFF758FF204602B070BD022243
:1096D0009C80DC801A815C817FE720220DF10701EC
:1096E000094804F0BFFF9DF80720074802F0400238
:1096F00020218DF80720012404F05EFEE4E7002419
:10970000E2E700BF8CE30020D8D600207595020068
:1097100002481822002104F009BE00BFD8D600205C
:10972000D0B511F09CFC0D4C0D4B0021C3E900019C
:1097300011F095FCD4E90032C61A62EB4207C92E3B
:1097400077F1000309DB11F08AFC064A2060002350
:10975000636013780133DBB21370D0BDF0D6002004
:10976000F8D6002001D7002008B50221092011F009
:1097700053FC06490322092010F048FD044905481E
:1097800001236422FDF7AEFD012008BD21970200F0
:109790007D9D0200B8D600202DE9F04FC74D91B055
:1097A00011F05DFCD5E900230024811A64EB03036A
:1097B00000910193DDE9002340F6B830002190428A
:1097C00071EB0303A346A246A146A04627462646C0
:1097D00077DB11F044FCD5E90023811A63EB4303E6
:1097E00002910393DDE90223B2F5C87F73F1000310
:1097F00073DA11F034FCD5E90023811A63EB4303DB
:1098000004910593DDE90434B3F5C87F74F10003D6
:1098100080F2858011F023FCD5E90023811A63EBE7
:10982000430306910793DDE90634B3F5167F74F11F
:10983000000380F2998011F012FCD5E90023811A0F
:1098400063EB430308910993DDE90834B3F5487FDE
:1098500074F1000380F2AE8011F001FCD5E9002321
:10986000811A63EB43030A910B93DDE90A34B3F5E4
:10987000966F74F1000380F2C08011F0F0FBD5E91F
:109880000023811A63EB43030C910D93DDE90C3443
:10989000B3F5AF6F74F1000380F2D28011F0DFFBFB
:1098A000D5E90023811A63EB43030E910F93DDE9A1
:1098B0000E34B3F5C86F74F1000380F2E28008241F
:1098C00074E0092011F0C4FB002882D17C4B1B7886
:1098D000002B3FF47EAF022468E0794B1B78012B0C
:1098E00087D1092011F0B4FB012882D10023C82CB4
:1098F00010D00920009311F0ABFB009B012804BF9E
:109900000133DBB2012001340093E4B21BF086F98D
:10991000009BECE7C62B7FF66CAF002446E0684B5B
:109920001B78022B7FF476AF092011F091FB012800
:109930007FF470AF0024BBF1C80F10D0092011F0E4
:1099400087FB012808BF01344FF001000BF1010B28
:1099500008BFE4B25FFA8BFB1BF060F9EBE7C62CA3
:109960007FF658AF012421E0554B1B78032BDCB266
:109970007FF461AF4FF0000BBAF1C80F12D009208D
:1099800011F066FB012808BF0BF1010B4FF001003D
:109990000AF1010A08BF5FFA8BFB5FFA8AFA1BF033
:1099A0003DF9E9E7BBF1C60F7FF645AF204611B0A0
:1099B000BDE8F08F424B1B78042BDCB27FF44CAF38
:1099C0004FF0000AB9F1C80F12D0092011F040FB86
:1099D000012808BF0AF1010A4FF0010009F101094D
:1099E00008BF5FFA8AFA5FFA89F91BF017F9E9E70D
:1099F000BAF1C60F7FF630AFD8E7314B1B78052B95
:109A0000DCB27FF43AAF4FF00009B8F1C80F12D0C2
:109A1000092011F01DFB012808BF09F101094FF0D1
:109A2000010008F1010808BF5FFA89F95FFA88F8B8
:109A30001BF0F4F8E9E7B9F1C60F7FF61EAFB5E702
:109A40001F4B1B78062BDCB27FF428AF4FF00008C9
:109A5000C82F11D0092011F0FBFA012808BF08F126
:109A600001084FF0010007F1010708BF5FFA88F80D
:109A7000FFB21BF0D3F8EBE7B8F1C60F7FF60EAFDD
:109A800094E70F4B1B78072BDCB27FF418AF00254F
:109A9000C82E0FD0092011F0DBFA012808BF0135CC
:109AA0004FF0010006F1010608BFEDB2F6B21BF05F
:109AB000B5F8EDE7C62D7FF602AF77E7F8D60020C0
:109AC00001D7002073B58A4D8A4C6A7A637A9A422C
:109AD00030D003F019F80021874802F0B5FE6B681A
:109AE00063606B7A854863726B89638102F0AEFFB5
:109AF000834802F0ABFF03F03DF801F0DDFE40F6D5
:109B0000B8301BF08BF8637A7E48012B4FF00001D0
:109B10004FF0320678D110F070FC00227A4800969F
:109B20000A23114610F0C1FC784810F0A0FC7848D8
:109B300010F0C0FEEA7AE37A9A4207D06B7A023BD1
:109B4000012B94BF0120002002F0B2F96A6863681B
:109B50009A4203D16A8963899A4213D002F0D4FFF2
:109B6000664802F073FF664802F070FF03F002F8E7
:109B70006B6863606B89638101F09EFE40F6B830CC
:109B80001BF04CF8634810F0BBFD002849D0624838
:109B900010F042FD614B1978884205D000395E48CB
:109BA00018BF012110F03AFD5D4810F047FD5D4BF4
:109BB0001978884202D05A4810F042FD5A4810F0F5
:109BC0004FFD5A4B1978884202D0574810F04AFD91
:109BD000574D58482E7810F055FD86420BD0297805
:109BE000544810F05BFD32230122009346480A23BB
:109BF000114610F05AFC02F087FF637A032B50D80D
:109C0000DFE803F04C6E707210F0F7FB0122009653
:109C10000A2311463C4810F048FC3E4810F074FD01
:109C200085E7454D4548296810F0A1FB434810F0F1
:109C30009CFB2968884202D0404810F098FB4048BD
:109C400010F0A4FB3F4B1978884202D03C4810F03A
:109C50009FFB3D4D3D482E7810F0A9FB864203D076
:109C600029783A4810F0A5FB394810F0B1FB394B80
:109C70001978884202D0364810F0ACFB364810F014
:109C8000BAFB364B1978884202D0334810F0C4FB37
:109C90004FF6FD711B4810F0B0FBACE7304802F006
:109CA000D5FE4FF47A7362682E49B2FBF3F22E4868
:109CB0000DF01EFD2C4802F0C9FE626822B100239F
:109CC0002A48194610F02DFEA37A7BB127480023BD
:109CD0004EF66022022102B0BDE8704010F021BEB5
:109CE0002348DCE72348DAE72348D8E702B070BD11
:109CF000D0A1002004A30020AA1F0700B11F070065
:109D0000C11F07006EE3002049E3002084E3002028
:109D1000A8E200206DE3002055E3002003D70020D7
:109D200058E3002005D7002060E3002006D700207C
:109D300004D700206AE3002010D7002079E3002038
:109D40007AE3002014D700200BD700207BE300200B
:109D50007CE300200CD700207EE3002015D70020F4
:109D6000831D0700B71D0700B5D5002011E30020B3
:109D7000221C0700921D0700A31D07002DE9F04FCC
:109D800087B0FFF709FD072800F2CC81DFE810F06B
:109D9000BC044A030800CD01B00053002D001A0096
:109DA000914B00201870914B00240025C3E9004519
:109DB0008F4B1B7823B107B0BDE8F04F02F0E2BE35
:109DC0000120F8E7884B00221A70884B0020002100
:109DD000C3E90001874B1C783CB902F095FE864828
:109DE000214602F031FD1AF030FF7F4B00221A703D
:109DF0007E4B00200021C3E900017E4B1C7874B12A
:109E00007E4B1A78052A40F08D8110221A707C4B07
:109E1000D97A01919B7A00937A4B1B785BE002F030
:109E200073FE7948214602F00FFD784807B0BDE87F
:109E3000F04F10F03FBD6C4B00221A706B4B0020AE
:109E40000021C3E900016B4B1B78002B00F06A81F5
:109E50006A4C2378052B00F26581DFE813F00600D9
:109E600063016301220030004000694810F048FCA3
:109E70000128634B0AD104222270D97A01919B7A7E
:109E80006449009309786448FF2315E00522227095
:109E9000D97A01919B7A6149009309786048FF2340
:109EA0000AE0574B0322D97A5A7201919B7A0093A8
:109EB00005235C495C48097802F08AFE32E10723F9
:109EC0005A48237010F0DEFB4D4AD37A0193937AFF
:109ED0000093C3B22278564956480978ECE7484BBC
:109EE0000E22D97A227001919B7A0093524B94E70B
:109EF0003D4B00221A703D4B00200021C3E90001B8
:109F00003C4B1B78002B00F0A5803C4C2378062BA3
:109F100000F20881DFE813F007001F0312002000A1
:109F20002A0057006000364903224B7AC87A227013
:109F30000190897A00910233DBB2BAE7304A937A12
:109F400083F001039372D27A019200930222FF23DD
:109F50003A493B480978AFE7294B02225A72DA7A2C
:109F600001929B7A009304230322A2E70A232F483D
:109F7000237010F087FBC0B20C280ED8DFE800F089
:109F80000717171D171D1D17171717171D002D4B26
:109F900000221A702C4B05221A70194A2B4BD17AC9
:109FA0001B780191927A00920A33DBB292E7254B3B
:109FB00000221A70244B0722EEE7224B00221A706F
:109FC000214B0A22E8E70E4B0D22D97A227001912B
:109FD0009B7A00931E4B20E7094BDA7A01929B7A19
:109FE000009300233AE100BF01D70020F8D60020FB
:109FF0004CA5002000D70020D21F070002D7002068
:10A00000D0A1002015D70020DD1F0700A8E2002006
:10A010006DE30020B8A20020A4A20020E8A2002046
:10A02000D0A2002078A2002064A200206AE30020D1
:10A03000CCA10020C8A100200CD70020CCA2002079
:10A04000BCA200200AD7002008D7002005D7002096
:10A050000BD700209E4810F053FB012862D19D4D84
:10A060006A7A012A5ED09C4E3278002A5AD19B4CE3
:10A070009B4B20701B7804940BB902F083FD0021E8
:10A080009848DFF86CB210F056FC974810F0FAFAD6
:10A09000964B53F820309648039310F0CFFA4FF0C8
:10A0A000000A0746039B33F81A2042B35FFA8AF18D
:10A0B000584610F0C5FA64201AF0B0FD0020FDF7F4
:10A0C000C9F910F0CCFF02463078059298B14FF4F0
:10A0D0007A701AF0A3FD10F0C2FF059A42F21073D5
:10A0E000B0EB02084FF0000161EB01090024434589
:10A0F00074EB0903E8DA4FF4FA601AF08FFD0AF105
:10A10000010ABAF1100FCDD17948394610F098FA0A
:10A110006A6822B100237348194610F002FC049AC1
:10A120000023137007B0BDE8F08F724B00221A7045
:10A13000714B00240025C3E90045704B1B78002BB0
:10A1400000F041816E4C2278102AEBD801A353F81D
:10A1500022F000BF99A1020057A50200ABA10200A6
:10A16000BBA10200CDA1020029A202003BA2020075
:10A1700061A2020025A102007FA20200A5A20200A6
:10A1800029A302004DA302006DA302008BA30200CD
:10A1900025A10200A7A3020002222270594BD97AFE
:10A1A00001919B7A0093FF23D2E6564AD37A83F03B
:10A1B0000103D3720193937AC7E6524B01225A727C
:10A1C000DA7A01929B7A00930323CDE6092346486D
:10A1D000237010F057FAC0B20C2814D8DFE800F052
:10A1E00007070707070D1B07212121211B00464BED
:10A1F00000221A70454B052204E0434B00221A70DE
:10A20000424B04221A703F4BDA7A01929B7A0093F8
:10A210003F4B1B785EE63C4B00221A703B4B0622FC
:10A22000F0E7394B0222E4E7364B0C22D97A227050
:10A2300001919B7A0093374BEFE5324B5A6842B15C
:10A2400042F20F718A428ABFA2F51C520022103AD4
:10A250005A60DA7A01929B7A0093FF2306223AE64B
:10A260002D4A137813B1013BDBB200E00C231370CD
:10A27000244AD17A0191927A009207222BE6244A4D
:10A28000214913780978994209D1204B1B78137022
:10A290001C4AD17A0191927A009209221BE6013B75
:10A2A000DBB2F4E71D4A1E491378097899420BBFC7
:10A2B0001C4B03F1FF331B78DBB21370114BDA7ABE
:10A2C00001929B7A0093124B1B780A2203E600BF8F
:10A2D0006DE3002004A30020D1D6002081D500200A
:10A2E0004CA5002011E300206AE30020FCA400201C
:10A2F00058E3002001D70020F8D6002000D7002026
:10A3000002D70020D0A1002009D7002007D70020C5
:10A3100005D7002014D7002004D7002006D700203E
:10A320000AD7002008D70020A04AA1491368A3F546
:10A33000C333A03B8B4298BF9E4B13609E4BDA7A8F
:10A3400001929B7A00930B22FF23C4E59B490B7873
:10A35000062B1CBF03F1FF33DAB2974B0A70D97A90
:10A3600001919B7A009313460C22B4E5944A13782A
:10A3700013B1013BDBB200E0092313708E4AD17A9E
:10A380000191927A00920D22A5E58E4A117809B1C9
:10A39000481EC0B21070884AD37A0193937A009312
:10A3A00003460E2297E5884A1378052B02D0013B1D
:10A3B000DBB200E0162313707F4AD17A0191927AC2
:10A3C0000092102287E5814810F09AF9804B01280D
:10A3D0001B781ED1002B7FF4A5AE7E4B1B780BB9EA
:10A3E00002F0D0FB00217C4810F0A5FA7B4B012243
:10A3F00000201A70FDF72EF8794B5A68002A3FF4B6
:10A4000091AE00237448194607B0BDE8F04F10F034
:10A4100088BA002B7FF486AE6E4B1B78002BE1D1FF
:10A420000120DDE76F4B704D704C00221A70704BAD
:10A4300000210020C3E900012978002959D166488C
:10A4400010F079FA0121644810F075FA624802218F
:10A4500010F071FA5F4B1B7813B9012002F092FBE8
:10A4600001235F4A2B7000232370534B51685960BE
:10A47000517A528955485A81597210F041F9014672
:10A48000D8B15C4810F0DAF85B4B18705B4810F0FC
:10A49000F9F85B4B18705B4810F0BEF85A4B187017
:10A4A0005A4810F0DDF85A4B18700023CDE90033FC
:10A4B0002278584958480978FEE458480FF09DFF23
:10A4C00057480FF052FF394B186056480FF05EFFA7
:10A4D0003A4B187054480FF06AFF394B18705348C4
:10A4E0000FF076FF374B187051480FF084FF364B52
:10A4F000DAE72378102B3FF615AE01A252F823F0CD
:10A5000045A5020057A5020069A502006DA502003D
:10A510007FA5020097A50200F5A602009BA50200F8
:10A5200035A6020051A6020065A6020087A6020019
:10A530009DA60200B9A60200C9A6020025A102003C
:10A54000E5A6020001221C4B2270D97A01919B7A68
:10A550000093FF23BFE400222270174BD97A0191A8
:10A560009B7A0093FF23A4E70622ECE7124B00221C
:10A570005A72DA7A01929B7A00930223F4E40E492C
:10A58000214BC87A1B78082222700190897A0091A9
:10A590000A33DBB29FE40B22D5E7194A13780C2B60
:10A5A00001D0013360E6002361E600BF10D7002030
:10A5B0007F47A1198047A119D0A1002014D70020FE
:10A5C0000BD700200CD7002015D700206DE300200A
:10A5D000D1D600204CA5002011E30020A2D50020F8
:10A5E00004A3002001D7002000D7002002D70020BC
:10A5F000F8D6002058E3002005D700206AE30020A9
:10A6000004D7002055E3002003D7002060E300209A
:10A6100006D7002000A30020ECA200206EE300205B
:10A6200079E300207AE300207BE300207CE3002034
:10A630007EE300205C4A1378B3FA83F35B0913705E
:10A640005A4AD17A0191927A00920A33082242E45E
:10A65000574A584913780978994201D1564B15E663
:10A6600001331DE6554A56491378097899420BBFC4
:10A67000544B01331B78DBB213704C4AD17A0191F1
:10A68000927A009221E6504A5049136803F5C33389
:10A69000A0338B4294BF136011604FE64C4A13788D
:10A6A0000C2B1ABF0133DBB2062313703F4AD17A59
:10A6B0000191927A009257E6464A1378092B01D00D
:10A6C000013357E6002358E6434A1378032B1ABF99
:10A6D0000133DBB200231370344AD17A0191927AAC
:10A6E00000925EE63D4A1378162B01D001335FE6F7
:10A6F000052360E62D4A536803F51C53103353605D
:10A70000D37A0193937A6BE4354B00221A70354B60
:10A71000354A00210020C3E90001117800293FF4E7
:10A7200001AD324B197810293FF6FCAC01A050F86E
:10A7300021F000BF79A7020087A7020087A70200C7
:10A7400087A7020087A7020087A70200A1A702002F
:10A750008DA702008DA702008DA702008DA7020021
:10A7600097A7020097A7020097A7020097A70200E9
:10A7700025A1020097A702000023137007B0BDE8CF
:10A78000F04FFFF79FB900221A70E6E604221A7014
:10A79000064BFFF772BB05221A70044BFFF778BB1C
:10A7A00002221A70FAE400BF03D70020D0A10020D3
:10A7B00005D7002007D7002009D7002006D70020A2
:10A7C00008D700200AD7002010D7002000703839A1
:10A7D00014D700200BD700200CD7002015D700205D
:10A7E00001D70020F8D6002000D7002002D7002093
:10A7F000024B01221A700920704700BF17D70020B2
:10A80000536E012B2DE9F0410E4615462DD13049EE
:10A8100010680CF09AFF044658BBDFF8D0802D4F2B
:10A8200098F800302C4D2D492D48002B14BF3B4685
:10A830002B46324610F054FB2A49294810F050FBB1
:10A8400098F8003025492848002B14BF3B462B467A
:10A85000324610F045FB2349234810F041FB6420A9
:10A860001AF0DCF92046BDE8F081002B01DC02245F
:10A87000F8E70022286811460DF0E6F810F0FF0412
:10A8800018D11A4B1A4D1B481C70214610F053F872
:10A890006A6822B117482346214610F042F86B7AC5
:10A8A000012B01D00024DDE74FF6FD7112480FF0B7
:10A8B000A4FDF7E7012CDAD10C4B0E481C700021E7
:10A8C00010F039F80A4B5B7A012BEBD10021EDE750
:10A8D0007E8207003F200700462007004F20070028
:10A8E00030E20020F862070094E2002016D7002032
:10A8F00004A3002011E300206EE3002070B598B09F
:10A9000014460A490EA810F065F90023CDE9143366
:10A91000CDE91633636E012B0CD1054920680CF08C
:10A9200014FF48B1022400F0EDBC00BFFA6207003A
:10A930007E820700002BF5D1B649B748B74CB84D19
:10A94000B84E10F0CDFAB849B34810F0C9FAB14981
:10A95000B64810F0C5FAB449B44810F0C1FA642002
:10A960001AF05CF9637AB24955F82320AA4810F02E
:10A97000B7FAAD49A84810F0B3FA637AAC4955F874
:10A980002320AA4810F0ACFAA749A84810F0A8FA6A
:10A9900064201AF043F9A74911A80FF06BFF11A921
:10A9A0000EA810F02AF911A810F0CEF80EA810F099
:10A9B00067F90E9AA049984810F092FA9A49964879
:10A9C00010F08EFA0E9A9C49984810F089FA964930
:10A9D000964810F085FA64201AF020F9974911A8DA
:10A9E0000FF028FF119A96498B4810F079FA11A8B8
:10A9F00010F0AAF88C49884810F072FA8F4911A813
:10AA00000FF018FF119A8E49884810F069FA11A8C2
:10AA100010F09AF88449854810F062FA64201AF020
:10AA2000FDF84FF47A7562688649B2FBF5F27A4810
:10AA300010F056FA7C49784810F052FA6268814961
:10AA4000B2FBF5F2794810F04BFA7749774810F0ED
:10AA500047FA64201AF0E2F87B480FF051FE7B4978
:10AA600056F8202005466C4810F03AFA6E496A48BC
:10AA700010F036FA56F8252074496C4810F030FA78
:10AA800069496A4810F02CFA64201AF0C7F8012DC1
:10AA900040F04E836E486F4E6F4D0FF0BBFD6F4917
:10AAA000002814BF32462A465B4810F019FA5E4966
:10AAB000594810F015FA66480FF0ACFD67490028B8
:10AAC00014BF32462A465948654E10F009FA5649D5
:10AAD000564810F005FA64201AF0A0F861480FF00B
:10AAE000D1FD6149054602464B4810F0F9F94E493F
:10AAF000494810F0F5F92A465B494C4810F0F0F946
:10AB000049494A4810F0ECF964201AF087F856F8E1
:10AB100025205649404810F0E3F943493E4810F0DB
:10AB2000DFF956F825205149404810F0D9F93E493F
:10AB30003E4810F0D5F964201AF070F84C480FF038
:10AB400062FD002800F0BE814A49334810F0C8F980
:10AB50003549314810F0C4F94649344810F0C0F97D
:10AB60003149324810F0BCF964201AF057F8082235
:10AB700014A941480FF026FD9DF8573005939DF824
:10AB8000563004939DF8553003939DF8543002934A
:10AB90009DF8533001939DF852309DF8502037496D
:10ABA00000931D489DF8513010F09AF91E491A483B
:10ABB00010F096F99DF8573005939DF856300493A0
:10ABC0009DF8553003939DF8543002939DF853300F
:10ABD00001939DF852309DF8502028490093134866
:10ABE0009DF8513010F07CF90F49104810F078F9B9
:10ABF00064201AF013F8082214A921480FF0BEFCB3
:10AC00009DF8573005939DF8563004939DF85530C4
:10AC100038E000BF6320070030E2002004A30020DA
:10AC200070A40020CCA30020F862070094E200206A
:10AC300072200700E8E2002080200700ACE200203C
:10AC4000895007008B2007006DE300209B20070040
:10AC500054E30020ED5F070055200700AB200700FC
:10AC600098A300206AE30020B6200700C120070057
:10AC700053E30020CC2007004EE30020D62007003D
:10AC80004AE3002003939DF8543002939DF853301B
:10AC900001939DF852309DF850207D4900937D48E6
:10ACA0009DF8513010F01CF97B497A4810F018F9E2
:10ACB0009DF8573005939DF8563004939DF8553014
:10ACC00003939DF8543002939DF8533001939DF8FF
:10ACD00052309DF850206E49009370489DF85130D5
:10ACE00010F0FEF86C496D4810F0FAF8642019F085
:10ACF00095FF102214A96A480FF049FC9DF85F30B7
:10AD00000D939DF85E300C939DF85D300B939DF88C
:10AD10005C300A939DF85B3009939DF85A30089394
:10AD20009DF8593007939DF8583006939DF8573099
:10AD300005939DF8563004939DF8553003939DF884
:10AD4000543002939DF8533001939DF852309DF892
:10AD50005020544900934F489DF8513010F0C0F8EE
:10AD60004D494C4810F0BCF89DF85F300D939DF8AC
:10AD70005E300C939DF85D300B939DF85C300A9328
:10AD80009DF85B3009939DF85A3008939DF859302F
:10AD900007939DF8583006939DF8573005939DF81A
:10ADA000563004939DF8553003939DF85430029328
:10ADB0009DF8533001939DF8523000939DF8502038
:10ADC0009DF851303749354810F08AF832493348F8
:10ADD000354E364D10F084F8642019F01FFF3449C9
:10ADE0002C4810F07DF82C492A4810F079F83049A9
:10ADF0002A4810F075F82849284810F071F86420A6
:10AE000019F00CFF627A2B49224810F069F82249A8
:10AE1000204810F065F8627A2649204810F060F862
:10AE20001D491E4810F05CF8642019F0F7FEA27A64
:10AE300021491848002A14BF32462A4610F050F81B
:10AE40001549144810F04CF8A27A1B491348002AFF
:10AE500014BF32462A4610F043F80F490F48174EE8
:10AE600010F03EF8642019F0D9FE15481AF0EEF9FA
:10AE70000025B4F88E20EBB2934205F1010580F273
:10AE80003D8223443046197B1AF0E0F9F1E700BF18
:10AE9000FE20070030E20020F862070094E2002064
:10AEA0004BE300202621070060200700CE1F07008B
:10AEB0008722070097220700A522070033A4070076
:10AEC000B62207009049914810F00AF890498F483F
:10AED00010F006F88C498F4810F002F88C498D4824
:10AEE0000FF0FEFF642019F099FE14A910228A4881
:10AEF0000FF056FB9DF85F300D939DF85E300C937C
:10AF00009DF85D300B939DF85C300A939DF85B30A3
:10AF100009939DF85A3008939DF8593007939DF88E
:10AF2000583006939DF8573005939DF8563004939A
:10AF30009DF8553003939DF8543002939DF853309B
:10AF400001939DF852309DF85020009373499DF86D
:10AF500051306E480FF0C4FF6D496C480FF0C0FFD0
:10AF60009DF85F300D939DF85E300C939DF85D3039
:10AF70000B939DF85C300A939DF85B3009939DF824
:10AF80005A3008939DF8593007939DF8583006932E
:10AF90009DF8573005939DF8563004939DF8553031
:10AFA00003939DF8543002939DF8533001939DF81C
:10AFB00052309DF85020009358499DF85130554823
:10AFC0000FF08EFF524953480FF08AFF642019F0AA
:10AFD00025FE14A9102252480FF0FDFA9DF85F30AB
:10AFE0000D939DF85E300C939DF85D300B939DF8AA
:10AFF0005C300A939DF85B3009939DF85A300893B2
:10B000009DF8593007939DF8583006939DF85730B6
:10B0100005939DF8563004939DF8553003939DF8A1
:10B02000543002939DF8533001939DF852309DF8AF
:10B03000502000933B499DF8513034480FF050FFA9
:10B04000334932480FF04CFF9DF85F300D939DF867
:10B050005E300C939DF85D300B939DF85C300A9345
:10B060009DF85B3009939DF85A3008939DF859304C
:10B0700007939DF8583006939DF8573005939DF837
:10B08000563004939DF8553003939DF85430029345
:10B090009DF8533001939DF852309DF85020009355
:10B0A00020499DF851301B480FF01AFF18491948E4
:10B0B0000FF016FF642019F0B1FD14A904221A48FC
:10B0C0000FF077FA9DF8533001939DF852309DF8B8
:10B0D0005020009315499DF851300C480FF000FFA7
:10B0E0000B490A480FF0FCFE9DF8533001939DF880
:10B0F000523000939DF850209DF851300B4905487F
:10B100000FF0EEFE62E600BF6E21070030E2002085
:10B11000F862070094E200204CE30020772107004A
:10B1200050E30020C02107004DE300200922070062
:10B130007748002D40F09B800FF017F975490246C3
:10B1400075480FF0CDFE754973480FF0C9FE704881
:10B150000FF00BF96F49024671480FF0C1FE6F49BD
:10B160006F480FF0BDFE642019F058FD6D480FF0D8
:10B170000DF96D49024668480FF0B2FE674966480E
:10B180000FF0AEFE67480FF001F9674902466448C8
:10B190000FF0A6FE614962480FF0A2FE642019F08C
:10B1A0003DFD62480FF003F9614902465A480FF02D
:10B1B00097FE5A4958480FF093FE5C480FF0F7F895
:10B1C0005B49024656480FF08BFE544954480FF035
:10B1D00087FE642019F022FD56480FF0F9F8564911
:10B1E00002464D480FF07CFE4C494B480FF078FE6C
:10B1F00050480FF0EDF85049024649480FF070FEF4
:10B20000464947480FF06CFE642019F007FD4B4893
:10B210000FF0EFF84A4902463F480FF061FE3F4900
:10B220003D480FF05DFE45480FF0E3F84449024603
:10B230003B480FF055FE394939480FF051FE642064
:10B2400019F0ECFC3F480FF0D6F83F49024632486F
:10B250000FF046FE314930480FF042FE39480FF0FA
:10B26000CAF8394902462E480FF03AFEAEE50FF013
:10B270007CF82849024628480FF032FE2749264824
:10B280000FF02EFE22480FF070F8224902462448A3
:10B290000FF026FE214922480FF022FE642019F00B
:10B2A000BDFC2A480FF0DBF8294902461A480FF086
:10B2B00017FE1A4918480FF013FE24480FF0CFF874
:10B2C0002349024616480FF00BFE144914480FF0AC
:10B2D00007FE642019F0A2FC1E480FF0C2F81E49B8
:10B2E00002460D480FF0FCFD0C490B480FF0F8FD2D
:10B2F00018480FF0B6F818490246B4E7074819F0A5
:10B30000A5FF00240EA80FF01FFC204618B070BD4A
:10B3100079E300202222070030E20020F8620700D3
:10B3200094E200207AE30020312207007BE3002032
:10B33000392207007CE30020412207007DE3002042
:10B34000492207007EE300205E22070082E30020FE
:10B350006C22070083E300207922070073B5556E45
:10B36000012D0E4625D1144910680CF0EEF9044663
:10B37000E0B90925CDE90005022332460F491048FE
:10B380000FF0AEFD0F490E480FF0AAFD0223324622
:10B39000CDE9004509490C480FF0A2FD09490A48CA
:10B3A0000FF09EFD642019F039FC2546284602B0B6
:10B3B00070BD0125FAE700BF7E820700C7220700A3
:10B3C00030E20020F862070094E200202DE9F84FF7
:10B3D000654B1B78002B00F0C580644B1B78002B5D
:10B3E00040F0BE80556E012D40F0BC80D2F800A028
:10B3F0005F4950460CF0A9F9044600286ED15D4B18
:10B400005D495E481D700FF06BFD5B495B48DFF8DE
:10B4100094B10FF065FD584959480FF061FD564948
:10B4200057480FF05DFD642019F0F8FB21465548A0
:10B430000FF081FA294653480FF07DFA0221514856
:10B440000FF079FA01F060FB21464F4801F0FCF95A
:10B450004E4801F0FBFA4E4801F0F8FA01F08AFB81
:10B460000FF0FDFD4FF0000A054642F2107600276E
:10B470009BF800308BB94FF47A7019F0CFFB0FF0C6
:10B48000EEFDB0EB05086AEB4A09464577EB090388
:10B49000EEDA03242046BDE8F88F02F021FA36499F
:10B4A00036480FF01DFD344934480FF019FD32497C
:10B4B00033480FF015FD304931480FF011FD64207D
:10B4C00019F0ACFB01F020FB3248002101F0BCF97F
:10B4D00001F050FB30480FF0EDF9DBE72F49504603
:10B4E0000CF033F9044600283CD1224BDFF8B4B00D
:10B4F0001D70014623480FF01EFA294621480FF01F
:10B500001AFA02211F480FF016FA01F0FDFA21463F
:10B51000204801F099F9224801F098FA1C4801F0FE
:10B5200095FA01F027FB0FF09AFD4FF0000A05464F
:10B5300044F620684FF000099BF800306BB94FF4D7
:10B540007A7019F06BFB0FF08AFD461B6AEB4A0715
:10B55000B04579EB0703EFDA9BE702F075F9B9E73D
:10B56000002497E7022495E7B0D5002017D70020E4
:10B570007E82070000D70020F862070030E200203A
:10B5800094E2002011E30020E1220700E9220700F5
:10B59000C11F0700AA1F0700A8E200207968070062
:10B5A000F9220700D8A300202DE9FF41536E012B9B
:10B5B0000D46144625D13A4910680CF0C6F80446E9
:10B5C00020B10224204604B0BDE8F08102F092F8D8
:10B5D000294634480FF050FC334932480FF03AFC0A
:10B5E00032490A888B7808794D798E79C97992B277
:10B5F000CDE90261CDE900052D492A480FF070FC24
:10B60000E0E7052BDDD1161F02F1100756F8045FA5
:10B6100028460CF0ACF82B462844984205D013F885
:10B62000012B303A092AF8D9CBE7BE42EED10022ED
:10B63000114620680CF008FA40F2D233A0F2E6720C
:10B640009A420546BDD80022606811460CF0FCF90C
:10B65000431E0B2B0646B4D80022A06811460CF0FE
:10B66000F3F9431E1E2B0746ABD80022E0681146B3
:10B670000CF0EAF918288046A3D800222069114668
:10B680000CF0E2F93B289CD8C2B200925FFA88F332
:10B69000FAB2F1B2A8B201F09FFF002492E700BF16
:10B6A0007E82070030E20020D9250700D4D900208F
:10B6B0000923070007B503230193054B0093054BAE
:10B6C000054A064819460FF000F903B05DF804FB7F
:10B6D00031B902001C230700242307000EE30020D9
:10B6E00007B503230193054B0093054B054A064814
:10B6F00019460FF0EAF803B05DF804FBFDB902004B
:10B700007C230700812307000EE3002007B50323F5
:10B710000193054B0093054B054A064819460FF067
:10B72000D4F803B05DF804FBFDBA0200DF23070084
:10B73000E42307000EE3002007B503230193054B24
:10B740000093054B054A064819460FF0BEF803B0B2
:10B750005DF804FBCDB302000B24070010240700A2
:10B760000EE3002007B503230193054B0093054B1F
:10B77000054A064819460FF0A8F803B05DF804FB27
:10B78000A9B50200262407002A2407000EE30020A2
:10B7900007B503230193054B0093054B054A064863
:10B7A00019460FF092F803B05DF804FBC5BB020028
:10B7B000FF650700512407000EE3002007B50323AF
:10B7C0000193054B0093054B054A064819460FF0B7
:10B7D0007CF803B05DF804FB69BC02007B24070021
:10B7E000802407000EE3002007B503230193054BD7
:10B7F0000093054B054A064819460FF066F803B05A
:10B800005DF804FB01A80200E9240700EE2407000C
:10B810000EE3002007B502230193054B0093054B6F
:10B82000054A064819460FF050F803B05DF804FBCE
:10B83000FDA8020030250700372507000EE3002091
:10B8400007B502230193054B0093054B054A0648B3
:10B8500019460FF03AF803B05DF804FB5DB302003F
:10B860004E250700552507000EE3002010B50D4CAE
:10B870000D4986B003A80FF0ADF903A920460FF0DB
:10B880000FF803A80FF060F902230193074B009310
:10B89000074B084A194604F126000FF016F806B0C7
:10B8A00010BD00BFE8E200206D250700F1A70200EF
:10B8B000752507007E25070070B5194C19491A4EE9
:10B8C000C2B09022201D0BF0A5F99021201D19F087
:10B8D000FFFF00252060FE22294602A801950BF0FB
:10B8E000A7F9B4F88E30E8B2984205F1010508DAFC
:10B8F000231831461A7B01AB03EB40000BF0F8FE36
:10B90000EFE7074A0948942300210EF0F6FF28B913
:10B910000146034A054894230EF0EFFF42B070BD84
:10B92000DCA3002008A3002033A407000FE30020BD
:10B93000F8B5536E012B0E4602D002242046F8BD06
:10B940001568274928460BF000FF044660B12846D9
:10B950000BF00DFF2A462844904224D012F8013BF8
:10B96000303B092BF8D9E8E71E4F1F497B681F4879
:10B9700032464FF47A75B3FBF5F30FF0B1FA1C4978
:10B980001A480FF0ADFA7B681749B3FBF5F332465E
:10B9900018480FF0A5FA164916480FF0A1FA6420CE
:10B9A00019F03CF9CAE70A22002128460CF04CF8AD
:10B9B000B0F5E15FC1D80B4C4FF47A735843606027
:10B9C00000210D480EF0B7FF626822B100230A483B
:10B9D00019460EF0A6FFFFF76FFF0024AEE700BF89
:10B9E0007E82070004A30020A125070030E200208A
:10B9F000F862070094E2002011E30020536E012B4F
:10BA000070B50E4602D00224204670BD1568334939
:10BA100028460BF09AFE044660B128460BF0A7FEBC
:10BA20002A46284490421ED012F8013B303B092B95
:10BA3000F8D9E8E72A4D2B496B7A2B4832460FF0AC
:10BA40004FFA2A4928480FF04BFA6B7A25492848C3
:10BA500032460FF045FA254925480FF041FA642097
:10BA600019F0DCF8D0E70A22002128460BF0ECFFA1
:10BA70000328C8D81A4C637A984223D06072FFF723
:10BA80001BFF637A012B22D01ED9023B012B21D947
:10BA9000184915480FF024FA144913480FF020FAFA
:10BAA000144913480FF01CFA104911480FF018FA06
:10BAB000642019F0B3F841F2883019F0AFF80E485D
:10BAC0000EF0F8FE00249FE7FDF79AFAE0E7FDF795
:10BAD000F3FADDE7FDF71CFBDAE700BF7E82070023
:10BAE00004A30020A825070030E20020F862070028
:10BAF00094E20020AE250700A8E20020F8B5536EBE
:10BB0000012B0D4602D002242046F8BD17682549B6
:10BB1000254E38460BF019FE044678BBB6F88E3039
:10BB2000ABB92A46214922480FF0DAF921492048C9
:10BB30000FF0D6F92A461D491F480FF0D1F91D49CB
:10BB40001D480FF0CDF9642019F068F8DCE72946AC
:10BB50001A481B4F19F07AFB2546B6F88E20EBB237
:10BB6000934205F1010505DA33443846197B19F093
:10BB70006DFBF2E70F4819F069FBC5E738460BF09B
:10BB8000F6FD06F10C0201460546384613F04EFE5E
:10BB900004460028B7D16D08A6F88E50FFF78CFE3A
:10BBA000B2E700BF7E82070004A30020CB25070078
:10BBB00030E20020F862070094E20020D725070059
:10BBC00033A40700536E012B70B50D4602D002243A
:10BBD000204670BD16681D4930460BF0B6FD044680
:10BBE000D0B91B4E1B4996F991301B482A460FF0DD
:10BBF00077F91A4918480FF073F996F991301549F9
:10BC000017482A460FF06CF9144915480FF068F9E7
:10BC1000642019F003F8DBE70022114630460BF0F0
:10BC20008DFE00F10B03DBB2192BD0D8084B93F932
:10BC3000912040B282424FF00004C9D083F89100B5
:10BC4000FFF73AFE074B1C70C2E700BF7E82070079
:10BC500004A30020A825070030E20020F8620700B6
:10BC600094E20020D0D60020536E012B2DE9F34141
:10BC70000E4615462ED1274910680BF066FD044686
:10BC800060BBDFF8AC80244F98F800300193234D5F
:10BC90003B780093EB7A2249224832460FF020F994
:10BCA000214920480FF01CF998F8003001933B78A7
:10BCB0000093EB7A1A491D4832460FF011F91A49E0
:10BCC0001A480FF00DF9642018F0A8FF204602B0C2
:10BCD000BDE8F081002B01DC0224F7E70022286890
:10BCE00011460BF0B1FE10F0FF0508D10B4BDC7ACA
:10BCF000002CEBD0DD72FFF7DFFD0024E6E7012D1D
:10BD0000EAD1064BDC7A002CF7D1DD72FFF7D4FDC7
:10BD1000DCE700BF7E820700DCD9002004A30020FE
:10BD2000DB25070030E20020F862070094E20020E3
:10BD3000B0D50020F0B5374D3748C3B094232A461C
:10BD400000210EF0D0FD0646D0B12B7AAA2B1AD1D5
:10BD50009021281D19F0BCFD2B68304C834214D073
:10BD600047F23052AA23C4E901232D4BE360042398
:10BD7000A4F88E30082384F89130FFF79DFD00264B
:10BD8000304643B0F0BD0020E6E76B6863606B7A35
:10BD9000B5F88E20032B86BF002337460027637239
:10BDA000802A6B89638111D900232373A4F88E3014
:10BDB000374695F9912002F10C03DBB21A2B0CD90E
:10BDC000082384F89130FFF777FD0AE015491648FB
:10BDD000A4F88E200AF01EFFEBE784F89120002FD4
:10BDE000F1D10025FE22294602A801950AF020FF84
:10BDF0000E4FB4F88E30E8B2984205F10105BFDA73
:10BE0000231839461A7B01AB03EB40000BF070FCA2
:10BE1000EFE700BFDCA300200FE3002004A3002015
:10BE200001020304E8A3002010A3002033A40700AC
:10BE300010B5074B53F82020002332F813408C42F2
:10BE4000D8B203D80133102BF7D1184610BD00BF6C
:10BE5000FCA4002013B501900F480EF013FC0199CB
:10BE600080B2FFF7E5FF04460C480EF0E7FBA04266
:10BE70000FD20B4800F0EAFD0A490B4822460BF0AE
:10BE800037FC094800F0E2FD084B0020187002B0B2
:10BE900010BD0120FBE700BF6AE3002058E300204B
:10BEA0005026070062260700B5D50020D1D6002015
:10BEB0002DE9F3410121754E074622200FF0C3F80A
:10BEC0004FF4FA7018F0AAFE3478002C7ED1704935
:10BED0007048009440F24C43422207F00FFD0546A3
:10BEE00020B90024204602B0BDE8F08169484FF037
:10BEF000020840F24C42012186F8008007F018FB4E
:10BF0000654E002F57D040F24C4322460121614834
:10BF100007F086FB40F24C43424601215D4807F0A2
:10BF20007FFB40F24C43062201215A4807F078FB80
:10BF30000122114640F24C43564807F071FB40F293
:10BF40004C4303220121534807F06AFB40F24C4363
:10BF5000042201214F4807F063FB40F24C430522C5
:10BF60004C48012107F05CFBF37A40F24C42E3B10C
:10BF70000521484807F023FD464840F24C4322463D
:10BF8000012107F023FC434840F24C4107F0D6FA68
:10BF9000737A023B012B02D8F47A002CA2D1002143
:10BFA00022200FF050F82C469CE74FF4FA713948E4
:10BFB00007F046FDE7E740F24C424FF0FF313548CD
:10BFC00007F0DCFAFA2018F029FEE1E700253049F5
:10BFD0003048009540F24C43422207F08FFC044663
:10BFE00000283FF47EAF40F24C420121294807F07F
:10BFF0009FFA40F24C432A460121264807F010FBE5
:10C0000040F24C4302220121224807F009FB40F292
:10C010004C43062201211F4807F002FB0122114672
:10C0200040F24C431B4807F0FBFA40F24C4303221A
:10C030000121184807F0F4FA40F24C430422012190
:10C04000144807F0EDFA40F24C4305221148012153
:10C0500007F0E6FA104BDB7A40F24C4283B105213F
:10C060000C4807F0ACFC0B4840F24C432A46012137
:10C0700007F0ACFB40F24C41064807F05FFA31E7AD
:10C080004FF4FA71034807F0DBFCF3E724D70020F4
:10C090008CE3002054D7002004A3002000000000FF
:10C0A0002DE9F04FDFF80C83A94FAA4CAA4DDFF819
:10C0B0000893AA4E8BB0002300220021C8E9002378
:10C0C000C7E900234FF0000A1C2203A82970C9F811
:10C0D000001021700291C6F800A00AF0A9FDA04945
:10C0E00002A80BF03CFB9F4B9F48DB7AA34640F233
:10C0F0004C41002B66D007F06CFDC117C8E9000168
:10C1000040F24C41984807F049FDC117C7E90001CA
:10C1100040F24C41944807F077FD40F24C41C9F899
:10C120000000914807F0CBFC07EE900AF8EE677A22
:10C1300040F24C418C48C6ED007A07F014FD40F205
:10C140004C412070884807F0D2FC012829D187494A
:10C1500002A80BF004FB96ED007ADFED857AB4EED1
:10C16000E77AF1EE10FA05D57A4B1B78052B01D949
:10C1700001232B702B7803F0FF04002B00F0D280FA
:10C18000D7E900E31A46D8F80430D8F800C01A43BB
:10C190004CEA0E00114650EA010378D100242C70BD
:10C1A000AAE0022801D17349D2E7032801D17249DC
:10C1B000CEE7042801D17149CAE705280CBF7049B0
:10C1C0006749C5E707F0B0FC0028D3D0012124203F
:10C1D0000EF039FF644840F24C4107F088FC0446F9
:10C1E00000283DD15E4902A80BF0B9FA5E4840F242
:10C1F0004C4107F0B8FC634B8BF800001A78904272
:10C2000042D1614A137801331370022CB2D95E4BCC
:10C210001B78012BAED9012340F24C4152482B70C0
:10C2200007F0D7FCC117C8E9000140F24C414E4865
:10C2300007F0B4FCC117C7E9000140F24C414A487D
:10C2400007F0E2FC40F24C41C9F80000464807F014
:10C2500036FC07EE900AF8EE677AC6ED007A89E7B9
:10C26000012801D14949BEE7022801D14849BAE76E
:10C27000032801D14749B6E7042801D13F49B2E775
:10C280000528B3D13E49AEE788BF1870BDE7354BEE
:10C29000304D5B7A032B33D13F4B40481B687246CD
:10C2A0001BB2614601F06CFFD8E9000144F05EFF6B
:10C2B00025A3D3E9002345F0B1F845F07DFA384BCA
:10C2C0001860D7E9000144F051FF1FA3D3E9002310
:10C2D00045F0A4F845F070FA324B32681860324BE2
:10C2E0001A604FF47A72D9F8003093FBF2F32F4AB8
:10C2F00013602F4B2A781A7020460BB0BDE8F08FE0
:10C30000D9F8003096ED000A24484FF47A7193FB77
:10C31000F1F395F9001000911BB27246614601F0ED
:10C3200063FEC1E71E4BC3F800A01E4BC3F800A07C
:10C330001D4B4FF07E521A601C4B1C601C4B1C7036
:10C340002DE700BFAFF3008000000000D012634172
:10C3500048D70020D8D8002039D7002018D700208F
:10C360007026070004A3002054D70020772607007A
:10C370000000964386260700922607009E260700A7
:10C38000A726070050D7002051D70020B02607006D
:10C39000BA260700C1260700C8D60020A4D5002071
:10C3A00030D7002034D7002028D700202CD70020F9
:10C3B00038D7002040D700201CD700202DE9F041BD
:10C3C000012186B023200EF03EFEFFF769FE6C4F80
:10C3D0006C4E0446002800F09D806B4BD97A11B951
:10C3E00022200EF030FE694B002264201A7018F0F3
:10C3F00015FC674803210EF09EFA3B78002B36D0DF
:10C40000644B1B78002B32D100F07EFB624800F0B9
:10C410001DFB624B1868624B1D68624BD3F80080AD
:10C4200044F07AFE02460B462846CDE90423CDF8B7
:10C43000088044F071FEDDE90423CDE900015A498A
:10C440005A480BF055F9594800F000FB584B186852
:10C45000584B1D7844F060FEEDB202460B4653483F
:10C46000554900950BF044F9504800F0EFFA534B52
:10C470001B781BB9524801210EF033F95148DFF8FF
:10C48000608101F043FF80B2FFF7E4FC0546E8B1AC
:10C490004C4801F03BFF04904A4801F039FF012469
:10C4A0000023CDE90043484B04991B7802464748D6
:10C4B0000EF016F838B988F80000454A13680133C1
:10C4C00013602C4604E088F80040F6E788F8000086
:10C4D0003B78002B49D0002C47D12E4B1B78002BEA
:10C4E00043D100F011FB314B1C70274BDB7A002B42
:10C4F00030D0384800F0AAFA374B1A7862BB34883B
:10C500002A4B2A20114694422ADD1870013203F882
:10C51000011FF8E7314B32881B889A42D8D3642038
:10C5200018F07CFB194B1A481C702D4B03211C7012
:10C530000EF001FA3D785DB1164B1C78002CC7D186
:10C5400028491A480BF00BF9184800F07FFAB8E7B1
:10C550000124BDE72448CDE7244914480BF0C8F86E
:10C56000124800F073FA00F005FB33880021013314
:10C570002320338006B0BDE8F0410EF064BD00BF5B
:10C58000AFD5002020D7002004A30020ACD5002088
:10C5900011E3002000D70020C826070030D7002074
:10C5A00034D700202CD70020D2260700B5D5002094
:10C5B00028D7002038D70020E2260700D0D6002058
:10C5C0006CE30020A4D5002094A1002049E30020C2
:10C5D000C8D600200C270700D8D8002022D700207A
:10C5E000D1D60020F42607002227070035270700B0
:10C5F00010B5054C204602F0EDF82046034A0449E8
:10C60000BDE810400AF098BA54D7002090A100204D
:10C61000E1ED02000020704738B590F83330044651
:10C620000D4613B1406B0EF07FFB94F83010606B39
:10C630000EF0BEFB606B802100F02DF8606B03688C
:10C6400029461B689847606B0121BDE838400EF011
:10C65000BBBB000010B5034B0360044607F0CCFBE6
:10C66000204610BDFC28070010B50446406B0EF0B4
:10C670005BFB606B02490EF06BFB012010BD00BF3D
:10C68000801A060010B50446FFF7E4FF20460CF0C0
:10C69000A5FD204610BD0368C9B21B6818472DE9E7
:10C6A000F84F90F83330044613B1406B0EF03CFB6A
:10C6B000658AC5F180054FF0000A05EBD575FF27A7
:10C6C0006D10D146D0463E46A38A5FFA8AF1B1EB9F
:10C6D000D30F28DA4FF0000C638A5FFA8CF098428F
:10C6E0001CDA11FB03F30344A2689BB212F803E0C7
:10C6F000E26812F803B0F3450BD08E4228BF0E4615
:10C70000884538BF8846874228BF0746814538BFDD
:10C71000814602F803E00CF1010CDDE70EF013F99D
:10C720000AF1010AD0E7FF2E57D0236821219B6927
:10C7300020469847236857FA85F19B69C9B220467D
:10C7400098475FFA85FA23680AEB09019B69C9B229
:10C7500020469847236822219B69204698472368F2
:10C7600031469B6920469847236841469B6920468D
:10C7700098470025B04529D3BA46CA4521D845B9BE
:10C7800094F83010606B0EF013FB606B4021FFF7E4
:10C7900082FFA268606B638A06FB0323026813F8BA
:10C7A0000A1012680135EDB29047102D04D1606B6C
:10C7B00001210EF009FB00250AF1010A5FFA8AFA4D
:10C7C000DBE701360EF0BFF8F6B2D3E72DB1606BB0
:10C7D0000121BDE8F84F0EF0F7BABDE8F88F000070
:10C7E00038B51648164C0EF09FFA4FF4FA7018F050
:10C7F00015FA0125204684F8335007F0B4FE204690
:10C8000007F067FD204607F0E2FD204607F04FFDE8
:10C81000C821204607F0A4FD204607F0CBFD4023A9
:10C82000F1222046642107F066FD0649204607F004
:10C830003CFD2046FFF733FF284638BD8CE300203F
:10C840009CD900201C29070030B52DED028B044631
:10C8500097B04F480D464F4907F027FD4C4800213F
:10C8600007F0D4FA00220B23114649480093802395
:10C8700007F0E4FB4648012107F0C8FA44480021CC
:10C8800007F011FD444B1B787BB1444B1B7863B11F
:10C890005DB1434906A80EF09DF906AB00223C4865
:10C8A000114607F09DFE06A81AE03E4BDD7A002DEA
:10C8B0002FD03D4B3D4918783D4A2346002808BFFC
:10C8C0000A463C4906A80AF013FF06A903A80EF081
:10C8D00081F900222E4803AB114607F081FE03A820
:10C8E0000EF032F94FF08043D3F8384414F0FF04CF
:10C8F00016D0032C46D00B2200927F23002124481F
:10C9000007F0BBFA2248FFF7CAFE17B0BDEC028B56
:10C9100030BD214606A80EF05DF906AB2A46BEE7FB
:10C9200025489FED268A244C0DF0C6FF0A25204697
:10C930000DF0C2FF013D38EE008AF8D1F2EE047A24
:10C94000C8EE277A17EE900A44F0E6FB02460B4643
:10C9500006A81B490AF0CCFE82B206A90C4807F0D3
:10C9600085FC06A9044603A80EF034F9C4F17F0142
:10C97000074803AB002209B207F032FE03A80EF00D
:10C98000E3F8B8E70F4906A80AF0E9FE2246E4E713
:10C990009CD900201C2907000CDA0020B0D500200B
:10C9A0004027070004A3002039D70020E5A3070093
:10C9B0001E6707004E2707000DE30020000000005F
:10C9C000542707005A270700F0B51C481C4F1D4E7E
:10C9D0001A4D87B0002107F019FA40230C2217489E
:10C9E00000930021802307F029FB1749134807F023
:10C9F0005CFC1248012107F009FA1048002107F0F9
:10CA000052FC00243B78A34213DD06EB441103A83B
:10CA10000EF0E0F804EB840252000C3203AB12B2C9
:10CA20000021284607F0DCFD03A80EF08DF8013444
:10CA3000E8E70248FFF733FE07B0F0BD9CD90020BD
:10CA4000D9D80020DAD800201C29070070B5274C5F
:10CA5000274D2278052A034638D105F120022946C0
:10CA600005F1400052F8046B41F8046B8242F9D1A1
:10CA7000204AA2F1200102F1200052F8046B41F893
:10CA8000046B8242F9D11C4AA2F1200102F120007C
:10CA900052F8046B41F8046B8242F9D1174AA2F1B3
:10CAA000200102F1200052F8046B41F8046B82422D
:10CAB000F9D1134AA2F1200102F1200052F8046BCF
:10CAC00041F8046B8242F9D10422227020780D4A89
:10CAD00005EB401020210AF0D7FD2378052B1CBF61
