:020000022000DC
:107000000000042081950300A9950300AB950300BF
:10701000AD950300AF950300B1950300000000009B
:10702000000000000000000000000000B395030015
:10703000B595030000000000000000000000000003
:1070400091840500B795030011A30500698A050026
:10705000B7950300D1800500A97E0500C166060032
:10706000B7950300A9890500BD890500B795030000
:10707000B7950300B7950300B7950300B7950300D4
:10708000C5730600A9560500B7950300B795030020
:10709000B7950300B7950300495D0600B795030057
:1070A000B7950300B7950300D1890500E589050070
:1070B000B7950300B7950300000000000000000032
:1070C000B7950300B7950300B7950300FD6B060065
:1070D000C1860500B7950300B795030021A0050000
:1070E00099A00600B7950300D9C70600000000006C
:1070F00000000000B795030000000000CD6F0600FF
:10710000000000000000000000000000000000007F
:10711000000000000000000000000000000000006F
:10712000000000000000000000000000000000005F
:10713000000000000000000000000000000000004F
:10714000000000000000000000000000000000003F
:10715000000000000000000000000000000000002F
:10716000000000000000000000000000000000001F
:10717000000000000000000000000000000000000F
:1071800000000000000000000000000000000000FF
:1071900000000000000000000000000000000000EF
:1071A00000000000000000000000000000000000DF
:1071B00000000000000000000000000000000000CF
:1071C00000000000000000000000000000000000BF
:1071D00000000000000000000000000000000000AF
:1071E000000000000000000000000000000000009F
:1071F000000000000000000000000000000000008F
:1072000010B5054C237833B9044B13B10448AFF3E0
:1072100000800123237010BD60D500200000000015
:10722000E807080008B5034B1BB103490348AFF357
:10723000008008BD0000000064D50020E8070800B9
:10724000154B002B08BF134B9D46A3F5803A002138
:107250008B460F461348144A121A0FF0F1FD0F4BDC
:10726000002B00D098470E4B002B00D098470020F1
:10727000002104000D000D48002802D00C48AFF397
:1072800000800FF08DFD200029000FF013FB0FF0A0
:1072900073FD00BF00000800000004200000000093
:1072A0000000000060D500203CC501200000000067
:1072B000000000000022C0E900220172704738B5CA
:1072C0000446006820B1856912F090F82846F9E775
:1072D000204638BD006820B143688B4201D08069E8
:1072E000F9E77047F8B504460F4616461D46FFF706
:1072F000F1FF20B10123826005704370F8BD1C20AE
:1073000012F078F8012343700023C0E90333C0E989
:10731000053323680570C0E9017613B92060606009
:10732000ECE763689861FAE72DE9F8430468164FC3
:1073300005460E464FF000081CB363680BB9A469FC
:10734000FAE72378002BFAD0E368A268F31A9A428E
:1073500002D961780029F2D09B1A636184F8018018
:10736000E66013F089FF63688146984713F084FF55
:107370003B68A0EB0900206118442B7A3860002B91
:10738000DDD0BDE8F88300BF7CD50020024B1A7821
:107390000AB901221A707047D8D60020034B04485E
:1073A00007221A700121FA2213F0C3BB80D50020F6
:1073B00011E3002008B5074B50B103221A700648AC
:1073C000FA22012113F0B5FB044B00221A7008BD0C
:1073D0000522F3E780D5002011E30020D9D6002054
:1073E000054B064800221A70054B08221A7001212D
:1073F000FA2213F09EBB00BFD9D6002011E3002073
:1074000080D5002010B485B004AB03E907001C4B05
:10741000BDF90A201A801B4B9DF90C201A701A4ADC
:107420000199136801331360184B00221A709DF8FC
:107430000830082B164B1DD916480A7802604C7884
:1074400042EA042202608C7842EA04420260CC786C
:1074500042EA0462026001320CD10F4A49681160AD
:107460000A221A700121FA220C4805B05DF8044B7B
:1074700013F05FBB01211970FA22054BF4E700BF3E
:10748000B2D50020B4D50020C8D60020D9D600201F
:1074900080D50020D0D60020D4D6002011E30020D3
:1074A0002DE9FF47DFF8C0A2974D984EDFF8BC8268
:1074B000012700232F7033709AF80930023BBB423A
:1074C000544600F25581924807F025F89AF80B309F
:1074D000002B00F0CC808F4A98F80030117891464C
:1074E000002940F0AB8083B18B4B1B786BB905F062
:1074F0000FFC9AF80930022B0CBF8848884839469F
:1075000005F0A6FA874805F0A5FB04F0CDFE10B300
:10751000854B1B781BB98548012113F0EAF9B4F8B3
:107520008E0004F09DFD002800F08C81784806F064
:10753000F5FF0390764806F0F3FF01240023CDE920
:1075400000437B4B03991B7802467A4813F0D0F82E
:1075500000286ED15FE0784A117809BB774B1B7821
:1075600003F0FF07E3B90123694889F8003006F00A
:10757000D2FF734B73481F8041F288326368B3FBBC
:10758000F2F3714A1380714B1F70714B40F6C412B5
:107590001F7003213B4604B0BDE8F04713F0C9BAA1
:1075A0000023137098F800304BB15B4B1B7833B954
:1075B0006849694810F0DBF9674805F04BFB637ACE
:1075C000032B2BD1654B52481B6800221BB211467E
:1075D00006F0DEFE544B1B781BB95448012113F012
:1075E00088F9B4F88E0004F03BFD002800F02A81F1
:1075F000474806F093FF0390454806F091FF0124A9
:107600000023CDE900434A4B03991B7802464948C1
:1076100013F06EF860B9287034700AE0002300930C
:10762000B7EE000A1A461946394806F0E5FDD1E7DB
:107630002C704A4A13680133136003E1002B00F0F9
:107640000181354B1B78002B40F0FC8005F060FB7E
:107650009AF80930022B0CBF30483148394605F002
:10766000F7F93F4804B0BDE8F04705F0F3BA98F8E1
:10767000003083B1284B1B786BB905F049FB9AF8B1
:107680000930022B0CBF25482548394605F0E0F9A2
:10769000344805F0DFFA637A032B2BD12F4B1C48BB
:1076A0001B6800221BB2114606F072FE1E4B1B78AF
:1076B0001BB91E48012113F01CF9B4F88E0004F028
:1076C000CFFC002800F0BE80114806F027FF039091
:1076D0000F4806F025FF01230021CDE90031144BAE
:1076E00003991B780246134813F002F80028A0D132
:1076F00028709EE700230093B7EE000A1A46194649
:10770000034806F079FDD1E7D9D60020D8A30020A0
:10771000A4D50020ACD5002008D70020781D070094
:10772000881D0700991D0700D8D600206CE30020B3
:1077300094A1002049E30020A2D5002081D500209B
:1077400028D7002011E300202AD7002058D7002096
:1077500059D70020B41D0700B5D50020C8D6002099
:10776000CA1D0700DE1D070004A30020AFD50020BE
:1077700098F8003073B13D4B93F80080B8F1000FDA
:1077800008D105F0C5FA3A48394605F061F9394B98
:1077900083F80080384806F0BEFE384813F0B8F889
:1077A0000746002851D0364813F03CF8002846D050
:1077B0000121242013F04FFD324B1B7813B33248C4
:1077C00005F048FA314B1B781BB93148012113F001
:1077D00090F8E77AEFB104F067FD70B99FED2D0ADC
:1077E0002D4B83ED000A2D4B024683ED000A014626
:1077F00000900346204806F0FFFC1F4806F08EFE6E
:1078000080B28EE61B4B1B780BB12548D8E7254884
:10781000D6E7B4F88E0004F023FC98B10197224B10
:10782000224A2348012700971B7894F88E1012F003
:107830005FFF00287FF4FDAE28703770F9E6012362
:107840002870337004B0BDE8F0870121232013F0C5
:1078500002FD144805F0FEF93B46144A94F88E10D8
:10786000144812F0F0FE01232B70E2E608D7002046
:10787000EA1D0700A2D50020A4D500206DE300205A
:1078800054E3002081D50020FB1D0700D8D600203E
:107890006CE30020000000003CD7002038D7002017
:1078A0000C1E07001B1E070094A1002010A300203F
:1078B00049E300206EE300202DE9F04F844B1A7855
:1078C000012A8FB0054636D1022203A81A702BF088
:1078D0007FFE804B039893F991307F4C4FF46162A7
:1078E000123802FB030005A92BF0E6FE0A9B03F207
:1078F0006C739BB22380099B0133DBB2A3709DF8AC
:10790000203023719DF81C3063719DF81830A371ED
:107910009DF81430E371714B1B7863B12088A17816
:1079200022796379A679E47980B2CDE9006405F023
:10793000A3FF05F0E7FF0021242013F08CFC0021B9
:10794000232013F088FC002D01F022822B78013BCC
:10795000092B01F22583DFE813F00A0050015F02D2
:10796000BA0277040305CD07C709230B750A05F092
:107970007FFE5B4B1B78002B37D0584B1B78002BBE
:1079800000F09C8005F0BEFF534A564B118889B227
:1079900019809178C9B299701179C9B2D9705179A9
:1079A000C9B219719179C9B25971D2794E49D2B21D
:1079B0009A710122DA7100221A720968D9604B4962
:1079C000096819614A491A755A75098849B2D97501
:1079D0004849097849B219765A839A83DA83464A24
:1079E000126812B21A8406F005FA444B1B78002B79
:1079F00001F0CE81424B1C78002C41F0C9814149F5
:107A000041480FF0B4FF404905A813F0EBF905AA6F
:107A10002146204605F098F905A813F09DF93B4B47
:107A20003B491A6838480FF06BFF374905A813F037
:107A3000D9F905AA2146012005F086F905A813F019
:107A40008BF9344812F099FD49F04CFC1EA3D3E9A0
:107A5000002349F0EBFD0B4602462F492A480FF060
:107A60004FFF294905A813F0BDF905AA21460220B8
:107A700005F06AF905A813F06FF9284812F08EFD99
:107A80002749024620480FF03BFF1F4905A813F085
:107A9000A9F905AA2146032005F056F905A813F017
:107AA0005BF9204812F08BFD092800F2A480DFE882
:107AB00000F03B90929496989A9C9EA005F046FF09
:107AC00062E700BFAFF300800000000080842E4119
:107AD000D8D6002004A30020DCD90020E4D900205F
:107AE000B0D50020A4A1002038D700203CD700202A
:107AF000B2D50020B4D50020C4D60020AFD50020D8
:107B000008D700202D1E0700B5D50020C8D60020BC
:107B10003B1E070079E300204F1E07007AE3002098
:107B2000F52A07007BE30020874903A80FF01FFF19
:107B3000864812F044FD864B864953F8202086483B
:107B40000FF0DEFE844905A813F04CF905AA402188
:107B5000032005F0F9F805A813F0FEF87F4812F0AD
:107B60003FFD7F49421D7C480FF0CAFE7A4905A8B7
:107B700013F038F905AA4021022005F0E5F805A820
:107B800013F0EAF8774B78491A88734812B20FF06D
:107B9000B7FE714905A813F025F905AA00210420B4
:107BA00005F0D2F805A813F0D7F8704B70491A7891
:107BB00052B269480FF0A4FE674905A813F012F904
:107BC00005AA4021042005F0BFF805A813F0C4F869
:107BD00016E36849A9E76849A7E76849A5E768493E
:107BE000A3E76849A1E768499FE768499DE76849B5
:107BF0009BE7684999E7684997E705F039FD674BC6
:107C000000221A70664B1B78002B35D0654B1B7811
:107C1000002B6BD005F076FE634B644C1A886448E9
:107C200092B222809A78D2B2A2701A79D2B2E2705D
:107C30005A79D2B222719A79D2B26271DB795D4AF5
:107C4000DBB2A3710023E37123721268E2605A4A27
:107C50001268226123756375E37523766383A383BA
:107C6000E383564B1B681BB2238412F0EFFD40B236
:107C700084F8220006F0BEF8514B1B78002B01F06F
:107C80008780504B1C78002C41F082804E4932484E
:107C90004E4D0FF06CFE304905A813F0A3F805AA6D
:107CA0002146204605F050F805A813F055F82A683B
:107CB000474929480FF024FE274905A813F092F8F8
:107CC00005AA2146022005F03FF805A813F044F864
:107CD0002B68013B0F2B35D8DFE803F00B16181A81
:107CE0001C1E20222426282A2C2E303205F02EFE9F
:107CF00092E7384918480FF03AFE174905A813F0E3
:107D000071F805AA00215DE73349F3E73349F1E74C
:107D10003349EFE73349EDE73349EBE73349E9E727
:107D20003349E7E73349E5E73349E3E73349E1E737
:107D30003349DFE73349DDE73349DBE73349D9E747
:107D40003349D7E73349D5E7561E07007BE30020C8
:107D50007CA200208C1E0700B5D500207CE300200B
:107D60000E2B0700B2D5002025200700B4D5002037
:107D7000302007005A1E07005E1E0700621E070023
:107D8000661E07006B1E0700711E0700771E0700A6
:107D90007D1E0700831E0700881E0700D9D600201D
:107DA000B0D50020E4D90020DCD90020A4A1002017
:107DB00058E3002038D700203CD70020C4D600204C
:107DC000AFD5002008D70020921E0700DCD6002087
:107DD000A11E0700AB1E0700B91E0700C41E070046
:107DE000D01E0700DC1E0700E61E0700F01E07007D
:107DF000FC1E0700101F0700231F0700331F07008A
:107E0000401F07004A1F07005A1F0700681F07008E
:107E1000741F0700851F070005F02AFCA24B1B7882
:107E2000002B00F0B587A14B1E78002E40F0B087E4
:107E30009F4C657A022D41D0032D46D05DB99D49F6
:107E400005A812F0CFFF05AA2946084604F07CFFDA
:107E500005A812F081FF4FF47A7362689649B2FB6D
:107E6000F3F296480FF04CFD944905A812F0BAFFC2
:107E700005AA0021012004F067FF05A812F06CFF9D
:107E80008F4905A812F0AEFF002105AA022004F0D8
:107E90005BFF05A812F060FF8A4988480FF067FD74
:107EA000864905A812F09EFF002105AA032004F0D0
:107EB0004BFF05A812F050FF81491FE7824905A832
:107EC00012F090FF05AA3146BFE78049F7E705F0B9
:107ED000CFFB7F4B1B78002B45D07E4B1B78002BB4
:107EE00000F0DE8005F00EFD7B4B7C4C1A887C4850
:107EF00092B222809A78D2B2A2701A79D2B2E2708B
:107F00005A79D2B222719A79D2B26271DB79754A0A
:107F1000DBB2A3710023E3711278D2B22272724AEB
:107F20001268E260714A12682261714A118849B28E
:107F30002175118849B26175128852B2E2756D4A95
:107F4000127852B222766383A3836B4B1B78E38350
:107F50006A4B1B681BB2238412F078FC40B284F891
:107F6000220005F047FF504B1B78002B00F01087D4
:107F70004E4B1C78002C40F00B87614D614B2978EB
:107F8000614A4E485D4FDFF8A481002918BF1A46A8
:107F90005E490FF0B5FC494905A812F023FF05AA78
:107FA0002146204604F0D0FE05A812F0D5FE2B781D
:107FB00003F0FF06002B40F0BB804F4B54491A786A
:107FC0003E480FF09DFC3D4905A812F00BFF05AAA5
:107FD0003146012004F0B8FE05A812F0BDFE40486D
:107FE00012F034FC4B49024634480FF089FC334907
:107FF00005A812F0F7FE05AA3146022004F0A4FEFF
:1080000005A812F0A9FE374B43491A782B480FF008
:1080100077FC2A4905A812F0E5FE05AA40210220B6
:1080200004F092FE05A812F097FED8F800203B4914
:1080300022480FF065FC214905A812F0D3FE05AADD
:108040003146032004F080FE05A812F085FE3A6850
:1080500033491A480FF054FC184905A812F0C2FE23
:1080600005AA4021032004F06FFE05A812F074FE5B
:108070001F4B2C491A88114812B20FF041FC0F49CE
:1080800005A812F0AFFE05AA3146042004F05CFEFC
:1080900005A812F061FE174B23491A7852B288E501
:1080A00005F054FC20E700BFAFD5002008D7002022
:1080B00004A30020931F0700C71F0700B5D50020A9
:1080C000ABC90700F01E0700A21F0700B31F07007F
:1080D000B0D50020E4D90020DCD90020A4A10020E4
:1080E00058E30020B6D6002038D700203CD7002027
:1080F000B2D50020B4D50020B5D60020C4D60020CB
:10810000B7D60020291E070098210700DB1F0700B3
:10811000EC1F0700002007000920070012200700BD
:108120001A200700222007002D200700C8D60020B3
:10813000D8F800206A496B480FF0E2FB694905A8AE
:1081400012F050FE05AA2146012004F0FDFD05A80D
:1081500012F002FE3A68644962480FF0D1FB6149AF
:1081600005A812F03FFE05AA4021012004F0ECFD15
:1081700005A812F0F1FD2A785C495A480FF0C0FBBF
:10818000584905A812F02EFE05AA2146022004F047
:10819000DBFD05A812F0E0FD2B78013B0F2B51D839
:1081A000DFE803F008323436383A3C3E4042444679
:1081B000484A4C4E4E494B480FF0D9FB494905A857
:1081C00012F010FE05AA0021032004F0BDFD05A851
:1081D00012F0C2FD474812F039FB474902464148B8
:1081E0000FF08EFB3F4905A812F0FCFD05AA002107
:1081F000042004F0A9FD05A812F0AEFD04F0BEFDB8
:1082000004F0BCFD00F0C4BD3C49D4E73C49D2E7D2
:108210003C49D0E73C49CEE73C49CCE73C49CAE77A
:108220003C49C8E73C49C6E73C49C4E73C49C2E78A
:108230003C49C0E73C49BEE73C49BCE73C49BAE79A
:108240003C49B8E73C49B6E705F012FA3B4B1B78CE
:10825000002B00F09D853A4B1E78002E40F098854B
:10826000384C657A022D31D0032D36D05DB93649B0
:1082700005A812F0B7FD05AA2946084604F064FDDA
:1082800005A812F069FD4FF47A7362682F49B2FBBA
:10829000F3F214480FF034FB124905A812F0A2FDC6
:1082A00005AA0021012004F04FFD05A812F054FD9D
:1082B000274905A812F096FD002105AA022004F026
:1082C00043FD05A812F048FD2249E6E5224905A82C
:1082D00012F088FD05AA3146CFE72049F7E700BF35
:1082E00012200700B5D500201A200700372007000C
:1082F000AB1E070058E300204C200700B91E070002
:10830000C41E0700D01E0700DC1E0700E61E070083
:10831000F01E0700FC1E0700101F0700231F0700A8
:10832000331F0700401F07004A1F07005A1F07009E
:10833000681F0700741F0700851F0700AFD50020C6
:1083400008D7002004A30020931F0700C71F0700C1
:10835000ABC9070055200700A21F0700B31F070085
:10836000984F05F085F97B7A9749032B974B40F09E
:108370005F811A785E78DD781C7993F8028093F833
:1083800005A093F907B00B7806EB0226C5EB451064
:10839000B6B20A22B6FBF2F207EE902A05EB800590
:1083A000C4EB44108A4AF8EEE77A04EB800408F143
:1083B00038086D006400C2ED007A4FFA88F82DB2DB
:1083C00024B24FEA2A1A9146002B41D0814B1B78E8
:1083D000002B00F0E28005F095FA7F4A7F4B118870
:1083E0007F4889B219809178C9B299701179C9B260
:1083F000D9705179C9B219719179C9B25971D279CB
:10840000D2B29A710322DA715FFA8AF21A72754A4D
:108410001268DA60744A12681A610021734A197589
:1084200083F8158083F816B0128852B2DA75704A54
:10843000127836B252B21A765D839C83D9831E8439
:1084400012F004FA654B40B283F8220005F0D2FC2A
:10845000684B1B78002B00F09B84674B1B78002B2C
:1084600040F0968404F054FC7B7A022B0CBF6348E6
:108470006348012104F0ECFA5D4B62491A785B4BCA
:1084800061481B8852B21BB20FF03AFA5E4905A848
:1084900012F0A8FC0021084605AA04F055FC05A826
:1084A00012F05AFC43465A46584957480FF028FAEA
:1084B000554905A812F096FC05AA0021012004F0F8
:1084C00043FC05A812F048FC524651494E480FF0B3
:1084D00017FA4D4905A812F085FC05AA00210220D3
:1084E00004F032FC05A812F037FC4A4905A812F046
:1084F00079FC05AA3221022004F026FC05A812F01E
:108500002BFC454905A812F06DFC05AA502102205C
:1085100004F01AFC05A812F01FFC404905A812F04F
:1085200061FC05AA0021032004F00EFC05A812F04E
:1085300013FCFE7A3A4F002E32D02A46394932488F
:108540000FF0DEF9304905A812F04CFC05AA3221E3
:10855000032004F0F9FB05A812F0FEFB31492A487C
:1085600022460FF0CDF9284905A812F03BFC05AAD8
:108570005021032004F0E8FB05A812F0EDFBD9F828
:1085800000003C6848F0D0FE009402460B461E48AE
:1085900025490FF0B5F9FFF7B0BB05F0D7F91CE797
:1085A000224919480FF0E3F9174905A812F01AFCFF
:1085B00005AA3221032004F0C7FB05A812F0CCFB6A
:1085C000D1E700BF04A30020B0D5002082D5002051
:1085D000CCD60020E4D90020DCD90020A4A10020C2
:1085E00058E3002038D700203CD70020B2D5002027
:1085F000B4D50020AFD5002008D70020781D070093
:10860000881D07006B200700B5D5002082200700D9
:1086100099200700A4200700A8200700AC2007002D
:10862000C8D60020FD1F0700B5200700CA2007009C
:10863000DD7893F801809E7893F805A0C5EB45128C
:1086400005EB82051A790B78C2EB421902EB890916
:10865000A8F1C808C83E6D004FEA49091FFA88F81A
:10866000B6B22DB20FFA89F9002B42D0894B1B7894
:10867000002B00F0FB8005F045F9874B874C1A88EA
:10868000874892B222809A78D2B2A2701A79D2B276
:10869000E2705A79D2B222719A79D2B26271DB79E0
:1086A000DBB2A3710223E3717E4B84F808A01B6840
:1086B000E3607D4B1B6823614FFA88F3237573B227
:1086C00063757A4B1B885BB2E375794B1B785BB2A1
:1086D000237600236583A4F81C90E383754B1B6805
:1086E0001BB2238412F0B2F840B284F8220005F0E5
:1086F00081FB714B1B78002B00F04A836F4B1B787A
:10870000002B40F0458304F003FB7B7A022B0CBF67
:108710006B486C48012104F09BF9654B6A491A7853
:10872000624B6A481B8852B21BB20FF0E9F86749E6
:1087300005A812F057FB0021084605AA04F004FB27
:1087400005A812F009FB4FFA8AF261495F480FF061
:10875000D7F85E4905A812F045FB05AA00210120C3
:1087600004F0F2FA05A812F0F7FA5A4905A812F037
:1087700039FB05AA3221012004F0E6FA05A812F01F
:10878000EBFA554905A812F02DFB05AA502101204E
:1087900004F0DAFA05A812F0DFFA504905A812F041
:1087A00021FB05AA0021022004F0CEFA05A812F050
:1087B000D3FA4B4905A812F015FB05AA00210320A6
:1087C00004F0C2FA05A812F0C7FA0FFA88F2454978
:1087D0003E480FF095F83D4905A812F003FB05AAA5
:1087E0003221022004F0B0FA05A812F0B5FA32B234
:1087F0003C4936483C4E0FF083F8344905A812F046
:10880000F1FA05AA3221032004F09EFA05A812F01D
:10881000A3FAFC7A274F64B32A4632492B480FF05B
:108820006FF82A4905A812F0DDFA05AA50210220A6
:1088300004F08AFA05A812F08FFA2A4923484A461A
:108840000FF05EF8214905A812F0CCFA05AA5021D4
:10885000032004F079FA05A812F07EFA3A68234959
:1088600033681A480FF04CF8FFF747BA05F06EF876
:1088700003E71F4915480FF07AF8144905A812F0CC
:10888000B1FA05AA5021022004F05EFA05A812F000
:1088900063FAD7E7E4D90020DCD90020A4A10020A6
:1088A00058E3002038D700203CD70020B2D5002064
:1088B000B4D50020C4D60020AFD5002008D70020B2
:1088C000781D0700881D07006B200700B5D5002024
:1088D00099200700E6750700AC200700A4200700D8
:1088E000A8200700FD1F0700C8D60020CD200700E4
:1088F000CA20070004F0BCFE9F48042112F023F9AF
:108900009E4B1B78002B37D09D4B1B78002B00F023
:10891000ED8004F0F7FF9B4B9B4C1A889B4892B26A
:1089200022809A78D2B2A2701A79D2B2E2705A79C1
:10893000D2B222719A79D2B26271DB79944ADBB2F7
:10894000A3710223E371002323721268E260914A4B
:108950001268226123756375E37523766383A383AD
:10896000E3838D4B1B681BB2238411F06FFF40B271
:1089700084F8220005F03EFA884B1B78002B00F0AB
:108980000782874B1B78002B40F00282854D864C76
:1089900004F0BEF96B7A032B0CBF84488448012194
:1089A00004F056F8834984480EF0E1FF824905A897
:1089B00012F018FA0021084605AA04F0C5F905A826
:1089C00012F0CAF97D4B1E78002E00F071817C4FA9
:1089D000DFF8C4914FF0000883F800803B7803F083
:1089E000FF06002B40F08580764B77491A78724855
:1089F0000EF086FF704905A812F0F4F905AA314679
:108A0000012004F0A1F905A812F0A6F95F4811F0C1
:108A10001DFF6E49024668480EF072FF664905A8C0
:108A200012F0E0F905AA3146022004F08DF905A8FC
:108A300012F092F9664B67491A785F480EF060FFB2
:108A40005D4905A812F0CEF905AA4021022004F0E4
:108A50007BF905A812F080F922685F4956480EF0AC
:108A60004FFF554905A812F0BDF905AA314603206C
:108A700004F06AF905A812F06FF9D9F800205749F7
:108A80004D480EF03DFF4C4905A812F0ABF905AA80
:108A90004021032004F058F905A812F05DF9504B6D
:108AA00050491A88444812B20EF02AFF424905A8DC
:108AB00012F098F905AA3146042004F045F905A8FA
:108AC00012F04AF9484B49491A783B4852B20EF025
:108AD00017FF394905A812F085F905AA402104209D
:108AE00004F032F905A812F037F9A9E004F02EFFDE
:108AF00011E72268384930480EF002FF2E4905A8D8
:108B000012F070F905AA4146012004F01DF905A8EC
:108B100012F022F9D9F80020304927480EF0F0FE73
:108B2000254905A812F05EF905AA4021012004F0AC
:108B30000BF905A812F010F93A782D491E480EF0ED
:108B4000DFFE1D4905A812F04DF905AA4146022095
:108B500004F0FAF805A812F0FFF83B78013B0F2B60
:108B600000F2A480DFE803F0468486888A8C8E9029
:108B7000929496989A9C9EA011E30020B0D5002074
:108B8000E4D90020DCD90020A4A1002058E3002073
:108B900038D700203CD70020C4D60020AFD5002015
:108BA00008D7002004A30020C8D60020E120070039
:108BB000781D0700F2200700B5D50020AED50020B3
:108BC000B7D60020B5D60020EC1F07000020070014
:108BD000B6D6002009200700122007001A2007003F
:108BE000B2D5002022200700B4D500202D20070098
:108BF00037200700704971480EF0B9FE6F4905A88B
:108C000012F0F0F805AA0021032004F09DF805A851
:108C100012F0A2F86A4811F019FE6A490246674844
:108C20000EF06EFE654905A812F0DCF805AA0021D9
:108C3000042004F089F805A812F08EF804F09EF8DC
:108C40006B7A032B48D1604B1868246848F06CFBA2
:108C5000009402460B4659485C490EF051FE5749B4
:108C600005A812F0BFF805AA00210520FEF7ABBF4A
:108C70005749C0E75749BEE75749BCE75749BAE7E4
:108C80005749B8E75749B6E75749B4E75749B2E7F4
:108C90005749B0E75749AEE75749ACE75749AAE704
:108CA0005749A8E75749A6E75749A4E75749A2E714
:108CB000574905A812F096F805AA3146022004F09B
:108CC00043F805A812F048F8524905A812F08AF8AE
:108CD00005AA3146032003E74F4B50491A6837482D
:108CE00023680EF00DFEBAE704F0C2FC4C4B5C7A30
:108CF000012C20D0042C4ED0002C46D104F008F8D2
:108D00000121484803F0A4FE474905A812F06AF87B
:108D100005AA2146204604F017F805A812F01CF811
:108D2000424926480EF023FE244905A812F05AF8BD
:108D300005AA214621E03E4B1B7833B33D4B1D78FD
:108D40001DBB03F0E5FF3748214603F081FE3A4999
:108D500005A812F047F805AA2946284603F0F4FFB3
:108D600005A811F0F9FF314914480EF000FE13492F
:108D700005A812F037F805AA2946032003F0E4FFFE
:108D800005A811F0E9FF03F0F9FF2C4B00221A703F
:108D90000FB0BDE8F08F264B1B78002BF5D0254B8C
:108DA0001C78002CF1D103F0B3FF01211D4803F022
:108DB0004FFE2349A9E700BFAB1E0700B5D5002031
:108DC00058E300204C200700CCD60020B520070037
:108DD000B91E0700C41E0700D01E0700DC1E0700D6
:108DE000E61E0700F01E0700FC1E0700101F07000C
:108DF000231F0700331F0700401F07004A1F0700FB
:108E00005A1F0700681F0700741F0700851F07000F
:108E1000072107001B210700C4D60020CD20070032
:108E200004A30020EA1D0700931F07002F2107005D
:108E3000AFD5002008D700202D1E0700D9D600206E
:108E40003B21070004F014FC624B1B78002B37D049
:108E5000614B1B78002B00F0A08004F053FD5F4AAB
:108E60005F4B118889B219809178C9B299701179D4
:108E7000C9B2D9705179C9B219719179C9B2597110
:108E8000D2795849D2B29A710122DA7100221A724B
:108E90000968D96054490968196154491A755A75A5
:108EA000098849B2D9755249097849B219765A8365
:108EB0009A83DA834F4A126812B21A8404F09AFF36
:108EC0004D4B1B78002B3FF463AF4C4B1C78002CB0
:108ED0007FF45EAF4A494B480EF049FD494905A869
:108EE00011F080FF05AA2146204603F02DFF05A8BA
:108EF00011F032FF444B45491A6842480EF000FD1C
:108F0000404905A811F06EFF05AA2146012003F093
:108F10001BFF05A811F020FF3D493A480EF027FD40
:108F2000384905A811F05EFF05AA2146022003F08A
:108F30000BFF05A811F010FF364B37491A6831486E
:108F40000EF0DEFC2F4905A811F04CFF05AA4021C8
:108F5000022003F0F9FE05A811F0FEFE2F49294872
:108F60000EF005FD274905A811F03CFF05AA214692
:108F7000032003F0E9FE05A811F0EEFE284B264978
:108F80001A6820480EF0BCFC1E4905A811F02AFF03
:108F900005AA40210320FEF7F0BD04F0D7FC5EE7F0
:108FA000154B1B78002B3FF4F3AE144B1C78002CB0
:108FB0007FF4EEAE03F0ACFE2A781A4911480EF0A9
:108FC0009FFC104905A811F00DFF05AA2146204677
:108FD000FEF7F9BDB0D50020E4D90020DCD900208F
:108FE000A4A1002038D700203CD70020B2D5002013
:108FF000B4D50020C4D60020AFD5002008D700206B
:109000003B210700B5D50020C8D600203B1E070035
:109010004B210700D0D60020552107005B21070017
:10902000D4D600206221070010B5044605F06CFA82
:10903000204610BD0F4BB0B100221A700E4B0F4AE4
:1090400018600F4B11685B7A023B012B01F10101A3
:109050000C4B116094BF072202221A700A48FA22B0
:10906000012111F066BD1B7813B1064B0822F4E70D
:10907000704700BFD9D60020DCD60020C4D600201F
:1090800004A3002080D5002011E30020174B00220C
:109090001A70174B90F906201A70164BB0F904207D
:1090A0001A80154A03781370144A41781170144AD3
:1090B00081781170134A012111701BB1124A136893
:1090C0000B441360114B12485B7A023B012B114B8E
:1090D00095BF072204221A701A7099BF42F21072CB
:1090E0000421FA22012111F024BD00BFD9D60020AD
:1090F000B4D50020B2D50020B7D60020B5D60020C8
:10910000B6D60020AED50020C4D6002004A300208F
:1091100011E3002080D5002038B5164BB0F90A20A5
:109120001A80154B90F90C201A70144B42781A7063
:1091300003780446EBB1124B5B7A023B012B15D846
:109140001048042111F0FFFC2378023B012B0DD8BD
:109150000D4D227A61680D4806232B700DF062FEDA
:1091600008482B46FA22012111F0E3FC084B0022AB
:109170001A7038BDB2D50020B4D50020B1D500207A
:1091800004A3002011E3002080D5002082D5002018
:10919000D9D6002030B54FF080432DED028BD3F8A7
:1091A0003834032B83B027D01448144D11F08CFCB5
:1091B0000A24B0EE408A284611F086FC013C38EEC5
:1091C000008AF8D1B2EE067AC8EE077A9FED0C7AE3
:1091D000DFED0C6A67EE877A9FED0B7A67EE877A90
:1091E00087EEA67AFCEEC77ACDED017A9DF80400F1
:1091F00003B0BDEC028B30BD0020F9E70DE3002089
:1092000000007A440040834500007F4308B5064BC8
:109210001B783BB112F02BF8BDE80840014603482B
:10922000FEF782B808BD00BF09D70020B8D60020DD
:1092300008B51A4B1A4801221A7011F01CFA18B11D
:109240001848002111F0E1F9174811F065FB1749A2
:10925000174811F073FA1749154811F07FFA1649AB
:10926000134811F073FA1549114811F07FFA1449A7
:109270000F4811F083FA0021124811F0BDFA0221C3
:10928000114811F027FB114BD97A01B1012122209D
:1092900011F0E1FF0E4B02221A7008BDA2A10020BE
:1092A00084E300206EE300206DE3002019910200AA
:1092B00049E3002035900200B57302008D90020052
:1092C0008D73020051E300206BE3002004A3002013
:1092D00094A1002008B50F4B0F480021197011F020
:1092E00094F90E4811F0CBF90D490B4811F0D4F95F
:1092F0000C49094811F0D8F94FF6FD71064811F0F4
:1093000084F9094BD97A01B10121BDE80840222036
:1093100011F0A1BFA2A100206EE3002084E3002091
:1093200005740200E173020004A3002008B51A4B83
:109330001A4801221A7011F09EF918B1184800213C
:1093400011F063F9174811F0E7FA1749174811F0BF
:10935000F5F91749154811F001FA1649134811F0AB
:10936000F5F91549114811F001FA14490F4811F0A7
:1093700005FA0021124811F03FFA1248022111F0BB
:10938000A9FA114BDB7A1BB10121222011F063FFF6
:109390000E4B01221A7008BDA2A1002084E3002018
:1093A0006EE300206DE300201991020049E30020E4
:1093B00035900200B57302008D9002008D7302009B
:1093C00051E300206BE3002004A3002094A10020BF
:1093D00010B50B4C00212046FDF76CFF2046094CD0
:1093E000094A0A490DF0B0FCFF21204605F080F83B
:1093F0002046054A0649BDE810400DF0A5BC00BF57
:10940000B8D60020A4D5002090A10020BF72020091
:10941000299002002DE9F04F012187B0222011F0A0
:1094200003FF0121232011F0FFFE0121242011F070
:10943000FBFEAA48AA4E11F07FFD03F0D5FA30706A
:1094400068B1A849A8480EF092FAA748012103F094
:10945000FFFAA64803F0FEFBA54803F0FBFB002142
:10946000222011F0F8FE0223A24806224FF4E13137
:1094700011F010F84FF08043D3F83834032B74D137
:109480004FF4FA601BF0D2FC0A23022203AC9A4983
:1094900000939548994D9A4F00230EF031FA924966
:1094A000204611F09FFC2146964811F0E1FA204633
:1094B00011F052FC0121232011F0CDFE00212320C8
:1094C00011F0C9FE0021242011F0C5FE02F092FA2D
:1094D00002F0BCFA02F0A4FA02F0F2F902F006FA85
:1094E00002F01AFA02F0C8FA02F058FA02F028FD67
:1094F00000F032FA002000F051F96B7A023B012BA8
:109500005BD8012002F0DAFD38703B7813B17E4859
:1095100003F0A0FB04F000F97C4F387060B104F058
:10952000F1F994E803002AF032F802F021FA3B78CE
:1095300013B1774803F08EFB04F062FA754F387070
:1095400048B104F077FB387002F0FCF93B7813B1B6
:10955000714803F07FFB02F037FA6B7A042B30D8A6
:10956000DFE803F053A0ADBAA90011F080FEDFF8E8
:1095700084A107464FF0000B41F287384FF00009F5
:10958000504610F06CFF00287FF47EAF11F06FFEA4
:10959000C41B6BEB4B05A04579EB0503FFF674AFDD
:1095A00064201BF043FC232011F05AFEB0FA80F136
:1095B0004909232011F04FFEE2E7E87A0028A0D104
:1095C000A0E733780BB3554947480EF0D0F9464928
:1095D000204611F007FC00212246084603F0B4FBA8
:1095E000204611F0B9FB4E493F480EF0C0F93E4904
:1095F000204611F0F7FB22460021012003F0A4FBD6
:10960000204611F0A9FB03F0B9FB464803F022FB0A
:10961000454811F007F910B9444803F01BFBFFF768
:1096200007FE4FF47A7342496A682F48B2FBF3F29F
:109630000EF066F92C4803F00DFB3E4A3E4801232C
:10964000002111F06CFA6A6822B100233A481946E9
:1096500011F06FFA394A38480023012111F05FFAFE
:109660000023374A3448022111F059FAAB7A33B15A
:10967000314800234EF66022022111F05AFA314A95
:109680002D480123032111F04AFA2F4A2A480023CA
:10969000042111F044FA01212C4811F0BCFD07B05F
:1096A000BDE8F08FFFF716FE294803F0D3FA2948EA
:1096B00003F0D0FAB5E7FFF70DFE2748F5E7274896
:1096C00003F0C8FA184811F0ADF810B9174803F0C4
:1096D000C1FAFFF72BFEA4E72148F1E78CE3002055
:1096E000AFD50020EA1D0700B5D500207321070083
:1096F0008021070030E20020A629070004A30020F3
:10970000ADD50020B8E200208C210700E4D900206C
:1097100094210700B0D500209B210700A621070057
:10972000B8210700931F070054E30020C821070059
:10973000C71F0700A174020011E30020B9780200DE
:10974000D1CD0200C5C502009D730200A9E2002030
:10975000321E0700D62107003B210700A21F070089
:10976000B31F07007047000008B5054805F03AF838
:10977000034805F056F8BDE80840014805F070B808
:10978000E0D6002007B531220DF10701024805F0AF
:1097900071F803B05DF804FBE0D6002073B500213A
:1097A0000446112011F040FD524811F0C5FB524B08
:1097B000002C00F0848000229A800A22DA804FF484
:1097C00081721A8140F201125A814B4805F0E2F889
:1097D0000546002840F08B80002C38D02A2230210A
:1097E00045488DF80720012604F0EEFE08223221BC
:1097F00041488DF8072004F0E7FE324633213E4809
:109800008DF8076004F0E0FE24220DF107013A48CC
:1098100005F030F89DF80720374822F00C0242F09E
:10982000080224218DF8072004F0CEFE60222221B8
:1098300031488DF8072004F0C7FE2A4625212E481E
:1098400004F0C2FE2C483246212104F0BDFE002562
:1098500020220DF1070128488DF8075005F00AF87D
:109860009DF80720244842F0080220218DF80720A7
:1098700004F0AAFE64201BF0D9FA1E220DF10701A4
:109880001D488DF8075004F0F5FF9DF807201A4891
:1098900042F090021E218DF8072004F095FE64200E
:1098A0001BF0C4FA8CB1FFF76DFF1449042211209C
:1098B00010F0B4FDFFF758FF204602B070BD022241
:1098C0009C80DC801A815C817FE720220DF10701FA
:1098D000094804F0CFFF9DF80720074802F0400236
:1098E00020218DF80720012404F06EFEE4E7002417
:1098F000E2E700BF8CE30020E0D60020659702007D
:1099000002481822002104F019BE00BFE0D6002052
:10991000D0B511F0ACFC0D4C0D4B0021C3E900019A
:1099200011F0A5FCD4E90032C61A62EB4207C92E39
:1099300077F1000309DB11F09AFC064A206000234E
:10994000636013780133DBB21370D0BDF8D600200A
:1099500000D7002009D7002008B50221092011F006
:1099600063FC06490322092010F058FD044905480C
:1099700001236422FDF7B6FC012008BD1199020005
:109980007D9F0200B8D600202DE9F04FC74D91B061
:1099900011F06DFCD5E900230024811A64EB030368
:1099A00000910193DDE9002340F6B8300021904298
:1099B00071EB0303A346A246A146A04627462646CE
:1099C00077DB11F054FCD5E90023811A63EB4303E4
:1099D00002910393DDE90223B2F5C87F73F100031E
:1099E00073DA11F044FCD5E90023811A63EB4303D9
:1099F00004910593DDE90434B3F5C87F74F10003E5
:109A000080F2858011F033FCD5E90023811A63EBE5
:109A1000430306910793DDE90634B3F5167F74F12D
:109A2000000380F2998011F022FCD5E90023811A0D
:109A300063EB430308910993DDE90834B3F5487FEC
:109A400074F1000380F2AE8011F011FCD5E900231F
:109A5000811A63EB43030A910B93DDE90A34B3F5F2
:109A6000966F74F1000380F2C08011F000FCD5E91C
:109A70000023811A63EB43030C910D93DDE90C3451
:109A8000B3F5AF6F74F1000380F2D28011F0EFFBF9
:109A9000D5E90023811A63EB43030E910F93DDE9AF
:109AA0000E34B3F5C86F74F1000380F2E28008242D
:109AB00074E0092011F0D4FB002882D17C4B1B7884
:109AC000002B3FF47EAF022468E0794B1B78012B1A
:109AD00087D1092011F0C4FB012882D10023C82CB2
:109AE00010D00920009311F0BBFB009B012804BF9C
:109AF0000133DBB2012001340093E4B21BF096F98C
:109B0000009BECE7C62B7FF66CAF002446E0684B69
:109B10001B78022B7FF476AF092011F0A1FB0128FE
:109B20007FF470AF0024BBF1C80F10D0092011F0F2
:109B300097FB012808BF01344FF001000BF1010B26
:109B400008BFE4B25FFA8BFB1BF070F9EBE7C62CA1
:109B50007FF658AF012421E0554B1B78032BDCB274
:109B60007FF461AF4FF0000BBAF1C80F12D009209B
:109B700011F076FB012808BF0BF1010B4FF001003B
:109B80000AF1010A08BF5FFA8BFB5FFA8AFA1BF041
:109B90004DF9E9E7BBF1C60F7FF645AF204611B09E
:109BA000BDE8F08F424B1B78042BDCB27FF44CAF46
:109BB0004FF0000AB9F1C80F12D0092011F050FB84
:109BC000012808BF0AF1010A4FF0010009F101095B
:109BD00008BF5FFA8AFA5FFA89F91BF027F9E9E70B
:109BE000BAF1C60F7FF630AFD8E7314B1B78052BA3
:109BF000DCB27FF43AAF4FF00009B8F1C80F12D0D1
:109C0000092011F02DFB012808BF09F101094FF0CF
:109C1000010008F1010808BF5FFA89F95FFA88F8C6
:109C20001BF004F9E9E7B9F1C60F7FF61EAFB5E7FF
:109C30001F4B1B78062BDCB27FF428AF4FF00008D7
:109C4000C82F11D0092011F00BFB012808BF08F123
:109C500001084FF0010007F1010708BF5FFA88F81B
:109C6000FFB21BF0E3F8EBE7B8F1C60F7FF60EAFDB
:109C700094E70F4B1B78072BDCB27FF418AF00255D
:109C8000C82E0FD0092011F0EBFA012808BF0135CA
:109C90004FF0010006F1010608BFEDB2F6B21BF06D
:109CA000C5F8EDE7C62D7FF602AF77E700D70020B5
:109CB00009D7002073B58D4D8D4C6A7A637A9A422C
:109CC00031D003F025F800218A4802F0C1FE6B680C
:109CD00063606B7A884863726B89638102F0BAFFB4
:109CE000864802F0B7FF03F049F801F0EBFE40F6BA
:109CF000B8301BF09BF8637A8148012B4FF00001CC
:109D000001D0042B7AD110F080FC32230022009382
:109D10007C480A23114610F0D0FC7B4810F0AFFCC1
:109D20007A4810F0CFFEEA7AE37A9A4207D06B7A4B
:109D3000023B012B94BF0120002002F0BFF96A68AA
:109D400063689A4203D16A8963899A4213D002F008
:109D5000DFFF694802F07EFF684802F07BFF03F0F6
:109D60000DF86B6863606B89638101F0ABFE40F6B0
:109D7000B8301BF05BF8664810F0CAFD00284BD0E5
:109D8000644810F051FD644B1978884205D00039C1
:109D9000604818BF012110F049FD604810F056FDE1
:109DA0005F4B1978884202D05C4810F051FD5D4845
:109DB00010F05EFD5C4B1978884202D0594810F0D3
:109DC00059FD5A4D5A482E7810F064FD86420BD04A
:109DD0002978574810F06AFD322301220093494840
:109DE0000A23114610F069FC02F092FF637A042BFB
:109DF00052D8DFE803F04E707476720010F005FC64
:109E000001223223009311460A233E4810F055FCEC
:109E10003F4810F081FD83E7464D4748296810F020
:109E2000AEFB454810F0A9FB2968884202D04248A1
:109E300010F0A5FB414810F0B1FB414B1978884266
:109E400002D03E4810F0ACFB3E4D3F482E7810F05B
:109E5000B6FB864203D029783B4810F0B2FB3B4862
:109E600010F0BEFB3A4B1978884202D0374810F008
:109E7000B9FB384810F0C7FB374B1978884202D03D
:109E8000344810F0D1FB4FF6FD711D4810F0BDFBBA
:109E9000AAE7324802F0DEFE4FF47A736268304976
:109EA000B2FBF3F22F480DF02BFD2E4802F0D2FE4C
:109EB000626822B100232C48194610F03AFEA37ABA
:109EC0008BB1294800234EF66022022102B0BDE882
:109ED000704010F02EBE2548DCE72548DAE725481B
:109EE000D8E72548D6E702B070BD00BFD0A100205A
:109EF00004A30020E4210700EB210700FB21070059
:109F00006EE3002049E3002084E30020A8E2002063
:109F10006DE3002055E300200BD7002058E300201C
:109F20000DD7002060E300200ED700200CD70020C2
:109F30006AE3002018D7002079E300207AE30020AC
:109F40001CD7002013D700207BE300207CE30020F7
:109F500014D700207EE300201DD70020931F0700A8
:109F6000C71F0700B5D5002011E30020321E0700EF
:109F70003B210700A21F0700B31F07002DE9F04F88
:109F800087B0FFF701FD072800F2CE81DFE810F06F
:109F9000BE044C030800CF01B00053002D001A008E
:109FA000914B00201870914B00240025C3E9004517
:109FB0008F4B1B7823B107B0BDE8F04F02F0E6BE2F
:109FC0000120F8E7884B00221A70884B00200021FE
:109FD000C3E90001874B1C783CB902F099FE864822
:109FE000214602F035FD1AF038FF7F4B00221A702F
:109FF0007E4B00200021C3E900017E4B1C7874B128
:10A000007E4B1A78052A40F08F8110221A707C4B03
:10A01000D97A01919B7A00937A4B1B785BE002F02E
:10A0200077FE7948214602F013FD784807B0BDE875
:10A03000F04F10F047BD6C4B00221A706B4B0020A4
:10A040000021C3E900016B4B1B78002B00F06C81F1
:10A050006A4C2378052B00F26781DFE813F00600D5
:10A0600065016501220030004000694810F050FC95
:10A070000128634B0AD104222270D97A01919B7A7C
:10A080006449009309786448FF2315E00522227093
:10A09000D97A01919B7A6149009309786048FF233E
:10A0A0000AE0574B0322D97A5A7201919B7A0093A6
:10A0B00005235C495C48097802F08EFE34E10723F1
:10A0C0005A48237010F0E6FB4D4AD37A0193937AF5
:10A0D0000093C3B22278564956480978ECE7484BBA
:10A0E0000E22D97A227001919B7A0093524B94E709
:10A0F0003D4B00221A703D4B00200021C3E90001B6
:10A100003C4B1B78002B00F0A5803C4C2378062BA1
:10A1100000F20A81DFE813F007002103120020009B
:10A120002A0057006000364903224B7AC87A227011
:10A130000190897A00910233DBB2BAE7304A937A10
:10A1400083F001039372D27A019200930222FF23DB
:10A150003A493B480978AFE7294B02225A72DA7A2A
:10A1600001929B7A009304230322A2E70A232F483B
:10A17000237010F08FFBC0B20C280ED8DFE800F07F
:10A180000717171D171D1D17171717171D002D4B24
:10A1900000221A702C4B05221A70194A2B4BD17AC7
:10A1A0001B780191927A00920A33DBB292E7254B39
:10A1B00000221A70244B0722EEE7224B00221A706D
:10A1C000214B0A22E8E70E4B0D22D97A2270019129
:10A1D0009B7A00931E4B20E7094BDA7A01929B7A17
:10A1E000009300233CE100BF09D7002000D70020E6
:10A1F0004CA5002008D700200C2207000AD7002019
:10A20000D0A100201DD7002017220700A8E20020BF
:10A210006DE30020B8A20020A4A20020E8A2002044
:10A22000D0A2002078A2002064A200206AE30020CF
:10A23000CCA10020C8A1002014D70020CCA200206F
:10A24000BCA2002012D7002010D700200DD700207C
:10A2500013D700209F4810F05BFB012864D19E4D6E
:10A260006A7A012A60D0042A5ED09C4E3278002A95
:10A270005AD19B4C9B4B20701B7804940BB902F075
:10A2800085FD00219848DFF86CB210F05CFC97481F
:10A2900010F000FB964B53F820309648039310F0D3
:10A2A000D5FA4FF0000A0746039B33F81A2042B351
:10A2B0005FFA8AF1584610F0CBFA64201AF0B6FD26
:10A2C0000020FDF7EDF810F0D2FF0246307805923D
:10A2D00098B14FF47A701AF0A9FD10F0C8FF059AF2
:10A2E00042F21073B0EB02084FF0000161EB01097C
:10A2F0000024434574EB0903E8DA4FF4FA601AF0DE
:10A3000095FD0AF1010ABAF1100FCDD1794839460D
:10A3100010F09EFA6A6822B100237348194610F0C3
:10A3200008FC049A0023137007B0BDE8F08F724B4D
:10A3300000221A70714B00240025C3E90045704BC0
:10A340001B78002B00F041816E4C2278102AEBD84C
:10A3500001A353F822F000BF9DA302005BA70200F7
:10A36000AFA30200BFA30200D1A302002DA40200EC
:10A370003FA4020065A4020029A3020083A40200F6
:10A38000A9A402002DA5020051A5020071A502009A
:10A390008FA5020029A30200ABA5020002222270B1
:10A3A000594BD97A01919B7A0093FF23D0E6564A04
:10A3B000D37A83F00103D3720193937AC5E6524BAB
:10A3C00001225A72DA7A01929B7A00930323CBE638
:10A3D00009234648237010F05DFAC0B20C2814D847
:10A3E000DFE800F007070707070D1B0721212121E0
:10A3F0001B00464B00221A70454B052204E0434BDC
:10A4000000221A70424B04221A703F4BDA7A0192F2
:10A410009B7A00933F4B1B785CE63C4B00221A7002
:10A420003B4B0622F0E7394B0222E4E7364B0C2285
:10A43000D97A227001919B7A0093374BEDE5324B2C
:10A440005A6842B142F20F718A428ABFA2F51C5289
:10A450000022103A5A60DA7A01929B7A0093FF2325
:10A46000062238E62D4A137813B1013BDBB200E037
:10A470000C231370244AD17A0191927A0092072218
:10A4800029E6244A214913780978994209D1204BB9
:10A490001B7813701C4AD17A0191927A009209229A
:10A4A00019E6013BDBB2F4E71D4A1E49137809782F
:10A4B00099420BBF1C4B03F1FF331B78DBB21370C7
:10A4C000114BDA7A01929B7A0093124B1B780A2285
:10A4D00001E600BF6DE3002004A30020D9D60020D0
:10A4E00081D500204CA5002011E300206AE3002064
:10A4F000FCA4002058E3002009D7002000D700204A
:10A5000008D700200AD70020D0A1002011D70020B2
:10A510000FD700200DD700201CD700200CD700201B
:10A520000ED7002012D7002010D70020A04AA14942
:10A530001368A3F5C333A03B8B4298BF9E4B1360B7
:10A540009E4BDA7A01929B7A00930B22FF23C2E59D
:10A550009B490B78062B1CBF03F1FF33DAB2974BF4
:10A560000A70D97A01919B7A009313460C22B2E5C6
:10A57000944A137813B1013BDBB200E00923137056
:10A580008E4AD17A0191927A00920D22A3E58E4AE9
:10A59000117809B1481EC0B21070884AD37A01936D
:10A5A000937A009303460E2295E5884A1378052B8B
:10A5B00002D0013BDBB200E0162313707F4AD17A50
:10A5C0000191927A0092102285E5814810F0A0F95D
:10A5D000804B01281B781ED1002B7FF4A5AE7E4B4B
:10A5E0001B780BB902F0D2FB00217C4810F0ABFACB
:10A5F0007B4B012200201A70FCF752FF794B5A68FE
:10A60000002A3FF491AE00237448194607B0BDE814
:10A61000F04F10F08EBA002B7FF486AE6E4B1B7895
:10A62000002BE1D10120DDE76F4B704D704C002213
:10A630001A70704B00210020C3E90001297800291D
:10A6400059D1664810F07FFA0121644810F07BFA76
:10A650006248022110F077FA5F4B1B7813B9012092
:10A6600002F094FB01235F4A2B7000232370534BAD
:10A6700051685960517A528955485A81597210F07F
:10A6800047F90146D8B15C4810F0E0F85B4B187010
:10A690005B4810F0FFF85B4B18705B4810F0C4F893
:10A6A0005A4B18705A4810F0E3F85A4B18700023B0
:10A6B000CDE900332278584958480978FCE45848D5
:10A6C0000FF0A3FF57480FF058FF394B186056485A
:10A6D0000FF064FF3A4B187054480FF070FF394B7D
:10A6E000187053480FF07CFF374B187051480FF02B
:10A6F0008AFF364BDAE72378102B3FF615AE01A21E
:10A7000052F823F049A702005BA702006DA70200E0
:10A7100071A7020083A702009BA70200F9A802000C
:10A720009FA7020039A8020055A8020069A80200EC
:10A730008BA80200A1A80200BDA80200CDA80200BB
:10A7400029A30200E9A8020001221C4B2270D97A39
:10A7500001919B7A0093FF23BDE400222270174BE6
:10A76000D97A01919B7A0093FF23A4E70622ECE7B4
:10A77000124B00225A72DA7A01929B7A00930223DA
:10A78000F2E40E49214BC87A1B780822227001900E
:10A79000897A00910A33DBB29DE40B22D5E7194A8E
:10A7A00013780C2B01D0013360E6002361E600BF73
:10A7B00018D700207F47A1198047A119D0A10020F8
:10A7C0001CD7002013D7002014D700201DD700204D
:10A7D0006DE30020D9D600204CA5002011E3002015
:10A7E000A2D5002004A3002009D7002008D700200C
:10A7F0000AD7002000D7002058E300200DD7002002
:10A800006AE300200CD7002055E300200BD700207E
:10A8100060E300200ED7002000A30020ECA200205F
:10A820006EE3002079E300207AE300207BE3002040
:10A830007CE300207EE300205C4A1378B3FA83F3C4
:10A840005B0913705A4AD17A0191927A00920A33C5
:10A85000082240E4574A584913780978994201D1AF
:10A86000564B15E601331DE6554A564913780978CB
:10A8700099420BBF544B01331B78DBB213704C4A27
:10A88000D17A0191927A009221E6504A5049136898
:10A8900003F5C333A0338B4294BF136011604FE6BE
:10A8A0004C4A13780C2B1ABF0133DBB2062313700A
:10A8B0003F4AD17A0191927A009257E6464A13783C
:10A8C000092B01D0013357E6002358E6434A137899
:10A8D000032B1ABF0133DBB200231370344AD17A41
:10A8E0000191927A00925EE63D4A1378162B01D0D0
:10A8F00001335FE6052360E62D4A536803F51C53D8
:10A9000010335360D37A0193937A69E4354B002274
:10A910001A70354B354A00210020C3E90001117837
:10A9200000293FF401AD324B197810293FF6FCACF9
:10A9300001A050F821F000BF7DA902008BA9020000
:10A940008BA902008BA902008BA902008BA902002F
:10A95000A5A9020091A9020091A9020091A90200F3
:10A9600091A902009BA902009BA902009BA90200D9
:10A970009BA9020029A302009BA9020000231370D7
:10A9800007B0BDE8F04FFFF795B900221A70E6E670
:10A9900004221A70064BFFF770BB05221A70044B95
:10A9A000FFF776BB02221A70FAE400BF0BD7002033
:10A9B000D0A100200DD700200FD7002011D70020F4
:10A9C0000ED7002010D7002012D7002018D7002063
:10A9D000007038391CD7002013D7002014D700206E
:10A9E0001DD7002009D7002000D7002008D700205D
:10A9F0000AD70020024B01221A700920704700BFBD
:10AA00001FD70020536E012B2DE9F0410E4615464D
:10AA10002DD1324910680CF0A0FF044658BBDFF876
:10AA2000D8802F4F98F800302E4D2F492F48002BFB
:10AA300014BF3B462B46324610F05AFB2C492B489C
:10AA400010F056FB98F8003027492A48002B14BF15
:10AA50003B462B46324610F04BFB2549254810F06B
:10AA600047FB64201AF0E2F92046BDE8F081002B94
:10AA700001DC0224F8E70022286811460DF0ECF80A
:10AA800010F0FF041AD11C4B1C4D1D481C702146B0
:10AA900010F059F86A6822B119482346214610F08F
:10AAA00048F86B7A012B03D0042B01D00024DBE79C
:10AAB0004FF6FD7113480FF0A8FDF7E7012CD8D130
:10AAC0000D4B0F481C70002110F03DF80B4B5B7ACA
:10AAD000012B01D0042BE9D10021EBE7BE84070054
:10AAE00079220700802207008922070030E2002037
:10AAF0003865070094E200201ED7002004A3002040
:10AB000011E300206EE3002070B598B014460A49A6
:10AB10000EA810F067F90023CDE91433CDE9163300
:10AB2000636E012B0CD1054920680CF016FF48B16B
:10AB3000022400F0EDBC00BF3A650700BE840700A8
:10AB4000002BF5D1B649B748B74CB84DB84E10F008
:10AB5000CFFAB849B34810F0CBFAB149B64810F073
:10AB6000C7FAB449B44810F0C3FA64201AF05EF989
:10AB7000637AB24955F82320AA4810F0B9FAAD49D2
:10AB8000A84810F0B5FA637AAC4955F82320AA48D2
:10AB900010F0AEFAA749A84810F0AAFA64201AF0FB
:10ABA00045F9A74911A80FF06DFF11A90EA810F0E3
:10ABB0002CF911A810F0D0F80EA810F069F90E9A2F
:10ABC000A049984810F094FA9A49964810F090FAE3
:10ABD0000E9A9C49984810F08BFA9649964810F0C6
:10ABE00087FA64201AF022F9974911A80FF02AFF7A
:10ABF000119A96498B4810F07BFA11A810F0ACF826
:10AC00008C49884810F074FA8F4911A80FF01AFF88
:10AC1000119A8E49884810F06BFA11A810F09CF830
:10AC20008449854810F064FA64201AF0FFF84FF464
:10AC30007A7562688649B2FBF5F27A4810F058FAE4
:10AC40007C49784810F054FA62688149B2FBF5F209
:10AC5000794810F04DFA7749774810F049FA6420A6
:10AC60001AF0E4F87B480FF053FE7B4956F8202099
:10AC700005466C4810F03CFA6E496A4810F038FA04
:10AC800056F8252074496C4810F032FA69496A4830
:10AC900010F02EFA64201AF0C9F8012D40F04E830E
:10ACA0006E486F4E6F4D0FF0BDFD6F49002814BF09
:10ACB00032462A465B4810F01BFA5E49594810F0AC
:10ACC00017FA66480FF0AEFD6749002814BF3246F8
:10ACD0002A465948654E10F00BFA5649564810F06E
:10ACE00007FA64201AF0A2F861480FF0D3FD614919
:10ACF000054602464B4810F0FBF94E49494810F012
:10AD0000F7F92A465B494C4810F0F2F949494A489C
:10AD100010F0EEF964201AF089F856F8252056490B
:10AD2000404810F0E5F943493E4810F0E1F956F883
:10AD300025205149404810F0DBF93E493E4810F0CB
:10AD4000D7F964201AF072F84C480FF064FD00281F
:10AD500000F0BE814A49334810F0CAF935493148FC
:10AD600010F0C6F94649344810F0C2F9314932486A
:10AD700010F0BEF964201AF059F8082214A94148CD
:10AD80000FF028FD9DF8573005939DF85630049339
:10AD90009DF8553003939DF8543002939DF853303D
:10ADA00001939DF852309DF85020374900931D487B
:10ADB0009DF8513010F09CF91E491A4810F098F98E
:10ADC0009DF8573005939DF8563004939DF8553003
:10ADD00003939DF8543002939DF8533001939DF8EE
:10ADE00052309DF850202849009313489DF8513067
:10ADF00010F07EF90F49104810F07AF964201AF02B
:10AE000015F8082214A921480FF0C0FC9DF857300E
:10AE100005939DF8563004939DF8553038E000BFF7
:10AE20009D22070030E2002004A3002070A400202F
:10AE3000CCA300203865070094E20020AC22070074
:10AE4000E8E20020BA220700ACE20020D15207005D
:10AE5000C52207006DE30020D522070054E300203F
:10AE60002D6207008F220700E522070098A300202B
:10AE70006AE30020F0220700FB22070053E30020D2
:10AE8000062307004EE30020102307004AE30020BA
:10AE900003939DF8543002939DF8533001939DF82D
:10AEA00052309DF850207D4900937D489DF85130E7
:10AEB00010F01EF97B497A4810F01AF99DF85730C6
:10AEC00005939DF8563004939DF8553003939DF8F3
:10AED000543002939DF8533001939DF852309DF801
:10AEE00050206E49009370489DF8513010F000F9E1
:10AEF0006C496D4810F0FCF8642019F097FF10229F
:10AF000014A96A480FF04BFC9DF85F300D939DF833
:10AF10005E300C939DF85D300B939DF85C300A9386
:10AF20009DF85B3009939DF85A3008939DF859308D
:10AF300007939DF8583006939DF8573005939DF878
:10AF4000563004939DF8553003939DF85430029386
:10AF50009DF8533001939DF852309DF8502054498C
:10AF600000934F489DF8513010F0C2F84D494C48BD
:10AF700010F0BEF89DF85F300D939DF85E300C9395
:10AF80009DF85D300B939DF85C300A939DF85B3023
:10AF900009939DF85A3008939DF8593007939DF80E
:10AFA000583006939DF8573005939DF8563004931A
:10AFB0009DF8553003939DF8543002939DF853301B
:10AFC00001939DF8523000939DF850209DF8513028
:10AFD0003749354810F08CF832493348354E364DF4
:10AFE00010F086F8642019F021FF34492C4810F045
:10AFF0007FF82C492A4810F07BF830492A4810F095
:10B0000077F82849284810F073F8642019F00EFFEB
:10B01000627A2B49224810F06BF82249204810F040
:10B0200067F8627A2649204810F062F81D491E48E8
:10B0300010F05EF8642019F0F9FEA27A2149184850
:10B04000002A14BF32462A4610F052F81549144817
:10B0500010F04EF8A27A1B491348002A14BF32465A
:10B060002A4610F045F80F490F48174E10F040F8E7
:10B07000642019F0DBFE15481AF0F0F90025B4F849
:10B080008E20EBB2934205F1010580F23D8223440C
:10B090003046197B1AF0E2F9F1E700BF38230700C8
:10B0A00030E200203865070094E200204BE30020E6
:10B0B000602307009A22070008220700C124070026
:10B0C000D1240700DF24070073A60700F02407003F
:10B0D0009049914810F00CF890498F4810F008F80A
:10B0E0008C498F4810F004F88C498D4810F000F816
:10B0F000642019F09BFE14A910228A480FF058FB17
:10B100009DF85F300D939DF85E300C939DF85D3097
:10B110000B939DF85C300A939DF85B3009939DF882
:10B120005A3008939DF8593007939DF8583006938C
:10B130009DF8573005939DF8563004939DF855308F
:10B1400003939DF8543002939DF8533001939DF87A
:10B1500052309DF85020009373499DF851306E484D
:10B160000FF0C6FF6D496C480FF0C2FF9DF85F30CD
:10B170000D939DF85E300C939DF85D300B939DF818
:10B180005C300A939DF85B3009939DF85A30089320
:10B190009DF8593007939DF8583006939DF8573025
:10B1A00005939DF8563004939DF8553003939DF810
:10B1B000543002939DF8533001939DF852309DF81E
:10B1C0005020009358499DF8513055480FF090FF9A
:10B1D000524953480FF08CFF642019F027FE14A940
:10B1E000102252480FF0FFFA9DF85F300D939DF842
:10B1F0005E300C939DF85D300B939DF85C300A93A4
:10B200009DF85B3009939DF85A3008939DF85930AA
:10B2100007939DF8583006939DF8573005939DF895
:10B22000563004939DF8553003939DF854300293A3
:10B230009DF8533001939DF852309DF850200093B3
:10B240003B499DF8513034480FF052FF33493248A2
:10B250000FF04EFF9DF85F300D939DF85E300C931C
:10B260009DF85D300B939DF85C300A939DF85B3040
:10B2700009939DF85A3008939DF8593007939DF82B
:10B28000583006939DF8573005939DF85630049337
:10B290009DF8553003939DF8543002939DF8533038
:10B2A00001939DF852309DF85020009320499DF85D
:10B2B00051301B480FF01CFF184919480FF018FFB8
:10B2C000642019F0B3FD14A904221A480FF079FA8A
:10B2D0009DF8533001939DF852309DF85020009313
:10B2E00015499DF851300C480FF002FF0B490A48F0
:10B2F0000FF0FEFE9DF8533001939DF852300093FD
:10B300009DF850209DF851300B4905480FF0F0FE94
:10B3100062E600BFA823070030E20020386507007E
:10B3200094E200204CE30020B123070050E300200A
:10B33000FA2307004DE30020432407007748002D3F
:10B3400040F09B800FF019F97549024675480FF0DF
:10B35000CFFE754973480FF0CBFE70480FF00DF922
:10B360006F49024671480FF0C3FE6F496F480FF0F6
:10B37000BFFE642019F05AFD6D480FF00FF96D49BA
:10B38000024668480FF0B4FE674966480FF0B0FE09
:10B3900067480FF003F96749024664480FF0A8FEBA
:10B3A000614962480FF0A4FE642019F03FFD624835
:10B3B0000FF005F9614902465A480FF099FE5A49C3
:10B3C00058480FF095FE5C480FF0F9F85B490246CB
:10B3D00056480FF08DFE544954480FF089FE642002
:10B3E00019F024FD56480FF0FBF8564902464D4827
:10B3F0000FF07EFE4C494B480FF07AFE50480FF09C
:10B40000EFF85049024649480FF072FE4649474856
:10B410000FF06EFE642019F009FD4B480FF0F1F8B3
:10B420004A4902463F480FF063FE3F493D480FF04E
:10B430005FFE45480FF0E5F8444902463B480FF0EF
:10B4400057FE394939480FF053FE642019F0EEFCDD
:10B450003F480FF0D8F83F49024632480FF048FE07
:10B46000314930480FF044FE39480FF0CCF83949E3
:10B4700002462E480FF03CFEAEE50FF07EF828495C
:10B48000024628480FF034FE274926480FF030FEC8
:10B4900022480FF072F82249024624480FF028FE95
:10B4A000214922480FF024FE642019F0BFFC2A48ED
:10B4B0000FF0DDF8294902461A480FF019FE1A4923
:10B4C00018480FF015FE24480FF0D1F82349024622
:10B4D00016480FF00DFE144914480FF009FE6420C1
:10B4E00019F0A4FC1E480FF0C4F81E4902460D488E
:10B4F0000FF0FEFD0C490B480FF0FAFD18480FF055
:10B50000B8F818490246B4E7074819F0A7FF002425
:10B510000EA80FF021FC204618B070BD79E3002082
:10B520005C24070030E200203865070094E2002028
:10B530007AE300206B2407007BE3002073240700DC
:10B540007CE300207B2407007DE3002083240700A8
:10B550007EE300209824070082E30020A624070051
:10B5600083E30020B324070073B5556E012D0E460A
:10B5700025D1144910680CF0F0F90446E0B90A2509
:10B58000CDE90005022332460F4910480FF0B0FD07
:10B590000F490E480FF0ACFD02233246CDE90045BD
:10B5A00009490C480FF0A4FD09490A480FF0A0FD15
:10B5B000642019F03BFC2546284602B070BD0125E9
:10B5C000FAE700BFBE8407000125070030E2002033
:10B5D0003865070094E200202DE9F84F654B1B7891
:10B5E000002B00F0C580644B1B78002B40F0BE8020
:10B5F000556E012D40F0BC80D2F800A05F49504646
:10B600000CF0ABF9044600286ED15D4B5D495E48F5
:10B610001D700FF06DFD5B495B48DFF894B10FF0D2
:10B6200067FD584959480FF063FD564957480FF0D8
:10B630005FFD642019F0FAFB214655480FF083FAAC
:10B64000294653480FF07FFA022151480FF07BFA48
:10B6500001F05EFB21464F4801F0FAF94E4801F037
:10B66000F9FA4E4801F0F6FA01F088FB0FF0FFFD01
:10B670004FF0000A054642F2107600279BF8003092
:10B680008BB94FF47A7019F0D1FB0FF0F0FDB0EBED
:10B6900005086AEB4A09464577EB0903EEDA03240D
:10B6A0002046BDE8F88F02F023FA364936480FF0FD
:10B6B0001FFD344934480FF01BFD324933480FF069
:10B6C00017FD304931480FF013FD642019F0AEFB2F
:10B6D00001F01EFB3248002101F0BAF901F04EFBE7
:10B6E00030480FF0EFF9DBE72F4950460CF035F901
:10B6F000044600283CD1224BDFF8B4B01D7001464F
:10B7000023480FF020FA294621480FF01CFA0221A5
:10B710001F480FF018FA01F0FBFA2146204801F00B
:10B7200097F9224801F096FA1C4801F093FA01F0CB
:10B7300025FB0FF09CFD4FF0000A054644F62068FB
:10B740004FF000099BF800306BB94FF47A7019F094
:10B750006DFB0FF08CFD461B6AEB4A07B04579EB99
:10B760000703EFDA9BE702F077F9B9E7002497E7E0
:10B77000022495E7B0D500201FD70020BE84070023
:10B7800008D700203865070030E2002094E200204E
:10B7900011E300201B25070023250700FB210700DC
:10B7A000E4210700A8E20020B96A0700332507005A
:10B7B000D8A300202DE9FF41536E012B0D461446FE
:10B7C00025D13A4910680CF0C8F8044620B102248B
:10B7D000204604B0BDE8F08102F094F829463448D0
:10B7E0000FF052FC334932480FF03CFC32490A88D2
:10B7F0008B7808794D798E79C97992B2CDE9026159
:10B80000CDE900052D492A480FF072FCE0E7052B31
:10B81000DDD1161F02F1100756F8045F28460CF020
:10B82000AEF82B462844984205D013F8012B303A45
:10B83000092AF8D9CBE7BE42EED100221146206892
:10B840000CF00AFA40F2D233A0F2E6729A420546B0
:10B85000BDD80022606811460CF0FEF9431E0B2B88
:10B860000646B4D80022A06811460CF0F5F9431E34
:10B870001E2B0746ABD80022E06811460CF0ECF90D
:10B8800018288046A3D80022206911460CF0E4F95C
:10B890003B289CD8C2B200925FFA88F3FAB2F1B2A8
:10B8A000A8B201F0A1FF002492E700BFBE84070008
:10B8B00030E2002013280700DCD9002043250700D0
:10B8C00007B503230193054B0093054B054A064832
:10B8D00019460FF002F903B05DF804FB3DBB02000E
:10B8E000562507005E2507000EE3002007B5032359
:10B8F0000193054B0093054B054A064819460FF086
:10B90000ECF803B05DF804FB09BC0200B6250700A3
:10B91000BB2507000EE3002007B503230193054B69
:10B920000093054B054A064819460FF0D6F803B0B8
:10B930005DF804FB09BD0200192607001E2607005A
:10B940000EE3002007B503230193054B0093054B3D
:10B95000054A064819460FF0C0F803B05DF804FB2D
:10B96000D9B50200452607004A2607000EE300204D
:10B9700007B503230193054B0093054B054A064881
:10B9800019460FF0AAF803B05DF804FBB5B7020042
:10B9900060260700642607000EE3002007B5032396
:10B9A0000193054B0093054B054A064819460FF0D5
:10B9B00094F803B05DF804FBD1BD02003F680700B6
:10B9C0008B2607000EE3002007B503230193054BE8
:10B9D0000093054B054A064819460FF07EF803B060
:10B9E0005DF804FB75BE0200B5260700BA26070005
:10B9F0000EE3002007B503230193054B0093054B8D
:10BA0000054A064819460FF068F803B05DF804FBD4
:10BA100005AA020023270700282707000EE30020BD
:10BA200007B502230193054B0093054B054A0648D1
:10BA300019460FF052F803B05DF804FB09AB0200A1
:10BA40006A270700712707000EE3002007B50223CD
:10BA50000193054B0093054B054A064819460FF024
:10BA60003CF803B05DF804FB69B5020088270700C5
:10BA70008F2707000EE3002010B50D4C0D4986B04E
:10BA800003A80FF0AFF903A920460FF011F803A89F
:10BA90000FF062F902230193074B0093074B084A0A
:10BAA000194604F126000FF018F806B010BD00BFCB
:10BAB000E8E20020A7270700F5A90200AF2707004A
:10BAC000B827070070B5194C19491A4EC2B0902218
:10BAD000201D0BF0A7F99021201D1AF001F8002578
:10BAE0002060FE22294602A801950BF0A9F9B4F8BE
:10BAF0008E30E8B2984205F1010508DA2318314684
:10BB00001A7B01AB03EB40000BF0FAFEEFE7074AAC
:10BB10000948942300210EF0F8FF28B90146034A92
:10BB2000054894230EF0F1FF42B070BDDCA3002065
:10BB300008A3002073A607000FE30020F8B5536E9A
:10BB4000012B0E4602D002242046F8BD1568274975
:10BB500028460BF002FF044660B128460BF00FFFA9
:10BB60002A462844904224D012F8013B303B092B4E
:10BB7000F8D9E8E71E4F1F497B681F4832464FF44B
:10BB80007A75B3FBF5F30FF0B3FA1C491A480FF0BE
:10BB9000AFFA7B681749B3FBF5F3324618480FF04C
:10BBA000A7FA164916480FF0A3FA642019F03EF9D7
:10BBB000CAE70A22002128460CF04EF8B0F5E15FF2
:10BBC000C1D80B4C4FF47A735843606000210D4884
:10BBD0000EF0B9FF626822B100230A4819460EF040
:10BBE000A8FFFFF76FFF0024AEE700BFBE84070089
:10BBF00004A30020DB27070030E20020386507009F
:10BC000094E2002011E30020536E012B70B50E4624
:10BC100002D00224204670BD1568334928460BF037
:10BC20009CFE044660B128460BF0A9FE2A46284433
:10BC300090421ED012F8013B303B092BF8D9E8E7BF
:10BC40002A4D2B496B7A2B4832460FF051FA2A497C
:10BC500028480FF04DFA6B7A2549284832460FF0F4
:10BC600047FA254925480FF043FA642019F0DEF819
:10BC7000D0E70A22002128460BF0EEFF0428C8D89E
:10BC80001A4C637A984226D06072FFF71BFF637AE2
:10BC9000042B06D8DFE803F0032124242100FDF75C
:10BCA000C7FA174913480FF023FA134911480FF048
:10BCB0001FFA134911480FF01BFA0F490F480FF0F4
:10BCC00017FA642019F0B2F841F2883019F0AEF892
:10BCD0000C480EF0F7FE00249CE7FDF7FBFAE0E7C6
:10BCE000FDF724FBDDE700BFBE84070004A30020AE
:10BCF000E227070030E200203865070094E20020C8
:10BD0000E8270700A8E20020F8B5536E012B0D4686
:10BD100002D002242046F8BD17682549254E384632
:10BD20000BF01BFE044678BBB6F88E30ABB92A4642
:10BD3000214922480FF0DCF9214920480FF0D8F9B9
:10BD40002A461D491F480FF0D3F91D491D480FF021
:10BD5000CFF9642019F06AF8DCE729461A481B4F2E
:10BD600019F07CFB2546B6F88E20EBB2934205F124
:10BD7000010505DA33443846197B19F06FFBF2E709
:10BD80000F4819F06BFBC5E738460BF0F8FD06F1DC
:10BD90000C0201460546384613F050FE04460028C2
:10BDA000B7D16D08A6F88E50FFF78CFEB2E700BF42
:10BDB000BE84070004A300200528070030E200200D
:10BDC0003865070094E200201128070073A60700D9
:10BDD000536E012B70B50D4602D00224204670BD73
:10BDE00016681D4930460BF0B8FD0446D0B91B4E0D
:10BDF0001B4996F991301B482A460FF079F91A49E8
:10BE000018480FF075F996F99130154917482A46E8
:10BE10000FF06EF9144915480FF06AF9642019F013
:10BE200005F8DBE70022114630460BF08FFE00F1EB
:10BE30000B03DBB2192BD0D8084B93F9912040B2F9
:10BE400082424FF00004C9D083F89100FFF73AFE18
:10BE5000074B1C70C2E700BFBE84070004A300208C
:10BE6000E227070030E200203865070094E2002056
:10BE7000D8D60020536E012B2DE9F3410E4615460E
:10BE80002ED1274910680BF068FD044660BBDFF82F
:10BE9000AC80244F98F800300193234D3B780093F9
:10BEA000EB7A2249224832460FF022F921492048F4
:10BEB0000FF01EF998F8003001933B780093EB7A6D
:10BEC0001A491D4832460FF013F91A491A480FF063
:10BED0000FF9642018F0AAFF204602B0BDE8F081F7
:10BEE000002B01DC0224F7E70022286811460BF042
:10BEF000B3FE10F0FF0508D10B4BDC7A002CEBD021
:10BF0000DD72FFF7DFFD0024E6E7012DEAD1064BE5
:10BF1000DC7A002CF7D1DD72FFF7D4FDDCE700BF3F
:10BF2000BE840700E4D9002004A3002015280700E0
:10BF300030E200203865070094E20020B0D50020F0
:10BF4000F0B5374D3748C3B094232A4600210EF090
:10BF5000D2FD0646D0B12B7AAA2B1AD19021281DEA
:10BF600019F0BEFD2B68304C834214D047F230529A
:10BF7000AA23C4E901232D4BE3600423A4F88E30E7
:10BF8000082384F89130FFF79DFD0026304643B02A
:10BF9000F0BD0020E6E76B6863606B7AB5F88E2031
:10BFA000042B86BF0023374600276372802A6B89E3
:10BFB000638111D900232373A4F88E30374695F995
:10BFC000912002F10C03DBB21A2B0CD9082384F860
:10BFD0009130FFF777FD0AE015491648A4F88E2046
:10BFE0000AF020FFEBE784F89120002FF1D1002523
:10BFF000FE22294602A801950AF022FF0E4FB4F84E
:10C000008E30E8B2984205F10105BFDA23183946AF
:10C010001A7B01AB03EB40000BF072FCEFE700BFB3
:10C02000DCA300200FE3002004A30020010203048E
:10C03000E8A3002010A3002073A6070010B5074B4B
:10C0400053F82020002332F813408C42D8B203D892
:10C050000133102BF7D1184610BD00BFFCA40020FF
:10C0600013B501900F480EF015FC019980B2FFF74F
:10C07000E5FF04460C480EF0E9FBA0420FD20B4846
:10C0800000F0E8FD0A490B4822460BF039FC09484C
:10C0900000F0E0FD084B0020187002B010BD012038
:10C0A000FBE700BF6AE3002058E300208A2807006E
:10C0B0009C280700B5D50020D9D600202DE9F341F2
:10C0C0000121754E074622200FF0C5F84FF4FA7093
:10C0D00018F0ACFE3478002C7ED170497048009482
:10C0E00040F24C43422207F011FD054620B90024DE
:10C0F000204602B0BDE8F08169484FF0020840F2E6
:10C100004C42012186F8008007F01AFB654E002F93
:10C1100057D040F24C4322460121614807F088FB8A
:10C1200040F24C43424601215D4807F081FB40F25A
:10C130004C43062201215A4807F07AFB012211469E
:10C1400040F24C43564807F073FB40F24C43032245
:10C150000121534807F06CFB40F24C4304220121BB
:10C160004F4807F065FB40F24C4305224C48012143
:10C1700007F05EFBF37A40F24C42E3B105214848F8
:10C1800007F025FD464840F24C432246012107F0C6
:10C1900025FC434840F24C4107F0D8FA737A023B41
:10C1A000012B02D8F47A002CA2D1002122200FF01A
:10C1B00052F82C469CE74FF4FA71394807F048FDD5
:10C1C000E7E740F24C424FF0FF31354807F0DEFA26
:10C1D000FA2018F02BFEE1E70025304930480095A1
:10C1E00040F24C43422207F091FC044600283FF401
:10C1F0007EAF40F24C420121294807F0A1FA40F2FB
:10C200004C432A460121264807F012FB40F24C43DA
:10C2100002220121224807F00BFB40F24C43062288
:10C2200001211F4807F004FB0122114640F24C4354
:10C230001B4807F0FDFA40F24C4303220121184845
:10C2400007F0F6FA40F24C4304220121144807F0AB
:10C25000EFFA40F24C4305221148012107F0E8FAB9
:10C26000104BDB7A40F24C4283B105210C4807F0B9
:10C27000AEFC0B4840F24C432A46012107F0AEFBCE
:10C2800040F24C41064807F061FA31E74FF4FA7189
:10C29000034807F0DDFCF3E72CD700208CE30020F7
:10C2A0005CD7002004A300202DE9F04FDFF80C83B9
:10C2B000A94FAA4CAA4DDFF80893AA4E8BB00023D1
:10C2C00000220021C8E90023C7E900234FF0000A3B
:10C2D0001C2203A82970C9F8001021700291C6F829
:10C2E00000A00AF0ADFDA04902A80BF040FB9F4B57
:10C2F0009F48DB7AA34640F24C41002B66D007F002
:10C3000070FDC117C8E9000140F24C41984807F0A0
:10C310004DFDC117C7E9000140F24C41944807F0B8
:10C320007BFD40F24C41C9F80000914807F0CFFC7A
:10C3300007EE900AF8EE677A40F24C418C48C6ED61
:10C34000007A07F018FD40F24C412070884807F051
:10C35000D6FC012829D1874902A80BF008FB96EDED
:10C36000007ADFED857AB4EEE77AF1EE10FA05D5C2
:10C370007A4B1B78052B01D901232B702B7803F006
:10C38000FF04002B00F0D280D7E900E31A46D8F86A
:10C390000430D8F800C01A434CEA0E00114650EAA7
:10C3A000010378D100242C70AAE0022801D173493E
:10C3B000D2E7032801D17249CEE7042801D171499F
:10C3C000CAE705280CBF70496749C5E707F0B4FC08
:10C3D0000028D3D0012124200EF03DFF644840F214
:10C3E0004C4107F08CFC044600283DD15E4902A870
:10C3F0000BF0BDFA5E4840F24C4107F0BCFC634BC9
:10C400008BF800001A78904242D1614A13780133C8
:10C410001370022CB2D95E4B1B78012BAED90123CD
:10C4200040F24C4152482B7007F0DBFCC117C8E9C1
:10C43000000140F24C414E4807F0B8FCC117C7E973
:10C44000000140F24C414A4807F0E6FC40F24C4102
:10C45000C9F80000464807F03AFC07EE900AF8EEEB
:10C46000677AC6ED007A89E7012801D14949BEE71C
:10C47000022801D14849BAE7032801D14749B6E764
:10C48000042801D13F49B2E70528B3D13E49AEE7C0
:10C4900088BF1870BDE7354B304D5B7A032B33D125
:10C4A0003F4B40481B6872461BB2614601F070FF6B
:10C4B000D8E9000144F062FF25A3D3E9002345F049
:10C4C000B5F845F081FA384B1860D7E9000144F01F
:10C4D00055FF1FA3D3E9002345F0A8F845F074FAEF
:10C4E000324B32681860324B1A604FF47A72D9F8C6
:10C4F000003093FBF2F32F4A13602F4B2A781A7007
:10C5000020460BB0BDE8F08FD9F8003096ED000A58
:10C5100024484FF47A7193FBF1F395F900100091E0
:10C520001BB27246614601F067FEC1E71E4BC3F8BD
:10C5300000A01E4BC3F800A01D4B4FF07E521A60A6
:10C540001C4B1C601C4B1C702DE700BFAFF3008020
:10C5500000000000D012634150D70020E0D8002036
:10C5600041D7002020D70020AA28070004A30020DC
:10C570005CD70020B128070000009643C0280700C0
:10C58000CC280700D8280700E128070058D700204A
:10C5900059D70020EA280700F4280700FB280700E5
:10C5A000C8D60020A4D5002038D700203CD70020D2
:10C5B00030D7002034D7002040D7002048D70020B3
:10C5C00024D700202DE9F041012186B023200EF070
:10C5D00042FEFFF769FE6C4F6C4E0446002800F0E7
:10C5E0009D806B4BD97A11B922200EF034FE694B35
:10C5F000002264201A7018F019FC674803210EF01D
:10C60000A2FA3B78002B36D0644B1B78002B32D13A
:10C6100000F07EFB624800F01DFB624B1868624B25
:10C620001D68624BD3F8008044F07EFE02460B4644
:10C630002846CDE90423CDF8088044F075FEDDE9F5
:10C640000423CDE900015A495A480BF059F95948D9
:10C6500000F000FB584B1868584B1D7844F064FEFE
:10C66000EDB202460B465348554900950BF048F988
:10C67000504800F0EFFA534B1B781BB95248012188
:10C680000EF037F95148DFF8608101F047FF80B2C2
:10C69000FFF7E6FC0546E8B14C4801F03FFF049087
:10C6A0004A4801F03DFF01240023CDE90043484BF7
:10C6B00004991B78024647480EF01AF838B988F8F2
:10C6C0000000454A1368013313602C4604E088F8E3
:10C6D0000040F6E788F800003B78002B49D0002C9A
:10C6E00047D12E4B1B78002B43D100F011FB314B6F
:10C6F0001C70274BDB7A002B30D0384800F0AAFAA8
:10C70000374B1A7862BB34882A4B2A201146944250
:10C710002ADD1870013203F8011FF8E7314B328827
:10C720001B889A42D8D3642018F080FB194B1A4812
:10C730001C702D4B03211C700EF005FA3D785DB185
:10C74000164B1C78002CC7D128491A480BF00FF95A
:10C75000184800F07FFAB8E70124BDE72448CDE788
:10C76000244914480BF0CCF8124800F073FA00F09A
:10C7700005FB3388002101332320338006B0BDE858
:10C78000F0410EF068BD00BFAFD5002028D70020D3
:10C7900004A30020ACD5002011E3002008D700201E
:10C7A0000229070038D700203CD7002034D70020CA
:10C7B0000C290700B5D5002030D7002040D7002035
:10C7C0001C290700D8D600206CE30020A4D5002047
:10C7D00094A1002049E30020C8D600204629070084
:10C7E000E0D800202AD70020D9D600202E29070023
:10C7F0005C2907006F29070010B5054C204602F0A0
:10C80000F1F82046034A0449BDE810400AF09CBAFA
:10C810005CD7002090A10020F1EF020000207047BB
:10C8200038B590F8333004460D4613B1406B0EF026
:10C8300083FB94F83010606B0EF0C2FB606B8021BC
:10C8400000F02DF8606B036829461B689847606B01
:10C850000121BDE838400EF0BFBB000010B5034B0E
:10C860000360044607F0D0FB204610BD442B0700B0
:10C8700010B50446406B0EF05FFB606B02490EF092
:10C880006FFB012010BD00BF801A060010B50446E2
:10C89000FFF7E4FF20460CF0A9FD204610BD036819
:10C8A000C9B21B6818472DE9F84F90F83330044699
:10C8B00013B1406B0EF040FB658AC5F180054FF067
:10C8C000000A05EBD575FF276D10D146D0463E46D0
:10C8D000A38A5FFA8AF1B1EBD30F28DA4FF0000C8C
:10C8E000638A5FFA8CF098421CDA11FB03F303446D
:10C8F000A2689BB212F803E0E26812F803B0F345B5
:10C900000BD08E4228BF0E46884538BF88468742E6
:10C9100028BF0746814538BF814602F803E00CF185
:10C92000010CDDE70EF017F90AF1010AD0E7FF2E3E
:10C9300057D0236821219B6920469847236857FADE
:10C9400085F19B69C9B2204698475FFA85FA23684A
:10C950000AEB09019B69C9B2204698472368222146
:10C960009B6920469847236831469B692046984733
:10C97000236841469B69204698470025B04529D346
:10C98000BA46CA4521D845B994F83010606B0EF00C
:10C9900017FB606B4021FFF782FFA268606B638A20
:10C9A00006FB0323026813F80A1012680135EDB282
:10C9B0009047102D04D1606B01210EF00DFB002576
:10C9C0000AF1010A5FFA8AFADBE701360EF0C3F8D2
:10C9D000F6B2D3E72DB1606B0121BDE8F84F0EF040
:10C9E000FBBABDE8F88F000038B51648164C0EF0BB
:10C9F000A3FA4FF4FA7018F019FA0125204684F8CA
:10CA0000335007F0B8FE204607F06BFD204607F0D4
:10CA1000E6FD204607F053FDC821204607F0A8FD9B
:10CA2000204607F0CFFD4023F1222046642107F085
:10CA30006AFD0649204607F040FD2046FFF733FF18
:10CA4000284638BD8CE30020A4D90020642B0700C1
:10CA500030B52DED028B044697B04F480D464F4937
:10CA600007F02BFD4C48002107F0D8FA00220B23D9
:10CA7000114649480093802307F0E8FB464801210E
:10CA800007F0CCFA4448002107F015FD444B1B7811
:10CA90007BB1444B1B7863B15DB1434906A80EF0EE
:10CAA000A1F906AB00223C48114607F0A1FE06A8FA
:10CAB0001AE03E4BDD7A002D2FD03D4B3D491878D2
:10CAC0003D4A2346002808BF0A463C4906A80AF00A
:10CAD00017FF06A903A80EF085F900222E4803AB24
