:020000022000DC
:1070000000000420B18A0300D98A0300DB8A030050
:10701000DD8A0300DF8A0300E18A0300000000002C
:10702000000000000000000000000000E38A0300F0
:10703000E58A0300000000000000000000000000DE
:10704000C5790500E78A0300459805009D7F050086
:10705000E78A030005760500DD730500F55B060091
:10706000E78A0300DD7E0500F17E0500E78A030064
:10707000E78A0300E78A0300E78A0300E78A030040
:10708000F9680600DD4B0500E78A0300E78A030084
:10709000E78A0300E78A03007D520600E78A0300BF
:1070A000E78A0300E78A0300057F0500197F0500D2
:1070B000E78A0300E78A03000000000000000000E8
:1070C000E78A0300E78A0300E78A030031610600CC
:1070D000F57B0500E78A0300E78A03005595050064
:1070E000CD950600E78A03000DBD060000000000F4
:1070F00000000000E78A03000000000001650600B0
:10710000000000000000000000000000000000007F
:10711000000000000000000000000000000000006F
:10712000000000000000000000000000000000005F
:10713000000000000000000000000000000000004F
:10714000000000000000000000000000000000003F
:10715000000000000000000000000000000000002F
:10716000000000000000000000000000000000001F
:10717000000000000000000000000000000000000F
:1071800000000000000000000000000000000000FF
:1071900000000000000000000000000000000000EF
:1071A00000000000000000000000000000000000DF
:1071B00000000000000000000000000000000000CF
:1071C00000000000000000000000000000000000BF
:1071D00000000000000000000000000000000000AF
:1071E000000000000000000000000000000000009F
:1071F000000000000000000000000000000000008F
:1072000010B5054C237833B9044B13B10448AFF3E0
:1072100000800123237010BD60D500200000000015
:1072200048FB070008B5034B1BB103490348AFF304
:10723000008008BD0000000064D5002048FB070066
:10724000154B002B08BF134B9D46A3F5803A002138
:107250008B460F461348144A121A0FF085F80F4B4D
:10726000002B00D098470E4B002B00D098470020F1
:10727000002104000D000D48002802D00C48AFF397
:1072800000800FF021F8200029000EF0A7FD0FF07C
:1072900007F800BF00000800000004200000000004
:1072A0000000000060D500203CC501200000000067
:1072B000000000000022C0E900220172704738B5CA
:1072C0000446006820B1856911F028FB2846F9E7DB
:1072D000204638BD006820B143688B4201D08069E8
:1072E000F9E77047F8B504460F4616461D46FFF706
:1072F000F1FF20B10123826005704370F8BD1C20AE
:1073000011F010FB012343700023C0E90333C0E9EF
:10731000053323680570C0E9017613B92060606009
:10732000ECE763689861FAE72DE9F8430468164FC3
:1073300005460E464FF000081CB363680BB9A469FC
:10734000FAE72378002BFAD0E368A268F31A9A428E
:1073500002D961780029F2D09B1A636184F8018018
:10736000E66013F021FA63688146984713F01CFA2F
:107370003B68A0EB0900206118442B7A3860002B91
:10738000DDD0BDE8F88300BF7CD5002008B5074BF1
:1073900050B103221A700648FA22012112F061FE50
:1073A000044B00221A7008BD0522F3E780D50020A7
:1073B00011E30020D1D60020054B064800221A70A8
:1073C000054B08221A700121FA2212F04ABE00BFB2
:1073D000D1D6002011E3002080D5002084B004AB7A
:1073E00003E90700094BBDF90A201A80084B9DF9F3
:1073F0000C201A70074B084800221A70074B012115
:10740000FA22197004B012F02CBE00BFB2D50020D1
:10741000B4D50020D1D6002011E3002080D5002073
:10742000134B00221A70134B5B7A023B012B1DD9C0
:10743000114B90F906201A70104BB0F904201A80F5
:107440000F4A037813700F4A417811700E4A817801
:1074500011701BB10D4A1368013313600C4B0D48BA
:1074600004221A700121FA2212F0FBBD704700BFFE
:10747000D1D6002004A30020B4D50020B2D500202E
:10748000B7D60020B5D60020B6D60020C4D600203E
:1074900080D5002011E300202DE9F0438E4D8F4E62
:1074A0008F4CDFF89482012700232F703370637AAA
:1074B000023BBB4285B000F241818A4806F0BFFA28
:1074C000E37A002B00F0C280874A98F800301178E8
:1074D0009146002940F0A6807BB1844B1B7863B9AC
:1074E00004F03AFF637A022B0CBF81488148394689
:1074F00004F0D2FD804804F0D1FE04F0FDF900B3A1
:107500007E4B1B781BB97E48012112F08AFCB4F82F
:107510008E0004F0CDF8002800F06E81714806F06E
:1075200091FA03906F4806F08FFA01240246CDE9E4
:10753000004403997348234612F072FB00286CD173
:107540005DE0714A117809BB704B1B7803F0FF07AF
:10755000E3B90123634889F8003006F070FA6C4BF8
:107560006C481F8041F288326368B3FBF2F36A4AC9
:1075700013806A4B1F706A4B40F6C4121F700321C0
:107580003B4605B0BDE8F04312F06BBD002313701D
:1075900098F800304BB1554B1B7833B961496248BC
:1075A0000FF079FC604804F079FE637A032B29D14F
:1075B0005E4B4C481B6800221BB2114606F07CF95A
:1075C0004E4B1B781BB94E48012112F02AFCB4F82F
:1075D0008E0004F06DF8002800F00E81414806F09E
:1075E00031FA03903F4806F02FFA01240246CDE914
:1075F000004403994348234612F012FB60B92870F7
:1076000034700AE000230093B7EE000A1A461946C8
:10761000344806F085F8D3E72C70444A13680133E8
:107620001360E9E0002B00F0E780304B1B78002B63
:1076300040F0E28004F090FE2D48394604F02CFD25
:107640003B4805B0BDE8F04304F028BE98F8003090
:107650005BB1264B1B7843B904F07EFE24483946C3
:1076600004F01AFD334804F019FE637A032B28D185
:107670002E4B1C481B6800221BB2114606F01CF959
:107680001E4B1B781BB91E48012112F0CAFBB4F82F
:107690008E0004F00DF8002800F0AE80114806F0CE
:1076A000D1F903900F4806F0CFF901230246CDE946
:1076B00000330399134812F0B3FA0028ADD12870B3
:1076C000ABE700230093B7EE000A1A4619460548B7
:1076D00006F026F8D4E700BFD1D60020D8A30020BA
:1076E00004A30020A4D50020ACD5002000D70020A2
:1076F000A8120700B8120700C9120700D0D6002050
:107700006CE3002049E30020A2D5002081D50020B1
:1077100020D7002011E3002022D7002050D70020DE
:1077200051D70020E4120700B5D50020C8D60020AC
:10773000FA1207000E130700AED5002098F80030AB
:1077400073B1374B93F80080B8F1000F08D104F003
:1077500003FE3448394604F09FFC334B83F8008025
:10776000324806F06CF9324812F06AFB002846D025
:10777000304812F0EFFA00283BD00121242013F00A
:1077800002F82D4B1B78C3B12C4804F087FD2C4B1D
:107790001B781BB92B48012112F043FBE37A9BB104
:1077A00004F0AAF820B9284A00231360274A13607E
:1077B0001E4806F047F980B2ABE61B4B1B780BB1B5
:1077C0002348E2E72348E0E7B4F88E0003F070FFB7
:1077D00090B10127CDE900771F4A94F88E101F4819
:1077E000022312F01DFA00287FF417AF28703770BB
:1077F00013E701232870337005B0BDE8F083012141
:10780000232012F0C0FF134804F048FD0123124A60
:1078100094F88E10124812F0AEF901232B70FCE69A
:1078200000D700201A130700A2D50020A4D50020FD
:107830006DE3002054E3002081D500202B130700C6
:10784000D0D600206CE3002034D7002030D70020B1
:107850003C1307004B13070010A3002049E300204E
:107860006EE30020000000002DE9F04F00218BB0F6
:107870009D4C0546242012F086FF0021232012F0A3
:1078800082FF23788BB1994B1B7873B904F064FDA8
:10789000974B5B7A022B40F0AC80964996480FF0EC
:1078A000FAFA9548012104F0F7FB002D00F0FF8063
:1078B0002A78012A40F06A81904B1B78002B31D046
:1078C0008F4B1B78002B00F0998005F0E7FA8D4A6A
:1078D0008D4B11881980917899701179D9705179EF
:1078E00019719179D27959719A710122DA718749A6
:1078F00000221A720968D9608549096819618549A9
:107900001A755A75098849B2D9758349097849B2F7
:1079100019765A839A83DA83804A126812B21A84DB
:1079200005F0FCFC2378002B00F0C1806F4B1C7825
:10793000002C40F0BC807A496F480FF0ACFA6E49D9
:1079400007A812F0E7FC07AA2146204604F020FD14
:1079500007A812F099FC734B73491A6866480FF038
:1079600063FA654907A812F0D5FC07AA2146012051
:1079700004F00EFD07A812F087FC6C4812F095F891
:1079800048F048FF56A3D3E9002349F0E7F80B4637
:107990000246674958480FF047FA574907A812F0BE
:1079A000B9FC07AA2146022004F0F2FC07A812F055
:1079B0006BFC604812F08AF85F4902464E480FF0AF
:1079C00033FA4D4907A812F0A5FC07AA2146032067
:1079D00004F0DEFC07A812F057FC584812F087F8B4
:1079E000092879D8DFE800F00D66686A6C6E70725D
:1079F0007476032B0CBF524952494FE705F072FAD7
:107A000065E7514905A80FF046FA4C4812F06FF8A7
:107A10004E4B4F4953F8202037480FF005FA3649AE
:107A200007A812F077FC07AA4021032004F0B0FC5D
:107A300007A812F029FC474812F06AF84649421D8F
:107A40002D480FF0F1F92C4907A812F063FC07AAA2
:107A50004021022004F09CFC07A812F015FC2D4BDD
:107A60003E491A88244812B20FF0DEF9224907A8CD
:107A700012F050FC07AA0021042004F089FC07A89A
:107A800012F002FC244B36491A7852B21A480FF011
:107A9000CBF9194907A812F03DFC07AA40210420A0
:107AA00004F076FC07A812F0EFFB04F08BFC0BB09F
:107AB000BDE8F08F2B49A5E72B49A3E72B49A1E7A8
:107AC0002B499FE72B499DE72B499BE72B4999E7DA
:107AD0002B4997E72B4995E72B4993E7AFF30080B4
:107AE0000000000080842E41AED5002000D7002089
:107AF00004A30020A8120700B5D50020AFD50020B0
:107B0000DCD90020D4D90020A4A1002030D7002047
:107B100034D70020B2D50020B4D50020C4D6002030
:107B20005D130700C8D600206B13070079E300201F
:107B30007F1307007AE300206F1E07007BE300201D
:107B4000B81207001A130700861307007CA2002052
:107B5000BC1307007CE30020881E070055150700B2
:107B6000601507008A1307008E13070092130700A1
:107B7000961307009B130700A1130700A713070024
:107B8000AD130700B3130700B81307007E4B1B7833
:107B9000022B40F09E807D4B00221A707C4B1B789C
:107BA000002B2FD07B4B1B78002B64D005F076F98F
:107BB000794B7A4D1A882A809A78AA701A79EA70D5
:107BC0005A792A719A79DB796A71AB71744A75486E
:107BD0000023EB712B721268EA60734A12682A6103
:107BE0002B756B75EB752B766B83AB83EB836F4BD0
:107BF0001B681BB22B8412F0C1F840B285F822003A
:107C000005F08CFB2378002B3FF451AF684B1C78B8
:107C1000002C7FF44CAF67496748684D0FF03BF983
:107C2000654907A812F076FB07AA2146204604F012
:107C3000AFFB07A812F028FB2A6861495E480FF0E5
:107C4000F3F85D4907A812F065FB07AA2146022058
:107C500004F09EFB07A812F017FB2B68013B0F2BCB
:107C600035D8DFE803F00B16181A1C1E2022242634
:107C7000282A2C2E303205F035F999E751494E4823
:107C80000FF009F94C4907A812F044FB07AA00219C
:107C900005E74D49F3E74D49F1E74D49EFE74D4918
:107CA000EDE74D49EBE74D49E9E74D49E7E74D4938
:107CB000E5E74D49E3E74D49E1E74D49DFE74D4948
:107CC000DDE74D49DBE74D49D9E74D49D7E74D4958
:107CD000D5E7032A40F0A4802378002B3FF4E7AED9
:107CE000334B1E78002E7FF4E2AE474C657A022DAE
:107CF00041D0032D46D05DB9444907A812F00AFBD4
:107D000007AA2946084604F043FB07A812F0BCFA6C
:107D10004FF47A7362683E49B2FBF3F226480FF0E3
:107D200083F8254907A812F0F5FA07AA00210120D7
:107D300004F02EFB07A812F0A7FA364907A812F0A4
:107D4000E9FA002107AA022004F022FB07A812F09A
:107D50009BFA224918480FF09EF8174907A812F01D
:107D6000D9FA002107AA032004F012FB07A812F099
:107D70008BFA284987E7284907A812F0CBFA07AA07
:107D80003146BFE72549F7E780D50020D1D600204E
:107D9000AFD50020DCD90020D4D90020A4A1002038
:107DA00030D7002058E3002034D70020C4D600206C
:107DB00000D70020C2130700B5D50020D4D600207C
:107DC000D1130700DB130700E9130700F4130700C2
:107DD000001407000C1407001614070020140700F5
:107DE0002C14070040140700531407006314070005
:107DF000701407007A1407008A140700981407000B
:107E0000A4140700B514070004A30020C31407003E
:107E1000F71407000BBD0700D2140700E314070096
:107E2000042A40F0A281924B1B78002B3FD0914B4B
:107E30001B78002B00F0D68005F030F88E4B8F4D6C
:107E40001A882A809A78AA701A79EA705A792A715F
:107E50009A79DB796A71AB71894A8A480023EB71A0
:107E60001278D2B22A72884A1268EA60874A126887
:107E70002A61874A118849B22975118849B2697502
:107E8000128852B2EA75834A127852B22A766B830C
:107E9000AB83814B1B78EB83804B1B681BB22B841D
:107EA00011F06CFF40B285F8220005F037FA237814
:107EB000002B3FF4FCAD7A4B1C78002C7FF4F7AD1F
:107EC000784D794B2978794A7948744FDFF80882E0
:107ED000002918BF1A4677490EF0A6FF744907A873
:107EE00012F018FA07AA2146204604F051FA07A812
:107EF00012F0CAF92B7803F0FF06002B75D1664B00
:107F00006D491A786A480EF08FFF694907A812F088
:107F100001FA07AA3146012004F03AFA07A812F044
:107F2000B3F9584811F02AFF6449024660480EF040
:107F30007BFF5F4907A812F0EDF907AA314602203E
:107F400004F026FA07A812F09FF94D4B5C491A7805
:107F500057480EF069FF564907A812F0DBF907AA47
:107F60004021022004F014FA07A812F08DF9D8F885
:107F7000002054494E480EF057FF4D4907A812F013
:107F8000C9F907AA3146032004F002FA07A812F043
:107F90007BF93A684C4946480EF046FF444907A829
:107FA00012F0B8F907AA4021032004F0F1F907A85C
:107FB00012F06AF9364B45491A883D4812B20EF064
:107FC00033FF3B4907A812F0A5F907AA3146042060
:107FD00004F0DEF907A812F057F92E4B3C491A7845
:107FE00052B253E504F07EFF28E7D8F80020354967
:107FF0002F480EF019FF2E4907A812F08BF907AA97
:108000002146012004F0C4F907A812F03DF93A68AE
:108010002D4927480EF008FF254907A812F07AF9E4
:1080200007AA4021012004F0B3F907A812F02CF9A7
:108030002A7828491E480EF0F7FE1D4907A812F0BD
:1080400069F907AA2146022004F0A2F907A812F054
:108050001BF92B78013B0F2B00F28580DFE803F042
:108060003E6567696B6D6F71737577797B7D7F8115
:10807000AFD50020DCD90020D4D90020A4A1002055
:10808000B6D6002058E3002030D7002034D7002097
:10809000B2D50020B4D50020B5D60020C4D600202B
:1080A00000D70020B7D60020591307007916070023
:1080B000B5D500200B1507001C150700301507006B
:1080C00039150700421507004A1507005215070029
:1080D0005D15070067150700C8D6002045494648CA
:1080E0000EF0D9FE444907A812F014F907AA00219E
:1080F000032004F04DF907A812F0C6F83F4811F02C
:108100003DFE3F4902463C480EF08EFE3A4907A824
:1081100012F000F907AA0021042004F039F907A899
:1081200012F0B2F804F04EF9BFE43649D7E7364909
:10813000D5E73649D3E73649D1E73649CFE736495F
:10814000CDE73649CBE73649C9E73649C7E736496F
:10815000C5E73649C3E73649C1E73649BFE736497F
:10816000BDE73649BBE73649B9E7052A7AD1237816
:10817000002B3FF49CAC334B1E78002E7FF497AC61
:10818000314C657A022D31D0032D31D05DB92F49A4
:1081900007A812F0BFF80021084607AA04F0F8F873
:1081A00007A812F071F84FF47A7362682849B2FB9D
:1081B000F3F211480EF038FE0F4907A812F0AAF8A2
:1081C00007AA0021012004F0E3F807A812F05CF8E8
:1081D000204907A812F09EF8002107AA022004F007
:1081E000D7F807A812F050F81B49B3E51B49CFE7B1
:1081F0001B49CDE7DB130700B5D5002058E300206D
:108200007C150700E9130700F413070000140700AA
:108210000C14070016140700201407002C14070084
:10822000401407005314070063140700701407007C
:108230007A1407008A14070098140700A414070092
:10824000B514070000D7002004A30020C3140700C2
:10825000F71407000BBD070085150700D2140700AF
:10826000E3140700062B40F0B782A04BA04ADE784B
:108270001D7993F801809F7893F805901278C6EBEA
:10828000461106EB8106C5EB451105EB81059949C1
:108290000391487A76006D00032836B22DB240F083
:1082A0005781197893F807A008EB01281FFA88F87E
:1082B0000A21B8FBF1F107EE901A8F49F8EEE77A40
:1082C00038370AF1380AC1ED007A7FB24FEA29192E
:1082D0004FFA8AFA8B46002A3CD0884B1B78002B39
:1082E00000F0DB8004F0DAFD854A864B11881980A6
:1082F000917899701179D970517919719179D279F0
:1083000059719A710322DA715FFA89F21A727E4A00
:108310007E481268DA607E4A12681A6100217D4A3E
:1083200019755F7583F816A0128852B2DA757A4A09
:1083300012780FFA88F852B21A765E839D83D98339
:10834000A3F8208011F01AFD6E4B40B283F8220092
:1083500004F0E4FF2378002B3FF4A9AB6F4B1C78AB
:10836000002C7FF4A4AB03F0F7FF6D48DFF8DC814D
:10837000012103F091FE684B6A491A78654B6A48FF
:108380001B8852B21BB20EF04FFD674907A811F0CF
:10839000C1FF07AA2146204603F0FAFF07A811F003
:1083A00073FF3B46524661495F480EF03DFD5E4912
:1083B00007A811F0AFFF07AA2146012003F0E8FF4C
:1083C00007A811F061FF4A46594957480EF02CFDA5
:1083D000554907A811F09EFF07AA2146022003F085
:1083E000D7FF07A811F050FF524907A811F092FFDC
:1083F00007AA3221022003F0CBFF07A811F044FFA7
:108400004D4907A811F086FF07AA5021022003F06A
:10841000BFFF07A811F038FF484907A811F07AFFFD
:1084200007AA2146032003F0B3FF07A811F02CFF91
:10843000039BDF7A002F33D0324641493A480EF091
:10844000F3FC394907A811F065FF07AA3221032080
:1084500003F09EFF07A811F017FF2A46384932485B
:108460000EF0E2FC304907A811F054FF07AA502192
:10847000032003F08DFF07A811F006FFDBF80000D2
:10848000D8F8005048F0E8F9009502460B462D490F
:1084900025480EF0C9FCFFF7F5BB04F023FD23E7E8
:1084A000294921480EF0F7FC1F4907A811F032FFB7
:1084B00007AA3221032003F06BFF07A811F0E4FEA6
:1084C000194907A811F026FF07AA5021032003F03D
:1084D0005FFF07A811F0D8FEDBF80000D8F80040D5
:1084E00048F0BAF9009402460B46D0E782D5002046
:1084F000AFD5002004A30020CCD60020DCD900207A
:10850000D4D90020A4A1002030D7002058E30020B7
:1085100034D70020B2D50020B4D5002000D70020E9
:10852000B81207009B150700B5D50020B21507004B
:10853000C9150700D4150700D8150700DC1507007A
:108540002D150700E5150700FA150700C8D600200D
:10855000A8F1C808C83F1FFA88F81FFA87FA002A4E
:108560003CD0874B1B78002B00F0F68004F096FC83
:10857000844B854F1A883A809A78BA701A79FA70C3
:108580005A793A719A79DB797A71BB710223FB715E
:108590007E4B87F808901B68FB607D4B7D481B680D
:1085A0003B614FFA88F33B754FFA8AF37B757A4B40
:1085B0001B885BB2FB75794B1B785BB23B76002363
:1085C0007E83BD83FB83764B1B681BB23B8411F01B
:1085D000D5FB40B287F8220004F0A0FE2378002BE0
:1085E0003FF465AA6F4B1C78002C7FF460AA03F05F
:1085F000B3FE6D48012103F04FFD684B6B491A78BB
:10860000654B6B481B8852B21BB20EF00DFC6849DB
:1086100007A811F07FFE07AA2146204603F0B8FE06
:1086200007A811F031FE4FFA89F262496048DFF87D
:1086300070910EF0F9FB5E4907A811F06BFE07AAD6
:108640002146012003F0A4FE07A811F01DFE5A499F
:1086500007A811F05FFE07AA3221012003F098FE5F
:1086600007A811F011FE554907A811F053FE07AAFB
:108670005021012003F08CFE07A811F005FE50499F
:1086800007A811F047FE07AA2146022003F080FE4A
:1086900007A811F0F9FD4B4907A811F03BFE07AA06
:1086A0002146032003F074FE07A811F0EDFD0FFA38
:1086B00088F245493E48DFF81C810EF0B5FB3C4985
:1086C00007A811F027FE07AA3221022003F060FE5E
:1086D00007A811F0D9FD0FFA8AF23B4934480EF091
:1086E000A3FB334907A811F015FE07AA3221032086
:1086F00003F04EFE07A811F0C7FD039BDF7A77B3A6
:10870000324631492A480EF08FFB294907A811F05B
:1087100001FE07AA5021022003F03AFE07A811F03B
:10872000B3FD294922482A460EF07EFB204907A8BE
:1087300011F0F0FD07AA5021032003F029FE07A83D
:1087400011F0A2FDD9F80020D8F800301F491848D0
:108750000EF06AFBFFF796BA04F0C4FB08E71C4969
:1087600013480EF098FB124907A811F0D3FD07AA91
:108770005021022003F00CFE07A811F085FDD5E77B
:10878000DCD90020D4D90020A4A1002030D70020BB
:1087900034D7002058E30020B2D50020B4D5002003
:1087A000C4D6002000D70020A81207009B150700A0
:1087B000B5D50020C915070046690700DC1507007C
:1087C000D4150700D81507002D150700FD15070063
:1087D000FA150700C8D60020072B67D15E4B1B781F
:1087E000002B30D05D4B1B78002B58D004F056FB8B
:1087F0005B4B5C4D1A882A809A78AA701A79EA70C5
:108800005A792A719A79DB796A71AB710223EB711B
:10881000554A564800232B721268EA60544A12687F
:108820002A612B756B75EB752B766B83AB83EB83B2
:10883000504B1B681BB22B8411F0A0FA40B285F894
:10884000220004F06BFD2378002B3FF430A94A4B43
:108850001B78002B7FF42BA9484C03F07DFD627A36
:10886000032A0CBF46484748012103F015FC46493E
:1088700046480EF010FB454907A811F04BFD0021BA
:10888000084607AA03F084FD07A811F0FDFC637AEF
:10889000032B3F4B06D13F4A10681C6820E604F0CA
:1088A00021FBA5E7334A12681B684FE7082B7FF4CA
:1088B000FEA8324B5D7A35B1012D29D0364B00220E
:1088C0001A70FFF7F4B803F047FD3448012103F0B4
:1088D000E3FB334907A811F01DFD002107AA084654
:1088E00003F056FD07A811F0CFFC2E4927480EF0E3
:1088F000D2FA264907A811F00DFD07AA002103208E
:1089000003F046FD07A811F0BFFC03F05BFDD5E7BF
:108910002378002BD2D0184B1C78002CCED103F03A
:108920001BFD1E48294603F0B7FB1F4907A811F09D
:10893000F1FC07AA2146204603F02AFD07A811F002
:10894000A3FC184911480EF0A6FA104907A811F027
:10895000E1FC07AA2146D2E7AFD50020DCD90020F0
:10896000D4D90020A4A1002030D7002058E3002053
:1089700034D70020C4D6002000D7002004A3002054
:10898000A8120700B812070011160700B5D500207D
:10899000C8D60020CCD60020D1D600201A1307005C
:1089A000C3140700261607005D13070010B5044620
:1089B00005F03EF8204610BD0F4BB0B100221A70F2
:1089C0000E4B0F4A18600F4B11685B7A023B012B6C
:1089D00001F101010C4B116094BF072202221A70B1
:1089E0000A48FA22012111F03CBB1B7813B1064B57
:1089F0000822F4E7704700BFD1D60020D4D600206B
:108A0000C4D6002004A3002080D5002011E300205C
:108A100010B5134BB0F90A201A80124B90F90C20B4
:108A20001A70114B42781A70104B00221A7003789A
:108A3000022B14D10E4B5B7A023B012B0FD80D4C4D
:108A4000027A41680C48062323700DF07FFC234610
:108A50000A48BDE81040FA22012111F002BB10BD06
:108A6000B2D50020B4D50020B0D50020D1D600204A
:108A700004A3002080D5002082D5002011E300202F
:108A8000F0B5254D297899B0002942D101231A2249
:108A900008A82B7007910DF067FC05A82AF032F8A2
:108AA00005981E4C00F5E0400FA96E302AF09EF8A4
:108AB000149B1B4903F26C730393129B0293139B49
:108AC000013301930F9B009307A8DDE910320EF0EC
:108AD000ABF9149813999DF848209DF844309DF8FF
:108AE00040609DF83C70227100F26C70013180B2E0
:108AF000C9B22080A1706371A671E771094C247816
:108B00003CB10224CDE900672C7004F081F904F037
:108B1000C5F919B0F0BD00BFD0D60020D4D90020CF
:108B200032160700DCD9002030B54FF080432DED20
:108B3000028BD3F83834032B83B027D01448144D5C
:108B400011F05AFA0A24B0EE408A284611F054FA7D
:108B5000013C38EE008AF8D1B2EE067AC8EE077A08
:108B60009FED0C7ADFED0C6A67EE877A9FED0B7A4A
:108B700067EE877A87EEA67AFCEEC77ACDED017AAA
:108B80009DF8040003B0BDEC028B30BD0020F9E776
:108B90000DE3002000007A440040834500007F433D
:108BA00008B5064B1B783BB111F0F9FDBDE8084054
:108BB00001460348FEF7B8BB08BD00BF01D700203F
:108BC000B8D600201E4B07B501221E481A7010F0BF
:108BD000EAFF18B11C48002110F0AFFF1B4811F04C
:108BE00033F91B491B4811F041F81B49194811F092
:108BF0004DF81A49174811F041F81949154811F074
:108C00004DF81849134811F051F80021164811F099
:108C10008BF80221154811F0F5F832230122009358
:108C200011460A230B4810F0E0FF114BD97A01B12D
:108C30000121222003B05DF804EB11F0A4BD00BFB8
:108C4000A1A1002084E300206EE300206DE300205A
:108C5000118A020049E30020B98902008D730200E5
:108C600021740200818A020051E300206BE300209E
:108C700004A3002008B50F4B0F480021197010F015
:108C80005CFF0E4810F093FF0D490B4810F09CFF5D
:108C90000C49094810F0A0FF4FF6FD71064810F08E
:108CA0004CFF094BD97A01B10121BDE808402220CF
:108CB00011F069BDA1A100206EE3002084E3002033
:108CC000DD730200B973020004A300201F4B07B537
:108CD00001221F481A7010F066FF18B11D480021CC
:108CE00010F02BFF1C4811F0AFF81C491C4810F085
:108CF000BDFF1C491A4810F0C9FF1B49184810F065
:108D0000BDFF1A49164810F0C9FF1949144810F060
:108D1000CDFF0021174811F007F80021164811F087
:108D200071F83223012200930D480A23114610F0F6
:108D30005CFF124BDB7A33B10121222003B05DF8D6
:108D400004EB11F020BD03B05DF804FBA1A10020ED
:108D500084E300206EE300206DE30020118A02000E
:108D600049E30020B98902008D73020021740200DA
:108D7000818A020051E300206BE3002004A300205D
:108D800010B50B4C00212046FEF794FA2046094C02
:108D9000094A0A490DF06CFAFF21204604F03CFE16
:108DA0002046054A0649BDE810400DF061BA00BFF3
:108DB000B8D60020A4D5002090A10020BF720200E8
:108DC000AD8902002DE9F04F012187B0222011F07A
:108DD000C3FC0121232011F0BFFC0121242011F04C
:108DE000BBFCA948A94E11F03FFB03F021F93070FC
:108DF00068B1A749A7480EF04EF8A648012103F034
:108E00004BF9A54803F04AFAA44803F047FA0021B9
:108E1000222011F0B8FC0223A14806224FF4E131D0
:108E200010F0D0FD4FF08043D3F83834032B6DD1D0
:108E30004FF4FA601BF094FA0523022203AC99491F
:108E400000939448984D994F00230DF0EDFF914900
:108E5000204611F05FFA2146954811F0A1F820460E
:108E600011F012FA0121232011F08DFC00212320A2
:108E700011F089FC0021242011F085FC02F0D8F9C2
:108E800002F0C0F902F050F902F064F902F078F94A
:108E900002F0E4F902F08EFB00F034FA002000F05A
:108EA00053F96B7A023B012B57D8012002F02EFCBC
:108EB00038703B7813B17F4803F0F0F903F008FFF6
:108EC0007D4F387060B103F0E9FF94E8030029F0AA
:108ED000F8FD02F081F93B7813B1784803F0DEF930
:108EE00004F04CF8764F387048B104F037F9387018
:108EF00002F05CF93B7813B1724803F0CFF96B7A5A
:108F0000032B2ED8DFE803F051A7B0BD11F047FCCA
:108F1000DFF88CA107464FF0000B41F287384FF085
:108F20000009504610F033FD002885D111F037FCC0
:108F3000C41B6BEB4B05A04579EB0503FFF67CAF3B
:108F400064201BF00DFA232011F022FCB0FA80F10E
:108F50004909232011F017FCE3E7E87A0028A4D19F
:108F6000A4E733780BB358494A480DF094FF4949B8
:108F7000204611F0CFF900212246084603F008FAF6
:108F8000204611F081F9514942480DF084FF4149D2
:108F9000204611F0BFF922460021012003F0F8F924
:108FA000204611F071F903F00DFA494803F076F903
:108FB000484810F0CFFE10B9474803F06FF9FFF7AB
:108FC00001FE4FF47A7345496A683248B2FBF3F206
:108FD0000DF02AFF2F4803F061F9414A414801236F
:108FE000002111F034F86A6822B100233D48194687
:108FF00011F037F83C4A3B480023012111F027F8D3
:1090000000233A4A3748022111F021F8AB7A33B1F4
:10901000344800234EF66022022111F022F8012389
:10902000334A3048032111F012F8324B1B785BB100
:10903000284810F08FFE38B93223012200932E48C1
:109040000A23114610F0D1FD01212C4811F07BFBC1
:1090500007B0BDE8F08FFFF70DFE294803F01EF9B9
:10906000284803F01BF9ACE7274803F017F9194823
:1090700010F070FE10B9184803F010F9FFF726FE43
:109080009FE72248F1E700BF8CE30020AED5002027
:109090001A130700B5D50020541607006116070003
:1090A00030E20020CF19070004A30020ADD5002036
:1090B000B8E200206D160700DCD900207516070005
:1090C000AFD500207C160700871607009916070009
:1090D000C314070054E30020A9160700F714070083
:1090E0009974020011E300206978020019C402009B
:1090F00015BC0200A1A1002049E30020A9E2002044
:1091000062130700B7160700D2140700E314070024
:109110007047000008B5054804F0F8FD034804F066
:1091200014FEBDE80840014804F02EBED8D6002049
:1091300007B531220DF10701024804F02FFE03B0FC
:109140005DF804FBD8D6002073B500210446112039
:1091500011F002FB524811F087F9524B002C00F03D
:10916000848000229A800A22DA804FF481721A8168
:1091700040F201125A814B4804F0A0FE0546002837
:1091800040F08B80002C38D02A22302145488DF8C1
:109190000720012604F0ACFC0822322141488DF85A
:1091A000072004F0A5FC324633213E488DF80760C5
:1091B00004F09EFC24220DF107013A4804F0EEFD74
:1091C0009DF80720374822F00C0242F008022421C3
:1091D0008DF8072004F08CFC6022222131488DF8A4
:1091E000072004F085FC2A4625212E4804F080FC47
:1091F0002C483246212104F07BFC002520220DF171
:10920000070128488DF8075004F0C8FD9DF8072095
:10921000244842F0080220218DF8072004F068FC61
:1092200064201BF09DF81E220DF107011D488DF8EA
:10923000075004F0B3FD9DF807201A4842F0900251
:109240001E218DF8072004F053FC64201BF088F8E1
:109250008CB1FFF76DFF14490422112010F076FB4A
:10926000FFF758FF204602B070BD02229C80DC80D0
:109270001A815C817FE720220DF10701094804F083
:109280008DFD9DF80720074802F0400220218DF84F
:109290000720012404F02CFCE4E70024E2E700BFEF
:1092A0008CE30020D8D60020119102000248182239
:1092B000002104F0D7BB00BFD8D60020D0B511F0F4
:1092C0006EFA0D4C0D4B0021C3E9000111F067FA55
:1092D000D4E90032C61A62EB4207C92E77F10003C7
:1092E00009DB11F05CFA064A206000236360137802
:1092F0000133DBB21370D0BDF0D60020F8D60020C9
:1093000001D7002008B50221092011F025FA0649ED
:109310000322092010F01AFB0449054801236422A6
:10932000FDF7E0FF012008BDBD920200199902007F
:10933000B8D600202DE9F04FC74D91B011F02FFAAB
:10934000D5E900230024811A64EB03030091019303
:10935000DDE9002340F6B8300021904271EB0303B1
:10936000A346A246A146A0462746264677DB11F033
:1093700016FAD5E90023811A63EB430302910393A4
:10938000DDE90223B2F5C87F73F1000373DA11F04F
:1093900006FAD5E90023811A63EB43030491059390
:1093A000DDE90434B3F5C87F74F1000380F28580F1
:1093B00011F0F5F9D5E90023811A63EB4303069117
:1093C0000793DDE90634B3F5167F74F1000380F2EC
:1093D000998011F0E4F9D5E90023811A63EB430386
:1093E00008910993DDE90834B3F5487F74F100036F
:1093F00080F2AE8011F0D3F9D5E90023811A63EB36
:1094000043030A910B93DDE90A34B3F5966F74F1C7
:10941000000380F2C08011F0C2F9D5E90023811A5F
:1094200063EB43030C910D93DDE90C34B3F5AF6F9F
:1094300074F1000380F2D28011F0B1F9D5E9002374
:10944000811A63EB43030E910F93DDE90E34B3F5FC
:10945000C86F74F1000380F2E280082474E00920F0
:1094600011F096F9002882D17C4B1B78002B3FF439
:109470007EAF022468E0794B1B78012B87D109204D
:1094800011F086F9012882D10023C82C10D00920C0
:10949000009311F07DF9009B012804BF0133DBB27A
:1094A000012001340093E4B21AF05AFF009BECE76C
:1094B000C62B7FF66CAF002446E0684B1B78022B6E
:1094C0007FF476AF092011F063F901287FF470AFC3
:1094D0000024BBF1C80F10D0092011F059F9012860
:1094E00008BF01344FF001000BF1010B08BFE4B2DB
:1094F0005FFA8BFB1AF034FFEBE7C62C7FF658AF10
:10950000012421E0554B1B78032BDCB27FF461AFC3
:109510004FF0000BBAF1C80F12D0092011F038F942
:10952000012808BF0BF1010B4FF001000AF1010AFD
:1095300008BF5FFA8BFB5FFA8AFA1AF011FFE9E7BE
:10954000BBF1C60F7FF645AF204611B0BDE8F08FE6
:10955000424B1B78042BDCB27FF44CAF4FF0000A77
:10956000B9F1C80F12D0092011F012F9012808BF73
:109570000AF1010A4FF0010009F1010908BF5FFA81
:109580008AFA5FFA89F91AF0EBFEE9E7BAF1C60F39
:109590007FF630AFD8E7314B1B78052BDCB27FF478
:1095A0003AAF4FF00009B8F1C80F12D0092011F0FE
:1095B000EFF8012808BF09F101094FF0010008F197
:1095C000010808BF5FFA89F95FFA88F81AF0C8FE47
:1095D000E9E7B9F1C60F7FF61EAFB5E71F4B1B7861
:1095E000062BDCB27FF428AF4FF00008C82F11D053
:1095F000092011F0CDF8012808BF08F101084FF04B
:10960000010007F1010708BF5FFA88F8FFB21AF0FE
:10961000A7FEEBE7B8F1C60F7FF60EAF94E70F4B4E
:109620001B78072BDCB27FF418AF0025C82E0FD0B3
:10963000092011F0ADF8012808BF01354FF00100F5
:1096400006F1010608BFEDB2F6B21AF089FEEDE7A9
:10965000C62D7FF602AF77E7F8D6002001D70020AD
:1096600073B58B4D8B4C6A7A637A9A4231D002F093
:1096700073FE0021884802F00FFD6B6863606B7A0F
:10968000864863726B89638102F008FE844802F0A9
:1096900005FE02F097FE01F007FE40F6B8301AF022
:1096A0005FFE637A7F48012B4FF000014FF03206D6
:1096B00040F0998010F041FA00227B4800960A237E
:1096C000114610F092FA794810F071FA784810F0CB
:1096D00091FCEA7AE37A9A4207D06B7A023B012B3B
:1096E00094BF0120002002F011F86A6863689A4272
:1096F00003D16A8963899A4213D002F02DFE67482C
:1097000002F0CCFD664802F0C9FD02F05BFE6B681A
:1097100063606B89638101F0C7FD40F6B8301AF0D1
:109720001FFE644810F08CFB002869D0624810F0DE
:1097300013FB624B1978884205D000395E4818BF88
:10974000012110F00BFB5E4810F018FB5D4B1978FF
:10975000884202D05A4810F013FB5B4810F020FBFF
:109760005A4B1978884202D0574810F01BFB584DCD
:1097700058482E7810F026FB86420BD029785548A1
:1097800010F02CFB32230122009347480A23114694
:1097900010F02BFA02F0E0FD637A012B71D06CD946
:1097A000023B012B6FD94FF47A7362684A49B2FBCE
:1097B000F3F24A480DF038FB484802F06FFD62684A
:1097C00022B100234648194610F04BFCA37A002B27
:1097D0005BD0434800234EF66022022102B0BDE870
:1097E000704010F03EBC10F0A8F9012200960A2348
:1097F00011462D4810F0F9F92E4810F025FB65E7C9
:10980000384D3948296810F052F9374810F04DF9B1
:109810002968884202D0344810F049F9334810F0E2
:1098200055F9334B1978884202D0304810F050F97E
:10983000304D31482E7810F05AF9864203D02978FD
:109840002D4810F056F92D4810F062F92C4B19787C
:10985000884202D0294810F05DF92A4810F06BF9CF
:10986000294B1978884202D0264810F075F94FF636
:10987000FD710C4810F061F98CE7244802F00EFDF0
:1098800091E72348FAE72348F8E702B070BD00BF2C
:10989000D0A1002004A30020C5160700CC160700A5
:1098A000DC1607006EE3002049E3002084E300207B
:1098B000A8E200206DE3002055E3002003D700203C
:1098C00058E3002005D7002060E3002006D70020E1
:1098D00004D700206AE30020F7140700B5D5002064
:1098E00011E3002010D7002079E300207AE3002064
:1098F00014D700200BD700207BE300207CE300205E
:109900000CD700207EE3002015D70020C3140700E9
:1099100062130700E31407002DE9F04F87B0FFF74B
:1099200009FD072800F2CC81DFE810F0B4044203FF
:109930000800CD01B00053002D001A00914B00200B
:109940001870914B00240025C3E900458F4B1B780C
:1099500023B107B0BDE8F04F02F03CBD0120F8E7AD
:10996000884B00221A70884B00200021C3E90001B7
:10997000874B1C783CB902F0EFFC8648214602F088
:109980008BFB1AF004FD7F4B00221A707E4B0020E7
:109990000021C3E900017E4B1C7874B17E4B1A781C
:1099A000052A40F08D8110221A707C4BD97A0191E2
:1099B0009B7A00937A4B1B785BE002F0CDFC7948F0
:1099C000214602F069FB784807B0BDE8F04F10F07F
:1099D00011BB6C4B00221A706B4B00200021C3E9B5
:1099E00000016B4B1B78002B00F06A816A4C2378D6
:1099F000052B00F26581DFE813F0060063016301C7
:109A0000220030004000694810F01AFA0128634B28
:109A10000AD104222270D97A01919B7A6449009379
:109A200009786448FF2315E005222270D97A019154
:109A30009B7A6149009309786048FF230AE0574BFD
:109A40000322D97A5A7201919B7A009305235C49CB
:109A50005C48097802F0E4FC32E107235A4823709D
:109A600010F0B0F94D4AD37A0193937A0093C3B2C0
:109A70002278564956480978ECE7484B0E22D97AA5
:109A8000227001919B7A0093524B94E73D4B002248
:109A90001A703D4B00200021C3E900013C4B1B78AC
:109AA000002B00F0A5803C4C2378062B00F20881A7
:109AB000DFE813F007001703120020002A00570008
:109AC0006000364903224B7AC87A22700190897A65
:109AD00000910233DBB2BAE7304A937A83F0010394
:109AE0009372D27A019200930222FF233A493B48B3
:109AF0000978AFE7294B02225A72DA7A01929B7AEF
:109B0000009304230322A2E70A232F48237010F0B6
:109B100059F9C0B20C280ED8DFE800F00717171D5E
:109B2000171D1D17171717171D002D4B00221A7030
:109B30002C4B05221A70194A2B4BD17A1B780191B4
:109B4000927A00920A33DBB292E7254B00221A7018
:109B5000244B0722EEE7224B00221A70214B0A22E7
:109B6000E8E70E4B0D22D97A227001919B7A00937F
:109B70001E4B20E7094BDA7A01929B7A009300236F
:109B80003AE100BF01D70020F8D600204CA5002004
:109B900000D70020ED16070002D70020D0A100203A
:109BA00015D70020F8160700A8E200206DE300207A
:109BB000B8A20020A4A20020E8A20020D0A2002089
:109BC00078A2002064A200206AE30020CCA100203B
:109BD000C8A100200CD70020CCA20020BCA20020ED
:109BE0000AD7002008D7002005D700200BD7002077
:109BF0009E4810F025F9012862D19D4D6A7A012A0C
:109C00005ED09C4E3278002A5AD19B4C9B4B2070E0
:109C10001B7804940BB902F0DDFB00219848DFF8B3
:109C20006CB210F028FA974810F0CCF8964B53F825
:109C300020309648039310F0A1F84FF0000A074631
:109C4000039B33F81A2042B35FFA8AF1584610F0AA
:109C500097F864201AF084FB0020FDF71DFC10F03B
:109C60009EFD02463078059298B14FF47A701AF052
:109C700077FB10F094FD059A42F21073B0EB0208E6
:109C80004FF0000161EB01090024434574EB090327
:109C9000E8DA4FF4FA601AF063FB0AF1010ABAF14C
:109CA000100FCDD17948394610F06AF86A6822B1B0
:109CB00000237348194610F0D4F9049A0023137056
:109CC00007B0BDE8F08F724B00221A70714B002470
:109CD0000025C3E90045704B1B78002B00F0418143
:109CE0006E4C2278102AEBD801A353F822F000BF63
:109CF000359D0200E3A00200479D0200579D02002F
:109D0000699D0200C59D0200D79D0200FD9D0200D5
:109D1000C19C02001B9E0200419E0200C59E0200E3
:109D2000E99E0200099F0200279F0200C19C0200D9
:109D3000439F020002222270594BD97A01919B7AEB
:109D40000093FF23D2E6564AD37A83F00103D372FD
:109D50000193937AC7E6524B01225A72DA7A019242
:109D60009B7A00930323CDE609234648237010F025
:109D700029F8C0B20C2814D8DFE800F0070707075D
:109D8000070D1B07212121211B00464B00221A70C1
:109D9000454B052204E0434B00221A70424B04223B
:109DA0001A703F4BDA7A01929B7A00933F4B1B78F3
:109DB0005EE63C4B00221A703B4B0622F0E7394B23
:109DC0000222E4E7364B0C22D97A227001919B7A69
:109DD0000093374BEFE5324B5A6842B142F20F71B4
:109DE0008A428ABFA2F51C520022103A5A60DA7ADF
:109DF00001929B7A0093FF2306223AE62D4A1378BC
:109E000013B1013BDBB200E00C231370244AD17A7A
:109E10000191927A009207222BE6244A2149137875
:109E20000978994209D1204B1B7813701C4AD17ACA
:109E30000191927A009209221BE6013BDBB2F4E722
:109E40001D4A1E491378097899420BBF1C4B03F138
:109E5000FF331B78DBB21370114BDA7A01929B7AD5
:109E60000093124B1B780A2203E600BF6DE300202B
:109E700004A30020D1D6002081D500204CA50020CD
:109E800011E300206AE30020FCA4002058E3002036
:109E900001D70020F8D6002000D7002002D70020EC
:109EA000D0A1002009D7002007D7002005D7002027
:109EB00014D7002004D7002006D700200AD700209E
:109EC00008D70020A34AA4491368A3F5C333A03BD5
:109ED0008B4298BFA14B1360A14BDA7A01929B7A17
:109EE00000930B22FF23C4E59E490B78062B1CBF71
:109EF00003F1FF33DAB29A4B0A70D97A01919B7A57
:109F0000009313460C22B4E5974A137813B1013B32
:109F1000DBB200E009231370914AD17A0191927A61
:109F200000920D22A5E5914A117809B1481EC0B2F0
:109F300010708B4AD37A0193937A009303460E22D2
:109F400097E58B4A1378052B02D0013BDBB200E08A
:109F500016231370824AD17A0191927A00921022CC
:109F600087E584480FF06CFF01287FF4A9AE824B8F
:109F70001B78002B7FF4A4AE804B1B780BB902F04A
:109F800029FA00217E4810F076F87E4B012200204D
:109F90001A70FDF781FA7C4B5A68002A3FF490AEA4
:109FA00000237748194607B0BDE8F04F10F059B8C4
:109FB000764B774D774C00221A70774B00210020AA
:109FC000C3E900012978002959D16D4810F053F8F0
:109FD00001216B4810F04FF86948022110F04BF84E
:109FE000664B1B7813B9012002F0F4F90123664A8D
:109FF0002B70002323705A4B51685960517A528953
:10A000005C485A8159720FF01BFF0146D8B1634872
:10A010000FF0B4FE624B187062480FF0D3FE624B33
:10A02000187062480FF098FE614B187061480FF08D
:10A03000B7FE614B18700023CDE9003322785F49E9
:10A040005F48097806E55F480FF077FD5E480FF03E
:10A050002CFD404B18605D480FF038FD414B1870E7
:10A060005B480FF044FD404B18705A480FF050FD0C
:10A070003E4B187058480FF05EFD3D4BDAE72378F1
:10A08000102B3FF61DAE01A252F823F0D1A0020022
:10A09000E3A00200F5A00200F9A002000BA102005B
:10A0A00023A1020081A2020027A1020037A1020021
:10A0B000DDA10200F1A1020013A2020029A2020008
:10A0C00045A2020055A20200C19C020071A202003A
:10A0D0000122234B2270D97A01919B7A0093FF23AE
:10A0E000C7E4002222701E4BD97A01919B7A00931B
:10A0F000FF23A4E70622ECE7194B00225A72DA7A12
:10A1000001929B7A00930223FCE41549284BC87AFC
:10A110001B78082222700190897A00910A33DBB201
:10A12000A7E40B22D5E7204A13780C2B01D001338A
:10A1300068E6002369E61E4A1378B3FA83F35B09E5
:10A140001370074AD17A0191927A00920A33082259
:10A150008FE400BF10D700207F47A1198047A119C5
:10A16000D0A1002014D700200BD700200CD700204E
:10A1700015D700206DE30020D1D600204CA500208B
:10A1800011E30020A2D5002004A3002001D7002065
:10A1900000D7002002D70020F8D6002058E3002086
:10A1A00005D700206AE3002004D7002055E30020F3
:10A1B00003D7002060E3002006D7002000A3002082
:10A1C000ECA200206EE3002079E300207AE3002077
:10A1D0007BE300207CE300207EE30020554A5649C3
:10A1E00013780978994201D1544B1DE6013325E6D5
:10A1F000534A54491378097899420BBF524B0133A3
:10A200001B78DBB21370514AD17A0191927A009295
:10A2100029E64F4A4F49136803F5C333A0338B42F5
:10A2200094BF1360116057E64B4A13780C2B1ABF8A
:10A230000133DBB206231370444AD17A0191927A3A
:10A2400000925FE6454A1378092B01D001335FE69F
:10A25000002360E6424A1378032B1ABF0133DBB2B6
:10A2600000231370394AD17A0191927A009266E6FE
:10A270003C4A1378162B01D0013367E6052368E6C4
:10A28000324A536803F51C5310335360D37A019359
:10A29000937A73E4344B00221A70344B344A002111
:10A2A0000020C3E90001117800293FF409AD314BCA
:10A2B000197810293FF604AD01A050F821F000BF35
:10A2C00005A3020013A3020013A3020013A30200BC
:10A2D00013A3020013A302002DA3020019A302007E
:10A2E00019A3020019A3020019A3020023A302006C
:10A2F00023A3020023A3020023A30200C19C0200A7
:10A3000023A302000023137007B0BDE8F04FFFF74E
:10A31000A7B900221A70E6E604221A700B4BFFF769
:10A320007ABB05221A70094BFFF780BB02221A7014
:10A3300002E500BF05D7002007D7002009D700207D
:10A3400006D7002008D700200AD70020D0A100207F
:10A3500010D700200070383914D700200BD7002008
:10A360000CD7002015D7002001D70020F8D60020F8
:10A3700000D7002002D70020024B01221A700920CA
:10A38000704700BF16D7002070B598B014460A4930
:10A390000EA80FF0BFFF0023CDE91433CDE916332B
:10A3A000636E012B0CD1054920680CF06AFD48B1A1
:10A3B000022400F0EDBC00BF9A5807001E78070089
:10A3C000002BF5D1B649B748B74CB84DB84E10F090
:10A3D00027F9B849B34810F023F9B149B64810F04D
:10A3E0001FF9B449B44810F01BF9642019F0B8FF04
:10A3F000637AB24955F82320AA4810F011F9AD4903
:10A40000A84810F00DF9637AAC4955F82320AA4802
:10A4100010F006F9A749A84810F002F9642019F0D5
:10A420009FFFA74911A80FF0C5FD11A90EA80FF0B5
:10A4300084FF11A80FF028FF0EA80FF0C1FF0E9A9D
:10A44000A049984810F0ECF89A49964810F0E8F8BE
:10A450000E9A9C49984810F0E3F89649964810F0F7
:10A46000DFF8642019F07CFF974911A80FF082FDF6
:10A47000119A96498B4810F0D3F811A80FF004FFF9
:10A480008C49884810F0CCF88F4911A80FF072FD64
:10A49000119A8E49884810F0C3F811A80FF0F4FE05
:10A4A0008449854810F0BCF8642019F059FF4FF436
:10A4B0007A7562688649B2FBF5F27A4810F0B0F816
:10A4C0007C49784810F0ACF862688149B2FBF5F23B
:10A4D000794810F0A5F87749774810F0A1F8642082
:10A4E00019F03EFF7B480FF0ABFC7B4956F820206B
:10A4F00005466C4810F094F86E496A4810F090F8E0
:10A5000056F8252074496C4810F08AF869496A4861
:10A5100010F086F8642019F023FF012D40F04E83DF
:10A520006E486F4E6F4D0FF015FC6F49002814BF39
:10A5300032462A465B4810F073F85E49594810F0DD
:10A540006FF866480FF006FC6749002814BF3246D2
:10A550002A465948654E10F063F85649564810F09F
:10A560005FF8642019F0FCFE61480FF02BFC614994
:10A57000054602464B4810F053F84E49494810F042
:10A580004FF82A465B494C4810F04AF849494A4876
:10A5900010F046F8642019F0E3FE56F825205649DD
:10A5A000404810F03DF843493E4810F039F856F85D
:10A5B00025205149404810F033F83E493E4810F0FC
:10A5C0002FF8642019F0CCFE4C480FF0BCFB00289B
:10A5D00000F0BE814A49334810F022F8354931482D
:10A5E00010F01EF84649344810F01AF83149324844
:10A5F00010F016F8642019F0B3FE082214A941489F
:10A600000FF080FB9DF8573005939DF8563004936A
:10A610009DF8553003939DF8543002939DF85330C4
:10A6200001939DF852309DF85020374900931D4802
:10A630009DF851300FF0F4FF1E491A480FF0F0FF5B
:10A640009DF8573005939DF8563004939DF855308A
:10A6500003939DF8543002939DF8533001939DF875
:10A6600052309DF850202849009313489DF85130EE
:10A670000FF0D6FF0F4910480FF0D2FF642019F0F9
:10A680006FFE082214A921480FF018FB9DF85730DF
:10A6900005939DF8563004939DF8553038E000BF7F
:10A6A0006817070030E2002004A3002070A40020F7
:10A6B000CCA300209858070094E2002077170700E9
:10A6C000E8E2002085170700ACE2002029460700D9
:10A6D000901707006DE30020A017070054E3002047
:10A6E0008D5507005A170700B017070098A30020E0
:10A6F0006AE30020BB170700C617070053E30020DA
:10A70000D11707004EE30020DB1707004AE30020C3
:10A7100003939DF8543002939DF8533001939DF8B4
:10A7200052309DF850207D4900937D489DF851306E
:10A730000FF076FF7B497A480FF072FF9DF8573093
:10A7400005939DF8563004939DF8553003939DF87A
:10A75000543002939DF8533001939DF852309DF888
:10A7600050206E49009370489DF851300FF058FF0B
:10A770006C496D480FF054FF642019F0F1FD102270
:10A7800014A96A480FF0A3FA9DF85F300D939DF865
:10A790005E300C939DF85D300B939DF85C300A930E
:10A7A0009DF85B3009939DF85A3008939DF8593015
:10A7B00007939DF8583006939DF8573005939DF800
:10A7C000563004939DF8553003939DF8543002930E
:10A7D0009DF8533001939DF852309DF85020544914
:10A7E00000934F489DF851300FF01AFF4D494C48E7
:10A7F0000FF016FF9DF85F300D939DF85E300C93BF
:10A800009DF85D300B939DF85C300A939DF85B30AA
:10A8100009939DF85A3008939DF8593007939DF895
:10A82000583006939DF8573005939DF856300493A1
:10A830009DF8553003939DF8543002939DF85330A2
:10A8400001939DF8523000939DF850209DF85130AF
:10A85000374935480FF0E4FE32493348354E364D1E
:10A860000FF0DEFE642019F07BFD34492C480FF018
:10A87000D7FE2C492A480FF0D3FE30492A480FF062
:10A88000CFFE284928480FF0CBFE642019F068FD60
:10A89000627A2B4922480FF0C3FE224920480FF06C
:10A8A000BFFE627A264920480FF0BAFE1D491E48B5
:10A8B0000FF0B6FE642019F053FDA27A2149184822
:10A8C000002A14BF32462A460FF0AAFE1549144842
:10A8D0000FF0A6FEA27A1B491348002A14BF324685
:10A8E0002A460FF09DFE0F490F48174E0FF098FEB5
:10A8F000642019F035FD15481AF04AF80025B4F81F
:10A900008E20EBB2934205F1010580F23D82234493
:10A910003046197B1AF03CF8F1E700BF0318070036
:10A9200030E200209858070094E200204BE300201A
:10A930002B18070065170700E91607008C19070098
:10A940009C190700AA190700D3990700BB19070033
:10A95000904991480FF064FE90498F480FF060FED7
:10A960008C498F480FF05CFE8C498D480FF058FEE3
:10A97000642019F0F5FC14A910228A480FF0B0F9F0
:10A980009DF85F300D939DF85E300C939DF85D301F
:10A990000B939DF85C300A939DF85B3009939DF80A
:10A9A0005A3008939DF8593007939DF85830069314
:10A9B0009DF8573005939DF8563004939DF8553017
:10A9C00003939DF8543002939DF8533001939DF802
:10A9D00052309DF85020009373499DF851306E48D5
:10A9E0000FF01EFE6D496C480FF01AFE9DF85F30A7
:10A9F0000D939DF85E300C939DF85D300B939DF8A0
:10AA00005C300A939DF85B3009939DF85A300893A7
:10AA10009DF8593007939DF8583006939DF85730AC
:10AA200005939DF8563004939DF8553003939DF897
:10AA3000543002939DF8533001939DF852309DF8A5
:10AA40005020009358499DF8513055480FF0E8FDCB
:10AA5000524953480FF0E4FD642019F081FC14A919
:10AA6000102252480FF057F99DF85F300D939DF872
:10AA70005E300C939DF85D300B939DF85C300A932B
:10AA80009DF85B3009939DF85A3008939DF8593032
:10AA900007939DF8583006939DF8573005939DF81D
:10AAA000563004939DF8553003939DF8543002932B
:10AAB0009DF8533001939DF852309DF8502000933B
:10AAC0003B499DF8513034480FF0AAFD33493248D4
:10AAD0000FF0A6FD9DF85F300D939DF85E300C934E
:10AAE0009DF85D300B939DF85C300A939DF85B30C8
:10AAF00009939DF85A3008939DF8593007939DF8B3
:10AB0000583006939DF8573005939DF856300493BE
:10AB10009DF8553003939DF8543002939DF85330BF
:10AB200001939DF852309DF85020009320499DF8E4
:10AB300051301B480FF074FD184919480FF070FD93
:10AB4000642019F00DFC14A904221A480FF0D1F862
:10AB50009DF8533001939DF852309DF8502000939A
:10AB600015499DF851300C480FF05AFD0B490A4821
:10AB70000FF056FD9DF8533001939DF8523000932D
:10AB80009DF850209DF851300B4905480FF048FDC5
:10AB900062E600BF7318070030E2002098580700F3
:10ABA00094E200204CE300207C18070050E30020D2
:10ABB000C51807004DE300200E1907007748002D47
:10ABC00040F09B800EF071FF7549024675480FF00A
:10ABD00027FD754973480FF023FD70480EF065FF9F
:10ABE0006F49024671480FF01BFD6F496F480FF027
:10ABF00017FD642019F0B4FB6D480EF067FF6D4936
:10AC0000024668480FF00CFD674966480FF008FDE2
:10AC100067480EF05BFF6749024664480FF000FD8D
:10AC2000614962480FF0FCFC642019F099FB62480E
:10AC30000EF05DFF614902465A480FF0F1FC5A4997
:10AC400058480FF0EDFC5C480EF051FF5B4902469E
:10AC500056480FF0E5FC544954480FF0E1FC6420DD
:10AC600019F07EFB56480EF053FF564902464D48F8
:10AC70000FF0D6FC4C494B480FF0D2FC50480EF078
:10AC800047FF5049024649480FF0CAFC4649474829
:10AC90000FF0C6FC642019F063FB4B480EF049FF2F
:10ACA0004A4902463F480FF0BBFC3F493D480FF080
:10ACB000B7FC45480EF03DFF444902463B480FF0C3
:10ACC000AFFC394939480FF0ABFC642019F048FB60
:10ACD0003F480EF030FF3F49024632480FF0A0FCDB
:10ACE000314930480FF09CFC39480EF024FF3949B7
:10ACF00002462E480FF094FCAEE50EF0D6FE284931
:10AD0000024628480FF08CFC274926480FF088FCA3
:10AD100022480EF0CAFE2249024624480FF080FC69
:10AD2000214922480FF07CFC642019F019FB2A48C5
:10AD30000EF035FF294902461A480FF071FC1A49F6
:10AD400018480FF06DFC24480EF029FF23490246F5
:10AD500016480FF065FC144914480FF061FC64209C
:10AD600019F0FEFA1E480EF01CFF1E4902460D485F
:10AD70000FF056FC0C490B480FF052FC18480EF02F
:10AD800010FF18490246B4E7074819F001FE0024F5
:10AD90000EA80FF079FA204618B070BD79E30020B4
:10ADA0002719070030E200209858070094E200209D
:10ADB0007AE30020361907007BE300203E190700E4
:10ADC0007CE30020461907007DE300204E190700B0
:10ADD0007EE300206319070082E300207119070059
:10ADE00083E300207E19070073B5556E012D0E46D2
:10ADF00025D1144910680CF044F80446E0B9052543
:10AE0000CDE90005022332460F4910480FF008FC37
:10AE10000F490E480FF004FC02233246CDE90045ED
:10AE200009490C480FF0FCFB09490A480FF0F8FBF0
:10AE3000642019F095FA2546284602B070BD012518
:10AE4000FAE700BF1E780700CC19070030E20020A7
:10AE50009858070094E200202DE9F84F614B1B78C9
:10AE6000002B00F0BD80604B1B78002B40F0B680BB
:10AE7000556E012D40F0B480D2F800A05B495046D9
:10AE80000BF0FFFF0446002866D1594B59495A4838
:10AE90001D700FF0C5FB57495748DFF880B10FF020
:10AEA000BFFB544955480FF0BBFB524953480FF0C4
:10AEB000B7FB642019F054FA214651480FF0DBF833
:10AEC00029464F480FF0D7F802214D480FF0D3F82C
:10AED00001F042FA21464B4801F0DEF84A4801F001
:10AEE000DDF94A4801F0DAF901F06CFA0FF057FC8D
:10AEF0004FF0000A054642F2107600279BF800301A
:10AF00008BB94FF47A7019F02BFA0FF048FCB0EBC4
:10AF100005086AEB4A09464577EB0903EEDA032494
:10AF20002046BDE8F88F02F0A1F8324932480FF010
:10AF300077FB304930480FF073FB2E492F480FF054
:10AF40006FFB2C492D480FF06BFB642019F008FAB9
:10AF50002F480FF04FF8E3E72E4950460BF091FFD2
:10AF6000044600283CD1224BDFF8B0B01D700146EA
:10AF700023480FF080F8294621480FF07CF8022181
:10AF80001F480FF078F801F0E7F921461D4801F05D
:10AF900083F8214801F082F91C4801F07FF901F0A3
:10AFA00011FA0FF0FCFB4FF0000A054644F620684A
:10AFB0004FF000099BF800306BB94FF47A7019F02C
:10AFC000CFF90FF0ECFB461B6AEB4A07B04579EB73
:10AFD0000703EFDAA3E701F0FDFFB9E700249FE7DD
:10AFE00002249DE7AFD5002016D700201E78070069
:10AFF00000D700209858070030E2002094E200209B
:10B0000011E30020C5160700E6190700DC1607004B
:10B01000A8E20020195E0700F6190700D8A3002057
:10B020002DE9FF41536E012B0D46144624D13949B9
:10B0300010680BF026FF044620B10224204604B01D
:10B04000BDE8F08101F02AFF294633480FF0B4FA39
:10B05000324931480FF09EFA314A3249D37903938D
:10B0600093790293537901931379009393782A4843
:10B0700012880FF0D5FAE1E7052BDED1161F02F199
:10B08000100756F8045F28460BF00DFF2B462844A6
:10B09000984205D013F8012B303A092AF8D9CCE7A9
:10B0A000BE42EED10022114620680CF069F840F251
:10B0B000D233A0F2E6729A420546BED800226068FA
:10B0C00011460CF05DF8431E0B2B0646B5D8002246
:10B0D000A06811460CF054F8431E1E2B0746ACD84E
:10B0E0000022E06811460CF04BF818288046A4D8DE
:10B0F0000022206911460CF043F83B289DD8C2B2CB
:10B1000000925FFA88F3FAB2F1B2A8B201F038FE09
:10B11000002493E71E78070030E20020FF1B0700A1
:10B12000D4D90020061A070007B503230193054B65
:10B130000093054B054A064819460EF066FF03B01A
:10B140005DF804FB21B30200211A0700291A070049
:10B150000EE3002007B503230193054B0093054B35
:10B16000054A064819460EF050FF03B05DF804FB8F
:10B17000EDB30200811A0700861A07000EE30020D3
:10B1800007B503230193054B0093054B054A064879
:10B1900019460EF03AFF03B05DF804FBEDB402006F
:10B1A000E41A0700E91A07000EE3002007B503239D
:10B1B0000193054B0093054B054A064819460EF0CE
:10B1C00024FF03B05DF804FB59AE0200101B07001A
:10B1D000151B07000EE3002007B503230193054B61
:10B1E0000093054B054A064819460EF00EFF03B0C2
:10B1F0005DF804FB21B002002B1B07002F1B07008A
:10B200000EE3002007B502230193054B0093054B85
:10B21000054A064819460EF0F8FE03B05DF804FB37
:10B2200089A30200561B07005D1B07000EE30020E8
:10B2300007B502230193054B0093054B054A0648C9
:10B2400019460EF0E2FE03B05DF804FBE9AD020022
:10B25000741B07007B1B07000EE3002010B50D4C8C
:10B260000D4986B003A80FF055F803A920460EF04B
:10B27000B7FE03A80FF008F802230193074B0093D1
:10B28000074B084A194604F126000EF0BEFE06B030
:10B2900010BD00BFE8E20020931B070079A3020065
:10B2A0009B1B0700A41B070070B5194C19491A4EC7
:10B2B000C2B09022201D0BF049F89021201D19F0FA
:10B2C000A9FE00252060FE22294602A801950BF068
:10B2D0004BF8B4F88E30E8B2984205F1010508DA6F
:10B2E000231831461A7B01AB03EB40000BF09CFDA9
:10B2F000EFE7074A0948942300210EF09EFE28B983
:10B300000146034A054894230EF097FE42B070BDF3
:10B31000DCA3002008A30020D39907000FE300203E
:10B32000F8B5536E012B0E4602D002242046F8BD1C
:10B330001568274928460BF0A4FD044660B128464D
:10B340000BF0B1FD2A462844904224D012F8013B6C
:10B35000303B092BF8D9E8E71E4F1F497B681F488F
:10B3600032464FF47A75B3FBF5F30FF059F91C49E7
:10B370001A480FF055F97B681749B3FBF5F33246CD
:10B3800018480FF04DF9164916480FF049F9642096
:10B3900018F0E6FFCAE70A22002128460BF0F0FE6B
:10B3A000B0F5E15FC1D80B4C4FF47A73584360603D
:10B3B00000210D480EF05FFE626822B100230A48AA
:10B3C00019460EF04EFEFFF76FFF0024AEE700BFF8
:10B3D0001E78070004A30020C71B070030E20020EE
:10B3E0009858070094E2002011E30020536E012BCF
:10B3F00070B50E4602D00224204670BD1568334950
:10B4000028460BF03EFD044660B128460BF04BFD8C
:10B410002A46284490421ED012F8013B303B092BAB
:10B42000F8D9E8E72A4D2B496B7A2B4832460FF0C2
:10B43000F7F82A4928480FF0F3F86B7A254928488D
:10B4400032460FF0EDF8254925480FF0E9F8642061
:10B4500018F086FFD0E70A22002128460BF090FE64
:10B460000328C8D81A4C637A984223D06072FFF739
:10B470001BFF637A012B22D01ED9023B012B21D95D
:10B48000184915480FF0CCF8144913480FF0C8F8C4
:10B49000144913480FF0C4F8104911480FF0C0F8D0
:10B4A000642018F05DFF41F2883018F059FF0E4813
:10B4B0000EF0A0FD00249FE7FDF784FBE0E7FDF719
:10B4C000D9FBDDE7FDF702FCDAE700BF1E780700D5
:10B4D00004A30020CE1B070030E20020985807008C
:10B4E00094E20020D41B0700A8E20020F8B5536EB8
:10B4F000012B0D4602D002242046F8BD17682549CD
:10B50000254E38460BF0BDFC044678BBB6F88E30AD
:10B51000ABB92A46214922480FF082F82149204838
:10B520000FF07EF82A461D491F480FF079F81D4993
:10B530001D480FF075F8642018F012FFDCE729466B
:10B540001A481B4F19F024FA2546B6F88E20EBB2A4
:10B55000934205F1010505DA33443846197B19F0A9
:10B5600017FAF2E70F4819F013FAC5E738460BF05F
:10B570009AFC06F10C0201460546384613F0F8FC29
:10B5800004460028B7D16D08A6F88E50FFF78CFE50
:10B59000B2E700BF1E78070004A30020F11B0700DC
:10B5A00030E200209858070094E20020FD1B0700BD
:10B5B000D3990700F0B52E4D2E48C3B094232A46E8
:10B5C00000210EF030FD0646B8B12B7AAA2B17D118
:10B5D0009021281D19F01EFD2B68274C834211D0A5
:10B5E00047F23052AA23C4E90123244BE360042329
:10B5F000A4F88E30FFF758FE0026304643B0F0BD69
:10B600000020E9E76B6863606B7AB5F88E20032B46
:10B6100086BF0023374600276372802A6B896381C7
:10B6200006D900232373A4F88E30FFF73DFE07E010
:10B6300013491448A4F88E200AF088FE002FF4D194
:10B640000025FE22294602A801950AF08DFE0E4F24
:10B65000B4F88E30E8B2984205F10105CDDA23182E
:10B6600039461A7B01AB03EB40000BF0DDFBEFE743
:10B67000DCA300200FE3002004A300200102030448
:10B68000E8A3002010A30020D399070010B5074BB2
:10B6900053F82020002332F813408C42D8B203D84C
:10B6A0000133102BF7D1184610BD00BFFCA40020B9
:10B6B00013B501900F480EF085FB019980B2FFF79A
:10B6C000E5FF04460C480EF059FBA0420FD20B4890
:10B6D00000F0E4FD0A490B4822460BF0A5FB09489F
:10B6E00000F0DCFD084B0020187002B010BD0120F6
:10B6F000FBE700BF6AE3002058E300206A1C070054
:10B700007C1C0700B5D50020D1D600202DE9F341DF
:10B710000121754E074622200FF035F84FF4FA70DC
:10B7200018F01EFE3478002C7ED1704970480094C9
:10B7300040F24C43422207F07DFC054620B900242C
:10B74000204602B0BDE8F08169484FF0020840F29F
:10B750004C42012186F8008007F086FA654E002FE2
:10B7600057D040F24C4322460121614807F0F4FAD9
:10B7700040F24C43424601215D4807F0EDFA40F2A9
:10B780004C43062201215A4807F0E6FA01221146ED
:10B7900040F24C43564807F0DFFA40F24C43032294
:10B7A0000121534807F0D8FA40F24C43042201210A
:10B7B0004F4807F0D1FA40F24C4305224C48012192
:10B7C00007F0CAFAF37A40F24C42E3B10521484847
:10B7D00007F091FC464840F24C432246012107F015
:10B7E00091FB434840F24C4107F044FA737A023B24
:10B7F000012B02D8F47A002CA2D1002122200EF0D5
:10B80000C2FF2C469CE74FF4FA71394807F0B4FCAC
:10B81000E7E740F24C424FF0FF31354807F04AFA73
:10B82000FA2018F09DFDE1E70025304930480095E9
:10B8300040F24C43422207F0FDFB044600283FF44F
:10B840007EAF40F24C420121294807F00DFA40F248
:10B850004C432A460121264807F07EFA40F24C4329
:10B8600002220121224807F077FA40F24C430622D7
:10B8700001211F4807F070FA0122114640F24C43A3
:10B880001B4807F069FA40F24C4303220121184893
:10B8900007F062FA40F24C4304220121144807F0F9
:10B8A0005BFA40F24C4305221148012107F054FA9B
:10B8B000104BDB7A40F24C4283B105210C4807F073
:10B8C0001AFC0B4840F24C432A46012107F01AFBB0
:10B8D00040F24C41064807F0CDF931E74FF4FA71D8
:10B8E000034807F049FCF3E724D700208CE300204D
:10B8F00054D7002004A300202DE9F04FDFF80C837B
:10B90000A94FAA4CAA4DDFF80893AA4E8BB000238A
:10B9100000220021C8E90023C7E900234FF0000AF4
:10B920001C2203A82970C9F8001021700291C6F8E2
:10B9300000A00AF019FDA04902A80BF0ACFA9F4B39
:10B940009F48DB7AA34640F24C41002B66D007F0BB
:10B95000DCFCC117C8E9000140F24C41984807F0EF
:10B96000B9FCC117C7E9000140F24C41944807F007
:10B97000E7FC40F24C41C9F80000914807F03BFC5D
:10B9800007EE900AF8EE677A40F24C418C48C6ED1B
:10B99000007A07F084FC40F24C412070884807F0A0
:10B9A00042FC012829D1874902A80BF074FA96EDD0
:10B9B000007ADFED857AB4EEE77AF1EE10FA05D57C
:10B9C0007A4B1B78052B01D901232B702B7803F0C0
:10B9D000FF04002B00F0D280D7E900E31A46D8F824
:10B9E0000430D8F800C01A434CEA0E00114650EA61
:10B9F000010378D100242C70AAE0022801D17349F8
:10BA0000D2E7032801D17249CEE7042801D1714958
:10BA1000CAE705280CBF70496749C5E707F020FC55
:10BA20000028D3D0012124200EF0ADFE644840F25E
:10BA30004C4107F0F8FB044600283DD15E4902A8BE
:10BA40000BF029FA5E4840F24C4107F028FC634BAA
:10BA50008BF800001A78904242D1614A1378013382
:10BA60001370022CB2D95E4B1B78012BAED9012387
:10BA700040F24C4152482B7007F047FCC117C8E90F
:10BA8000000140F24C414E4807F024FCC117C7E9C1
:10BA9000000140F24C414A4807F052FC40F24C4150
:10BAA000C9F80000464807F0A6FB07EE900AF8EE3A
:10BAB000677AC6ED007A89E7012801D14949BEE7D6
:10BAC000022801D14849BAE7032801D14749B6E71E
:10BAD000042801D13F49B2E70528B3D13E49AEE77A
:10BAE00088BF1870BDE7354B304D5B7A032B33D1DF
:10BAF0003F4B40481B6872461BB2614601F0DCFEBA
:10BB0000D8E9000144F0D2FE25A3D3E9002345F093
:10BB100025F845F0F1F9384B1860D7E9000144F0F9
:10BB2000C5FE1FA3D3E9002345F018F845F0E4F95A
:10BB3000324B32681860324B1A604FF47A72D9F87F
:10BB4000003093FBF2F32F4A13602F4B2A781A70C0
:10BB500020460BB0BDE8F08FD9F8003096ED000A12
:10BB600024484FF47A7193FBF1F395F9001000919A
:10BB70001BB27246614601F0D3FDC1E71E4BC3F80C
:10BB800000A01E4BC3F800A01D4B4FF07E521A6060
:10BB90001C4B1C601C4B1C702DE700BFAFF30080DA
:10BBA00000000000D012634148D70020D8D8002000
:10BBB00039D7002018D700208A1C070004A30020D2
:10BBC00054D70020911C070000009643A01C0700DA
:10BBD000AC1C0700B81C0700C11C070050D7002090
:10BBE00051D70020CA1C0700D41C0700DB1C07002B
:10BBF000C8D60020A4D5002030D7002034D700209C
:10BC000028D700202CD7002038D7002040D700208C
:10BC10001CD700202DE9F041012186B023200EF031
:10BC2000B2FDFFF769FE6B4F6B4E0446002800F033
:10BC30009B806A4BD97A11B922200EF0A4FD684B83
:10BC4000002264201A7018F08BFB664803210EF066
:10BC500012FA3B78002B36D0634B1B78002B32D185
:10BC600000F07AFB614800F019FB614B1868614BEA
:10BC70001D68614BD3F8008044F0EEFD02460B4690
:10BC80002846CDE90423CDF8088044F0E5FDDDE940
:10BC90000423CDE90001594959480BF0C5F858482B
:10BCA00000F0FCFA574B1868574B1D7844F0D4FD50
:10BCB000EDB202460B465248544900950BF0B4F8D9
:10BCC0004F4800F0EBFA524B1B781BB95148012149
:10BCD0000EF0A7F85048DFF8588101F0B3FE80B2AB
:10BCE000FFF7E6FC0546D8B14B4801F0ABFE0490E7
:10BCF000494801F0A9FE01240246CDE90044049917
:10BD0000464823460DF08CFF38B988F80000444AB5
:10BD10001368013313602C4604E088F80040F6E70E
:10BD200088F800003B78002B49D0002C47D12E4BDF
:10BD30001B78002B43D100F00FFB314B1C70274BBD
:10BD4000DB7A002B30D0374800F0A8FA364B1A784F
:10BD500062BB34882A4B2A20114694422ADD18708F
:10BD6000013203F8011FF8E7304B32881B889A42F2
:10BD7000D8D3642018F0F4FA194B1A481C702C4BD5
:10BD800003211C700EF077F93D785DB1164B1C78DD
:10BD9000002CC7D127491A480BF07DF8184800F04D
:10BDA0007DFAB8E70124BDE72348CDE723491448CD
:10BDB0000BF03AF8124800F071FA00F003FB3388F8
:10BDC000002101332320338006B0BDE8F0410EF09E
:10BDD000DABC00BFAED5002020D7002004A300208D
:10BDE000ACD5002011E3002000D70020E21C0700A2
:10BDF00030D7002034D700202CD70020EC1C0700BF
:10BE0000B5D5002028D7002038D70020FC1C07001B
:10BE1000D0D600206CE30020A4D5002049E3002008
:10BE2000C8D60020261D0700D8D8002022D7002021
:10BE3000D1D600200E1D07003C1D07004F1D070036
:10BE400010B5054C204602F061F82046034A04492B
:10BE5000BDE810400AF00CBA54D7002090A1002091
:10BE600019E502000020704738B590F833300446D9
:10BE70000D4613B1406B0EF0F7FA94F83010606B7A
:10BE80000EF036FB606B802100F02DF8606B0368CC
:10BE900029461B689847606B0121BDE838400EF0C9
:10BEA00033BB000010B5034B0360044607F040FBB2
:10BEB000204610BDC01E070010B50446406B0EF0B2
:10BEC000D3FA606B02490EF0E3FA012010BD00BF07
:10BED000801A060010B50446FFF7E4FF20460CF078
:10BEE0001DFD204610BD0368C9B21B6818472DE927
:10BEF000F84F90F83330044613B1406B0EF0B4FAAB
:10BF0000658AC5F180054FF0000A05EBD575FF275E
:10BF10006D10D146D0463E46A38A5FFA8AF1B1EB56
:10BF2000D30F28DA4FF0000C638A5FFA8CF0984246
:10BF30001CDA11FB03F30344A2689BB212F803E07E
:10BF4000E26812F803B0F3450BD08E4228BF0E46CC
:10BF5000884538BF8846874228BF0746814538BF95
:10BF6000814602F803E00CF1010CDDE70EF08BF8DE
:10BF70000AF1010AD0E7FF2E57D0236821219B69DF
:10BF800020469847236857FA85F19B69C9B2204635
:10BF900098475FFA85FA23680AEB09019B69C9B2E1
:10BFA00020469847236822219B69204698472368AA
:10BFB00031469B6920469847236841469B69204645
:10BFC00098470025B04529D3BA46CA4521D845B976
:10BFD00094F83010606B0EF08BFA606B4021FFF725
:10BFE00082FFA268606B638A06FB0323026813F872
:10BFF0000A1012680135EDB29047102D04D1606B24
:10C0000001210EF081FA00250AF1010A5FFA8AFA8D
:10C01000DBE701360EF037F8F6B2D3E72DB1606BEF
:10C020000121BDE8F84F0EF06FBABDE8F88F0000AF
:10C0300038B51648164C0EF017FA4FF4FA7018F08F
:10C040008FF90125204684F8335007F028FE20465A
:10C0500007F0DBFC204607F056FD204607F0C3FC46
:10C06000C821204607F018FD204607F03FFD402379
:10C07000F1222046642107F0DAFC0649204607F049
:10C08000B0FC2046FFF733FF284638BD8CE3002084
:10C090009CD90020E01E070030B52DED028B044630
:10C0A00097B04F480D464F4907F09BFC4C48002184
:10C0B00007F048FA00220B231146494800938023D9
:10C0C00007F058FB4648012107F03CFA444800219C
:10C0D00007F085FC444B1B787BB1444B1B7863B164
:10C0E0005DB1434906A80EF015F906AB00223C48A5
:10C0F000114607F011FE06A81AE03E4BDD7A002D2E
:10C100002FD03D4B3D4918783D4A2346002808BFB3
:10C110000A463C4906A80AF087FE06A903A80EF0C5
:10C12000F9F800222E4803AB114607F0F5FD03A8ED
:10C130000EF0AAF84FF08043D3F8384414F0FF040F
:10C1400016D0032C46D00B2200927F2300212448D6
:10C1500007F02FFA2248FFF7CAFE17B0BDEC028B9A
:10C1600030BD214606A80EF0D5F806AB2A46BEE73C
:10C1700025489FED268A244C0DF03EFF0A252046D7
:10C180000DF03AFF013D38EE008AF8D1F2EE047A64
:10C19000C8EE277A17EE900A44F05EFB02460B4683
:10C1A00006A81B490AF040FE82B206A90C4807F017
:10C1B000F9FB06A9044603A80EF0ACF8C4F17F0110
:10C1C000074803AB002209B207F0A6FD03A80EF052
:10C1D0005BF8B8E70F4906A80AF05DFE2246E4E7DF
:10C1E0009CD90020E01E07000CDA0020AFD500200B
:10C1F0005A1D070004A3002039D7002085990700A5
:10C20000BE5C0700681D07000DE300200000000071
:10C210006E1D0700741D0700F0B51C481C4F1D4E15
:10C220001A4D87B0002107F08DF940230C221748E2
:10C2300000930021802307F09DFA1749134807F067
:10C24000D0FB1248012107F07DF91048002107F0CA
:10C25000C6FB00243B78A34213DD06EB441103A880
:10C260000EF058F804EB840252000C3203AB12B209
:10C270000021284607F050FD03A80EF005F8013410
:10C28000E8E70248FFF733FE07B0F0BD9CD9002075
:10C29000D9D80020DAD80020E01E070070B5274C5E
:10C2A000274D2278052A034638D105F12002294678
:10C2B00005F1400052F8046B41F8046B8242F9D159
:10C2C000204AA2F1200102F1200052F8046B41F84B
:10C2D000046B8242F9D11C4AA2F1200102F1200034
:10C2E00052F8046B41F8046B8242F9D1174AA2F16B
:10C2F000200102F1200052F8046B41F8046B8242E5
:10C30000F9D1134AA2F1200102F1200052F8046B86
:10C3100041F8046B8242F9D10422227020780D4A40
:10C3200005EB401020210AF04BFD2378052B1CBFA4
:10C3300001332370BDE87040FFF76EBFD9D80020ED
:10C34000DAD800201AD900203AD900205AD9002082
:10C350007AD900200A78070007B50B48002107F0BA
:10C36000F1F8402300930C2280230748002107F0B6
:10C3700001FA0548012107F0E5F8044B00221A7084
:10C3800003B05DF804FB00BF9CD90020D9D8002081
:10C3900030B585B004460D4601A811460DF0DCFF0E
:10C3A00004EB840252000C3201AB12B2294604485D
:10C3B00007F0B2FC01A80DF067FF05B030BD00BF6B
:10C3C0009CD9002008B50248FFF791FD08BD00BFC9
:10C3D0009CD9002070B504460B4D0C487CB107F089
:10C3E00002FB01232B700A4B9B7A5BB1BDE87040C6
:10C3F000084800234EF6602202210DF032BE07F0FD
:10C4000004FB2C7070BD00BF4CA500209CD90020FF
:10C4100004A3002011E300200020FFF7DBBF000091
:10C420002DE9F04F89B015461C469DF848309DF81F
:10C430004CA0029180460193FFF78EFF012D6BD136
:10C440008C498D4C05A80DF065FF002105AA084612
:10C45000FFF79EFF05A80DF017FF627A032A0FD899
:10C46000DFE802F002545658844905A80DF052FF47
:10C47000012005AA0021FFF78BFF05A80DF004FF9E
:10C480004FF47A7362687E49B2FBF3F27D487E4DC9
:10C490007E4C0AF0C9FC7B4905A80DF03BFF05AABC
:10C4A00000210220FFF774FF05A80DF0EDFEBAF1A0
:10C4B000000F14BF2A462246754972480AF0B4FCA0
:10C4C000704905A80DF026FF05AA00210320FFF7FB
:10C4D0005FFF05A80DF0D8FE019B6E49002B14BF2D
:10C4E0002A46224667480AF09FFC664905A80DF0D7
:10C4F00011FF05AA00210420FFF74AFF05A80DF04F
:10C50000C3FEFFF75FFF09B0BDE8F08F6249ACE7FB
:10C510006249AAE76249A8E7062D2BD1554905A82B
:10C520000DF0F8FE002105AA0846FFF731FF05A827
:10C530000DF0AAFE5B4905A80DF0ECFE05AA00214E
:10C540000120FFF725FF05A80DF09EFE564905A81E
:10C550000DF0E0FE05AA00210220FFF719FF05A853
:10C560000DF092FE444B51495A684FF47A73B2FB76
:10C57000F3F2B7E7072D60D13E4905A80DF0CAFEDA
:10C58000002105AA0846FFF703FF05A80DF07CFE71
:10C59000474905A80DF0BEFE05AA00210120FFF7BE
:10C5A000F7FE05A80DF070FE424905A80DF0B2FE99
:10C5B000022005AA0021FFF7EBFE05A80DF064FE9E
:10C5C000002C35D0631E0C2CDBB233D0651CEDB2D1
:10C5D000394E2C4856F823100AF05DFC294905A86D
:10C5E0000DF098FE05AA40210220FFF7D1FE05A814
:10C5F0000DF04AFE56F82420304922480AF014FC77
:10C60000204905A80DF086FE402105AA0320FFF76A
:10C61000BFFE05A80DF038FE56F8251019480AF09F
:10C620003AFC184905A80DF075FE05AA402162E7FD
:10C630000C23CBE70B230025CAE7082D44D10D4975
:10C6400005A80DF067FE0021084605AAFFF7A0FE29
:10C6500005A80DF019FE0A2C0CBF19491949094803
:10C660000AF019FC074905A80DF054FE05AA00219F
:10C67000012041E7781D0700D0A10020C213070068
:10C680008A1D0700B5D500209F1E0700E916070088
:10C690009C1D0700AA190700811D0700D21407007E
:10C6A000E3140700A81D0700BC1D0700D01D0700EC
:10C6B000E91D0700F21D070098A30020FB1D0700DD
:10C6C000031E07000F1E0700092D5CD1A449A54CCD
:10C6D00005A80DF01FFE002105AA0846FFF758FE29
:10C6E00005A80DF0D1FDA04905A80DF013FE05AA7F
:10C6F00000210120FFF74CFE05A80DF0C5FD9B4968
:10C7000005A80DF007FE05AA00210220FFF740FE54
:10C7100005A80DF0B9FD964923780D7895499648FE
:10C72000AB4208BF0A7809781CBF03F1FF32D2B2CE
:10C73000994218BF0133914918BFDDB20AF074FB6A
:10C740008D4905A80DF0E6FD05AA40210220FFF75E
:10C750001FFE05A80DF098FD2278894986480AF049
:10C7600063FB854905A80DF0D5FD05AA40210320EE
:10C77000FFF70EFE05A80DF087FD80492A467E488A
:10C780000AF052FB4DE70A2D59D175497D4C05A899
:10C790000DF0C0FD002105AA0846FFF7F9FD05A828
:10C7A0000DF072FD704905A80DF0B4FD05AA002139
:10C7B0000120FFF7EDFD05A80DF066FD6B4905A80A
:10C7C0000DF0A8FD05AA00210220FFF7E1FD05A854
:10C7D0000DF05AFD6C4923780D786C496648AB42E0
:10C7E00008BF0A7809781CBF03F1FF32D2B2994220
:10C7F00018BF0133664918BFDDB20AF015FB5E4968
:10C8000005A80DF087FD05AA40210220FFF7C0FD15
:10C8100005A80DF039FD22785E4957480AF004FB5F
:10C82000554905A80DF076FD05AA40210320FFF724
:10C83000AFFD05A80DF028FD55492A469FE70B2DB1
:10C8400033D1474905A80DF065FD002105AA08462A
:10C85000FFF79EFD05A80DF017FD4F4905A80DF047
:10C8600059FD05AA00210120FFF792FD05A80DF052
:10C870000BFD4A4905A80DF04DFD05AA0021022037
:10C88000FFF786FD05A80DF0FFFC454B186843F047
:10C89000D1FF31A3D3E9002344F060F902460B46EF
:10C8A000354840490AF0C0FA1FE60C2D40F0808060
:10C8B0002B4905A80DF02EFD002105AA0846FFF71B
:10C8C00067FD05A80DF0E0FC274905A80DF022FD45
:10C8D00005AA00210120FFF75BFD05A80DF0D4FC9F
:10C8E000224905A80DF016FD05AA00210220FFF738
:10C8F0004FFD05A80DF0C8FC062C03D0651E0C2CBE
:10C90000EDB226D0661CF6B22A4627491A480AF02C
:10C910008BFA194905A80DF0FDFC05AA402102205B
:10C92000FFF736FD05A80DF0AFFC22461F4912485F
:10C930000AF07AFA104905A80DF0ECFC05AA40218E
:10C940000320FFF725FD05A80DF09EFC1649324691
:10C9500015E70B250626D7E70000000080842E414E
:10C96000781D070005D70020E91D0700F21D07000C
:10C9700009D7002007D70020B5D500201F1E0700CB
:10C980001A1E070006D700200AD7002008D700206B
:10C99000291E0700241E0700301E07003E1E070048
:10C9A00010D700204E1E07006F1E07006A1E0700EA
:10C9B0000D2D62D1A44905A80DF0ACFC002105AAFB
:10C9C0000846FFF7E5FC05A80DF05EFC9F4905A8A9
:10C9D0000DF0A0FC05AA00210120FFF7D9FC05A855
:10C9E0000DF052FC9A4905A80DF094FC022005AA0E
:10C9F0000021FFF7CDFC05A80DF046FC002C37D038
:10CA0000631E092CDBB235D0651CEDB2914E924904
:10CA100056F8232091480AF007FA904905A80DF02E
:10CA200079FC05AA2C210220FFF7B2FC05A80DF025
:10CA30002BFC56F824208A4988480AF0F5F98749E2
:10CA400005A80DF067FC05AA2C210320FFF7A0FC28
:10CA500005A80DF019FC56F825207F497F480AF0FB
:10CA6000E3F97E4905A80DF055FC05AA2C2142E505
:10CA70000923C9E708230025C8E70E2D54D17249C0
:10CA800005A80DF047FC002105AA0846FFF780FC29
:10CA900005A80DF0F9FB6D4905A80DF03BFC05AAB2
:10CAA00000210120FFF774FC05A80DF0EDFB68499B
:10CAB00005A80DF02FFC022005AA0021FFF768FC55
:10CAC00005A80DF0E1FB54B3621E032CD2B228D0AE
:10CAD000651CEDB20532634960480AF0A5F95F496B
