:020000022000DC
:1070000000000420518B0300798B03007B8B03006D
:107010007D8B03007F8B0300818B03000000000049
:10702000000000000000000000000000838B03004F
:10703000858B03000000000000000000000000003D
:10704000657A0500878B0300E59805003D80050003
:10705000878B0300A57605007D740500955C06000E
:10706000878B03007D7F0500917F0500878B0300E0
:10707000878B0300878B0300878B0300878B0300BC
:10708000996906007D4C0500878B0300878B030000
:10709000878B0300878B03001D530600878B03003B
:1070A000878B0300878B0300A57F0500B97F050050
:1070B000878B0300878B03000000000000000000A6
:1070C000878B0300878B0300878B0300D161060049
:1070D000957C0500878B0300878B0300F5950500E1
:1070E0006D960600878B0300ADBD06000000000012
:1070F00000000000878B030000000000A16506006F
:10710000000000000000000000000000000000007F
:10711000000000000000000000000000000000006F
:10712000000000000000000000000000000000005F
:10713000000000000000000000000000000000004F
:10714000000000000000000000000000000000003F
:10715000000000000000000000000000000000002F
:10716000000000000000000000000000000000001F
:10717000000000000000000000000000000000000F
:1071800000000000000000000000000000000000FF
:1071900000000000000000000000000000000000EF
:1071A00000000000000000000000000000000000DF
:1071B00000000000000000000000000000000000CF
:1071C00000000000000000000000000000000000BF
:1071D00000000000000000000000000000000000AF
:1071E000000000000000000000000000000000009F
:1071F000000000000000000000000000000000008F
:1072000010B5054C237833B9044B13B10448AFF3E0
:1072100000800123237010BD60D500200000000015
:1072200008FC070008B5034B1BB103490348AFF343
:10723000008008BD0000000064D5002008FC0700A5
:10724000154B002B08BF134B9D46A3F5803A002138
:107250008B460F461348144A121A0FF0D9F80F4BF9
:10726000002B00D098470E4B002B00D098470020F1
:10727000002104000D000D48002802D00C48AFF397
:1072800000800FF075F8200029000EF0FBFD0FF0D4
:107290005BF800BF000008000000042000000000B0
:1072A0000000000060D500203CC501200000000067
:1072B000000000000022C0E900220172704738B5CA
:1072C0000446006820B1856911F078FB2846F9E78B
:1072D000204638BD006820B143688B4201D08069E8
:1072E000F9E77047F8B504460F4616461D46FFF706
:1072F000F1FF20B10123826005704370F8BD1C20AE
:1073000011F060FB012343700023C0E90333C0E99F
:10731000053323680570C0E9017613B92060606009
:10732000ECE763689861FAE72DE9F8430468164FC3
:1073300005460E464FF000081CB363680BB9A469FC
:10734000FAE72378002BFAD0E368A268F31A9A428E
:1073500002D961780029F2D09B1A636184F8018018
:10736000E66013F071FA63688146984713F06CFA8F
:107370003B68A0EB0900206118442B7A3860002B91
:10738000DDD0BDE8F88300BF7CD5002008B5074BF1
:1073900050B103221A700648FA22012112F0B1FE00
:1073A000044B00221A7008BD0522F3E780D50020A7
:1073B00011E30020D1D60020054B064800221A70A8
:1073C000054B08221A700121FA2212F09ABE00BF62
:1073D000D1D6002011E3002080D5002084B004AB7A
:1073E00003E90700094BBDF90A201A80084B9DF9F3
:1073F0000C201A70074B084800221A70074B012115
:10740000FA22197004B012F07CBE00BFB2D5002081
:10741000B4D50020D1D6002011E3002080D5002073
:10742000134B00221A70134B5B7A023B012B1DD9C0
:10743000114B90F906201A70104BB0F904201A80F5
:107440000F4A037813700F4A417811700E4A817801
:1074500011701BB10D4A1368013313600C4B0D48BA
:1074600004221A700121FA2212F04BBE704700BFAD
:10747000D1D6002004A30020B4D50020B2D500202E
:10748000B7D60020B5D60020B6D60020C4D600203E
:1074900080D5002011E300202DE9F0438E4D8F4E62
:1074A0008F4CDFF89482012700232F703370637AAA
:1074B000023BBB4285B000F241818A4806F013FBD3
:1074C000E37A002B00F0C280874A98F800301178E8
:1074D0009146002940F0A6807BB1844B1B7863B9AC
:1074E00004F08EFF637A022B0CBF81488148394635
:1074F00004F026FE804804F025FF04F051FA00B3A2
:107500007E4B1B781BB97E48012112F0DAFCB4F8DF
:107510008E0004F021F9002800F06E81714806F019
:10752000E5FA03906F4806F0E3FA01240246CDE93C
:10753000004403997348234612F0C2FB00286CD123
:107540005DE0714A117809BB704B1B7803F0FF07AF
:10755000E3B90123634889F8003006F0C4FA6C4BA4
:107560006C481F8041F288326368B3FBF2F36A4AC9
:1075700013806A4B1F706A4B40F6C4121F700321C0
:107580003B4605B0BDE8F04312F0BBBD00231370CD
:1075900098F800304BB1554B1B7833B961496248BC
:1075A0000FF0CDFC604804F0CDFE637A032B29D1A7
:1075B0005E4B4C481B6800221BB2114606F0D0F906
:1075C0004E4B1B781BB94E48012112F07AFCB4F8DF
:1075D0008E0004F0C1F8002800F00E81414806F04A
:1075E00085FA03903F4806F083FA01240246CDE96C
:1075F000004403994348234612F062FB60B92870A7
:1076000034700AE000230093B7EE000A1A461946C8
:10761000344806F0D9F8D3E72C70444A1368013394
:107620001360E9E0002B00F0E780304B1B78002B63
:1076300040F0E28004F0E4FE2D48394604F080FD7D
:107640003B4805B0BDE8F04304F07CBE98F800303C
:107650005BB1264B1B7843B904F0D2FE244839466F
:1076600004F06EFD334804F06DFE637A032B28D1DD
:107670002E4B1C481B6800221BB2114606F070F905
:107680001E4B1B781BB91E48012112F01AFCB4F8DE
:107690008E0004F061F8002800F0AE80114806F07A
:1076A00025FA03900F4806F023FA01230246CDE99C
:1076B00000330399134812F003FB0028ADD1287062
:1076C000ABE700230093B7EE000A1A4619460548B7
:1076D00006F07AF8D4E700BFD1D60020D8A3002066
:1076E00004A30020A4D50020ACD5002000D70020A2
:1076F000481307005813070069130700D0D600206D
:107700006CE3002049E30020A2D5002081D50020B1
:1077100020D7002011E3002022D7002050D70020DE
:1077200051D7002084130700B5D50020C8D600200B
:107730009A130700AE130700AED5002098F800306A
:1077400073B1374B93F80080B8F1000F08D104F003
:1077500057FE3448394604F0F3FC334B83F800807D
:10776000324806F0C0F9324812F0BAFB002846D081
:10777000304812F03FFB00283BD00121242013F0B9
:1077800052F82D4B1B78C3B12C4804F0DBFD2C4B79
:107790001B781BB92B48012112F093FBE37A9BB1B4
:1077A00004F0FEF820B9284A00231360274A13602A
:1077B0001E4806F09BF980B2ABE61B4B1B780BB161
:1077C0002348E2E72348E0E7B4F88E0003F0C4FF63
:1077D00090B10127CDE900771F4A94F88E101F4819
:1077E000022312F06DFA00287FF417AF287037706B
:1077F00013E701232870337005B0BDE8F083012141
:10780000232013F010F8134804F09CFD0123124AC2
:1078100094F88E10124812F0FEF901232B70FCE64A
:1078200000D70020BA130700A2D50020A4D500205D
:107830006DE3002054E3002081D50020CB13070026
:10784000D0D600206CE3002034D7002030D70020B1
:10785000DC130700EB13070010A3002049E300200E
:107860006EE30020000000002DE9F04F00218BB0F6
:107870009D4C0546242012F0D6FF0021232012F053
:10788000D2FF23788BB1994B1B7873B904F0B8FD04
:10789000974B5B7A022B40F0AC80964996480FF0EC
:1078A0004EFB9548012104F04BFC002D00F0FF80B9
:1078B0002A78012A40F06A81904B1B78002B31D046
:1078C0008F4B1B78002B00F0998005F03BFB8D4A15
:1078D0008D4B11881980917899701179D9705179EF
:1078E00019719179D27959719A710122DA718749A6
:1078F00000221A720968D9608549096819618549A9
:107900001A755A75098849B2D9758349097849B2F7
:1079100019765A839A83DA83804A126812B21A84DB
:1079200005F050FD2378002B00F0C1806F4B1C78D0
:10793000002C40F0BC807A496F480FF000FB6E4984
:1079400007A812F037FD07AA2146204604F074FD6F
:1079500007A812F0E9FC734B73491A6866480FF0E8
:10796000B7FA654907A812F025FD07AA21460120AC
:1079700004F062FD07A812F0D7FC6C4812F0E5F89D
:1079800048F098FF56A3D3E9002349F037F90B4696
:107990000246674958480FF09BFA574907A812F06A
:1079A00009FD07AA2146022004F046FD07A812F0AF
:1079B000BBFC604812F0DAF85F4902464E480FF00F
:1079C00087FA4D4907A812F0F5FC07AA21460320C3
:1079D00004F032FD07A812F0A7FC584812F0D7F8BF
:1079E000092879D8DFE800F00D66686A6C6E70725D
:1079F0007476032B0CBF524952494FE705F0C6FA83
:107A000065E7514905A80FF09AFA4C4812F0BFF803
:107A10004E4B4F4953F8202037480FF059FA36495A
:107A200007A812F0C7FC07AA4021032004F004FDB8
:107A300007A812F079FC474812F0BAF84649421DEF
:107A40002D480FF045FA2C4907A812F0B3FC07AAFD
:107A50004021022004F0F0FC07A812F065FC2D4B39
:107A60003E491A88244812B20FF032FA224907A878
:107A700012F0A0FC07AA0021042004F0DDFC07A8F6
:107A800012F052FC244B36491A7852B21A480FF0C1
:107A90001FFA194907A812F08DFC07AA40210420FB
:107AA00004F0CAFC07A812F03FFC04F0DFFC0BB0A6
:107AB000BDE8F08F2B49A5E72B49A3E72B49A1E7A8
:107AC0002B499FE72B499DE72B499BE72B4999E7DA
:107AD0002B4997E72B4995E72B4993E7AFF30080B4
:107AE0000000000080842E41AED5002000D7002089
:107AF00004A3002048130700B5D50020AFD500200F
:107B0000DCD90020D4D90020A4A1002030D7002047
:107B100034D70020B2D50020B4D50020C4D6002030
:107B2000FD130700C8D600200B14070079E30020DE
:107B30001F1407007AE30020361F07007BE30020B4
:107B400058130700BA130700261407007CA2002070
:107B50005C1407007CE300204F1F0700F5150700A9
:107B6000001607002A1407002E140700321407001D
:107B7000361407003B1407004114070047140700A0
:107B80004D14070053140700581407007E4B1B7850
:107B9000022B40F09E807D4B00221A707C4B1B789C
:107BA000002B2FD07B4B1B78002B64D005F0CAF93B
:107BB000794B7A4D1A882A809A78AA701A79EA70D5
:107BC0005A792A719A79DB796A71AB71744A75486E
:107BD0000023EB712B721268EA60734A12682A6103
:107BE0002B756B75EB752B766B83AB83EB836F4BD0
:107BF0001B681BB22B8412F011F940B285F82200E9
:107C000005F0E0FB2378002B3FF451AF684B1C7864
:107C1000002C7FF44CAF67496748684D0FF08FF92F
:107C2000654907A812F0C6FB07AA2146204604F0C2
:107C300003FC07A812F078FB2A6861495E480FF040
:107C400047F95D4907A812F0B5FB07AA21460220B3
:107C500004F0F2FB07A812F067FB2B68013B0F2B27
:107C600035D8DFE803F00B16181A1C1E2022242634
:107C7000282A2C2E303205F089F999E751494E48CF
:107C80000FF05DF94C4907A812F094FB07AA0021F8
:107C900005E74D49F3E74D49F1E74D49EFE74D4918
:107CA000EDE74D49EBE74D49E9E74D49E7E74D4938
:107CB000E5E74D49E3E74D49E1E74D49DFE74D4948
:107CC000DDE74D49DBE74D49D9E74D49D7E74D4958
:107CD000D5E7032A40F0A4802378002B3FF4E7AED9
:107CE000334B1E78002E7FF4E2AE474C657A022DAE
:107CF00041D0032D46D05DB9444907A812F05AFB84
:107D000007AA2946084604F097FB07A812F00CFBC7
:107D10004FF47A7362683E49B2FBF3F226480FF0E3
:107D2000D7F8254907A812F045FB07AA0021012032
:107D300004F082FB07A812F0F7FA364907A812F000
:107D400039FB002107AA022004F076FB07A812F0F5
:107D5000EBFA224918480FF0F2F8174907A812F079
:107D600029FB002107AA032004F066FB07A812F0F4
:107D7000DBFA284987E7284907A812F01BFB07AA66
:107D80003146BFE72549F7E780D50020D1D600204E
:107D9000AFD50020DCD90020D4D90020A4A1002038
:107DA00030D7002058E3002034D70020C4D600206C
:107DB00000D7002062140700B5D50020D4D60020DB
:107DC000711407007B14070089140700941407003E
:107DD000A0140700AC140700B6140700C014070075
:107DE000CC140700E0140700F31407000315070084
:107DF000101507001A1507002A1507003815070087
:107E0000441507005515070004A30020631507005B
:107E100097150700CBBD07007215070083150700F3
:107E2000042A40F0A281924B1B78002B3FD0914B4B
:107E30001B78002B00F0D68005F084F88E4B8F4D18
:107E40001A882A809A78AA701A79EA705A792A715F
:107E50009A79DB796A71AB71894A8A480023EB71A0
:107E60001278D2B22A72884A1268EA60874A126887
:107E70002A61874A118849B22975118849B2697502
:107E8000128852B2EA75834A127852B22A766B830C
:107E9000AB83814B1B78EB83804B1B681BB22B841D
:107EA00011F0BCFF40B285F8220005F08BFA237870
:107EB000002B3FF4FCAD7A4B1C78002C7FF4F7AD1F
:107EC000784D794B2978794A7948744FDFF80882E0
:107ED000002918BF1A4677490EF0FAFF744907A81F
:107EE00012F068FA07AA2146204604F0A5FA07A86E
:107EF00012F01AFA2B7803F0FF06002B75D1664BAF
:107F00006D491A786A480EF0E3FF694907A812F034
:107F100051FA07AA3146012004F08EFA07A812F0A0
:107F200003FA584811F07AFF6449024660480EF09F
:107F3000CFFF5F4907A812F03DFA07AA3146022099
:107F400004F07AFA07A812F0EFF94D4B5C491A7861
:107F500057480EF0BDFF564907A812F02BFA07AAA2
:107F60004021022004F068FA07A812F0DDF9D8F8E1
:107F7000002054494E480EF0ABFF4D4907A812F0BF
:107F800019FA07AA3146032004F056FA07A812F09E
:107F9000CBF93A684C4946480EF09AFF444907A885
:107FA00012F008FA07AA4021032004F045FA07A8B6
:107FB00012F0BAF9364B45491A883D4812B20EF014
:107FC00087FF3B4907A812F0F5F907AA31460420BC
:107FD00004F032FA07A812F0A7F92E4B3C491A78A0
:107FE00052B253E504F0D2FF28E7D8F80020354913
:107FF0002F480EF06DFF2E4907A812F0DBF907AAF3
:108000002146012004F018FA07A812F08DF93A6809
:108010002D4927480EF05CFF254907A812F0CAF940
:1080200007AA4021012004F007FA07A812F07CF902
:108030002A7828491E480EF04BFF1D4907A812F068
:10804000B9F907AA2146022004F0F6F907A812F0B0
:108050006BF92B78013B0F2B00F28580DFE803F0F2
:108060003E6567696B6D6F71737577797B7D7F8115
:10807000AFD50020DCD90020D4D90020A4A1002055
:10808000B6D6002058E3002030D7002034D7002097
:10809000B2D50020B4D50020B5D60020C4D600202B
:1080A00000D70020B7D60020F913070019170700E2
:1080B000B5D50020AB150700BC150700D01507008B
:1080C000D9150700E2150700EA150700F2150700A9
:1080D000FD15070007160700C8D600204549464889
:1080E0000EF02DFF444907A812F064F907AA0021F9
:1080F000032004F0A1F907A812F016F93F4811F087
:108100008DFE3F4902463C480EF0E2FE3A4907A880
:1081100012F050F907AA0021042004F08DF907A8F5
:1081200012F002F904F0A2F9BFE43649D7E7364964
:10813000D5E73649D3E73649D1E73649CFE736495F
:10814000CDE73649CBE73649C9E73649C7E736496F
:10815000C5E73649C3E73649C1E73649BFE736497F
:10816000BDE73649BBE73649B9E7052A7AD1237816
:10817000002B3FF49CAC334B1E78002E7FF497AC61
:10818000314C657A022D31D0032D31D05DB92F49A4
:1081900007A812F00FF90021084607AA04F04CF9CD
:1081A00007A812F0C1F84FF47A7362682849B2FB4D
:1081B000F3F211480EF08CFE0F4907A812F0FAF8FE
:1081C00007AA0021012004F037F907A812F0ACF843
:1081D000204907A812F0EEF8002107AA022004F0B7
:1081E0002BF907A812F0A0F81B49B3E51B49CFE70C
:1081F0001B49CDE77B140700B5D5002058E30020CC
:108200001C1607008914070094140700A014070027
:10821000AC140700B6140700C0140700CC14070004
:10822000E0140700F31407000315070010150700FA
:108230001A1507002A15070038150700441507000E
:108240005515070000D7002004A300206315070080
:1082500097150700CBBD070025160700721507000C
:1082600083150700062B40F0B782A04BA04ADE78AA
:108270001D7993F801809F7893F805901278C6EBEA
:10828000461106EB8106C5EB451105EB81059949C1
:108290000391487A76006D00032836B22DB240F083
:1082A0005781197893F807A008EB01281FFA88F87E
:1082B0000A21B8FBF1F107EE901A8F49F8EEE77A40
:1082C00038370AF1380AC1ED007A7FB24FEA29192E
:1082D0004FFA8AFA8B46002A3CD0884B1B78002B39
:1082E00000F0DB8004F02EFE854A864B1188198051
:1082F000917899701179D970517919719179D279F0
:1083000059719A710322DA715FFA89F21A727E4A00
:108310007E481268DA607E4A12681A6100217D4A3E
:1083200019755F7583F816A0128852B2DA757A4A09
:1083300012780FFA88F852B21A765E839D83D98339
:10834000A3F8208011F06AFD6E4B40B283F8220042
:1083500005F038F82378002B3FF4A9AB6F4B1C785D
:10836000002C7FF4A4AB04F04BF86D48DFF8DC81FF
:10837000012103F0E5FE684B6A491A78654B6A48AB
:108380001B8852B21BB20EF0A3FD674907A812F07A
:1083900011F807AA2146204604F04EF807A811F06C
:1083A000C3FF3B46524661495F480EF091FD5E496E
:1083B00007A811F0FFFF07AA2146012004F03CF8AE
:1083C00007A811F0B1FF4A46594957480EF080FD01
:1083D000554907A811F0EEFF07AA2146022004F034
:1083E0002BF807A811F0A0FF524907A811F0E2FFEF
:1083F00007AA3221022004F01FF807A811F094FF09
:108400004D4907A811F0D6FF07AA5021022004F019
:1084100013F807A811F088FF484907A811F0CAFF10
:1084200007AA2146032004F007F807A811F07CFFF3
:10843000039BDF7A002F33D0324641493A480EF091
:1084400047FD394907A811F0B5FF07AA32210320DB
:1084500003F0F2FF07A811F067FF2A4638493248B7
:108460000EF036FD304907A811F0A4FF07AA5021ED
:10847000032003F0E1FF07A811F056FFDBF800002E
:10848000D8F8005048F038FA009502460B462D49BE
:1084900025480EF01DFDFFF7F5BB04F077FD23E73F
:1084A000294921480EF04BFD1F4907A811F082FF12
:1084B00007AA3221032003F0BFFF07A811F034FF01
:1084C000194907A811F076FF07AA5021032003F0ED
:1084D000B3FF07A811F028FFDBF80000D8F8004030
:1084E00048F00AFA009402460B46D0E782D50020F5
:1084F000AFD5002004A30020CCD60020DCD900207A
:10850000D4D90020A4A1002030D7002058E30020B7
:1085100034D70020B2D50020B4D5002000D70020E9
:10852000581307003B160700B5D500205216070068
:108530006916070074160700781607007C160700F6
:10854000CD150700851607009A160700C8D600202B
:10855000A8F1C808C83F1FFA88F81FFA87FA002A4E
:108560003CD0874B1B78002B00F0F68004F0EAFC2F
:10857000844B854F1A883A809A78BA701A79FA70C3
:108580005A793A719A79DB797A71BB710223FB715E
:108590007E4B87F808901B68FB607D4B7D481B680D
:1085A0003B614FFA88F33B754FFA8AF37B757A4B40
:1085B0001B885BB2FB75794B1B785BB23B76002363
:1085C0007E83BD83FB83764B1B681BB23B8411F01B
:1085D00025FC40B287F8220004F0F4FE2378002B3B
:1085E0003FF465AA6F4B1C78002C7FF460AA03F05F
:1085F00007FF6D48012103F0A3FD684B6B491A7812
:10860000654B6B481B8852B21BB20EF061FC684987
:1086100007A811F0CFFE07AA2146204603F00CFF61
:1086200007A811F081FE4FFA89F262496048DFF82D
:1086300070910EF04DFC5E4907A811F0BBFE07AA31
:108640002146012003F0F8FE07A811F06DFE5A49FB
:1086500007A811F0AFFE07AA3221012003F0ECFEBB
:1086600007A811F061FE554907A811F0A3FE07AA5B
:108670005021012003F0E0FE07A811F055FE5049FB
:1086800007A811F097FE07AA2146022003F0D4FEA6
:1086900007A811F049FE4B4907A811F08BFE07AA65
:1086A0002146032003F0C8FE07A811F03DFE0FFA93
:1086B00088F245493E48DFF81C810EF009FC3C4930
:1086C00007A811F077FE07AA3221022003F0B4FEBA
:1086D00007A811F029FE0FFA8AF23B4934480EF040
:1086E000F7FB334907A811F065FE07AA32210320E2
:1086F00003F0A2FE07A811F017FE039BDF7A77B301
:10870000324631492A480EF0E3FB294907A811F007
:1087100051FE07AA5021022003F08EFE07A811F097
:1087200003FE294922482A460EF0D2FB204907A819
:1087300011F040FE07AA5021032003F07DFE07A898
:1087400011F0F2FDD9F80020D8F800301F49184880
:108750000EF0BEFBFFF796BA04F018FC08E71C49C0
:1087600013480EF0ECFB124907A811F023FE07AAEC
:108770005021022003F060FE07A811F0D5FDD5E7D7
:10878000DCD90020D4D90020A4A1002030D70020BB
:1087900034D7002058E30020B2D50020B4D5002003
:1087A000C4D6002000D70020481307003B1607005E
:1087B000B5D5002069160700066A07007C16070079
:1087C0007416070078160700CD1507009D160700E0
:1087D0009A160700C8D60020072B67D15E4B1B787E
:1087E000002B30D05D4B1B78002B58D004F0AAFB37
:1087F0005B4B5C4D1A882A809A78AA701A79EA70C5
:108800005A792A719A79DB796A71AB710223EB711B
:10881000554A564800232B721268EA60544A12687F
:108820002A612B756B75EB752B766B83AB83EB83B2
:10883000504B1B681BB22B8411F0F0FA40B285F844
:10884000220004F0BFFD2378002B3FF430A94A4BEF
:108850001B78002B7FF42BA9484C03F0D1FD627AE2
:10886000032A0CBF46484748012103F069FC4649EA
:1088700046480EF064FB454907A811F09BFD002116
:10888000084607AA03F0D8FD07A811F04DFD637A4A
:10889000032B3F4B06D13F4A10681C6820E604F0CA
:1088A00075FBA5E7334A12681B684FE7082B7FF476
:1088B000FEA8324B5D7A35B1012D29D0364B00220E
:1088C0001A70FFF7F4B803F09BFD3448012103F060
:1088D00037FC334907A811F06DFD002107AA0846AF
:1088E00003F0AAFD07A811F01FFD2E4927480EF03E
:1088F00026FB264907A811F05DFD07AA00210320E9
:1089000003F09AFD07A811F00FFD03F0AFFDD5E7C6
:108910002378002BD2D0184B1C78002CCED103F03A
:108920006FFD1E48294603F00BFC1F4907A811F0F4
:1089300041FD07AA2146204603F07EFD07A811F05D
:10894000F3FC184911480EF0FAFA104907A811F083
:1089500031FD07AA2146D2E7AFD50020DCD900209F
:10896000D4D90020A4A1002030D7002058E3002053
:1089700034D70020C4D6002000D7002004A3002054
:108980004813070058130700B1160700B5D500209B
:10899000C8D60020CCD60020D1D60020BA130700BC
:1089A00063150700C6160700FD13070010B504463F
:1089B00005F092F8204610BD0F4BB0B100221A709E
:1089C0000E4B0F4A18600F4B11685B7A023B012B6C
:1089D00001F101010C4B116094BF072202221A70B1
:1089E0000A48FA22012111F08CBB1B7813B1064B07
:1089F0000822F4E7704700BFD1D60020D4D600206B
:108A0000C4D6002004A3002080D5002011E300205C
:108A100010B5134BB0F90A201A80124B90F90C20B4
:108A20001A70114B42781A70104B00221A7003789A
:108A3000022B14D10E4B5B7A023B012B0FD80D4C4D
:108A4000027A41680C48062323700DF0D3FC2346BC
:108A50000A48BDE81040FA22012111F052BB10BDB6
:108A6000B2D50020B4D50020B0D50020D1D600204A
:108A700004A3002080D5002082D5002011E300202F
:108A8000F0B5254D297899B0002942D101231A2249
:108A900008A82B7007910DF0BBFC05A82AF082F8FE
:108AA00005981E4C00F5E0400FA96E302AF0EEF854
:108AB000149B1B4903F26C730393129B0293139B49
:108AC000013301930F9B009307A8DDE910320EF0EC
:108AD000FFF9149813999DF848209DF844309DF8AB
:108AE00040609DF83C70227100F26C70013180B2E0
:108AF000C9B22080A1706371A671E771094C247816
:108B00003CB10224CDE900672C7004F0D5F904F0E3
:108B100019FA19B0F0BD00BFD0D60020D4D900207A
:108B2000D2160700DCD9002030B54FF080432DED80
:108B3000028BD3F83834032B83B027D01448144D5C
:108B400011F0AAFA0A24B0EE408A284611F0A4FADD
:108B5000013C38EE008AF8D1B2EE067AC8EE077A08
:108B60009FED0C7ADFED0C6A67EE877A9FED0B7A4A
:108B700067EE877A87EEA67AFCEEC77ACDED017AAA
:108B80009DF8040003B0BDEC028B30BD0020F9E776
:108B90000DE3002000007A440040834500007F433D
:108BA00008B5064B1B783BB111F049FEBDE8084003
:108BB00001460348FEF7B8BB08BD00BF01D700203F
:108BC000B8D600201E4B07B501221E481A7011F0BE
:108BD0003AF818B11C48002110F0FFFF1B4811F0B3
:108BE00083F91B491B4811F091F81B49194811F0F2
:108BF0009DF81A49174811F091F81949154811F0D4
:108C00009DF81849134811F0A1F80021164811F0F9
:108C1000DBF80221154811F045F9322301220093B7
:108C200011460A230B4811F030F8114BD97A01B1E3
:108C30000121222003B05DF804EB11F0F4BD00BF68
:108C4000A1A1002084E300206EE300206DE300205A
:108C5000118A020049E30020B98902008D730200E5
:108C600021740200818A020051E300206BE300209E
:108C700004A3002008B50F4B0F480021197010F015
:108C8000ACFF0E4810F0E3FF0D490B4810F0ECFF6D
:108C90000C49094810F0F0FF4FF6FD71064810F03E
:108CA0009CFF094BD97A01B10121BDE8084022207F
:108CB00011F0B9BDA1A100206EE3002084E30020E3
:108CC000DD730200B973020004A300201F4B07B537
:108CD00001221F481A7010F0B6FF18B11D4800217C
:108CE00010F07BFF1C4811F0FFF81C491C4811F0E4
:108CF0000DF81C491A4811F019F81B49184811F0D1
:108D00000DF81A49164811F019F81949144811F0CC
:108D10001DF80021174811F057F80021164811F0EE
:108D2000C1F83223012200930D480A23114610F0A6
:108D3000ACFF124BDB7A33B10121222003B05DF886
:108D400004EB11F070BD03B05DF804FBA1A100209D
:108D500084E300206EE300206DE30020118A02000E
:108D600049E30020B98902008D73020021740200DA
:108D7000818A020051E300206BE3002004A300205D
:108D800010B50B4C00212046FEF794FA2046094C02
:108D9000094A0A490DF0C0FAFF21204604F090FE6E
:108DA0002046054A0649BDE810400DF0B5BA00BF9F
:108DB000B8D60020A4D5002090A10020BF720200E8
:108DC000AD8902002DE9F04F012187B0222011F07A
:108DD00013FD0121232011F00FFD0121242011F0AA
:108DE0000BFDAA48AA4E11F08FFB03F075F9307005
:108DF00068B1A849A8480EF0A2F8A748012103F0DD
:108E00009FF9A64803F09EFAA54803F09BFA0021BB
:108E1000222011F008FD0223A24806224FF4E1317E
:108E200010F020FE4FF08043D3F83834032B6FD17D
:108E30004FF4FA601BF0E4FA0623022203AC9A49CD
:108E400000939548994D9A4F00230EF041F89249AE
:108E5000204611F0AFFA2146964811F0F1F820466D
:108E600011F062FA0121232011F0DDFC0021232002
:108E700011F0D9FC0021242011F0D5FC02F02CFACD
:108E800002F014FA02F08EF902F0A2F902F0B6F93B
:108E900002F038FA02F0E2FB00F036FA002000F0AF
:108EA00055F96B7A023B012B59D8012002F082FC64
:108EB00038703B7813B1804803F044FA03F05CFF4C
:108EC0007E4F387060B104F03DF894E8030029F05B
:108ED00048FE02F0BFF93B7813B1794803F032FA4B
:108EE00004F0A0F8774F387048B104F08BF938706F
:108EF00002F09AF93B7813B1734803F023FA02F0B9
:108F0000BFF96B7A032B2ED8DFE803F051A7B0BD71
:108F100011F095FCDFF88CA107464FF0000B41F2F1
:108F200087384FF00009504610F081FD002883D1AA
:108F300011F085FCC41B6BEB4B05A04579EB0503D9
:108F4000FFF67AAF64201BF05BFA232011F070FC6F
:108F5000B0FA80F14909232011F065FCE3E7E87AD3
:108F60000028A2D1A2E733780BB358494A480DF044
:108F7000E6FF4949204611F01DFA00212246084625
:108F800003F05AFA204611F0CFF9514942480DF04A
:108F9000D6FF4149204611F00DFA2246002101205A
:108FA00003F04AFA204611F0BFF903F05FFA49488E
:108FB00003F0C8F9484810F01DFF10B9474803F006
:108FC000C1F9FFF7FFFD4FF47A7345496A683248EB
:108FD000B2FBF3F20DF07CFF2F4803F0B3F9414AE6
:108FE00041480123002111F082F86A6822B1002370
:108FF0003D48194611F085F83C4A3B4800230121C1
:1090000011F075F800233A4A3748022111F06FF841
:10901000AB7A33B1344800234EF66022022111F0BE
:1090200070F80123334A3048032111F060F8324BC5
:109030001B785BB1284810F0DDFE38B932230122DD
:1090400000932E480A23114610F01FFE01212C48E0
:1090500011F0C9FB07B0BDE8F08FFFF70BFE294800
:1090600003F070F9284803F06DF9ACE7274803F0E6
:1090700069F9194810F0BEFE10B9184803F062F9FA
:10908000FFF724FE9FE72248F1E700BF8CE30020B2
:10909000AED50020BA130700B5D50020F41607009E
:1090A0000117070030E20020781A070004A300200F
:1090B000ADD50020B8E200200D170700DCD9002054
:1090C00015170700AFD500201C170700271707004A
:1090D000391707006315070054E3002049170700FC
:1090E000971507009974020011E3002069780200C7
:1090F000C1C40200BDBC0200A1A1002049E30020C0
:10910000A9E2002002140700571707007215070094
:10911000831507007047000008B5054804F04AFEB3
:10912000034804F066FEBDE80840014804F080BE34
:10913000D8D6002007B531220DF10701024804F00E
:1091400081FE03B05DF804FBD8D6002073B5002182
:109150000446112011F050FB524811F0D5F9524B42
:10916000002C00F0848000229A800A22DA804FF4DA
:1091700081721A8140F201125A814B4804F0F2FECA
:109180000546002840F08B80002C38D02A22302160
:1091900045488DF80720012604F0FEFC0822322104
:1091A00041488DF8072004F0F7FC324633213E4851
:1091B0008DF8076004F0F0FC24220DF107013A4815
:1091C00004F040FE9DF80720374822F00C0242F0E0
:1091D000080224218DF8072004F0DEFC6022222101
:1091E00031488DF8072004F0D7FC2A4625212E4867
:1091F00004F0D2FC2C483246212104F0CDFC00259D
:1092000020220DF1070128488DF8075004F01AFEBE
:109210009DF80720244842F0080220218DF80720FD
:1092200004F0BAFC64201BF0EBF81E220DF10701DC
:109230001D488DF8075004F005FE9DF807201A48D8
:1092400042F090021E218DF8072004F0A5FC642056
:109250001BF0D6F88CB1FFF76DFF144904221120E2
:1092600010F0C4FBFFF758FF204602B070BD022289
:109270009C80DC801A815C817FE720220DF1070150
:10928000094804F0DFFD9DF80720074802F040027E
:1092900020218DF80720012404F07EFCE4E700245F
:1092A000E2E700BF8CE30020D8D600201591020031
:1092B00002481822002104F029BC00BFD8D60020A3
:1092C000D0B511F0BCFA0D4C0D4B0021C3E90001E3
:1092D00011F0B5FAD4E90032C61A62EB4207C92E82
:1092E00077F1000309DB11F0AAFA064A2060002397
:1092F000636013780133DBB21370D0BDF0D6002069
:10930000F8D6002001D7002008B50221092011F06D
:1093100073FA06490322092010F068FB0449054846
:1093200001236422FDF7DEFF012008BDC192020087
:109330001D990200B8D600202DE9F04FC74D91B01D
:1093400011F07DFAD5E900230024811A64EB0303B0
:1093500000910193DDE9002340F6B83000219042EE
:1093600071EB0303A346A246A146A0462746264624
:1093700077DB11F064FAD5E90023811A63EB43032C
:1093800002910393DDE90223B2F5C87F73F1000374
:1093900073DA11F054FAD5E90023811A63EB430321
:1093A00004910593DDE90434B3F5C87F74F100033B
:1093B00080F2858011F043FAD5E90023811A63EB2E
:1093C000430306910793DDE90634B3F5167F74F184
:1093D000000380F2998011F032FAD5E90023811A56
:1093E00063EB430308910993DDE90834B3F5487F43
:1093F00074F1000380F2AE8011F021FAD5E9002368
:10940000811A63EB43030A910B93DDE90A34B3F548
:10941000966F74F1000380F2C08011F010FAD5E964
:109420000023811A63EB43030C910D93DDE90C34A7
:10943000B3F5AF6F74F1000380F2D28011F0FFF941
:10944000D5E90023811A63EB43030E910F93DDE905
:109450000E34B3F5C86F74F1000380F2E280082483
:1094600074E0092011F0E4F9002882D17C4B1B78CC
:10947000002B3FF47EAF022468E0794B1B78012B70
:1094800087D1092011F0D4F9012882D10023C82CFA
:1094900010D00920009311F0CBF9009B012804BFE4
:1094A0000133DBB2012001340093E4B21AF0A8FFCB
:1094B000009BECE7C62B7FF66CAF002446E0684BC0
:1094C0001B78022B7FF476AF092011F0B1F9012847
:1094D0007FF470AF0024BBF1C80F10D0092011F049
:1094E000A7F9012808BF01344FF001000BF1010B6F
:1094F00008BFE4B25FFA8BFB1AF082FFEBE7C62CE1
:109500007FF658AF012421E0554B1B78032BDCB2CA
:109510007FF461AF4FF0000BBAF1C80F12D00920F1
:1095200011F086F9012808BF0BF1010B4FF0010083
:109530000AF1010A08BF5FFA8BFB5FFA8AFA1AF098
:109540005FFFE9E7BBF1C60F7FF645AF204611B0DC
:10955000BDE8F08F424B1B78042BDCB27FF44CAF9C
:109560004FF0000AB9F1C80F12D0092011F060F9CC
:10957000012808BF0AF1010A4FF0010009F10109B1
:1095800008BF5FFA8AFA5FFA89F91AF039FFE9E74A
:10959000BAF1C60F7FF630AFD8E7314B1B78052BF9
:1095A000DCB27FF43AAF4FF00009B8F1C80F12D027
:1095B000092011F03DF9012808BF09F101094FF018
:1095C000010008F1010808BF5FFA89F95FFA88F81D
:1095D0001AF016FFE9E7B9F1C60F7FF61EAFB5E73F
:1095E0001F4B1B78062BDCB27FF428AF4FF000082E
:1095F000C82F11D0092011F01BF9012808BF08F16C
:1096000001084FF0010007F1010708BF5FFA88F871
:10961000FFB21AF0F5FEEBE7B8F1C60F7FF60EAF1A
:1096200094E70F4B1B78072BDCB27FF418AF0025B3
:10963000C82E0FD0092011F0FBF8012808BF013512
:109640004FF0010006F1010608BFEDB2F6B21AF0C4
:10965000D7FEEDE7C62D7FF602AF77E7F8D60020FC
:1096600001D7002073B58B4D8B4C6A7A637A9A428E
:1096700031D002F0C5FE0021884802F061FD6B6820
:1096800063606B7A864863726B89638102F05AFE6D
:10969000844802F057FE02F0E9FE01F059FE40F660
:1096A000B8301AF0ADFE637A7F48012B4FF000010D
:1096B0004FF0320640F0998010F08FFA00227B487C
:1096C00000960A23114610F0E0FA794810F0BFFA2C
:1096D000784810F0DFFCEA7AE37A9A4207D06B7A96
:1096E000023B012B94BF0120002002F063F86A685E
:1096F00063689A4203D16A8963899A4213D002F05F
:109700007FFE674802F01EFE664802F01BFE02F074
:10971000ADFE6B6863606B89638101F019FE40F6F2
:10972000B8301AF06DFE644810F0DAFB002869D0FA
:10973000624810F061FB624B1978884205D000390D
:109740005E4818BF012110F059FB5E4810F066FB1F
:109750005D4B1978884202D05A4810F061FB5B4893
:1097600010F06EFB5A4B1978884202D0574810F01F
:1097700069FB584D58482E7810F074FB86420BD088
:109780002978554810F07AFB32230122009347488C
:109790000A23114610F079FA02F032FE637A012BA7
:1097A00071D06CD9023B012B6FD94FF47A73626888
:1097B0004A49B2FBF3F24A480DF08AFB484802F0EE
:1097C000C1FD626822B100234648194610F099FC99
:1097D000A37A002B5BD0434800234EF6602202217F
:1097E00002B0BDE8704010F08CBC10F0F6F9012218
:1097F00000960A2311462D4810F047FA2E4810F023
:1098000073FB65E7384D3948296810F0A0F93748EF
:1098100010F09BF92968884202D0344810F097F97B
:10982000334810F0A3F9334B1978884202D03048FE
:1098300010F09EF9304D31482E7810F0A8F986428C
:1098400003D029782D4810F0A4F92D4810F0B0F974
:109850002C4B1978884202D0294810F0ABF92A48DD
:1098600010F0B9F9294B1978884202D0264810F037
:10987000C3F94FF6FD710C4810F0AFF98CE724489E
:1098800002F060FD91E72348FAE72348F8E702B0C9
:1098900070BD00BFD0A1002004A300206517070001
:1098A0006C1707007C1707006EE3002049E30020D7
:1098B00084E30020A8E200206DE3002055E30020AF
:1098C00003D7002058E3002005D7002060E30020E4
:1098D00006D7002004D700206AE300209715070070
:1098E000B5D5002011E3002010D7002079E3002037
:1098F0007AE3002014D700200BD700207BE3002060
:109900007CE300200CD700207EE3002015D7002048
:109910006315070002140700831507002DE9F04FB7
:1099200087B0FFF709FD072800F2CC81DFE810F0CF
:10993000B40442030800CD01B00053002D001A000A
:10994000914B00201870914B00240025C3E900457D
:109950008F4B1B7823B107B0BDE8F04F02F08EBDEE
:109960000120F8E7884B00221A70884B0020002164
:10997000C3E90001874B1C783CB902F041FD8648E1
:10998000214602F0DDFB1AF052FD7F4B00221A70D7
:109990007E4B00200021C3E900017E4B1C7874B18E
:1099A0007E4B1A78052A40F08D8110221A707C4B6C
:1099B000D97A01919B7A00937A4B1B785BE002F095
:1099C0001FFD7948214602F0BBFB784807B0BDE88F
:1099D000F04F10F05FBB6C4B00221A706B4B0020F5
:1099E0000021C3E900016B4B1B78002B00F06A815A
:1099F0006A4C2378052B00F26581DFE813F006003E
:109A000063016301220030004000694810F068FAE9
:109A10000128634B0AD104222270D97A01919B7AE2
:109A20006449009309786448FF2315E005222270F9
:109A3000D97A01919B7A6149009309786048FF23A4
:109A40000AE0574B0322D97A5A7201919B7A00930C
:109A500005235C495C48097802F036FD32E10723B2
:109A60005A48237010F0FEF94D4AD37A0193937A45
:109A70000093C3B22278564956480978ECE7484B20
:109A80000E22D97A227001919B7A0093524B94E76F
:109A90003D4B00221A703D4B00200021C3E900011C
:109AA0003C4B1B78002B00F0A5803C4C2378062B08
:109AB00000F20881DFE813F007001703120020000E
:109AC0002A0057006000364903224B7AC87A227078
:109AD0000190897A00910233DBB2BAE7304A937A77
:109AE00083F001039372D27A019200930222FF2342
:109AF0003A493B480978AFE7294B02225A72DA7A91
:109B000001929B7A009304230322A2E70A232F48A1
:109B1000237010F0A7F9C0B20C280ED8DFE800F0CF
:109B20000717171D171D1D17171717171D002D4B8A
:109B300000221A702C4B05221A70194A2B4BD17A2D
:109B40001B780191927A00920A33DBB292E7254B9F
:109B500000221A70244B0722EEE7224B00221A70D3
:109B6000214B0A22E8E70E4B0D22D97A227001918F
:109B70009B7A00931E4B20E7094BDA7A01929B7A7D
:109B8000009300233AE100BF01D70020F8D600205F
:109B90004CA5002000D700208D17070002D7002019
:109BA000D0A1002015D7002098170700A8E20020B8
:109BB0006DE30020B8A20020A4A20020E8A20020AB
:109BC000D0A2002078A2002064A200206AE3002036
:109BD000CCA10020C8A100200CD70020CCA20020DE
:109BE000BCA200200AD7002008D7002005D70020FB
:109BF0000BD700209E4810F073F9012862D19D4DCB
:109C00006A7A012A5ED09C4E3278002A5AD19B4C47
:109C10009B4B20701B7804940BB902F02FFC0021A1
:109C20009848DFF86CB210F076FA974810F01AF9FD
:109C3000964B53F820309648039310F0EFF84FF00E
:109C4000000A0746039B33F81A2042B35FFA8AF1F1
:109C5000584610F0E5F864201AF0D2FB0020FDF71A
:109C60001BFC10F0ECFD02463078059298B14FF4E1
:109C70007A701AF0C5FB10F0E2FD059A42F21073FB
:109C8000B0EB02084FF0000161EB010900244345ED
:109C900074EB0903E8DA4FF4FA601AF0B1FB0AF149
:109CA000010ABAF1100FCDD17948394610F0B8F851
:109CB0006A6822B100237348194610F022FA049A08
:109CC0000023137007B0BDE8F08F724B00221A70AA
:109CD000714B00240025C3E90045704B1B78002B15
:109CE00000F041816E4C2278102AEBD801A353F882
:109CF00022F000BF399D0200E7A002004B9D020048
:109D00005B9D02006D9D0200C99D0200DB9D02006B
:109D1000019E0200C59C02001F9E0200459E02009B
:109D2000C99E0200ED9E02000D9F02002B9F0200C3
:109D3000C59C0200479F020002222270594BD97A2B
:109D400001919B7A0093FF23D2E6564AD37A83F09F
:109D50000103D3720193937AC7E6524B01225A72E0
:109D6000DA7A01929B7A00930323CDE609234648D1
:109D7000237010F077F8C0B20C2814D8DFE800F098
:109D800007070707070D1B07212121211B00464B51
:109D900000221A70454B052204E0434B00221A7042
:109DA000424B04221A703F4BDA7A01929B7A00935D
:109DB0003F4B1B785EE63C4B00221A703B4B062261
:109DC000F0E7394B0222E4E7364B0C22D97A2270B5
:109DD00001919B7A0093374BEFE5324B5A6842B1C1
:109DE00042F20F718A428ABFA2F51C520022103A39
:109DF0005A60DA7A01929B7A0093FF2306223AE6B0
:109E00002D4A137813B1013BDBB200E00C23137031
:109E1000244AD17A0191927A009207222BE6244AB1
:109E2000214913780978994209D1204B1B78137086
:109E30001C4AD17A0191927A009209221BE6013BD9
:109E4000DBB2F4E71D4A1E491378097899420BBF2B
:109E50001C4B03F1FF331B78DBB21370114BDA7A22
:109E600001929B7A0093124B1B780A2203E600BFF3
:109E70006DE3002004A30020D1D6002081D500206E
:109E80004CA5002011E300206AE30020FCA4002080
:109E900058E3002001D70020F8D6002000D700208A
:109EA00002D70020D0A1002009D7002007D700202A
:109EB00005D7002014D7002004D7002006D70020A3
:109EC0000AD7002008D70020A34AA4491368A3F5A5
:109ED000C333A03B8B4298BFA14B1360A14BDA7AEE
:109EE00001929B7A00930B22FF23C4E59E490B78D5
:109EF000062B1CBF03F1FF33DAB29A4B0A70D97AF2
:109F000001919B7A009313460C22B4E5974A13788B
:109F100013B1013BDBB200E009231370914AD17AFF
:109F20000191927A00920D22A5E5914A117809B12A
:109F3000481EC0B210708B4AD37A0193937A009373
:109F400003460E2297E58B4A1378052B02D0013B7E
:109F5000DBB200E016231370824AD17A0191927A23
:109F60000092102287E584480FF0BAFF01287FF4A1
:109F7000A9AE824B1B78002B7FF4A4AE804B1B78DC
:109F80000BB902F07BFA00217E4810F0C4F87E4B3A
:109F9000012200201A70FDF77FFA7C4B5A68002AD4
:109FA0003FF490AE00237748194607B0BDE8F04F64
:109FB00010F0A7B8764B774D774C00221A70774B8C
:109FC00000210020C3E900012978002959D16D48FA
:109FD00010F0A1F801216B4810F09DF869480221AA
:109FE00010F099F8664B1B7813B9012002F046FA7D
:109FF0000123664A2B70002323705A4B5168596025
:10A00000517A52895C485A8159720FF069FF0146B2
:10A01000D8B163480FF002FF624B187062480FF02E
:10A0200021FF624B187062480FF0E6FE614B18701A
:10A0300061480FF005FF614B18700023CDE9003334
:10A0400022785F495F48097806E55F480FF0C5FD53
:10A050005E480FF07AFD404B18605D480FF086FDBA
:10A06000414B18705B480FF092FD404B18705A48F6
:10A070000FF09EFD3E4B187058480FF0ACFD3D4B65
:10A08000DAE72378102B3FF61DAE01A252F823F039
:10A09000D5A00200E7A00200F9A00200FDA0020086
:10A0A0000FA1020027A1020085A202002BA102003D
:10A0B0003BA10200E1A10200F5A1020017A20200EB
:10A0C0002DA2020049A2020059A20200C59C020072
:10A0D00075A202000122234B2270D97A01919B7A4A
:10A0E0000093FF23C7E4002222701E4BD97A01910E
:10A0F0009B7A0093FF23A4E70622ECE7194B00228A
:10A100005A72DA7A01929B7A00930223FCE4154991
:10A11000284BC87A1B78082222700190897A009116
:10A120000A33DBB2A7E40B22D5E7204A13780C2BC5
:10A1300001D0013368E6002369E61E4A1378B3FABA
:10A1400083F35B091370074AD17A0191927A0092E6
:10A150000A3308228FE400BF10D700207F47A119DF
:10A160008047A119D0A1002014D700200BD70020D0
:10A170000CD7002015D700206DE30020D1D6002099
:10A180004CA5002011E30020A2D5002004A300204C
:10A1900001D7002000D7002002D70020F8D60020E9
:10A1A00058E3002005D700206AE3002004D70020F0
:10A1B00055E3002003D7002060E3002006D70020ED
:10A1C00000A30020ECA200206EE3002079E3002031
:10A1D0007AE300207BE300207CE300207EE3002084
:10A1E000554A564913780978994201D1544B1DE6D6
:10A1F000013325E6534A54491378097899420BBF35
:10A20000524B01331B78DBB21370514AD17A019162
:10A21000927A009229E64F4A4F49136803F5C333F7
:10A22000A0338B4294BF1360116057E64B4A1378FA
:10A230000C2B1ABF0133DBB206231370444AD17AC8
:10A240000191927A00925FE6454A1378092B01D07A
:10A2500001335FE6002360E6424A1378032B1ABFFE
:10A260000133DBB200231370394AD17A0191927A1B
:10A27000009266E63C4A1378162B01D0013367E65C
:10A28000052368E6324A536803F51C5310335360C4
:10A29000D37A0193937A73E4344B00221A70344BCF
:10A2A000344A00210020C3E90001117800293FF45D
:10A2B00009AD314B197810293FF604AD01A050F8D3
:10A2C00021F000BF09A3020017A3020017A3020098
:10A2D00017A3020017A3020017A3020031A3020074
:10A2E0001DA302001DA302001DA302001DA3020066
:10A2F00027A3020027A3020027A3020027A302002E
:10A30000C59C020027A302000023137007B0BDE81C
:10A31000F04FFFF7A7B900221A70E6E604221A7080
:10A320000B4BFFF77ABB05221A70094BFFF780BB76
:10A3300002221A7002E500BF05D7002007D70020CF
:10A3400009D7002006D7002008D700200AD7002010
:10A35000D0A1002010D700200070383914D7002079
:10A360000BD700200CD7002015D7002001D70020E4
:10A37000F8D6002000D7002002D70020024B01228F
:10A380001A700920704700BF16D7002070B598B02A
:10A3900014460A490EA810F00DF80023CDE9143335
:10A3A000CDE91633636E012B0CD1054920680CF002
:10A3B000BCFD48B1022400F0EDBC00BF5A590700B3
:10A3C000DE780700002BF5D1B649B748B74CB84D39
:10A3D000B84E10F075F9B849B34810F071F9B149A9
:10A3E000B64810F06DF9B449B44810F069F964202A
:10A3F0001AF006F8637AB24955F82320AA4810F0FB
:10A400005FF9AD49A84810F05BF9637AAC4955F89B
:10A410002320AA4810F054F9A749A84810F050F991
:10A42000642019F0EDFFA74911A80FF013FE11A940
:10A430000EA80FF0D2FF11A80FF076FF0EA810F0B3
:10A440000FF80E9AA049984810F03AF99A499648A0
:10A4500010F036F90E9A9C49984810F031F9964957
:10A46000964810F02DF9642019F0CAFF974911A8F9
:10A470000FF0D0FD119A96498B4810F021F911A8E0
:10A480000FF052FF8C49884810F01AF98F4911A833
:10A490000FF0C0FD119A8E49884810F011F911A8EB
:10A4A0000FF042FF8449854810F00AF9642019F042
:10A4B000A7FF4FF47A7562688649B2FBF5F27A48D5
:10A4C00010F0FEF87C49784810F0FAF8626881498B
:10A4D000B2FBF5F2794810F0F3F87749774810F0BD
:10A4E000EFF8642019F08CFF7B480FF0F9FC7B49F2
:10A4F00056F8202005466C4810F0E2F86E496A488C
:10A5000010F0DEF856F8252074496C4810F0D8F8A1
:10A5100069496A4810F0D4F8642019F071FF012DE0
:10A5200040F04E836E486F4E6F4D0FF063FC6F49E5
:10A53000002814BF32462A465B4810F0C1F85E4935
:10A54000594810F0BDF866480FF054FC67490028E0
:10A5500014BF32462A465948654E10F0B1F85649A4
:10A56000564810F0ADF8642019F04AFF61480FF02A
:10A5700079FC6149054602464B4810F0A1F84E4966
:10A58000494810F09DF82A465B494C4810F098F86D
:10A5900049494A4810F094F8642019F031FF56F800
:10A5A00025205649404810F08BF843493E4810F0AA
:10A5B00087F856F825205149404810F081F83E4967
:10A5C0003E4810F07DF8642019F01AFF4C480FF057
:10A5D0000AFC002800F0BE814A49334810F070F8A8
:10A5E0003549314810F06CF84649344810F068F8A5
:10A5F0003149324810F064F8642019F001FF082254
:10A6000014A941480FF0CEFB9DF8573005939DF8F3
:10A61000563004939DF8553003939DF854300293BF
:10A620009DF8533001939DF852309DF850203749E2
:10A6300000931D489DF8513010F042F81E491A4809
:10A6400010F03EF89DF8573005939DF8563004936E
:10A650009DF8553003939DF8543002939DF8533084
:10A6600001939DF852309DF85020284900931348DB
:10A670009DF8513010F024F80F49104810F020F8E0
:10A68000642019F0BDFE082214A921480FF066FBD2
:10A690009DF8573005939DF8563004939DF855303A
:10A6A00038E000BF0818070030E2002004A30020B3
:10A6B00070A40020CCA300205859070094E2002089
:10A6C00017180700E8E2002025180700ACE2002078
:10A6D000F1460700301807006DE30020401807001E
:10A6E00054E300204D560700FA17070050180700E2
:10A6F00098A300206AE300205B1807006618070093
:10A7000053E30020711807004EE300207B18070078
:10A710004AE3002003939DF8543002939DF8533090
:10A7200001939DF852309DF850207D4900937D485B
:10A730009DF851300FF0C4FF7B497A480FF0C0FFFD
:10A740009DF8573005939DF8563004939DF8553089
:10A7500003939DF8543002939DF8533001939DF874
:10A7600052309DF850206E49009370489DF851304A
:10A770000FF0A6FF6C496D480FF0A2FF642019F09E
:10A780003FFE102214A96A480FF0F1FA9DF85F30DD
:10A790000D939DF85E300C939DF85D300B939DF802
:10A7A0005C300A939DF85B3009939DF85A3008930A
:10A7B0009DF8593007939DF8583006939DF857300F
:10A7C00005939DF8563004939DF8553003939DF8FA
:10A7D000543002939DF8533001939DF852309DF808
:10A7E0005020544900934F489DF851300FF068FFB6
:10A7F0004D494C480FF064FF9DF85F300D939DF874
:10A800005E300C939DF85D300B939DF85C300A939D
:10A810009DF85B3009939DF85A3008939DF85930A4
:10A8200007939DF8583006939DF8573005939DF88F
:10A83000563004939DF8553003939DF8543002939D
:10A840009DF8533001939DF8523000939DF85020AD
:10A850009DF85130374935480FF032FF32493348BF
:10A86000354E364D0FF02CFF642019F0C9FD3449E8
:10A870002C480FF025FF2C492A480FF021FF3049C2
:10A880002A480FF01DFF284928480FF019FF6420BF
:10A8900019F0B6FD627A2B4922480FF011FF2249C8
:10A8A00020480FF00DFF627A264920480FF008FF7C
:10A8B0001D491E480FF004FF642019F0A1FDA27A83
:10A8C00021491848002A14BF32462A460FF0F8FEE4
:10A8D000154914480FF0F4FEA27A1B491348002AC8
:10A8E00014BF32462A460FF0EBFE0F490F48174EB1
:10A8F0000FF0E6FE642019F083FD15481AF098F871
:10A900000025B4F88E20EBB2934205F1010580F2E8
:10A910003D8223443046197B1AF08AF8F1E700BFE4
:10A92000A318070030E200205859070094E20020E5
:10A930004BE30020CB180700051807008917070014
:10A940002C1A07003C1A07004A1A0700939A0700BE
:10A950005B1A0700904991480FF0B2FE90498F486A
:10A960000FF0AEFE8C498F480FF0AAFE8C498D483F
:10A970000FF0A6FE642019F043FD14A910228A48A6
:10A980000FF0FEF99DF85F300D939DF85E300C934B
:10A990009DF85D300B939DF85C300A939DF85B3019
:10A9A00009939DF85A3008939DF8593007939DF804
:10A9B000583006939DF8573005939DF85630049310
:10A9C0009DF8553003939DF8543002939DF8533011
:10A9D00001939DF852309DF85020009373499DF8E3
:10A9E00051306E480FF06CFE6D496C480FF068FEF8
:10A9F0009DF85F300D939DF85E300C939DF85D30AF
:10AA00000B939DF85C300A939DF85B3009939DF899
:10AA10005A3008939DF8593007939DF858300693A3
:10AA20009DF8573005939DF8563004939DF85530A6
:10AA300003939DF8543002939DF8533001939DF891
:10AA400052309DF85020009358499DF85130554898
:10AA50000FF036FE524953480FF032FE642019F0D1
:10AA6000CFFC14A9102252480FF0A5F99DF85F30D1
:10AA70000D939DF85E300C939DF85D300B939DF81F
:10AA80005C300A939DF85B3009939DF85A30089327
:10AA90009DF8593007939DF8583006939DF857302C
:10AAA00005939DF8563004939DF8553003939DF817
:10AAB000543002939DF8533001939DF852309DF825
:10AAC000502000933B499DF8513034480FF0F8FD79
:10AAD000334932480FF0F4FD9DF85F300D939DF837
:10AAE0005E300C939DF85D300B939DF85C300A93BB
:10AAF0009DF85B3009939DF85A3008939DF85930C2
:10AB000007939DF8583006939DF8573005939DF8AC
:10AB1000563004939DF8553003939DF854300293BA
:10AB20009DF8533001939DF852309DF850200093CA
:10AB300020499DF851301B480FF0C2FD18491948B3
:10AB40000FF0BEFD642019F05BFC14A904221A4822
:10AB50000FF01FF99DF8533001939DF852309DF886
:10AB60005020009315499DF851300C480FF0A8FD76
:10AB70000B490A480FF0A4FD9DF8533001939DF84E
:10AB8000523000939DF850209DF851300B490548F4
:10AB90000FF096FD62E600BF1319070030E20020B7
:10ABA0005859070094E200204CE300201C190700CC
:10ABB00050E30020651907004DE30020AE1907009F
:10ABC0007748002D40F09B800EF0BFFF754902468C
:10ABD00075480FF075FD754973480FF071FD7048A9
:10ABE0000EF0B3FF6F49024671480FF069FD6F49DF
:10ABF0006F480FF065FD642019F002FC6D480EF0FF
:10AC0000B5FF6D49024668480FF05AFD674966482E
:10AC10000FF056FD67480EF0A9FF674902466448E9
:10AC20000FF04EFD614962480FF04AFD642019F0B3
:10AC3000E7FB62480EF0ABFF614902465A480FF04D
:10AC40003FFD5A4958480FF03BFD5C480EF09FFF0E
:10AC50005B49024656480FF033FD544954480FF003
:10AC60002FFD642019F0CCFB56480EF0A1FF564989
:10AC700002464D480FF024FD4C494B480FF020FD93
:10AC800050480EF095FF5049024649480FF018FD14
:10AC9000464947480FF014FD642019F0B1FB4B48BA
:10ACA0000EF097FF4A4902463F480FF009FD3F4921
:10ACB0003D480FF005FD45480EF08BFF4449024624
:10ACC0003B480FF0FDFC394939480FF0F9FC64208E
:10ACD00019F096FB3F480EF07EFF3F49024632488E
:10ACE0000FF0EEFC314930480FF0EAFC39480EF025
:10ACF00072FF394902462E480FF0E2FCAEE50EF035
:10AD000024FF2849024628480FF0DAFC2749264844
:10AD10000FF0D6FC22480EF018FF224902462448C4
:10AD20000FF0CEFC214922480FF0CAFC642019F034
:10AD300067FB2A480EF083FF294902461A480FF0A4
:10AD4000BFFC1A4918480FF0BBFC24480EF077FFEF
:10AD50002349024616480FF0B3FC144914480FF07B
:10AD6000AFFC642019F04CFB1E480EF06AFF1E4930
:10AD700002460D480FF0A4FC0C490B480FF0A0FC54
:10AD800018480EF05EFF18490246B4E7074819F06C
:10AD90004FFE00240EA80FF0C7FA204618B070BD71
:10ADA00079E30020C719070030E200205859070056
:10ADB00094E200207AE30020D61907007BE300200C
:10ADC000DE1907007CE30020E61907007DE3002080
:10ADD000EE1907007EE30020031A070082E300203B
:10ADE000111A070083E300201E1A0700536E012B7F
:10ADF000F7B50D4625D1144910680CF096F80446B5
:10AE0000F8B9124F124E3B78124900932A46337814
:10AE100011480FF055FC11490F480FF051FC3B78D9
:10AE20000C4900932A4633780D480FF049FC0B4932
:10AE30000B480FF045FC642019F0E2FA204603B0FD
:10AE4000F0BD0224FAE700BFDE780700AFD500208E
:10AE5000DCD900206C1A070030E2002058590700A6
:10AE600094E2002073B5556E012D0E4625D114498C
:10AE700010680CF05AF80446E0B90625CDE9000543
:10AE8000022332460F4910480FF01AFC0F490E48B2
:10AE90000FF016FC02233246CDE9004509490C4863
:10AEA0000FF00EFC09490A480FF00AFC642019F063
:10AEB000A7FA2546284602B070BD0125FAE700BF73
:10AEC000DE780700751A070030E2002058590700A5
:10AED00094E200202DE9F84F614B1B78002B00F025
:10AEE000BD80604B1B78002B40F0B680556E012D65
:10AEF00040F0B480D2F800A05B4950460CF015F841
:10AF00000446002866D1594B59495A481D700FF024
:10AF1000D7FB57495748DFF880B10FF0D1FB5449B0
:10AF200055480FF0CDFB524953480FF0C9FB642040
:10AF300019F066FA214651480FF0EDF829464F48BE
:10AF40000FF0E9F802214D480FF0E5F801F058FA4A
:10AF500021464B4801F0F4F84A4801F0F3F94A4819
:10AF600001F0F0F901F082FA0FF069FC4FF0000AED
:10AF7000054642F2107600279BF800308BB94FF45B
:10AF80007A7019F03DFA0FF05AFCB0EB05086AEB45
:10AF90004A09464577EB0903EEDA03242046BDE86B
:10AFA000F88F02F0B7F8324932480FF089FB304988
:10AFB00030480FF085FB2E492F480FF081FB2C49BC
:10AFC0002D480FF07DFB642019F01AFA2F480FF07E
:10AFD00061F8E3E72E4950460BF0A7FF044600282E
:10AFE0003CD1224BDFF8B0B01D70014623480FF072
:10AFF00092F8294621480FF08EF802211F480FF0E1
:10B000008AF801F0FDF921461D4801F099F8214820
:10B0100001F098F91C4801F095F901F027FA0FF0BA
:10B020000EFC4FF0000A054644F620684FF0000978
:10B030009BF800306BB94FF47A7019F0E1F90FF01A
:10B04000FEFB461B6AEB4A07B04579EB0703EFDAD4
:10B05000A3E702F013F8B9E700249FE702249DE775
:10B06000AFD5002016D70020DE78070000D70020DB
:10B070005859070030E2002094E2002011E300203C
:10B08000651707008F1A07007C170700A8E2002049
:10B09000D95E07009F1A0700D8A300202DE9FF41C1
:10B0A000536E012B0D46144624D1394910680BF01C
:10B0B0003CFF044620B10224204604B0BDE8F081E4
:10B0C00001F040FF294633480FF0C6FA32493148B3
:10B0D0000FF0B0FA314A3249D3790393937902934E
:10B0E000537901931379009393782A4812880FF0CB
:10B0F000E7FAE1E7052BDED1161F02F1100756F83B
:10B10000045F28460BF023FF2B462844984205D0C5
:10B1100013F8012B303A092AF8D9CCE7BE42EED118
:10B120000022114620680CF07FF840F2D233A0F2E2
:10B13000E6729A420546BED80022606811460CF0BD
:10B1400073F8431E0B2B0646B5D80022A0681146A3
:10B150000CF06AF8431E1E2B0746ACD80022E068AC
:10B1600011460CF061F818288046A4D80022206906
:10B1700011460CF059F83B289DD8C2B200925FFAF4
:10B1800088F3FAB2F1B2A8B201F04EFE002493E7C0
:10B19000DE78070030E20020C61C0700D4D900206A
:10B1A000AF1A070007B503230193054B0093054B26
:10B1B000054A064819460EF078FF03B05DF804FB17
:10B1C000C9B30200C21A0700CA1A07000EE3002022
:10B1D00007B503230193054B0093054B054A064829
:10B1E00019460EF062FF03B05DF804FB95B402004F
:10B1F000221B0700271B07000EE3002007B50323CF
:10B200000193054B0093054B054A064819460EF07D
:10B210004CFF03B05DF804FB95B50200851B0700E9
:10B220008A1B07000EE3002007B503230193054B9B
:10B230000093054B054A064819460EF036FF03B049
:10B240005DF804FBD5AE0200B11B0700B61B07007A
:10B250000EE3002007B503230193054B0093054B34
:10B26000054A064819460EF020FF03B05DF804FBBE
:10B270009DB00200CC1B0700D01B07000EE300208E
:10B2800007B502230193054B0093054B054A064879
:10B2900019460EF00AFF03B05DF804FBEDAD0200A5
:10B2A000F71B0700FC1B07000EE3002007B5022375
:10B2B0000193054B0093054B054A064819460EF0CD
:10B2C000F4FE03B05DF804FB8DA302001D1C070013
:10B2D000241C07000EE3002007B502230193054B51
:10B2E0000093054B054A064819460EF0DEFE03B0F2
:10B2F0005DF804FB65AE02003B1C0700421C070022
:10B300000EE3002010B50D4C0D4986B003A80FF0D8
:10B3100051F803A920460EF0B3FE03A80FF004F87D
:10B3200002230193074B0093074B084A194604F187
:10B3300026000EF0BAFE06B010BD00BFE8E2002005
:10B340005A1C07007DA30200621C07006B1C07004B
:10B3500070B5194C19491A4EC2B09022201D0BF03D
:10B3600049F89021201D19F0A5FE00252060FE223D
:10B37000294602A801950BF04BF8B4F88E30E8B2DC
:10B38000984205F1010508DA231831461A7B01AB12
:10B3900003EB40000BF09CFDEFE7074A09489423BC
:10B3A00000210EF09AFE28B90146034A054894236D
:10B3B0000EF093FE42B070BDDCA3002008A3002075
:10B3C000939A07000FE30020F8B5536E012B0E4649
:10B3D00002D002242046F8BD1568274928460BF004
:10B3E000A4FD044660B128460BF0B1FD2A4628446E
:10B3F000904224D012F8013B303B092BF8D9E8E702
:10B400001E4F1F497B681F4832464FF47A75B3FBC5
:10B41000F5F30FF055F91C491A480FF051F97B6804
:10B420001749B3FBF5F3324618480FF049F91649AE
:10B4300016480FF045F9642018F0E2FFCAE70A2227
:10B44000002128460BF0F0FEB0F5E15FC1D80B4CAF
:10B450004FF47A735843606000210D480EF05BFE94
:10B46000626822B100230A4819460EF04AFEFFF72F
:10B470006FFF0024AEE700BFDE78070004A30020C2
:10B480008E1C070030E200205859070094E200208B
:10B4900011E30020536E012B70B50E4602D002243A
:10B4A000204670BD1568334928460BF03EFD044622
:10B4B00060B128460BF04BFD2A46284490421ED02E
:10B4C00012F8013B303B092BF8D9E8E72A4D2B490C
:10B4D0006B7A2B4832460FF0F3F82A4928480FF0D0
:10B4E000EFF86B7A2549284832460FF0E9F82549EC
:10B4F00025480FF0E5F8642018F082FFD0E70A2213
:10B50000002128460BF090FE0328C8D81A4C637A15
:10B51000984223D06072FFF71BFF637A012B22D081
:10B520001ED9023B012B21D9184915480FF0C8F844
:10B53000144913480FF0C4F8144913480FF0C0F829
:10B54000104911480FF0BCF8642018F059FF41F27F
:10B55000883018F055FF0E480EF09CFD00249FE740
:10B56000FDF730FBE0E7FDF785FBDDE7FDF7AEFB20
:10B57000DAE700BFDE78070004A30020951C07006F
:10B5800030E200205859070094E200209B1C07007D
:10B59000A8E20020F8B5536E012B0D4602D002241C
:10B5A0002046F8BD17682549254E38460BF0BDFCEE
:10B5B000044678BBB6F88E30ABB92A4621492248FA
:10B5C0000FF07EF8214920480FF07AF82A461D49ED
:10B5D0001F480FF075F81D491D480FF071F86420E1
:10B5E00018F00EFFDCE729461A481B4F19F020FA25
:10B5F0002546B6F88E20EBB2934205F1010505DA37
:10B6000033443846197B19F013FAF2E70F4819F062
:10B610000FFAC5E738460BF09AFC06F10C0201461A
:10B620000546384613F0F4FC04460028B7D16D08EF
:10B63000A6F88E50FFF78CFEB2E700BFDE78070059
:10B6400004A30020B81C070030E20020585907006E
:10B6500094E20020C41C0700939A0700F0B52E4D19
:10B660002E48C3B094232A4600210EF02CFD064636
:10B67000B8B12B7AAA2B17D19021281D19F01AFDE9
:10B680002B68274C834211D047F23052AA23C4E9D9
:10B690000123244BE3600423A4F88E30FFF758FE07
:10B6A0000026304643B0F0BD0020E9E76B686360D8
:10B6B0006B7AB5F88E20032B86BF00233746002710
:10B6C0006372802A6B89638106D900232373A4F8EF
:10B6D0008E30FFF73DFE07E013491448A4F88E2092
:10B6E0000AF088FE002FF4D10025FE22294602A888
:10B6F00001950AF08DFE0E4FB4F88E30E8B29842F4
:10B7000005F10105CDDA231839461A7B01AB03EBAD
:10B7100040000BF0DDFBEFE7DCA300200FE300208F
:10B7200004A3002001020304E8A3002010A30020CA
:10B73000939A070010B5074B53F82020002332F8E6
:10B7400013408C42D8B203D80133102BF7D11846DE
:10B7500010BD00BFFCA4002013B501900F480EF0EF
:10B7600081FB019980B2FFF7E5FF04460C480EF01B
:10B7700055FBA0420FD20B4800F0E4FD0A490B48EC
:10B7800022460BF0A5FB094800F0DCFD084B002029
:10B79000187002B010BD0120FBE700BF6AE3002073
:10B7A00058E30020311D0700431D0700B5D50020D8
:10B7B000D1D600202DE9F3410121754E0746222004
:10B7C0000FF031F84FF4FA7018F01AFE3478002CAC
:10B7D0007ED170497048009440F24C43422207F0F9
:10B7E0007DFC054620B90024204602B0BDE8F0816A
:10B7F00069484FF0020840F24C42012186F800806F
:10B8000007F086FA654E002F57D040F24C4322468F
:10B810000121614807F0F4FA40F24C43424601210D
:10B820005D4807F0EDFA40F24C43062201215A48E8
:10B8300007F0E6FA0122114640F24C43564807F061
:10B84000DFFA40F24C4303220121534807F0D8FAB3
:10B8500040F24C43042201214F4807F0D1FA40F254
:10B860004C4305224C48012107F0CAFAF37A40F212
:10B870004C42E3B10521484807F091FC464840F2AC
:10B880004C432246012107F091FB434840F24C41D2
:10B8900007F044FA737A023B012B02D8F47A002CA9
:10B8A000A2D1002122200EF0BEFF2C469CE74FF4CF
:10B8B000FA71394807F0B4FCE7E740F24C424FF028
:10B8C000FF31354807F04AFAFA2018F099FDE1E710
:10B8D000002530493048009540F24C43422207F0A1
:10B8E000FDFB044600283FF47EAF40F24C420121AC
:10B8F000294807F00DFA40F24C432A460121264818
:10B9000007F07EFA40F24C4302220121224807F060
:10B9100077FA40F24C43062201211F4807F070FAE3
:10B920000122114640F24C431B4807F069FA40F2ED
:10B930004C4303220121184807F062FA40F24C43BD
:10B9400004220121144807F05BFA40F24C4305221F
:10B950001148012107F054FA104BDB7A40F24C42B7
:10B9600083B105210C4807F01AFC0B4840F24C4308
:10B970002A46012107F01AFB40F24C41064807F025
:10B98000CDF931E74FF4FA71034807F049FCF3E7CA
:10B9900024D700208CE3002054D7002004A30020EB
:10B9A0002DE9F04FDFF80C83A94FAA4CAA4DDFF820
:10B9B0000893AA4E8BB0002300220021C8E900237F
:10B9C000C7E900234FF0000A1C2203A82970C9F818
:10B9D000001021700291C6F800A00AF019FDA049DC
:10B9E00002A80BF0ACFA9F4B9F48DB7AA34640F2CB
:10B9F0004C41002B66D007F0DCFCC117C8E9000100
:10BA000040F24C41984807F0B9FCC117C7E9000162
:10BA100040F24C41944807F0E7FC40F24C41C9F831
:10BA20000000914807F03BFC07EE900AF8EE677AB9
:10BA300040F24C418C48C6ED007A07F084FC40F29D
:10BA40004C412070884807F042FC012829D18749E1
:10BA500002A80BF074FA96ED007ADFED857AB4EE69
:10BA6000E77AF1EE10FA05D57A4B1B78052B01D950
:10BA700001232B702B7803F0FF04002B00F0D28001
:10BA8000D7E900E31A46D8F80430D8F800C01A43C2
:10BA90004CEA0E00114650EA010378D100242C70C4
:10BAA000AAE0022801D17349D2E7032801D17249E3
:10BAB000CEE7042801D17149CAE705280CBF7049B7
:10BAC0006749C5E707F020FC0028D3D001212420D6
:10BAD0000EF0A9FE644840F24C4107F0F8FB044622
:10BAE00000283DD15E4902A80BF029FA5E4840F2D9
:10BAF0004C4107F028FC634B8BF800001A78904209
:10BB000042D1614A137801331370022CB2D95E4BD3
:10BB10001B78012BAED9012340F24C4152482B70C7
:10BB200007F047FCC117C8E9000140F24C414E48FC
:10BB300007F024FCC117C7E9000140F24C414A4814
:10BB400007F052FC40F24C41C9F80000464807F0AB
:10BB5000A6FB07EE900AF8EE677AC6ED007A89E751
:10BB6000012801D14949BEE7022801D14849BAE775
:10BB7000032801D14749B6E7042801D13F49B2E77C
:10BB80000528B3D13E49AEE788BF1870BDE7354BF5
:10BB9000304D5B7A032B33D13F4B40481B687246D4
:10BBA0001BB2614601F0DCFED8E9000144F0CEFE94
:10BBB00025A3D3E9002345F021F845F0EDF9384BF2
:10BBC0001860D7E9000144F0C1FE1FA3D3E90023A8
:10BBD00045F014F845F0E0F9324B32681860324B0A
:10BBE0001A604FF47A72D9F8003093FBF2F32F4ABF
:10BBF00013602F4B2A781A7020460BB0BDE8F08FE7
:10BC0000D9F8003096ED000A24484FF47A7193FB7E
:10BC1000F1F395F9001000911BB27246614601F0F4
:10BC2000D3FDC1E71E4BC3F800A01E4BC3F800A014
:10BC30001D4B4FF07E521A601C4B1C601C4B1C703D
:10BC40002DE700BFAFF3008000000000D012634179
:10BC500048D70020D8D8002039D7002018D7002096
:10BC6000511D070004A3002054D70020581D0700D1
:10BC700000009643671D0700731D07007F1D070026
:10BC8000881D070050D7002051D70020911D0700C4
:10BC90009B1D0700A21D0700C8D60020A4D50020C8
:10BCA00030D7002034D7002028D700202CD7002000
:10BCB00038D7002040D700201CD700202DE9F041C4
:10BCC000012186B023200EF0AEFDFFF769FE6B4F19
:10BCD0006B4E0446002800F09B806A4BD97A11B95C
:10BCE00022200EF0A0FD684B002264201A7018F08C
:10BCF00087FB664803210EF00EFA3B78002B36D006
:10BD0000634B1B78002B32D100F07AFB614800F0C6
:10BD100019FB614B1868614B1D68614BD3F80080BB
:10BD200044F0EAFD02460B462846CDE90423CDF84F
:10BD3000088044F0E1FDDDE90423CDE90001594923
:10BD400059480BF0C5F8584800F0FCFA574B1868F2
:10BD5000574B1D7844F0D0FDEDB202460B465248D9
:10BD6000544900950BF0B4F84F4800F0EBFA524BF1
:10BD70001B781BB9514801210EF0A3F85048DFF899
:10BD8000588101F0B3FE80B2FFF7E6FC0546D8B15A
:10BD90004B4801F0ABFE0490494801F0A9FE012494
:10BDA0000246CDE900440499464823460DF088FF39
:10BDB00038B988F80000444A1368013313602C46F0
:10BDC00004E088F80040F6E788F800003B78002B94
:10BDD00049D0002C47D12E4B1B78002B43D100F0CB
:10BDE0000FFB314B1C70274BDB7A002B30D03748D0
:10BDF00000F0A8FA364B1A7862BB34882A4B2A2006
:10BE0000114694422ADD1870013203F8011FF8E749
:10BE1000304B32881B889A42D8D3642018F0F0FA4D
:10BE2000194B1A481C702C4B03211C700EF073F92F
:10BE30003D785DB1164B1C78002CC7D127491A48B4
:10BE40000BF07DF8184800F07DFAB8E70124BDE753
:10BE50002348CDE7234914480BF03AF8124800F084
:10BE600071FA00F003FB3388002101332320338073
:10BE700006B0BDE8F0410EF0D6BC00BFAED5002044
:10BE800020D7002004A30020ACD5002011E300201F
:10BE900000D70020A91D070030D7002034D700208C
:10BEA0002CD70020B31D0700B5D5002028D70020CF
:10BEB00038D70020C31D0700D0D600206CE3002037
:10BEC000A4D5002049E30020C8D60020ED1D0700BE
:10BED000D8D8002022D70020D1D60020D51D0700B9
:10BEE000031E0700161E070010B5054C204602F081
:10BEF00061F82046034A0449BDE810400AF00CBA34
:10BF000054D7002090A10020C1E502000020704716
:10BF100038B590F8333004460D4613B1406B0EF03F
:10BF2000F3FA94F83010606B0EF032FB606B8021F6
:10BF300000F02DF8606B036829461B689847606B1A
:10BF40000121BDE838400EF02FBB000010B5034BB7
:10BF50000360044607F040FB204610BD881F070021
:10BF600010B50446406B0EF0CFFA606B02490EF03C
:10BF7000DFFA012010BD00BF801A060010B504468C
:10BF8000FFF7E4FF20460CF019FD204610BD0368C2
:10BF9000C9B21B6818472DE9F84F90F833300446B2
:10BFA00013B1406B0EF0B0FA658AC5F180054FF011
:10BFB000000A05EBD575FF276D10D146D0463E46E9
:10BFC000A38A5FFA8AF1B1EBD30F28DA4FF0000CA5
:10BFD000638A5FFA8CF098421CDA11FB03F3034486
:10BFE000A2689BB212F803E0E26812F803B0F345CE
:10BFF0000BD08E4228BF0E46884538BF8846874200
:10C0000028BF0746814538BF814602F803E00CF19E
:10C01000010CDDE70EF087F80AF1010AD0E7FF2EE8
:10C0200057D0236821219B6920469847236857FAF7
:10C0300085F19B69C9B2204698475FFA85FA236863
:10C040000AEB09019B69C9B220469847236822215F
:10C050009B6920469847236831469B69204698474C
:10C06000236841469B69204698470025B04529D35F
:10C07000BA46CA4521D845B994F83010606B0EF025
:10C0800087FA606B4021FFF782FFA268606B638ACA
:10C0900006FB0323026813F80A1012680135EDB29B
:10C0A0009047102D04D1606B01210EF07DFA002520
:10C0B0000AF1010A5FFA8AFADBE701360EF033F87B
:10C0C000F6B2D3E72DB1606B0121BDE8F84F0EF059
:10C0D0006BBABDE8F88F000038B51648164C0EF064
:10C0E00013FA4FF4FA7018F08BF90125204684F802
:10C0F000335007F028FE204607F0DBFC204607F00F
:10C1000056FD204607F0C3FCC821204607F018FD65
:10C11000204607F03FFD4023F1222046642107F02E
:10C12000DAFC0649204607F0B0FC2046FFF733FF53
:10C13000284638BD8CE300209CD90020A81F0700AA
:10C1400030B52DED028B044697B04F480D464F4950
:10C1500007F09BFC4C48002107F048FA00220B2313
:10C16000114649480093802307F058FB46480121B7
:10C1700007F03CFA4448002107F085FC444B1B784B
:10C180007BB1444B1B7863B15DB1434906A80EF007
:10C1900011F906AB00223C48114607F011FE06A833
:10C1A0001AE03E4BDD7A002D2FD03D4B3D491878EB
:10C1B0003D4A2346002808BF0A463C4906A80AF023
:10C1C00087FE06A903A80EF0F5F800222E4803AB5F
:10C1D000114607F0F5FD03A80EF0A6F84FF08043D6
:10C1E000D3F8384414F0FF0416D0032C46D00B22A9
:10C1F00000927F230021244807F02FFA2248FFF7FE
:10C20000CAFE17B0BDEC028B30BD214606A80EF069
:10C21000D1F806AB2A46BEE725489FED268A244C76
:10C220000DF03AFF0A2520460DF036FF013D38EEAD
:10C23000008AF8D1F2EE047AC8EE277A17EE900A57
:10C2400044F05AFB02460B4606A81B490AF040FE82
:10C2500082B206A90C4807F0F9FB06A9044603A818
:10C260000EF0A8F8C4F17F01074803AB002209B221
:10C2700007F0A6FD03A80EF057F8B8E70F4906A887
:10C280000AF05DFE2246E4E79CD90020A81F0700C3
:10C290000CDA0020AFD50020211E070004A30020E7
:10C2A00039D70020459A07007E5D07002F1E070042
:10C2B0000DE3002000000000351E07003B1E0700B4
:10C2C000F0B51C481C4F1D4E1A4D87B0002107F0D9
:10C2D0008DF940230C22174800930021802307F09A
:10C2E0009DFA1749134807F0D0FB1248012107F0C7
:10C2F0007DF91048002107F0C6FB00243B78A342DB
:10C3000013DD06EB441103A80EF054F804EB84028D
:10C3100052000C3203AB12B20021284607F050FD48
:10C3200003A80EF001F80134E8E70248FFF733FEF6
:10C3300007B0F0BD9CD90020D9D80020DAD8002061
:10C34000A81F070070B5274C274D2278052A034601
:10C3500038D105F12002294605F1400052F8046B5E
:10C3600041F8046B8242F9D1204AA2F1200102F186
:10C37000200052F8046B41F8046B8242F9D11C4A48
:10C38000A2F1200102F1200052F8046B41F8046B85
:10C390008242F9D1174AA2F1200102F1200052F89D
:10C3A000046B41F8046B8242F9D1134AA2F12001D7
:10C3B00002F1200052F8046B41F8046B8242F9D17B
:10C3C0000422227020780D4A05EB401020210AF04B
:10C3D0004BFD2378052B1CBF01332370BDE8704053
:10C3E000FFF76EBFD9D80020DAD800201AD9002074
:10C3F0003AD900205AD900207AD90020CA780700FB
:10C4000007B50B48002107F0F1F8402300930C22F8
:10C4100080230748002107F001FA0548012107F0B1
:10C42000E5F8044B00221A7003B05DF804FB00BF6E
:10C430009CD90020D9D8002030B585B004460D46DF
:10C4400001A811460DF0D8FF04EB840252000C3213
:10C4500001AB12B22946044807F0B2FC01A80DF066
:10C4600063FF05B030BD00BF9CD9002008B502486D
:10C47000FFF791FD08BD00BF9CD9002070B50446B0
:10C480000B4D0C487CB107F002FB01232B700A4BCB
:10C490009B7A5BB1BDE87040084800234EF66022ED
:10C4A00002210DF02EBE07F004FB2C7070BD00BF02
:10C4B0004CA500209CD9002004A3002011E30020FB
:10C4C0000020FFF7DBBF00002DE9F04F89B01546D3
:10C4D0001C469DF848309DF84CA00291804601937F
:10C4E000FFF78EFF012D6BD18C498D4C05A80DF007
:10C4F00061FF002105AA0846FFF79EFF05A80DF081
:10C5000013FF627A032A0FD8DFE802F0025456586C
:10C51000844905A80DF04EFF012005AA0021FFF770
:10C520008BFF05A80DF000FF4FF47A7362687E4917
:10C53000B2FBF3F27D487E4D7E4C0AF0C9FC7B498C
:10C5400005A80DF037FF05AA00210220FFF774FFB0
:10C5500005A80DF0E9FEBAF1000F14BF2A462246E5
:10C56000754972480AF0B4FC704905A80DF022FF25
:10C5700005AA00210320FFF75FFF05A80DF0D4FEF8
:10C58000019B6E49002B14BF2A46224667480AF0D9
:10C590009FFC664905A80DF00DFF05AA00210420A7
:10C5A000FFF74AFF05A80DF0BFFEFFF75FFF09B0D8
:10C5B000BDE8F08F6249ACE76249AAE76249A8E7A3
:10C5C000062D2BD1554905A80DF0F4FE002105AA32
:10C5D0000846FFF731FF05A80DF0A6FE5B4905A848
:10C5E0000DF0E8FE05AA00210120FFF725FF05A8B0
:10C5F0000DF09AFE564905A80DF0DCFE05AA0021B3
:10C600000220FFF719FF05A80DF08EFE444B51499B
:10C610005A684FF47A73B2FBF3F2B7E7072D60D193
:10C620003E4905A80DF0C6FE002105AA0846FFF701
:10C6300003FF05A80DF078FE474905A80DF0BAFEE6
:10C6400005AA00210120FFF7F7FE05A80DF06CFEFA
:10C65000424905A80DF0AEFE022005AA0021FFF711
:10C66000EBFE05A80DF060FE002C35D0631E0C2CEF
:10C67000DBB233D0651CEDB2394E2C4856F823108E
:10C680000AF05DFC294905A80DF094FE05AA402199
:10C690000220FFF7D1FE05A80DF046FE56F8242033
:10C6A000304922480AF014FC204905A80DF082FE0A
:10C6B000402105AA0320FFF7BFFE05A80DF034FEB8
:10C6C00056F8251019480AF03AFC184905A80DF04B
:10C6D00071FE05AA402162E70C23CBE70B2300255E
:10C6E000CAE7082D44D10D4905A80DF063FE0021CD
:10C6F000084605AAFFF7A0FE05A80DF015FE0A2CB6
:10C700000CBF1949194909480AF019FC074905A83D
:10C710000DF050FE05AA0021012041E73F1E070051
:10C72000D0A1002062140700511E0700B5D50020DB
:10C73000661F070089170700631E07004A1A0700D3
:10C74000481E070072150700831507006F1E0700BB
:10C75000831E0700971E0700B01E0700B91E0700C2
:10C7600098A30020C21E0700CA1E0700D61E07009D
:10C77000092D5CD1A449A54C05A80DF01BFE002194
:10C7800005AA0846FFF758FE05A80DF0CDFDA04903
:10C7900005A80DF00FFE05AA00210120FFF74CFEB1
:10C7A00005A80DF0C1FD9B4905A80DF003FE05AAE3
:10C7B00000210220FFF740FE05A80DF0B5FD9649C7
:10C7C00023780D7895499648AB4208BF0A780978D6
:10C7D0001CBF03F1FF32D2B2994218BF0133914915
:10C7E00018BFDDB20AF074FB8D4905A80DF0E2FD1B
:10C7F00005AA40210220FFF71FFE05A80DF094FDB9
:10C800002278894986480AF063FB854905A80DF01E
:10C81000D1FD05AA40210320FFF70EFE05A80DF06B
:10C8200083FD80492A467E480AF052FB4DE70A2DD7
:10C8300059D175497D4C05A80DF0BCFD002105AA14
:10C840000846FFF7F9FD05A80DF06EFD704905A833
:10C850000DF0B0FD05AA00210120FFF7EDFD05A8B0
:10C860000DF062FD6B4905A80DF0A4FD05AA00219D
:10C870000220FFF7E1FD05A80DF056FD6C49237875
:10C880000D786C496648AB4208BF0A7809781CBF2E
:10C8900003F1FF32D2B2994218BF0133664918BF83
:10C8A000DDB20AF015FB5E4905A80DF083FD05AA6F
:10C8B00040210220FFF7C0FD05A80DF035FD2278CC
:10C8C0005E4957480AF004FB554905A80DF072FD72
:10C8D00005AA40210320FFF7AFFD05A80DF024FDB8
:10C8E00055492A469FE70B2D33D1474905A80DF03E
:10C8F00061FD002105AA0846FFF79EFD05A80DF081
:10C9000013FD4F4905A80DF055FD05AA0021012092
:10C91000FFF792FD05A80DF007FD4A4905A80DF0A7
:10C9200049FD05AA00210220FFF786FD05A80DF0AC
:10C93000FBFC454B186843F0CDFF31A3D3E900233E
:10C9400044F05CF902460B46354840490AF0C0FA0B
:10C950001FE60C2D40F080802B4905A80DF02AFD24
:10C96000002105AA0846FFF767FD05A80DF0DCFCCD
:10C97000274905A80DF01EFD05AA00210120FFF79B
:10C980005BFD05A80DF0D0FC224905A80DF012FDB5
:10C9900005AA00210220FFF74FFD05A80DF0C4FCF9
:10C9A000062C03D0651E0C2CEDB226D0661CF6B208
:10C9B0002A4627491A480AF08BFA194905A80DF0AA
:10C9C000F9FC05AA40210220FFF736FD05A80DF06D
:10C9D000ABFC22461F4912480AF07AFA104905A812
:10C9E0000DF0E8FC05AA40210320FFF725FD05A86E
:10C9F0000DF09AFC1649324615E70B250626D7E7B7
:10CA00000000000080842E413F1E070005D7002053
:10CA1000B01E0700B91E070009D7002007D7002065
:10CA2000B5D50020E61E0700E11E070006D700204E
:10CA30000AD7002008D70020F01E0700EB1E0700D1
:10CA4000F71E0700051F070010D70020151F07005D
:10CA5000361F0700311F07000D2D62D1A44905A81C
:10CA60000DF0A8FC002105AA0846FFF7E5FC05A883
:10CA70000DF05AFC9F4905A80DF09CFC05AA002169
:10CA80000120FFF7D9FC05A80DF04EFC9A4905A836
:10CA90000DF090FC022005AA0021FFF7CDFC05A8AF
:10CAA0000DF042FC002C37D0631E092CDBB235D0D0
:10CAB000651CEDB2914E924956F8232091480AF038
:10CAC00007FA904905A80DF075FC05AA2C21022053
:10CAD000FFF7B2FC05A80DF027FC56F824208A4980
