:020000022000DC
:1070000000000420E18F0300099003000B900300AF
:107010000D9003000F90030011900300000000008A
:1070200000000000000000000000000013900300BA
:1070300015900300000000000000000000000000A8
:10704000F57E050017900300759D0500CD840500B1
:1070500017900300357B05000D79050025610600BA
:10706000179003000D84050021840500179003008C
:107070001790030017900300179003001790030068
:10708000296E06000D5105001790030017900300AC
:107090001790030017900300AD57060017900300E8
:1070A00017900300179003003584050049840500FC
:1070B000179003001790030000000000000000007C
:1070C00017900300179003001790030061660600F5
:1070D000258105001790030017900300859A05008D
:1070E000FD9A0600179003003DC206000000000054
:1070F000000000001790030000000000316A060045
:10710000000000000000000000000000000000007F
:10711000000000000000000000000000000000006F
:10712000000000000000000000000000000000005F
:10713000000000000000000000000000000000004F
:10714000000000000000000000000000000000003F
:10715000000000000000000000000000000000002F
:10716000000000000000000000000000000000001F
:10717000000000000000000000000000000000000F
:1071800000000000000000000000000000000000FF
:1071900000000000000000000000000000000000EF
:1071A00000000000000000000000000000000000DF
:1071B00000000000000000000000000000000000CF
:1071C00000000000000000000000000000000000BF
:1071D00000000000000000000000000000000000AF
:1071E000000000000000000000000000000000009F
:1071F000000000000000000000000000000000008F
:1072000010B5054C237833B9044B13B10448AFF3E0
:1072100000800123237010BD80D5002000000000F5
:107220001801080008B5034B1BB103490348AFF32D
:10723000008008BD0000000084D50020180108006F
:10724000154B002B08BF134B9D46A3F5803A002138
:107250008B460F461348144A121A0FF021FB0F4BAE
:10726000002B00D098470E4B002B00D098470020F1
:10727000002104000D000D48002802D00C48AFF397
:1072800000800FF0BDFA200029000FF043F80FF046
:10729000A3FA00BF00000800000004200000000066
:1072A0000000000080D500205CC501200000000027
:1072B000000000000022C0E900220172704738B5CA
:1072C0000446006820B1856911F0C0FD2846F9E741
:1072D000204638BD006820B143688B4201D08069E8
:1072E000F9E77047F8B504460F4616461D46FFF706
:1072F000F1FF20B10123826005704370F8BD1C20AE
:1073000011F0A8FD012343700023C0E90333C0E955
:10731000053323680570C0E9017613B92060606009
:10732000ECE763689861FAE72DE9F8430468164FC3
:1073300005460E464FF000081CB363680BB9A469FC
:10734000FAE72378002BFAD0E368A268F31A9A428E
:1073500002D961780029F2D09B1A636184F8018018
:10736000E66013F0B9FC63688146984713F0B4FCFB
:107370003B68A0EB0900206118442B7A3860002B91
:10738000DDD0BDE8F88300BF9CD50020034B044846
:1073900009221A700121FA2213F0FBB8A0D50020AF
:1073A00031E3002008B5074B50B103221A7006489C
:1073B000FA22012113F0EDF8044B00221A7008BDE7
:1073C0000522F3E7A0D5002031E30020F1D600200C
:1073D000054B064800221A70054B08221A7001213D
:1073E000FA2213F0D6B800BFF1D6002031E3002016
:1073F000A0D5002084B004AB03E90700094BBDF918
:107400000A201A80084B9DF90C201A70074B084877
:1074100000221A70074B0121FA22197004B013F0F0
:10742000B8B800BFD2D50020D4D50020F1D60020B6
:1074300031E30020A0D500202DE9FF47DFF8B4A2FA
:10744000954D964EDFF8B082012700232F703370E0
:107450009AF80930023BBB42544600F24F819048F3
:1074600006F089FD9AF80B30002B00F0CA808D4A97
:1074700098F8003011789146002940F0A98083B136
:10748000894B1B786BB905F0BFF99AF80930022BCC
:107490000CBF86488648394605F056F8854805F001
:1074A00055F904F081FC08B3834B1B781BB9834862
:1074B000012112F04EFFB4F88E0004F04FFB0028BB
:1074C00000F07A81764806F059FD0390744806F082
:1074D00057FD01240023CDE9004302460399784873
:1074E000234612F035FE00286DD15EE0754A117812
:1074F00009BB754B1B7803F0FF07E3B9012368480C
:1075000089F8003006F037FD704B71481F8041F25A
:1075100088326368B3FBF2F36E4A13806E4B1F70C0
:107520006E4B40F6C4121F7003213B4604B0BDE809
:10753000F04713F02EB80023137098F800304BB1C9
:10754000594B1B7833B9664966480FF040FF6548D0
:1075500005F0FCF8637A032B2AD1634B50481B6873
:1075600000221BB2114606F043FC534B1B781BB99B
:107570005248012112F0EDFEB4F88E0004F0EEFA4C
:10758000002800F01981464806F0F8FC03904448B2
:1075900006F0F6FC01240023CDE9004302460399DE
:1075A0004748234612F0D4FD60B9287034700AE0D1
:1075B00000230093B7EE000A1A461946384806F031
:1075C0004BFBD2E72C70484A136801331360F3E099
:1075D000002B00F0F180344B1B78002B40F0EC8046
:1075E00005F012F99AF80930022B0CBF2F483048E9
:1075F000394604F0A9FF3D4804B0BDE8F04705F066
:10760000A5B898F8003083B1274B1B786BB905F00B
:10761000FBF89AF80930022B0CBF2448244839465D
:1076200004F092FF324805F091F8637A032B29D1D8
:107630002D4B1B481B6800221BB2114606F0D8FBDD
:107640001D4B1B781BB91D48012112F082FEB4F8B6
:107650008E0004F083FA002800F0AE80104806F097
:107660008DFC03900E4806F08BFC00210123CDE930
:10767000003102460399124812F06AFD0028A2D197
:107680002870A0E700230093B7EE000A1A461946B7
:10769000034806F0E1FAD3E7F1D60020ECA300207E
:1076A000C4D50020CCD5002020D70020D817070053
:1076B000E8170700F9170700F0D600208CE3002038
:1076C00069E30020C2D50020A1D5002040D70020CA
:1076D00031E3002042D7002070D7002071D700206E
:1076E00014180700D5D50020E8D600202A18070076
:1076F0003E18070018A30020CFD5002098F80030CE
:1077000073B1374B93F80080B8F1000F08D105F042
:107710007BF83448394604F017FF334B83F8008078
:10772000324806F028FC324812F022FE002846D0EB
:10773000304812F0A7FD00283BD00121242013F08F
:10774000BAFA2D4B1B78C3B12C4804F0FFFF2C4B29
:107750001B781BB92B48012112F0FBFDE77A9FB182
:1077600004F022FB20B9284A00231360274A136043
:107770001E4806F003FC80B29FE61B4B1B780BB142
:107780002348E2E72348E0E7B4F88E0004F0E6F986
:1077900090B10197012700971F4A94F88E101F4857
:1077A000022312F0D5FC00287FF40DAF287037704B
:1077B00009E701232870337004B0BDE8F087012188
:1077C000232013F078FA134804F0C0FF0123124A73
:1077D00094F88E10124812F066FC01232B70F2E62A
:1077E00020D700204A180700C2D50020C4D50020A9
:1077F0008DE3002074E30020A1D500205B18070072
:10780000F0D600208CE3002054D7002050D7002071
:107810006C1807007B18070024A3002069E30020F0
:107820008EE30020000000002DE9F04F002189B018
:107830000446242013F03FFA0021232013F03BFAE2
:10784000002C00F03B842378013B072B00F23684A8
:10785000DFE813F0080064010002AC025704DA0408
:1078600098078C0905F064FC874B1B78002B31D0FE
:10787000864B1B78002B00F0958005F093FD844A21
:10788000844B11881980917899701179D970517948
:1078900019719179D27959719A710122DA717E49FF
:1078A00000221A720968D9607C49096819617C490B
:1078B0001A755A75098849B2D9757A49097849B251
:1078C00019765A839A83DA83774A126812B21A8435
:1078D00005F0C0FF754B1B78002B00F0EF83744B55
:1078E0001C78002C40F0EA83724973480FF06FFD5A
:1078F000714905A812F0A6FF05AA2146204604F00A
:107900009FFF05A812F058FF6C4B6D491A686A4832
:107910000FF026FD684905A812F094FF05AA21463C
:10792000012004F08DFF05A812F046FF654812F013
:1079300054FB49F007FA52A3D3E9002349F0A6FB10
:107940000B46024660495C480FF00AFD5A4905A8FB
:1079500012F078FF05AA2146022004F071FF05A865
:1079600012F02AFF594812F049FB59490246524881
:107970000FF0F6FC504905A812F064FF05AA214655
:10798000032004F05DFF05A812F016FF514812F025
:1079900046FB092870D8DFE800F0085D5F61636589
:1079A00067696B6D05F022FD69E74B4903A80FF08D
:1079B0000EFD484812F033FB484B494953F820204C
:1079C0003D480FF0CDFC3C4905A812F03BFF05AA4D
:1079D0004021032004F034FF05A812F0EDFE4148D9
:1079E00012F02EFB4049421D33480FF0B9FC3249DA
:1079F00005A812F027FF05AA4021022004F020FF6D
:107A000005A812F0D9FE264B38491A882A4812B226
:107A10000FF0A6FC284905A812F014FF05AA0021C2
:107A2000042004F00DFF05A812F0C6FE1D4B3049DE
:107A30001A7852B220480FF093FC1F4905A812F0A3
:107A400001FF05AA4021042004F0FAFE05A812F067
:107A5000B3FE31E32749A9E72749A7E72749A5E767
:107A60002749A3E72749A1E727499FE727499DE73A
:107A700027499BE7274999E7274997E7AFF3008014
:107A80000000000080842E41D0D50020FCD90020C9
:107A9000F4D90020B8A1002050D7002054D70020EE
:107AA000D2D50020D4D50020E4D60020CFD50020A8
:107AB00020D700208D180700D5D50020E8D600205B
:107AC0009B18070099E30020AF1807009AE30020F5
:107AD0004A2407009BE30020B618070090A200206C
:107AE000EC1807009CE3002063240700851A0700B8
:107AF000901A0700BA180700BE180700C21807003E
:107B0000C6180700CB180700D1180700D7180700C0
:107B1000DD180700E3180700E818070005F008FB68
:107B20007C4B00221A707C4B1B78002B2FD07B4B98
:107B30001B78002B65D005F035FC794B794C1A8801
:107B400022809A78A2701A79E2705A7922719A7911
:107B5000DB796271A371744A74480023E371237264
:107B60001268E260724A1268226123756375E375D8
:107B700023766383A383E3836E4B1B681BB223844A
:107B800012F094FB40B284F8220005F063FE6A4BC9
:107B90001B78002B00F09282684B1C78002C40F080
:107BA0008D8267496748684D0FF011FC654905A84B
:107BB00012F048FE05AA2146204604F041FE05A821
:107BC00012F0FAFD2A6861495E480FF0C9FB5D4971
:107BD00005A812F037FE05AA2146022004F030FE67
:107BE00005A812F0E9FD2B68013B0F2B30D8DFE828
:107BF00003F00B11131517191B1D1F21232527290E
:107C00002B2D05F0F3FB98E751494E480FF0DFFBB1
:107C10004C4970E04F49F8E74F49F6E74F49F4E720
:107C20004F49F2E74F49F0E74F49EEE74F49ECE79C
:107C30004F49EAE74F49E8E74F49E6E74F49E4E7AC
:107C40004F49E2E74F49E0E74F49DEE74F49DCE7BC
:107C50004F49DAE705F06CFA374B1B78002B00F040
:107C60002D82364B1E78002E40F02882494C657AD2
:107C7000022D46D0032D4BD05DB9474905A812F01F
:107C8000E1FD05AA2946084604F0DAFD05A812F030
:107C900093FD4FF47A7362684049B2FBF3F22948CE
:107CA0000FF05EFB274905A812F0CCFD05AA0021C4
:107CB000012004F0C5FD05A812F07EFD384905A895
:107CC00012F0C0FD002105AA022004F0B9FD05A8AC
:107CD00012F072FD24491B480FF079FB194905A8E1
:107CE00012F0B0FD002105AA032004F0A9FD05A8AB
:107CF00012F062FD2A4905A812F0A4FD05AA002190
:107D0000A1E6284905A812F09DFD05AA3146BAE76B
:107D10002549F7E7F1D60020D0D50020FCD9002076
:107D2000F4D90020B8A1002050D7002078E300202B
:107D300054D70020E4D60020CFD5002020D7002043
:107D4000F2180700D5D50020F4D60020011907004D
:107D50000B1907001919070024190700301907002B
:107D60003C19070046190700501907005C19070065
:107D7000701907008319070093190700A01907005D
:107D8000AA190700BA190700C8190700D419070073
:107D9000E519070018A30020F3190700271A0700A8
:107DA000DBC20700021A0700131A070005F0C0F92A
:107DB000924B1B78002B3FD0914B1B78002B00F08F
:107DC000D78005F0EFFA8F4B8F4C1A8822809A7873
:107DD000A2701A79E2705A7922719A79DB7962710C
:107DE000A3718A4A8A480023E3711278D2B22272C0
:107DF000884A1268E260884A12682261874A1188BC
:107E000049B22175118849B26175128852B2E27582
:107E1000834A127852B222766383A383814B1B7804
:107E2000E383814B1B681BB2238412F03FFA40B2FC
:107E300084F8220005F00EFD7C4B1B78002B00F02F
:107E40003D817B4B1C78002C40F03881794D7A4B7A
:107E500029787A4A7A48744FDFF80C82002918BFD3
:107E60001A4678490FF07CFA754905A812F0EAFC29
:107E700005AA2146204604F0E3FC05A812F09CFC6C
:107E80002B7803F0FF06002B75D1664B6E491A78EC
:107E90006B480FF065FA6A4905A812F0D3FC05AAF1
:107EA0003146012004F0CCFC05A812F085FC5848AE
:107EB00012F0FCF96549024661480FF051FA604939
:107EC00005A812F0BFFC05AA3146022004F0B8FC58
:107ED00005A812F071FC4D4B5D491A7858480FF017
:107EE0003FFA574905A812F0ADFC05AA402102202F
:107EF00004F0A6FC05A812F05FFCD8F80020554954
:107F00004F480FF02DFA4E4905A812F09BFC05AA28
:107F10003146032004F094FC05A812F04DFC3A68A9
:107F20004D4947480FF01CFA454905A812F08AFC54
:107F300005AA4021032004F083FC05A812F03CFCB4
:107F4000364B46491A883E4812B20FF009FA3C49AE
:107F500005A812F077FC05AA3146042004F070FC55
:107F600005A812F029FC2E4B3D491A7852B261E562
:107F700005F03CFA27E7D8F80020364930480FF0E2
:107F8000EFF92F4905A812F05DFC05AA2146012052
:107F900004F056FC05A812F00FFC3A682E49284858
:107FA0000FF0DEF9264905A812F04CFC05AA402185
:107FB000012004F045FC05A812F0FEFB2A782949AF
:107FC0001F480FF0CDF91E4905A812F03BFC05AA89
:107FD0002146022004F034FC05A812F0EDFB2B78BA
:107FE000013B0F2B00F28B80DFE803F0406B6D6FDD
:107FF00071737577797B7D7F81838587D0D50020EC
:10800000FCD90020F4D90020B8A10020D6D6002049
:1080100078E3002050D7002054D70020D2D500208C
:10802000D4D50020D5D60020E4D60020CFD500201E
:1080300020D70020D7D6002089180700E21B0700B0
:10804000D5D500203B1A07004C1A0700601A07001C
:10805000691A0700721A07007A1A0700821A0700C5
:108060008D1A0700971A0700E8D6002049494A48A8
:108070000FF0ADF9484905A812F0E4FB05AA00216C
:10808000032004F0DDFB05A812F096FB434812F034
:108090000DF94349024640480FF062F93E4905A8F0
:1080A00012F0D0FB05AA0021042004F0C9FB05A8AA
:1080B00012F082FB04F0DEFB04F0DCFB09B0BDE84B
:1080C000F08F3849D3E73849D1E73849CFE7384905
:1080D000CDE73849CBE73849C9E73849C7E73849D8
:1080E000C5E73849C3E73849C1E73849BFE73849E8
:1080F000BDE73849BBE73849B9E73849B7E73849F8
:10810000B5E705F015F8374B1B78002BD6D0364B6A
:108110001E78002ED2D1354C657A022D31D0032D38
:1081200036D05DB9324905A812F08CFB05AA294664
:10813000084604F085FB05A812F03EFB4FF47A7365
:1081400062682C49B2FBF3F213480FF009F91249A7
:1081500005A812F077FB05AA0021012004F070FBAE
:1081600005A812F029FB244905A812F06BFB002199
:1081700005AA022004F064FB05A812F01DFB1F49AC
:10818000A9E51F4905A812F05DFB05AA3146CFE716
:108190001C49F7E70B190700D5D5002078E300202C
:1081A000AC1A070019190700241907003019070035
:1081B0003C19070046190700501907005C19070011
:1081C000701907008319070093190700A019070009
:1081D000AA190700BA190700C8190700D41907001F
:1081E000E5190700CFD5002020D7002018A30020D4
:1081F000F3190700271A0700DBC20700B51A0700AA
:10820000021A0700131A0700954F04F091FF7B7ABA
:108210009449032B944B40F059811A785E78DD78AD
:108220001C7993F8028093F805A093F907B00B78B6
:1082300006EB0226C5EB4510B6B20A22B6FBF2F2F7
:1082400007EE902A05EB8005C4EB4410874AF8EE50
:10825000E77A04EB800408F138086D006400C2ED91
:10826000007A4FFA88F82DB224B24FEA2A1A9146C2
:10827000002B3BD07E4B1B78002B00F0DC8005F000
:1082800091F87C4A7C4B118819809178997011790A
:10829000D970517919719179D27959719A710322F2
:1082A000DA715FFA8AF21A72744A75481268DA60F3
:1082B000744A12681A610021734A197583F815808F
:1082C00083F816B0128852B2DA75704A127836B254
:1082D00052B21A765D839C83D9831E8411F0E6FF27
:1082E000654B40B283F8220005F0B4FA684B1B7866
:1082F000002B3FF4E3AE674B1B78002B7FF4DEAE20
:1083000004F082FA7B7A022B0CBF63486348012198
:1083100004F01AF95D4B62491A785B4B61481B887F
:1083200052B21BB20FF01CF85E4905A812F08AFA8F
:108330000021084605AA04F083FA05A812F03CFAC9
:1083400043465A46584957480FF00AF8554905A878
:1083500012F078FA05AA0021012004F071FA05A8AC
:1083600012F02AFA524651494E480EF0F9FF4D4993
:1083700005A812F067FA05AA0021022004F060FAAD
:1083800005A812F019FA4A4905A812F05BFA05AAE5
:108390003221022004F054FA05A812F00DFA4549E2
:1083A00005A812F04FFA05AA5021022004F048FA5D
:1083B00005A812F001FA404905A812F043FA05AAEF
:1083C0000021032004F03CFA05A812F0F5F9FE7A2A
:1083D0003A4F002E32D02A46394932480EF0C0FFBB
:1083E000304905A812F02EFA05AA3221032004F024
:1083F00027FA05A812F0E0F931492A4822460EF082
:10840000AFFF284905A812F01DFA05AA5021032044
:1084100004F016FA05A812F0CFF9D9F800003C686C
:1084200048F0B2FC009402460B461E4825490EF067
:1084300097FFFFF7EDBB04F0D9FF22E72249194867
:108440000EF0C5FF174905A812F0FCF905AA322164
:10845000032004F0F5F905A812F0AEF9D1E700BF4A
:1084600018A30020D0D50020A2D50020ECD60020F3
:10847000FCD90020F4D90020B8A1002050D700205A
:1084800078E3002054D70020D2D50020D4D5002096
:10849000CFD5002020D70020D8170700E817070005
:1084A000CB1A0700D5D50020E21A0700F91A0700F9
:1084B000041B0700081B07000C1B0700E8D6002060
:1084C0005D1A0700151B07002A1B0700DD7893F8CB
:1084D00001809E7893F805A0C5EB451205EB820557
:1084E0001A790B78C2EB421902EB8909A8F1C80886
:1084F000C83E6D004FEA49091FFA88F8B6B22DB29E
:108500000FFA89F9002B3CD0864B1B78002B00F02A
:10851000F58004F047FF844B844C1A8822809A78B7
:10852000A2701A79E2705A7922719A79DB796271B4
:10853000A3710223E3717E4B84F808A01B68E360FB
:108540007C4B7D481B6823614FFA88F3237573B217
:1085500063757A4B1B885BB2E375794B1B785BB212
:10856000237600236583A4F81C90E383754B1B6876
:108570001BB2238411F09AFE40B284F8220005F069
:1085800069F9714B1B78002B3FF498AD6F4B1B784A
:10859000002B7FF493AD04F037F97B7A022B0CBFEC
:1085A0006B486C48012103F0CFFF654B6A491A788C
:1085B000624B6A481B8852B21BB20EF0D1FE67496B
:1085C00005A812F03FF90021084605AA04F038F981
:1085D00005A812F0F1F84FFA8AF261495F480EF0EF
:1085E000BFFE5E4905A812F02DF905AA0021012061
:1085F00004F026F905A812F0DFF85A4905A812F090
:1086000021F905AA3221012004F01AF905A812F077
:10861000D3F8554905A812F015F905AA50210120F3
:1086200004F00EF905A812F0C7F8504905A812F099
:1086300009F905AA0021022004F002F905A812F0A8
:10864000BBF84B4905A812F0FDF805AA002103204C
:1086500004F0F6F805A812F0AFF80FFA88F24549D1
:108660003E480EF07DFE3D4905A812F0EBF805AA44
:108670003221022004F0E4F805A812F09DF832B28D
:108680003C4936483C4E0EF06BFE344905A812F0CA
:10869000D9F805AA3221032004F0D2F805A812F077
:1086A0008BF8FC7A274F64B32A4632492B480EF0E8
:1086B00057FE2A4905A812F0C5F805AA5021022044
:1086C00004F0BEF805A812F077F82A4923484A4674
:1086D0000EF046FE214905A812F0B4F805AA502173
:1086E000032004F0ADF805A812F066F83A682349B3
:1086F00033681A480EF034FEFFF78ABA04F076FEAB
:1087000009E71F4915480EF062FE144905A812F04A
:1087100099F805AA5021022004F092F805A812F059
:108720004BF8D7E7FCD90020F4D90020B8A10020ED
:1087300050D7002054D7002078E30020D2D5002065
:10874000D4D50020E4D60020CFD5002020D70020AB
:10875000D8170700E8170700CB1A0700D5D5002067
:10876000F91A0700166F07000C1B0700041B07000F
:10877000081B07005D1A0700E8D600202D1B070024
:108780002A1B070004F0D4FC9C48042111F00BFFC5
:108790009B4B1B78002B31D09A4B1B78002B00F0A1
:1087A000E78004F0FFFD984B984C1A8822809A7855
:1087B000A2701A79E2705A7922719A79DB79627122
:1087C000A3710223E371924A924800232372126834
:1087D000E260914A1268226123756375E37523761E
:1087E0006383A383E3838D4B1B681BB2238411F047
:1087F0005DFD40B284F8220005F02CF8884B1B7810
:10880000002B3FF45BAC874B1B78002B7FF456ACFE
:10881000854D864C03F0F8FF6B7A032B0CBF844820
:108820008448012103F090FE834984480EF0CFFD77
:10883000824905A812F006F80021084605AA03F0AF
:10884000FFFF05A811F0B8FF7D4B1E78002E00F049
:1088500071817C4FDFF8C4914FF0000883F80080ED
:108860003B7803F0FF06002B40F08580764B77497C
:108870001A7872480EF074FD704905A811F0E2FFF5
:1088800005AA3146012003F0DBFF05A811F094FF93
:10889000604811F00BFD6E49024668480EF060FD1D
:1088A000664905A811F0CEFF05AA3146022003F063
:1088B000C7FF05A811F080FF664B67491A785F482B
:1088C0000EF04EFD5D4905A811F0BCFF05AA402140
:1088D000022003F0B5FF05A811F06EFF22685F4982
:1088E00056480EF03DFD554905A811F0ABFF05AA0D
:1088F0003146032003F0A4FF05A811F05DFFD9F86D
:10890000002057494D480EF02BFD4C4905A811F0A9
:1089100099FF05AA4021032003F092FF05A811F05A
:108920004BFF504B50491A88444812B20EF018FDC4
:10893000424905A811F086FF05AA3146042003F03C
:108940007FFF05A811F038FF484B49491A783B488A
:1089500052B20EF005FD394905A811F073FF05AAC2
:108960004021042003F06CFF05A811F025FFA9E0C9
:1089700004F03CFD17E72268384930480EF0F0FC5F
:108980002E4905A811F05EFF05AA4146012003F01B
:1089900057FF05A811F010FFD9F8002030492748EB
:1089A0000EF0DEFC254905A811F04CFF05AA402178
:1089B000012003F045FF05A811F0FEFE3A782D498D
:1089C0001E480EF0CDFC1D4905A811F03BFF05AA7D
:1089D0004146022003F034FF05A811F0EDFE3B787C
:1089E000013B0F2B00F2A480DFE803F04684868869
:1089F0008A8C8E90929496989A9C9EA031E3002047
:108A0000D0D50020FCD90020F4D90020B8A1002046
:108A100050D7002078E3002054D70020E4D600206F
:108A2000CFD5002020D7002018A30020E8D60020B2
:108A3000411B0700D8170700521B0700D5D500209F
:108A4000CED50020D7D60020D5D600204C1A07005E
:108A5000601A0700D6D60020691A0700721A0700AC
:108A60007A1A0700D2D50020821A0700D4D5002038
:108A70008D1A0700971A0700674968480EF0A7FC8F
:108A8000664905A811F0DEFE05AA0021032003F0C7
:108A9000D7FE05A811F090FE614811F007FC61496E
:108AA00002465E480EF05CFC5C4905A811F0CAFE67
:108AB00005AA0021042003F0C3FE05A811F07CFEE6
:108AC00003F0D8FE6B7A032B48D1574B1868246803
:108AD00048F05AF9009402460B46504853490EF0AC
:108AE0003FFC4E4905A811F0ADFE05AA0021052066
:108AF000FEF7AABF4E49C0E74E49BEE74E49BCE764
:108B00004E49BAE74E49B8E74E49B6E74E49B4E791
:108B10004E49B2E74E49B0E74E49AEE74E49ACE7A1
:108B20004E49AAE74E49A8E74E49A6E74E49A4E7B1
:108B30004E49A2E74E4905A811F084FE05AA314628
:108B4000022003F07DFE05A811F036FE494905A874
:108B500011F078FE05AA3146032003E7464B47494A
:108B60001A682E4823680EF0FBFBBAE704F0E0FA1F
:108B7000434B5C7A34B1012C29D0424B00221A704D
:108B8000FFF79CBA03F040FE3F48012103F0DCFCF4
:108B90003E4905A811F056FE05AA2146204603F0DD
:108BA0004FFE05A811F008FE39491C480EF00FFCD5
:108BB0001A4905A811F046FE05AA2146032003F034
:108BC0003FFE05A811F0F8FD03F054FED5E7314B48
:108BD0001B78002BD1D0304B1D78002DCDD103F068
:108BE00013FE2948214603F0AFFC2C4905A811F0DB
:108BF00029FE05AA2946284603F022FE05A811F001
:108C0000DBFD234905480EF0E2FB044905A811F0FD
:108C100019FE05AA2946D1E70B190700D5D5002072
:108C200078E30020AC1A0700ECD60020151B0700E3
:108C30001919070024190700301907003C1907000B
:108C400046190700501907005C1907007019070042
:108C50008319070093190700A0190700AA19070034
:108C6000BA190700C8190700D4190700E519070049
:108C7000671B07007B1B0700E4D600202D1B0700A5
:108C800018A30020F1D600204A180700F3190700A6
:108C90008F1B0700CFD5002020D700208D1807009C
:108CA00010B5044605F060F9204610BD0F4BB0B179
:108CB00000221A700E4B0F4A18600F4B11685B7A36
:108CC000023B012B01F101010C4B116094BF072203
:108CD00002221A700A48FA22012111F05ABC1B78AC
:108CE00013B1064B0822F4E7704700BFF1D600200D
:108CF000F4D60020E4D6002018A30020A0D5002040
:108D000031E30020174B00221A70174B90F9062010
:108D10001A70164BB0F904201A80154A03781370A4
:108D2000144A41781170144A81781170134A012154
:108D300011701BB1124A13680B441360114B124897
:108D40005B7A023B012B114B95BF072204221A705C
:108D50001A7099BF42F210720421FA22012111F017
:108D600018BC00BFF1D60020D4D50020D2D50020F9
:108D7000D7D60020D5D60020D6D60020CED50020CC
:108D8000E4D6002018A3002031E30020A0D5002065
:108D900038B5164BB0F90A201A80154B90F90C2003
:108DA0001A70144B42781A7003780446EBB1124BD8
:108DB0005B7A023B012B15D81048042111F0F3FB1C
:108DC0002378023B012B0DD80D4D227A61680D48A6
:108DD00006232B700DF056FD08482B46FA22012180
:108DE00011F0D7FB084B00221A7038BDD2D50020F5
:108DF000D4D50020D1D5002018A3002031E30020D5
:108E0000A0D50020A2D50020F1D60020F0B5254D38
:108E1000297899B0002942D101231A2208A82B7081
:108E200007910DF03DFD05A82AF004F905981E4CA8
:108E300000F5E0400FA96E302AF070F9149B1B4931
:108E400003F26C730393129B0293139B0133019300
:108E50000F9B009307A8DDE910320EF081FA1498F9
:108E600013999DF848209DF844309DF840609DF886
:108E70003C70227100F26C70013180B2C9B2208066
:108E8000A1706371A671E771094C24783CB102248A
:108E9000CDE900672C7004F03FFA04F083FA19B0B2
:108EA000F0BD00BFF0D60020F4D900209B1B0700C6
:108EB000FCD9002030B54FF080432DED028BD3F864
:108EC0003834032B83B027D01448144D11F02CFBF9
:108ED0000A24B0EE408A284611F026FB013C38EE09
:108EE000008AF8D1B2EE067AC8EE077A9FED0C7AC6
:108EF000DFED0C6A67EE877A9FED0B7A67EE877A73
:108F000087EEA67AFCEEC77ACDED017A9DF80400D3
:108F100003B0BDEC028B30BD0020F9E72DE300204B
:108F200000007A440040834500007F4308B5064BAB
:108F30001B783BB111F0CBFEBDE808400146034869
:108F4000FEF7F2B908BD00BF21D70020D8D6002017
:108F50001E4B07B501221E481A7011F0BCF818B15B
:108F60001C48002111F081F81B4811F005FA1B493B
:108F70001B4811F013F91B49194811F01FF91A4940
:108F8000174811F013F91949154811F01FF918493C
:108F9000134811F023F90021164811F05DF9022160
:108FA000154811F0C7F932230122009311460A2314
:108FB0000B4811F0B2F8114BD97A01B101212220EE
:108FC00003B05DF804EB11F076BE00BFB4A1002041
:108FD000A4E300208EE300208DE30020918D0200A9
:108FE00069E30020AD8C0200A5730200058D02002C
:108FF0000D8E020071E300208BE3002018A30020F7
:1090000008B50F4B0F480021197011F02EF80E48CB
:1090100011F065F80D490B4811F06EF80C4909483C
:1090200011F072F84FF6FD71064811F01EF8094B69
:10903000D97A01B10121BDE80840222011F03BBEE0
:10904000B4A100208EE30020A4E30020F573020009
:10905000D173020018A300201F4B07B501221F483F
:109060001A7011F038F818B11D48002110F0FDFFFA
:109070001C4811F081F91C491C4811F08FF81C495B
:109080001A4811F09BF81B49184811F08FF81A493B
:10909000164811F09BF81949144811F09FF8002167
:1090A000174811F0D9F80221164811F043F932237C
:1090B000012200930D480A23114611F02EF8124B9D
:1090C000DB7A33B10121222003B05DF804EB11F00B
:1090D000F2BD03B05DF804FBB4A10020A4E30020BE
:1090E0008EE300208DE30020918D020069E30020D3
:1090F000AD8C0200A5730200058D02000D8E0200EA
:1091000071E300208BE3002018A3002010B50B4C66
:1091100000212046FEF7CEF82046094C094A0A49AC
:109120000DF042FBFF21204604F012FF2046054AC5
:109130000649BDE810400DF037BB00BFD8D600206F
:10914000C4D5002090A10020BF720200A18C0200B3
:109150002DE9F04F012187B0222011F095FD01216A
:10916000232011F091FD0121242011F08DFDAD4847
:10917000AD4E11F011FC03F0B3F9307068B1AB499A
:10918000AB480EF024F9AA48012103F0DDF9A94803
:1091900003F0DCFAA84803F0D9FA0021222011F0EC
:1091A0008AFD0223A54806224FF4E13110F0A2FE09
:1091B0004FF08043D3F83834032B6FD14FF4FA606B
:1091C0001BF066FB0723022203AC9D4900939848DD
:1091D0009C4D9D4F00230EF0C3F89549204611F099
:1091E00031FB2146994811F073F9204611F0E4FA59
:1091F0000121232011F05FFD0021232011F05BFDF0
:109200000021242011F057FD02F002FA02F0EAF9E1
:1092100002F064F902F078F902F08CF902F00EFA2B
:1092200002F01EFC00F03EFA002000F05DF96B7ABF
:10923000023B012B59D8012002F0BEFC38703B786C
:1092400013B1834803F082FA03F0C6FF814F3870F0
:1092500060B104F0A7F894E8030029F0CAFE02F018
:1092600095F93B7813B17C4803F070FA04F00AF9E1
:109270007A4F387048B104F00DFA387002F070F986
:109280003B7813B1764803F061FA02F095F96B7AF6
:10929000032B2ED8DFE803F051ADB6C311F017FD54
:1092A000DFF898A107464FF0000B41F287384FF0E6
:1092B0000009504610F003FE002883D111F007FD8D
:1092C000C41B6BEB4B05A04579EB0503FFF67AAFAA
:1092D00064201BF0DDFA232011F0F2FCB0FA80F1DB
:1092E0004909232011F0E7FCE3E7E87A0028A2D13E
:1092F000A2E733780BB35B494D480EF068F84C4950
:10930000204611F09FFA00212246084603F098FA01
:10931000204611F051FA544945480EF058F8444996
:10932000204611F08FFA22460021012003F088FA2E
:10933000204611F041FA03F09DFA4C4803F006FA7A
:109340004B4810F09FFF10B94A4803F0FFF9FFF7B0
:10935000FFFD4FF47A7348496A683548B2FBF3F26F
:109360000DF0FEFF324803F0F1F9444A444801236E
:10937000002111F004F96A6822B10023404819461F
:1093800011F007F93F4A3E480023012111F0F7F898
:1093900000233D4A3A48022111F0F1F8AB7A33B18B
:1093A000374800234EF66022022111F0F2F8374AC6
:1093B00033480123032111F0E2F80023344A3048F6
:1093C000042111F0DCF8334B1B785BB1284810F016
:1093D00059FF38B93223012200932F480A2311463E
:1093E00010F09BFE01212D4811F045FC07B0BDE8AF
:1093F000F08FFFF705FE2A4803F0A8F9294803F08B
:10940000A5F9A6E7284803F0A1F9194810F03AFF9A
:1094100010B9184803F09AF9FFF71EFE99E72348A0
:10942000F1E700BFACE30020CFD500204A180700C9
:10943000D5D50020BD1B0700CA1B070050E2002045
:10944000381F070018A30020CDD50020D8E2002047
:10945000D61B0700FCD90020DE1B0700D0D500205A
:10946000E51B0700F01B0700021C0700F3190700AB
:1094700074E30020121C0700271A07003974020049
:1094800031E3002029780200C9C80200C5C00200EB
:109490008D730200B4A1002069E30020C9E200201E
:1094A00092180700201C0700021A0700131A070071
:1094B0007047000008B5054804F0C4FE034804F0F6
:1094C000E0FEBDE80840014804F0FABEF8D60020EE
:1094D00007B531220DF10701024804F0FBFE03B08D
:1094E0005DF804FBF8D6002073B500210446112076
:1094F00011F0CAFB524811F04FFA524B002C00F009
:10950000848000229A800A22DA804FF481721A81C4
:1095100040F201125A814B4804F06CFF05460028C6
:1095200040F08B80002C38D02A22302145488DF81D
:109530000720012604F078FD0822322141488DF8E9
:10954000072004F071FD324633213E488DF8076054
:1095500004F06AFD24220DF107013A4804F0BAFE36
:109560009DF80720374822F00C0242F0080224211F
:109570008DF8072004F058FD6022222131488DF833
:10958000072004F051FD2A4625212E4804F04CFD09
:109590002C483246212104F047FD002520220DF100
:1095A000070128488DF8075004F094FE9DF8072025
:1095B000244842F0080220218DF8072004F034FDF1
:1095C00064201BF065F91E220DF107011D488DF87E
:1095D000075004F07FFE9DF807201A4842F09002E1
:1095E0001E218DF8072004F01FFD64201BF050F9A8
:1095F0008CB1FFF76DFF14490422112010F03EFCDE
:10960000FFF758FF204602B070BD02229C80DC802C
:109610001A815C817FE720220DF10701094804F0DF
:1096200059FE9DF80720074802F0400220218DF8DE
:109630000720012404F0F8FCE4E70024E2E700BF7F
:10964000ACE30020F8D60020B194020002481822B2
:10965000002104F0A3BC00BFF8D60020D0B511F063
:1096600036FB0D4C0D4B0021C3E9000111F02FFB1F
:10967000D4E90032C61A62EB4207C92E77F1000323
:1096800009DB11F024FB064A206000236360137895
:109690000133DBB21370D0BD10D7002018D70020E3
:1096A00021D7002008B50221092011F0EDFA064962
:1096B0000322092010F0E2FB04490548012364223B
:1096C000FDF710FE012008BD5D960200B99C020066
:1096D000D8D600202DE9F04FC74D91B011F0F7FA20
:1096E000D5E900230024811A64EB03030091019360
:1096F000DDE9002340F6B8300021904271EB03030E
:10970000A346A246A146A0462746264677DB11F08F
:10971000DEFAD5E90023811A63EB43030291039338
:10972000DDE90223B2F5C87F73F1000373DA11F0AB
:10973000CEFAD5E90023811A63EB43030491059324
:10974000DDE90434B3F5C87F74F1000380F285804D
:1097500011F0BDFAD5E90023811A63EB43030691AA
:109760000793DDE90634B3F5167F74F1000380F248
:10977000998011F0ACFAD5E90023811A63EB430319
:1097800008910993DDE90834B3F5487F74F10003CB
:1097900080F2AE8011F09BFAD5E90023811A63EBC9
:1097A00043030A910B93DDE90A34B3F5966F74F124
:1097B000000380F2C08011F08AFAD5E90023811AF3
:1097C00063EB43030C910D93DDE90C34B3F5AF6FFC
:1097D00074F1000380F2D28011F079FAD5E9002308
:1097E000811A63EB43030E910F93DDE90E34B3F559
:1097F000C86F74F1000380F2E280082474E009204D
:1098000011F05EFA002882D17C4B1B78002B3FF4CC
:109810007EAF022468E0794B1B78012B87D10920A9
:1098200011F04EFA012882D10023C82C10D0092053
:10983000009311F045FA009B012804BF0133DBB20D
:10984000012001340093E4B21BF022F8009BECE706
:10985000C62B7FF66CAF002446E0684B1B78022BCA
:109860007FF476AF092011F02BFA01287FF470AF56
:109870000024BBF1C80F10D0092011F021FA0128F3
:1098800008BF01344FF001000BF1010B08BFE4B237
:109890005FFA8BFB1AF0FCFFEBE7C62C7FF658AFA4
:1098A000012421E0554B1B78032BDCB27FF461AF20
:1098B0004FF0000BBAF1C80F12D0092011F000FAD6
:1098C000012808BF0BF1010B4FF001000AF1010A5A
:1098D00008BF5FFA8BFB5FFA8AFA1AF0D9FFE9E753
:1098E000BBF1C60F7FF645AF204611B0BDE8F08F43
:1098F000424B1B78042BDCB27FF44CAF4FF0000AD4
:10990000B9F1C80F12D0092011F0DAF9012808BF07
:109910000AF1010A4FF0010009F1010908BF5FFADD
:109920008AFA5FFA89F91AF0B3FFE9E7BAF1C60FCC
:109930007FF630AFD8E7314B1B78052BDCB27FF4D4
:109940003AAF4FF00009B8F1C80F12D0092011F05A
:10995000B7F9012808BF09F101094FF0010008F12A
:10996000010808BF5FFA89F95FFA88F81AF090FFDA
:10997000E9E7B9F1C60F7FF61EAFB5E71F4B1B78BD
:10998000062BDCB27FF428AF4FF00008C82F11D0AF
:10999000092011F095F9012808BF08F101084FF0DE
:1099A000010007F1010708BF5FFA88F8FFB21AF05B
:1099B0006FFFEBE7B8F1C60F7FF60EAF94E70F4BE2
:1099C0001B78072BDCB27FF418AF0025C82E0FD010
:1099D000092011F075F9012808BF01354FF0010089
:1099E00006F1010608BFEDB2F6B21AF051FFEDE73D
:1099F000C62D7FF602AF77E718D7002021D70020C9
:109A000073B58B4D8B4C6A7A637A9A4231D002F0EF
:109A1000FBFE0021884802F097FD6B6863606B7A5B
:109A2000864863726B89638102F090FE844802F07D
:109A30008DFE02F01FFF01F027FE40F6B8301AF04D
:109A400027FF637A7F48012B4FF000014FF0320669
:109A500040F0998010F009FB00227B4800960A2311
:109A6000114610F05AFB794810F039FB784810F095
:109A700059FDEA7AE37A9A4207D06B7A023B012BCE
:109A800094BF0120002002F097F86A6863689A4248
:109A900003D16A8963899A4213D002F0B5FE674800
:109AA00002F054FE664802F051FE02F0E3FE6B68DD
:109AB00063606B89638101F0E7FD40F6B8301AF00E
:109AC000E7FE644810F054FC002869D0624810F0AA
:109AD000DBFB624B1978884205D000395E4818BF1D
:109AE000012110F0D3FB5E4810F0E0FB5D4B1978CC
:109AF000884202D05A4810F0DBFB5B4810F0E8FBCC
:109B00005A4B1978884202D0574810F0E3FB584D61
:109B100058482E7810F0EEFB86420BD02978554835
:109B200010F0F4FB32230122009347480A23114628
:109B300010F0F3FA02F068FE637A012B71D06CD951
:109B4000023B012B6FD94FF47A7362684A49B2FB2A
:109B5000F3F24A480DF004FC484802F0F7FD626851
:109B600022B100234648194610F013FDA37A002BBA
:109B70005BD0434800234EF66022022102B0BDE8CC
:109B8000704010F006BD10F070FA012200960A2312
:109B900011462D4810F0C1FA2E4810F0EDFB65E794
:109BA000384D3948296810F01AFA374810F015FA7C
:109BB0002968884202D0344810F011FA334810F076
:109BC0001DFA334B1978884202D0304810F018FA49
:109BD000304D31482E7810F022FA864203D0297891
:109BE0002D4810F01EFA2D4810F02AFA2C4B197847
:109BF000884202D0294810F025FA2A4810F033FA9A
:109C0000294B1978884202D0264810F03DFA4FF6C9
:109C1000FD710C4810F029FA8CE7244802F096FDFB
:109C200091E72348FAE72348F8E702B070BD00BF88
:109C3000E4A1002018A300202E1C0700351C0700FB
:109C4000451C07008EE3002069E30020A4E3002008
:109C5000C8E200208DE3002075E3002023D7002018
:109C600078E3002025D7002080E3002026D70020BD
:109C700024D700208AE30020271A0700D5D500202A
:109C800031E3002030D7002099E300209AE3002040
:109C900034D700202BD700209BE300209CE300203A
:109CA0002CD700209EE3002035D70020F3190700B1
:109CB00092180700131A07002DE9F04F87B0FFF73D
:109CC00009FD072800F2CC81DFE810F0BC044A034C
:109CD0000800CD01B00053002D001A00914B002068
:109CE0001870914B00240025C3E900458F4B1B7869
:109CF00023B107B0BDE8F04F02F0C4BD0120F8E782
:109D0000884B00221A70884B00200021C3E9000113
:109D1000874B1C783CB902F077FD8648214602F05B
:109D200013FC1AF0CCFD7F4B00221A707E4B0020F2
:109D30000021C3E900017E4B1C7874B17E4B1A7878
:109D4000052A40F08D8110221A707C4BD97A01913E
:109D50009B7A00937A4B1B785BE002F055FD7948C3
:109D6000214602F0F1FB784807B0BDE8F04F10F053
:109D7000D9BB6C4B00221A706B4B00200021C3E949
:109D800000016B4B1B78002B00F06A816A4C237832
:109D9000052B00F26581DFE813F006006301630123
:109DA000220030004000694810F0E2FA0128634BBD
:109DB0000AD104222270D97A01919B7A64490093D6
:109DC00009786448FF2315E005222270D97A0191B1
:109DD0009B7A6149009309786048FF230AE0574B5A
:109DE0000322D97A5A7201919B7A009305235C4928
:109DF0005C48097802F06CFD32E107235A48237071
:109E000010F078FA4D4AD37A0193937A0093C3B253
:109E10002278564956480978ECE7484B0E22D97A01
:109E2000227001919B7A0093524B94E73D4B0022A4
:109E30001A703D4B00200021C3E900013C4B1B7808
:109E4000002B00F0A5803C4C2378062B00F2088103
:109E5000DFE813F007001F03120020002A0057005C
:109E60006000364903224B7AC87A22700190897AC1
:109E700000910233DBB2BAE7304A937A83F00103F0
:109E80009372D27A019200930222FF233A493B480F
:109E90000978AFE7294B02225A72DA7A01929B7A4B
:109EA000009304230322A2E70A232F48237010F013
:109EB00021FAC0B20C280ED8DFE800F00717171DF2
:109EC000171D1D17171717171D002D4B00221A708D
:109ED0002C4B05221A70194A2B4BD17A1B78019111
:109EE000927A00920A33DBB292E7254B00221A7075
:109EF000244B0722EEE7224B00221A70214B0A2244
:109F0000E8E70E4B0D22D97A227001919B7A0093DB
:109F10001E4B20E7094BDA7A01929B7A00930023CB
:109F20003AE100BF21D7002018D7002060A500200B
:109F300020D70020561C070022D70020E4A10020D3
:109F400035D70020611C0700C8E200208DE3002007
:109F5000CCA20020B8A20020FCA20020E4A2002095
:109F60008CA2002078A200208AE30020E0A100203B
:109F7000DCA100202CD70020E0A20020D0A20020ED
:109F80002AD7002028D7002025D700202BD7002053
:109F90009E4810F0EDF9012862D19D4D6A7A012AA0
:109FA0005ED09C4E3278002A5AD19B4C9B4B20703D
:109FB0001B7804940BB902F065FC00219848DFF887
:109FC0006CB210F0F0FA974810F094F9964B53F8F1
:109FD00020309648039310F069F94FF0000A0746C5
:109FE000039B33F81A2042B35FFA8AF1584610F007
:109FF0005FF964201AF04CFC0020FDF71DFA10F008
:10A0000066FE02463078059298B14FF47A701AF0E5
:10A010003FFC10F05CFE059A42F21073B0EB0208B0
:10A020004FF0000161EB01090024434574EB090383
:10A03000E8DA4FF4FA601AF02BFC0AF1010ABAF1DF
:10A04000100FCDD17948394610F032F96A6822B143
:10A0500000237348194610F09CFA049A00231370E9
:10A0600007B0BDE8F08F724B00221A70714B0024CC
:10A070000025C3E90045704B1B78002B00F041819F
:10A080006E4C2278102AEBD801A353F822F000BFBF
:10A09000D5A0020093A40200E7A00200F7A00200EE
:10A0A00009A1020065A1020077A102009DA10200A2
:10A0B00061A00200BBA10200E1A1020065A20200B2
:10A0C00089A20200A9A20200C7A2020061A00200A8
:10A0D000E3A2020002222270594BD97A01919B7AA5
:10A0E0000093FF23D2E6564AD37A83F00103D3725A
:10A0F0000193937AC7E6524B01225A72DA7A01929F
:10A100009B7A00930323CDE609234648237010F081
:10A11000F1F8C0B20C2814D8DFE800F007070707F1
:10A12000070D1B07212121211B00464B00221A701D
:10A13000454B052204E0434B00221A70424B042297
:10A140001A703F4BDA7A01929B7A00933F4B1B784F
:10A150005EE63C4B00221A703B4B0622F0E7394B7F
:10A160000222E4E7364B0C22D97A227001919B7AC5
:10A170000093374BEFE5324B5A6842B142F20F7110
:10A180008A428ABFA2F51C520022103A5A60DA7A3B
:10A1900001929B7A0093FF2306223AE62D4A137818
:10A1A00013B1013BDBB200E00C231370244AD17AD7
:10A1B0000191927A009207222BE6244A21491378D2
:10A1C0000978994209D1204B1B7813701C4AD17A27
:10A1D0000191927A009209221BE6013BDBB2F4E77F
:10A1E0001D4A1E491378097899420BBF1C4B03F195
:10A1F000FF331B78DBB21370114BDA7A01929B7A32
:10A200000093124B1B780A2203E600BF8DE3002067
:10A2100018A30020F1D60020A1D5002060A50020C1
:10A2200031E300208AE3002010A5002078E300201D
:10A2300021D7002018D7002020D7002022D70020C7
:10A24000E4A1002029D7002027D7002025D700200F
:10A2500034D7002024D7002026D700202AD700207A
:10A2600028D70020A04AA1491368A3F5C333A03B17
:10A270008B4298BF9E4B13609E4BDA7A01929B7A79
:10A2800000930B22FF23C4E59B490B78062B1CBFD0
:10A2900003F1FF33DAB2974B0A70D97A01919B7AB6
:10A2A000009313460C22B4E5944A137813B1013B92
:10A2B000DBB200E0092313708E4AD17A0191927AC1
:10A2C00000920D22A5E58E4A117809B1481EC0B250
:10A2D0001070884AD37A0193937A009303460E2232
:10A2E00097E5884A1378052B02D0013BDBB200E0EA
:10A2F000162313707F4AD17A0191927A009210222C
:10A3000087E5814810F034F8804B01281B781ED176
:10A31000002B7FF4A5AE7E4B1B780BB902F0B2FA8E
:10A3200000217C4810F03FF97B4B012200201A707D
:10A33000FDF782F8794B5A68002A3FF491AE00236A
:10A340007448194607B0BDE8F04F10F022B9002B51
:10A350007FF486AE6E4B1B78002BE1D10120DDE748
:10A360006F4B704D704C00221A70704B0021002012
:10A37000C3E900012978002959D1664810F013F982
:10A380000121644810F00FF96248022110F00BF926
:10A390005F4B1B7813B9012002F074FA01235F4A66
:10A3A0002B7000232370534B51685960517A5289A6
:10A3B00055485A8159720FF0DBFF0146D8B15C480D
:10A3C0000FF074FF5B4B18705B480FF093FF5B4B13
:10A3D00018705B480FF058FF5A4B18705A480FF02E
:10A3E00077FF5A4B18700023CDE900332278584983
:10A3F00058480978FEE458480FF037FE57480FF0E8
:10A40000ECFD394B186056480FF0F8FD3A4B1870C8
:10A4100054480FF004FE394B187053480FF010FEEB
:10A42000374B187051480FF01EFE364BDAE7237891
:10A43000102B3FF615AE01A252F823F081A40200C2
:10A4400093A40200A5A40200A9A40200BBA40200D8
:10A45000D3A4020031A60200D7A4020071A5020015
:10A460008DA50200A1A50200C3A50200D9A5020086
:10A47000F5A5020005A6020061A0020021A60200C7
:10A4800001221C4B2270D97A01919B7A0093FF2301
:10A49000BFE400222270174BD97A01919B7A009376
:10A4A000FF23A4E70622ECE7124B00225A72DA7A65
:10A4B00001929B7A00930223F4E40E49214BC87A5F
:10A4C0001B78082222700190897A00910A33DBB24E
:10A4D0009FE40B22D5E7194A13780C2B01D00133E6
:10A4E00060E6002361E600BF30D700207F47A11956
:10A4F0008047A119E4A1002034D700202BD70020E9
:10A500002CD7002035D700208DE30020F1D6002085
:10A5100060A5002031E30020C2D5002018A3002050
:10A5200021D7002020D7002022D7002018D70020D4
:10A5300078E3002025D700208AE3002024D70020DC
:10A5400075E3002023D7002080E3002026D70020D9
:10A5500014A3002000A300208EE3002099E3002034
:10A560009AE300209BE300209CE300209EE3002070
:10A570005C4A1378B3FA83F35B0913705A4AD17AB1
:10A580000191927A00920A33082242E4574A5849CC
:10A5900013780978994201D1564B15E601331DE62F
:10A5A000554A56491378097899420BBF544B0133E9
:10A5B0001B78DBB213704C4AD17A0191927A0092E7
:10A5C00021E6504A5049136803F5C333A0338B4248
:10A5D00094BF136011604FE64C4A13780C2B1ABFDE
:10A5E0000133DBB2062313703F4AD17A0191927A8C
:10A5F000009257E6464A1378092B01D0013357E6FB
:10A60000002358E6434A1378032B1ABF0133DBB209
:10A6100000231370344AD17A0191927A00925EE657
:10A620003D4A1378162B01D001335FE6052360E61F
:10A630002D4A536803F51C5310335360D37A0193AA
:10A64000937A6BE4354B00221A70354B354A002162
:10A650000020C3E90001117800293FF401AD324B1D
:10A66000197810293FF6FCAC01A050F821F000BF8A
:10A67000B5A60200C3A60200C3A60200C3A602003C
:10A68000C3A60200C3A60200DDA60200C9A60200FE
:10A69000C9A60200C9A60200C9A60200D3A60200EC
:10A6A000D3A60200D3A60200D3A6020061A0020036
:10A6B000D3A602000023137007B0BDE8F04FFFF7E8
:10A6C0009FB900221A70E6E604221A70064BFFF7C3
:10A6D00072BB05221A70044BFFF778BB02221A7076
:10A6E000FAE400BF23D70020E4A1002025D70020F2
:10A6F00027D7002029D7002026D7002028D70020E0
:10A700002AD7002030D700200070383934D70020F5
:10A710002BD700202CD7002035D7002021D70020B0
:10A7200018D7002020D7002022D70020024B01227A
:10A730001A700920704700BF36D7002070B598B056
:10A7400014460A490EA810F07DF80023CDE9143311
:10A75000CDE91633636E012B0CD1054920680CF04E
:10A760002CFE48B1022400F0EDBC00BF6A5E070079
:10A77000EE7D0700002BF5D1B649B748B74CB84D70
:10A78000B84E10F0E5F9B849B34810F0E1F9B14915
:10A79000B64810F0DDF9B449B44810F0D9F9642096
:10A7A0001AF076F8637AB24955F82320AA4810F0D7
:10A7B000CFF9AD49A84810F0CBF9637AAC4955F808
:10A7C0002320AA4810F0C4F9A749A84810F0C0F9FE
:10A7D00064201AF05DF8A74911A80FF083FE11A9B3
:10A7E0000EA810F042F811A80FF0E6FF0EA810F026
:10A7F0007FF80E9AA049984810F0AAF99A4996480D
:10A8000010F0A6F90E9A9C49984810F0A1F99649C3
:10A81000964810F09DF964201AF03AF8974911A86B
:10A820000FF040FE119A96498B4810F091F911A84B
:10A830000FF0C2FF8C49884810F08AF98F4911A89F
:10A840000FF030FE119A8E49884810F081F911A856
:10A850000FF0B2FF8449854810F07AF964201AF0AD
:10A8600017F84FF47A7562688649B2FBF5F27A48B8
:10A8700010F06EF97C49784810F06AF962688149F5
:10A88000B2FBF5F2794810F063F97749774810F098
:10A890005FF9642019F0FCFF7B480FF069FD7B49EC
:10A8A00056F8202005466C4810F052F96E496A4867
:10A8B00010F04EF956F8252074496C4810F048F90C
:10A8C00069496A4810F044F9642019F0E1FF012D4C
:10A8D00040F04E836E486F4E6F4D0FF0D3FC6F49C2
:10A8E000002814BF32462A465B4810F031F95E4911
:10A8F000594810F02DF966480FF0C4FC674900284C
:10A9000014BF32462A465948654E10F021F956497F
:10A91000564810F01DF9642019F0BAFF61480FF095
:10A92000E9FC6149054602464B4810F011F94E49D1
:10A93000494810F00DF92A465B494C4810F008F9D7
:10A9400049494A4810F004F9642019F0A1FF56F86B
:10A9500025205649404810F0FBF843493E4810F086
:10A96000F7F856F825205149404810F0F1F83E49D3
:10A970003E4810F0EDF8642019F08AFF4C480FF0C3
:10A980007AFC002800F0BE814A49334810F0E0F814
:10A990003549314810F0DCF84649344810F0D8F811
:10A9A0003149324810F0D4F8642019F071FF0822C0
:10A9B00014A941480FF03EFC9DF8573005939DF8CF
:10A9C000563004939DF8553003939DF8543002930C
:10A9D0009DF8533001939DF852309DF8502037492F
:10A9E00000931D489DF8513010F0B2F81E491A48E6
:10A9F00010F0AEF89DF8573005939DF8563004934B
:10AA00009DF8553003939DF8543002939DF85330D0
:10AA100001939DF852309DF8502028490093134827
:10AA20009DF8513010F094F80F49104810F090F84C
:10AA3000642019F02DFF082214A921480FF0D6FB3D
:10AA40009DF8573005939DF8563004939DF8553086
:10AA500038E000BFD11C070050E2002018A30020FE
:10AA600084A40020E0A30020685E0700B4E2002078
:10AA7000E01C070008E30020EE1C0700CCE20020E9
:10AA8000054C0700F91C07008DE30020091D070095
:10AA900074E300205D5B0700C31C0700191D07005D
:10AAA000ACA300208AE30020241D07002F1D07000F
:10AAB00073E300203A1D07006EE30020441D0700E9
:10AAC0006AE3002003939DF8543002939DF85330BD
:10AAD00001939DF852309DF850207D4900937D48A8
:10AAE0009DF8513010F034F87B497A4810F030F876
:10AAF0009DF8573005939DF8563004939DF85530D6
:10AB000003939DF8543002939DF8533001939DF8C0
:10AB100052309DF850206E49009370489DF8513096
:10AB200010F016F86C496D4810F012F8642019F016
:10AB3000AFFE102214A96A480FF061FB9DF85F3048
:10AB40000D939DF85E300C939DF85D300B939DF84E
:10AB50005C300A939DF85B3009939DF85A30089356
:10AB60009DF8593007939DF8583006939DF857305B
:10AB700005939DF8563004939DF8553003939DF846
:10AB8000543002939DF8533001939DF852309DF854
:10AB90005020544900934F489DF851300FF0D8FF92
:10ABA0004D494C480FF0D4FF9DF85F300D939DF850
:10ABB0005E300C939DF85D300B939DF85C300A93EA
:10ABC0009DF85B3009939DF85A3008939DF85930F1
:10ABD00007939DF8583006939DF8573005939DF8DC
:10ABE000563004939DF8553003939DF854300293EA
:10ABF0009DF8533001939DF8523000939DF85020FA
:10AC00009DF85130374935480FF0A2FF324933489B
:10AC1000354E364D0FF09CFF642019F039FE344953
:10AC20002C480FF095FF2C492A480FF091FF30492E
:10AC30002A480FF08DFF284928480FF089FF64202B
:10AC400019F026FE627A2B4922480FF081FF224933
:10AC500020480FF07DFF627A264920480FF078FFE8
:10AC60001D491E480FF074FF642019F011FEA27AEE
:10AC700021491848002A14BF32462A460FF068FFBF
:10AC8000154914480FF064FFA27A1B491348002AA3
:10AC900014BF32462A460FF05BFF0F490F48174E8C
:10ACA0000FF056FF642019F0F3FD15481AF008F96B
:10ACB0000025B4F88E20EBB2934205F1010580F235
:10ACC0003D8223443046197B1AF0FAF8F1E700BFC1
:10ACD0006C1D070050E20020685E0700B4E200200F
:10ACE0006BE30020941D0700CE1C0700521C0700D8
:10ACF000F51E0700051F0700131F0700A39F07008D
:10AD0000241F0700904991480FF022FF90498F4877
:10AD10000FF01EFF8C498F480FF01AFF8C498D48A9
:10AD20000FF016FF642019F0B3FD14A910228A4811
:10AD30000FF06EFA9DF85F300D939DF85E300C9326
:10AD40009DF85D300B939DF85C300A939DF85B3065
:10AD500009939DF85A3008939DF8593007939DF850
:10AD6000583006939DF8573005939DF8563004935C
:10AD70009DF8553003939DF8543002939DF853305D
:10AD800001939DF852309DF85020009373499DF82F
:10AD900051306E480FF0DCFE6D496C480FF0D8FE64
:10ADA0009DF85F300D939DF85E300C939DF85D30FB
:10ADB0000B939DF85C300A939DF85B3009939DF8E6
:10ADC0005A3008939DF8593007939DF858300693F0
:10ADD0009DF8573005939DF8563004939DF85530F3
:10ADE00003939DF8543002939DF8533001939DF8DE
:10ADF00052309DF85020009358499DF851305548E5
:10AE00000FF0A6FE524953480FF0A2FE642019F03D
:10AE10003FFD14A9102252480FF015FA9DF85F303B
:10AE20000D939DF85E300C939DF85D300B939DF86B
:10AE30005C300A939DF85B3009939DF85A30089373
:10AE40009DF8593007939DF8583006939DF8573078
:10AE500005939DF8563004939DF8553003939DF863
:10AE6000543002939DF8533001939DF852309DF871
:10AE7000502000933B499DF8513034480FF068FE54
:10AE8000334932480FF064FE9DF85F300D939DF812
:10AE90005E300C939DF85D300B939DF85C300A9307
:10AEA0009DF85B3009939DF85A3008939DF859300E
:10AEB00007939DF8583006939DF8573005939DF8F9
:10AEC000563004939DF8553003939DF85430029307
:10AED0009DF8533001939DF852309DF85020009317
:10AEE00020499DF851301B480FF032FE184919488F
:10AEF0000FF02EFE642019F0CBFC14A904221A488E
:10AF00000FF08FF99DF8533001939DF852309DF862
:10AF10005020009315499DF851300C480FF018FE51
:10AF20000B490A480FF014FE9DF8533001939DF829
:10AF3000523000939DF850209DF851300B49054840
:10AF40000FF006FE62E600BFDC1D070050E20020A5
:10AF5000685E0700B4E200206CE30020E51D0700F6
:10AF600070E300202E1E07006DE30020771E07000F
:10AF70007748002D40F09B800FF02FF8754902466E
:10AF800075480FF0E5FD754973480FF0E1FD704815
:10AF90000FF023F86F49024671480FF0D9FD6F4951
:10AFA0006F480FF0D5FD642019F072FC6D480FF06A
:10AFB00025F86D49024668480FF0CAFD67496648A2
:10AFC0000FF0C6FD67480FF019F86749024664485C
:10AFD0000FF0BEFD614962480FF0BAFD642019F020
:10AFE00057FC62480FF01BF8614902465A480FF0BF
:10AFF000AFFD5A4958480FF0ABFD5C480FF00FF811
:10B000005B49024656480FF0A3FD544954480FF0DF
:10B010009FFD642019F03CFC56480FF011F856498A
:10B0200002464D480FF094FD4C494B480FF090FDFF
:10B0300050480FF005F85049024649480FF088FD86
:10B04000464947480FF084FD642019F021FC4B4825
:10B050000FF007F84A4902463F480FF079FD3F4993
:10B060003D480FF075FD45480EF0FBFF4449024690
:10B070003B480FF06DFD394939480FF069FD6420F8
:10B0800019F006FC3F480EF0EEFF3F4902463248F9
:10B090000FF05EFD314930480FF05AFD39480EF08F
:10B0A000E2FF394902462E480FF052FDAEE50EF0A0
:10B0B00094FF2849024628480FF04AFD27492648B0
:10B0C0000FF046FD22480EF088FF22490246244830
:10B0D0000FF03EFD214922480FF03AFD642019F09F
:10B0E000D7FB2A480EF0F3FF294902461A480FF011
:10B0F0002FFD1A4918480FF02BFD24480EF0E7FFEA
:10B100002349024616480FF023FD144914480FF056
:10B110001FFD642019F0BCFB1E480EF0DAFF1E492B
:10B1200002460D480FF014FD0C490B480FF010FDBE
:10B1300018480EF0CEFF18490246B4E7074819F048
:10B14000BFFE00240EA80FF037FB204618B070BDDC
:10B1500099E30020901E070050E20020685E07007F
:10B16000B4E200209AE300209F1E07009BE300202A
:10B17000A71E07009CE30020AF1E07009DE30020F0
:10B18000B71E07009EE30020CC1E0700A2E30020AC
:10B19000DA1E0700A3E30020E71E070073B5556E13
:10B1A000012D0E4625D1144910680CF006F904460D
:10B1B000E0B90725CDE90005022332460F491048C2
:10B1C0000FF0C6FC0F490E480FF0C2FC02233246B6
:10B1D000CDE9004509490C480FF0BAFC09490A4875
:10B1E0000FF0B6FC642019F053FB2546284602B048
:10B1F00070BD0125FAE700BFEE7D0700351F07008F
:10B2000050E20020685E0700B4E200202DE9F84F0C
:10B21000614B1B78002B00F0BD80604B1B78002B2E
:10B2200040F0B680556E012D40F0B480D2F800A0F9
:10B230005B4950460CF0C1F80446002866D1594BD2
:10B2400059495A481D700FF083FC57495748DFF899
:10B2500080B10FF07DFC544955480FF079FC5249FC
:10B2600053480FF075FC642019F012FB2146514839
:10B270000FF099F929464F480FF095F902214D48F2
:10B280000FF091F901F0C0FA21464B4801F05CF94A
:10B290004A4801F05BFA4A4801F058FA01F0EAFA2C
:10B2A0000FF015FD4FF0000A054642F21076002718
:10B2B0009BF800308BB94FF47A7019F0E9FA0FF06F
:10B2C00006FDB0EB05086AEB4A09464577EB090332
:10B2D000EEDA03242046BDE8F88F02F04BF932493C
:10B2E00032480FF035FC304930480FF031FC2E4920
:10B2F0002F480FF02DFC2C492D480FF029FC64201D
:10B3000019F0C6FA2F480FF00DF9E3E72E49504621
:10B310000CF053F8044600283CD1224BDFF8B0B0C3
:10B320001D70014623480FF03EF9294621480FF0D1
:10B330003AF902211F480FF036F901F065FA21466B
:10B340001D4801F001F9214801F000FA1C4801F004
:10B35000FDF901F08FFA0FF0BAFC4FF0000A054634
:10B3600044F620684FF000099BF800306BB94FF4A9
:10B370007A7019F08DFA0FF0AAFC461B6AEB4A07A7
:10B38000B04579EB0703EFDAA3E702F0A7F8B9E7D6
:10B3900000249FE702249DE7D0D5002036D7002067
:10B3A000EE7D070020D70020685E070050E20020F5
:10B3B000B4E2002031E300202E1C07004F1F0700DD
:10B3C000451C0700C8E20020E96307005F1F070073
:10B3D000ECA300202DE9FF41536E012B0D461446CE
:10B3E00024D1394910680BF0E8FF044620B102244B
:10B3F000204604B0BDE8F08101F0D4FF294633486F
:10B400000FF072FB324931480FF05CFB314A324990
:10B41000D37903939379029353790193137900932A
:10B4200093782A4812880FF093FBE1E7052BDED1D1
:10B43000161F02F1100756F8045F28460BF0CFFFE5
:10B440002B462844984205D013F8012B303A092A9C
:10B45000F8D9CCE7BE42EED10022114620680CF0AC
:10B460002BF940F2D233A0F2E6729A420546BED8DA
:10B470000022606811460CF01FF9431E0B2B064694
:10B48000B5D80022A06811460CF016F9431E1E2BF9
:10B490000746ACD80022E06811460CF00DF91828D8
:10B4A0008046A4D80022206911460CF005F93B28FB
:10B4B0009DD8C2B200925FFA88F3FAB2F1B2A8B294
:10B4C00001F0E2FE002493E7EE7D070050E2002049
:10B4D000CE210700F4D900206F1F070007B5032312
:10B4E0000193054B0093054B054A064819460FF09A
:10B4F00024F803B05DF804FB01B70200821F0700C7
:10B500008A1F07002EE3002007B503230193054B94
:10B510000093054B054A064819460FF00EF803B094
:10B520005DF804FBCDB70200E21F0700E71F07002C
:10B530002EE3002007B503230193054B0093054B31
:10B54000054A064819460EF0F8FF03B05DF804FB03
:10B55000CDB80200452007004A2007002EE3002056
:10B5600007B503230193054B0093054B054A064895
:10B5700019460EF0E2FF03B05DF804FB0DB20200C5
:10B5800071200700762007002EE3002007B5032373
:10B590000193054B0093054B054A064819460EF0EA
:10B5A000CCFF03B05DF804FBD5B302008C2007008C
:10B5B000902007002EE3002007B503230193054BDD
:10B5C0000093054B054A064819460EF0B6FF03B036
:10B5D0005DF804FB95B90200B7200700BC20070006
:10B5E0002EE3002007B502230193054B0093054B82
:10B5F000054A064819460EF0A0FF03B05DF804FBAB
:10B600003DA70200252107002C2107002EE3002082
:10B6100007B502230193054B0093054B054A0648E5
:10B6200019460EF08AFF03B05DF804FB9DB10200DD
:10B63000432107004A2107002EE3002010B50D4CDE
:10B640000D4986B003A80FF0FDF803A920460EF0BF
:10B650005FFF03A80FF0B0F802230193074B00939C
:10B66000074B084A194604F126000EF066FF06B0A3
:10B6700010BD00BF08E30020622107002DA70200D3
:10B680006A2107007321070070B5194C19491A4E39
:10B69000C2B09022201D0BF0F5F89021201D19F06A
:10B6A00051FF00252060FE22294602A801950BF0DB
:10B6B000F7F8B4F88E30E8B2984205F1010508DADF
:10B6C000231831461A7B01AB03EB40000BF048FE18
:10B6D000EFE7074A0948942300210EF046FF28B9F6
:10B6E0000146034A054894230EF03FFF42B070BD67
:10B6F000F0A300201CA30020A39F07002FE300203D
:10B70000F8B5536E012B0E4602D002242046F8BD38
:10B710001568274928460BF050FE044660B12846BC
:10B720000BF05DFE2A462844904224D012F8013BDB
:10B73000303B092BF8D9E8E71E4F1F497B681F48AB
:10B7400032464FF47A75B3FBF5F30FF001FA1C495A
:10B750001A480FF0FDF97B681749B3FBF5F3324641
:10B7600018480FF0F5F9164916480FF0F1F9642062
:10B7700019F08EF8CAE70A22002128460BF09CFF38
:10B78000B0F5E15FC1D80B4C4FF47A735843606059
:10B7900000210D480EF007FF626822B100230A481D
:10B7A00019460EF0F6FEFFF76FFF0024AEE700BF6C
:10B7B000EE7D070018A300209621070050E200202C
:10B7C000685E0700B4E2002031E30020536E012BD5
:10B7D00070B50E4602D00224204670BD156833496C
:10B7E00028460BF0EAFD044660B128460BF0F7FD51
:10B7F0002A46284490421ED012F8013B303B092BC8
:10B80000F8D9E8E72A4D2B496B7A2B4832460FF0DE
:10B810009FF92A4928480FF09BF96B7A2549284857
:10B8200032460FF095F9254925480FF091F964202B
:10B8300019F02EF8D0E70A22002128460BF03CFF31
:10B840000328C8D81A4C637A984223D06072FFF755
:10B850001BFF637A012B22D01ED9023B012B21D979
:10B86000184915480FF074F9144913480FF070F98E
:10B87000144913480FF06CF9104911480FF068F99A
:10B88000642019F005F841F2883019F001F80E48EB
:10B890000EF048FE00249FE7FDF75AFBE0E7FDF7B6
:10B8A000AFFBDDE7FDF7D8FBDAE700BFEE7D070071
:10B8B00018A300209D21070050E20020685E0700C9
:10B8C000B4E20020A3210700C8E20020F8B5536EBF
:10B8D000012B0D4602D002242046F8BD17682549E9
:10B8E000254E38460BF069FD044678BBB6F88E301D
:10B8F000ABB92A46214922480FF02AF921492048AC
:10B900000FF026F92A461D491F480FF021F91D495D
:10B910001D480FF01DF9642018F0BAFFDCE7294636
:10B920001A481B4F19F0CCFA2546B6F88E20EBB218
:10B93000934205F1010505DA33443846197B19F0C5
:10B94000BFFAF2E70F4819F0BBFAC5E738460BF02B
:10B9500046FD06F10C0201460546384613F0A0FDEF
:10B9600004460028B7D16D08A6F88E50FFF78CFE6C
:10B97000B2E700BFEE7D070018A30020C02107003A
:10B9800050E20020685E0700B4E20020CC210700EE
:10B99000A39F0700536E012B2DE9F3410E46154678
:10B9A0002ED1274910680BF008FD044660BBDFF874
:10B9B000AC80244F98F800300193234D3B780093DE
:10B9C000EB7A2249224832460FF0C2F8214920483A
:10B9D0000FF0BEF898F8003001933B780093EB7AB3
:10B9E0001A491D4832460FF0B3F81A491A480FF0A9
:10B9F000AFF8642018F04CFF204602B0BDE8F0819B
:10BA0000002B01DC0224F7E70022286811460BF026
:10BA100053FE10F0FF0508D10B4BDC7A002CEBD065
:10BA2000DD72FFF731FE0024E6E7012DEAD1064B77
:10BA3000DC7A002CF7D1DD72FFF726FEDCE700BFD1
:10BA4000EE7D0700FCD9002018A30020D0210700BC
:10BA500050E20020685E0700B4E20020D0D500204C
:10BA6000F0B52E4D2E48C3B094232A4600210EF087
:10BA700072FD0646B8B12B7AAA2B17D19021281D4A
:10BA800019F060FD2B68274C834211D047F23052E9
:10BA9000AA23C4E90123244BE3600423A4F88E30D5
:10BAA000FFF7F2FD0026304643B0F0BD0020E9E785
:10BAB0006B6863606B7AB5F88E20032B86BF00231A
:10BAC000374600276372802A6B89638106D9002379
:10BAD0002373A4F88E30FFF7D7FD07E0134914480D
:10BAE000A4F88E200AF0CEFE002FF4D10025FE220D
:10BAF000294602A801950AF0D3FE0E4FB4F88E3005
:10BB0000E8B2984205F10105CDDA231839461A7BCF
:10BB100001AB03EB40000BF023FCEFE7F0A30020A8
:10BB20002FE3002018A3002001020304FCA300203F
:10BB300024A30020A39F070010B5074B53F8202033
:10BB4000002332F813408C42D8B203D80133102BB3
:10BB5000F7D1184610BD00BF10A5002013B5019005
:10BB60000F480EF0C7FB019980B2FFF7E5FF0446CE
:10BB70000C480EF09BFBA0420FD20B4800F0E6FDF4
:10BB80000A490B4822460BF0EBFB094800F0DEFDAA
:10BB9000084B0020187002B010BD0120FBE700BF69
:10BBA0008AE3002078E3002045220700572207009F
:10BBB000D5D50020F1D600202DE9F3410121754EA5
:10BBC000074622200FF077F84FF4FA7018F060FE65
:10BBD0003478002C7ED170497048009440F24C4378
:10BBE000422207F0C3FC054620B90024204602B0DB
:10BBF000BDE8F08169484FF0020840F24C42012153
:10BC000086F8008007F0CCFA654E002F57D040F23E
:10BC10004C4322460121614807F03AFB40F24C4375
:10BC2000424601215D4807F033FB40F24C430622B7
:10BC300001215A4807F02CFB0122114640F24C43E7
:10BC4000564807F025FB40F24C430322012153489C
:10BC500007F01EFB40F24C43042201214F4807F03D
:10BC600017FB40F24C4305224C48012107F010FB22
:10BC7000F37A40F24C42E3B10521484807F0D7FC83
:10BC8000464840F24C432246012107F0D7FB434887
:10BC900040F24C4107F08AFA737A023B012B02D83A
:10BCA000F47A002CA2D1002122200FF004F82C46B7
:10BCB0009CE74FF4FA71394807F0FAFCE7E740F2E5
:10BCC0004C424FF0FF31354807F090FAFA2018F057
:10BCD000DFFDE1E7002530493048009540F24C4354
:10BCE000422207F043FC044600283FF47EAF40F2B6
:10BCF0004C420121294807F053FA40F24C432A46AE
:10BD00000121264807F0C4FA40F24C4302220121E7
:10BD1000224807F0BDFA40F24C43062201211F4899
:10BD200007F0B6FA0122114640F24C431B4807F0D7
:10BD3000AFFA40F24C4303220121184807F0A8FA59
:10BD400040F24C4304220121144807F0A1FA40F2CA
:10BD50004C4305221148012107F09AFA104BDB7A77
:10BD600040F24C4283B105210C4807F060FC0B48BF
:10BD700040F24C432A46012107F060FB40F24C415F
:10BD8000064807F013FA31E74FF4FA71034807F059
:10BD90008FFCF3E744D70020ACE3002074D70020E9
:10BDA00018A30020000000002DE9F04FDFF80C83FD
:10BDB000A94FAA4CAA4DDFF80893AA4E8BB00023D6
:10BDC00000220021C8E90023C7E900234FF0000A40
:10BDD0001C2203A82970C9F8001021700291C6F82E
:10BDE00000A00AF05DFDA04902A80BF0F0FA9F4BFD
:10BDF0009F48DB7AA34640F24C41002B66D007F007
:10BE000020FDC117C8E9000140F24C41984807F0F5
:10BE1000FDFCC117C7E9000140F24C41944807F00E
:10BE20002BFD40F24C41C9F80000914807F07FFC1F
:10BE300007EE900AF8EE677A40F24C418C48C6ED66
:10BE4000007A07F0C8FC40F24C412070884807F0A7
:10BE500086FC012829D1874902A80BF0B8FA96ED93
:10BE6000007ADFED857AB4EEE77AF1EE10FA05D5C7
:10BE70007A4B1B78052B01D901232B702B7803F00B
:10BE8000FF04002B00F0D280D7E900E31A46D8F86F
:10BE90000430D8F800C01A434CEA0E00114650EAAC
:10BEA000010378D100242C70AAE0022801D1734943
:10BEB000D2E7032801D17249CEE7042801D17149A4
:10BEC000CAE705280CBF70496749C5E707F064FC5D
:10BED0000028D3D0012124200EF0EDFE644840F26A
:10BEE0004C4107F03CFC044600283DD15E4902A8C5
:10BEF0000BF06DFA5E4840F24C4107F06CFC634B6E
:10BF00008BF800001A78904242D1614A13780133CD
:10BF10001370022CB2D95E4B1B78012BAED90123D2
:10BF200040F24C4152482B7007F08BFCC117C8E916
:10BF3000000140F24C414E4807F068FCC117C7E9C8
:10BF4000000140F24C414A4807F096FC40F24C4157
:10BF5000C9F80000464807F0EAFB07EE900AF8EE41
:10BF6000677AC6ED007A89E7012801D14949BEE721
:10BF7000022801D14849BAE7032801D14749B6E769
:10BF8000042801D13F49B2E70528B3D13E49AEE7C5
:10BF900088BF1870BDE7354B304D5B7A032B33D12A
:10BFA0003F4B40481B6872461BB2614601F020FFC0
:10BFB000D8E9000144F012FF25A3D3E9002345F09E
:10BFC00065F845F031FA384B1860D7E9000144F0C4
:10BFD00005FF1FA3D3E9002345F058F845F024FAE4
:10BFE000324B32681860324B1A604FF47A72D9F8CB
:10BFF000003093FBF2F32F4A13602F4B2A781A700C
:10C0000020460BB0BDE8F08FD9F8003096ED000A5D
:10C0100024484FF47A7193FBF1F395F900100091E5
:10C020001BB27246614601F017FEC1E71E4BC3F812
:10C0300000A01E4BC3F800A01D4B4FF07E521A60AB
:10C040001C4B1C601C4B1C702DE700BFAFF3008025
:10C0500000000000D012634168D70020F8D800200B
:10C0600059D7002038D700206522070018A30020E8
:10C0700074D700206C220700000096437B22070043
:10C0800087220700932207009C22070070D7002018
:10C0900071D70020A5220700AF220700B6220700B3
:10C0A000E8D60020C4D5002050D7002054D7002067
:10C0B00048D700204CD7002058D7002060D7002058
:10C0C0003CD700202DE9F041012186B023200EF05D
:10C0D000F2FDFFF769FE6B4F6B4E0446002800F03F
:10C0E0009C806A4BD97A11B922200EF0E4FD684B8E
:10C0F000002264201A7018F0CBFB664803210EF072
:10C1000052FA3B78002B36D0634B1B78002B32D190
:10C1100000F07AFB614800F019FB614B1868614B35
:10C120001D68614BD3F8008044F02EFE02460B469A
:10C130002846CDE90423CDF8088044F025FEDDE94A
:10C140000423CDE90001594959480BF009F9584831
:10C1500000F0FCFA574B1868574B1D7844F014FE5A
:10C16000EDB202460B465248544900950BF0F8F8E0
:10C170004F4800F0EBFA524B1B781BB95148012194
:10C180000EF0E7F85048DFF8588101F0F7FE80B272
:10C19000FFF7E4FC0546E0B14B4801F0EFFE0490E8
:10C1A000494801F0EDFE01240023CDE90043024699
:10C1B0000499464823460DF0CBFF38B988F80000B3
:10C1C000434A1368013313602C4604E088F80040AA
:10C1D000F6E788F800003B78002B49D0002C47D1C7
:10C1E0002D4B1B78002B43D100F00EFB304B1C7005
:10C1F000264BDB7A002B30D0364800F0A7FA364BBE
:10C200001A7862BB34882A4B2A20114694422ADDD0
:10C210001870013203F8011FF8E7304B32881B8891
:10C220009A42D8D3642018F033FB194B19481C707C
:10C230002B4B03211C700EF0B6F93D785DB1164B07
:10C240001C78002CC7D1274919480BF0C0F81848B2
:10C2500000F07CFAB8E70124BDE72348CDE7234985
:10C2600013480BF07DF8124800F070FA00F002FB62
:10C270003388002101332320338006B0BDE8F0412C
:10C280000EF019BDCFD5002040D7002018A3002004
:10C29000CCD5002031E3002020D70020BD220700AC
:10C2A00050D7002054D700204CD70020C7220700C9
:10C2B000D5D5002048D7002058D70020D722070026
:10C2C000F0D600208CE30020C4D5002069E30020D4
:10C2D000E8D6002001230700F8D8002042D700202C
:10C2E000F1D60020E9220700172307002A230700C0
:10C2F00010B5054C204602F0A5F82046034A044933
:10C30000BDE810400AF050BA74D7002090A1002078
:10C3100051EA02000020704738B590F833300446E7
:10C320000D4613B1406B0EF037FB94F83010606B84
:10C330000EF076FB606B802100F02DF8606B0368D7
:10C3400029461B689847606B0121BDE838400EF014
:10C3500073BB000010B5034B0360044607F084FB79
:10C36000204610BD9C24070010B50446406B0EF01B
:10C3700013FB606B02490EF023FB012010BD00BFD0
:10C38000801A060010B50446FFF7E4FF20460CF0C3
:10C390005DFD204610BD0368C9B21B6818472DE932
:10C3A000F84F90F83330044613B1406B0EF0F4FAB6
:10C3B000658AC5F180054FF0000A05EBD575FF27AA
:10C3C0006D10D146D0463E46A38A5FFA8AF1B1EBA2
:10C3D000D30F28DA4FF0000C638A5FFA8CF0984292
:10C3E0001CDA11FB03F30344A2689BB212F803E0CA
:10C3F000E26812F803B0F3450BD08E4228BF0E4618
:10C40000884538BF8846874228BF0746814538BFE0
:10C41000814602F803E00CF1010CDDE70EF0CBF8E9
:10C420000AF1010AD0E7FF2E57D0236821219B692A
:10C4300020469847236857FA85F19B69C9B2204680
:10C4400098475FFA85FA23680AEB09019B69C9B22C
:10C4500020469847236822219B69204698472368F5
:10C4600031469B6920469847236841469B69204690
:10C4700098470025B04529D3BA46CA4521D845B9C1
:10C4800094F83010606B0EF0CBFA606B4021FFF730
:10C4900082FFA268606B638A06FB0323026813F8BD
:10C4A0000A1012680135EDB29047102D04D1606B6F
:10C4B00001210EF0C1FA00250AF1010A5FFA8AFA99
:10C4C000DBE701360EF077F8F6B2D3E72DB1606BFB
:10C4D0000121BDE8F84F0EF0AFBABDE8F88F0000BB
:10C4E00038B51648164C0EF057FA4FF4FA7018F09B
:10C4F000CFF90125204684F8335007F06CFE204622
:10C5000007F01FFD204607F09AFD204607F007FDC3
:10C51000C821204607F05CFD204607F083FD40233C
:10C52000F1222046642107F01EFD0649204607F04F
:10C53000F4FC2046FFF733FF284638BDACE300206B
:10C54000BCD90020BC24070030B52DED028B044679
:10C5500097B04F480D464F4907F0DFFC4C4800218B
:10C5600007F08CFA00220B231146494800938023E0
:10C5700007F09CFB4648012107F080FA444800215F
:10C5800007F0C9FC444B1B787BB1444B1B7863B16B
:10C590005DB1434906A80EF055F906AB00223C48B0
:10C5A000114607F055FE06A81AE03E4BDD7A002D35
:10C5B0002FD03D4B3D4918783D4A2346002808BFFF
:10C5C0000A463C4906A80AF0CBFE06A903A80EF0CD
:10C5D00039F900222E4803AB114607F039FE03A8B3
:10C5E0000EF0EAF84FF08043D3F8384414F0FF041B
:10C5F00016D0032C46D00B2200927F230021244822
:10C6000007F073FA2248FFF7CAFE17B0BDEC028BA1
:10C6100030BD214606A80EF015F906AB2A46BEE746
:10C6200025489FED268A244C0DF07EFF0A252046E2
:10C630000DF07AFF013D38EE008AF8D1F2EE047A6F
:10C64000C8EE277A17EE900A44F09EFB02460B468E
:10C6500006A81B490AF084FE82B206A90C4807F01E
:10C660003DFC06A9044603A80EF0ECF8C4F17F01D6
:10C67000074803AB002209B207F0EAFD03A80EF059
:10C680009BF8B8E70F4906A80AF0A1FE2246E4E7A6
:10C69000BCD90020BC2407002CDA0020D0D5002013
:10C6A0003523070018A3002059D70020559F070005
:10C6B0008E620700432307002DE3002000000000E6
:10C6C000492307004F230700F0B51C481C4F1D4E9F
:10C6D0001A4D87B0002107F0D1F940230C221748EA
:10C6E00000930021802307F0E1FA1749134807F06F
:10C6F00014FC1248012107F0C1F91048002107F08D
:10C700000AFC00243B78A34213DD06EB441103A886
:10C710000EF098F804EB840252000C3203AB12B214
:10C720000021284607F094FD03A80EF045F80134D7
:10C73000E8E70248FFF733FE07B0F0BDBCD90020A0
:10C74000F9D80020FAD80020BC24070070B5274C87
:10C75000274D2278052A034638D105F120022946C3
:10C7600005F1400052F8046B41F8046B8242F9D1A4
:10C77000204AA2F1200102F1200052F8046B41F896
:10C78000046B8242F9D11C4AA2F1200102F120007F
:10C7900052F8046B41F8046B8242F9D1174AA2F1B6
:10C7A000200102F1200052F8046B41F8046B824230
:10C7B000F9D1134AA2F1200102F1200052F8046BD2
:10C7C00041F8046B8242F9D10422227020780D4A8C
:10C7D00005EB401020210AF08FFD2378052B1CBFAC
:10C7E00001332370BDE87040FFF76EBFF9D8002019
:10C7F000FAD800203AD900205AD900207AD900204E
:10C800009AD90020DA7D070007B50B48002107F010
:10C8100035F9402300930C2280230748002107F0BC
:10C8200045FA0548012107F029F9044B00221A7046
:10C8300003B05DF804FB00BFBCD90020F9D800208C
:10C8400030B585B004460D4601A811460EF01CF81F
:10C8500004EB840252000C3201AB12B229460448A8
:10C8600007F0F6FC01A80DF0A7FF05B030BD00BF32
:10C87000BCD9002008B50248FFF791FD08BD00BFF4
:10C88000BCD9002070B504460B4D0C487CB107F0B4
:10C8900046FB01232B700A4B9B7A5BB1BDE87040CD
:10C8A000084800234EF6602202210DF072BE07F008
:10C8B00048FB2C7070BD00BF60A50020BCD90020D3
:10C8C00018A3002031E300200020FFF7DBBF0000A9
:10C8D0002DE9F04F89B015461C469DF848309DF86B
:10C8E0004CA0029180460193FFF78EFF012D6BD182
:10C8F0008C498D4C05A80DF0A5FF002105AA08461E
:10C90000FFF79EFF05A80DF057FF627A032A0FD8A4
:10C91000DFE802F002545658844905A80DF092FF52
:10C92000012005AA0021FFF78BFF05A80DF044FFA9
:10C930004FF47A7362687E49B2FBF3F27D487E4D14
:10C940007E4C0AF00DFD7B4905A80DF07BFF05AA82
:10C9500000210220FFF774FF05A80DF02DFFBAF1AA
:10C96000000F14BF2A462246754972480AF0F8FCA7
:10C97000704905A80DF066FF05AA00210320FFF706
:10C980005FFF05A80DF018FF019B6E49002B14BF37
:10C990002A46224667480AF0E3FC664905A80DF0DE
:10C9A00051FF05AA00210420FFF74AFF05A80DF05A
:10C9B00003FFFFF75FFF09B0BDE8F08F6249ACE706
:10C9C0006249AAE76249A8E7062D2BD1554905A877
:10C9D0000DF038FF002105AA0846FFF731FF05A832
:10C9E0000DF0EAFE5B4905A80DF02CFF05AA002119
:10C9F0000120FFF725FF05A80DF0DEFE564905A82A
:10CA00000DF020FF05AA00210220FFF719FF05A85D
:10CA10000DF0D2FE444B51495A684FF47A73B2FB81
:10CA2000F3F2B7E7072D60D13E4905A80DF00AFFE4
:10CA3000002105AA0846FFF703FF05A80DF0BCFE7C
:10CA4000474905A80DF0FEFE05AA00210120FFF7C9
:10CA5000F7FE05A80DF0B0FE424905A80DF0F2FE64
:10CA6000022005AA0021FFF7EBFE05A80DF0A4FEA9
:10CA7000002C35D0631E0C2CDBB233D0651CEDB21C
:10CA8000394E2C4856F823100AF0A1FC294905A874
:10CA90000DF0D8FE05AA40210220FFF7D1FE05A81F
:10CAA0000DF08AFE56F82420304922480AF058FC3E
:10CAB000204905A80DF0C6FE402105AA0320FFF776
:10CAC000BFFE05A80DF078FE56F8251019480AF0AB
:10CAD0007EFC184905A80DF0B5FE05AA402162E7C5
